{"abi":[{"constant":false,"inputs":[{"name":"spender","type":"address"},{"name":"value","type":"uint256"}],"name":"approve","outputs":[{"name":"","type":"bool"}],"payable":false,"stateMutability":"nonpayable","type":"function"},{"constant":true,"inputs":[],"name":"totalSupply","outputs":[{"name":"","type":"uint256"}],"payable":false,"stateMutability":"view","type":"function"},{"constant":false,"inputs":[{"name":"from","type":"address"},{"name":"to","type":"address"},{"name":"value","type":"uint256"}],"name":"transferFrom","outputs":[{"name":"","type":"bool"}],"payable":false,"stateMutability":"nonpayable","type":"function"},{"constant":true,"inputs":[],"name":"cap","outputs":[{"name":"","type":"uint256"}],"payable":false,"stateMutability":"view","type":"function"},{"constant":false,"inputs":[{"name":"spender","type":"address"},{"name":"addedValue","type":"uint256"}],"name":"increaseAllowance","outputs":[{"name":"","type":"bool"}],"payable":false,"stateMutability":"nonpayable","type":"function"},{"constant":false,"inputs":[{"name":"to","type":"address"},{"name":"value","type":"uint256"}],"name":"mint","outputs":[{"name":"","type":"bool"}],"payable":false,"stateMutability":"nonpayable","type":"function"},{"constant":true,"inputs":[{"name":"owner","type":"address"}],"name":"balanceOf","outputs":[{"name":"","type":"uint256"}],"payable":false,"stateMutability":"view","type":"function"},{"constant":false,"inputs":[{"name":"account","type":"address"}],"name":"addMinter","outputs":[],"payable":false,"stateMutability":"nonpayable","type":"function"},{"constant":false,"inputs":[],"name":"renounceMinter","outputs":[],"payable":false,"stateMutability":"nonpayable","type":"function"},{"constant":false,"inputs":[{"name":"spender","type":"address"},{"name":"subtractedValue","type":"uint256"}],"name":"decreaseAllowance","outputs":[{"name":"","type":"bool"}],"payable":false,"stateMutability":"nonpayable","type":"function"},{"constant":false,"inputs":[{"name":"to","type":"address"},{"name":"value","type":"uint256"}],"name":"transfer","outputs":[{"name":"","type":"bool"}],"payable":false,"stateMutability":"nonpayable","type":"function"},{"constant":true,"inputs":[{"name":"account","type":"address"}],"name":"isMinter","outputs":[{"name":"","type":"bool"}],"payable":false,"stateMutability":"view","type":"function"},{"constant":true,"inputs":[{"name":"owner","type":"address"},{"name":"spender","type":"address"}],"name":"allowance","outputs":[{"name":"","type":"uint256"}],"payable":false,"stateMutability":"view","type":"function"},{"inputs":[{"name":"cap","type":"uint256"}],"payable":false,"stateMutability":"nonpayable","type":"constructor"},{"anonymous":false,"inputs":[{"indexed":true,"name":"account","type":"address"}],"name":"MinterAdded","type":"event"},{"anonymous":false,"inputs":[{"indexed":true,"name":"account","type":"address"}],"name":"MinterRemoved","type":"event"},{"anonymous":false,"inputs":[{"indexed":true,"name":"from","type":"address"},{"indexed":true,"name":"to","type":"address"},{"indexed":false,"name":"value","type":"uint256"}],"name":"Transfer","type":"event"},{"anonymous":false,"inputs":[{"indexed":true,"name":"owner","type":"address"},{"indexed":true,"name":"spender","type":"address"},{"indexed":false,"name":"value","type":"uint256"}],"name":"Approval","type":"event"}],"devdoc":{"details":"Mintable token with a token cap.","methods":{"allowance(address,address)":{"details":"Function to check the amount of tokens that an owner allowed to a spender.","params":{"owner":"address The address which owns the funds.","spender":"address The address which will spend the funds."},"return":"A uint256 specifying the amount of tokens still available for the spender."},"approve(address,uint256)":{"details":"Approve the passed address to spend the specified amount of tokens on behalf of msg.sender. Beware that changing an allowance with this method brings the risk that someone may use both the old and the new allowance by unfortunate transaction ordering. One possible solution to mitigate this race condition is to first reduce the spender's allowance to 0 and set the desired value afterwards: https://github.com/ethereum/EIPs/issues/20#issuecomment-263524729","params":{"spender":"The address which will spend the funds.","value":"The amount of tokens to be spent."}},"balanceOf(address)":{"details":"Gets the balance of the specified address.","params":{"owner":"The address to query the balance of."},"return":"A uint256 representing the amount owned by the passed address."},"cap()":{"return":"the cap for the token minting."},"decreaseAllowance(address,uint256)":{"details":"Decrease the amount of tokens that an owner allowed to a spender. approve should be called when _allowed[msg.sender][spender] == 0. To decrement allowed value is better to use this function to avoid 2 calls (and wait until the first transaction is mined) From MonolithDAO Token.sol Emits an Approval event.","params":{"spender":"The address which will spend the funds.","subtractedValue":"The amount of tokens to decrease the allowance by."}},"increaseAllowance(address,uint256)":{"details":"Increase the amount of tokens that an owner allowed to a spender. approve should be called when _allowed[msg.sender][spender] == 0. To increment allowed value is better to use this function to avoid 2 calls (and wait until the first transaction is mined) From MonolithDAO Token.sol Emits an Approval event.","params":{"addedValue":"The amount of tokens to increase the allowance by.","spender":"The address which will spend the funds."}},"mint(address,uint256)":{"details":"Function to mint tokens","params":{"to":"The address that will receive the minted tokens.","value":"The amount of tokens to mint."},"return":"A boolean that indicates if the operation was successful."},"totalSupply()":{"details":"Total number of tokens in existence"},"transfer(address,uint256)":{"details":"Transfer token to a specified address","params":{"to":"The address to transfer to.","value":"The amount to be transferred."}},"transferFrom(address,address,uint256)":{"details":"Transfer tokens from one address to another. Note that while this function emits an Approval event, this is not required as per the specification, and other compliant implementations may not emit the event.","params":{"from":"address The address which you want to send tokens from","to":"address The address which you want to transfer to","value":"uint256 the amount of tokens to be transferred"}}},"title":"Capped token"},"evm":{"assembly":"    /* \"ERC20Capped.sol\":128:585  contract ERC20Capped is ERC20Mintable {... */\n  mstore(0x40, 0x80)\n    /* \"ERC20Capped.sol\":199:285  constructor (uint256 cap) public {... */\n  callvalue\n    /* \"--CODEGEN--\":8:17   */\n  dup1\n    /* \"--CODEGEN--\":5:7   */\n  iszero\n  tag_1\n  jumpi\n    /* \"--CODEGEN--\":30:31   */\n  0x00\n    /* \"--CODEGEN--\":27:28   */\n  dup1\n    /* \"--CODEGEN--\":20:32   */\n  revert\n    /* \"--CODEGEN--\":5:7   */\ntag_1:\n    /* \"ERC20Capped.sol\":199:285  constructor (uint256 cap) public {... */\n  pop\n  mload(0x40)\n  0x20\n  dup1\n  bytecodeSize\n  dup4\n  codecopy\n  dup2\n  add\n  dup1\n  0x40\n  mstore\n    /* \"--CODEGEN--\":13:15   */\n  0x20\n    /* \"--CODEGEN--\":8:11   */\n  dup2\n    /* \"--CODEGEN--\":5:16   */\n  lt\n    /* \"--CODEGEN--\":2:4   */\n  iszero\n  tag_2\n  jumpi\n    /* \"--CODEGEN--\":29:30   */\n  0x00\n    /* \"--CODEGEN--\":26:27   */\n  dup1\n    /* \"--CODEGEN--\":19:31   */\n  revert\n    /* \"--CODEGEN--\":2:4   */\ntag_2:\n    /* \"ERC20Capped.sol\":199:285  constructor (uint256 cap) public {... */\n  dup2\n  add\n  swap1\n  dup1\n  dup1\n  mload\n  swap1\n  0x20\n  add\n  swap1\n  swap3\n  swap2\n  swap1\n  pop\n  pop\n  pop\n    /* \"MinterRole.sol\":274:296  _addMinter(msg.sender) */\n  tag_6\n    /* \"MinterRole.sol\":285:295  msg.sender */\n  caller\n    /* \"MinterRole.sol\":274:284  _addMinter */\n  mul(0x0100000000, tag_7)\n    /* \"MinterRole.sol\":274:296  _addMinter(msg.sender) */\n  0x0100000000\n  swap1\n  div\n  jump\t// in\ntag_6:\n    /* \"ERC20Capped.sol\":256:257  0 */\n  0x00\n    /* \"ERC20Capped.sol\":250:253  cap */\n  dup2\n    /* \"ERC20Capped.sol\":250:257  cap > 0 */\n  gt\n    /* \"ERC20Capped.sol\":242:258  require(cap > 0) */\n  iszero\n  iszero\n  tag_9\n  jumpi\n  0x00\n  dup1\n  revert\ntag_9:\n    /* \"ERC20Capped.sol\":275:278  cap */\n  dup1\n    /* \"ERC20Capped.sol\":268:272  _cap */\n  0x04\n    /* \"ERC20Capped.sol\":268:278  _cap = cap */\n  dup2\n  swap1\n  sstore\n  pop\n    /* \"ERC20Capped.sol\":199:285  constructor (uint256 cap) public {... */\n  pop\n    /* \"ERC20Capped.sol\":128:585  contract ERC20Capped is ERC20Mintable {... */\n  jump(tag_10)\n    /* \"MinterRole.sol\":684:803  function _addMinter(address account) internal {... */\ntag_7:\n    /* \"MinterRole.sol\":740:761  _minters.add(account) */\n  tag_12\n    /* \"MinterRole.sol\":753:760  account */\n  dup2\n    /* \"MinterRole.sol\":740:748  _minters */\n  0x03\n    /* \"MinterRole.sol\":740:752  _minters.add */\n  or(tag_0_113, mul(0x0100000000, tag_13))\n  swap1\n    /* \"MinterRole.sol\":740:761  _minters.add(account) */\n  swap2\n  swap1\n  0x0100000000\n  swap1\n  div\n  jump\t// in\ntag_12:\n    /* \"MinterRole.sol\":788:795  account */\n  dup1\n    /* \"MinterRole.sol\":776:796  MinterAdded(account) */\n  0xffffffffffffffffffffffffffffffffffffffff\n  and\n  0x6ae172837ea30b801fbfcdd4108aa1d5bf8ff775444fd70256b44e6bf3dfc3f6\n  mload(0x40)\n  mload(0x40)\n  dup1\n  swap2\n  sub\n  swap1\n  log2\n    /* \"MinterRole.sol\":684:803  function _addMinter(address account) internal {... */\n  pop\n  jump\t// out\n    /* \"Roles.sol\":259:440  function add(Role storage role, address account) internal {... */\ntag_13:\n    /* \"Roles.sol\":354:355  0 */\n  0x00\n    /* \"Roles.sol\":335:356  account != address(0) */\n  0xffffffffffffffffffffffffffffffffffffffff\n  and\n    /* \"Roles.sol\":335:342  account */\n  dup2\n    /* \"Roles.sol\":335:356  account != address(0) */\n  0xffffffffffffffffffffffffffffffffffffffff\n  and\n  eq\n  iszero\n    /* \"Roles.sol\":327:357  require(account != address(0)) */\n  iszero\n  iszero\n  tag_15\n  jumpi\n  0x00\n  dup1\n  revert\ntag_15:\n    /* \"Roles.sol\":376:394  has(role, account) */\n  tag_16\n    /* \"Roles.sol\":380:384  role */\n  dup3\n    /* \"Roles.sol\":386:393  account */\n  dup3\n    /* \"Roles.sol\":376:379  has */\n  mul(0x0100000000, tag_17)\n    /* \"Roles.sol\":376:394  has(role, account) */\n  0x0100000000\n  swap1\n  div\n  jump\t// in\ntag_16:\n    /* \"Roles.sol\":375:394  !has(role, account) */\n  iszero\n    /* \"Roles.sol\":367:395  require(!has(role, account)) */\n  iszero\n  iszero\n  tag_18\n  jumpi\n  0x00\n  dup1\n  revert\ntag_18:\n    /* \"Roles.sol\":429:433  true */\n  0x01\n    /* \"Roles.sol\":406:410  role */\n  dup3\n    /* \"Roles.sol\":406:417  role.bearer */\n  0x00\n  add\n    /* \"Roles.sol\":406:426  role.bearer[account] */\n  0x00\n    /* \"Roles.sol\":418:425  account */\n  dup4\n    /* \"Roles.sol\":406:426  role.bearer[account] */\n  0xffffffffffffffffffffffffffffffffffffffff\n  and\n  0xffffffffffffffffffffffffffffffffffffffff\n  and\n  dup2\n  mstore\n  0x20\n  add\n  swap1\n  dup2\n  mstore\n  0x20\n  add\n  0x00\n  keccak256\n  0x00\n    /* \"Roles.sol\":406:433  role.bearer[account] = true */\n  0x0100\n  exp\n  dup2\n  sload\n  dup2\n  0xff\n  mul\n  not\n  and\n  swap1\n  dup4\n  iszero\n  iszero\n  mul\n  or\n  swap1\n  sstore\n  pop\n    /* \"Roles.sol\":259:440  function add(Role storage role, address account) internal {... */\n  pop\n  pop\n  jump\t// out\n    /* \"Roles.sol\":786:948  function has(Role storage role, address account) internal view returns (bool) {... */\ntag_17:\n    /* \"Roles.sol\":858:862  bool */\n  0x00\n    /* \"Roles.sol\":901:902  0 */\n  dup1\n    /* \"Roles.sol\":882:903  account != address(0) */\n  0xffffffffffffffffffffffffffffffffffffffff\n  and\n    /* \"Roles.sol\":882:889  account */\n  dup3\n    /* \"Roles.sol\":882:903  account != address(0) */\n  0xffffffffffffffffffffffffffffffffffffffff\n  and\n  eq\n  iszero\n    /* \"Roles.sol\":874:904  require(account != address(0)) */\n  iszero\n  iszero\n  tag_20\n  jumpi\n  0x00\n  dup1\n  revert\ntag_20:\n    /* \"Roles.sol\":921:925  role */\n  dup3\n    /* \"Roles.sol\":921:932  role.bearer */\n  0x00\n  add\n    /* \"Roles.sol\":921:941  role.bearer[account] */\n  0x00\n    /* \"Roles.sol\":933:940  account */\n  dup4\n    /* \"Roles.sol\":921:941  role.bearer[account] */\n  0xffffffffffffffffffffffffffffffffffffffff\n  and\n  0xffffffffffffffffffffffffffffffffffffffff\n  and\n  dup2\n  mstore\n  0x20\n  add\n  swap1\n  dup2\n  mstore\n  0x20\n  add\n  0x00\n  keccak256\n  0x00\n  swap1\n  sload\n  swap1\n  0x0100\n  exp\n  swap1\n  div\n  0xff\n  and\n    /* \"Roles.sol\":914:941  return role.bearer[account] */\n  swap1\n  pop\n    /* \"Roles.sol\":786:948  function has(Role storage role, address account) internal view returns (bool) {... */\n  swap3\n  swap2\n  pop\n  pop\n  jump\t// out\n    /* \"ERC20Capped.sol\":128:585  contract ERC20Capped is ERC20Mintable {... */\ntag_10:\n  dataSize(sub_0)\n  dup1\n  dataOffset(sub_0)\n  0x00\n  codecopy\n  0x00\n  return\nstop\n\nsub_0: assembly {\n        /* \"ERC20Capped.sol\":128:585  contract ERC20Capped is ERC20Mintable {... */\n      mstore(0x40, 0x80)\n      callvalue\n        /* \"--CODEGEN--\":8:17   */\n      dup1\n        /* \"--CODEGEN--\":5:7   */\n      iszero\n      tag_1\n      jumpi\n        /* \"--CODEGEN--\":30:31   */\n      0x00\n        /* \"--CODEGEN--\":27:28   */\n      dup1\n        /* \"--CODEGEN--\":20:32   */\n      revert\n        /* \"--CODEGEN--\":5:7   */\n    tag_1:\n        /* \"ERC20Capped.sol\":128:585  contract ERC20Capped is ERC20Mintable {... */\n      pop\n      jumpi(tag_2, lt(calldatasize, 0x04))\n      calldataload(0x00)\n      0x0100000000000000000000000000000000000000000000000000000000\n      swap1\n      div\n      dup1\n      0x70a08231\n      gt\n      tag_16\n      jumpi\n      dup1\n      0xa457c2d7\n      gt\n      tag_17\n      jumpi\n      dup1\n      0xa457c2d7\n      eq\n      tag_12\n      jumpi\n      dup1\n      0xa9059cbb\n      eq\n      tag_13\n      jumpi\n      dup1\n      0xaa271e1a\n      eq\n      tag_14\n      jumpi\n      dup1\n      0xdd62ed3e\n      eq\n      tag_15\n      jumpi\n      jump(tag_2)\n    tag_17:\n      dup1\n      0x70a08231\n      eq\n      tag_9\n      jumpi\n      dup1\n      0x983b2d56\n      eq\n      tag_10\n      jumpi\n      dup1\n      0x98650275\n      eq\n      tag_11\n      jumpi\n      jump(tag_2)\n    tag_16:\n      dup1\n      0x095ea7b3\n      eq\n      tag_3\n      jumpi\n      dup1\n      0x18160ddd\n      eq\n      tag_4\n      jumpi\n      dup1\n      0x23b872dd\n      eq\n      tag_5\n      jumpi\n      dup1\n      0x355274ea\n      eq\n      tag_6\n      jumpi\n      dup1\n      0x39509351\n      eq\n      tag_7\n      jumpi\n      dup1\n      0x40c10f19\n      eq\n      tag_8\n      jumpi\n    tag_2:\n      0x00\n      dup1\n      revert\n        /* \"ERC20.sol\":2712:2857  function approve(address spender, uint256 value) public returns (bool) {... */\n    tag_3:\n      tag_18\n      0x04\n      dup1\n      calldatasize\n      sub\n        /* \"--CODEGEN--\":13:15   */\n      0x40\n        /* \"--CODEGEN--\":8:11   */\n      dup2\n        /* \"--CODEGEN--\":5:16   */\n      lt\n        /* \"--CODEGEN--\":2:4   */\n      iszero\n      tag_19\n      jumpi\n        /* \"--CODEGEN--\":29:30   */\n      0x00\n        /* \"--CODEGEN--\":26:27   */\n      dup1\n        /* \"--CODEGEN--\":19:31   */\n      revert\n        /* \"--CODEGEN--\":2:4   */\n    tag_19:\n        /* \"ERC20.sol\":2712:2857  function approve(address spender, uint256 value) public returns (bool) {... */\n      dup2\n      add\n      swap1\n      dup1\n      dup1\n      calldataload\n      0xffffffffffffffffffffffffffffffffffffffff\n      and\n      swap1\n      0x20\n      add\n      swap1\n      swap3\n      swap2\n      swap1\n      dup1\n      calldataload\n      swap1\n      0x20\n      add\n      swap1\n      swap3\n      swap2\n      swap1\n      pop\n      pop\n      pop\n      tag_20\n      jump\t// in\n    tag_18:\n      mload(0x40)\n      dup1\n      dup3\n      iszero\n      iszero\n      iszero\n      iszero\n      dup2\n      mstore\n      0x20\n      add\n      swap2\n      pop\n      pop\n      mload(0x40)\n      dup1\n      swap2\n      sub\n      swap1\n      return\n        /* \"ERC20.sol\":907:996  function totalSupply() public view returns (uint256) {... */\n    tag_4:\n      tag_21\n      tag_22\n      jump\t// in\n    tag_21:\n      mload(0x40)\n      dup1\n      dup3\n      dup2\n      mstore\n      0x20\n      add\n      swap2\n      pop\n      pop\n      mload(0x40)\n      dup1\n      swap2\n      sub\n      swap1\n      return\n        /* \"ERC20.sol\":3320:3544  function transferFrom(address from, address to, uint256 value) public returns (bool) {... */\n    tag_5:\n      tag_23\n      0x04\n      dup1\n      calldatasize\n      sub\n        /* \"--CODEGEN--\":13:15   */\n      0x60\n        /* \"--CODEGEN--\":8:11   */\n      dup2\n        /* \"--CODEGEN--\":5:16   */\n      lt\n        /* \"--CODEGEN--\":2:4   */\n      iszero\n      tag_24\n      jumpi\n        /* \"--CODEGEN--\":29:30   */\n      0x00\n        /* \"--CODEGEN--\":26:27   */\n      dup1\n        /* \"--CODEGEN--\":19:31   */\n      revert\n        /* \"--CODEGEN--\":2:4   */\n    tag_24:\n        /* \"ERC20.sol\":3320:3544  function transferFrom(address from, address to, uint256 value) public returns (bool) {... */\n      dup2\n      add\n      swap1\n      dup1\n      dup1\n      calldataload\n      0xffffffffffffffffffffffffffffffffffffffff\n      and\n      swap1\n      0x20\n      add\n      swap1\n      swap3\n      swap2\n      swap1\n      dup1\n      calldataload\n      0xffffffffffffffffffffffffffffffffffffffff\n      and\n      swap1\n      0x20\n      add\n      swap1\n      swap3\n      swap2\n      swap1\n      dup1\n      calldataload\n      swap1\n      0x20\n      add\n      swap1\n      swap3\n      swap2\n      swap1\n      pop\n      pop\n      pop\n      tag_25\n      jump\t// in\n    tag_23:\n      mload(0x40)\n      dup1\n      dup3\n      iszero\n      iszero\n      iszero\n      iszero\n      dup2\n      mstore\n      0x20\n      add\n      swap2\n      pop\n      pop\n      mload(0x40)\n      dup1\n      swap2\n      sub\n      swap1\n      return\n        /* \"ERC20Capped.sol\":353:426  function cap() public view returns (uint256) {... */\n    tag_6:\n      tag_26\n      tag_27\n      jump\t// in\n    tag_26:\n      mload(0x40)\n      dup1\n      dup3\n      dup2\n      mstore\n      0x20\n      add\n      swap2\n      pop\n      pop\n      mload(0x40)\n      dup1\n      swap2\n      sub\n      swap1\n      return\n        /* \"ERC20.sol\":4058:4258  function increaseAllowance(address spender, uint256 addedValue) public returns (bool) {... */\n    tag_7:\n      tag_28\n      0x04\n      dup1\n      calldatasize\n      sub\n        /* \"--CODEGEN--\":13:15   */\n      0x40\n        /* \"--CODEGEN--\":8:11   */\n      dup2\n        /* \"--CODEGEN--\":5:16   */\n      lt\n        /* \"--CODEGEN--\":2:4   */\n      iszero\n      tag_29\n      jumpi\n        /* \"--CODEGEN--\":29:30   */\n      0x00\n        /* \"--CODEGEN--\":26:27   */\n      dup1\n        /* \"--CODEGEN--\":19:31   */\n      revert\n        /* \"--CODEGEN--\":2:4   */\n    tag_29:\n        /* \"ERC20.sol\":4058:4258  function increaseAllowance(address spender, uint256 addedValue) public returns (bool) {... */\n      dup2\n      add\n      swap1\n      dup1\n      dup1\n      calldataload\n      0xffffffffffffffffffffffffffffffffffffffff\n      and\n      swap1\n      0x20\n      add\n      swap1\n      swap3\n      swap2\n      swap1\n      dup1\n      calldataload\n      swap1\n      0x20\n      add\n      swap1\n      swap3\n      swap2\n      swap1\n      pop\n      pop\n      pop\n      tag_30\n      jump\t// in\n    tag_28:\n      mload(0x40)\n      dup1\n      dup3\n      iszero\n      iszero\n      iszero\n      iszero\n      dup2\n      mstore\n      0x20\n      add\n      swap2\n      pop\n      pop\n      mload(0x40)\n      dup1\n      swap2\n      sub\n      swap1\n      return\n        /* \"ERC20Mintable.sol\":426:554  function mint(address to, uint256 value) public onlyMinter returns (bool) {... */\n    tag_8:\n      tag_31\n      0x04\n      dup1\n      calldatasize\n      sub\n        /* \"--CODEGEN--\":13:15   */\n      0x40\n        /* \"--CODEGEN--\":8:11   */\n      dup2\n        /* \"--CODEGEN--\":5:16   */\n      lt\n        /* \"--CODEGEN--\":2:4   */\n      iszero\n      tag_32\n      jumpi\n        /* \"--CODEGEN--\":29:30   */\n      0x00\n        /* \"--CODEGEN--\":26:27   */\n      dup1\n        /* \"--CODEGEN--\":19:31   */\n      revert\n        /* \"--CODEGEN--\":2:4   */\n    tag_32:\n        /* \"ERC20Mintable.sol\":426:554  function mint(address to, uint256 value) public onlyMinter returns (bool) {... */\n      dup2\n      add\n      swap1\n      dup1\n      dup1\n      calldataload\n      0xffffffffffffffffffffffffffffffffffffffff\n      and\n      swap1\n      0x20\n      add\n      swap1\n      swap3\n      swap2\n      swap1\n      dup1\n      calldataload\n      swap1\n      0x20\n      add\n      swap1\n      swap3\n      swap2\n      swap1\n      pop\n      pop\n      pop\n      tag_33\n      jump\t// in\n    tag_31:\n      mload(0x40)\n      dup1\n      dup3\n      iszero\n      iszero\n      iszero\n      iszero\n      dup2\n      mstore\n      0x20\n      add\n      swap2\n      pop\n      pop\n      mload(0x40)\n      dup1\n      swap2\n      sub\n      swap1\n      return\n        /* \"ERC20.sol\":1208:1312  function balanceOf(address owner) public view returns (uint256) {... */\n    tag_9:\n      tag_34\n      0x04\n      dup1\n      calldatasize\n      sub\n        /* \"--CODEGEN--\":13:15   */\n      0x20\n        /* \"--CODEGEN--\":8:11   */\n      dup2\n        /* \"--CODEGEN--\":5:16   */\n      lt\n        /* \"--CODEGEN--\":2:4   */\n      iszero\n      tag_35\n      jumpi\n        /* \"--CODEGEN--\":29:30   */\n      0x00\n        /* \"--CODEGEN--\":26:27   */\n      dup1\n        /* \"--CODEGEN--\":19:31   */\n      revert\n        /* \"--CODEGEN--\":2:4   */\n    tag_35:\n        /* \"ERC20.sol\":1208:1312  function balanceOf(address owner) public view returns (uint256) {... */\n      dup2\n      add\n      swap1\n      dup1\n      dup1\n      calldataload\n      0xffffffffffffffffffffffffffffffffffffffff\n      and\n      swap1\n      0x20\n      add\n      swap1\n      swap3\n      swap2\n      swap1\n      pop\n      pop\n      pop\n      tag_36\n      jump\t// in\n    tag_34:\n      mload(0x40)\n      dup1\n      dup3\n      dup2\n      mstore\n      0x20\n      add\n      swap2\n      pop\n      pop\n      mload(0x40)\n      dup1\n      swap2\n      sub\n      swap1\n      return\n        /* \"MinterRole.sol\":507:597  function addMinter(address account) public onlyMinter {... */\n    tag_10:\n      tag_37\n      0x04\n      dup1\n      calldatasize\n      sub\n        /* \"--CODEGEN--\":13:15   */\n      0x20\n        /* \"--CODEGEN--\":8:11   */\n      dup2\n        /* \"--CODEGEN--\":5:16   */\n      lt\n        /* \"--CODEGEN--\":2:4   */\n      iszero\n      tag_38\n      jumpi\n        /* \"--CODEGEN--\":29:30   */\n      0x00\n        /* \"--CODEGEN--\":26:27   */\n      dup1\n        /* \"--CODEGEN--\":19:31   */\n      revert\n        /* \"--CODEGEN--\":2:4   */\n    tag_38:\n        /* \"MinterRole.sol\":507:597  function addMinter(address account) public onlyMinter {... */\n      dup2\n      add\n      swap1\n      dup1\n      dup1\n      calldataload\n      0xffffffffffffffffffffffffffffffffffffffff\n      and\n      swap1\n      0x20\n      add\n      swap1\n      swap3\n      swap2\n      swap1\n      pop\n      pop\n      pop\n      tag_39\n      jump\t// in\n    tag_37:\n      stop\n        /* \"MinterRole.sol\":603:678  function renounceMinter() public {... */\n    tag_11:\n      tag_40\n      tag_41\n      jump\t// in\n    tag_40:\n      stop\n        /* \"ERC20.sol\":4777:4987  function decreaseAllowance(address spender, uint256 subtractedValue) public returns (bool) {... */\n    tag_12:\n      tag_42\n      0x04\n      dup1\n      calldatasize\n      sub\n        /* \"--CODEGEN--\":13:15   */\n      0x40\n        /* \"--CODEGEN--\":8:11   */\n      dup2\n        /* \"--CODEGEN--\":5:16   */\n      lt\n        /* \"--CODEGEN--\":2:4   */\n      iszero\n      tag_43\n      jumpi\n        /* \"--CODEGEN--\":29:30   */\n      0x00\n        /* \"--CODEGEN--\":26:27   */\n      dup1\n        /* \"--CODEGEN--\":19:31   */\n      revert\n        /* \"--CODEGEN--\":2:4   */\n    tag_43:\n        /* \"ERC20.sol\":4777:4987  function decreaseAllowance(address spender, uint256 subtractedValue) public returns (bool) {... */\n      dup2\n      add\n      swap1\n      dup1\n      dup1\n      calldataload\n      0xffffffffffffffffffffffffffffffffffffffff\n      and\n      swap1\n      0x20\n      add\n      swap1\n      swap3\n      swap2\n      swap1\n      dup1\n      calldataload\n      swap1\n      0x20\n      add\n      swap1\n      swap3\n      swap2\n      swap1\n      pop\n      pop\n      pop\n      tag_44\n      jump\t// in\n    tag_42:\n      mload(0x40)\n      dup1\n      dup3\n      iszero\n      iszero\n      iszero\n      iszero\n      dup2\n      mstore\n      0x20\n      add\n      swap2\n      pop\n      pop\n      mload(0x40)\n      dup1\n      swap2\n      sub\n      swap1\n      return\n        /* \"ERC20.sol\":1939:2076  function transfer(address to, uint256 value) public returns (bool) {... */\n    tag_13:\n      tag_45\n      0x04\n      dup1\n      calldatasize\n      sub\n        /* \"--CODEGEN--\":13:15   */\n      0x40\n        /* \"--CODEGEN--\":8:11   */\n      dup2\n        /* \"--CODEGEN--\":5:16   */\n      lt\n        /* \"--CODEGEN--\":2:4   */\n      iszero\n      tag_46\n      jumpi\n        /* \"--CODEGEN--\":29:30   */\n      0x00\n        /* \"--CODEGEN--\":26:27   */\n      dup1\n        /* \"--CODEGEN--\":19:31   */\n      revert\n        /* \"--CODEGEN--\":2:4   */\n    tag_46:\n        /* \"ERC20.sol\":1939:2076  function transfer(address to, uint256 value) public returns (bool) {... */\n      dup2\n      add\n      swap1\n      dup1\n      dup1\n      calldataload\n      0xffffffffffffffffffffffffffffffffffffffff\n      and\n      swap1\n      0x20\n      add\n      swap1\n      swap3\n      swap2\n      swap1\n      dup1\n      calldataload\n      swap1\n      0x20\n      add\n      swap1\n      swap3\n      swap2\n      swap1\n      pop\n      pop\n      pop\n      tag_47\n      jump\t// in\n    tag_45:\n      mload(0x40)\n      dup1\n      dup3\n      iszero\n      iszero\n      iszero\n      iszero\n      dup2\n      mstore\n      0x20\n      add\n      swap2\n      pop\n      pop\n      mload(0x40)\n      dup1\n      swap2\n      sub\n      swap1\n      return\n        /* \"MinterRole.sol\":394:501  function isMinter(address account) public view returns (bool) {... */\n    tag_14:\n      tag_48\n      0x04\n      dup1\n      calldatasize\n      sub\n        /* \"--CODEGEN--\":13:15   */\n      0x20\n        /* \"--CODEGEN--\":8:11   */\n      dup2\n        /* \"--CODEGEN--\":5:16   */\n      lt\n        /* \"--CODEGEN--\":2:4   */\n      iszero\n      tag_49\n      jumpi\n        /* \"--CODEGEN--\":29:30   */\n      0x00\n        /* \"--CODEGEN--\":26:27   */\n      dup1\n        /* \"--CODEGEN--\":19:31   */\n      revert\n        /* \"--CODEGEN--\":2:4   */\n    tag_49:\n        /* \"MinterRole.sol\":394:501  function isMinter(address account) public view returns (bool) {... */\n      dup2\n      add\n      swap1\n      dup1\n      dup1\n      calldataload\n      0xffffffffffffffffffffffffffffffffffffffff\n      and\n      swap1\n      0x20\n      add\n      swap1\n      swap3\n      swap2\n      swap1\n      pop\n      pop\n      pop\n      tag_50\n      jump\t// in\n    tag_48:\n      mload(0x40)\n      dup1\n      dup3\n      iszero\n      iszero\n      iszero\n      iszero\n      dup2\n      mstore\n      0x20\n      add\n      swap2\n      pop\n      pop\n      mload(0x40)\n      dup1\n      swap2\n      sub\n      swap1\n      return\n        /* \"ERC20.sol\":1643:1772  function allowance(address owner, address spender) public view returns (uint256) {... */\n    tag_15:\n      tag_51\n      0x04\n      dup1\n      calldatasize\n      sub\n        /* \"--CODEGEN--\":13:15   */\n      0x40\n        /* \"--CODEGEN--\":8:11   */\n      dup2\n        /* \"--CODEGEN--\":5:16   */\n      lt\n        /* \"--CODEGEN--\":2:4   */\n      iszero\n      tag_52\n      jumpi\n        /* \"--CODEGEN--\":29:30   */\n      0x00\n        /* \"--CODEGEN--\":26:27   */\n      dup1\n        /* \"--CODEGEN--\":19:31   */\n      revert\n        /* \"--CODEGEN--\":2:4   */\n    tag_52:\n        /* \"ERC20.sol\":1643:1772  function allowance(address owner, address spender) public view returns (uint256) {... */\n      dup2\n      add\n      swap1\n      dup1\n      dup1\n      calldataload\n      0xffffffffffffffffffffffffffffffffffffffff\n      and\n      swap1\n      0x20\n      add\n      swap1\n      swap3\n      swap2\n      swap1\n      dup1\n      calldataload\n      0xffffffffffffffffffffffffffffffffffffffff\n      and\n      swap1\n      0x20\n      add\n      swap1\n      swap3\n      swap2\n      swap1\n      pop\n      pop\n      pop\n      tag_53\n      jump\t// in\n    tag_51:\n      mload(0x40)\n      dup1\n      dup3\n      dup2\n      mstore\n      0x20\n      add\n      swap2\n      pop\n      pop\n      mload(0x40)\n      dup1\n      swap2\n      sub\n      swap1\n      return\n        /* \"ERC20.sol\":2712:2857  function approve(address spender, uint256 value) public returns (bool) {... */\n    tag_20:\n        /* \"ERC20.sol\":2777:2781  bool */\n      0x00\n        /* \"ERC20.sol\":2793:2829  _approve(msg.sender, spender, value) */\n      tag_55\n        /* \"ERC20.sol\":2802:2812  msg.sender */\n      caller\n        /* \"ERC20.sol\":2814:2821  spender */\n      dup5\n        /* \"ERC20.sol\":2823:2828  value */\n      dup5\n        /* \"ERC20.sol\":2793:2801  _approve */\n      tag_56\n        /* \"ERC20.sol\":2793:2829  _approve(msg.sender, spender, value) */\n      jump\t// in\n    tag_55:\n        /* \"ERC20.sol\":2846:2850  true */\n      0x01\n        /* \"ERC20.sol\":2839:2850  return true */\n      swap1\n      pop\n        /* \"ERC20.sol\":2712:2857  function approve(address spender, uint256 value) public returns (bool) {... */\n      swap3\n      swap2\n      pop\n      pop\n      jump\t// out\n        /* \"ERC20.sol\":907:996  function totalSupply() public view returns (uint256) {... */\n    tag_22:\n        /* \"ERC20.sol\":951:958  uint256 */\n      0x00\n        /* \"ERC20.sol\":977:989  _totalSupply */\n      sload(0x02)\n        /* \"ERC20.sol\":970:989  return _totalSupply */\n      swap1\n      pop\n        /* \"ERC20.sol\":907:996  function totalSupply() public view returns (uint256) {... */\n      swap1\n      jump\t// out\n        /* \"ERC20.sol\":3320:3544  function transferFrom(address from, address to, uint256 value) public returns (bool) {... */\n    tag_25:\n        /* \"ERC20.sol\":3399:3403  bool */\n      0x00\n        /* \"ERC20.sol\":3415:3441  _transfer(from, to, value) */\n      tag_59\n        /* \"ERC20.sol\":3425:3429  from */\n      dup5\n        /* \"ERC20.sol\":3431:3433  to */\n      dup5\n        /* \"ERC20.sol\":3435:3440  value */\n      dup5\n        /* \"ERC20.sol\":3415:3424  _transfer */\n      tag_60\n        /* \"ERC20.sol\":3415:3441  _transfer(from, to, value) */\n      jump\t// in\n    tag_59:\n        /* \"ERC20.sol\":3451:3516  _approve(from, msg.sender, _allowed[from][msg.sender].sub(value)) */\n      tag_61\n        /* \"ERC20.sol\":3460:3464  from */\n      dup5\n        /* \"ERC20.sol\":3466:3476  msg.sender */\n      caller\n        /* \"ERC20.sol\":3478:3515  _allowed[from][msg.sender].sub(value) */\n      tag_62\n        /* \"ERC20.sol\":3509:3514  value */\n      dup6\n        /* \"ERC20.sol\":3478:3486  _allowed */\n      0x01\n        /* \"ERC20.sol\":3478:3492  _allowed[from] */\n      0x00\n        /* \"ERC20.sol\":3487:3491  from */\n      dup11\n        /* \"ERC20.sol\":3478:3492  _allowed[from] */\n      0xffffffffffffffffffffffffffffffffffffffff\n      and\n      0xffffffffffffffffffffffffffffffffffffffff\n      and\n      dup2\n      mstore\n      0x20\n      add\n      swap1\n      dup2\n      mstore\n      0x20\n      add\n      0x00\n      keccak256\n        /* \"ERC20.sol\":3478:3504  _allowed[from][msg.sender] */\n      0x00\n        /* \"ERC20.sol\":3493:3503  msg.sender */\n      caller\n        /* \"ERC20.sol\":3478:3504  _allowed[from][msg.sender] */\n      0xffffffffffffffffffffffffffffffffffffffff\n      and\n      0xffffffffffffffffffffffffffffffffffffffff\n      and\n      dup2\n      mstore\n      0x20\n      add\n      swap1\n      dup2\n      mstore\n      0x20\n      add\n      0x00\n      keccak256\n      sload\n        /* \"ERC20.sol\":3478:3508  _allowed[from][msg.sender].sub */\n      tag_63\n      swap1\n        /* \"ERC20.sol\":3478:3515  _allowed[from][msg.sender].sub(value) */\n      swap2\n      swap1\n      0xffffffff\n      and\n      jump\t// in\n    tag_62:\n        /* \"ERC20.sol\":3451:3459  _approve */\n      tag_56\n        /* \"ERC20.sol\":3451:3516  _approve(from, msg.sender, _allowed[from][msg.sender].sub(value)) */\n      jump\t// in\n    tag_61:\n        /* \"ERC20.sol\":3533:3537  true */\n      0x01\n        /* \"ERC20.sol\":3526:3537  return true */\n      swap1\n      pop\n        /* \"ERC20.sol\":3320:3544  function transferFrom(address from, address to, uint256 value) public returns (bool) {... */\n      swap4\n      swap3\n      pop\n      pop\n      pop\n      jump\t// out\n        /* \"ERC20Capped.sol\":353:426  function cap() public view returns (uint256) {... */\n    tag_27:\n        /* \"ERC20Capped.sol\":389:396  uint256 */\n      0x00\n        /* \"ERC20Capped.sol\":415:419  _cap */\n      sload(0x04)\n        /* \"ERC20Capped.sol\":408:419  return _cap */\n      swap1\n      pop\n        /* \"ERC20Capped.sol\":353:426  function cap() public view returns (uint256) {... */\n      swap1\n      jump\t// out\n        /* \"ERC20.sol\":4058:4258  function increaseAllowance(address spender, uint256 addedValue) public returns (bool) {... */\n    tag_30:\n        /* \"ERC20.sol\":4138:4142  bool */\n      0x00\n        /* \"ERC20.sol\":4154:4230  _approve(msg.sender, spender, _allowed[msg.sender][spender].add(addedValue)) */\n      tag_66\n        /* \"ERC20.sol\":4163:4173  msg.sender */\n      caller\n        /* \"ERC20.sol\":4175:4182  spender */\n      dup5\n        /* \"ERC20.sol\":4184:4229  _allowed[msg.sender][spender].add(addedValue) */\n      tag_67\n        /* \"ERC20.sol\":4218:4228  addedValue */\n      dup6\n        /* \"ERC20.sol\":4184:4192  _allowed */\n      0x01\n        /* \"ERC20.sol\":4184:4204  _allowed[msg.sender] */\n      0x00\n        /* \"ERC20.sol\":4193:4203  msg.sender */\n      caller\n        /* \"ERC20.sol\":4184:4204  _allowed[msg.sender] */\n      0xffffffffffffffffffffffffffffffffffffffff\n      and\n      0xffffffffffffffffffffffffffffffffffffffff\n      and\n      dup2\n      mstore\n      0x20\n      add\n      swap1\n      dup2\n      mstore\n      0x20\n      add\n      0x00\n      keccak256\n        /* \"ERC20.sol\":4184:4213  _allowed[msg.sender][spender] */\n      0x00\n        /* \"ERC20.sol\":4205:4212  spender */\n      dup10\n        /* \"ERC20.sol\":4184:4213  _allowed[msg.sender][spender] */\n      0xffffffffffffffffffffffffffffffffffffffff\n      and\n      0xffffffffffffffffffffffffffffffffffffffff\n      and\n      dup2\n      mstore\n      0x20\n      add\n      swap1\n      dup2\n      mstore\n      0x20\n      add\n      0x00\n      keccak256\n      sload\n        /* \"ERC20.sol\":4184:4217  _allowed[msg.sender][spender].add */\n      tag_68\n      swap1\n        /* \"ERC20.sol\":4184:4229  _allowed[msg.sender][spender].add(addedValue) */\n      swap2\n      swap1\n      0xffffffff\n      and\n      jump\t// in\n    tag_67:\n        /* \"ERC20.sol\":4154:4162  _approve */\n      tag_56\n        /* \"ERC20.sol\":4154:4230  _approve(msg.sender, spender, _allowed[msg.sender][spender].add(addedValue)) */\n      jump\t// in\n    tag_66:\n        /* \"ERC20.sol\":4247:4251  true */\n      0x01\n        /* \"ERC20.sol\":4240:4251  return true */\n      swap1\n      pop\n        /* \"ERC20.sol\":4058:4258  function increaseAllowance(address spender, uint256 addedValue) public returns (bool) {... */\n      swap3\n      swap2\n      pop\n      pop\n      jump\t// out\n        /* \"ERC20Mintable.sol\":426:554  function mint(address to, uint256 value) public onlyMinter returns (bool) {... */\n    tag_33:\n        /* \"ERC20Mintable.sol\":494:498  bool */\n      0x00\n        /* \"MinterRole.sol\":349:369  isMinter(msg.sender) */\n      tag_70\n        /* \"MinterRole.sol\":358:368  msg.sender */\n      caller\n        /* \"MinterRole.sol\":349:357  isMinter */\n      tag_50\n        /* \"MinterRole.sol\":349:369  isMinter(msg.sender) */\n      jump\t// in\n    tag_70:\n        /* \"MinterRole.sol\":341:370  require(isMinter(msg.sender)) */\n      iszero\n      iszero\n      tag_71\n      jumpi\n      0x00\n      dup1\n      revert\n    tag_71:\n        /* \"ERC20Mintable.sol\":510:526  _mint(to, value) */\n      tag_73\n        /* \"ERC20Mintable.sol\":516:518  to */\n      dup4\n        /* \"ERC20Mintable.sol\":520:525  value */\n      dup4\n        /* \"ERC20Mintable.sol\":510:515  _mint */\n      tag_74\n        /* \"ERC20Mintable.sol\":510:526  _mint(to, value) */\n      jump\t// in\n    tag_73:\n        /* \"ERC20Mintable.sol\":543:547  true */\n      0x01\n        /* \"ERC20Mintable.sol\":536:547  return true */\n      swap1\n      pop\n        /* \"ERC20Mintable.sol\":426:554  function mint(address to, uint256 value) public onlyMinter returns (bool) {... */\n      swap3\n      swap2\n      pop\n      pop\n      jump\t// out\n        /* \"ERC20.sol\":1208:1312  function balanceOf(address owner) public view returns (uint256) {... */\n    tag_36:\n        /* \"ERC20.sol\":1263:1270  uint256 */\n      0x00\n        /* \"ERC20.sol\":1289:1298  _balances */\n      dup1\n        /* \"ERC20.sol\":1289:1305  _balances[owner] */\n      0x00\n        /* \"ERC20.sol\":1299:1304  owner */\n      dup4\n        /* \"ERC20.sol\":1289:1305  _balances[owner] */\n      0xffffffffffffffffffffffffffffffffffffffff\n      and\n      0xffffffffffffffffffffffffffffffffffffffff\n      and\n      dup2\n      mstore\n      0x20\n      add\n      swap1\n      dup2\n      mstore\n      0x20\n      add\n      0x00\n      keccak256\n      sload\n        /* \"ERC20.sol\":1282:1305  return _balances[owner] */\n      swap1\n      pop\n        /* \"ERC20.sol\":1208:1312  function balanceOf(address owner) public view returns (uint256) {... */\n      swap2\n      swap1\n      pop\n      jump\t// out\n        /* \"MinterRole.sol\":507:597  function addMinter(address account) public onlyMinter {... */\n    tag_39:\n        /* \"MinterRole.sol\":349:369  isMinter(msg.sender) */\n      tag_77\n        /* \"MinterRole.sol\":358:368  msg.sender */\n      caller\n        /* \"MinterRole.sol\":349:357  isMinter */\n      tag_50\n        /* \"MinterRole.sol\":349:369  isMinter(msg.sender) */\n      jump\t// in\n    tag_77:\n        /* \"MinterRole.sol\":341:370  require(isMinter(msg.sender)) */\n      iszero\n      iszero\n      tag_78\n      jumpi\n      0x00\n      dup1\n      revert\n    tag_78:\n        /* \"MinterRole.sol\":571:590  _addMinter(account) */\n      tag_80\n        /* \"MinterRole.sol\":582:589  account */\n      dup2\n        /* \"MinterRole.sol\":571:581  _addMinter */\n      tag_81\n        /* \"MinterRole.sol\":571:590  _addMinter(account) */\n      jump\t// in\n    tag_80:\n        /* \"MinterRole.sol\":507:597  function addMinter(address account) public onlyMinter {... */\n      pop\n      jump\t// out\n        /* \"MinterRole.sol\":603:678  function renounceMinter() public {... */\n    tag_41:\n        /* \"MinterRole.sol\":646:671  _removeMinter(msg.sender) */\n      tag_83\n        /* \"MinterRole.sol\":660:670  msg.sender */\n      caller\n        /* \"MinterRole.sol\":646:659  _removeMinter */\n      tag_84\n        /* \"MinterRole.sol\":646:671  _removeMinter(msg.sender) */\n      jump\t// in\n    tag_83:\n        /* \"MinterRole.sol\":603:678  function renounceMinter() public {... */\n      jump\t// out\n        /* \"ERC20.sol\":4777:4987  function decreaseAllowance(address spender, uint256 subtractedValue) public returns (bool) {... */\n    tag_44:\n        /* \"ERC20.sol\":4862:4866  bool */\n      0x00\n        /* \"ERC20.sol\":4878:4959  _approve(msg.sender, spender, _allowed[msg.sender][spender].sub(subtractedValue)) */\n      tag_86\n        /* \"ERC20.sol\":4887:4897  msg.sender */\n      caller\n        /* \"ERC20.sol\":4899:4906  spender */\n      dup5\n        /* \"ERC20.sol\":4908:4958  _allowed[msg.sender][spender].sub(subtractedValue) */\n      tag_87\n        /* \"ERC20.sol\":4942:4957  subtractedValue */\n      dup6\n        /* \"ERC20.sol\":4908:4916  _allowed */\n      0x01\n        /* \"ERC20.sol\":4908:4928  _allowed[msg.sender] */\n      0x00\n        /* \"ERC20.sol\":4917:4927  msg.sender */\n      caller\n        /* \"ERC20.sol\":4908:4928  _allowed[msg.sender] */\n      0xffffffffffffffffffffffffffffffffffffffff\n      and\n      0xffffffffffffffffffffffffffffffffffffffff\n      and\n      dup2\n      mstore\n      0x20\n      add\n      swap1\n      dup2\n      mstore\n      0x20\n      add\n      0x00\n      keccak256\n        /* \"ERC20.sol\":4908:4937  _allowed[msg.sender][spender] */\n      0x00\n        /* \"ERC20.sol\":4929:4936  spender */\n      dup10\n        /* \"ERC20.sol\":4908:4937  _allowed[msg.sender][spender] */\n      0xffffffffffffffffffffffffffffffffffffffff\n      and\n      0xffffffffffffffffffffffffffffffffffffffff\n      and\n      dup2\n      mstore\n      0x20\n      add\n      swap1\n      dup2\n      mstore\n      0x20\n      add\n      0x00\n      keccak256\n      sload\n        /* \"ERC20.sol\":4908:4941  _allowed[msg.sender][spender].sub */\n      tag_63\n      swap1\n        /* \"ERC20.sol\":4908:4958  _allowed[msg.sender][spender].sub(subtractedValue) */\n      swap2\n      swap1\n      0xffffffff\n      and\n      jump\t// in\n    tag_87:\n        /* \"ERC20.sol\":4878:4886  _approve */\n      tag_56\n        /* \"ERC20.sol\":4878:4959  _approve(msg.sender, spender, _allowed[msg.sender][spender].sub(subtractedValue)) */\n      jump\t// in\n    tag_86:\n        /* \"ERC20.sol\":4976:4980  true */\n      0x01\n        /* \"ERC20.sol\":4969:4980  return true */\n      swap1\n      pop\n        /* \"ERC20.sol\":4777:4987  function decreaseAllowance(address spender, uint256 subtractedValue) public returns (bool) {... */\n      swap3\n      swap2\n      pop\n      pop\n      jump\t// out\n        /* \"ERC20.sol\":1939:2076  function transfer(address to, uint256 value) public returns (bool) {... */\n    tag_47:\n        /* \"ERC20.sol\":2000:2004  bool */\n      0x00\n        /* \"ERC20.sol\":2016:2048  _transfer(msg.sender, to, value) */\n      tag_89\n        /* \"ERC20.sol\":2026:2036  msg.sender */\n      caller\n        /* \"ERC20.sol\":2038:2040  to */\n      dup5\n        /* \"ERC20.sol\":2042:2047  value */\n      dup5\n        /* \"ERC20.sol\":2016:2025  _transfer */\n      tag_60\n        /* \"ERC20.sol\":2016:2048  _transfer(msg.sender, to, value) */\n      jump\t// in\n    tag_89:\n        /* \"ERC20.sol\":2065:2069  true */\n      0x01\n        /* \"ERC20.sol\":2058:2069  return true */\n      swap1\n      pop\n        /* \"ERC20.sol\":1939:2076  function transfer(address to, uint256 value) public returns (bool) {... */\n      swap3\n      swap2\n      pop\n      pop\n      jump\t// out\n        /* \"MinterRole.sol\":394:501  function isMinter(address account) public view returns (bool) {... */\n    tag_50:\n        /* \"MinterRole.sol\":450:454  bool */\n      0x00\n        /* \"MinterRole.sol\":473:494  _minters.has(account) */\n      tag_91\n        /* \"MinterRole.sol\":486:493  account */\n      dup3\n        /* \"MinterRole.sol\":473:481  _minters */\n      0x03\n        /* \"MinterRole.sol\":473:485  _minters.has */\n      tag_92\n      swap1\n        /* \"MinterRole.sol\":473:494  _minters.has(account) */\n      swap2\n      swap1\n      0xffffffff\n      and\n      jump\t// in\n    tag_91:\n        /* \"MinterRole.sol\":466:494  return _minters.has(account) */\n      swap1\n      pop\n        /* \"MinterRole.sol\":394:501  function isMinter(address account) public view returns (bool) {... */\n      swap2\n      swap1\n      pop\n      jump\t// out\n        /* \"ERC20.sol\":1643:1772  function allowance(address owner, address spender) public view returns (uint256) {... */\n    tag_53:\n        /* \"ERC20.sol\":1715:1722  uint256 */\n      0x00\n        /* \"ERC20.sol\":1741:1749  _allowed */\n      0x01\n        /* \"ERC20.sol\":1741:1756  _allowed[owner] */\n      0x00\n        /* \"ERC20.sol\":1750:1755  owner */\n      dup5\n        /* \"ERC20.sol\":1741:1756  _allowed[owner] */\n      0xffffffffffffffffffffffffffffffffffffffff\n      and\n      0xffffffffffffffffffffffffffffffffffffffff\n      and\n      dup2\n      mstore\n      0x20\n      add\n      swap1\n      dup2\n      mstore\n      0x20\n      add\n      0x00\n      keccak256\n        /* \"ERC20.sol\":1741:1765  _allowed[owner][spender] */\n      0x00\n        /* \"ERC20.sol\":1757:1764  spender */\n      dup4\n        /* \"ERC20.sol\":1741:1765  _allowed[owner][spender] */\n      0xffffffffffffffffffffffffffffffffffffffff\n      and\n      0xffffffffffffffffffffffffffffffffffffffff\n      and\n      dup2\n      mstore\n      0x20\n      add\n      swap1\n      dup2\n      mstore\n      0x20\n      add\n      0x00\n      keccak256\n      sload\n        /* \"ERC20.sol\":1734:1765  return _allowed[owner][spender] */\n      swap1\n      pop\n        /* \"ERC20.sol\":1643:1772  function allowance(address owner, address spender) public view returns (uint256) {... */\n      swap3\n      swap2\n      pop\n      pop\n      jump\t// out\n        /* \"ERC20.sol\":6822:7070  function _approve(address owner, address spender, uint256 value) internal {... */\n    tag_56:\n        /* \"ERC20.sol\":6933:6934  0 */\n      0x00\n        /* \"ERC20.sol\":6914:6935  spender != address(0) */\n      0xffffffffffffffffffffffffffffffffffffffff\n      and\n        /* \"ERC20.sol\":6914:6921  spender */\n      dup3\n        /* \"ERC20.sol\":6914:6935  spender != address(0) */\n      0xffffffffffffffffffffffffffffffffffffffff\n      and\n      eq\n      iszero\n        /* \"ERC20.sol\":6906:6936  require(spender != address(0)) */\n      iszero\n      iszero\n      tag_95\n      jumpi\n      0x00\n      dup1\n      revert\n    tag_95:\n        /* \"ERC20.sol\":6971:6972  0 */\n      0x00\n        /* \"ERC20.sol\":6954:6973  owner != address(0) */\n      0xffffffffffffffffffffffffffffffffffffffff\n      and\n        /* \"ERC20.sol\":6954:6959  owner */\n      dup4\n        /* \"ERC20.sol\":6954:6973  owner != address(0) */\n      0xffffffffffffffffffffffffffffffffffffffff\n      and\n      eq\n      iszero\n        /* \"ERC20.sol\":6946:6974  require(owner != address(0)) */\n      iszero\n      iszero\n      tag_96\n      jumpi\n      0x00\n      dup1\n      revert\n    tag_96:\n        /* \"ERC20.sol\":7012:7017  value */\n      dup1\n        /* \"ERC20.sol\":6985:6993  _allowed */\n      0x01\n        /* \"ERC20.sol\":6985:7000  _allowed[owner] */\n      0x00\n        /* \"ERC20.sol\":6994:6999  owner */\n      dup6\n        /* \"ERC20.sol\":6985:7000  _allowed[owner] */\n      0xffffffffffffffffffffffffffffffffffffffff\n      and\n      0xffffffffffffffffffffffffffffffffffffffff\n      and\n      dup2\n      mstore\n      0x20\n      add\n      swap1\n      dup2\n      mstore\n      0x20\n      add\n      0x00\n      keccak256\n        /* \"ERC20.sol\":6985:7009  _allowed[owner][spender] */\n      0x00\n        /* \"ERC20.sol\":7001:7008  spender */\n      dup5\n        /* \"ERC20.sol\":6985:7009  _allowed[owner][spender] */\n      0xffffffffffffffffffffffffffffffffffffffff\n      and\n      0xffffffffffffffffffffffffffffffffffffffff\n      and\n      dup2\n      mstore\n      0x20\n      add\n      swap1\n      dup2\n      mstore\n      0x20\n      add\n      0x00\n      keccak256\n        /* \"ERC20.sol\":6985:7017  _allowed[owner][spender] = value */\n      dup2\n      swap1\n      sstore\n      pop\n        /* \"ERC20.sol\":7048:7055  spender */\n      dup2\n        /* \"ERC20.sol\":7032:7063  Approval(owner, spender, value) */\n      0xffffffffffffffffffffffffffffffffffffffff\n      and\n        /* \"ERC20.sol\":7041:7046  owner */\n      dup4\n        /* \"ERC20.sol\":7032:7063  Approval(owner, spender, value) */\n      0xffffffffffffffffffffffffffffffffffffffff\n      and\n      0x8c5be1e5ebec7d5bd14f71427d1e84f3dd0314c0f7b2291e5b200ac8c7c3b925\n        /* \"ERC20.sol\":7057:7062  value */\n      dup4\n        /* \"ERC20.sol\":7032:7063  Approval(owner, spender, value) */\n      mload(0x40)\n      dup1\n      dup3\n      dup2\n      mstore\n      0x20\n      add\n      swap2\n      pop\n      pop\n      mload(0x40)\n      dup1\n      swap2\n      sub\n      swap1\n      log3\n        /* \"ERC20.sol\":6822:7070  function _approve(address owner, address spender, uint256 value) internal {... */\n      pop\n      pop\n      pop\n      jump\t// out\n        /* \"ERC20.sol\":5206:5462  function _transfer(address from, address to, uint256 value) internal {... */\n    tag_60:\n        /* \"ERC20.sol\":5307:5308  0 */\n      0x00\n        /* \"ERC20.sol\":5293:5309  to != address(0) */\n      0xffffffffffffffffffffffffffffffffffffffff\n      and\n        /* \"ERC20.sol\":5293:5295  to */\n      dup3\n        /* \"ERC20.sol\":5293:5309  to != address(0) */\n      0xffffffffffffffffffffffffffffffffffffffff\n      and\n      eq\n      iszero\n        /* \"ERC20.sol\":5285:5310  require(to != address(0)) */\n      iszero\n      iszero\n      tag_98\n      jumpi\n      0x00\n      dup1\n      revert\n    tag_98:\n        /* \"ERC20.sol\":5339:5365  _balances[from].sub(value) */\n      tag_99\n        /* \"ERC20.sol\":5359:5364  value */\n      dup2\n        /* \"ERC20.sol\":5339:5348  _balances */\n      0x00\n        /* \"ERC20.sol\":5339:5354  _balances[from] */\n      dup1\n        /* \"ERC20.sol\":5349:5353  from */\n      dup7\n        /* \"ERC20.sol\":5339:5354  _balances[from] */\n      0xffffffffffffffffffffffffffffffffffffffff\n      and\n      0xffffffffffffffffffffffffffffffffffffffff\n      and\n      dup2\n      mstore\n      0x20\n      add\n      swap1\n      dup2\n      mstore\n      0x20\n      add\n      0x00\n      keccak256\n      sload\n        /* \"ERC20.sol\":5339:5358  _balances[from].sub */\n      tag_63\n      swap1\n        /* \"ERC20.sol\":5339:5365  _balances[from].sub(value) */\n      swap2\n      swap1\n      0xffffffff\n      and\n      jump\t// in\n    tag_99:\n        /* \"ERC20.sol\":5321:5330  _balances */\n      0x00\n        /* \"ERC20.sol\":5321:5336  _balances[from] */\n      dup1\n        /* \"ERC20.sol\":5331:5335  from */\n      dup6\n        /* \"ERC20.sol\":5321:5336  _balances[from] */\n      0xffffffffffffffffffffffffffffffffffffffff\n      and\n      0xffffffffffffffffffffffffffffffffffffffff\n      and\n      dup2\n      mstore\n      0x20\n      add\n      swap1\n      dup2\n      mstore\n      0x20\n      add\n      0x00\n      keccak256\n        /* \"ERC20.sol\":5321:5365  _balances[from] = _balances[from].sub(value) */\n      dup2\n      swap1\n      sstore\n      pop\n        /* \"ERC20.sol\":5391:5415  _balances[to].add(value) */\n      tag_100\n        /* \"ERC20.sol\":5409:5414  value */\n      dup2\n        /* \"ERC20.sol\":5391:5400  _balances */\n      0x00\n        /* \"ERC20.sol\":5391:5404  _balances[to] */\n      dup1\n        /* \"ERC20.sol\":5401:5403  to */\n      dup6\n        /* \"ERC20.sol\":5391:5404  _balances[to] */\n      0xffffffffffffffffffffffffffffffffffffffff\n      and\n      0xffffffffffffffffffffffffffffffffffffffff\n      and\n      dup2\n      mstore\n      0x20\n      add\n      swap1\n      dup2\n      mstore\n      0x20\n      add\n      0x00\n      keccak256\n      sload\n        /* \"ERC20.sol\":5391:5408  _balances[to].add */\n      tag_68\n      swap1\n        /* \"ERC20.sol\":5391:5415  _balances[to].add(value) */\n      swap2\n      swap1\n      0xffffffff\n      and\n      jump\t// in\n    tag_100:\n        /* \"ERC20.sol\":5375:5384  _balances */\n      0x00\n        /* \"ERC20.sol\":5375:5388  _balances[to] */\n      dup1\n        /* \"ERC20.sol\":5385:5387  to */\n      dup5\n        /* \"ERC20.sol\":5375:5388  _balances[to] */\n      0xffffffffffffffffffffffffffffffffffffffff\n      and\n      0xffffffffffffffffffffffffffffffffffffffff\n      and\n      dup2\n      mstore\n      0x20\n      add\n      swap1\n      dup2\n      mstore\n      0x20\n      add\n      0x00\n      keccak256\n        /* \"ERC20.sol\":5375:5415  _balances[to] = _balances[to].add(value) */\n      dup2\n      swap1\n      sstore\n      pop\n        /* \"ERC20.sol\":5445:5447  to */\n      dup2\n        /* \"ERC20.sol\":5430:5455  Transfer(from, to, value) */\n      0xffffffffffffffffffffffffffffffffffffffff\n      and\n        /* \"ERC20.sol\":5439:5443  from */\n      dup4\n        /* \"ERC20.sol\":5430:5455  Transfer(from, to, value) */\n      0xffffffffffffffffffffffffffffffffffffffff\n      and\n      0xddf252ad1be2c89b69c2b068fc378daa952ba7f163c4a11628f55a4df523b3ef\n        /* \"ERC20.sol\":5449:5454  value */\n      dup4\n        /* \"ERC20.sol\":5430:5455  Transfer(from, to, value) */\n      mload(0x40)\n      dup1\n      dup3\n      dup2\n      mstore\n      0x20\n      add\n      swap2\n      pop\n      pop\n      mload(0x40)\n      dup1\n      swap2\n      sub\n      swap1\n      log3\n        /* \"ERC20.sol\":5206:5462  function _transfer(address from, address to, uint256 value) internal {... */\n      pop\n      pop\n      pop\n      jump\t// out\n        /* \"SafeMath.sol\":1211:1356  function sub(uint256 a, uint256 b) internal pure returns (uint256) {... */\n    tag_63:\n        /* \"SafeMath.sol\":1269:1276  uint256 */\n      0x00\n        /* \"SafeMath.sol\":1301:1302  a */\n      dup3\n        /* \"SafeMath.sol\":1296:1297  b */\n      dup3\n        /* \"SafeMath.sol\":1296:1302  b <= a */\n      gt\n      iszero\n        /* \"SafeMath.sol\":1288:1303  require(b <= a) */\n      iszero\n      iszero\n      tag_102\n      jumpi\n      0x00\n      dup1\n      revert\n    tag_102:\n        /* \"SafeMath.sol\":1313:1322  uint256 c */\n      0x00\n        /* \"SafeMath.sol\":1329:1330  b */\n      dup3\n        /* \"SafeMath.sol\":1325:1326  a */\n      dup5\n        /* \"SafeMath.sol\":1325:1330  a - b */\n      sub\n        /* \"SafeMath.sol\":1313:1330  uint256 c = a - b */\n      swap1\n      pop\n        /* \"SafeMath.sol\":1348:1349  c */\n      dup1\n        /* \"SafeMath.sol\":1341:1349  return c */\n      swap2\n      pop\n      pop\n        /* \"SafeMath.sol\":1211:1356  function sub(uint256 a, uint256 b) internal pure returns (uint256) {... */\n      swap3\n      swap2\n      pop\n      pop\n      jump\t// out\n        /* \"SafeMath.sol\":1439:1584  function add(uint256 a, uint256 b) internal pure returns (uint256) {... */\n    tag_68:\n        /* \"SafeMath.sol\":1497:1504  uint256 */\n      0x00\n        /* \"SafeMath.sol\":1516:1525  uint256 c */\n      dup1\n        /* \"SafeMath.sol\":1532:1533  b */\n      dup3\n        /* \"SafeMath.sol\":1528:1529  a */\n      dup5\n        /* \"SafeMath.sol\":1528:1533  a + b */\n      add\n        /* \"SafeMath.sol\":1516:1533  uint256 c = a + b */\n      swap1\n      pop\n        /* \"SafeMath.sol\":1556:1557  a */\n      dup4\n        /* \"SafeMath.sol\":1551:1552  c */\n      dup2\n        /* \"SafeMath.sol\":1551:1557  c >= a */\n      lt\n      iszero\n        /* \"SafeMath.sol\":1543:1558  require(c >= a) */\n      iszero\n      iszero\n      tag_104\n      jumpi\n      0x00\n      dup1\n      revert\n    tag_104:\n        /* \"SafeMath.sol\":1576:1577  c */\n      dup1\n        /* \"SafeMath.sol\":1569:1577  return c */\n      swap2\n      pop\n      pop\n        /* \"SafeMath.sol\":1439:1584  function add(uint256 a, uint256 b) internal pure returns (uint256) {... */\n      swap3\n      swap2\n      pop\n      pop\n      jump\t// out\n        /* \"ERC20Capped.sol\":432:583  function _mint(address account, uint256 value) internal {... */\n    tag_74:\n        /* \"ERC20Capped.sol\":534:538  _cap */\n      sload(0x04)\n        /* \"ERC20Capped.sol\":506:530  totalSupply().add(value) */\n      tag_106\n        /* \"ERC20Capped.sol\":524:529  value */\n      dup3\n        /* \"ERC20Capped.sol\":506:519  totalSupply() */\n      tag_107\n        /* \"ERC20Capped.sol\":506:517  totalSupply */\n      tag_22\n        /* \"ERC20Capped.sol\":506:519  totalSupply() */\n      jump\t// in\n    tag_107:\n        /* \"ERC20Capped.sol\":506:523  totalSupply().add */\n      tag_68\n      swap1\n        /* \"ERC20Capped.sol\":506:530  totalSupply().add(value) */\n      swap2\n      swap1\n      0xffffffff\n      and\n      jump\t// in\n    tag_106:\n        /* \"ERC20Capped.sol\":506:538  totalSupply().add(value) <= _cap */\n      gt\n      iszero\n        /* \"ERC20Capped.sol\":498:539  require(totalSupply().add(value) <= _cap) */\n      iszero\n      iszero\n      tag_108\n      jumpi\n      0x00\n      dup1\n      revert\n    tag_108:\n        /* \"ERC20Capped.sol\":549:576  super._mint(account, value) */\n      tag_109\n        /* \"ERC20Capped.sol\":561:568  account */\n      dup3\n        /* \"ERC20Capped.sol\":570:575  value */\n      dup3\n        /* \"ERC20Capped.sol\":549:560  super._mint */\n      tag_110\n        /* \"ERC20Capped.sol\":549:576  super._mint(account, value) */\n      jump\t// in\n    tag_109:\n        /* \"ERC20Capped.sol\":432:583  function _mint(address account, uint256 value) internal {... */\n      pop\n      pop\n      jump\t// out\n        /* \"MinterRole.sol\":684:803  function _addMinter(address account) internal {... */\n    tag_81:\n        /* \"MinterRole.sol\":740:761  _minters.add(account) */\n      tag_112\n        /* \"MinterRole.sol\":753:760  account */\n      dup2\n        /* \"MinterRole.sol\":740:748  _minters */\n      0x03\n        /* \"MinterRole.sol\":740:752  _minters.add */\n      tag_113\n      swap1\n        /* \"MinterRole.sol\":740:761  _minters.add(account) */\n      swap2\n      swap1\n      0xffffffff\n      and\n      jump\t// in\n    tag_112:\n        /* \"MinterRole.sol\":788:795  account */\n      dup1\n        /* \"MinterRole.sol\":776:796  MinterAdded(account) */\n      0xffffffffffffffffffffffffffffffffffffffff\n      and\n      0x6ae172837ea30b801fbfcdd4108aa1d5bf8ff775444fd70256b44e6bf3dfc3f6\n      mload(0x40)\n      mload(0x40)\n      dup1\n      swap2\n      sub\n      swap1\n      log2\n        /* \"MinterRole.sol\":684:803  function _addMinter(address account) internal {... */\n      pop\n      jump\t// out\n        /* \"MinterRole.sol\":809:936  function _removeMinter(address account) internal {... */\n    tag_84:\n        /* \"MinterRole.sol\":868:892  _minters.remove(account) */\n      tag_115\n        /* \"MinterRole.sol\":884:891  account */\n      dup2\n        /* \"MinterRole.sol\":868:876  _minters */\n      0x03\n        /* \"MinterRole.sol\":868:883  _minters.remove */\n      tag_116\n      swap1\n        /* \"MinterRole.sol\":868:892  _minters.remove(account) */\n      swap2\n      swap1\n      0xffffffff\n      and\n      jump\t// in\n    tag_115:\n        /* \"MinterRole.sol\":921:928  account */\n      dup1\n        /* \"MinterRole.sol\":907:929  MinterRemoved(account) */\n      0xffffffffffffffffffffffffffffffffffffffff\n      and\n      0xe94479a9f7e1952cc78f2d6baab678adc1b772d936c6583def489e524cb66692\n      mload(0x40)\n      mload(0x40)\n      dup1\n      swap2\n      sub\n      swap1\n      log2\n        /* \"MinterRole.sol\":809:936  function _removeMinter(address account) internal {... */\n      pop\n      jump\t// out\n        /* \"Roles.sol\":786:948  function has(Role storage role, address account) internal view returns (bool) {... */\n    tag_92:\n        /* \"Roles.sol\":858:862  bool */\n      0x00\n        /* \"Roles.sol\":901:902  0 */\n      dup1\n        /* \"Roles.sol\":882:903  account != address(0) */\n      0xffffffffffffffffffffffffffffffffffffffff\n      and\n        /* \"Roles.sol\":882:889  account */\n      dup3\n        /* \"Roles.sol\":882:903  account != address(0) */\n      0xffffffffffffffffffffffffffffffffffffffff\n      and\n      eq\n      iszero\n        /* \"Roles.sol\":874:904  require(account != address(0)) */\n      iszero\n      iszero\n      tag_118\n      jumpi\n      0x00\n      dup1\n      revert\n    tag_118:\n        /* \"Roles.sol\":921:925  role */\n      dup3\n        /* \"Roles.sol\":921:932  role.bearer */\n      0x00\n      add\n        /* \"Roles.sol\":921:941  role.bearer[account] */\n      0x00\n        /* \"Roles.sol\":933:940  account */\n      dup4\n        /* \"Roles.sol\":921:941  role.bearer[account] */\n      0xffffffffffffffffffffffffffffffffffffffff\n      and\n      0xffffffffffffffffffffffffffffffffffffffff\n      and\n      dup2\n      mstore\n      0x20\n      add\n      swap1\n      dup2\n      mstore\n      0x20\n      add\n      0x00\n      keccak256\n      0x00\n      swap1\n      sload\n      swap1\n      0x0100\n      exp\n      swap1\n      div\n      0xff\n      and\n        /* \"Roles.sol\":914:941  return role.bearer[account] */\n      swap1\n      pop\n        /* \"Roles.sol\":786:948  function has(Role storage role, address account) internal view returns (bool) {... */\n      swap3\n      swap2\n      pop\n      pop\n      jump\t// out\n        /* \"ERC20.sol\":5805:6068  function _mint(address account, uint256 value) internal {... */\n    tag_110:\n        /* \"ERC20.sol\":5898:5899  0 */\n      0x00\n        /* \"ERC20.sol\":5879:5900  account != address(0) */\n      0xffffffffffffffffffffffffffffffffffffffff\n      and\n        /* \"ERC20.sol\":5879:5886  account */\n      dup3\n        /* \"ERC20.sol\":5879:5900  account != address(0) */\n      0xffffffffffffffffffffffffffffffffffffffff\n      and\n      eq\n      iszero\n        /* \"ERC20.sol\":5871:5901  require(account != address(0)) */\n      iszero\n      iszero\n      tag_120\n      jumpi\n      0x00\n      dup1\n      revert\n    tag_120:\n        /* \"ERC20.sol\":5927:5950  _totalSupply.add(value) */\n      tag_121\n        /* \"ERC20.sol\":5944:5949  value */\n      dup2\n        /* \"ERC20.sol\":5927:5939  _totalSupply */\n      sload(0x02)\n        /* \"ERC20.sol\":5927:5943  _totalSupply.add */\n      tag_68\n      swap1\n        /* \"ERC20.sol\":5927:5950  _totalSupply.add(value) */\n      swap2\n      swap1\n      0xffffffff\n      and\n      jump\t// in\n    tag_121:\n        /* \"ERC20.sol\":5912:5924  _totalSupply */\n      0x02\n        /* \"ERC20.sol\":5912:5950  _totalSupply = _totalSupply.add(value) */\n      dup2\n      swap1\n      sstore\n      pop\n        /* \"ERC20.sol\":5981:6010  _balances[account].add(value) */\n      tag_122\n        /* \"ERC20.sol\":6004:6009  value */\n      dup2\n        /* \"ERC20.sol\":5981:5990  _balances */\n      0x00\n        /* \"ERC20.sol\":5981:5999  _balances[account] */\n      dup1\n        /* \"ERC20.sol\":5991:5998  account */\n      dup6\n        /* \"ERC20.sol\":5981:5999  _balances[account] */\n      0xffffffffffffffffffffffffffffffffffffffff\n      and\n      0xffffffffffffffffffffffffffffffffffffffff\n      and\n      dup2\n      mstore\n      0x20\n      add\n      swap1\n      dup2\n      mstore\n      0x20\n      add\n      0x00\n      keccak256\n      sload\n        /* \"ERC20.sol\":5981:6003  _balances[account].add */\n      tag_68\n      swap1\n        /* \"ERC20.sol\":5981:6010  _balances[account].add(value) */\n      swap2\n      swap1\n      0xffffffff\n      and\n      jump\t// in\n    tag_122:\n        /* \"ERC20.sol\":5960:5969  _balances */\n      0x00\n        /* \"ERC20.sol\":5960:5978  _balances[account] */\n      dup1\n        /* \"ERC20.sol\":5970:5977  account */\n      dup5\n        /* \"ERC20.sol\":5960:5978  _balances[account] */\n      0xffffffffffffffffffffffffffffffffffffffff\n      and\n      0xffffffffffffffffffffffffffffffffffffffff\n      and\n      dup2\n      mstore\n      0x20\n      add\n      swap1\n      dup2\n      mstore\n      0x20\n      add\n      0x00\n      keccak256\n        /* \"ERC20.sol\":5960:6010  _balances[account] = _balances[account].add(value) */\n      dup2\n      swap1\n      sstore\n      pop\n        /* \"ERC20.sol\":6046:6053  account */\n      dup2\n        /* \"ERC20.sol\":6025:6061  Transfer(address(0), account, value) */\n      0xffffffffffffffffffffffffffffffffffffffff\n      and\n        /* \"ERC20.sol\":6042:6043  0 */\n      0x00\n        /* \"ERC20.sol\":6025:6061  Transfer(address(0), account, value) */\n      0xffffffffffffffffffffffffffffffffffffffff\n      and\n      0xddf252ad1be2c89b69c2b068fc378daa952ba7f163c4a11628f55a4df523b3ef\n        /* \"ERC20.sol\":6055:6060  value */\n      dup4\n        /* \"ERC20.sol\":6025:6061  Transfer(address(0), account, value) */\n      mload(0x40)\n      dup1\n      dup3\n      dup2\n      mstore\n      0x20\n      add\n      swap2\n      pop\n      pop\n      mload(0x40)\n      dup1\n      swap2\n      sub\n      swap1\n      log3\n        /* \"ERC20.sol\":5805:6068  function _mint(address account, uint256 value) internal {... */\n      pop\n      pop\n      jump\t// out\n        /* \"Roles.sol\":259:440  function add(Role storage role, address account) internal {... */\n    tag_113:\n        /* \"Roles.sol\":354:355  0 */\n      0x00\n        /* \"Roles.sol\":335:356  account != address(0) */\n      0xffffffffffffffffffffffffffffffffffffffff\n      and\n        /* \"Roles.sol\":335:342  account */\n      dup2\n        /* \"Roles.sol\":335:356  account != address(0) */\n      0xffffffffffffffffffffffffffffffffffffffff\n      and\n      eq\n      iszero\n        /* \"Roles.sol\":327:357  require(account != address(0)) */\n      iszero\n      iszero\n      tag_124\n      jumpi\n      0x00\n      dup1\n      revert\n    tag_124:\n        /* \"Roles.sol\":376:394  has(role, account) */\n      tag_125\n        /* \"Roles.sol\":380:384  role */\n      dup3\n        /* \"Roles.sol\":386:393  account */\n      dup3\n        /* \"Roles.sol\":376:379  has */\n      tag_92\n        /* \"Roles.sol\":376:394  has(role, account) */\n      jump\t// in\n    tag_125:\n        /* \"Roles.sol\":375:394  !has(role, account) */\n      iszero\n        /* \"Roles.sol\":367:395  require(!has(role, account)) */\n      iszero\n      iszero\n      tag_126\n      jumpi\n      0x00\n      dup1\n      revert\n    tag_126:\n        /* \"Roles.sol\":429:433  true */\n      0x01\n        /* \"Roles.sol\":406:410  role */\n      dup3\n        /* \"Roles.sol\":406:417  role.bearer */\n      0x00\n      add\n        /* \"Roles.sol\":406:426  role.bearer[account] */\n      0x00\n        /* \"Roles.sol\":418:425  account */\n      dup4\n        /* \"Roles.sol\":406:426  role.bearer[account] */\n      0xffffffffffffffffffffffffffffffffffffffff\n      and\n      0xffffffffffffffffffffffffffffffffffffffff\n      and\n      dup2\n      mstore\n      0x20\n      add\n      swap1\n      dup2\n      mstore\n      0x20\n      add\n      0x00\n      keccak256\n      0x00\n        /* \"Roles.sol\":406:433  role.bearer[account] = true */\n      0x0100\n      exp\n      dup2\n      sload\n      dup2\n      0xff\n      mul\n      not\n      and\n      swap1\n      dup4\n      iszero\n      iszero\n      mul\n      or\n      swap1\n      sstore\n      pop\n        /* \"Roles.sol\":259:440  function add(Role storage role, address account) internal {... */\n      pop\n      pop\n      jump\t// out\n        /* \"Roles.sol\":514:698  function remove(Role storage role, address account) internal {... */\n    tag_116:\n        /* \"Roles.sol\":612:613  0 */\n      0x00\n        /* \"Roles.sol\":593:614  account != address(0) */\n      0xffffffffffffffffffffffffffffffffffffffff\n      and\n        /* \"Roles.sol\":593:600  account */\n      dup2\n        /* \"Roles.sol\":593:614  account != address(0) */\n      0xffffffffffffffffffffffffffffffffffffffff\n      and\n      eq\n      iszero\n        /* \"Roles.sol\":585:615  require(account != address(0)) */\n      iszero\n      iszero\n      tag_128\n      jumpi\n      0x00\n      dup1\n      revert\n    tag_128:\n        /* \"Roles.sol\":633:651  has(role, account) */\n      tag_129\n        /* \"Roles.sol\":637:641  role */\n      dup3\n        /* \"Roles.sol\":643:650  account */\n      dup3\n        /* \"Roles.sol\":633:636  has */\n      tag_92\n        /* \"Roles.sol\":633:651  has(role, account) */\n      jump\t// in\n    tag_129:\n        /* \"Roles.sol\":625:652  require(has(role, account)) */\n      iszero\n      iszero\n      tag_130\n      jumpi\n      0x00\n      dup1\n      revert\n    tag_130:\n        /* \"Roles.sol\":686:691  false */\n      0x00\n        /* \"Roles.sol\":663:667  role */\n      dup3\n        /* \"Roles.sol\":663:674  role.bearer */\n      0x00\n      add\n        /* \"Roles.sol\":663:683  role.bearer[account] */\n      0x00\n        /* \"Roles.sol\":675:682  account */\n      dup4\n        /* \"Roles.sol\":663:683  role.bearer[account] */\n      0xffffffffffffffffffffffffffffffffffffffff\n      and\n      0xffffffffffffffffffffffffffffffffffffffff\n      and\n      dup2\n      mstore\n      0x20\n      add\n      swap1\n      dup2\n      mstore\n      0x20\n      add\n      0x00\n      keccak256\n      0x00\n        /* \"Roles.sol\":663:691  role.bearer[account] = false */\n      0x0100\n      exp\n      dup2\n      sload\n      dup2\n      0xff\n      mul\n      not\n      and\n      swap1\n      dup4\n      iszero\n      iszero\n      mul\n      or\n      swap1\n      sstore\n      pop\n        /* \"Roles.sol\":514:698  function remove(Role storage role, address account) internal {... */\n      pop\n      pop\n      jump\t// out\n\n    auxdata: 0xa165627a7a723058201aa7bbb0db7ff770dffc78a844a495b2c87fbed8a954201a1b0a2af59ee86f3c0029\n}\n","bytecode":{"linkReferences":{},"object":"608060405234801561001057600080fd5b50604051602080620012ba8339810180604052602081101561003157600080fd5b810190808051906020019092919050505061005a33610076640100000000026401000000009004565b60008111151561006957600080fd5b8060048190555050610230565b6100978160036100dd64010000000002610eef179091906401000000009004565b8073ffffffffffffffffffffffffffffffffffffffff167f6ae172837ea30b801fbfcdd4108aa1d5bf8ff775444fd70256b44e6bf3dfc3f660405160405180910390a250565b600073ffffffffffffffffffffffffffffffffffffffff168173ffffffffffffffffffffffffffffffffffffffff161415151561011957600080fd5b610132828261019c640100000000026401000000009004565b15151561013e57600080fd5b60018260000160008373ffffffffffffffffffffffffffffffffffffffff1673ffffffffffffffffffffffffffffffffffffffff16815260200190815260200160002060006101000a81548160ff0219169083151502179055505050565b60008073ffffffffffffffffffffffffffffffffffffffff168273ffffffffffffffffffffffffffffffffffffffff16141515156101d957600080fd5b8260000160008373ffffffffffffffffffffffffffffffffffffffff1673ffffffffffffffffffffffffffffffffffffffff16815260200190815260200160002060009054906101000a900460ff16905092915050565b61107a80620002406000396000f3fe608060405234801561001057600080fd5b50600436106100ec576000357c01000000000000000000000000000000000000000000000000000000009004806370a08231116100a9578063a457c2d711610083578063a457c2d71461038b578063a9059cbb146103f1578063aa271e1a14610457578063dd62ed3e146104b3576100ec565b806370a08231146102e5578063983b2d561461033d5780639865027514610381576100ec565b8063095ea7b3146100f157806318160ddd1461015757806323b872dd14610175578063355274ea146101fb578063395093511461021957806340c10f191461027f575b600080fd5b61013d6004803603604081101561010757600080fd5b81019080803573ffffffffffffffffffffffffffffffffffffffff1690602001909291908035906020019092919050505061052b565b604051808215151515815260200191505060405180910390f35b61015f610542565b6040518082815260200191505060405180910390f35b6101e16004803603606081101561018b57600080fd5b81019080803573ffffffffffffffffffffffffffffffffffffffff169060200190929190803573ffffffffffffffffffffffffffffffffffffffff1690602001909291908035906020019092919050505061054c565b604051808215151515815260200191505060405180910390f35b6102036105fd565b6040518082815260200191505060405180910390f35b6102656004803603604081101561022f57600080fd5b81019080803573ffffffffffffffffffffffffffffffffffffffff16906020019092919080359060200190929190505050610607565b604051808215151515815260200191505060405180910390f35b6102cb6004803603604081101561029557600080fd5b81019080803573ffffffffffffffffffffffffffffffffffffffff169060200190929190803590602001909291905050506106ac565b604051808215151515815260200191505060405180910390f35b610327600480360360208110156102fb57600080fd5b81019080803573ffffffffffffffffffffffffffffffffffffffff1690602001909291905050506106d6565b6040518082815260200191505060405180910390f35b61037f6004803603602081101561035357600080fd5b81019080803573ffffffffffffffffffffffffffffffffffffffff16906020019092919050505061071e565b005b61038961073e565b005b6103d7600480360360408110156103a157600080fd5b81019080803573ffffffffffffffffffffffffffffffffffffffff16906020019092919080359060200190929190505050610749565b604051808215151515815260200191505060405180910390f35b61043d6004803603604081101561040757600080fd5b81019080803573ffffffffffffffffffffffffffffffffffffffff169060200190929190803590602001909291905050506107ee565b604051808215151515815260200191505060405180910390f35b6104996004803603602081101561046d57600080fd5b81019080803573ffffffffffffffffffffffffffffffffffffffff169060200190929190505050610805565b604051808215151515815260200191505060405180910390f35b610515600480360360408110156104c957600080fd5b81019080803573ffffffffffffffffffffffffffffffffffffffff169060200190929190803573ffffffffffffffffffffffffffffffffffffffff169060200190929190505050610822565b6040518082815260200191505060405180910390f35b60006105383384846108a9565b6001905092915050565b6000600254905090565b6000610559848484610a0c565b6105f284336105ed85600160008a73ffffffffffffffffffffffffffffffffffffffff1673ffffffffffffffffffffffffffffffffffffffff16815260200190815260200160002060003373ffffffffffffffffffffffffffffffffffffffff1673ffffffffffffffffffffffffffffffffffffffff16815260200190815260200160002054610bd890919063ffffffff16565b6108a9565b600190509392505050565b6000600454905090565b60006106a2338461069d85600160003373ffffffffffffffffffffffffffffffffffffffff1673ffffffffffffffffffffffffffffffffffffffff16815260200190815260200160002060008973ffffffffffffffffffffffffffffffffffffffff1673ffffffffffffffffffffffffffffffffffffffff16815260200190815260200160002054610bfa90919063ffffffff16565b6108a9565b6001905092915050565b60006106b733610805565b15156106c257600080fd5b6106cc8383610c1b565b6001905092915050565b60008060008373ffffffffffffffffffffffffffffffffffffffff1673ffffffffffffffffffffffffffffffffffffffff168152602001908152602001600020549050919050565b61072733610805565b151561073257600080fd5b61073b81610c53565b50565b61074733610cad565b565b60006107e433846107df85600160003373ffffffffffffffffffffffffffffffffffffffff1673ffffffffffffffffffffffffffffffffffffffff16815260200190815260200160002060008973ffffffffffffffffffffffffffffffffffffffff1673ffffffffffffffffffffffffffffffffffffffff16815260200190815260200160002054610bd890919063ffffffff16565b6108a9565b6001905092915050565b60006107fb338484610a0c565b6001905092915050565b600061081b826003610d0790919063ffffffff16565b9050919050565b6000600160008473ffffffffffffffffffffffffffffffffffffffff1673ffffffffffffffffffffffffffffffffffffffff16815260200190815260200160002060008373ffffffffffffffffffffffffffffffffffffffff1673ffffffffffffffffffffffffffffffffffffffff16815260200190815260200160002054905092915050565b600073ffffffffffffffffffffffffffffffffffffffff168273ffffffffffffffffffffffffffffffffffffffff16141515156108e557600080fd5b600073ffffffffffffffffffffffffffffffffffffffff168373ffffffffffffffffffffffffffffffffffffffff161415151561092157600080fd5b80600160008573ffffffffffffffffffffffffffffffffffffffff1673ffffffffffffffffffffffffffffffffffffffff16815260200190815260200160002060008473ffffffffffffffffffffffffffffffffffffffff1673ffffffffffffffffffffffffffffffffffffffff168152602001908152602001600020819055508173ffffffffffffffffffffffffffffffffffffffff168373ffffffffffffffffffffffffffffffffffffffff167f8c5be1e5ebec7d5bd14f71427d1e84f3dd0314c0f7b2291e5b200ac8c7c3b925836040518082815260200191505060405180910390a3505050565b600073ffffffffffffffffffffffffffffffffffffffff168273ffffffffffffffffffffffffffffffffffffffff1614151515610a4857600080fd5b610a99816000808673ffffffffffffffffffffffffffffffffffffffff1673ffffffffffffffffffffffffffffffffffffffff16815260200190815260200160002054610bd890919063ffffffff16565b6000808573ffffffffffffffffffffffffffffffffffffffff1673ffffffffffffffffffffffffffffffffffffffff16815260200190815260200160002081905550610b2c816000808573ffffffffffffffffffffffffffffffffffffffff1673ffffffffffffffffffffffffffffffffffffffff16815260200190815260200160002054610bfa90919063ffffffff16565b6000808473ffffffffffffffffffffffffffffffffffffffff1673ffffffffffffffffffffffffffffffffffffffff168152602001908152602001600020819055508173ffffffffffffffffffffffffffffffffffffffff168373ffffffffffffffffffffffffffffffffffffffff167fddf252ad1be2c89b69c2b068fc378daa952ba7f163c4a11628f55a4df523b3ef836040518082815260200191505060405180910390a3505050565b6000828211151515610be957600080fd5b600082840390508091505092915050565b6000808284019050838110151515610c1157600080fd5b8091505092915050565b600454610c3882610c2a610542565b610bfa90919063ffffffff16565b11151515610c4557600080fd5b610c4f8282610d9b565b5050565b610c67816003610eef90919063ffffffff16565b8073ffffffffffffffffffffffffffffffffffffffff167f6ae172837ea30b801fbfcdd4108aa1d5bf8ff775444fd70256b44e6bf3dfc3f660405160405180910390a250565b610cc1816003610f9f90919063ffffffff16565b8073ffffffffffffffffffffffffffffffffffffffff167fe94479a9f7e1952cc78f2d6baab678adc1b772d936c6583def489e524cb6669260405160405180910390a250565b60008073ffffffffffffffffffffffffffffffffffffffff168273ffffffffffffffffffffffffffffffffffffffff1614151515610d4457600080fd5b8260000160008373ffffffffffffffffffffffffffffffffffffffff1673ffffffffffffffffffffffffffffffffffffffff16815260200190815260200160002060009054906101000a900460ff16905092915050565b600073ffffffffffffffffffffffffffffffffffffffff168273ffffffffffffffffffffffffffffffffffffffff1614151515610dd757600080fd5b610dec81600254610bfa90919063ffffffff16565b600281905550610e43816000808573ffffffffffffffffffffffffffffffffffffffff1673ffffffffffffffffffffffffffffffffffffffff16815260200190815260200160002054610bfa90919063ffffffff16565b6000808473ffffffffffffffffffffffffffffffffffffffff1673ffffffffffffffffffffffffffffffffffffffff168152602001908152602001600020819055508173ffffffffffffffffffffffffffffffffffffffff16600073ffffffffffffffffffffffffffffffffffffffff167fddf252ad1be2c89b69c2b068fc378daa952ba7f163c4a11628f55a4df523b3ef836040518082815260200191505060405180910390a35050565b600073ffffffffffffffffffffffffffffffffffffffff168173ffffffffffffffffffffffffffffffffffffffff1614151515610f2b57600080fd5b610f358282610d07565b151515610f4157600080fd5b60018260000160008373ffffffffffffffffffffffffffffffffffffffff1673ffffffffffffffffffffffffffffffffffffffff16815260200190815260200160002060006101000a81548160ff0219169083151502179055505050565b600073ffffffffffffffffffffffffffffffffffffffff168173ffffffffffffffffffffffffffffffffffffffff1614151515610fdb57600080fd5b610fe58282610d07565b1515610ff057600080fd5b60008260000160008373ffffffffffffffffffffffffffffffffffffffff1673ffffffffffffffffffffffffffffffffffffffff16815260200190815260200160002060006101000a81548160ff021916908315150217905550505056fea165627a7a723058201aa7bbb0db7ff770dffc78a844a495b2c87fbed8a954201a1b0a2af59ee86f3c0029","opcodes":"PUSH1 0x80 PUSH1 0x40 MSTORE CALLVALUE DUP1 ISZERO PUSH2 0x10 JUMPI PUSH1 0x0 DUP1 REVERT JUMPDEST POP PUSH1 0x40 MLOAD PUSH1 0x20 DUP1 PUSH3 0x12BA DUP4 CODECOPY DUP2 ADD DUP1 PUSH1 0x40 MSTORE PUSH1 0x20 DUP2 LT ISZERO PUSH2 0x31 JUMPI PUSH1 0x0 DUP1 REVERT JUMPDEST DUP2 ADD SWAP1 DUP1 DUP1 MLOAD SWAP1 PUSH1 0x20 ADD SWAP1 SWAP3 SWAP2 SWAP1 POP POP POP PUSH2 0x5A CALLER PUSH2 0x76 PUSH5 0x100000000 MUL PUSH5 0x100000000 SWAP1 DIV JUMP JUMPDEST PUSH1 0x0 DUP2 GT ISZERO ISZERO PUSH2 0x69 JUMPI PUSH1 0x0 DUP1 REVERT JUMPDEST DUP1 PUSH1 0x4 DUP2 SWAP1 SSTORE POP POP PUSH2 0x230 JUMP JUMPDEST PUSH2 0x97 DUP2 PUSH1 0x3 PUSH2 0xDD PUSH5 0x100000000 MUL PUSH2 0xEEF OR SWAP1 SWAP2 SWAP1 PUSH5 0x100000000 SWAP1 DIV JUMP JUMPDEST DUP1 PUSH20 0xFFFFFFFFFFFFFFFFFFFFFFFFFFFFFFFFFFFFFFFF AND PUSH32 0x6AE172837EA30B801FBFCDD4108AA1D5BF8FF775444FD70256B44E6BF3DFC3F6 PUSH1 0x40 MLOAD PUSH1 0x40 MLOAD DUP1 SWAP2 SUB SWAP1 LOG2 POP JUMP JUMPDEST PUSH1 0x0 PUSH20 0xFFFFFFFFFFFFFFFFFFFFFFFFFFFFFFFFFFFFFFFF AND DUP2 PUSH20 0xFFFFFFFFFFFFFFFFFFFFFFFFFFFFFFFFFFFFFFFF AND EQ ISZERO ISZERO ISZERO PUSH2 0x119 JUMPI PUSH1 0x0 DUP1 REVERT JUMPDEST PUSH2 0x132 DUP3 DUP3 PUSH2 0x19C PUSH5 0x100000000 MUL PUSH5 0x100000000 SWAP1 DIV JUMP JUMPDEST ISZERO ISZERO ISZERO PUSH2 0x13E JUMPI PUSH1 0x0 DUP1 REVERT JUMPDEST PUSH1 0x1 DUP3 PUSH1 0x0 ADD PUSH1 0x0 DUP4 PUSH20 0xFFFFFFFFFFFFFFFFFFFFFFFFFFFFFFFFFFFFFFFF AND PUSH20 0xFFFFFFFFFFFFFFFFFFFFFFFFFFFFFFFFFFFFFFFF AND DUP2 MSTORE PUSH1 0x20 ADD SWAP1 DUP2 MSTORE PUSH1 0x20 ADD PUSH1 0x0 KECCAK256 PUSH1 0x0 PUSH2 0x100 EXP DUP2 SLOAD DUP2 PUSH1 0xFF MUL NOT AND SWAP1 DUP4 ISZERO ISZERO MUL OR SWAP1 SSTORE POP POP POP JUMP JUMPDEST PUSH1 0x0 DUP1 PUSH20 0xFFFFFFFFFFFFFFFFFFFFFFFFFFFFFFFFFFFFFFFF AND DUP3 PUSH20 0xFFFFFFFFFFFFFFFFFFFFFFFFFFFFFFFFFFFFFFFF AND EQ ISZERO ISZERO ISZERO PUSH2 0x1D9 JUMPI PUSH1 0x0 DUP1 REVERT JUMPDEST DUP3 PUSH1 0x0 ADD PUSH1 0x0 DUP4 PUSH20 0xFFFFFFFFFFFFFFFFFFFFFFFFFFFFFFFFFFFFFFFF AND PUSH20 0xFFFFFFFFFFFFFFFFFFFFFFFFFFFFFFFFFFFFFFFF AND DUP2 MSTORE PUSH1 0x20 ADD SWAP1 DUP2 MSTORE PUSH1 0x20 ADD PUSH1 0x0 KECCAK256 PUSH1 0x0 SWAP1 SLOAD SWAP1 PUSH2 0x100 EXP SWAP1 DIV PUSH1 0xFF AND SWAP1 POP SWAP3 SWAP2 POP POP JUMP JUMPDEST PUSH2 0x107A DUP1 PUSH3 0x240 PUSH1 0x0 CODECOPY PUSH1 0x0 RETURN INVALID PUSH1 0x80 PUSH1 0x40 MSTORE CALLVALUE DUP1 ISZERO PUSH2 0x10 JUMPI PUSH1 0x0 DUP1 REVERT JUMPDEST POP PUSH1 0x4 CALLDATASIZE LT PUSH2 0xEC JUMPI PUSH1 0x0 CALLDATALOAD PUSH29 0x100000000000000000000000000000000000000000000000000000000 SWAP1 DIV DUP1 PUSH4 0x70A08231 GT PUSH2 0xA9 JUMPI DUP1 PUSH4 0xA457C2D7 GT PUSH2 0x83 JUMPI DUP1 PUSH4 0xA457C2D7 EQ PUSH2 0x38B JUMPI DUP1 PUSH4 0xA9059CBB EQ PUSH2 0x3F1 JUMPI DUP1 PUSH4 0xAA271E1A EQ PUSH2 0x457 JUMPI DUP1 PUSH4 0xDD62ED3E EQ PUSH2 0x4B3 JUMPI PUSH2 0xEC JUMP JUMPDEST DUP1 PUSH4 0x70A08231 EQ PUSH2 0x2E5 JUMPI DUP1 PUSH4 0x983B2D56 EQ PUSH2 0x33D JUMPI DUP1 PUSH4 0x98650275 EQ PUSH2 0x381 JUMPI PUSH2 0xEC JUMP JUMPDEST DUP1 PUSH4 0x95EA7B3 EQ PUSH2 0xF1 JUMPI DUP1 PUSH4 0x18160DDD EQ PUSH2 0x157 JUMPI DUP1 PUSH4 0x23B872DD EQ PUSH2 0x175 JUMPI DUP1 PUSH4 0x355274EA EQ PUSH2 0x1FB JUMPI DUP1 PUSH4 0x39509351 EQ PUSH2 0x219 JUMPI DUP1 PUSH4 0x40C10F19 EQ PUSH2 0x27F JUMPI JUMPDEST PUSH1 0x0 DUP1 REVERT JUMPDEST PUSH2 0x13D PUSH1 0x4 DUP1 CALLDATASIZE SUB PUSH1 0x40 DUP2 LT ISZERO PUSH2 0x107 JUMPI PUSH1 0x0 DUP1 REVERT JUMPDEST DUP2 ADD SWAP1 DUP1 DUP1 CALLDATALOAD PUSH20 0xFFFFFFFFFFFFFFFFFFFFFFFFFFFFFFFFFFFFFFFF AND SWAP1 PUSH1 0x20 ADD SWAP1 SWAP3 SWAP2 SWAP1 DUP1 CALLDATALOAD SWAP1 PUSH1 0x20 ADD SWAP1 SWAP3 SWAP2 SWAP1 POP POP POP PUSH2 0x52B JUMP JUMPDEST PUSH1 0x40 MLOAD DUP1 DUP3 ISZERO ISZERO ISZERO ISZERO DUP2 MSTORE PUSH1 0x20 ADD SWAP2 POP POP PUSH1 0x40 MLOAD DUP1 SWAP2 SUB SWAP1 RETURN JUMPDEST PUSH2 0x15F PUSH2 0x542 JUMP JUMPDEST PUSH1 0x40 MLOAD DUP1 DUP3 DUP2 MSTORE PUSH1 0x20 ADD SWAP2 POP POP PUSH1 0x40 MLOAD DUP1 SWAP2 SUB SWAP1 RETURN JUMPDEST PUSH2 0x1E1 PUSH1 0x4 DUP1 CALLDATASIZE SUB PUSH1 0x60 DUP2 LT ISZERO PUSH2 0x18B JUMPI PUSH1 0x0 DUP1 REVERT JUMPDEST DUP2 ADD SWAP1 DUP1 DUP1 CALLDATALOAD PUSH20 0xFFFFFFFFFFFFFFFFFFFFFFFFFFFFFFFFFFFFFFFF AND SWAP1 PUSH1 0x20 ADD SWAP1 SWAP3 SWAP2 SWAP1 DUP1 CALLDATALOAD PUSH20 0xFFFFFFFFFFFFFFFFFFFFFFFFFFFFFFFFFFFFFFFF AND SWAP1 PUSH1 0x20 ADD SWAP1 SWAP3 SWAP2 SWAP1 DUP1 CALLDATALOAD SWAP1 PUSH1 0x20 ADD SWAP1 SWAP3 SWAP2 SWAP1 POP POP POP PUSH2 0x54C JUMP JUMPDEST PUSH1 0x40 MLOAD DUP1 DUP3 ISZERO ISZERO ISZERO ISZERO DUP2 MSTORE PUSH1 0x20 ADD SWAP2 POP POP PUSH1 0x40 MLOAD DUP1 SWAP2 SUB SWAP1 RETURN JUMPDEST PUSH2 0x203 PUSH2 0x5FD JUMP JUMPDEST PUSH1 0x40 MLOAD DUP1 DUP3 DUP2 MSTORE PUSH1 0x20 ADD SWAP2 POP POP PUSH1 0x40 MLOAD DUP1 SWAP2 SUB SWAP1 RETURN JUMPDEST PUSH2 0x265 PUSH1 0x4 DUP1 CALLDATASIZE SUB PUSH1 0x40 DUP2 LT ISZERO PUSH2 0x22F JUMPI PUSH1 0x0 DUP1 REVERT JUMPDEST DUP2 ADD SWAP1 DUP1 DUP1 CALLDATALOAD PUSH20 0xFFFFFFFFFFFFFFFFFFFFFFFFFFFFFFFFFFFFFFFF AND SWAP1 PUSH1 0x20 ADD SWAP1 SWAP3 SWAP2 SWAP1 DUP1 CALLDATALOAD SWAP1 PUSH1 0x20 ADD SWAP1 SWAP3 SWAP2 SWAP1 POP POP POP PUSH2 0x607 JUMP JUMPDEST PUSH1 0x40 MLOAD DUP1 DUP3 ISZERO ISZERO ISZERO ISZERO DUP2 MSTORE PUSH1 0x20 ADD SWAP2 POP POP PUSH1 0x40 MLOAD DUP1 SWAP2 SUB SWAP1 RETURN JUMPDEST PUSH2 0x2CB PUSH1 0x4 DUP1 CALLDATASIZE SUB PUSH1 0x40 DUP2 LT ISZERO PUSH2 0x295 JUMPI PUSH1 0x0 DUP1 REVERT JUMPDEST DUP2 ADD SWAP1 DUP1 DUP1 CALLDATALOAD PUSH20 0xFFFFFFFFFFFFFFFFFFFFFFFFFFFFFFFFFFFFFFFF AND SWAP1 PUSH1 0x20 ADD SWAP1 SWAP3 SWAP2 SWAP1 DUP1 CALLDATALOAD SWAP1 PUSH1 0x20 ADD SWAP1 SWAP3 SWAP2 SWAP1 POP POP POP PUSH2 0x6AC JUMP JUMPDEST PUSH1 0x40 MLOAD DUP1 DUP3 ISZERO ISZERO ISZERO ISZERO DUP2 MSTORE PUSH1 0x20 ADD SWAP2 POP POP PUSH1 0x40 MLOAD DUP1 SWAP2 SUB SWAP1 RETURN JUMPDEST PUSH2 0x327 PUSH1 0x4 DUP1 CALLDATASIZE SUB PUSH1 0x20 DUP2 LT ISZERO PUSH2 0x2FB JUMPI PUSH1 0x0 DUP1 REVERT JUMPDEST DUP2 ADD SWAP1 DUP1 DUP1 CALLDATALOAD PUSH20 0xFFFFFFFFFFFFFFFFFFFFFFFFFFFFFFFFFFFFFFFF AND SWAP1 PUSH1 0x20 ADD SWAP1 SWAP3 SWAP2 SWAP1 POP POP POP PUSH2 0x6D6 JUMP JUMPDEST PUSH1 0x40 MLOAD DUP1 DUP3 DUP2 MSTORE PUSH1 0x20 ADD SWAP2 POP POP PUSH1 0x40 MLOAD DUP1 SWAP2 SUB SWAP1 RETURN JUMPDEST PUSH2 0x37F PUSH1 0x4 DUP1 CALLDATASIZE SUB PUSH1 0x20 DUP2 LT ISZERO PUSH2 0x353 JUMPI PUSH1 0x0 DUP1 REVERT JUMPDEST DUP2 ADD SWAP1 DUP1 DUP1 CALLDATALOAD PUSH20 0xFFFFFFFFFFFFFFFFFFFFFFFFFFFFFFFFFFFFFFFF AND SWAP1 PUSH1 0x20 ADD SWAP1 SWAP3 SWAP2 SWAP1 POP POP POP PUSH2 0x71E JUMP JUMPDEST STOP JUMPDEST PUSH2 0x389 PUSH2 0x73E JUMP JUMPDEST STOP JUMPDEST PUSH2 0x3D7 PUSH1 0x4 DUP1 CALLDATASIZE SUB PUSH1 0x40 DUP2 LT ISZERO PUSH2 0x3A1 JUMPI PUSH1 0x0 DUP1 REVERT JUMPDEST DUP2 ADD SWAP1 DUP1 DUP1 CALLDATALOAD PUSH20 0xFFFFFFFFFFFFFFFFFFFFFFFFFFFFFFFFFFFFFFFF AND SWAP1 PUSH1 0x20 ADD SWAP1 SWAP3 SWAP2 SWAP1 DUP1 CALLDATALOAD SWAP1 PUSH1 0x20 ADD SWAP1 SWAP3 SWAP2 SWAP1 POP POP POP PUSH2 0x749 JUMP JUMPDEST PUSH1 0x40 MLOAD DUP1 DUP3 ISZERO ISZERO ISZERO ISZERO DUP2 MSTORE PUSH1 0x20 ADD SWAP2 POP POP PUSH1 0x40 MLOAD DUP1 SWAP2 SUB SWAP1 RETURN JUMPDEST PUSH2 0x43D PUSH1 0x4 DUP1 CALLDATASIZE SUB PUSH1 0x40 DUP2 LT ISZERO PUSH2 0x407 JUMPI PUSH1 0x0 DUP1 REVERT JUMPDEST DUP2 ADD SWAP1 DUP1 DUP1 CALLDATALOAD PUSH20 0xFFFFFFFFFFFFFFFFFFFFFFFFFFFFFFFFFFFFFFFF AND SWAP1 PUSH1 0x20 ADD SWAP1 SWAP3 SWAP2 SWAP1 DUP1 CALLDATALOAD SWAP1 PUSH1 0x20 ADD SWAP1 SWAP3 SWAP2 SWAP1 POP POP POP PUSH2 0x7EE JUMP JUMPDEST PUSH1 0x40 MLOAD DUP1 DUP3 ISZERO ISZERO ISZERO ISZERO DUP2 MSTORE PUSH1 0x20 ADD SWAP2 POP POP PUSH1 0x40 MLOAD DUP1 SWAP2 SUB SWAP1 RETURN JUMPDEST PUSH2 0x499 PUSH1 0x4 DUP1 CALLDATASIZE SUB PUSH1 0x20 DUP2 LT ISZERO PUSH2 0x46D JUMPI PUSH1 0x0 DUP1 REVERT JUMPDEST DUP2 ADD SWAP1 DUP1 DUP1 CALLDATALOAD PUSH20 0xFFFFFFFFFFFFFFFFFFFFFFFFFFFFFFFFFFFFFFFF AND SWAP1 PUSH1 0x20 ADD SWAP1 SWAP3 SWAP2 SWAP1 POP POP POP PUSH2 0x805 JUMP JUMPDEST PUSH1 0x40 MLOAD DUP1 DUP3 ISZERO ISZERO ISZERO ISZERO DUP2 MSTORE PUSH1 0x20 ADD SWAP2 POP POP PUSH1 0x40 MLOAD DUP1 SWAP2 SUB SWAP1 RETURN JUMPDEST PUSH2 0x515 PUSH1 0x4 DUP1 CALLDATASIZE SUB PUSH1 0x40 DUP2 LT ISZERO PUSH2 0x4C9 JUMPI PUSH1 0x0 DUP1 REVERT JUMPDEST DUP2 ADD SWAP1 DUP1 DUP1 CALLDATALOAD PUSH20 0xFFFFFFFFFFFFFFFFFFFFFFFFFFFFFFFFFFFFFFFF AND SWAP1 PUSH1 0x20 ADD SWAP1 SWAP3 SWAP2 SWAP1 DUP1 CALLDATALOAD PUSH20 0xFFFFFFFFFFFFFFFFFFFFFFFFFFFFFFFFFFFFFFFF AND SWAP1 PUSH1 0x20 ADD SWAP1 SWAP3 SWAP2 SWAP1 POP POP POP PUSH2 0x822 JUMP JUMPDEST PUSH1 0x40 MLOAD DUP1 DUP3 DUP2 MSTORE PUSH1 0x20 ADD SWAP2 POP POP PUSH1 0x40 MLOAD DUP1 SWAP2 SUB SWAP1 RETURN JUMPDEST PUSH1 0x0 PUSH2 0x538 CALLER DUP5 DUP5 PUSH2 0x8A9 JUMP JUMPDEST PUSH1 0x1 SWAP1 POP SWAP3 SWAP2 POP POP JUMP JUMPDEST PUSH1 0x0 PUSH1 0x2 SLOAD SWAP1 POP SWAP1 JUMP JUMPDEST PUSH1 0x0 PUSH2 0x559 DUP5 DUP5 DUP5 PUSH2 0xA0C JUMP JUMPDEST PUSH2 0x5F2 DUP5 CALLER PUSH2 0x5ED DUP6 PUSH1 0x1 PUSH1 0x0 DUP11 PUSH20 0xFFFFFFFFFFFFFFFFFFFFFFFFFFFFFFFFFFFFFFFF AND PUSH20 0xFFFFFFFFFFFFFFFFFFFFFFFFFFFFFFFFFFFFFFFF AND DUP2 MSTORE PUSH1 0x20 ADD SWAP1 DUP2 MSTORE PUSH1 0x20 ADD PUSH1 0x0 KECCAK256 PUSH1 0x0 CALLER PUSH20 0xFFFFFFFFFFFFFFFFFFFFFFFFFFFFFFFFFFFFFFFF AND PUSH20 0xFFFFFFFFFFFFFFFFFFFFFFFFFFFFFFFFFFFFFFFF AND DUP2 MSTORE PUSH1 0x20 ADD SWAP1 DUP2 MSTORE PUSH1 0x20 ADD PUSH1 0x0 KECCAK256 SLOAD PUSH2 0xBD8 SWAP1 SWAP2 SWAP1 PUSH4 0xFFFFFFFF AND JUMP JUMPDEST PUSH2 0x8A9 JUMP JUMPDEST PUSH1 0x1 SWAP1 POP SWAP4 SWAP3 POP POP POP JUMP JUMPDEST PUSH1 0x0 PUSH1 0x4 SLOAD SWAP1 POP SWAP1 JUMP JUMPDEST PUSH1 0x0 PUSH2 0x6A2 CALLER DUP5 PUSH2 0x69D DUP6 PUSH1 0x1 PUSH1 0x0 CALLER PUSH20 0xFFFFFFFFFFFFFFFFFFFFFFFFFFFFFFFFFFFFFFFF AND PUSH20 0xFFFFFFFFFFFFFFFFFFFFFFFFFFFFFFFFFFFFFFFF AND DUP2 MSTORE PUSH1 0x20 ADD SWAP1 DUP2 MSTORE PUSH1 0x20 ADD PUSH1 0x0 KECCAK256 PUSH1 0x0 DUP10 PUSH20 0xFFFFFFFFFFFFFFFFFFFFFFFFFFFFFFFFFFFFFFFF AND PUSH20 0xFFFFFFFFFFFFFFFFFFFFFFFFFFFFFFFFFFFFFFFF AND DUP2 MSTORE PUSH1 0x20 ADD SWAP1 DUP2 MSTORE PUSH1 0x20 ADD PUSH1 0x0 KECCAK256 SLOAD PUSH2 0xBFA SWAP1 SWAP2 SWAP1 PUSH4 0xFFFFFFFF AND JUMP JUMPDEST PUSH2 0x8A9 JUMP JUMPDEST PUSH1 0x1 SWAP1 POP SWAP3 SWAP2 POP POP JUMP JUMPDEST PUSH1 0x0 PUSH2 0x6B7 CALLER PUSH2 0x805 JUMP JUMPDEST ISZERO ISZERO PUSH2 0x6C2 JUMPI PUSH1 0x0 DUP1 REVERT JUMPDEST PUSH2 0x6CC DUP4 DUP4 PUSH2 0xC1B JUMP JUMPDEST PUSH1 0x1 SWAP1 POP SWAP3 SWAP2 POP POP JUMP JUMPDEST PUSH1 0x0 DUP1 PUSH1 0x0 DUP4 PUSH20 0xFFFFFFFFFFFFFFFFFFFFFFFFFFFFFFFFFFFFFFFF AND PUSH20 0xFFFFFFFFFFFFFFFFFFFFFFFFFFFFFFFFFFFFFFFF AND DUP2 MSTORE PUSH1 0x20 ADD SWAP1 DUP2 MSTORE PUSH1 0x20 ADD PUSH1 0x0 KECCAK256 SLOAD SWAP1 POP SWAP2 SWAP1 POP JUMP JUMPDEST PUSH2 0x727 CALLER PUSH2 0x805 JUMP JUMPDEST ISZERO ISZERO PUSH2 0x732 JUMPI PUSH1 0x0 DUP1 REVERT JUMPDEST PUSH2 0x73B DUP2 PUSH2 0xC53 JUMP JUMPDEST POP JUMP JUMPDEST PUSH2 0x747 CALLER PUSH2 0xCAD JUMP JUMPDEST JUMP JUMPDEST PUSH1 0x0 PUSH2 0x7E4 CALLER DUP5 PUSH2 0x7DF DUP6 PUSH1 0x1 PUSH1 0x0 CALLER PUSH20 0xFFFFFFFFFFFFFFFFFFFFFFFFFFFFFFFFFFFFFFFF AND PUSH20 0xFFFFFFFFFFFFFFFFFFFFFFFFFFFFFFFFFFFFFFFF AND DUP2 MSTORE PUSH1 0x20 ADD SWAP1 DUP2 MSTORE PUSH1 0x20 ADD PUSH1 0x0 KECCAK256 PUSH1 0x0 DUP10 PUSH20 0xFFFFFFFFFFFFFFFFFFFFFFFFFFFFFFFFFFFFFFFF AND PUSH20 0xFFFFFFFFFFFFFFFFFFFFFFFFFFFFFFFFFFFFFFFF AND DUP2 MSTORE PUSH1 0x20 ADD SWAP1 DUP2 MSTORE PUSH1 0x20 ADD PUSH1 0x0 KECCAK256 SLOAD PUSH2 0xBD8 SWAP1 SWAP2 SWAP1 PUSH4 0xFFFFFFFF AND JUMP JUMPDEST PUSH2 0x8A9 JUMP JUMPDEST PUSH1 0x1 SWAP1 POP SWAP3 SWAP2 POP POP JUMP JUMPDEST PUSH1 0x0 PUSH2 0x7FB CALLER DUP5 DUP5 PUSH2 0xA0C JUMP JUMPDEST PUSH1 0x1 SWAP1 POP SWAP3 SWAP2 POP POP JUMP JUMPDEST PUSH1 0x0 PUSH2 0x81B DUP3 PUSH1 0x3 PUSH2 0xD07 SWAP1 SWAP2 SWAP1 PUSH4 0xFFFFFFFF AND JUMP JUMPDEST SWAP1 POP SWAP2 SWAP1 POP JUMP JUMPDEST PUSH1 0x0 PUSH1 0x1 PUSH1 0x0 DUP5 PUSH20 0xFFFFFFFFFFFFFFFFFFFFFFFFFFFFFFFFFFFFFFFF AND PUSH20 0xFFFFFFFFFFFFFFFFFFFFFFFFFFFFFFFFFFFFFFFF AND DUP2 MSTORE PUSH1 0x20 ADD SWAP1 DUP2 MSTORE PUSH1 0x20 ADD PUSH1 0x0 KECCAK256 PUSH1 0x0 DUP4 PUSH20 0xFFFFFFFFFFFFFFFFFFFFFFFFFFFFFFFFFFFFFFFF AND PUSH20 0xFFFFFFFFFFFFFFFFFFFFFFFFFFFFFFFFFFFFFFFF AND DUP2 MSTORE PUSH1 0x20 ADD SWAP1 DUP2 MSTORE PUSH1 0x20 ADD PUSH1 0x0 KECCAK256 SLOAD SWAP1 POP SWAP3 SWAP2 POP POP JUMP JUMPDEST PUSH1 0x0 PUSH20 0xFFFFFFFFFFFFFFFFFFFFFFFFFFFFFFFFFFFFFFFF AND DUP3 PUSH20 0xFFFFFFFFFFFFFFFFFFFFFFFFFFFFFFFFFFFFFFFF AND EQ ISZERO ISZERO ISZERO PUSH2 0x8E5 JUMPI PUSH1 0x0 DUP1 REVERT JUMPDEST PUSH1 0x0 PUSH20 0xFFFFFFFFFFFFFFFFFFFFFFFFFFFFFFFFFFFFFFFF AND DUP4 PUSH20 0xFFFFFFFFFFFFFFFFFFFFFFFFFFFFFFFFFFFFFFFF AND EQ ISZERO ISZERO ISZERO PUSH2 0x921 JUMPI PUSH1 0x0 DUP1 REVERT JUMPDEST DUP1 PUSH1 0x1 PUSH1 0x0 DUP6 PUSH20 0xFFFFFFFFFFFFFFFFFFFFFFFFFFFFFFFFFFFFFFFF AND PUSH20 0xFFFFFFFFFFFFFFFFFFFFFFFFFFFFFFFFFFFFFFFF AND DUP2 MSTORE PUSH1 0x20 ADD SWAP1 DUP2 MSTORE PUSH1 0x20 ADD PUSH1 0x0 KECCAK256 PUSH1 0x0 DUP5 PUSH20 0xFFFFFFFFFFFFFFFFFFFFFFFFFFFFFFFFFFFFFFFF AND PUSH20 0xFFFFFFFFFFFFFFFFFFFFFFFFFFFFFFFFFFFFFFFF AND DUP2 MSTORE PUSH1 0x20 ADD SWAP1 DUP2 MSTORE PUSH1 0x20 ADD PUSH1 0x0 KECCAK256 DUP2 SWAP1 SSTORE POP DUP2 PUSH20 0xFFFFFFFFFFFFFFFFFFFFFFFFFFFFFFFFFFFFFFFF AND DUP4 PUSH20 0xFFFFFFFFFFFFFFFFFFFFFFFFFFFFFFFFFFFFFFFF AND PUSH32 0x8C5BE1E5EBEC7D5BD14F71427D1E84F3DD0314C0F7B2291E5B200AC8C7C3B925 DUP4 PUSH1 0x40 MLOAD DUP1 DUP3 DUP2 MSTORE PUSH1 0x20 ADD SWAP2 POP POP PUSH1 0x40 MLOAD DUP1 SWAP2 SUB SWAP1 LOG3 POP POP POP JUMP JUMPDEST PUSH1 0x0 PUSH20 0xFFFFFFFFFFFFFFFFFFFFFFFFFFFFFFFFFFFFFFFF AND DUP3 PUSH20 0xFFFFFFFFFFFFFFFFFFFFFFFFFFFFFFFFFFFFFFFF AND EQ ISZERO ISZERO ISZERO PUSH2 0xA48 JUMPI PUSH1 0x0 DUP1 REVERT JUMPDEST PUSH2 0xA99 DUP2 PUSH1 0x0 DUP1 DUP7 PUSH20 0xFFFFFFFFFFFFFFFFFFFFFFFFFFFFFFFFFFFFFFFF AND PUSH20 0xFFFFFFFFFFFFFFFFFFFFFFFFFFFFFFFFFFFFFFFF AND DUP2 MSTORE PUSH1 0x20 ADD SWAP1 DUP2 MSTORE PUSH1 0x20 ADD PUSH1 0x0 KECCAK256 SLOAD PUSH2 0xBD8 SWAP1 SWAP2 SWAP1 PUSH4 0xFFFFFFFF AND JUMP JUMPDEST PUSH1 0x0 DUP1 DUP6 PUSH20 0xFFFFFFFFFFFFFFFFFFFFFFFFFFFFFFFFFFFFFFFF AND PUSH20 0xFFFFFFFFFFFFFFFFFFFFFFFFFFFFFFFFFFFFFFFF AND DUP2 MSTORE PUSH1 0x20 ADD SWAP1 DUP2 MSTORE PUSH1 0x20 ADD PUSH1 0x0 KECCAK256 DUP2 SWAP1 SSTORE POP PUSH2 0xB2C DUP2 PUSH1 0x0 DUP1 DUP6 PUSH20 0xFFFFFFFFFFFFFFFFFFFFFFFFFFFFFFFFFFFFFFFF AND PUSH20 0xFFFFFFFFFFFFFFFFFFFFFFFFFFFFFFFFFFFFFFFF AND DUP2 MSTORE PUSH1 0x20 ADD SWAP1 DUP2 MSTORE PUSH1 0x20 ADD PUSH1 0x0 KECCAK256 SLOAD PUSH2 0xBFA SWAP1 SWAP2 SWAP1 PUSH4 0xFFFFFFFF AND JUMP JUMPDEST PUSH1 0x0 DUP1 DUP5 PUSH20 0xFFFFFFFFFFFFFFFFFFFFFFFFFFFFFFFFFFFFFFFF AND PUSH20 0xFFFFFFFFFFFFFFFFFFFFFFFFFFFFFFFFFFFFFFFF AND DUP2 MSTORE PUSH1 0x20 ADD SWAP1 DUP2 MSTORE PUSH1 0x20 ADD PUSH1 0x0 KECCAK256 DUP2 SWAP1 SSTORE POP DUP2 PUSH20 0xFFFFFFFFFFFFFFFFFFFFFFFFFFFFFFFFFFFFFFFF AND DUP4 PUSH20 0xFFFFFFFFFFFFFFFFFFFFFFFFFFFFFFFFFFFFFFFF AND PUSH32 0xDDF252AD1BE2C89B69C2B068FC378DAA952BA7F163C4A11628F55A4DF523B3EF DUP4 PUSH1 0x40 MLOAD DUP1 DUP3 DUP2 MSTORE PUSH1 0x20 ADD SWAP2 POP POP PUSH1 0x40 MLOAD DUP1 SWAP2 SUB SWAP1 LOG3 POP POP POP JUMP JUMPDEST PUSH1 0x0 DUP3 DUP3 GT ISZERO ISZERO ISZERO PUSH2 0xBE9 JUMPI PUSH1 0x0 DUP1 REVERT JUMPDEST PUSH1 0x0 DUP3 DUP5 SUB SWAP1 POP DUP1 SWAP2 POP POP SWAP3 SWAP2 POP POP JUMP JUMPDEST PUSH1 0x0 DUP1 DUP3 DUP5 ADD SWAP1 POP DUP4 DUP2 LT ISZERO ISZERO ISZERO PUSH2 0xC11 JUMPI PUSH1 0x0 DUP1 REVERT JUMPDEST DUP1 SWAP2 POP POP SWAP3 SWAP2 POP POP JUMP JUMPDEST PUSH1 0x4 SLOAD PUSH2 0xC38 DUP3 PUSH2 0xC2A PUSH2 0x542 JUMP JUMPDEST PUSH2 0xBFA SWAP1 SWAP2 SWAP1 PUSH4 0xFFFFFFFF AND JUMP JUMPDEST GT ISZERO ISZERO ISZERO PUSH2 0xC45 JUMPI PUSH1 0x0 DUP1 REVERT JUMPDEST PUSH2 0xC4F DUP3 DUP3 PUSH2 0xD9B JUMP JUMPDEST POP POP JUMP JUMPDEST PUSH2 0xC67 DUP2 PUSH1 0x3 PUSH2 0xEEF SWAP1 SWAP2 SWAP1 PUSH4 0xFFFFFFFF AND JUMP JUMPDEST DUP1 PUSH20 0xFFFFFFFFFFFFFFFFFFFFFFFFFFFFFFFFFFFFFFFF AND PUSH32 0x6AE172837EA30B801FBFCDD4108AA1D5BF8FF775444FD70256B44E6BF3DFC3F6 PUSH1 0x40 MLOAD PUSH1 0x40 MLOAD DUP1 SWAP2 SUB SWAP1 LOG2 POP JUMP JUMPDEST PUSH2 0xCC1 DUP2 PUSH1 0x3 PUSH2 0xF9F SWAP1 SWAP2 SWAP1 PUSH4 0xFFFFFFFF AND JUMP JUMPDEST DUP1 PUSH20 0xFFFFFFFFFFFFFFFFFFFFFFFFFFFFFFFFFFFFFFFF AND PUSH32 0xE94479A9F7E1952CC78F2D6BAAB678ADC1B772D936C6583DEF489E524CB66692 PUSH1 0x40 MLOAD PUSH1 0x40 MLOAD DUP1 SWAP2 SUB SWAP1 LOG2 POP JUMP JUMPDEST PUSH1 0x0 DUP1 PUSH20 0xFFFFFFFFFFFFFFFFFFFFFFFFFFFFFFFFFFFFFFFF AND DUP3 PUSH20 0xFFFFFFFFFFFFFFFFFFFFFFFFFFFFFFFFFFFFFFFF AND EQ ISZERO ISZERO ISZERO PUSH2 0xD44 JUMPI PUSH1 0x0 DUP1 REVERT JUMPDEST DUP3 PUSH1 0x0 ADD PUSH1 0x0 DUP4 PUSH20 0xFFFFFFFFFFFFFFFFFFFFFFFFFFFFFFFFFFFFFFFF AND PUSH20 0xFFFFFFFFFFFFFFFFFFFFFFFFFFFFFFFFFFFFFFFF AND DUP2 MSTORE PUSH1 0x20 ADD SWAP1 DUP2 MSTORE PUSH1 0x20 ADD PUSH1 0x0 KECCAK256 PUSH1 0x0 SWAP1 SLOAD SWAP1 PUSH2 0x100 EXP SWAP1 DIV PUSH1 0xFF AND SWAP1 POP SWAP3 SWAP2 POP POP JUMP JUMPDEST PUSH1 0x0 PUSH20 0xFFFFFFFFFFFFFFFFFFFFFFFFFFFFFFFFFFFFFFFF AND DUP3 PUSH20 0xFFFFFFFFFFFFFFFFFFFFFFFFFFFFFFFFFFFFFFFF AND EQ ISZERO ISZERO ISZERO PUSH2 0xDD7 JUMPI PUSH1 0x0 DUP1 REVERT JUMPDEST PUSH2 0xDEC DUP2 PUSH1 0x2 SLOAD PUSH2 0xBFA SWAP1 SWAP2 SWAP1 PUSH4 0xFFFFFFFF AND JUMP JUMPDEST PUSH1 0x2 DUP2 SWAP1 SSTORE POP PUSH2 0xE43 DUP2 PUSH1 0x0 DUP1 DUP6 PUSH20 0xFFFFFFFFFFFFFFFFFFFFFFFFFFFFFFFFFFFFFFFF AND PUSH20 0xFFFFFFFFFFFFFFFFFFFFFFFFFFFFFFFFFFFFFFFF AND DUP2 MSTORE PUSH1 0x20 ADD SWAP1 DUP2 MSTORE PUSH1 0x20 ADD PUSH1 0x0 KECCAK256 SLOAD PUSH2 0xBFA SWAP1 SWAP2 SWAP1 PUSH4 0xFFFFFFFF AND JUMP JUMPDEST PUSH1 0x0 DUP1 DUP5 PUSH20 0xFFFFFFFFFFFFFFFFFFFFFFFFFFFFFFFFFFFFFFFF AND PUSH20 0xFFFFFFFFFFFFFFFFFFFFFFFFFFFFFFFFFFFFFFFF AND DUP2 MSTORE PUSH1 0x20 ADD SWAP1 DUP2 MSTORE PUSH1 0x20 ADD PUSH1 0x0 KECCAK256 DUP2 SWAP1 SSTORE POP DUP2 PUSH20 0xFFFFFFFFFFFFFFFFFFFFFFFFFFFFFFFFFFFFFFFF AND PUSH1 0x0 PUSH20 0xFFFFFFFFFFFFFFFFFFFFFFFFFFFFFFFFFFFFFFFF AND PUSH32 0xDDF252AD1BE2C89B69C2B068FC378DAA952BA7F163C4A11628F55A4DF523B3EF DUP4 PUSH1 0x40 MLOAD DUP1 DUP3 DUP2 MSTORE PUSH1 0x20 ADD SWAP2 POP POP PUSH1 0x40 MLOAD DUP1 SWAP2 SUB SWAP1 LOG3 POP POP JUMP JUMPDEST PUSH1 0x0 PUSH20 0xFFFFFFFFFFFFFFFFFFFFFFFFFFFFFFFFFFFFFFFF AND DUP2 PUSH20 0xFFFFFFFFFFFFFFFFFFFFFFFFFFFFFFFFFFFFFFFF AND EQ ISZERO ISZERO ISZERO PUSH2 0xF2B JUMPI PUSH1 0x0 DUP1 REVERT JUMPDEST PUSH2 0xF35 DUP3 DUP3 PUSH2 0xD07 JUMP JUMPDEST ISZERO ISZERO ISZERO PUSH2 0xF41 JUMPI PUSH1 0x0 DUP1 REVERT JUMPDEST PUSH1 0x1 DUP3 PUSH1 0x0 ADD PUSH1 0x0 DUP4 PUSH20 0xFFFFFFFFFFFFFFFFFFFFFFFFFFFFFFFFFFFFFFFF AND PUSH20 0xFFFFFFFFFFFFFFFFFFFFFFFFFFFFFFFFFFFFFFFF AND DUP2 MSTORE PUSH1 0x20 ADD SWAP1 DUP2 MSTORE PUSH1 0x20 ADD PUSH1 0x0 KECCAK256 PUSH1 0x0 PUSH2 0x100 EXP DUP2 SLOAD DUP2 PUSH1 0xFF MUL NOT AND SWAP1 DUP4 ISZERO ISZERO MUL OR SWAP1 SSTORE POP POP POP JUMP JUMPDEST PUSH1 0x0 PUSH20 0xFFFFFFFFFFFFFFFFFFFFFFFFFFFFFFFFFFFFFFFF AND DUP2 PUSH20 0xFFFFFFFFFFFFFFFFFFFFFFFFFFFFFFFFFFFFFFFF AND EQ ISZERO ISZERO ISZERO PUSH2 0xFDB JUMPI PUSH1 0x0 DUP1 REVERT JUMPDEST PUSH2 0xFE5 DUP3 DUP3 PUSH2 0xD07 JUMP JUMPDEST ISZERO ISZERO PUSH2 0xFF0 JUMPI PUSH1 0x0 DUP1 REVERT JUMPDEST PUSH1 0x0 DUP3 PUSH1 0x0 ADD PUSH1 0x0 DUP4 PUSH20 0xFFFFFFFFFFFFFFFFFFFFFFFFFFFFFFFFFFFFFFFF AND PUSH20 0xFFFFFFFFFFFFFFFFFFFFFFFFFFFFFFFFFFFFFFFF AND DUP2 MSTORE PUSH1 0x20 ADD SWAP1 DUP2 MSTORE PUSH1 0x20 ADD PUSH1 0x0 KECCAK256 PUSH1 0x0 PUSH2 0x100 EXP DUP2 SLOAD DUP2 PUSH1 0xFF MUL NOT AND SWAP1 DUP4 ISZERO ISZERO MUL OR SWAP1 SSTORE POP POP POP JUMP INVALID LOG1 PUSH6 0x627A7A723058 KECCAK256 BYTE 0xa7 0xbb 0xb0 0xdb PUSH32 0xF770DFFC78A844A495B2C87FBED8A954201A1B0A2AF59EE86F3C002900000000 "},"gasEstimates":{"creation":{"codeDepositCost":"843600","executionCost":"infinite","totalCost":"infinite"},"external":{"addMinter(address)":"infinite","allowance(address,address)":"814","approve(address,uint256)":"22502","balanceOf(address)":"624","cap()":"485","decreaseAllowance(address,uint256)":"infinite","increaseAllowance(address,uint256)":"infinite","isMinter(address)":"infinite","mint(address,uint256)":"infinite","renounceMinter()":"infinite","totalSupply()":"441","transfer(address,uint256)":"infinite","transferFrom(address,address,uint256)":"infinite"},"internal":{"_mint(address,uint256)":"infinite"}},"methodIdentifiers":{"addMinter(address)":"983b2d56","allowance(address,address)":"dd62ed3e","approve(address,uint256)":"095ea7b3","balanceOf(address)":"70a08231","cap()":"355274ea","decreaseAllowance(address,uint256)":"a457c2d7","increaseAllowance(address,uint256)":"39509351","isMinter(address)":"aa271e1a","mint(address,uint256)":"40c10f19","renounceMinter()":"98650275","totalSupply()":"18160ddd","transfer(address,uint256)":"a9059cbb","transferFrom(address,address,uint256)":"23b872dd"}},"userdoc":{"methods":{}}}