{"abi":[{"constant":true,"inputs":[{"name":"","type":"uint256"}],"name":"refundList","outputs":[{"name":"","type":"uint256"}],"payable":false,"stateMutability":"view","type":"function"},{"constant":true,"inputs":[],"name":"eraswapToken","outputs":[{"name":"","type":"address"}],"payable":false,"stateMutability":"view","type":"function"},{"constant":false,"inputs":[{"name":"size","type":"uint256"}],"name":"monthlyRefundHandler","outputs":[{"name":"","type":"uint256[]"},{"name":"","type":"uint256"}],"payable":false,"stateMutability":"nonpayable","type":"function"},{"constant":false,"inputs":[{"name":"contractid","type":"uint256"},{"name":"loanperiod","type":"uint32"},{"name":"loanamount","type":"uint128"}],"name":"addLoan","outputs":[{"name":"","type":"bool"}],"payable":false,"stateMutability":"nonpayable","type":"function"},{"constant":true,"inputs":[],"name":"timeAlly","outputs":[{"name":"","type":"address"}],"payable":false,"stateMutability":"view","type":"function"},{"constant":true,"inputs":[{"name":"","type":"uint256"}],"name":"loanList","outputs":[{"name":"","type":"uint256"}],"payable":false,"stateMutability":"view","type":"function"},{"constant":false,"inputs":[{"name":"contractid","type":"uint256"},{"name":"refundweeks","type":"uint32"},{"name":"refundcount","type":"uint32"},{"name":"refundamount","type":"uint64"}],"name":"addRefund","outputs":[{"name":"","type":"bool"}],"payable":false,"stateMutability":"nonpayable","type":"function"},{"constant":false,"inputs":[{"name":"contractid","type":"uint256"}],"name":"removeLoan","outputs":[{"name":"","type":"bool"}],"payable":false,"stateMutability":"nonpayable","type":"function"},{"constant":true,"inputs":[{"name":"contractid","type":"uint256"}],"name":"viewRefund","outputs":[{"name":"","type":"uint256"},{"name":"","type":"uint256"},{"name":"","type":"uint256"}],"payable":false,"stateMutability":"view","type":"function"},{"constant":true,"inputs":[{"name":"contractid","type":"uint256"}],"name":"viewLoan","outputs":[{"name":"","type":"uint256"},{"name":"","type":"uint256"},{"name":"","type":"uint256"}],"payable":false,"stateMutability":"view","type":"function"},{"constant":false,"inputs":[{"name":"size","type":"uint256"}],"name":"monthlyLoanHandler","outputs":[{"name":"","type":"uint256[]"},{"name":"","type":"uint256"}],"payable":false,"stateMutability":"nonpayable","type":"function"},{"constant":true,"inputs":[{"name":"","type":"uint256"}],"name":"loans","outputs":[{"name":"loanAmount","type":"uint128"},{"name":"loanPeriod","type":"uint32"},{"name":"loanStartTime","type":"uint32"},{"name":"loanListIndex","type":"uint32"}],"payable":false,"stateMutability":"view","type":"function"},{"constant":true,"inputs":[{"name":"","type":"uint256"}],"name":"refunds","outputs":[{"name":"refundWeeks","type":"uint32"},{"name":"refundCount","type":"uint32"},{"name":"refundListIndex","type":"uint32"},{"name":"refundAmount","type":"uint64"}],"payable":false,"stateMutability":"view","type":"function"},{"inputs":[{"name":"timeally","type":"address"},{"name":"_eraswapToken","type":"address"}],"payable":false,"stateMutability":"nonpayable","type":"constructor"},{"anonymous":false,"inputs":[{"indexed":false,"name":"contractid","type":"uint256"},{"indexed":false,"name":"count","type":"uint256"},{"indexed":false,"name":"amount","type":"uint256"}],"name":"RefundInitiated","type":"event"},{"anonymous":false,"inputs":[{"indexed":false,"name":"contractid","type":"uint256"}],"name":"RefundEnded","type":"event"},{"anonymous":false,"inputs":[{"indexed":false,"name":"contractid","type":"uint256"}],"name":"LoanDefaulted","type":"event"}],"devdoc":{"methods":{}},"evm":{"assembly":"    /* \"LoanAndRefund.sol\":75:6337  contract LoanAndRefund {... */\n  mstore(0x40, 0x80)\n    /* \"LoanAndRefund.sol\":1024:1176  constructor(address timeally, address _eraswapToken) public {... */\n  callvalue\n    /* \"--CODEGEN--\":8:17   */\n  dup1\n    /* \"--CODEGEN--\":5:7   */\n  iszero\n  tag_1\n  jumpi\n    /* \"--CODEGEN--\":30:31   */\n  0x00\n    /* \"--CODEGEN--\":27:28   */\n  dup1\n    /* \"--CODEGEN--\":20:32   */\n  revert\n    /* \"--CODEGEN--\":5:7   */\ntag_1:\n    /* \"LoanAndRefund.sol\":1024:1176  constructor(address timeally, address _eraswapToken) public {... */\n  pop\n  mload(0x40)\n  0x40\n  dup1\n  bytecodeSize\n  dup4\n  codecopy\n  dup2\n  add\n  dup1\n  0x40\n  mstore\n    /* \"--CODEGEN--\":13:15   */\n  0x40\n    /* \"--CODEGEN--\":8:11   */\n  dup2\n    /* \"--CODEGEN--\":5:16   */\n  lt\n    /* \"--CODEGEN--\":2:4   */\n  iszero\n  tag_2\n  jumpi\n    /* \"--CODEGEN--\":29:30   */\n  0x00\n    /* \"--CODEGEN--\":26:27   */\n  dup1\n    /* \"--CODEGEN--\":19:31   */\n  revert\n    /* \"--CODEGEN--\":2:4   */\ntag_2:\n    /* \"LoanAndRefund.sol\":1024:1176  constructor(address timeally, address _eraswapToken) public {... */\n  dup2\n  add\n  swap1\n  dup1\n  dup1\n  mload\n  swap1\n  0x20\n  add\n  swap1\n  swap3\n  swap2\n  swap1\n  dup1\n  mload\n  swap1\n  0x20\n  add\n  swap1\n  swap3\n  swap2\n  swap1\n  pop\n  pop\n  pop\n    /* \"LoanAndRefund.sol\":1105:1113  timeally */\n  dup2\n    /* \"LoanAndRefund.sol\":1094:1102  timeAlly */\n  0x06\n  0x00\n    /* \"LoanAndRefund.sol\":1094:1113  timeAlly = timeally */\n  0x0100\n  exp\n  dup2\n  sload\n  dup2\n  0xffffffffffffffffffffffffffffffffffffffff\n  mul\n  not\n  and\n  swap1\n  dup4\n  0xffffffffffffffffffffffffffffffffffffffff\n  and\n  mul\n  or\n  swap1\n  sstore\n  pop\n    /* \"LoanAndRefund.sol\":1146:1159  _eraswapToken */\n  dup1\n    /* \"LoanAndRefund.sol\":1123:1135  eraswapToken */\n  0x07\n  0x00\n    /* \"LoanAndRefund.sol\":1123:1160  eraswapToken = Eraswap(_eraswapToken) */\n  0x0100\n  exp\n  dup2\n  sload\n  dup2\n  0xffffffffffffffffffffffffffffffffffffffff\n  mul\n  not\n  and\n  swap1\n  dup4\n  0xffffffffffffffffffffffffffffffffffffffff\n  and\n  mul\n  or\n  swap1\n  sstore\n  pop\n    /* \"LoanAndRefund.sol\":1024:1176  constructor(address timeally, address _eraswapToken) public {... */\n  pop\n  pop\n    /* \"LoanAndRefund.sol\":75:6337  contract LoanAndRefund {... */\n  dataSize(sub_0)\n  dup1\n  dataOffset(sub_0)\n  0x00\n  codecopy\n  0x00\n  return\nstop\n\nsub_0: assembly {\n        /* \"LoanAndRefund.sol\":75:6337  contract LoanAndRefund {... */\n      mstore(0x40, 0x80)\n      callvalue\n        /* \"--CODEGEN--\":8:17   */\n      dup1\n        /* \"--CODEGEN--\":5:7   */\n      iszero\n      tag_1\n      jumpi\n        /* \"--CODEGEN--\":30:31   */\n      0x00\n        /* \"--CODEGEN--\":27:28   */\n      dup1\n        /* \"--CODEGEN--\":20:32   */\n      revert\n        /* \"--CODEGEN--\":5:7   */\n    tag_1:\n        /* \"LoanAndRefund.sol\":75:6337  contract LoanAndRefund {... */\n      pop\n      jumpi(tag_2, lt(calldatasize, 0x04))\n      calldataload(0x00)\n      0x0100000000000000000000000000000000000000000000000000000000\n      swap1\n      div\n      dup1\n      0x8796ce98\n      gt\n      tag_16\n      jumpi\n      dup1\n      0xd028aa62\n      gt\n      tag_17\n      jumpi\n      dup1\n      0xd028aa62\n      eq\n      tag_12\n      jumpi\n      dup1\n      0xd107a0fa\n      eq\n      tag_13\n      jumpi\n      dup1\n      0xe1ec3c68\n      eq\n      tag_14\n      jumpi\n      dup1\n      0xe36bd0f3\n      eq\n      tag_15\n      jumpi\n      jump(tag_2)\n    tag_17:\n      dup1\n      0x8796ce98\n      eq\n      tag_9\n      jumpi\n      dup1\n      0xa8818cf1\n      eq\n      tag_10\n      jumpi\n      dup1\n      0xccc2512b\n      eq\n      tag_11\n      jumpi\n      jump(tag_2)\n    tag_16:\n      dup1\n      0x16503e61\n      eq\n      tag_3\n      jumpi\n      dup1\n      0x2cdb8cc6\n      eq\n      tag_4\n      jumpi\n      dup1\n      0x46514268\n      eq\n      tag_5\n      jumpi\n      dup1\n      0x59e0bb01\n      eq\n      tag_6\n      jumpi\n      dup1\n      0x682667a9\n      eq\n      tag_7\n      jumpi\n      dup1\n      0x7621710c\n      eq\n      tag_8\n      jumpi\n    tag_2:\n      0x00\n      dup1\n      revert\n        /* \"LoanAndRefund.sol\":515:542  uint256[] public refundList */\n    tag_3:\n      tag_18\n      0x04\n      dup1\n      calldatasize\n      sub\n        /* \"--CODEGEN--\":13:15   */\n      0x20\n        /* \"--CODEGEN--\":8:11   */\n      dup2\n        /* \"--CODEGEN--\":5:16   */\n      lt\n        /* \"--CODEGEN--\":2:4   */\n      iszero\n      tag_19\n      jumpi\n        /* \"--CODEGEN--\":29:30   */\n      0x00\n        /* \"--CODEGEN--\":26:27   */\n      dup1\n        /* \"--CODEGEN--\":19:31   */\n      revert\n        /* \"--CODEGEN--\":2:4   */\n    tag_19:\n        /* \"LoanAndRefund.sol\":515:542  uint256[] public refundList */\n      dup2\n      add\n      swap1\n      dup1\n      dup1\n      calldataload\n      swap1\n      0x20\n      add\n      swap1\n      swap3\n      swap2\n      swap1\n      pop\n      pop\n      pop\n      tag_20\n      jump\t// in\n    tag_18:\n      mload(0x40)\n      dup1\n      dup3\n      dup2\n      mstore\n      0x20\n      add\n      swap2\n      pop\n      pop\n      mload(0x40)\n      dup1\n      swap2\n      sub\n      swap1\n      return\n        /* \"LoanAndRefund.sol\":864:891  Eraswap public eraswapToken */\n    tag_4:\n      tag_21\n      tag_22\n      jump\t// in\n    tag_21:\n      mload(0x40)\n      dup1\n      dup3\n      0xffffffffffffffffffffffffffffffffffffffff\n      and\n      0xffffffffffffffffffffffffffffffffffffffff\n      and\n      dup2\n      mstore\n      0x20\n      add\n      swap2\n      pop\n      pop\n      mload(0x40)\n      dup1\n      swap2\n      sub\n      swap1\n      return\n        /* \"LoanAndRefund.sol\":3497:4878  function monthlyRefundHandler(uint256 size)... */\n    tag_5:\n      tag_23\n      0x04\n      dup1\n      calldatasize\n      sub\n        /* \"--CODEGEN--\":13:15   */\n      0x20\n        /* \"--CODEGEN--\":8:11   */\n      dup2\n        /* \"--CODEGEN--\":5:16   */\n      lt\n        /* \"--CODEGEN--\":2:4   */\n      iszero\n      tag_24\n      jumpi\n        /* \"--CODEGEN--\":29:30   */\n      0x00\n        /* \"--CODEGEN--\":26:27   */\n      dup1\n        /* \"--CODEGEN--\":19:31   */\n      revert\n        /* \"--CODEGEN--\":2:4   */\n    tag_24:\n        /* \"LoanAndRefund.sol\":3497:4878  function monthlyRefundHandler(uint256 size)... */\n      dup2\n      add\n      swap1\n      dup1\n      dup1\n      calldataload\n      swap1\n      0x20\n      add\n      swap1\n      swap3\n      swap2\n      swap1\n      pop\n      pop\n      pop\n      tag_25\n      jump\t// in\n    tag_23:\n      mload(0x40)\n      dup1\n      dup1\n      0x20\n      add\n      dup4\n      dup2\n      mstore\n      0x20\n      add\n      dup3\n      dup2\n      sub\n      dup3\n      mstore\n      dup5\n      dup2\n      dup2\n      mload\n      dup2\n      mstore\n      0x20\n      add\n      swap2\n      pop\n      dup1\n      mload\n      swap1\n      0x20\n      add\n      swap1\n      0x20\n      mul\n      dup1\n      dup4\n      dup4\n        /* \"--CODEGEN--\":23:24   */\n      0x00\n        /* \"--CODEGEN--\":8:108   */\n    tag_26:\n        /* \"--CODEGEN--\":33:36   */\n      dup4\n        /* \"--CODEGEN--\":30:31   */\n      dup2\n        /* \"--CODEGEN--\":27:37   */\n      lt\n        /* \"--CODEGEN--\":8:108   */\n      iszero\n      tag_27\n      jumpi\n        /* \"--CODEGEN--\":99:100   */\n      dup1\n        /* \"--CODEGEN--\":94:97   */\n      dup3\n        /* \"--CODEGEN--\":90:101   */\n      add\n        /* \"--CODEGEN--\":84:102   */\n      mload\n        /* \"--CODEGEN--\":80:81   */\n      dup2\n        /* \"--CODEGEN--\":75:78   */\n      dup5\n        /* \"--CODEGEN--\":71:82   */\n      add\n        /* \"--CODEGEN--\":64:103   */\n      mstore\n        /* \"--CODEGEN--\":52:54   */\n      0x20\n        /* \"--CODEGEN--\":49:50   */\n      dup2\n        /* \"--CODEGEN--\":45:55   */\n      add\n        /* \"--CODEGEN--\":40:55   */\n      swap1\n      pop\n        /* \"--CODEGEN--\":8:108   */\n      jump(tag_26)\n    tag_27:\n        /* \"--CODEGEN--\":12:26   */\n      pop\n        /* \"LoanAndRefund.sol\":3497:4878  function monthlyRefundHandler(uint256 size)... */\n      pop\n      pop\n      pop\n      swap1\n      pop\n      add\n      swap4\n      pop\n      pop\n      pop\n      pop\n      mload(0x40)\n      dup1\n      swap2\n      sub\n      swap1\n      return\n        /* \"LoanAndRefund.sol\":1182:1661  function addLoan(... */\n    tag_6:\n      tag_29\n      0x04\n      dup1\n      calldatasize\n      sub\n        /* \"--CODEGEN--\":13:15   */\n      0x60\n        /* \"--CODEGEN--\":8:11   */\n      dup2\n        /* \"--CODEGEN--\":5:16   */\n      lt\n        /* \"--CODEGEN--\":2:4   */\n      iszero\n      tag_30\n      jumpi\n        /* \"--CODEGEN--\":29:30   */\n      0x00\n        /* \"--CODEGEN--\":26:27   */\n      dup1\n        /* \"--CODEGEN--\":19:31   */\n      revert\n        /* \"--CODEGEN--\":2:4   */\n    tag_30:\n        /* \"LoanAndRefund.sol\":1182:1661  function addLoan(... */\n      dup2\n      add\n      swap1\n      dup1\n      dup1\n      calldataload\n      swap1\n      0x20\n      add\n      swap1\n      swap3\n      swap2\n      swap1\n      dup1\n      calldataload\n      0xffffffff\n      and\n      swap1\n      0x20\n      add\n      swap1\n      swap3\n      swap2\n      swap1\n      dup1\n      calldataload\n      0xffffffffffffffffffffffffffffffff\n      and\n      swap1\n      0x20\n      add\n      swap1\n      swap3\n      swap2\n      swap1\n      pop\n      pop\n      pop\n      tag_31\n      jump\t// in\n    tag_29:\n      mload(0x40)\n      dup1\n      dup3\n      iszero\n      iszero\n      iszero\n      iszero\n      dup2\n      mstore\n      0x20\n      add\n      swap2\n      pop\n      pop\n      mload(0x40)\n      dup1\n      swap2\n      sub\n      swap1\n      return\n        /* \"LoanAndRefund.sol\":663:686  address public timeAlly */\n    tag_7:\n      tag_32\n      tag_33\n      jump\t// in\n    tag_32:\n      mload(0x40)\n      dup1\n      dup3\n      0xffffffffffffffffffffffffffffffffffffffff\n      and\n      0xffffffffffffffffffffffffffffffffffffffff\n      and\n      dup2\n      mstore\n      0x20\n      add\n      swap2\n      pop\n      pop\n      mload(0x40)\n      dup1\n      swap2\n      sub\n      swap1\n      return\n        /* \"LoanAndRefund.sol\":548:573  uint256[] public loanList */\n    tag_8:\n      tag_34\n      0x04\n      dup1\n      calldatasize\n      sub\n        /* \"--CODEGEN--\":13:15   */\n      0x20\n        /* \"--CODEGEN--\":8:11   */\n      dup2\n        /* \"--CODEGEN--\":5:16   */\n      lt\n        /* \"--CODEGEN--\":2:4   */\n      iszero\n      tag_35\n      jumpi\n        /* \"--CODEGEN--\":29:30   */\n      0x00\n        /* \"--CODEGEN--\":26:27   */\n      dup1\n        /* \"--CODEGEN--\":19:31   */\n      revert\n        /* \"--CODEGEN--\":2:4   */\n    tag_35:\n        /* \"LoanAndRefund.sol\":548:573  uint256[] public loanList */\n      dup2\n      add\n      swap1\n      dup1\n      dup1\n      calldataload\n      swap1\n      0x20\n      add\n      swap1\n      swap3\n      swap2\n      swap1\n      pop\n      pop\n      pop\n      tag_36\n      jump\t// in\n    tag_34:\n      mload(0x40)\n      dup1\n      dup3\n      dup2\n      mstore\n      0x20\n      add\n      swap2\n      pop\n      pop\n      mload(0x40)\n      dup1\n      swap2\n      sub\n      swap1\n      return\n        /* \"LoanAndRefund.sol\":1880:2381  function addRefund(... */\n    tag_9:\n      tag_37\n      0x04\n      dup1\n      calldatasize\n      sub\n        /* \"--CODEGEN--\":13:16   */\n      0x80\n        /* \"--CODEGEN--\":8:11   */\n      dup2\n        /* \"--CODEGEN--\":5:17   */\n      lt\n        /* \"--CODEGEN--\":2:4   */\n      iszero\n      tag_38\n      jumpi\n        /* \"--CODEGEN--\":30:31   */\n      0x00\n        /* \"--CODEGEN--\":27:28   */\n      dup1\n        /* \"--CODEGEN--\":20:32   */\n      revert\n        /* \"--CODEGEN--\":2:4   */\n    tag_38:\n        /* \"LoanAndRefund.sol\":1880:2381  function addRefund(... */\n      dup2\n      add\n      swap1\n      dup1\n      dup1\n      calldataload\n      swap1\n      0x20\n      add\n      swap1\n      swap3\n      swap2\n      swap1\n      dup1\n      calldataload\n      0xffffffff\n      and\n      swap1\n      0x20\n      add\n      swap1\n      swap3\n      swap2\n      swap1\n      dup1\n      calldataload\n      0xffffffff\n      and\n      swap1\n      0x20\n      add\n      swap1\n      swap3\n      swap2\n      swap1\n      dup1\n      calldataload\n      0xffffffffffffffff\n      and\n      swap1\n      0x20\n      add\n      swap1\n      swap3\n      swap2\n      swap1\n      pop\n      pop\n      pop\n      tag_39\n      jump\t// in\n    tag_37:\n      mload(0x40)\n      dup1\n      dup3\n      iszero\n      iszero\n      iszero\n      iszero\n      dup2\n      mstore\n      0x20\n      add\n      swap2\n      pop\n      pop\n      mload(0x40)\n      dup1\n      swap2\n      sub\n      swap1\n      return\n        /* \"LoanAndRefund.sol\":1667:1874  function removeLoan(uint256 contractid)... */\n    tag_10:\n      tag_40\n      0x04\n      dup1\n      calldatasize\n      sub\n        /* \"--CODEGEN--\":13:15   */\n      0x20\n        /* \"--CODEGEN--\":8:11   */\n      dup2\n        /* \"--CODEGEN--\":5:16   */\n      lt\n        /* \"--CODEGEN--\":2:4   */\n      iszero\n      tag_41\n      jumpi\n        /* \"--CODEGEN--\":29:30   */\n      0x00\n        /* \"--CODEGEN--\":26:27   */\n      dup1\n        /* \"--CODEGEN--\":19:31   */\n      revert\n        /* \"--CODEGEN--\":2:4   */\n    tag_41:\n        /* \"LoanAndRefund.sol\":1667:1874  function removeLoan(uint256 contractid)... */\n      dup2\n      add\n      swap1\n      dup1\n      dup1\n      calldataload\n      swap1\n      0x20\n      add\n      swap1\n      swap3\n      swap2\n      swap1\n      pop\n      pop\n      pop\n      tag_42\n      jump\t// in\n    tag_40:\n      mload(0x40)\n      dup1\n      dup3\n      iszero\n      iszero\n      iszero\n      iszero\n      dup2\n      mstore\n      0x20\n      add\n      swap2\n      pop\n      pop\n      mload(0x40)\n      dup1\n      swap2\n      sub\n      swap1\n      return\n        /* \"LoanAndRefund.sol\":5271:5656  function viewRefund(uint256 contractid)... */\n    tag_11:\n      tag_43\n      0x04\n      dup1\n      calldatasize\n      sub\n        /* \"--CODEGEN--\":13:15   */\n      0x20\n        /* \"--CODEGEN--\":8:11   */\n      dup2\n        /* \"--CODEGEN--\":5:16   */\n      lt\n        /* \"--CODEGEN--\":2:4   */\n      iszero\n      tag_44\n      jumpi\n        /* \"--CODEGEN--\":29:30   */\n      0x00\n        /* \"--CODEGEN--\":26:27   */\n      dup1\n        /* \"--CODEGEN--\":19:31   */\n      revert\n        /* \"--CODEGEN--\":2:4   */\n    tag_44:\n        /* \"LoanAndRefund.sol\":5271:5656  function viewRefund(uint256 contractid)... */\n      dup2\n      add\n      swap1\n      dup1\n      dup1\n      calldataload\n      swap1\n      0x20\n      add\n      swap1\n      swap3\n      swap2\n      swap1\n      pop\n      pop\n      pop\n      tag_45\n      jump\t// in\n    tag_43:\n      mload(0x40)\n      dup1\n      dup5\n      dup2\n      mstore\n      0x20\n      add\n      dup4\n      dup2\n      mstore\n      0x20\n      add\n      dup3\n      dup2\n      mstore\n      0x20\n      add\n      swap4\n      pop\n      pop\n      pop\n      pop\n      mload(0x40)\n      dup1\n      swap2\n      sub\n      swap1\n      return\n        /* \"LoanAndRefund.sol\":4884:5265  function viewLoan(uint256 contractid)... */\n    tag_12:\n      tag_46\n      0x04\n      dup1\n      calldatasize\n      sub\n        /* \"--CODEGEN--\":13:15   */\n      0x20\n        /* \"--CODEGEN--\":8:11   */\n      dup2\n        /* \"--CODEGEN--\":5:16   */\n      lt\n        /* \"--CODEGEN--\":2:4   */\n      iszero\n      tag_47\n      jumpi\n        /* \"--CODEGEN--\":29:30   */\n      0x00\n        /* \"--CODEGEN--\":26:27   */\n      dup1\n        /* \"--CODEGEN--\":19:31   */\n      revert\n        /* \"--CODEGEN--\":2:4   */\n    tag_47:\n        /* \"LoanAndRefund.sol\":4884:5265  function viewLoan(uint256 contractid)... */\n      dup2\n      add\n      swap1\n      dup1\n      dup1\n      calldataload\n      swap1\n      0x20\n      add\n      swap1\n      swap3\n      swap2\n      swap1\n      pop\n      pop\n      pop\n      tag_48\n      jump\t// in\n    tag_46:\n      mload(0x40)\n      dup1\n      dup5\n      dup2\n      mstore\n      0x20\n      add\n      dup4\n      dup2\n      mstore\n      0x20\n      add\n      dup3\n      dup2\n      mstore\n      0x20\n      add\n      swap4\n      pop\n      pop\n      pop\n      pop\n      mload(0x40)\n      dup1\n      swap2\n      sub\n      swap1\n      return\n        /* \"LoanAndRefund.sol\":2387:3491  function monthlyLoanHandler(uint256 size)... */\n    tag_13:\n      tag_49\n      0x04\n      dup1\n      calldatasize\n      sub\n        /* \"--CODEGEN--\":13:15   */\n      0x20\n        /* \"--CODEGEN--\":8:11   */\n      dup2\n        /* \"--CODEGEN--\":5:16   */\n      lt\n        /* \"--CODEGEN--\":2:4   */\n      iszero\n      tag_50\n      jumpi\n        /* \"--CODEGEN--\":29:30   */\n      0x00\n        /* \"--CODEGEN--\":26:27   */\n      dup1\n        /* \"--CODEGEN--\":19:31   */\n      revert\n        /* \"--CODEGEN--\":2:4   */\n    tag_50:\n        /* \"LoanAndRefund.sol\":2387:3491  function monthlyLoanHandler(uint256 size)... */\n      dup2\n      add\n      swap1\n      dup1\n      dup1\n      calldataload\n      swap1\n      0x20\n      add\n      swap1\n      swap3\n      swap2\n      swap1\n      pop\n      pop\n      pop\n      tag_51\n      jump\t// in\n    tag_49:\n      mload(0x40)\n      dup1\n      dup1\n      0x20\n      add\n      dup4\n      dup2\n      mstore\n      0x20\n      add\n      dup3\n      dup2\n      sub\n      dup3\n      mstore\n      dup5\n      dup2\n      dup2\n      mload\n      dup2\n      mstore\n      0x20\n      add\n      swap2\n      pop\n      dup1\n      mload\n      swap1\n      0x20\n      add\n      swap1\n      0x20\n      mul\n      dup1\n      dup4\n      dup4\n        /* \"--CODEGEN--\":23:24   */\n      0x00\n        /* \"--CODEGEN--\":8:108   */\n    tag_52:\n        /* \"--CODEGEN--\":33:36   */\n      dup4\n        /* \"--CODEGEN--\":30:31   */\n      dup2\n        /* \"--CODEGEN--\":27:37   */\n      lt\n        /* \"--CODEGEN--\":8:108   */\n      iszero\n      tag_53\n      jumpi\n        /* \"--CODEGEN--\":99:100   */\n      dup1\n        /* \"--CODEGEN--\":94:97   */\n      dup3\n        /* \"--CODEGEN--\":90:101   */\n      add\n        /* \"--CODEGEN--\":84:102   */\n      mload\n        /* \"--CODEGEN--\":80:81   */\n      dup2\n        /* \"--CODEGEN--\":75:78   */\n      dup5\n        /* \"--CODEGEN--\":71:82   */\n      add\n        /* \"--CODEGEN--\":64:103   */\n      mstore\n        /* \"--CODEGEN--\":52:54   */\n      0x20\n        /* \"--CODEGEN--\":49:50   */\n      dup2\n        /* \"--CODEGEN--\":45:55   */\n      add\n        /* \"--CODEGEN--\":40:55   */\n      swap1\n      pop\n        /* \"--CODEGEN--\":8:108   */\n      jump(tag_52)\n    tag_53:\n        /* \"--CODEGEN--\":12:26   */\n      pop\n        /* \"LoanAndRefund.sol\":2387:3491  function monthlyLoanHandler(uint256 size)... */\n      pop\n      pop\n      pop\n      swap1\n      pop\n      add\n      swap4\n      pop\n      pop\n      pop\n      pop\n      mload(0x40)\n      dup1\n      swap2\n      sub\n      swap1\n      return\n        /* \"LoanAndRefund.sol\":277:315  mapping (uint256 => Loan) public loans */\n    tag_14:\n      tag_55\n      0x04\n      dup1\n      calldatasize\n      sub\n        /* \"--CODEGEN--\":13:15   */\n      0x20\n        /* \"--CODEGEN--\":8:11   */\n      dup2\n        /* \"--CODEGEN--\":5:16   */\n      lt\n        /* \"--CODEGEN--\":2:4   */\n      iszero\n      tag_56\n      jumpi\n        /* \"--CODEGEN--\":29:30   */\n      0x00\n        /* \"--CODEGEN--\":26:27   */\n      dup1\n        /* \"--CODEGEN--\":19:31   */\n      revert\n        /* \"--CODEGEN--\":2:4   */\n    tag_56:\n        /* \"LoanAndRefund.sol\":277:315  mapping (uint256 => Loan) public loans */\n      dup2\n      add\n      swap1\n      dup1\n      dup1\n      calldataload\n      swap1\n      0x20\n      add\n      swap1\n      swap3\n      swap2\n      swap1\n      pop\n      pop\n      pop\n      tag_57\n      jump\t// in\n    tag_55:\n      mload(0x40)\n      dup1\n      dup6\n      0xffffffffffffffffffffffffffffffff\n      and\n      0xffffffffffffffffffffffffffffffff\n      and\n      dup2\n      mstore\n      0x20\n      add\n      dup5\n      0xffffffff\n      and\n      0xffffffff\n      and\n      dup2\n      mstore\n      0x20\n      add\n      dup4\n      0xffffffff\n      and\n      0xffffffff\n      and\n      dup2\n      mstore\n      0x20\n      add\n      dup3\n      0xffffffff\n      and\n      0xffffffff\n      and\n      dup2\n      mstore\n      0x20\n      add\n      swap5\n      pop\n      pop\n      pop\n      pop\n      pop\n      mload(0x40)\n      dup1\n      swap2\n      sub\n      swap1\n      return\n        /* \"LoanAndRefund.sol\":466:508  mapping (uint256 => Refund) public refunds */\n    tag_15:\n      tag_58\n      0x04\n      dup1\n      calldatasize\n      sub\n        /* \"--CODEGEN--\":13:15   */\n      0x20\n        /* \"--CODEGEN--\":8:11   */\n      dup2\n        /* \"--CODEGEN--\":5:16   */\n      lt\n        /* \"--CODEGEN--\":2:4   */\n      iszero\n      tag_59\n      jumpi\n        /* \"--CODEGEN--\":29:30   */\n      0x00\n        /* \"--CODEGEN--\":26:27   */\n      dup1\n        /* \"--CODEGEN--\":19:31   */\n      revert\n        /* \"--CODEGEN--\":2:4   */\n    tag_59:\n        /* \"LoanAndRefund.sol\":466:508  mapping (uint256 => Refund) public refunds */\n      dup2\n      add\n      swap1\n      dup1\n      dup1\n      calldataload\n      swap1\n      0x20\n      add\n      swap1\n      swap3\n      swap2\n      swap1\n      pop\n      pop\n      pop\n      tag_60\n      jump\t// in\n    tag_58:\n      mload(0x40)\n      dup1\n      dup6\n      0xffffffff\n      and\n      0xffffffff\n      and\n      dup2\n      mstore\n      0x20\n      add\n      dup5\n      0xffffffff\n      and\n      0xffffffff\n      and\n      dup2\n      mstore\n      0x20\n      add\n      dup4\n      0xffffffff\n      and\n      0xffffffff\n      and\n      dup2\n      mstore\n      0x20\n      add\n      dup3\n      0xffffffffffffffff\n      and\n      0xffffffffffffffff\n      and\n      dup2\n      mstore\n      0x20\n      add\n      swap5\n      pop\n      pop\n      pop\n      pop\n      pop\n      mload(0x40)\n      dup1\n      swap2\n      sub\n      swap1\n      return\n        /* \"LoanAndRefund.sol\":515:542  uint256[] public refundList */\n    tag_20:\n      0x02\n      dup2\n      dup2\n      sload\n      dup2\n      lt\n      iszero\n      iszero\n      tag_61\n      jumpi\n      invalid\n    tag_61:\n      swap1\n      0x00\n      mstore\n      keccak256(0x00, 0x20)\n      add\n      0x00\n      swap2\n      pop\n      swap1\n      pop\n      sload\n      dup2\n      jump\t// out\n        /* \"LoanAndRefund.sol\":864:891  Eraswap public eraswapToken */\n    tag_22:\n      0x07\n      0x00\n      swap1\n      sload\n      swap1\n      0x0100\n      exp\n      swap1\n      div\n      0xffffffffffffffffffffffffffffffffffffffff\n      and\n      dup2\n      jump\t// out\n        /* \"LoanAndRefund.sol\":3497:4878  function monthlyRefundHandler(uint256 size)... */\n    tag_25:\n        /* \"LoanAndRefund.sol\":3610:3623  uint[] memory */\n      0x60\n        /* \"LoanAndRefund.sol\":3637:3641  uint */\n      0x00\n        /* \"LoanAndRefund.sol\":955:963  timeAlly */\n      0x06\n      0x00\n      swap1\n      sload\n      swap1\n      0x0100\n      exp\n      swap1\n      div\n      0xffffffffffffffffffffffffffffffffffffffff\n      and\n        /* \"LoanAndRefund.sol\":941:963  msg.sender == timeAlly */\n      0xffffffffffffffffffffffffffffffffffffffff\n      and\n        /* \"LoanAndRefund.sol\":941:951  msg.sender */\n      caller\n        /* \"LoanAndRefund.sol\":941:963  msg.sender == timeAlly */\n      0xffffffffffffffffffffffffffffffffffffffff\n      and\n      eq\n        /* \"LoanAndRefund.sol\":933:1000  require(msg.sender == timeAlly, \"Owner TimeAlly should be calling\") */\n      iszero\n      iszero\n      tag_64\n      jumpi\n      mload(0x40)\n      0x08c379a000000000000000000000000000000000000000000000000000000000\n      dup2\n      mstore\n      0x04\n      add\n      dup1\n      dup1\n      0x20\n      add\n      dup3\n      dup2\n      sub\n      dup3\n      mstore\n      0x20\n      dup2\n      mstore\n      0x20\n      add\n      dup1\n      0x4f776e65722054696d65416c6c792073686f756c642062652063616c6c696e67\n      dup2\n      mstore\n      pop\n      0x20\n      add\n      swap2\n      pop\n      pop\n      mload(0x40)\n      dup1\n      swap2\n      sub\n      swap1\n      revert\n    tag_64:\n        /* \"LoanAndRefund.sol\":3657:3685  uint256[] memory userPayment */\n      0x60\n        /* \"LoanAndRefund.sol\":3695:3712  uint256 character */\n      0x00\n        /* \"LoanAndRefund.sol\":3722:3742  Refund memory refund */\n      tag_66\n      tag_67\n      jump\t// in\n    tag_66:\n        /* \"LoanAndRefund.sol\":3752:3761  uint256 i */\n      0x00\n        /* \"LoanAndRefund.sol\":3764:3785  refundListUpdateCount */\n      sload(0x04)\n        /* \"LoanAndRefund.sol\":3752:3785  uint256 i = refundListUpdateCount */\n      swap1\n      pop\n        /* \"LoanAndRefund.sol\":3795:3808  uint256 limit */\n      0x00\n        /* \"LoanAndRefund.sol\":3837:3847  refundList */\n      0x02\n        /* \"LoanAndRefund.sol\":3837:3854  refundList.length */\n      dup1\n      sload\n      swap1\n      pop\n        /* \"LoanAndRefund.sol\":3822:3833  i.add(size) */\n      tag_68\n        /* \"LoanAndRefund.sol\":3828:3832  size */\n      dup10\n        /* \"LoanAndRefund.sol\":3822:3823  i */\n      dup5\n        /* \"LoanAndRefund.sol\":3822:3827  i.add */\n      tag_69\n      swap1\n        /* \"LoanAndRefund.sol\":3822:3833  i.add(size) */\n      swap2\n      swap1\n      0xffffffff\n      and\n      jump\t// in\n    tag_68:\n        /* \"LoanAndRefund.sol\":3822:3854  i.add(size) >= refundList.length */\n      lt\n      iszero\n        /* \"LoanAndRefund.sol\":3818:3955  if (i.add(size) >= refundList.length) {... */\n      iszero\n      tag_70\n      jumpi\n        /* \"LoanAndRefund.sol\":3878:3888  refundList */\n      0x02\n        /* \"LoanAndRefund.sol\":3878:3895  refundList.length */\n      dup1\n      sload\n      swap1\n      pop\n        /* \"LoanAndRefund.sol\":3870:3895  limit = refundList.length */\n      swap1\n      pop\n        /* \"LoanAndRefund.sol\":3818:3955  if (i.add(size) >= refundList.length) {... */\n      jump(tag_71)\n    tag_70:\n        /* \"LoanAndRefund.sol\":3933:3944  i.add(size) */\n      tag_72\n        /* \"LoanAndRefund.sol\":3939:3943  size */\n      dup9\n        /* \"LoanAndRefund.sol\":3933:3934  i */\n      dup4\n        /* \"LoanAndRefund.sol\":3933:3938  i.add */\n      tag_69\n      swap1\n        /* \"LoanAndRefund.sol\":3933:3944  i.add(size) */\n      swap2\n      swap1\n      0xffffffff\n      and\n      jump\t// in\n    tag_72:\n        /* \"LoanAndRefund.sol\":3925:3944  limit = i.add(size) */\n      swap1\n      pop\n        /* \"LoanAndRefund.sol\":3818:3955  if (i.add(size) >= refundList.length) {... */\n    tag_71:\n        /* \"LoanAndRefund.sol\":3964:4663  while (i < limit) {... */\n    tag_73:\n        /* \"LoanAndRefund.sol\":3975:3980  limit */\n      dup1\n        /* \"LoanAndRefund.sol\":3971:3972  i */\n      dup3\n        /* \"LoanAndRefund.sol\":3971:3980  i < limit */\n      lt\n        /* \"LoanAndRefund.sol\":3964:4663  while (i < limit) {... */\n      iszero\n      tag_74\n      jumpi\n        /* \"LoanAndRefund.sol\":3996:4014  uint256 contractid */\n      0x00\n        /* \"LoanAndRefund.sol\":4017:4027  refundList */\n      0x02\n        /* \"LoanAndRefund.sol\":4028:4029  i */\n      dup4\n        /* \"LoanAndRefund.sol\":4017:4030  refundList[i] */\n      dup2\n      sload\n      dup2\n      lt\n      iszero\n      iszero\n      tag_75\n      jumpi\n      invalid\n    tag_75:\n      swap1\n      0x00\n      mstore\n      keccak256(0x00, 0x20)\n      add\n      sload\n        /* \"LoanAndRefund.sol\":3996:4030  uint256 contractid = refundList[i] */\n      swap1\n      pop\n        /* \"LoanAndRefund.sol\":4053:4060  refunds */\n      0x01\n        /* \"LoanAndRefund.sol\":4053:4072  refunds[contractid] */\n      0x00\n        /* \"LoanAndRefund.sol\":4061:4071  contractid */\n      dup3\n        /* \"LoanAndRefund.sol\":4053:4072  refunds[contractid] */\n      dup2\n      mstore\n      0x20\n      add\n      swap1\n      dup2\n      mstore\n      0x20\n      add\n      0x00\n      keccak256\n        /* \"LoanAndRefund.sol\":4044:4072  refund = refunds[contractid] */\n      0x80\n      mload(0x40)\n      swap1\n      dup2\n      add\n      0x40\n      mstore\n      swap1\n      dup2\n      0x00\n      dup3\n      add\n      0x00\n      swap1\n      sload\n      swap1\n      0x0100\n      exp\n      swap1\n      div\n      0xffffffff\n      and\n      0xffffffff\n      and\n      0xffffffff\n      and\n      dup2\n      mstore\n      0x20\n      add\n      0x00\n      dup3\n      add\n      0x04\n      swap1\n      sload\n      swap1\n      0x0100\n      exp\n      swap1\n      div\n      0xffffffff\n      and\n      0xffffffff\n      and\n      0xffffffff\n      and\n      dup2\n      mstore\n      0x20\n      add\n      0x00\n      dup3\n      add\n      0x08\n      swap1\n      sload\n      swap1\n      0x0100\n      exp\n      swap1\n      div\n      0xffffffff\n      and\n      0xffffffff\n      and\n      0xffffffff\n      and\n      dup2\n      mstore\n      0x20\n      add\n      0x00\n      dup3\n      add\n      0x0c\n      swap1\n      sload\n      swap1\n      0x0100\n      exp\n      swap1\n      div\n      0xffffffffffffffff\n      and\n      0xffffffffffffffff\n      and\n      0xffffffffffffffff\n      and\n      dup2\n      mstore\n      pop\n      pop\n      swap4\n      pop\n        /* \"LoanAndRefund.sol\":4098:4108  contractid */\n      dup1\n        /* \"LoanAndRefund.sol\":4086:4108  character = contractid */\n      swap5\n      pop\n        /* \"LoanAndRefund.sol\":4156:4159  128 */\n      0x80\n        /* \"LoanAndRefund.sol\":4135:4141  refund */\n      dup5\n        /* \"LoanAndRefund.sol\":4135:4154  refund.refundAmount */\n      0x60\n      add\n      mload\n        /* \"LoanAndRefund.sol\":4135:4159  refund.refundAmount<<128 */\n      0xffffffffffffffff\n      and\n      swap1\n      0x02\n      exp\n      mul\n        /* \"LoanAndRefund.sol\":4122:4159  character |= refund.refundAmount<<128 */\n      0xffffffffffffffff\n      and\n      dup6\n      or\n      swap5\n      pop\n        /* \"LoanAndRefund.sol\":4207:4216  character */\n      dup5\n        /* \"LoanAndRefund.sol\":4173:4184  userPayment */\n      dup7\n        /* \"LoanAndRefund.sol\":4185:4196  userPayment */\n      dup8\n        /* \"LoanAndRefund.sol\":4185:4203  userPayment.length */\n      mload\n        /* \"LoanAndRefund.sol\":4173:4204  userPayment[userPayment.length] */\n      dup2\n      mload\n      dup2\n      lt\n      iszero\n      iszero\n      tag_77\n      jumpi\n      invalid\n    tag_77:\n      swap1\n      0x20\n      add\n      swap1\n      0x20\n      mul\n      add\n        /* \"LoanAndRefund.sol\":4173:4216  userPayment[userPayment.length] = character */\n      dup2\n      dup2\n      mstore\n      pop\n      pop\n        /* \"LoanAndRefund.sol\":4235:4303  RefundInitiated(contractid, refund.refundCount, refund.refundAmount) */\n      0xe23275393c32ee6d4b10b72e5ff7c46995381da1e2e44394ed3977a6311ce61d\n        /* \"LoanAndRefund.sol\":4251:4261  contractid */\n      dup2\n        /* \"LoanAndRefund.sol\":4263:4269  refund */\n      dup6\n        /* \"LoanAndRefund.sol\":4263:4281  refund.refundCount */\n      0x20\n      add\n      mload\n        /* \"LoanAndRefund.sol\":4283:4289  refund */\n      dup7\n        /* \"LoanAndRefund.sol\":4283:4302  refund.refundAmount */\n      0x60\n      add\n      mload\n        /* \"LoanAndRefund.sol\":4235:4303  RefundInitiated(contractid, refund.refundCount, refund.refundAmount) */\n      mload(0x40)\n      dup1\n      dup5\n      dup2\n      mstore\n      0x20\n      add\n      dup4\n      0xffffffff\n      and\n      dup2\n      mstore\n      0x20\n      add\n      dup3\n      0xffffffffffffffff\n      and\n      dup2\n      mstore\n      0x20\n      add\n      swap4\n      pop\n      pop\n      pop\n      pop\n      mload(0x40)\n      dup1\n      swap2\n      sub\n      swap1\n      log1\n        /* \"LoanAndRefund.sol\":4317:4323  refund */\n      dup4\n        /* \"LoanAndRefund.sol\":4317:4335  refund.refundCount */\n      0x20\n      add\n        /* \"LoanAndRefund.sol\":4317:4337  refund.refundCount++ */\n      dup1\n      mload\n      dup1\n      swap2\n      swap1\n      0x01\n      add\n      0xffffffff\n      and\n      0xffffffff\n      and\n      dup2\n      mstore\n      pop\n      pop\n        /* \"LoanAndRefund.sol\":4373:4379  refund */\n      dup4\n        /* \"LoanAndRefund.sol\":4351:4358  refunds */\n      0x01\n        /* \"LoanAndRefund.sol\":4351:4370  refunds[contractid] */\n      0x00\n        /* \"LoanAndRefund.sol\":4359:4369  contractid */\n      dup4\n        /* \"LoanAndRefund.sol\":4351:4370  refunds[contractid] */\n      dup2\n      mstore\n      0x20\n      add\n      swap1\n      dup2\n      mstore\n      0x20\n      add\n      0x00\n      keccak256\n        /* \"LoanAndRefund.sol\":4351:4379  refunds[contractid] = refund */\n      0x00\n      dup3\n      add\n      mload\n      dup2\n      0x00\n      add\n      exp(0x0100, 0x00)\n      dup2\n      sload\n      dup2\n      0xffffffff\n      mul\n      not\n      and\n      swap1\n      dup4\n      0xffffffff\n      and\n      mul\n      or\n      swap1\n      sstore\n      pop\n      0x20\n      dup3\n      add\n      mload\n      dup2\n      0x00\n      add\n      exp(0x0100, 0x04)\n      dup2\n      sload\n      dup2\n      0xffffffff\n      mul\n      not\n      and\n      swap1\n      dup4\n      0xffffffff\n      and\n      mul\n      or\n      swap1\n      sstore\n      pop\n      0x40\n      dup3\n      add\n      mload\n      dup2\n      0x00\n      add\n      exp(0x0100, 0x08)\n      dup2\n      sload\n      dup2\n      0xffffffff\n      mul\n      not\n      and\n      swap1\n      dup4\n      0xffffffff\n      and\n      mul\n      or\n      swap1\n      sstore\n      pop\n      0x60\n      dup3\n      add\n      mload\n      dup2\n      0x00\n      add\n      exp(0x0100, 0x0c)\n      dup2\n      sload\n      dup2\n      0xffffffffffffffff\n      mul\n      not\n      and\n      swap1\n      dup4\n      0xffffffffffffffff\n      and\n      mul\n      or\n      swap1\n      sstore\n      pop\n      swap1\n      pop\n      pop\n        /* \"LoanAndRefund.sol\":4419:4425  refund */\n      dup4\n        /* \"LoanAndRefund.sol\":4419:4437  refund.refundWeeks */\n      0x00\n      add\n      mload\n        /* \"LoanAndRefund.sol\":4397:4437  refund.refundCount == refund.refundWeeks */\n      0xffffffff\n      and\n        /* \"LoanAndRefund.sol\":4397:4403  refund */\n      dup5\n        /* \"LoanAndRefund.sol\":4397:4415  refund.refundCount */\n      0x20\n      add\n      mload\n        /* \"LoanAndRefund.sol\":4397:4437  refund.refundCount == refund.refundWeeks */\n      0xffffffff\n      and\n      eq\n        /* \"LoanAndRefund.sol\":4393:4653  if (refund.refundCount == refund.refundWeeks) {... */\n      iszero\n      tag_78\n      jumpi\n        /* \"LoanAndRefund.sol\":4465:4512  deleteRefundListElement(refund.refundListIndex) */\n      tag_79\n        /* \"LoanAndRefund.sol\":4489:4495  refund */\n      dup5\n        /* \"LoanAndRefund.sol\":4489:4511  refund.refundListIndex */\n      0x40\n      add\n      mload\n        /* \"LoanAndRefund.sol\":4465:4488  deleteRefundListElement */\n      tag_80\n        /* \"LoanAndRefund.sol\":4465:4512  deleteRefundListElement(refund.refundListIndex) */\n      jump\t// in\n    tag_79:\n        /* \"LoanAndRefund.sol\":4457:4513  require(deleteRefundListElement(refund.refundListIndex)) */\n      iszero\n      iszero\n      tag_81\n      jumpi\n      0x00\n      dup1\n      revert\n    tag_81:\n        /* \"LoanAndRefund.sol\":4536:4559  RefundEnded(contractid) */\n      0x477bfc4e57aadef7233905796ce664e856977e27ebcc57d63ac571abe59b5f15\n        /* \"LoanAndRefund.sol\":4548:4558  contractid */\n      dup2\n        /* \"LoanAndRefund.sol\":4536:4559  RefundEnded(contractid) */\n      mload(0x40)\n      dup1\n      dup3\n      dup2\n      mstore\n      0x20\n      add\n      swap2\n      pop\n      pop\n      mload(0x40)\n      dup1\n      swap2\n      sub\n      swap1\n      log1\n        /* \"LoanAndRefund.sol\":4585:4597  limit.sub(1) */\n      tag_82\n        /* \"LoanAndRefund.sol\":4595:4596  1 */\n      0x01\n        /* \"LoanAndRefund.sol\":4585:4590  limit */\n      dup4\n        /* \"LoanAndRefund.sol\":4585:4594  limit.sub */\n      tag_83\n      swap1\n        /* \"LoanAndRefund.sol\":4585:4597  limit.sub(1) */\n      swap2\n      swap1\n      0xffffffff\n      and\n      jump\t// in\n    tag_82:\n        /* \"LoanAndRefund.sol\":4577:4597  limit = limit.sub(1) */\n      swap2\n      pop\n        /* \"LoanAndRefund.sol\":4393:4653  if (refund.refundCount == refund.refundWeeks) {... */\n      jump(tag_84)\n    tag_78:\n        /* \"LoanAndRefund.sol\":4635:4638  i++ */\n      dup3\n      dup1\n      0x01\n      add\n      swap4\n      pop\n      pop\n        /* \"LoanAndRefund.sol\":4393:4653  if (refund.refundCount == refund.refundWeeks) {... */\n    tag_84:\n        /* \"LoanAndRefund.sol\":3964:4663  while (i < limit) {... */\n      pop\n      jump(tag_73)\n    tag_74:\n        /* \"LoanAndRefund.sol\":4685:4695  refundList */\n      0x02\n        /* \"LoanAndRefund.sol\":4685:4702  refundList.length */\n      dup1\n      sload\n      swap1\n      pop\n        /* \"LoanAndRefund.sol\":4676:4681  limit */\n      dup2\n        /* \"LoanAndRefund.sol\":4676:4702  limit == refundList.length */\n      eq\n        /* \"LoanAndRefund.sol\":4672:4813  if (limit == refundList.length) {... */\n      iszero\n      tag_85\n      jumpi\n        /* \"LoanAndRefund.sol\":4742:4743  0 */\n      0x00\n        /* \"LoanAndRefund.sol\":4718:4739  refundListUpdateCount */\n      0x04\n        /* \"LoanAndRefund.sol\":4718:4743  refundListUpdateCount = 0 */\n      dup2\n      swap1\n      sstore\n      pop\n        /* \"LoanAndRefund.sol\":4672:4813  if (limit == refundList.length) {... */\n      jump(tag_86)\n    tag_85:\n        /* \"LoanAndRefund.sol\":4797:4802  limit */\n      dup1\n        /* \"LoanAndRefund.sol\":4773:4794  refundListUpdateCount */\n      0x04\n        /* \"LoanAndRefund.sol\":4773:4802  refundListUpdateCount = limit */\n      dup2\n      swap1\n      sstore\n      pop\n        /* \"LoanAndRefund.sol\":4672:4813  if (limit == refundList.length) {... */\n    tag_86:\n        /* \"LoanAndRefund.sol\":4829:4840  userPayment */\n      dup5\n        /* \"LoanAndRefund.sol\":4842:4870  refundList.length.sub(limit) */\n      tag_87\n        /* \"LoanAndRefund.sol\":4864:4869  limit */\n      dup3\n        /* \"LoanAndRefund.sol\":4842:4852  refundList */\n      0x02\n        /* \"LoanAndRefund.sol\":4842:4859  refundList.length */\n      dup1\n      sload\n      swap1\n      pop\n        /* \"LoanAndRefund.sol\":4842:4863  refundList.length.sub */\n      tag_83\n      swap1\n        /* \"LoanAndRefund.sol\":4842:4870  refundList.length.sub(limit) */\n      swap2\n      swap1\n      0xffffffff\n      and\n      jump\t// in\n    tag_87:\n        /* \"LoanAndRefund.sol\":4822:4871  return(userPayment, refundList.length.sub(limit)) */\n      swap7\n      pop\n      swap7\n      pop\n      pop\n      pop\n      pop\n      pop\n      pop\n        /* \"LoanAndRefund.sol\":3497:4878  function monthlyRefundHandler(uint256 size)... */\n      swap2\n      pop\n      swap2\n      jump\t// out\n        /* \"LoanAndRefund.sol\":1182:1661  function addLoan(... */\n    tag_31:\n        /* \"LoanAndRefund.sol\":1348:1352  bool */\n      0x00\n        /* \"LoanAndRefund.sol\":955:963  timeAlly */\n      0x06\n      0x00\n      swap1\n      sload\n      swap1\n      0x0100\n      exp\n      swap1\n      div\n      0xffffffffffffffffffffffffffffffffffffffff\n      and\n        /* \"LoanAndRefund.sol\":941:963  msg.sender == timeAlly */\n      0xffffffffffffffffffffffffffffffffffffffff\n      and\n        /* \"LoanAndRefund.sol\":941:951  msg.sender */\n      caller\n        /* \"LoanAndRefund.sol\":941:963  msg.sender == timeAlly */\n      0xffffffffffffffffffffffffffffffffffffffff\n      and\n      eq\n        /* \"LoanAndRefund.sol\":933:1000  require(msg.sender == timeAlly, \"Owner TimeAlly should be calling\") */\n      iszero\n      iszero\n      tag_89\n      jumpi\n      mload(0x40)\n      0x08c379a000000000000000000000000000000000000000000000000000000000\n      dup2\n      mstore\n      0x04\n      add\n      dup1\n      dup1\n      0x20\n      add\n      dup3\n      dup2\n      sub\n      dup3\n      mstore\n      0x20\n      dup2\n      mstore\n      0x20\n      add\n      dup1\n      0x4f776e65722054696d65416c6c792073686f756c642062652063616c6c696e67\n      dup2\n      mstore\n      pop\n      0x20\n      add\n      swap2\n      pop\n      pop\n      mload(0x40)\n      dup1\n      swap2\n      sub\n      swap1\n      revert\n    tag_89:\n        /* \"LoanAndRefund.sol\":1368:1384  Loan memory loan */\n      tag_91\n      tag_92\n      jump\t// in\n    tag_91:\n        /* \"LoanAndRefund.sol\":1412:1422  loanperiod */\n      dup4\n        /* \"LoanAndRefund.sol\":1394:1398  loan */\n      dup2\n        /* \"LoanAndRefund.sol\":1394:1409  loan.loanPeriod */\n      0x20\n      add\n        /* \"LoanAndRefund.sol\":1394:1422  loan.loanPeriod = loanperiod */\n      swap1\n      0xffffffff\n      and\n      swap1\n      dup2\n      0xffffffff\n      and\n      dup2\n      mstore\n      pop\n      pop\n        /* \"LoanAndRefund.sol\":1458:1468  loanamount */\n      dup3\n        /* \"LoanAndRefund.sol\":1432:1436  loan */\n      dup2\n        /* \"LoanAndRefund.sol\":1432:1447  loan.loanAmount */\n      0x00\n      add\n        /* \"LoanAndRefund.sol\":1432:1469  loan.loanAmount = uint128(loanamount) */\n      swap1\n      0xffffffffffffffffffffffffffffffff\n      and\n      swap1\n      dup2\n      0xffffffffffffffffffffffffffffffff\n      and\n      dup2\n      mstore\n      pop\n      pop\n        /* \"LoanAndRefund.sol\":1507:1519  eraswapToken */\n      0x07\n      0x00\n      swap1\n      sload\n      swap1\n      0x0100\n      exp\n      swap1\n      div\n      0xffffffffffffffffffffffffffffffffffffffff\n      and\n        /* \"LoanAndRefund.sol\":1507:1523  eraswapToken.mou */\n      0xffffffffffffffffffffffffffffffffffffffff\n      and\n      0xb81f90f3\n        /* \"LoanAndRefund.sol\":1507:1525  eraswapToken.mou() */\n      mload(0x40)\n      dup2\n      0xffffffff\n      and\n      0x0100000000000000000000000000000000000000000000000000000000\n      mul\n      dup2\n      mstore\n      0x04\n      add\n      0x20\n      mload(0x40)\n      dup1\n      dup4\n      sub\n      dup2\n      dup7\n      dup1\n      extcodesize\n      iszero\n        /* \"--CODEGEN--\":8:17   */\n      dup1\n        /* \"--CODEGEN--\":5:7   */\n      iszero\n      tag_93\n      jumpi\n        /* \"--CODEGEN--\":30:31   */\n      0x00\n        /* \"--CODEGEN--\":27:28   */\n      dup1\n        /* \"--CODEGEN--\":20:32   */\n      revert\n        /* \"--CODEGEN--\":5:7   */\n    tag_93:\n        /* \"LoanAndRefund.sol\":1507:1525  eraswapToken.mou() */\n      pop\n      gas\n      staticcall\n      iszero\n        /* \"--CODEGEN--\":8:17   */\n      dup1\n        /* \"--CODEGEN--\":5:7   */\n      iszero\n      tag_94\n      jumpi\n        /* \"--CODEGEN--\":45:61   */\n      returndatasize\n        /* \"--CODEGEN--\":42:43   */\n      0x00\n        /* \"--CODEGEN--\":39:40   */\n      dup1\n        /* \"--CODEGEN--\":24:62   */\n      returndatacopy\n        /* \"--CODEGEN--\":77:93   */\n      returndatasize\n        /* \"--CODEGEN--\":74:75   */\n      0x00\n        /* \"--CODEGEN--\":67:94   */\n      revert\n        /* \"--CODEGEN--\":5:7   */\n    tag_94:\n        /* \"LoanAndRefund.sol\":1507:1525  eraswapToken.mou() */\n      pop\n      pop\n      pop\n      pop\n      mload(0x40)\n      returndatasize\n        /* \"--CODEGEN--\":13:15   */\n      0x20\n        /* \"--CODEGEN--\":8:11   */\n      dup2\n        /* \"--CODEGEN--\":5:16   */\n      lt\n        /* \"--CODEGEN--\":2:4   */\n      iszero\n      tag_95\n      jumpi\n        /* \"--CODEGEN--\":29:30   */\n      0x00\n        /* \"--CODEGEN--\":26:27   */\n      dup1\n        /* \"--CODEGEN--\":19:31   */\n      revert\n        /* \"--CODEGEN--\":2:4   */\n    tag_95:\n        /* \"LoanAndRefund.sol\":1507:1525  eraswapToken.mou() */\n      dup2\n      add\n      swap1\n      dup1\n      dup1\n      mload\n      swap1\n      0x20\n      add\n      swap1\n      swap3\n      swap2\n      swap1\n      pop\n      pop\n      pop\n        /* \"LoanAndRefund.sol\":1479:1483  loan */\n      dup2\n        /* \"LoanAndRefund.sol\":1479:1497  loan.loanStartTime */\n      0x40\n      add\n        /* \"LoanAndRefund.sol\":1479:1526  loan.loanStartTime = uint32(eraswapToken.mou()) */\n      swap1\n      0xffffffff\n      and\n      swap1\n      dup2\n      0xffffffff\n      and\n      dup2\n      mstore\n      pop\n      pop\n        /* \"LoanAndRefund.sol\":1564:1598  (loanList.push(contractid)).sub(1) */\n      tag_96\n        /* \"LoanAndRefund.sol\":1596:1597  1 */\n      0x01\n        /* \"LoanAndRefund.sol\":1565:1573  loanList */\n      0x03\n        /* \"LoanAndRefund.sol\":1579:1589  contractid */\n      dup8\n        /* \"LoanAndRefund.sol\":1565:1590  loanList.push(contractid) */\n      swap1\n      dup1\n        /* \"--CODEGEN--\":39:40   */\n      0x01\n        /* \"--CODEGEN--\":33:36   */\n      dup2\n        /* \"--CODEGEN--\":27:37   */\n      sload\n        /* \"--CODEGEN--\":23:41   */\n      add\n        /* \"--CODEGEN--\":57:67   */\n      dup1\n        /* \"--CODEGEN--\":52:55   */\n      dup3\n        /* \"--CODEGEN--\":45:68   */\n      sstore\n        /* \"--CODEGEN--\":79:89   */\n      dup1\n        /* \"--CODEGEN--\":72:89   */\n      swap2\n      pop\n        /* \"--CODEGEN--\":0:93   */\n      pop\n        /* \"LoanAndRefund.sol\":1565:1590  loanList.push(contractid) */\n      swap1\n      0x01\n      dup3\n      sub\n      swap1\n      0x00\n      mstore\n      keccak256(0x00, 0x20)\n      add\n      0x00\n      swap1\n      swap2\n      swap3\n      swap1\n      swap2\n      swap1\n      swap2\n      pop\n      sstore\n        /* \"LoanAndRefund.sol\":1564:1595  (loanList.push(contractid)).sub */\n      tag_83\n      swap1\n        /* \"LoanAndRefund.sol\":1564:1598  (loanList.push(contractid)).sub(1) */\n      swap2\n      swap1\n      0xffffffff\n      and\n      jump\t// in\n    tag_96:\n        /* \"LoanAndRefund.sol\":1536:1540  loan */\n      dup2\n        /* \"LoanAndRefund.sol\":1536:1554  loan.loanListIndex */\n      0x60\n      add\n        /* \"LoanAndRefund.sol\":1536:1599  loan.loanListIndex = uint32((loanList.push(contractid)).sub(1)) */\n      swap1\n      0xffffffff\n      and\n      swap1\n      dup2\n      0xffffffff\n      and\n      dup2\n      mstore\n      pop\n      pop\n        /* \"LoanAndRefund.sol\":1629:1633  loan */\n      dup1\n        /* \"LoanAndRefund.sol\":1609:1614  loans */\n      0x00\n        /* \"LoanAndRefund.sol\":1609:1626  loans[contractid] */\n      dup1\n        /* \"LoanAndRefund.sol\":1615:1625  contractid */\n      dup8\n        /* \"LoanAndRefund.sol\":1609:1626  loans[contractid] */\n      dup2\n      mstore\n      0x20\n      add\n      swap1\n      dup2\n      mstore\n      0x20\n      add\n      0x00\n      keccak256\n        /* \"LoanAndRefund.sol\":1609:1633  loans[contractid] = loan */\n      0x00\n      dup3\n      add\n      mload\n      dup2\n      0x00\n      add\n      exp(0x0100, 0x00)\n      dup2\n      sload\n      dup2\n      0xffffffffffffffffffffffffffffffff\n      mul\n      not\n      and\n      swap1\n      dup4\n      0xffffffffffffffffffffffffffffffff\n      and\n      mul\n      or\n      swap1\n      sstore\n      pop\n      0x20\n      dup3\n      add\n      mload\n      dup2\n      0x00\n      add\n      exp(0x0100, 0x10)\n      dup2\n      sload\n      dup2\n      0xffffffff\n      mul\n      not\n      and\n      swap1\n      dup4\n      0xffffffff\n      and\n      mul\n      or\n      swap1\n      sstore\n      pop\n      0x40\n      dup3\n      add\n      mload\n      dup2\n      0x00\n      add\n      exp(0x0100, 0x14)\n      dup2\n      sload\n      dup2\n      0xffffffff\n      mul\n      not\n      and\n      swap1\n      dup4\n      0xffffffff\n      and\n      mul\n      or\n      swap1\n      sstore\n      pop\n      0x60\n      dup3\n      add\n      mload\n      dup2\n      0x00\n      add\n      exp(0x0100, 0x18)\n      dup2\n      sload\n      dup2\n      0xffffffff\n      mul\n      not\n      and\n      swap1\n      dup4\n      0xffffffff\n      and\n      mul\n      or\n      swap1\n      sstore\n      pop\n      swap1\n      pop\n      pop\n        /* \"LoanAndRefund.sol\":1650:1654  true */\n      0x01\n        /* \"LoanAndRefund.sol\":1643:1654  return true */\n      swap2\n      pop\n      pop\n        /* \"LoanAndRefund.sol\":1182:1661  function addLoan(... */\n      swap4\n      swap3\n      pop\n      pop\n      pop\n      jump\t// out\n        /* \"LoanAndRefund.sol\":663:686  address public timeAlly */\n    tag_33:\n      0x06\n      0x00\n      swap1\n      sload\n      swap1\n      0x0100\n      exp\n      swap1\n      div\n      0xffffffffffffffffffffffffffffffffffffffff\n      and\n      dup2\n      jump\t// out\n        /* \"LoanAndRefund.sol\":548:573  uint256[] public loanList */\n    tag_36:\n      0x03\n      dup2\n      dup2\n      sload\n      dup2\n      lt\n      iszero\n      iszero\n      tag_98\n      jumpi\n      invalid\n    tag_98:\n      swap1\n      0x00\n      mstore\n      keccak256(0x00, 0x20)\n      add\n      0x00\n      swap2\n      pop\n      swap1\n      pop\n      sload\n      dup2\n      jump\t// out\n        /* \"LoanAndRefund.sol\":1880:2381  function addRefund(... */\n    tag_39:\n        /* \"LoanAndRefund.sol\":2069:2073  bool */\n      0x00\n        /* \"LoanAndRefund.sol\":955:963  timeAlly */\n      0x06\n      0x00\n      swap1\n      sload\n      swap1\n      0x0100\n      exp\n      swap1\n      div\n      0xffffffffffffffffffffffffffffffffffffffff\n      and\n        /* \"LoanAndRefund.sol\":941:963  msg.sender == timeAlly */\n      0xffffffffffffffffffffffffffffffffffffffff\n      and\n        /* \"LoanAndRefund.sol\":941:951  msg.sender */\n      caller\n        /* \"LoanAndRefund.sol\":941:963  msg.sender == timeAlly */\n      0xffffffffffffffffffffffffffffffffffffffff\n      and\n      eq\n        /* \"LoanAndRefund.sol\":933:1000  require(msg.sender == timeAlly, \"Owner TimeAlly should be calling\") */\n      iszero\n      iszero\n      tag_101\n      jumpi\n      mload(0x40)\n      0x08c379a000000000000000000000000000000000000000000000000000000000\n      dup2\n      mstore\n      0x04\n      add\n      dup1\n      dup1\n      0x20\n      add\n      dup3\n      dup2\n      sub\n      dup3\n      mstore\n      0x20\n      dup2\n      mstore\n      0x20\n      add\n      dup1\n      0x4f776e65722054696d65416c6c792073686f756c642062652063616c6c696e67\n      dup2\n      mstore\n      pop\n      0x20\n      add\n      swap2\n      pop\n      pop\n      mload(0x40)\n      dup1\n      swap2\n      sub\n      swap1\n      revert\n    tag_101:\n        /* \"LoanAndRefund.sol\":2089:2109  Refund memory refund */\n      tag_103\n      tag_67\n      jump\t// in\n    tag_103:\n        /* \"LoanAndRefund.sol\":2140:2151  refundweeks */\n      dup5\n        /* \"LoanAndRefund.sol\":2119:2125  refund */\n      dup2\n        /* \"LoanAndRefund.sol\":2119:2137  refund.refundWeeks */\n      0x00\n      add\n        /* \"LoanAndRefund.sol\":2119:2151  refund.refundWeeks = refundweeks */\n      swap1\n      0xffffffff\n      and\n      swap1\n      dup2\n      0xffffffff\n      and\n      dup2\n      mstore\n      pop\n      pop\n        /* \"LoanAndRefund.sol\":2182:2193  refundcount */\n      dup4\n        /* \"LoanAndRefund.sol\":2161:2167  refund */\n      dup2\n        /* \"LoanAndRefund.sol\":2161:2179  refund.refundCount */\n      0x20\n      add\n        /* \"LoanAndRefund.sol\":2161:2193  refund.refundCount = refundcount */\n      swap1\n      0xffffffff\n      and\n      swap1\n      dup2\n      0xffffffff\n      and\n      dup2\n      mstore\n      pop\n      pop\n        /* \"LoanAndRefund.sol\":2225:2237  refundamount */\n      dup3\n        /* \"LoanAndRefund.sol\":2203:2209  refund */\n      dup2\n        /* \"LoanAndRefund.sol\":2203:2222  refund.refundAmount */\n      0x60\n      add\n        /* \"LoanAndRefund.sol\":2203:2237  refund.refundAmount = refundamount */\n      swap1\n      0xffffffffffffffff\n      and\n      swap1\n      dup2\n      0xffffffffffffffff\n      and\n      dup2\n      mstore\n      pop\n      pop\n        /* \"LoanAndRefund.sol\":2279:2313  refundList.push(contractid).sub(1) */\n      tag_104\n        /* \"LoanAndRefund.sol\":2311:2312  1 */\n      0x01\n        /* \"LoanAndRefund.sol\":2279:2289  refundList */\n      0x02\n        /* \"LoanAndRefund.sol\":2295:2305  contractid */\n      dup9\n        /* \"LoanAndRefund.sol\":2279:2306  refundList.push(contractid) */\n      swap1\n      dup1\n        /* \"--CODEGEN--\":39:40   */\n      0x01\n        /* \"--CODEGEN--\":33:36   */\n      dup2\n        /* \"--CODEGEN--\":27:37   */\n      sload\n        /* \"--CODEGEN--\":23:41   */\n      add\n        /* \"--CODEGEN--\":57:67   */\n      dup1\n        /* \"--CODEGEN--\":52:55   */\n      dup3\n        /* \"--CODEGEN--\":45:68   */\n      sstore\n        /* \"--CODEGEN--\":79:89   */\n      dup1\n        /* \"--CODEGEN--\":72:89   */\n      swap2\n      pop\n        /* \"--CODEGEN--\":0:93   */\n      pop\n        /* \"LoanAndRefund.sol\":2279:2306  refundList.push(contractid) */\n      swap1\n      0x01\n      dup3\n      sub\n      swap1\n      0x00\n      mstore\n      keccak256(0x00, 0x20)\n      add\n      0x00\n      swap1\n      swap2\n      swap3\n      swap1\n      swap2\n      swap1\n      swap2\n      pop\n      sstore\n        /* \"LoanAndRefund.sol\":2279:2310  refundList.push(contractid).sub */\n      tag_83\n      swap1\n        /* \"LoanAndRefund.sol\":2279:2313  refundList.push(contractid).sub(1) */\n      swap2\n      swap1\n      0xffffffff\n      and\n      jump\t// in\n    tag_104:\n        /* \"LoanAndRefund.sol\":2247:2253  refund */\n      dup2\n        /* \"LoanAndRefund.sol\":2247:2269  refund.refundListIndex */\n      0x40\n      add\n        /* \"LoanAndRefund.sol\":2247:2314  refund.refundListIndex = uint32(refundList.push(contractid).sub(1)) */\n      swap1\n      0xffffffff\n      and\n      swap1\n      dup2\n      0xffffffff\n      and\n      dup2\n      mstore\n      pop\n      pop\n        /* \"LoanAndRefund.sol\":2347:2353  refund */\n      dup1\n        /* \"LoanAndRefund.sol\":2325:2332  refunds */\n      0x01\n        /* \"LoanAndRefund.sol\":2325:2344  refunds[contractid] */\n      0x00\n        /* \"LoanAndRefund.sol\":2333:2343  contractid */\n      dup9\n        /* \"LoanAndRefund.sol\":2325:2344  refunds[contractid] */\n      dup2\n      mstore\n      0x20\n      add\n      swap1\n      dup2\n      mstore\n      0x20\n      add\n      0x00\n      keccak256\n        /* \"LoanAndRefund.sol\":2325:2353  refunds[contractid] = refund */\n      0x00\n      dup3\n      add\n      mload\n      dup2\n      0x00\n      add\n      exp(0x0100, 0x00)\n      dup2\n      sload\n      dup2\n      0xffffffff\n      mul\n      not\n      and\n      swap1\n      dup4\n      0xffffffff\n      and\n      mul\n      or\n      swap1\n      sstore\n      pop\n      0x20\n      dup3\n      add\n      mload\n      dup2\n      0x00\n      add\n      exp(0x0100, 0x04)\n      dup2\n      sload\n      dup2\n      0xffffffff\n      mul\n      not\n      and\n      swap1\n      dup4\n      0xffffffff\n      and\n      mul\n      or\n      swap1\n      sstore\n      pop\n      0x40\n      dup3\n      add\n      mload\n      dup2\n      0x00\n      add\n      exp(0x0100, 0x08)\n      dup2\n      sload\n      dup2\n      0xffffffff\n      mul\n      not\n      and\n      swap1\n      dup4\n      0xffffffff\n      and\n      mul\n      or\n      swap1\n      sstore\n      pop\n      0x60\n      dup3\n      add\n      mload\n      dup2\n      0x00\n      add\n      exp(0x0100, 0x0c)\n      dup2\n      sload\n      dup2\n      0xffffffffffffffff\n      mul\n      not\n      and\n      swap1\n      dup4\n      0xffffffffffffffff\n      and\n      mul\n      or\n      swap1\n      sstore\n      pop\n      swap1\n      pop\n      pop\n        /* \"LoanAndRefund.sol\":2370:2374  true */\n      0x01\n        /* \"LoanAndRefund.sol\":2363:2374  return true */\n      swap2\n      pop\n      pop\n        /* \"LoanAndRefund.sol\":1880:2381  function addRefund(... */\n      swap5\n      swap4\n      pop\n      pop\n      pop\n      pop\n      jump\t// out\n        /* \"LoanAndRefund.sol\":1667:1874  function removeLoan(uint256 contractid)... */\n    tag_42:\n        /* \"LoanAndRefund.sol\":1763:1767  bool */\n      0x00\n        /* \"LoanAndRefund.sol\":955:963  timeAlly */\n      0x06\n      0x00\n      swap1\n      sload\n      swap1\n      0x0100\n      exp\n      swap1\n      div\n      0xffffffffffffffffffffffffffffffffffffffff\n      and\n        /* \"LoanAndRefund.sol\":941:963  msg.sender == timeAlly */\n      0xffffffffffffffffffffffffffffffffffffffff\n      and\n        /* \"LoanAndRefund.sol\":941:951  msg.sender */\n      caller\n        /* \"LoanAndRefund.sol\":941:963  msg.sender == timeAlly */\n      0xffffffffffffffffffffffffffffffffffffffff\n      and\n      eq\n        /* \"LoanAndRefund.sol\":933:1000  require(msg.sender == timeAlly, \"Owner TimeAlly should be calling\") */\n      iszero\n      iszero\n      tag_107\n      jumpi\n      mload(0x40)\n      0x08c379a000000000000000000000000000000000000000000000000000000000\n      dup2\n      mstore\n      0x04\n      add\n      dup1\n      dup1\n      0x20\n      add\n      dup3\n      dup2\n      sub\n      dup3\n      mstore\n      0x20\n      dup2\n      mstore\n      0x20\n      add\n      dup1\n      0x4f776e65722054696d65416c6c792073686f756c642062652063616c6c696e67\n      dup2\n      mstore\n      pop\n      0x20\n      add\n      swap2\n      pop\n      pop\n      mload(0x40)\n      dup1\n      swap2\n      sub\n      swap1\n      revert\n    tag_107:\n        /* \"LoanAndRefund.sol\":1791:1845  deleteLoanListElement(loans[contractid].loanListIndex) */\n      tag_109\n        /* \"LoanAndRefund.sol\":1813:1818  loans */\n      0x00\n        /* \"LoanAndRefund.sol\":1813:1830  loans[contractid] */\n      dup1\n        /* \"LoanAndRefund.sol\":1819:1829  contractid */\n      dup5\n        /* \"LoanAndRefund.sol\":1813:1830  loans[contractid] */\n      dup2\n      mstore\n      0x20\n      add\n      swap1\n      dup2\n      mstore\n      0x20\n      add\n      0x00\n      keccak256\n        /* \"LoanAndRefund.sol\":1813:1844  loans[contractid].loanListIndex */\n      0x00\n      add\n      0x18\n      swap1\n      sload\n      swap1\n      0x0100\n      exp\n      swap1\n      div\n      0xffffffff\n      and\n        /* \"LoanAndRefund.sol\":1791:1812  deleteLoanListElement */\n      tag_110\n        /* \"LoanAndRefund.sol\":1791:1845  deleteLoanListElement(loans[contractid].loanListIndex) */\n      jump\t// in\n    tag_109:\n        /* \"LoanAndRefund.sol\":1783:1846  require(deleteLoanListElement(loans[contractid].loanListIndex)) */\n      iszero\n      iszero\n      tag_111\n      jumpi\n      0x00\n      dup1\n      revert\n    tag_111:\n        /* \"LoanAndRefund.sol\":1863:1867  true */\n      0x01\n        /* \"LoanAndRefund.sol\":1856:1867  return true */\n      swap1\n      pop\n        /* \"LoanAndRefund.sol\":1667:1874  function removeLoan(uint256 contractid)... */\n      swap2\n      swap1\n      pop\n      jump\t// out\n        /* \"LoanAndRefund.sol\":5271:5656  function viewRefund(uint256 contractid)... */\n    tag_45:\n        /* \"LoanAndRefund.sol\":5393:5400  uint256 */\n      0x00\n        /* \"LoanAndRefund.sol\":5414:5421  uint256 */\n      dup1\n        /* \"LoanAndRefund.sol\":5435:5442  uint256 */\n      0x00\n        /* \"LoanAndRefund.sol\":955:963  timeAlly */\n      0x06\n      0x00\n      swap1\n      sload\n      swap1\n      0x0100\n      exp\n      swap1\n      div\n      0xffffffffffffffffffffffffffffffffffffffff\n      and\n        /* \"LoanAndRefund.sol\":941:963  msg.sender == timeAlly */\n      0xffffffffffffffffffffffffffffffffffffffff\n      and\n        /* \"LoanAndRefund.sol\":941:951  msg.sender */\n      caller\n        /* \"LoanAndRefund.sol\":941:963  msg.sender == timeAlly */\n      0xffffffffffffffffffffffffffffffffffffffff\n      and\n      eq\n        /* \"LoanAndRefund.sol\":933:1000  require(msg.sender == timeAlly, \"Owner TimeAlly should be calling\") */\n      iszero\n      iszero\n      tag_113\n      jumpi\n      mload(0x40)\n      0x08c379a000000000000000000000000000000000000000000000000000000000\n      dup2\n      mstore\n      0x04\n      add\n      dup1\n      dup1\n      0x20\n      add\n      dup3\n      dup2\n      sub\n      dup3\n      mstore\n      0x20\n      dup2\n      mstore\n      0x20\n      add\n      dup1\n      0x4f776e65722054696d65416c6c792073686f756c642062652063616c6c696e67\n      dup2\n      mstore\n      pop\n      0x20\n      add\n      swap2\n      pop\n      pop\n      mload(0x40)\n      dup1\n      swap2\n      sub\n      swap1\n      revert\n    tag_113:\n        /* \"LoanAndRefund.sol\":5494:5501  refunds */\n      0x01\n        /* \"LoanAndRefund.sol\":5494:5513  refunds[contractid] */\n      0x00\n        /* \"LoanAndRefund.sol\":5502:5512  contractid */\n      dup6\n        /* \"LoanAndRefund.sol\":5494:5513  refunds[contractid] */\n      dup2\n      mstore\n      0x20\n      add\n      swap1\n      dup2\n      mstore\n      0x20\n      add\n      0x00\n      keccak256\n        /* \"LoanAndRefund.sol\":5494:5525  refunds[contractid].refundWeeks */\n      0x00\n      add\n      0x00\n      swap1\n      sload\n      swap1\n      0x0100\n      exp\n      swap1\n      div\n      0xffffffff\n      and\n        /* \"LoanAndRefund.sol\":5486:5526  uint256(refunds[contractid].refundWeeks) */\n      0xffffffff\n      and\n        /* \"LoanAndRefund.sol\":5548:5555  refunds */\n      0x01\n        /* \"LoanAndRefund.sol\":5548:5567  refunds[contractid] */\n      0x00\n        /* \"LoanAndRefund.sol\":5556:5566  contractid */\n      dup7\n        /* \"LoanAndRefund.sol\":5548:5567  refunds[contractid] */\n      dup2\n      mstore\n      0x20\n      add\n      swap1\n      dup2\n      mstore\n      0x20\n      add\n      0x00\n      keccak256\n        /* \"LoanAndRefund.sol\":5548:5579  refunds[contractid].refundCount */\n      0x00\n      add\n      0x04\n      swap1\n      sload\n      swap1\n      0x0100\n      exp\n      swap1\n      div\n      0xffffffff\n      and\n        /* \"LoanAndRefund.sol\":5540:5580  uint256(refunds[contractid].refundCount) */\n      0xffffffff\n      and\n        /* \"LoanAndRefund.sol\":5602:5609  refunds */\n      0x01\n        /* \"LoanAndRefund.sol\":5602:5621  refunds[contractid] */\n      0x00\n        /* \"LoanAndRefund.sol\":5610:5620  contractid */\n      dup8\n        /* \"LoanAndRefund.sol\":5602:5621  refunds[contractid] */\n      dup2\n      mstore\n      0x20\n      add\n      swap1\n      dup2\n      mstore\n      0x20\n      add\n      0x00\n      keccak256\n        /* \"LoanAndRefund.sol\":5602:5634  refunds[contractid].refundAmount */\n      0x00\n      add\n      0x0c\n      swap1\n      sload\n      swap1\n      0x0100\n      exp\n      swap1\n      div\n      0xffffffffffffffff\n      and\n        /* \"LoanAndRefund.sol\":5594:5635  uint256(refunds[contractid].refundAmount) */\n      0xffffffffffffffff\n      and\n        /* \"LoanAndRefund.sol\":5466:5649  return(... */\n      swap3\n      pop\n      swap3\n      pop\n      swap3\n      pop\n        /* \"LoanAndRefund.sol\":5271:5656  function viewRefund(uint256 contractid)... */\n      swap2\n      swap4\n      swap1\n      swap3\n      pop\n      jump\t// out\n        /* \"LoanAndRefund.sol\":4884:5265  function viewLoan(uint256 contractid)... */\n    tag_48:\n        /* \"LoanAndRefund.sol\":5004:5011  uint256 */\n      0x00\n        /* \"LoanAndRefund.sol\":5025:5032  uint256 */\n      dup1\n        /* \"LoanAndRefund.sol\":5046:5053  uint256 */\n      0x00\n        /* \"LoanAndRefund.sol\":955:963  timeAlly */\n      0x06\n      0x00\n      swap1\n      sload\n      swap1\n      0x0100\n      exp\n      swap1\n      div\n      0xffffffffffffffffffffffffffffffffffffffff\n      and\n        /* \"LoanAndRefund.sol\":941:963  msg.sender == timeAlly */\n      0xffffffffffffffffffffffffffffffffffffffff\n      and\n        /* \"LoanAndRefund.sol\":941:951  msg.sender */\n      caller\n        /* \"LoanAndRefund.sol\":941:963  msg.sender == timeAlly */\n      0xffffffffffffffffffffffffffffffffffffffff\n      and\n      eq\n        /* \"LoanAndRefund.sol\":933:1000  require(msg.sender == timeAlly, \"Owner TimeAlly should be calling\") */\n      iszero\n      iszero\n      tag_116\n      jumpi\n      mload(0x40)\n      0x08c379a000000000000000000000000000000000000000000000000000000000\n      dup2\n      mstore\n      0x04\n      add\n      dup1\n      dup1\n      0x20\n      add\n      dup3\n      dup2\n      sub\n      dup3\n      mstore\n      0x20\n      dup2\n      mstore\n      0x20\n      add\n      dup1\n      0x4f776e65722054696d65416c6c792073686f756c642062652063616c6c696e67\n      dup2\n      mstore\n      pop\n      0x20\n      add\n      swap2\n      pop\n      pop\n      mload(0x40)\n      dup1\n      swap2\n      sub\n      swap1\n      revert\n    tag_116:\n        /* \"LoanAndRefund.sol\":5110:5115  loans */\n      0x00\n        /* \"LoanAndRefund.sol\":5110:5127  loans[contractid] */\n      dup1\n        /* \"LoanAndRefund.sol\":5116:5126  contractid */\n      dup6\n        /* \"LoanAndRefund.sol\":5110:5127  loans[contractid] */\n      dup2\n      mstore\n      0x20\n      add\n      swap1\n      dup2\n      mstore\n      0x20\n      add\n      0x00\n      keccak256\n        /* \"LoanAndRefund.sol\":5110:5138  loans[contractid].loanPeriod */\n      0x00\n      add\n      0x10\n      swap1\n      sload\n      swap1\n      0x0100\n      exp\n      swap1\n      div\n      0xffffffff\n      and\n        /* \"LoanAndRefund.sol\":5102:5139  uint256(loans[contractid].loanPeriod) */\n      0xffffffff\n      and\n        /* \"LoanAndRefund.sol\":5161:5166  loans */\n      0x00\n        /* \"LoanAndRefund.sol\":5161:5178  loans[contractid] */\n      dup1\n        /* \"LoanAndRefund.sol\":5167:5177  contractid */\n      dup7\n        /* \"LoanAndRefund.sol\":5161:5178  loans[contractid] */\n      dup2\n      mstore\n      0x20\n      add\n      swap1\n      dup2\n      mstore\n      0x20\n      add\n      0x00\n      keccak256\n        /* \"LoanAndRefund.sol\":5161:5192  loans[contractid].loanStartTime */\n      0x00\n      add\n      0x14\n      swap1\n      sload\n      swap1\n      0x0100\n      exp\n      swap1\n      div\n      0xffffffff\n      and\n        /* \"LoanAndRefund.sol\":5153:5193  uint256(loans[contractid].loanStartTime) */\n      0xffffffff\n      and\n        /* \"LoanAndRefund.sol\":5215:5220  loans */\n      0x00\n        /* \"LoanAndRefund.sol\":5215:5232  loans[contractid] */\n      dup1\n        /* \"LoanAndRefund.sol\":5221:5231  contractid */\n      dup8\n        /* \"LoanAndRefund.sol\":5215:5232  loans[contractid] */\n      dup2\n      mstore\n      0x20\n      add\n      swap1\n      dup2\n      mstore\n      0x20\n      add\n      0x00\n      keccak256\n        /* \"LoanAndRefund.sol\":5215:5243  loans[contractid].loanAmount */\n      0x00\n      add\n      0x00\n      swap1\n      sload\n      swap1\n      0x0100\n      exp\n      swap1\n      div\n      0xffffffffffffffffffffffffffffffff\n      and\n        /* \"LoanAndRefund.sol\":5207:5244  uint256(loans[contractid].loanAmount) */\n      0xffffffffffffffffffffffffffffffff\n      and\n        /* \"LoanAndRefund.sol\":5082:5258  return(... */\n      swap3\n      pop\n      swap3\n      pop\n      swap3\n      pop\n        /* \"LoanAndRefund.sol\":4884:5265  function viewLoan(uint256 contractid)... */\n      swap2\n      swap4\n      swap1\n      swap3\n      pop\n      jump\t// out\n        /* \"LoanAndRefund.sol\":2387:3491  function monthlyLoanHandler(uint256 size)... */\n    tag_51:\n        /* \"LoanAndRefund.sol\":2498:2511  uint[] memory */\n      0x60\n        /* \"LoanAndRefund.sol\":2525:2529  uint */\n      0x00\n        /* \"LoanAndRefund.sol\":955:963  timeAlly */\n      0x06\n      0x00\n      swap1\n      sload\n      swap1\n      0x0100\n      exp\n      swap1\n      div\n      0xffffffffffffffffffffffffffffffffffffffff\n      and\n        /* \"LoanAndRefund.sol\":941:963  msg.sender == timeAlly */\n      0xffffffffffffffffffffffffffffffffffffffff\n      and\n        /* \"LoanAndRefund.sol\":941:951  msg.sender */\n      caller\n        /* \"LoanAndRefund.sol\":941:963  msg.sender == timeAlly */\n      0xffffffffffffffffffffffffffffffffffffffff\n      and\n      eq\n        /* \"LoanAndRefund.sol\":933:1000  require(msg.sender == timeAlly, \"Owner TimeAlly should be calling\") */\n      iszero\n      iszero\n      tag_119\n      jumpi\n      mload(0x40)\n      0x08c379a000000000000000000000000000000000000000000000000000000000\n      dup2\n      mstore\n      0x04\n      add\n      dup1\n      dup1\n      0x20\n      add\n      dup3\n      dup2\n      sub\n      dup3\n      mstore\n      0x20\n      dup2\n      mstore\n      0x20\n      add\n      dup1\n      0x4f776e65722054696d65416c6c792073686f756c642062652063616c6c696e67\n      dup2\n      mstore\n      pop\n      0x20\n      add\n      swap2\n      pop\n      pop\n      mload(0x40)\n      dup1\n      swap2\n      sub\n      swap1\n      revert\n    tag_119:\n        /* \"LoanAndRefund.sol\":2558:2586  uint256[] memory defaultlist */\n      0x60\n        /* \"LoanAndRefund.sol\":2596:2612  Loan memory loan */\n      tag_121\n      tag_92\n      jump\t// in\n    tag_121:\n        /* \"LoanAndRefund.sol\":2622:2631  uint256 i */\n      0x00\n        /* \"LoanAndRefund.sol\":2634:2653  loanListUpdateCount */\n      sload(0x05)\n        /* \"LoanAndRefund.sol\":2622:2653  uint256 i = loanListUpdateCount */\n      swap1\n      pop\n        /* \"LoanAndRefund.sol\":2663:2676  uint256 limit */\n      0x00\n        /* \"LoanAndRefund.sol\":2705:2713  loanList */\n      0x03\n        /* \"LoanAndRefund.sol\":2705:2720  loanList.length */\n      dup1\n      sload\n      swap1\n      pop\n        /* \"LoanAndRefund.sol\":2690:2701  i.add(size) */\n      tag_122\n        /* \"LoanAndRefund.sol\":2696:2700  size */\n      dup9\n        /* \"LoanAndRefund.sol\":2690:2691  i */\n      dup5\n        /* \"LoanAndRefund.sol\":2690:2695  i.add */\n      tag_69\n      swap1\n        /* \"LoanAndRefund.sol\":2690:2701  i.add(size) */\n      swap2\n      swap1\n      0xffffffff\n      and\n      jump\t// in\n    tag_122:\n        /* \"LoanAndRefund.sol\":2690:2720  i.add(size) >= loanList.length */\n      lt\n      iszero\n        /* \"LoanAndRefund.sol\":2686:2818  if (i.add(size) >= loanList.length){... */\n      iszero\n      tag_123\n      jumpi\n        /* \"LoanAndRefund.sol\":2743:2751  loanList */\n      0x03\n        /* \"LoanAndRefund.sol\":2743:2758  loanList.length */\n      dup1\n      sload\n      swap1\n      pop\n        /* \"LoanAndRefund.sol\":2735:2758  limit = loanList.length */\n      swap1\n      pop\n        /* \"LoanAndRefund.sol\":2686:2818  if (i.add(size) >= loanList.length){... */\n      jump(tag_124)\n    tag_123:\n        /* \"LoanAndRefund.sol\":2796:2807  i.add(size) */\n      tag_125\n        /* \"LoanAndRefund.sol\":2802:2806  size */\n      dup8\n        /* \"LoanAndRefund.sol\":2796:2797  i */\n      dup4\n        /* \"LoanAndRefund.sol\":2796:2801  i.add */\n      tag_69\n      swap1\n        /* \"LoanAndRefund.sol\":2796:2807  i.add(size) */\n      swap2\n      swap1\n      0xffffffff\n      and\n      jump\t// in\n    tag_125:\n        /* \"LoanAndRefund.sol\":2788:2807  limit = i.add(size) */\n      swap1\n      pop\n        /* \"LoanAndRefund.sol\":2686:2818  if (i.add(size) >= loanList.length){... */\n    tag_124:\n        /* \"LoanAndRefund.sol\":2827:3284  while (i < limit) {... */\n    tag_126:\n        /* \"LoanAndRefund.sol\":2838:2843  limit */\n      dup1\n        /* \"LoanAndRefund.sol\":2834:2835  i */\n      dup3\n        /* \"LoanAndRefund.sol\":2834:2843  i < limit */\n      lt\n        /* \"LoanAndRefund.sol\":2827:3284  while (i < limit) {... */\n      iszero\n      tag_127\n      jumpi\n        /* \"LoanAndRefund.sol\":2859:2877  uint256 contractid */\n      0x00\n        /* \"LoanAndRefund.sol\":2880:2888  loanList */\n      0x03\n        /* \"LoanAndRefund.sol\":2889:2890  i */\n      dup4\n        /* \"LoanAndRefund.sol\":2880:2891  loanList[i] */\n      dup2\n      sload\n      dup2\n      lt\n      iszero\n      iszero\n      tag_128\n      jumpi\n      invalid\n    tag_128:\n      swap1\n      0x00\n      mstore\n      keccak256(0x00, 0x20)\n      add\n      sload\n        /* \"LoanAndRefund.sol\":2859:2891  uint256 contractid = loanList[i] */\n      swap1\n      pop\n        /* \"LoanAndRefund.sol\":2912:2917  loans */\n      0x00\n        /* \"LoanAndRefund.sol\":2912:2929  loans[contractid] */\n      dup1\n        /* \"LoanAndRefund.sol\":2918:2928  contractid */\n      dup3\n        /* \"LoanAndRefund.sol\":2912:2929  loans[contractid] */\n      dup2\n      mstore\n      0x20\n      add\n      swap1\n      dup2\n      mstore\n      0x20\n      add\n      0x00\n      keccak256\n        /* \"LoanAndRefund.sol\":2905:2929  loan = loans[contractid] */\n      0x80\n      mload(0x40)\n      swap1\n      dup2\n      add\n      0x40\n      mstore\n      swap1\n      dup2\n      0x00\n      dup3\n      add\n      0x00\n      swap1\n      sload\n      swap1\n      0x0100\n      exp\n      swap1\n      div\n      0xffffffffffffffffffffffffffffffff\n      and\n      0xffffffffffffffffffffffffffffffff\n      and\n      0xffffffffffffffffffffffffffffffff\n      and\n      dup2\n      mstore\n      0x20\n      add\n      0x00\n      dup3\n      add\n      0x10\n      swap1\n      sload\n      swap1\n      0x0100\n      exp\n      swap1\n      div\n      0xffffffff\n      and\n      0xffffffff\n      and\n      0xffffffff\n      and\n      dup2\n      mstore\n      0x20\n      add\n      0x00\n      dup3\n      add\n      0x14\n      swap1\n      sload\n      swap1\n      0x0100\n      exp\n      swap1\n      div\n      0xffffffff\n      and\n      0xffffffff\n      and\n      0xffffffff\n      and\n      dup2\n      mstore\n      0x20\n      add\n      0x00\n      dup3\n      add\n      0x18\n      swap1\n      sload\n      swap1\n      0x0100\n      exp\n      swap1\n      div\n      0xffffffff\n      and\n      0xffffffff\n      and\n      0xffffffff\n      and\n      dup2\n      mstore\n      pop\n      pop\n      swap4\n      pop\n        /* \"LoanAndRefund.sol\":2994:2998  loan */\n      dup4\n        /* \"LoanAndRefund.sol\":2994:3009  loan.loanPeriod */\n      0x20\n      add\n      mload\n        /* \"LoanAndRefund.sol\":2947:3009  (eraswapToken.mou().sub(loan.loanStartTime)) > loan.loanPeriod */\n      0xffffffff\n      and\n        /* \"LoanAndRefund.sol\":2948:2990  eraswapToken.mou().sub(loan.loanStartTime) */\n      tag_130\n        /* \"LoanAndRefund.sol\":2971:2975  loan */\n      dup6\n        /* \"LoanAndRefund.sol\":2971:2989  loan.loanStartTime */\n      0x40\n      add\n      mload\n        /* \"LoanAndRefund.sol\":2948:2990  eraswapToken.mou().sub(loan.loanStartTime) */\n      0xffffffff\n      and\n        /* \"LoanAndRefund.sol\":2948:2960  eraswapToken */\n      0x07\n      0x00\n      swap1\n      sload\n      swap1\n      0x0100\n      exp\n      swap1\n      div\n      0xffffffffffffffffffffffffffffffffffffffff\n      and\n        /* \"LoanAndRefund.sol\":2948:2964  eraswapToken.mou */\n      0xffffffffffffffffffffffffffffffffffffffff\n      and\n      0xb81f90f3\n        /* \"LoanAndRefund.sol\":2948:2966  eraswapToken.mou() */\n      mload(0x40)\n      dup2\n      0xffffffff\n      and\n      0x0100000000000000000000000000000000000000000000000000000000\n      mul\n      dup2\n      mstore\n      0x04\n      add\n      0x20\n      mload(0x40)\n      dup1\n      dup4\n      sub\n      dup2\n      dup7\n      dup1\n      extcodesize\n      iszero\n        /* \"--CODEGEN--\":8:17   */\n      dup1\n        /* \"--CODEGEN--\":5:7   */\n      iszero\n      tag_131\n      jumpi\n        /* \"--CODEGEN--\":30:31   */\n      0x00\n        /* \"--CODEGEN--\":27:28   */\n      dup1\n        /* \"--CODEGEN--\":20:32   */\n      revert\n        /* \"--CODEGEN--\":5:7   */\n    tag_131:\n        /* \"LoanAndRefund.sol\":2948:2966  eraswapToken.mou() */\n      pop\n      gas\n      staticcall\n      iszero\n        /* \"--CODEGEN--\":8:17   */\n      dup1\n        /* \"--CODEGEN--\":5:7   */\n      iszero\n      tag_132\n      jumpi\n        /* \"--CODEGEN--\":45:61   */\n      returndatasize\n        /* \"--CODEGEN--\":42:43   */\n      0x00\n        /* \"--CODEGEN--\":39:40   */\n      dup1\n        /* \"--CODEGEN--\":24:62   */\n      returndatacopy\n        /* \"--CODEGEN--\":77:93   */\n      returndatasize\n        /* \"--CODEGEN--\":74:75   */\n      0x00\n        /* \"--CODEGEN--\":67:94   */\n      revert\n        /* \"--CODEGEN--\":5:7   */\n    tag_132:\n        /* \"LoanAndRefund.sol\":2948:2966  eraswapToken.mou() */\n      pop\n      pop\n      pop\n      pop\n      mload(0x40)\n      returndatasize\n        /* \"--CODEGEN--\":13:15   */\n      0x20\n        /* \"--CODEGEN--\":8:11   */\n      dup2\n        /* \"--CODEGEN--\":5:16   */\n      lt\n        /* \"--CODEGEN--\":2:4   */\n      iszero\n      tag_133\n      jumpi\n        /* \"--CODEGEN--\":29:30   */\n      0x00\n        /* \"--CODEGEN--\":26:27   */\n      dup1\n        /* \"--CODEGEN--\":19:31   */\n      revert\n        /* \"--CODEGEN--\":2:4   */\n    tag_133:\n        /* \"LoanAndRefund.sol\":2948:2966  eraswapToken.mou() */\n      dup2\n      add\n      swap1\n      dup1\n      dup1\n      mload\n      swap1\n      0x20\n      add\n      swap1\n      swap3\n      swap2\n      swap1\n      pop\n      pop\n      pop\n        /* \"LoanAndRefund.sol\":2948:2970  eraswapToken.mou().sub */\n      tag_83\n      swap1\n        /* \"LoanAndRefund.sol\":2948:2990  eraswapToken.mou().sub(loan.loanStartTime) */\n      swap2\n      swap1\n      0xffffffff\n      and\n      jump\t// in\n    tag_130:\n        /* \"LoanAndRefund.sol\":2947:3009  (eraswapToken.mou().sub(loan.loanStartTime)) > loan.loanPeriod */\n      gt\n        /* \"LoanAndRefund.sol\":2943:3274  if ((eraswapToken.mou().sub(loan.loanStartTime)) > loan.loanPeriod) {... */\n      iszero\n      tag_134\n      jumpi\n        /* \"LoanAndRefund.sol\":3063:3073  contractid */\n      dup1\n        /* \"LoanAndRefund.sol\":3029:3040  defaultlist */\n      dup6\n        /* \"LoanAndRefund.sol\":3041:3052  defaultlist */\n      dup7\n        /* \"LoanAndRefund.sol\":3041:3059  defaultlist.length */\n      mload\n        /* \"LoanAndRefund.sol\":3029:3060  defaultlist[defaultlist.length] */\n      dup2\n      mload\n      dup2\n      lt\n      iszero\n      iszero\n      tag_135\n      jumpi\n      invalid\n    tag_135:\n      swap1\n      0x20\n      add\n      swap1\n      0x20\n      mul\n      add\n        /* \"LoanAndRefund.sol\":3029:3073  defaultlist[defaultlist.length] = contractid */\n      dup2\n      dup2\n      mstore\n      pop\n      pop\n        /* \"LoanAndRefund.sol\":3091:3132  deleteLoanListElement(loan.loanListIndex) */\n      tag_136\n        /* \"LoanAndRefund.sol\":3113:3117  loan */\n      dup5\n        /* \"LoanAndRefund.sol\":3113:3131  loan.loanListIndex */\n      0x60\n      add\n      mload\n        /* \"LoanAndRefund.sol\":3091:3112  deleteLoanListElement */\n      tag_110\n        /* \"LoanAndRefund.sol\":3091:3132  deleteLoanListElement(loan.loanListIndex) */\n      jump\t// in\n    tag_136:\n      pop\n        /* \"LoanAndRefund.sol\":3155:3180  LoanDefaulted(contractid) */\n      0x0789b7097e8066538cfaa1132488b132e14ba5f0c938c8b7aaf8cf40356aab0b\n        /* \"LoanAndRefund.sol\":3169:3179  contractid */\n      dup2\n        /* \"LoanAndRefund.sol\":3155:3180  LoanDefaulted(contractid) */\n      mload(0x40)\n      dup1\n      dup3\n      dup2\n      mstore\n      0x20\n      add\n      swap2\n      pop\n      pop\n      mload(0x40)\n      dup1\n      swap2\n      sub\n      swap1\n      log1\n        /* \"LoanAndRefund.sol\":3206:3218  limit.sub(1) */\n      tag_137\n        /* \"LoanAndRefund.sol\":3216:3217  1 */\n      0x01\n        /* \"LoanAndRefund.sol\":3206:3211  limit */\n      dup4\n        /* \"LoanAndRefund.sol\":3206:3215  limit.sub */\n      tag_83\n      swap1\n        /* \"LoanAndRefund.sol\":3206:3218  limit.sub(1) */\n      swap2\n      swap1\n      0xffffffff\n      and\n      jump\t// in\n    tag_137:\n        /* \"LoanAndRefund.sol\":3198:3218  limit = limit.sub(1) */\n      swap2\n      pop\n        /* \"LoanAndRefund.sol\":2943:3274  if ((eraswapToken.mou().sub(loan.loanStartTime)) > loan.loanPeriod) {... */\n      jump(tag_138)\n    tag_134:\n        /* \"LoanAndRefund.sol\":3256:3259  i++ */\n      dup3\n      dup1\n      0x01\n      add\n      swap4\n      pop\n      pop\n        /* \"LoanAndRefund.sol\":2943:3274  if ((eraswapToken.mou().sub(loan.loanStartTime)) > loan.loanPeriod) {... */\n    tag_138:\n        /* \"LoanAndRefund.sol\":2827:3284  while (i < limit) {... */\n      pop\n      jump(tag_126)\n    tag_127:\n        /* \"LoanAndRefund.sol\":3306:3314  loanList */\n      0x03\n        /* \"LoanAndRefund.sol\":3306:3321  loanList.length */\n      dup1\n      sload\n      swap1\n      pop\n        /* \"LoanAndRefund.sol\":3297:3302  limit */\n      dup2\n        /* \"LoanAndRefund.sol\":3297:3321  limit == loanList.length */\n      eq\n        /* \"LoanAndRefund.sol\":3293:3428  if (limit == loanList.length) {... */\n      iszero\n      tag_139\n      jumpi\n        /* \"LoanAndRefund.sol\":3359:3360  0 */\n      0x00\n        /* \"LoanAndRefund.sol\":3337:3356  loanListUpdateCount */\n      0x05\n        /* \"LoanAndRefund.sol\":3337:3360  loanListUpdateCount = 0 */\n      dup2\n      swap1\n      sstore\n      pop\n        /* \"LoanAndRefund.sol\":3293:3428  if (limit == loanList.length) {... */\n      jump(tag_140)\n    tag_139:\n        /* \"LoanAndRefund.sol\":3412:3417  limit */\n      dup1\n        /* \"LoanAndRefund.sol\":3390:3409  loanListUpdateCount */\n      0x05\n        /* \"LoanAndRefund.sol\":3390:3417  loanListUpdateCount = limit */\n      dup2\n      swap1\n      sstore\n      pop\n        /* \"LoanAndRefund.sol\":3293:3428  if (limit == loanList.length) {... */\n    tag_140:\n        /* \"LoanAndRefund.sol\":3444:3455  defaultlist */\n      dup4\n        /* \"LoanAndRefund.sol\":3457:3483  loanList.length.sub(limit) */\n      tag_141\n        /* \"LoanAndRefund.sol\":3477:3482  limit */\n      dup3\n        /* \"LoanAndRefund.sol\":3457:3465  loanList */\n      0x03\n        /* \"LoanAndRefund.sol\":3457:3472  loanList.length */\n      dup1\n      sload\n      swap1\n      pop\n        /* \"LoanAndRefund.sol\":3457:3476  loanList.length.sub */\n      tag_83\n      swap1\n        /* \"LoanAndRefund.sol\":3457:3483  loanList.length.sub(limit) */\n      swap2\n      swap1\n      0xffffffff\n      and\n      jump\t// in\n    tag_141:\n        /* \"LoanAndRefund.sol\":3437:3484  return(defaultlist, loanList.length.sub(limit)) */\n      swap6\n      pop\n      swap6\n      pop\n      pop\n      pop\n      pop\n      pop\n        /* \"LoanAndRefund.sol\":2387:3491  function monthlyLoanHandler(uint256 size)... */\n      swap2\n      pop\n      swap2\n      jump\t// out\n        /* \"LoanAndRefund.sol\":277:315  mapping (uint256 => Loan) public loans */\n    tag_57:\n      mstore(0x20, 0x00)\n      dup1\n      0x00\n      mstore\n      keccak256(0x00, 0x40)\n      0x00\n      swap2\n      pop\n      swap1\n      pop\n      dup1\n      0x00\n      add\n      0x00\n      swap1\n      sload\n      swap1\n      0x0100\n      exp\n      swap1\n      div\n      0xffffffffffffffffffffffffffffffff\n      and\n      swap1\n      dup1\n      0x00\n      add\n      0x10\n      swap1\n      sload\n      swap1\n      0x0100\n      exp\n      swap1\n      div\n      0xffffffff\n      and\n      swap1\n      dup1\n      0x00\n      add\n      0x14\n      swap1\n      sload\n      swap1\n      0x0100\n      exp\n      swap1\n      div\n      0xffffffff\n      and\n      swap1\n      dup1\n      0x00\n      add\n      0x18\n      swap1\n      sload\n      swap1\n      0x0100\n      exp\n      swap1\n      div\n      0xffffffff\n      and\n      swap1\n      pop\n      dup5\n      jump\t// out\n        /* \"LoanAndRefund.sol\":466:508  mapping (uint256 => Refund) public refunds */\n    tag_60:\n      mstore(0x20, 0x01)\n      dup1\n      0x00\n      mstore\n      keccak256(0x00, 0x40)\n      0x00\n      swap2\n      pop\n      swap1\n      pop\n      dup1\n      0x00\n      add\n      0x00\n      swap1\n      sload\n      swap1\n      0x0100\n      exp\n      swap1\n      div\n      0xffffffff\n      and\n      swap1\n      dup1\n      0x00\n      add\n      0x04\n      swap1\n      sload\n      swap1\n      0x0100\n      exp\n      swap1\n      div\n      0xffffffff\n      and\n      swap1\n      dup1\n      0x00\n      add\n      0x08\n      swap1\n      sload\n      swap1\n      0x0100\n      exp\n      swap1\n      div\n      0xffffffff\n      and\n      swap1\n      dup1\n      0x00\n      add\n      0x0c\n      swap1\n      sload\n      swap1\n      0x0100\n      exp\n      swap1\n      div\n      0xffffffffffffffff\n      and\n      swap1\n      pop\n      dup5\n      jump\t// out\n        /* \"SafeMath.sol\":1439:1584  function add(uint256 a, uint256 b) internal pure returns (uint256) {... */\n    tag_69:\n        /* \"SafeMath.sol\":1497:1504  uint256 */\n      0x00\n        /* \"SafeMath.sol\":1516:1525  uint256 c */\n      dup1\n        /* \"SafeMath.sol\":1532:1533  b */\n      dup3\n        /* \"SafeMath.sol\":1528:1529  a */\n      dup5\n        /* \"SafeMath.sol\":1528:1533  a + b */\n      add\n        /* \"SafeMath.sol\":1516:1533  uint256 c = a + b */\n      swap1\n      pop\n        /* \"SafeMath.sol\":1556:1557  a */\n      dup4\n        /* \"SafeMath.sol\":1551:1552  c */\n      dup2\n        /* \"SafeMath.sol\":1551:1557  c >= a */\n      lt\n      iszero\n        /* \"SafeMath.sol\":1543:1558  require(c >= a) */\n      iszero\n      iszero\n      tag_143\n      jumpi\n      0x00\n      dup1\n      revert\n    tag_143:\n        /* \"SafeMath.sol\":1576:1577  c */\n      dup1\n        /* \"SafeMath.sol\":1569:1577  return c */\n      swap2\n      pop\n      pop\n        /* \"SafeMath.sol\":1439:1584  function add(uint256 a, uint256 b) internal pure returns (uint256) {... */\n      swap3\n      swap2\n      pop\n      pop\n      jump\t// out\n        /* \"LoanAndRefund.sol\":5662:6004  function deleteRefundListElement(uint32 index)... */\n    tag_80:\n        /* \"LoanAndRefund.sol\":5742:5746  bool */\n      0x00\n        /* \"LoanAndRefund.sol\":5778:5788  refundList */\n      0x02\n        /* \"LoanAndRefund.sol\":5778:5795  refundList.length */\n      dup1\n      sload\n      swap1\n      pop\n        /* \"LoanAndRefund.sol\":5770:5775  index */\n      dup3\n        /* \"LoanAndRefund.sol\":5770:5795  index < refundList.length */\n      0xffffffff\n      and\n      lt\n        /* \"LoanAndRefund.sol\":5762:5796  require(index < refundList.length) */\n      iszero\n      iszero\n      tag_145\n      jumpi\n      0x00\n      dup1\n      revert\n    tag_145:\n        /* \"LoanAndRefund.sol\":5806:5818  uint256 last */\n      0x00\n        /* \"LoanAndRefund.sol\":5821:5845  refundList.length.sub(1) */\n      tag_146\n        /* \"LoanAndRefund.sol\":5843:5844  1 */\n      0x01\n        /* \"LoanAndRefund.sol\":5821:5831  refundList */\n      0x02\n        /* \"LoanAndRefund.sol\":5821:5838  refundList.length */\n      dup1\n      sload\n      swap1\n      pop\n        /* \"LoanAndRefund.sol\":5821:5842  refundList.length.sub */\n      tag_83\n      swap1\n        /* \"LoanAndRefund.sol\":5821:5845  refundList.length.sub(1) */\n      swap2\n      swap1\n      0xffffffff\n      and\n      jump\t// in\n    tag_146:\n        /* \"LoanAndRefund.sol\":5806:5845  uint256 last = refundList.length.sub(1) */\n      swap1\n      pop\n        /* \"LoanAndRefund.sol\":5899:5904  index */\n      dup3\n        /* \"LoanAndRefund.sol\":5855:5862  refunds */\n      0x01\n        /* \"LoanAndRefund.sol\":5855:5880  refunds[refundList[last]] */\n      0x00\n        /* \"LoanAndRefund.sol\":5863:5873  refundList */\n      0x02\n        /* \"LoanAndRefund.sol\":5874:5878  last */\n      dup5\n        /* \"LoanAndRefund.sol\":5863:5879  refundList[last] */\n      dup2\n      sload\n      dup2\n      lt\n      iszero\n      iszero\n      tag_147\n      jumpi\n      invalid\n    tag_147:\n      swap1\n      0x00\n      mstore\n      keccak256(0x00, 0x20)\n      add\n      sload\n        /* \"LoanAndRefund.sol\":5855:5880  refunds[refundList[last]] */\n      dup2\n      mstore\n      0x20\n      add\n      swap1\n      dup2\n      mstore\n      0x20\n      add\n      0x00\n      keccak256\n        /* \"LoanAndRefund.sol\":5855:5896  refunds[refundList[last]].refundListIndex */\n      0x00\n      add\n      0x08\n        /* \"LoanAndRefund.sol\":5855:5904  refunds[refundList[last]].refundListIndex = index */\n      0x0100\n      exp\n      dup2\n      sload\n      dup2\n      0xffffffff\n      mul\n      not\n      and\n      swap1\n      dup4\n      0xffffffff\n      and\n      mul\n      or\n      swap1\n      sstore\n      pop\n        /* \"LoanAndRefund.sol\":5934:5944  refundList */\n      0x02\n        /* \"LoanAndRefund.sol\":5945:5949  last */\n      dup2\n        /* \"LoanAndRefund.sol\":5934:5950  refundList[last] */\n      dup2\n      sload\n      dup2\n      lt\n      iszero\n      iszero\n      tag_149\n      jumpi\n      invalid\n    tag_149:\n      swap1\n      0x00\n      mstore\n      keccak256(0x00, 0x20)\n      add\n      sload\n        /* \"LoanAndRefund.sol\":5914:5924  refundList */\n      0x02\n        /* \"LoanAndRefund.sol\":5925:5930  index */\n      dup5\n        /* \"LoanAndRefund.sol\":5914:5931  refundList[index] */\n      0xffffffff\n      and\n      dup2\n      sload\n      dup2\n      lt\n      iszero\n      iszero\n      tag_151\n      jumpi\n      invalid\n    tag_151:\n      swap1\n      0x00\n      mstore\n      keccak256(0x00, 0x20)\n      add\n        /* \"LoanAndRefund.sol\":5914:5950  refundList[index] = refundList[last] */\n      dup2\n      swap1\n      sstore\n      pop\n        /* \"LoanAndRefund.sol\":5960:5970  refundList */\n      0x02\n        /* \"LoanAndRefund.sol\":5960:5976  refundList.pop() */\n      dup1\n      sload\n      dup1\n      iszero\n      iszero\n      tag_153\n      jumpi\n      invalid\n    tag_153:\n      0x01\n      swap1\n      sub\n      dup2\n      dup2\n      swap1\n      0x00\n      mstore\n      keccak256(0x00, 0x20)\n      add\n      0x00\n      swap1\n      sstore\n      swap1\n      sstore\n        /* \"LoanAndRefund.sol\":5993:5997  true */\n      0x01\n        /* \"LoanAndRefund.sol\":5986:5997  return true */\n      swap2\n      pop\n      pop\n        /* \"LoanAndRefund.sol\":5662:6004  function deleteRefundListElement(uint32 index)... */\n      swap2\n      swap1\n      pop\n      jump\t// out\n        /* \"SafeMath.sol\":1211:1356  function sub(uint256 a, uint256 b) internal pure returns (uint256) {... */\n    tag_83:\n        /* \"SafeMath.sol\":1269:1276  uint256 */\n      0x00\n        /* \"SafeMath.sol\":1301:1302  a */\n      dup3\n        /* \"SafeMath.sol\":1296:1297  b */\n      dup3\n        /* \"SafeMath.sol\":1296:1302  b <= a */\n      gt\n      iszero\n        /* \"SafeMath.sol\":1288:1303  require(b <= a) */\n      iszero\n      iszero\n      tag_156\n      jumpi\n      0x00\n      dup1\n      revert\n    tag_156:\n        /* \"SafeMath.sol\":1313:1322  uint256 c */\n      0x00\n        /* \"SafeMath.sol\":1329:1330  b */\n      dup3\n        /* \"SafeMath.sol\":1325:1326  a */\n      dup5\n        /* \"SafeMath.sol\":1325:1330  a - b */\n      sub\n        /* \"SafeMath.sol\":1313:1330  uint256 c = a - b */\n      swap1\n      pop\n        /* \"SafeMath.sol\":1348:1349  c */\n      dup1\n        /* \"SafeMath.sol\":1341:1349  return c */\n      swap2\n      pop\n      pop\n        /* \"SafeMath.sol\":1211:1356  function sub(uint256 a, uint256 b) internal pure returns (uint256) {... */\n      swap3\n      swap2\n      pop\n      pop\n      jump\t// out\n        /* \"LoanAndRefund.sol\":6010:6334  function deleteLoanListElement(uint32 index)... */\n    tag_110:\n        /* \"LoanAndRefund.sol\":6088:6092  bool */\n      0x00\n        /* \"LoanAndRefund.sol\":6124:6132  loanList */\n      0x03\n        /* \"LoanAndRefund.sol\":6124:6139  loanList.length */\n      dup1\n      sload\n      swap1\n      pop\n        /* \"LoanAndRefund.sol\":6116:6121  index */\n      dup3\n        /* \"LoanAndRefund.sol\":6116:6139  index < loanList.length */\n      0xffffffff\n      and\n      lt\n        /* \"LoanAndRefund.sol\":6108:6140  require(index < loanList.length) */\n      iszero\n      iszero\n      tag_158\n      jumpi\n      0x00\n      dup1\n      revert\n    tag_158:\n        /* \"LoanAndRefund.sol\":6150:6162  uint256 last */\n      0x00\n        /* \"LoanAndRefund.sol\":6165:6187  loanList.length.sub(1) */\n      tag_159\n        /* \"LoanAndRefund.sol\":6185:6186  1 */\n      0x01\n        /* \"LoanAndRefund.sol\":6165:6173  loanList */\n      0x03\n        /* \"LoanAndRefund.sol\":6165:6180  loanList.length */\n      dup1\n      sload\n      swap1\n      pop\n        /* \"LoanAndRefund.sol\":6165:6184  loanList.length.sub */\n      tag_83\n      swap1\n        /* \"LoanAndRefund.sol\":6165:6187  loanList.length.sub(1) */\n      swap2\n      swap1\n      0xffffffff\n      and\n      jump\t// in\n    tag_159:\n        /* \"LoanAndRefund.sol\":6150:6187  uint256 last = loanList.length.sub(1) */\n      swap1\n      pop\n        /* \"LoanAndRefund.sol\":6235:6240  index */\n      dup3\n        /* \"LoanAndRefund.sol\":6197:6202  loans */\n      0x00\n        /* \"LoanAndRefund.sol\":6197:6218  loans[loanList[last]] */\n      dup1\n        /* \"LoanAndRefund.sol\":6203:6211  loanList */\n      0x03\n        /* \"LoanAndRefund.sol\":6212:6216  last */\n      dup5\n        /* \"LoanAndRefund.sol\":6203:6217  loanList[last] */\n      dup2\n      sload\n      dup2\n      lt\n      iszero\n      iszero\n      tag_160\n      jumpi\n      invalid\n    tag_160:\n      swap1\n      0x00\n      mstore\n      keccak256(0x00, 0x20)\n      add\n      sload\n        /* \"LoanAndRefund.sol\":6197:6218  loans[loanList[last]] */\n      dup2\n      mstore\n      0x20\n      add\n      swap1\n      dup2\n      mstore\n      0x20\n      add\n      0x00\n      keccak256\n        /* \"LoanAndRefund.sol\":6197:6232  loans[loanList[last]].loanListIndex */\n      0x00\n      add\n      0x18\n        /* \"LoanAndRefund.sol\":6197:6240  loans[loanList[last]].loanListIndex = index */\n      0x0100\n      exp\n      dup2\n      sload\n      dup2\n      0xffffffff\n      mul\n      not\n      and\n      swap1\n      dup4\n      0xffffffff\n      and\n      mul\n      or\n      swap1\n      sstore\n      pop\n        /* \"LoanAndRefund.sol\":6268:6276  loanList */\n      0x03\n        /* \"LoanAndRefund.sol\":6277:6281  last */\n      dup2\n        /* \"LoanAndRefund.sol\":6268:6282  loanList[last] */\n      dup2\n      sload\n      dup2\n      lt\n      iszero\n      iszero\n      tag_162\n      jumpi\n      invalid\n    tag_162:\n      swap1\n      0x00\n      mstore\n      keccak256(0x00, 0x20)\n      add\n      sload\n        /* \"LoanAndRefund.sol\":6250:6258  loanList */\n      0x03\n        /* \"LoanAndRefund.sol\":6259:6264  index */\n      dup5\n        /* \"LoanAndRefund.sol\":6250:6265  loanList[index] */\n      0xffffffff\n      and\n      dup2\n      sload\n      dup2\n      lt\n      iszero\n      iszero\n      tag_164\n      jumpi\n      invalid\n    tag_164:\n      swap1\n      0x00\n      mstore\n      keccak256(0x00, 0x20)\n      add\n        /* \"LoanAndRefund.sol\":6250:6282  loanList[index] = loanList[last] */\n      dup2\n      swap1\n      sstore\n      pop\n        /* \"LoanAndRefund.sol\":6292:6300  loanList */\n      0x03\n        /* \"LoanAndRefund.sol\":6292:6306  loanList.pop() */\n      dup1\n      sload\n      dup1\n      iszero\n      iszero\n      tag_166\n      jumpi\n      invalid\n    tag_166:\n      0x01\n      swap1\n      sub\n      dup2\n      dup2\n      swap1\n      0x00\n      mstore\n      keccak256(0x00, 0x20)\n      add\n      0x00\n      swap1\n      sstore\n      swap1\n      sstore\n        /* \"LoanAndRefund.sol\":6323:6327  true */\n      0x01\n        /* \"LoanAndRefund.sol\":6316:6327  return true */\n      swap2\n      pop\n      pop\n        /* \"LoanAndRefund.sol\":6010:6334  function deleteLoanListElement(uint32 index)... */\n      swap2\n      swap1\n      pop\n      jump\t// out\n        /* \"LoanAndRefund.sol\":75:6337  contract LoanAndRefund {... */\n    tag_67:\n      0x80\n      mload(0x40)\n      swap1\n      dup2\n      add\n      0x40\n      mstore\n      dup1\n      and(0xffffffff, 0x00)\n      dup2\n      mstore\n      0x20\n      add\n      and(0xffffffff, 0x00)\n      dup2\n      mstore\n      0x20\n      add\n      and(0xffffffff, 0x00)\n      dup2\n      mstore\n      0x20\n      add\n      and(0xffffffffffffffff, 0x00)\n      dup2\n      mstore\n      pop\n      swap1\n      jump\t// out\n    tag_92:\n      0x80\n      mload(0x40)\n      swap1\n      dup2\n      add\n      0x40\n      mstore\n      dup1\n      and(0xffffffffffffffffffffffffffffffff, 0x00)\n      dup2\n      mstore\n      0x20\n      add\n      and(0xffffffff, 0x00)\n      dup2\n      mstore\n      0x20\n      add\n      and(0xffffffff, 0x00)\n      dup2\n      mstore\n      0x20\n      add\n      and(0xffffffff, 0x00)\n      dup2\n      mstore\n      pop\n      swap1\n      jump\t// out\n\n    auxdata: 0xa165627a7a72305820cff3b4939713b6f418cd62dc3ebc904b5f697f8cbeeaf9fe2097e2892cd92f450029\n}\n","bytecode":{"linkReferences":{},"object":"608060405234801561001057600080fd5b50604051604080611cdc8339810180604052604081101561003057600080fd5b81019080805190602001909291908051906020019092919050505081600660006101000a81548173ffffffffffffffffffffffffffffffffffffffff021916908373ffffffffffffffffffffffffffffffffffffffff16021790555080600760006101000a81548173ffffffffffffffffffffffffffffffffffffffff021916908373ffffffffffffffffffffffffffffffffffffffff1602179055505050611bfe806100de6000396000f3fe608060405234801561001057600080fd5b50600436106100ec576000357c0100000000000000000000000000000000000000000000000000000000900480638796ce98116100a9578063d028aa6211610083578063d028aa6214610415578063d107a0fa14610465578063e1ec3c68146104ef578063e36bd0f31461058e576100ec565b80638796ce9814610305578063a8818cf11461037f578063ccc2512b146103c5576100ec565b806316503e61146100f15780632cdb8cc614610133578063465142681461017d57806359e0bb0114610207578063682667a9146102795780637621710c146102c3575b600080fd5b61011d6004803603602081101561010757600080fd5b810190808035906020019092919050505061061d565b6040518082815260200191505060405180910390f35b61013b610640565b604051808273ffffffffffffffffffffffffffffffffffffffff1673ffffffffffffffffffffffffffffffffffffffff16815260200191505060405180910390f35b6101a96004803603602081101561019357600080fd5b8101908080359060200190929190505050610666565b6040518080602001838152602001828103825284818151815260200191508051906020019060200280838360005b838110156101f25780820151818401526020810190506101d7565b50505050905001935050505060405180910390f35b61025f6004803603606081101561021d57600080fd5b8101908080359060200190929190803563ffffffff16906020019092919080356fffffffffffffffffffffffffffffffff169060200190929190505050610acc565b604051808215151515815260200191505060405180910390f35b610281610de4565b604051808273ffffffffffffffffffffffffffffffffffffffff1673ffffffffffffffffffffffffffffffffffffffff16815260200191505060405180910390f35b6102ef600480360360208110156102d957600080fd5b8101908080359060200190929190505050610e0a565b6040518082815260200191505060405180910390f35b6103656004803603608081101561031b57600080fd5b8101908080359060200190929190803563ffffffff169060200190929190803563ffffffff169060200190929190803567ffffffffffffffff169060200190929190505050610e2d565b604051808215151515815260200191505060405180910390f35b6103ab6004803603602081101561039557600080fd5b8101908080359060200190929190505050611069565b604051808215151515815260200191505060405180910390f35b6103f1600480360360208110156103db57600080fd5b8101908080359060200190929190505050611172565b60405180848152602001838152602001828152602001935050505060405180910390f35b6104416004803603602081101561042b57600080fd5b81019080803590602001909291905050506112d8565b60405180848152602001838152602001828152602001935050505060405180910390f35b6104916004803603602081101561047b57600080fd5b810190808035906020019092919050505061144b565b6040518080602001838152602001828103825284818151815260200191508051906020019060200280838360005b838110156104da5780820151818401526020810190506104bf565b50505050905001935050505060405180910390f35b61051b6004803603602081101561050557600080fd5b810190808035906020019092919050505061182e565b60405180856fffffffffffffffffffffffffffffffff166fffffffffffffffffffffffffffffffff1681526020018463ffffffff1663ffffffff1681526020018363ffffffff1663ffffffff1681526020018263ffffffff1663ffffffff16815260200194505050505060405180910390f35b6105ba600480360360208110156105a457600080fd5b81019080803590602001909291905050506118aa565b604051808563ffffffff1663ffffffff1681526020018463ffffffff1663ffffffff1681526020018363ffffffff1663ffffffff1681526020018267ffffffffffffffff1667ffffffffffffffff16815260200194505050505060405180910390f35b60028181548110151561062c57fe5b906000526020600020016000915090505481565b600760009054906101000a900473ffffffffffffffffffffffffffffffffffffffff1681565b60606000600660009054906101000a900473ffffffffffffffffffffffffffffffffffffffff1673ffffffffffffffffffffffffffffffffffffffff163373ffffffffffffffffffffffffffffffffffffffff1614151561072f576040517f08c379a00000000000000000000000000000000000000000000000000000000081526004018080602001828103825260208152602001807f4f776e65722054696d65416c6c792073686f756c642062652063616c6c696e6781525060200191505060405180910390fd5b6060600061073b611b40565b60006004549050600060028054905061075d898461191e90919063ffffffff16565b101515610771576002805490509050610787565b610784888361191e90919063ffffffff16565b90505b5b80821015610a835760006002838154811015156107a157fe5b9060005260206000200154905060016000828152602001908152602001600020608060405190810160405290816000820160009054906101000a900463ffffffff1663ffffffff1663ffffffff1681526020016000820160049054906101000a900463ffffffff1663ffffffff1663ffffffff1681526020016000820160089054906101000a900463ffffffff1663ffffffff1663ffffffff16815260200160008201600c9054906101000a900467ffffffffffffffff1667ffffffffffffffff1667ffffffffffffffff168152505093508094506080846060015167ffffffffffffffff169060020a0267ffffffffffffffff1685179450848687518151811015156108aa57fe5b90602001906020020181815250507fe23275393c32ee6d4b10b72e5ff7c46995381da1e2e44394ed3977a6311ce61d8185602001518660600151604051808481526020018363ffffffff1681526020018267ffffffffffffffff168152602001935050505060405180910390a183602001805180919060010163ffffffff1663ffffffff1681525050836001600083815260200190815260200160002060008201518160000160006101000a81548163ffffffff021916908363ffffffff16021790555060208201518160000160046101000a81548163ffffffff021916908363ffffffff16021790555060408201518160000160086101000a81548163ffffffff021916908363ffffffff160217905550606082015181600001600c6101000a81548167ffffffffffffffff021916908367ffffffffffffffff160217905550905050836000015163ffffffff16846020015163ffffffff161415610a7457610a17846040015161193f565b1515610a2257600080fd5b7f477bfc4e57aadef7233905796ce664e856977e27ebcc57d63ac571abe59b5f15816040518082815260200191505060405180910390a1610a6d600183611a2f90919063ffffffff16565b9150610a7d565b82806001019350505b50610788565b600280549050811415610a9d576000600481905550610aa5565b806004819055505b84610abe82600280549050611a2f90919063ffffffff16565b965096505050505050915091565b6000600660009054906101000a900473ffffffffffffffffffffffffffffffffffffffff1673ffffffffffffffffffffffffffffffffffffffff163373ffffffffffffffffffffffffffffffffffffffff16141515610b93576040517f08c379a00000000000000000000000000000000000000000000000000000000081526004018080602001828103825260208152602001807f4f776e65722054696d65416c6c792073686f756c642062652063616c6c696e6781525060200191505060405180910390fd5b610b9b611b85565b83816020019063ffffffff16908163ffffffff16815250508281600001906fffffffffffffffffffffffffffffffff1690816fffffffffffffffffffffffffffffffff1681525050600760009054906101000a900473ffffffffffffffffffffffffffffffffffffffff1673ffffffffffffffffffffffffffffffffffffffff1663b81f90f36040518163ffffffff167c010000000000000000000000000000000000000000000000000000000002815260040160206040518083038186803b158015610c6757600080fd5b505afa158015610c7b573d6000803e3d6000fd5b505050506040513d6020811015610c9157600080fd5b8101908080519060200190929190505050816040019063ffffffff16908163ffffffff1681525050610cf7600160038790806001815401808255809150509060018203906000526020600020016000909192909190915055611a2f90919063ffffffff16565b816060019063ffffffff16908163ffffffff16815250508060008087815260200190815260200160002060008201518160000160006101000a8154816fffffffffffffffffffffffffffffffff02191690836fffffffffffffffffffffffffffffffff16021790555060208201518160000160106101000a81548163ffffffff021916908363ffffffff16021790555060408201518160000160146101000a81548163ffffffff021916908363ffffffff16021790555060608201518160000160186101000a81548163ffffffff021916908363ffffffff16021790555090505060019150509392505050565b600660009054906101000a900473ffffffffffffffffffffffffffffffffffffffff1681565b600381815481101515610e1957fe5b906000526020600020016000915090505481565b6000600660009054906101000a900473ffffffffffffffffffffffffffffffffffffffff1673ffffffffffffffffffffffffffffffffffffffff163373ffffffffffffffffffffffffffffffffffffffff16141515610ef4576040517f08c379a00000000000000000000000000000000000000000000000000000000081526004018080602001828103825260208152602001807f4f776e65722054696d65416c6c792073686f756c642062652063616c6c696e6781525060200191505060405180910390fd5b610efc611b40565b84816000019063ffffffff16908163ffffffff168152505083816020019063ffffffff16908163ffffffff168152505082816060019067ffffffffffffffff16908167ffffffffffffffff1681525050610f8a600160028890806001815401808255809150509060018203906000526020600020016000909192909190915055611a2f90919063ffffffff16565b816040019063ffffffff16908163ffffffff1681525050806001600088815260200190815260200160002060008201518160000160006101000a81548163ffffffff021916908363ffffffff16021790555060208201518160000160046101000a81548163ffffffff021916908363ffffffff16021790555060408201518160000160086101000a81548163ffffffff021916908363ffffffff160217905550606082015181600001600c6101000a81548167ffffffffffffffff021916908367ffffffffffffffff1602179055509050506001915050949350505050565b6000600660009054906101000a900473ffffffffffffffffffffffffffffffffffffffff1673ffffffffffffffffffffffffffffffffffffffff163373ffffffffffffffffffffffffffffffffffffffff16141515611130576040517f08c379a00000000000000000000000000000000000000000000000000000000081526004018080602001828103825260208152602001807f4f776e65722054696d65416c6c792073686f756c642062652063616c6c696e6781525060200191505060405180910390fd5b61115e60008084815260200190815260200160002060000160189054906101000a900463ffffffff16611a51565b151561116957600080fd5b60019050919050565b6000806000600660009054906101000a900473ffffffffffffffffffffffffffffffffffffffff1673ffffffffffffffffffffffffffffffffffffffff163373ffffffffffffffffffffffffffffffffffffffff1614151561123c576040517f08c379a00000000000000000000000000000000000000000000000000000000081526004018080602001828103825260208152602001807f4f776e65722054696d65416c6c792073686f756c642062652063616c6c696e6781525060200191505060405180910390fd5b6001600085815260200190815260200160002060000160009054906101000a900463ffffffff1663ffffffff166001600086815260200190815260200160002060000160049054906101000a900463ffffffff1663ffffffff1660016000878152602001908152602001600020600001600c9054906101000a900467ffffffffffffffff1667ffffffffffffffff169250925092509193909250565b6000806000600660009054906101000a900473ffffffffffffffffffffffffffffffffffffffff1673ffffffffffffffffffffffffffffffffffffffff163373ffffffffffffffffffffffffffffffffffffffff161415156113a2576040517f08c379a00000000000000000000000000000000000000000000000000000000081526004018080602001828103825260208152602001807f4f776e65722054696d65416c6c792073686f756c642062652063616c6c696e6781525060200191505060405180910390fd5b60008085815260200190815260200160002060000160109054906101000a900463ffffffff1663ffffffff1660008086815260200190815260200160002060000160149054906101000a900463ffffffff1663ffffffff1660008087815260200190815260200160002060000160009054906101000a90046fffffffffffffffffffffffffffffffff166fffffffffffffffffffffffffffffffff169250925092509193909250565b60606000600660009054906101000a900473ffffffffffffffffffffffffffffffffffffffff1673ffffffffffffffffffffffffffffffffffffffff163373ffffffffffffffffffffffffffffffffffffffff16141515611514576040517f08c379a00000000000000000000000000000000000000000000000000000000081526004018080602001828103825260208152602001807f4f776e65722054696d65416c6c792073686f756c642062652063616c6c696e6781525060200191505060405180910390fd5b606061151e611b85565b600060055490506000600380549050611540888461191e90919063ffffffff16565b10151561155457600380549050905061156a565b611567878361191e90919063ffffffff16565b90505b5b808210156117e657600060038381548110151561158457fe5b90600052602060002001549050600080828152602001908152602001600020608060405190810160405290816000820160009054906101000a90046fffffffffffffffffffffffffffffffff166fffffffffffffffffffffffffffffffff166fffffffffffffffffffffffffffffffff1681526020016000820160109054906101000a900463ffffffff1663ffffffff1663ffffffff1681526020016000820160149054906101000a900463ffffffff1663ffffffff1663ffffffff1681526020016000820160189054906101000a900463ffffffff1663ffffffff1663ffffffff16815250509350836020015163ffffffff16611753856040015163ffffffff16600760009054906101000a900473ffffffffffffffffffffffffffffffffffffffff1673ffffffffffffffffffffffffffffffffffffffff1663b81f90f36040518163ffffffff167c010000000000000000000000000000000000000000000000000000000002815260040160206040518083038186803b15801561170a57600080fd5b505afa15801561171e573d6000803e3d6000fd5b505050506040513d602081101561173457600080fd5b8101908080519060200190929190505050611a2f90919063ffffffff16565b11156117d7578085865181518110151561176957fe5b90602001906020020181815250506117848460600151611a51565b507f0789b7097e8066538cfaa1132488b132e14ba5f0c938c8b7aaf8cf40356aab0b816040518082815260200191505060405180910390a16117d0600183611a2f90919063ffffffff16565b91506117e0565b82806001019350505b5061156b565b600380549050811415611800576000600581905550611808565b806005819055505b8361182182600380549050611a2f90919063ffffffff16565b9550955050505050915091565b60006020528060005260406000206000915090508060000160009054906101000a90046fffffffffffffffffffffffffffffffff16908060000160109054906101000a900463ffffffff16908060000160149054906101000a900463ffffffff16908060000160189054906101000a900463ffffffff16905084565b60016020528060005260406000206000915090508060000160009054906101000a900463ffffffff16908060000160049054906101000a900463ffffffff16908060000160089054906101000a900463ffffffff169080600001600c9054906101000a900467ffffffffffffffff16905084565b600080828401905083811015151561193557600080fd5b8091505092915050565b60006002805490508263ffffffff1610151561195a57600080fd5b60006119756001600280549050611a2f90919063ffffffff16565b9050826001600060028481548110151561198b57fe5b9060005260206000200154815260200190815260200160002060000160086101000a81548163ffffffff021916908363ffffffff1602179055506002818154811015156119d457fe5b906000526020600020015460028463ffffffff168154811015156119f457fe5b906000526020600020018190555060028054801515611a0f57fe5b600190038181906000526020600020016000905590556001915050919050565b6000828211151515611a4057600080fd5b600082840390508091505092915050565b60006003805490508263ffffffff16101515611a6c57600080fd5b6000611a876001600380549050611a2f90919063ffffffff16565b905082600080600384815481101515611a9c57fe5b9060005260206000200154815260200190815260200160002060000160186101000a81548163ffffffff021916908363ffffffff160217905550600381815481101515611ae557fe5b906000526020600020015460038463ffffffff16815481101515611b0557fe5b906000526020600020018190555060038054801515611b2057fe5b600190038181906000526020600020016000905590556001915050919050565b608060405190810160405280600063ffffffff168152602001600063ffffffff168152602001600063ffffffff168152602001600067ffffffffffffffff1681525090565b60806040519081016040528060006fffffffffffffffffffffffffffffffff168152602001600063ffffffff168152602001600063ffffffff168152602001600063ffffffff168152509056fea165627a7a72305820cff3b4939713b6f418cd62dc3ebc904b5f697f8cbeeaf9fe2097e2892cd92f450029","opcodes":"PUSH1 0x80 PUSH1 0x40 MSTORE CALLVALUE DUP1 ISZERO PUSH2 0x10 JUMPI PUSH1 0x0 DUP1 REVERT JUMPDEST POP PUSH1 0x40 MLOAD PUSH1 0x40 DUP1 PUSH2 0x1CDC DUP4 CODECOPY DUP2 ADD DUP1 PUSH1 0x40 MSTORE PUSH1 0x40 DUP2 LT ISZERO PUSH2 0x30 JUMPI PUSH1 0x0 DUP1 REVERT JUMPDEST DUP2 ADD SWAP1 DUP1 DUP1 MLOAD SWAP1 PUSH1 0x20 ADD SWAP1 SWAP3 SWAP2 SWAP1 DUP1 MLOAD SWAP1 PUSH1 0x20 ADD SWAP1 SWAP3 SWAP2 SWAP1 POP POP POP DUP2 PUSH1 0x6 PUSH1 0x0 PUSH2 0x100 EXP DUP2 SLOAD DUP2 PUSH20 0xFFFFFFFFFFFFFFFFFFFFFFFFFFFFFFFFFFFFFFFF MUL NOT AND SWAP1 DUP4 PUSH20 0xFFFFFFFFFFFFFFFFFFFFFFFFFFFFFFFFFFFFFFFF AND MUL OR SWAP1 SSTORE POP DUP1 PUSH1 0x7 PUSH1 0x0 PUSH2 0x100 EXP DUP2 SLOAD DUP2 PUSH20 0xFFFFFFFFFFFFFFFFFFFFFFFFFFFFFFFFFFFFFFFF MUL NOT AND SWAP1 DUP4 PUSH20 0xFFFFFFFFFFFFFFFFFFFFFFFFFFFFFFFFFFFFFFFF AND MUL OR SWAP1 SSTORE POP POP POP PUSH2 0x1BFE DUP1 PUSH2 0xDE PUSH1 0x0 CODECOPY PUSH1 0x0 RETURN INVALID PUSH1 0x80 PUSH1 0x40 MSTORE CALLVALUE DUP1 ISZERO PUSH2 0x10 JUMPI PUSH1 0x0 DUP1 REVERT JUMPDEST POP PUSH1 0x4 CALLDATASIZE LT PUSH2 0xEC JUMPI PUSH1 0x0 CALLDATALOAD PUSH29 0x100000000000000000000000000000000000000000000000000000000 SWAP1 DIV DUP1 PUSH4 0x8796CE98 GT PUSH2 0xA9 JUMPI DUP1 PUSH4 0xD028AA62 GT PUSH2 0x83 JUMPI DUP1 PUSH4 0xD028AA62 EQ PUSH2 0x415 JUMPI DUP1 PUSH4 0xD107A0FA EQ PUSH2 0x465 JUMPI DUP1 PUSH4 0xE1EC3C68 EQ PUSH2 0x4EF JUMPI DUP1 PUSH4 0xE36BD0F3 EQ PUSH2 0x58E JUMPI PUSH2 0xEC JUMP JUMPDEST DUP1 PUSH4 0x8796CE98 EQ PUSH2 0x305 JUMPI DUP1 PUSH4 0xA8818CF1 EQ PUSH2 0x37F JUMPI DUP1 PUSH4 0xCCC2512B EQ PUSH2 0x3C5 JUMPI PUSH2 0xEC JUMP JUMPDEST DUP1 PUSH4 0x16503E61 EQ PUSH2 0xF1 JUMPI DUP1 PUSH4 0x2CDB8CC6 EQ PUSH2 0x133 JUMPI DUP1 PUSH4 0x46514268 EQ PUSH2 0x17D JUMPI DUP1 PUSH4 0x59E0BB01 EQ PUSH2 0x207 JUMPI DUP1 PUSH4 0x682667A9 EQ PUSH2 0x279 JUMPI DUP1 PUSH4 0x7621710C EQ PUSH2 0x2C3 JUMPI JUMPDEST PUSH1 0x0 DUP1 REVERT JUMPDEST PUSH2 0x11D PUSH1 0x4 DUP1 CALLDATASIZE SUB PUSH1 0x20 DUP2 LT ISZERO PUSH2 0x107 JUMPI PUSH1 0x0 DUP1 REVERT JUMPDEST DUP2 ADD SWAP1 DUP1 DUP1 CALLDATALOAD SWAP1 PUSH1 0x20 ADD SWAP1 SWAP3 SWAP2 SWAP1 POP POP POP PUSH2 0x61D JUMP JUMPDEST PUSH1 0x40 MLOAD DUP1 DUP3 DUP2 MSTORE PUSH1 0x20 ADD SWAP2 POP POP PUSH1 0x40 MLOAD DUP1 SWAP2 SUB SWAP1 RETURN JUMPDEST PUSH2 0x13B PUSH2 0x640 JUMP JUMPDEST PUSH1 0x40 MLOAD DUP1 DUP3 PUSH20 0xFFFFFFFFFFFFFFFFFFFFFFFFFFFFFFFFFFFFFFFF AND PUSH20 0xFFFFFFFFFFFFFFFFFFFFFFFFFFFFFFFFFFFFFFFF AND DUP2 MSTORE PUSH1 0x20 ADD SWAP2 POP POP PUSH1 0x40 MLOAD DUP1 SWAP2 SUB SWAP1 RETURN JUMPDEST PUSH2 0x1A9 PUSH1 0x4 DUP1 CALLDATASIZE SUB PUSH1 0x20 DUP2 LT ISZERO PUSH2 0x193 JUMPI PUSH1 0x0 DUP1 REVERT JUMPDEST DUP2 ADD SWAP1 DUP1 DUP1 CALLDATALOAD SWAP1 PUSH1 0x20 ADD SWAP1 SWAP3 SWAP2 SWAP1 POP POP POP PUSH2 0x666 JUMP JUMPDEST PUSH1 0x40 MLOAD DUP1 DUP1 PUSH1 0x20 ADD DUP4 DUP2 MSTORE PUSH1 0x20 ADD DUP3 DUP2 SUB DUP3 MSTORE DUP5 DUP2 DUP2 MLOAD DUP2 MSTORE PUSH1 0x20 ADD SWAP2 POP DUP1 MLOAD SWAP1 PUSH1 0x20 ADD SWAP1 PUSH1 0x20 MUL DUP1 DUP4 DUP4 PUSH1 0x0 JUMPDEST DUP4 DUP2 LT ISZERO PUSH2 0x1F2 JUMPI DUP1 DUP3 ADD MLOAD DUP2 DUP5 ADD MSTORE PUSH1 0x20 DUP2 ADD SWAP1 POP PUSH2 0x1D7 JUMP JUMPDEST POP POP POP POP SWAP1 POP ADD SWAP4 POP POP POP POP PUSH1 0x40 MLOAD DUP1 SWAP2 SUB SWAP1 RETURN JUMPDEST PUSH2 0x25F PUSH1 0x4 DUP1 CALLDATASIZE SUB PUSH1 0x60 DUP2 LT ISZERO PUSH2 0x21D JUMPI PUSH1 0x0 DUP1 REVERT JUMPDEST DUP2 ADD SWAP1 DUP1 DUP1 CALLDATALOAD SWAP1 PUSH1 0x20 ADD SWAP1 SWAP3 SWAP2 SWAP1 DUP1 CALLDATALOAD PUSH4 0xFFFFFFFF AND SWAP1 PUSH1 0x20 ADD SWAP1 SWAP3 SWAP2 SWAP1 DUP1 CALLDATALOAD PUSH16 0xFFFFFFFFFFFFFFFFFFFFFFFFFFFFFFFF AND SWAP1 PUSH1 0x20 ADD SWAP1 SWAP3 SWAP2 SWAP1 POP POP POP PUSH2 0xACC JUMP JUMPDEST PUSH1 0x40 MLOAD DUP1 DUP3 ISZERO ISZERO ISZERO ISZERO DUP2 MSTORE PUSH1 0x20 ADD SWAP2 POP POP PUSH1 0x40 MLOAD DUP1 SWAP2 SUB SWAP1 RETURN JUMPDEST PUSH2 0x281 PUSH2 0xDE4 JUMP JUMPDEST PUSH1 0x40 MLOAD DUP1 DUP3 PUSH20 0xFFFFFFFFFFFFFFFFFFFFFFFFFFFFFFFFFFFFFFFF AND PUSH20 0xFFFFFFFFFFFFFFFFFFFFFFFFFFFFFFFFFFFFFFFF AND DUP2 MSTORE PUSH1 0x20 ADD SWAP2 POP POP PUSH1 0x40 MLOAD DUP1 SWAP2 SUB SWAP1 RETURN JUMPDEST PUSH2 0x2EF PUSH1 0x4 DUP1 CALLDATASIZE SUB PUSH1 0x20 DUP2 LT ISZERO PUSH2 0x2D9 JUMPI PUSH1 0x0 DUP1 REVERT JUMPDEST DUP2 ADD SWAP1 DUP1 DUP1 CALLDATALOAD SWAP1 PUSH1 0x20 ADD SWAP1 SWAP3 SWAP2 SWAP1 POP POP POP PUSH2 0xE0A JUMP JUMPDEST PUSH1 0x40 MLOAD DUP1 DUP3 DUP2 MSTORE PUSH1 0x20 ADD SWAP2 POP POP PUSH1 0x40 MLOAD DUP1 SWAP2 SUB SWAP1 RETURN JUMPDEST PUSH2 0x365 PUSH1 0x4 DUP1 CALLDATASIZE SUB PUSH1 0x80 DUP2 LT ISZERO PUSH2 0x31B JUMPI PUSH1 0x0 DUP1 REVERT JUMPDEST DUP2 ADD SWAP1 DUP1 DUP1 CALLDATALOAD SWAP1 PUSH1 0x20 ADD SWAP1 SWAP3 SWAP2 SWAP1 DUP1 CALLDATALOAD PUSH4 0xFFFFFFFF AND SWAP1 PUSH1 0x20 ADD SWAP1 SWAP3 SWAP2 SWAP1 DUP1 CALLDATALOAD PUSH4 0xFFFFFFFF AND SWAP1 PUSH1 0x20 ADD SWAP1 SWAP3 SWAP2 SWAP1 DUP1 CALLDATALOAD PUSH8 0xFFFFFFFFFFFFFFFF AND SWAP1 PUSH1 0x20 ADD SWAP1 SWAP3 SWAP2 SWAP1 POP POP POP PUSH2 0xE2D JUMP JUMPDEST PUSH1 0x40 MLOAD DUP1 DUP3 ISZERO ISZERO ISZERO ISZERO DUP2 MSTORE PUSH1 0x20 ADD SWAP2 POP POP PUSH1 0x40 MLOAD DUP1 SWAP2 SUB SWAP1 RETURN JUMPDEST PUSH2 0x3AB PUSH1 0x4 DUP1 CALLDATASIZE SUB PUSH1 0x20 DUP2 LT ISZERO PUSH2 0x395 JUMPI PUSH1 0x0 DUP1 REVERT JUMPDEST DUP2 ADD SWAP1 DUP1 DUP1 CALLDATALOAD SWAP1 PUSH1 0x20 ADD SWAP1 SWAP3 SWAP2 SWAP1 POP POP POP PUSH2 0x1069 JUMP JUMPDEST PUSH1 0x40 MLOAD DUP1 DUP3 ISZERO ISZERO ISZERO ISZERO DUP2 MSTORE PUSH1 0x20 ADD SWAP2 POP POP PUSH1 0x40 MLOAD DUP1 SWAP2 SUB SWAP1 RETURN JUMPDEST PUSH2 0x3F1 PUSH1 0x4 DUP1 CALLDATASIZE SUB PUSH1 0x20 DUP2 LT ISZERO PUSH2 0x3DB JUMPI PUSH1 0x0 DUP1 REVERT JUMPDEST DUP2 ADD SWAP1 DUP1 DUP1 CALLDATALOAD SWAP1 PUSH1 0x20 ADD SWAP1 SWAP3 SWAP2 SWAP1 POP POP POP PUSH2 0x1172 JUMP JUMPDEST PUSH1 0x40 MLOAD DUP1 DUP5 DUP2 MSTORE PUSH1 0x20 ADD DUP4 DUP2 MSTORE PUSH1 0x20 ADD DUP3 DUP2 MSTORE PUSH1 0x20 ADD SWAP4 POP POP POP POP PUSH1 0x40 MLOAD DUP1 SWAP2 SUB SWAP1 RETURN JUMPDEST PUSH2 0x441 PUSH1 0x4 DUP1 CALLDATASIZE SUB PUSH1 0x20 DUP2 LT ISZERO PUSH2 0x42B JUMPI PUSH1 0x0 DUP1 REVERT JUMPDEST DUP2 ADD SWAP1 DUP1 DUP1 CALLDATALOAD SWAP1 PUSH1 0x20 ADD SWAP1 SWAP3 SWAP2 SWAP1 POP POP POP PUSH2 0x12D8 JUMP JUMPDEST PUSH1 0x40 MLOAD DUP1 DUP5 DUP2 MSTORE PUSH1 0x20 ADD DUP4 DUP2 MSTORE PUSH1 0x20 ADD DUP3 DUP2 MSTORE PUSH1 0x20 ADD SWAP4 POP POP POP POP PUSH1 0x40 MLOAD DUP1 SWAP2 SUB SWAP1 RETURN JUMPDEST PUSH2 0x491 PUSH1 0x4 DUP1 CALLDATASIZE SUB PUSH1 0x20 DUP2 LT ISZERO PUSH2 0x47B JUMPI PUSH1 0x0 DUP1 REVERT JUMPDEST DUP2 ADD SWAP1 DUP1 DUP1 CALLDATALOAD SWAP1 PUSH1 0x20 ADD SWAP1 SWAP3 SWAP2 SWAP1 POP POP POP PUSH2 0x144B JUMP JUMPDEST PUSH1 0x40 MLOAD DUP1 DUP1 PUSH1 0x20 ADD DUP4 DUP2 MSTORE PUSH1 0x20 ADD DUP3 DUP2 SUB DUP3 MSTORE DUP5 DUP2 DUP2 MLOAD DUP2 MSTORE PUSH1 0x20 ADD SWAP2 POP DUP1 MLOAD SWAP1 PUSH1 0x20 ADD SWAP1 PUSH1 0x20 MUL DUP1 DUP4 DUP4 PUSH1 0x0 JUMPDEST DUP4 DUP2 LT ISZERO PUSH2 0x4DA JUMPI DUP1 DUP3 ADD MLOAD DUP2 DUP5 ADD MSTORE PUSH1 0x20 DUP2 ADD SWAP1 POP PUSH2 0x4BF JUMP JUMPDEST POP POP POP POP SWAP1 POP ADD SWAP4 POP POP POP POP PUSH1 0x40 MLOAD DUP1 SWAP2 SUB SWAP1 RETURN JUMPDEST PUSH2 0x51B PUSH1 0x4 DUP1 CALLDATASIZE SUB PUSH1 0x20 DUP2 LT ISZERO PUSH2 0x505 JUMPI PUSH1 0x0 DUP1 REVERT JUMPDEST DUP2 ADD SWAP1 DUP1 DUP1 CALLDATALOAD SWAP1 PUSH1 0x20 ADD SWAP1 SWAP3 SWAP2 SWAP1 POP POP POP PUSH2 0x182E JUMP JUMPDEST PUSH1 0x40 MLOAD DUP1 DUP6 PUSH16 0xFFFFFFFFFFFFFFFFFFFFFFFFFFFFFFFF AND PUSH16 0xFFFFFFFFFFFFFFFFFFFFFFFFFFFFFFFF AND DUP2 MSTORE PUSH1 0x20 ADD DUP5 PUSH4 0xFFFFFFFF AND PUSH4 0xFFFFFFFF AND DUP2 MSTORE PUSH1 0x20 ADD DUP4 PUSH4 0xFFFFFFFF AND PUSH4 0xFFFFFFFF AND DUP2 MSTORE PUSH1 0x20 ADD DUP3 PUSH4 0xFFFFFFFF AND PUSH4 0xFFFFFFFF AND DUP2 MSTORE PUSH1 0x20 ADD SWAP5 POP POP POP POP POP PUSH1 0x40 MLOAD DUP1 SWAP2 SUB SWAP1 RETURN JUMPDEST PUSH2 0x5BA PUSH1 0x4 DUP1 CALLDATASIZE SUB PUSH1 0x20 DUP2 LT ISZERO PUSH2 0x5A4 JUMPI PUSH1 0x0 DUP1 REVERT JUMPDEST DUP2 ADD SWAP1 DUP1 DUP1 CALLDATALOAD SWAP1 PUSH1 0x20 ADD SWAP1 SWAP3 SWAP2 SWAP1 POP POP POP PUSH2 0x18AA JUMP JUMPDEST PUSH1 0x40 MLOAD DUP1 DUP6 PUSH4 0xFFFFFFFF AND PUSH4 0xFFFFFFFF AND DUP2 MSTORE PUSH1 0x20 ADD DUP5 PUSH4 0xFFFFFFFF AND PUSH4 0xFFFFFFFF AND DUP2 MSTORE PUSH1 0x20 ADD DUP4 PUSH4 0xFFFFFFFF AND PUSH4 0xFFFFFFFF AND DUP2 MSTORE PUSH1 0x20 ADD DUP3 PUSH8 0xFFFFFFFFFFFFFFFF AND PUSH8 0xFFFFFFFFFFFFFFFF AND DUP2 MSTORE PUSH1 0x20 ADD SWAP5 POP POP POP POP POP PUSH1 0x40 MLOAD DUP1 SWAP2 SUB SWAP1 RETURN JUMPDEST PUSH1 0x2 DUP2 DUP2 SLOAD DUP2 LT ISZERO ISZERO PUSH2 0x62C JUMPI INVALID JUMPDEST SWAP1 PUSH1 0x0 MSTORE PUSH1 0x20 PUSH1 0x0 KECCAK256 ADD PUSH1 0x0 SWAP2 POP SWAP1 POP SLOAD DUP2 JUMP JUMPDEST PUSH1 0x7 PUSH1 0x0 SWAP1 SLOAD SWAP1 PUSH2 0x100 EXP SWAP1 DIV PUSH20 0xFFFFFFFFFFFFFFFFFFFFFFFFFFFFFFFFFFFFFFFF AND DUP2 JUMP JUMPDEST PUSH1 0x60 PUSH1 0x0 PUSH1 0x6 PUSH1 0x0 SWAP1 SLOAD SWAP1 PUSH2 0x100 EXP SWAP1 DIV PUSH20 0xFFFFFFFFFFFFFFFFFFFFFFFFFFFFFFFFFFFFFFFF AND PUSH20 0xFFFFFFFFFFFFFFFFFFFFFFFFFFFFFFFFFFFFFFFF AND CALLER PUSH20 0xFFFFFFFFFFFFFFFFFFFFFFFFFFFFFFFFFFFFFFFF AND EQ ISZERO ISZERO PUSH2 0x72F JUMPI PUSH1 0x40 MLOAD PUSH32 0x8C379A000000000000000000000000000000000000000000000000000000000 DUP2 MSTORE PUSH1 0x4 ADD DUP1 DUP1 PUSH1 0x20 ADD DUP3 DUP2 SUB DUP3 MSTORE PUSH1 0x20 DUP2 MSTORE PUSH1 0x20 ADD DUP1 PUSH32 0x4F776E65722054696D65416C6C792073686F756C642062652063616C6C696E67 DUP2 MSTORE POP PUSH1 0x20 ADD SWAP2 POP POP PUSH1 0x40 MLOAD DUP1 SWAP2 SUB SWAP1 REVERT JUMPDEST PUSH1 0x60 PUSH1 0x0 PUSH2 0x73B PUSH2 0x1B40 JUMP JUMPDEST PUSH1 0x0 PUSH1 0x4 SLOAD SWAP1 POP PUSH1 0x0 PUSH1 0x2 DUP1 SLOAD SWAP1 POP PUSH2 0x75D DUP10 DUP5 PUSH2 0x191E SWAP1 SWAP2 SWAP1 PUSH4 0xFFFFFFFF AND JUMP JUMPDEST LT ISZERO ISZERO PUSH2 0x771 JUMPI PUSH1 0x2 DUP1 SLOAD SWAP1 POP SWAP1 POP PUSH2 0x787 JUMP JUMPDEST PUSH2 0x784 DUP9 DUP4 PUSH2 0x191E SWAP1 SWAP2 SWAP1 PUSH4 0xFFFFFFFF AND JUMP JUMPDEST SWAP1 POP JUMPDEST JUMPDEST DUP1 DUP3 LT ISZERO PUSH2 0xA83 JUMPI PUSH1 0x0 PUSH1 0x2 DUP4 DUP2 SLOAD DUP2 LT ISZERO ISZERO PUSH2 0x7A1 JUMPI INVALID JUMPDEST SWAP1 PUSH1 0x0 MSTORE PUSH1 0x20 PUSH1 0x0 KECCAK256 ADD SLOAD SWAP1 POP PUSH1 0x1 PUSH1 0x0 DUP3 DUP2 MSTORE PUSH1 0x20 ADD SWAP1 DUP2 MSTORE PUSH1 0x20 ADD PUSH1 0x0 KECCAK256 PUSH1 0x80 PUSH1 0x40 MLOAD SWAP1 DUP2 ADD PUSH1 0x40 MSTORE SWAP1 DUP2 PUSH1 0x0 DUP3 ADD PUSH1 0x0 SWAP1 SLOAD SWAP1 PUSH2 0x100 EXP SWAP1 DIV PUSH4 0xFFFFFFFF AND PUSH4 0xFFFFFFFF AND PUSH4 0xFFFFFFFF AND DUP2 MSTORE PUSH1 0x20 ADD PUSH1 0x0 DUP3 ADD PUSH1 0x4 SWAP1 SLOAD SWAP1 PUSH2 0x100 EXP SWAP1 DIV PUSH4 0xFFFFFFFF AND PUSH4 0xFFFFFFFF AND PUSH4 0xFFFFFFFF AND DUP2 MSTORE PUSH1 0x20 ADD PUSH1 0x0 DUP3 ADD PUSH1 0x8 SWAP1 SLOAD SWAP1 PUSH2 0x100 EXP SWAP1 DIV PUSH4 0xFFFFFFFF AND PUSH4 0xFFFFFFFF AND PUSH4 0xFFFFFFFF AND DUP2 MSTORE PUSH1 0x20 ADD PUSH1 0x0 DUP3 ADD PUSH1 0xC SWAP1 SLOAD SWAP1 PUSH2 0x100 EXP SWAP1 DIV PUSH8 0xFFFFFFFFFFFFFFFF AND PUSH8 0xFFFFFFFFFFFFFFFF AND PUSH8 0xFFFFFFFFFFFFFFFF AND DUP2 MSTORE POP POP SWAP4 POP DUP1 SWAP5 POP PUSH1 0x80 DUP5 PUSH1 0x60 ADD MLOAD PUSH8 0xFFFFFFFFFFFFFFFF AND SWAP1 PUSH1 0x2 EXP MUL PUSH8 0xFFFFFFFFFFFFFFFF AND DUP6 OR SWAP5 POP DUP5 DUP7 DUP8 MLOAD DUP2 MLOAD DUP2 LT ISZERO ISZERO PUSH2 0x8AA JUMPI INVALID JUMPDEST SWAP1 PUSH1 0x20 ADD SWAP1 PUSH1 0x20 MUL ADD DUP2 DUP2 MSTORE POP POP PUSH32 0xE23275393C32EE6D4B10B72E5FF7C46995381DA1E2E44394ED3977A6311CE61D DUP2 DUP6 PUSH1 0x20 ADD MLOAD DUP7 PUSH1 0x60 ADD MLOAD PUSH1 0x40 MLOAD DUP1 DUP5 DUP2 MSTORE PUSH1 0x20 ADD DUP4 PUSH4 0xFFFFFFFF AND DUP2 MSTORE PUSH1 0x20 ADD DUP3 PUSH8 0xFFFFFFFFFFFFFFFF AND DUP2 MSTORE PUSH1 0x20 ADD SWAP4 POP POP POP POP PUSH1 0x40 MLOAD DUP1 SWAP2 SUB SWAP1 LOG1 DUP4 PUSH1 0x20 ADD DUP1 MLOAD DUP1 SWAP2 SWAP1 PUSH1 0x1 ADD PUSH4 0xFFFFFFFF AND PUSH4 0xFFFFFFFF AND DUP2 MSTORE POP POP DUP4 PUSH1 0x1 PUSH1 0x0 DUP4 DUP2 MSTORE PUSH1 0x20 ADD SWAP1 DUP2 MSTORE PUSH1 0x20 ADD PUSH1 0x0 KECCAK256 PUSH1 0x0 DUP3 ADD MLOAD DUP2 PUSH1 0x0 ADD PUSH1 0x0 PUSH2 0x100 EXP DUP2 SLOAD DUP2 PUSH4 0xFFFFFFFF MUL NOT AND SWAP1 DUP4 PUSH4 0xFFFFFFFF AND MUL OR SWAP1 SSTORE POP PUSH1 0x20 DUP3 ADD MLOAD DUP2 PUSH1 0x0 ADD PUSH1 0x4 PUSH2 0x100 EXP DUP2 SLOAD DUP2 PUSH4 0xFFFFFFFF MUL NOT AND SWAP1 DUP4 PUSH4 0xFFFFFFFF AND MUL OR SWAP1 SSTORE POP PUSH1 0x40 DUP3 ADD MLOAD DUP2 PUSH1 0x0 ADD PUSH1 0x8 PUSH2 0x100 EXP DUP2 SLOAD DUP2 PUSH4 0xFFFFFFFF MUL NOT AND SWAP1 DUP4 PUSH4 0xFFFFFFFF AND MUL OR SWAP1 SSTORE POP PUSH1 0x60 DUP3 ADD MLOAD DUP2 PUSH1 0x0 ADD PUSH1 0xC PUSH2 0x100 EXP DUP2 SLOAD DUP2 PUSH8 0xFFFFFFFFFFFFFFFF MUL NOT AND SWAP1 DUP4 PUSH8 0xFFFFFFFFFFFFFFFF AND MUL OR SWAP1 SSTORE POP SWAP1 POP POP DUP4 PUSH1 0x0 ADD MLOAD PUSH4 0xFFFFFFFF AND DUP5 PUSH1 0x20 ADD MLOAD PUSH4 0xFFFFFFFF AND EQ ISZERO PUSH2 0xA74 JUMPI PUSH2 0xA17 DUP5 PUSH1 0x40 ADD MLOAD PUSH2 0x193F JUMP JUMPDEST ISZERO ISZERO PUSH2 0xA22 JUMPI PUSH1 0x0 DUP1 REVERT JUMPDEST PUSH32 0x477BFC4E57AADEF7233905796CE664E856977E27EBCC57D63AC571ABE59B5F15 DUP2 PUSH1 0x40 MLOAD DUP1 DUP3 DUP2 MSTORE PUSH1 0x20 ADD SWAP2 POP POP PUSH1 0x40 MLOAD DUP1 SWAP2 SUB SWAP1 LOG1 PUSH2 0xA6D PUSH1 0x1 DUP4 PUSH2 0x1A2F SWAP1 SWAP2 SWAP1 PUSH4 0xFFFFFFFF AND JUMP JUMPDEST SWAP2 POP PUSH2 0xA7D JUMP JUMPDEST DUP3 DUP1 PUSH1 0x1 ADD SWAP4 POP POP JUMPDEST POP PUSH2 0x788 JUMP JUMPDEST PUSH1 0x2 DUP1 SLOAD SWAP1 POP DUP2 EQ ISZERO PUSH2 0xA9D JUMPI PUSH1 0x0 PUSH1 0x4 DUP2 SWAP1 SSTORE POP PUSH2 0xAA5 JUMP JUMPDEST DUP1 PUSH1 0x4 DUP2 SWAP1 SSTORE POP JUMPDEST DUP5 PUSH2 0xABE DUP3 PUSH1 0x2 DUP1 SLOAD SWAP1 POP PUSH2 0x1A2F SWAP1 SWAP2 SWAP1 PUSH4 0xFFFFFFFF AND JUMP JUMPDEST SWAP7 POP SWAP7 POP POP POP POP POP POP SWAP2 POP SWAP2 JUMP JUMPDEST PUSH1 0x0 PUSH1 0x6 PUSH1 0x0 SWAP1 SLOAD SWAP1 PUSH2 0x100 EXP SWAP1 DIV PUSH20 0xFFFFFFFFFFFFFFFFFFFFFFFFFFFFFFFFFFFFFFFF AND PUSH20 0xFFFFFFFFFFFFFFFFFFFFFFFFFFFFFFFFFFFFFFFF AND CALLER PUSH20 0xFFFFFFFFFFFFFFFFFFFFFFFFFFFFFFFFFFFFFFFF AND EQ ISZERO ISZERO PUSH2 0xB93 JUMPI PUSH1 0x40 MLOAD PUSH32 0x8C379A000000000000000000000000000000000000000000000000000000000 DUP2 MSTORE PUSH1 0x4 ADD DUP1 DUP1 PUSH1 0x20 ADD DUP3 DUP2 SUB DUP3 MSTORE PUSH1 0x20 DUP2 MSTORE PUSH1 0x20 ADD DUP1 PUSH32 0x4F776E65722054696D65416C6C792073686F756C642062652063616C6C696E67 DUP2 MSTORE POP PUSH1 0x20 ADD SWAP2 POP POP PUSH1 0x40 MLOAD DUP1 SWAP2 SUB SWAP1 REVERT JUMPDEST PUSH2 0xB9B PUSH2 0x1B85 JUMP JUMPDEST DUP4 DUP2 PUSH1 0x20 ADD SWAP1 PUSH4 0xFFFFFFFF AND SWAP1 DUP2 PUSH4 0xFFFFFFFF AND DUP2 MSTORE POP POP DUP3 DUP2 PUSH1 0x0 ADD SWAP1 PUSH16 0xFFFFFFFFFFFFFFFFFFFFFFFFFFFFFFFF AND SWAP1 DUP2 PUSH16 0xFFFFFFFFFFFFFFFFFFFFFFFFFFFFFFFF AND DUP2 MSTORE POP POP PUSH1 0x7 PUSH1 0x0 SWAP1 SLOAD SWAP1 PUSH2 0x100 EXP SWAP1 DIV PUSH20 0xFFFFFFFFFFFFFFFFFFFFFFFFFFFFFFFFFFFFFFFF AND PUSH20 0xFFFFFFFFFFFFFFFFFFFFFFFFFFFFFFFFFFFFFFFF AND PUSH4 0xB81F90F3 PUSH1 0x40 MLOAD DUP2 PUSH4 0xFFFFFFFF AND PUSH29 0x100000000000000000000000000000000000000000000000000000000 MUL DUP2 MSTORE PUSH1 0x4 ADD PUSH1 0x20 PUSH1 0x40 MLOAD DUP1 DUP4 SUB DUP2 DUP7 DUP1 EXTCODESIZE ISZERO DUP1 ISZERO PUSH2 0xC67 JUMPI PUSH1 0x0 DUP1 REVERT JUMPDEST POP GAS STATICCALL ISZERO DUP1 ISZERO PUSH2 0xC7B JUMPI RETURNDATASIZE PUSH1 0x0 DUP1 RETURNDATACOPY RETURNDATASIZE PUSH1 0x0 REVERT JUMPDEST POP POP POP POP PUSH1 0x40 MLOAD RETURNDATASIZE PUSH1 0x20 DUP2 LT ISZERO PUSH2 0xC91 JUMPI PUSH1 0x0 DUP1 REVERT JUMPDEST DUP2 ADD SWAP1 DUP1 DUP1 MLOAD SWAP1 PUSH1 0x20 ADD SWAP1 SWAP3 SWAP2 SWAP1 POP POP POP DUP2 PUSH1 0x40 ADD SWAP1 PUSH4 0xFFFFFFFF AND SWAP1 DUP2 PUSH4 0xFFFFFFFF AND DUP2 MSTORE POP POP PUSH2 0xCF7 PUSH1 0x1 PUSH1 0x3 DUP8 SWAP1 DUP1 PUSH1 0x1 DUP2 SLOAD ADD DUP1 DUP3 SSTORE DUP1 SWAP2 POP POP SWAP1 PUSH1 0x1 DUP3 SUB SWAP1 PUSH1 0x0 MSTORE PUSH1 0x20 PUSH1 0x0 KECCAK256 ADD PUSH1 0x0 SWAP1 SWAP2 SWAP3 SWAP1 SWAP2 SWAP1 SWAP2 POP SSTORE PUSH2 0x1A2F SWAP1 SWAP2 SWAP1 PUSH4 0xFFFFFFFF AND JUMP JUMPDEST DUP2 PUSH1 0x60 ADD SWAP1 PUSH4 0xFFFFFFFF AND SWAP1 DUP2 PUSH4 0xFFFFFFFF AND DUP2 MSTORE POP POP DUP1 PUSH1 0x0 DUP1 DUP8 DUP2 MSTORE PUSH1 0x20 ADD SWAP1 DUP2 MSTORE PUSH1 0x20 ADD PUSH1 0x0 KECCAK256 PUSH1 0x0 DUP3 ADD MLOAD DUP2 PUSH1 0x0 ADD PUSH1 0x0 PUSH2 0x100 EXP DUP2 SLOAD DUP2 PUSH16 0xFFFFFFFFFFFFFFFFFFFFFFFFFFFFFFFF MUL NOT AND SWAP1 DUP4 PUSH16 0xFFFFFFFFFFFFFFFFFFFFFFFFFFFFFFFF AND MUL OR SWAP1 SSTORE POP PUSH1 0x20 DUP3 ADD MLOAD DUP2 PUSH1 0x0 ADD PUSH1 0x10 PUSH2 0x100 EXP DUP2 SLOAD DUP2 PUSH4 0xFFFFFFFF MUL NOT AND SWAP1 DUP4 PUSH4 0xFFFFFFFF AND MUL OR SWAP1 SSTORE POP PUSH1 0x40 DUP3 ADD MLOAD DUP2 PUSH1 0x0 ADD PUSH1 0x14 PUSH2 0x100 EXP DUP2 SLOAD DUP2 PUSH4 0xFFFFFFFF MUL NOT AND SWAP1 DUP4 PUSH4 0xFFFFFFFF AND MUL OR SWAP1 SSTORE POP PUSH1 0x60 DUP3 ADD MLOAD DUP2 PUSH1 0x0 ADD PUSH1 0x18 PUSH2 0x100 EXP DUP2 SLOAD DUP2 PUSH4 0xFFFFFFFF MUL NOT AND SWAP1 DUP4 PUSH4 0xFFFFFFFF AND MUL OR SWAP1 SSTORE POP SWAP1 POP POP PUSH1 0x1 SWAP2 POP POP SWAP4 SWAP3 POP POP POP JUMP JUMPDEST PUSH1 0x6 PUSH1 0x0 SWAP1 SLOAD SWAP1 PUSH2 0x100 EXP SWAP1 DIV PUSH20 0xFFFFFFFFFFFFFFFFFFFFFFFFFFFFFFFFFFFFFFFF AND DUP2 JUMP JUMPDEST PUSH1 0x3 DUP2 DUP2 SLOAD DUP2 LT ISZERO ISZERO PUSH2 0xE19 JUMPI INVALID JUMPDEST SWAP1 PUSH1 0x0 MSTORE PUSH1 0x20 PUSH1 0x0 KECCAK256 ADD PUSH1 0x0 SWAP2 POP SWAP1 POP SLOAD DUP2 JUMP JUMPDEST PUSH1 0x0 PUSH1 0x6 PUSH1 0x0 SWAP1 SLOAD SWAP1 PUSH2 0x100 EXP SWAP1 DIV PUSH20 0xFFFFFFFFFFFFFFFFFFFFFFFFFFFFFFFFFFFFFFFF AND PUSH20 0xFFFFFFFFFFFFFFFFFFFFFFFFFFFFFFFFFFFFFFFF AND CALLER PUSH20 0xFFFFFFFFFFFFFFFFFFFFFFFFFFFFFFFFFFFFFFFF AND EQ ISZERO ISZERO PUSH2 0xEF4 JUMPI PUSH1 0x40 MLOAD PUSH32 0x8C379A000000000000000000000000000000000000000000000000000000000 DUP2 MSTORE PUSH1 0x4 ADD DUP1 DUP1 PUSH1 0x20 ADD DUP3 DUP2 SUB DUP3 MSTORE PUSH1 0x20 DUP2 MSTORE PUSH1 0x20 ADD DUP1 PUSH32 0x4F776E65722054696D65416C6C792073686F756C642062652063616C6C696E67 DUP2 MSTORE POP PUSH1 0x20 ADD SWAP2 POP POP PUSH1 0x40 MLOAD DUP1 SWAP2 SUB SWAP1 REVERT JUMPDEST PUSH2 0xEFC PUSH2 0x1B40 JUMP JUMPDEST DUP5 DUP2 PUSH1 0x0 ADD SWAP1 PUSH4 0xFFFFFFFF AND SWAP1 DUP2 PUSH4 0xFFFFFFFF AND DUP2 MSTORE POP POP DUP4 DUP2 PUSH1 0x20 ADD SWAP1 PUSH4 0xFFFFFFFF AND SWAP1 DUP2 PUSH4 0xFFFFFFFF AND DUP2 MSTORE POP POP DUP3 DUP2 PUSH1 0x60 ADD SWAP1 PUSH8 0xFFFFFFFFFFFFFFFF AND SWAP1 DUP2 PUSH8 0xFFFFFFFFFFFFFFFF AND DUP2 MSTORE POP POP PUSH2 0xF8A PUSH1 0x1 PUSH1 0x2 DUP9 SWAP1 DUP1 PUSH1 0x1 DUP2 SLOAD ADD DUP1 DUP3 SSTORE DUP1 SWAP2 POP POP SWAP1 PUSH1 0x1 DUP3 SUB SWAP1 PUSH1 0x0 MSTORE PUSH1 0x20 PUSH1 0x0 KECCAK256 ADD PUSH1 0x0 SWAP1 SWAP2 SWAP3 SWAP1 SWAP2 SWAP1 SWAP2 POP SSTORE PUSH2 0x1A2F SWAP1 SWAP2 SWAP1 PUSH4 0xFFFFFFFF AND JUMP JUMPDEST DUP2 PUSH1 0x40 ADD SWAP1 PUSH4 0xFFFFFFFF AND SWAP1 DUP2 PUSH4 0xFFFFFFFF AND DUP2 MSTORE POP POP DUP1 PUSH1 0x1 PUSH1 0x0 DUP9 DUP2 MSTORE PUSH1 0x20 ADD SWAP1 DUP2 MSTORE PUSH1 0x20 ADD PUSH1 0x0 KECCAK256 PUSH1 0x0 DUP3 ADD MLOAD DUP2 PUSH1 0x0 ADD PUSH1 0x0 PUSH2 0x100 EXP DUP2 SLOAD DUP2 PUSH4 0xFFFFFFFF MUL NOT AND SWAP1 DUP4 PUSH4 0xFFFFFFFF AND MUL OR SWAP1 SSTORE POP PUSH1 0x20 DUP3 ADD MLOAD DUP2 PUSH1 0x0 ADD PUSH1 0x4 PUSH2 0x100 EXP DUP2 SLOAD DUP2 PUSH4 0xFFFFFFFF MUL NOT AND SWAP1 DUP4 PUSH4 0xFFFFFFFF AND MUL OR SWAP1 SSTORE POP PUSH1 0x40 DUP3 ADD MLOAD DUP2 PUSH1 0x0 ADD PUSH1 0x8 PUSH2 0x100 EXP DUP2 SLOAD DUP2 PUSH4 0xFFFFFFFF MUL NOT AND SWAP1 DUP4 PUSH4 0xFFFFFFFF AND MUL OR SWAP1 SSTORE POP PUSH1 0x60 DUP3 ADD MLOAD DUP2 PUSH1 0x0 ADD PUSH1 0xC PUSH2 0x100 EXP DUP2 SLOAD DUP2 PUSH8 0xFFFFFFFFFFFFFFFF MUL NOT AND SWAP1 DUP4 PUSH8 0xFFFFFFFFFFFFFFFF AND MUL OR SWAP1 SSTORE POP SWAP1 POP POP PUSH1 0x1 SWAP2 POP POP SWAP5 SWAP4 POP POP POP POP JUMP JUMPDEST PUSH1 0x0 PUSH1 0x6 PUSH1 0x0 SWAP1 SLOAD SWAP1 PUSH2 0x100 EXP SWAP1 DIV PUSH20 0xFFFFFFFFFFFFFFFFFFFFFFFFFFFFFFFFFFFFFFFF AND PUSH20 0xFFFFFFFFFFFFFFFFFFFFFFFFFFFFFFFFFFFFFFFF AND CALLER PUSH20 0xFFFFFFFFFFFFFFFFFFFFFFFFFFFFFFFFFFFFFFFF AND EQ ISZERO ISZERO PUSH2 0x1130 JUMPI PUSH1 0x40 MLOAD PUSH32 0x8C379A000000000000000000000000000000000000000000000000000000000 DUP2 MSTORE PUSH1 0x4 ADD DUP1 DUP1 PUSH1 0x20 ADD DUP3 DUP2 SUB DUP3 MSTORE PUSH1 0x20 DUP2 MSTORE PUSH1 0x20 ADD DUP1 PUSH32 0x4F776E65722054696D65416C6C792073686F756C642062652063616C6C696E67 DUP2 MSTORE POP PUSH1 0x20 ADD SWAP2 POP POP PUSH1 0x40 MLOAD DUP1 SWAP2 SUB SWAP1 REVERT JUMPDEST PUSH2 0x115E PUSH1 0x0 DUP1 DUP5 DUP2 MSTORE PUSH1 0x20 ADD SWAP1 DUP2 MSTORE PUSH1 0x20 ADD PUSH1 0x0 KECCAK256 PUSH1 0x0 ADD PUSH1 0x18 SWAP1 SLOAD SWAP1 PUSH2 0x100 EXP SWAP1 DIV PUSH4 0xFFFFFFFF AND PUSH2 0x1A51 JUMP JUMPDEST ISZERO ISZERO PUSH2 0x1169 JUMPI PUSH1 0x0 DUP1 REVERT JUMPDEST PUSH1 0x1 SWAP1 POP SWAP2 SWAP1 POP JUMP JUMPDEST PUSH1 0x0 DUP1 PUSH1 0x0 PUSH1 0x6 PUSH1 0x0 SWAP1 SLOAD SWAP1 PUSH2 0x100 EXP SWAP1 DIV PUSH20 0xFFFFFFFFFFFFFFFFFFFFFFFFFFFFFFFFFFFFFFFF AND PUSH20 0xFFFFFFFFFFFFFFFFFFFFFFFFFFFFFFFFFFFFFFFF AND CALLER PUSH20 0xFFFFFFFFFFFFFFFFFFFFFFFFFFFFFFFFFFFFFFFF AND EQ ISZERO ISZERO PUSH2 0x123C JUMPI PUSH1 0x40 MLOAD PUSH32 0x8C379A000000000000000000000000000000000000000000000000000000000 DUP2 MSTORE PUSH1 0x4 ADD DUP1 DUP1 PUSH1 0x20 ADD DUP3 DUP2 SUB DUP3 MSTORE PUSH1 0x20 DUP2 MSTORE PUSH1 0x20 ADD DUP1 PUSH32 0x4F776E65722054696D65416C6C792073686F756C642062652063616C6C696E67 DUP2 MSTORE POP PUSH1 0x20 ADD SWAP2 POP POP PUSH1 0x40 MLOAD DUP1 SWAP2 SUB SWAP1 REVERT JUMPDEST PUSH1 0x1 PUSH1 0x0 DUP6 DUP2 MSTORE PUSH1 0x20 ADD SWAP1 DUP2 MSTORE PUSH1 0x20 ADD PUSH1 0x0 KECCAK256 PUSH1 0x0 ADD PUSH1 0x0 SWAP1 SLOAD SWAP1 PUSH2 0x100 EXP SWAP1 DIV PUSH4 0xFFFFFFFF AND PUSH4 0xFFFFFFFF AND PUSH1 0x1 PUSH1 0x0 DUP7 DUP2 MSTORE PUSH1 0x20 ADD SWAP1 DUP2 MSTORE PUSH1 0x20 ADD PUSH1 0x0 KECCAK256 PUSH1 0x0 ADD PUSH1 0x4 SWAP1 SLOAD SWAP1 PUSH2 0x100 EXP SWAP1 DIV PUSH4 0xFFFFFFFF AND PUSH4 0xFFFFFFFF AND PUSH1 0x1 PUSH1 0x0 DUP8 DUP2 MSTORE PUSH1 0x20 ADD SWAP1 DUP2 MSTORE PUSH1 0x20 ADD PUSH1 0x0 KECCAK256 PUSH1 0x0 ADD PUSH1 0xC SWAP1 SLOAD SWAP1 PUSH2 0x100 EXP SWAP1 DIV PUSH8 0xFFFFFFFFFFFFFFFF AND PUSH8 0xFFFFFFFFFFFFFFFF AND SWAP3 POP SWAP3 POP SWAP3 POP SWAP2 SWAP4 SWAP1 SWAP3 POP JUMP JUMPDEST PUSH1 0x0 DUP1 PUSH1 0x0 PUSH1 0x6 PUSH1 0x0 SWAP1 SLOAD SWAP1 PUSH2 0x100 EXP SWAP1 DIV PUSH20 0xFFFFFFFFFFFFFFFFFFFFFFFFFFFFFFFFFFFFFFFF AND PUSH20 0xFFFFFFFFFFFFFFFFFFFFFFFFFFFFFFFFFFFFFFFF AND CALLER PUSH20 0xFFFFFFFFFFFFFFFFFFFFFFFFFFFFFFFFFFFFFFFF AND EQ ISZERO ISZERO PUSH2 0x13A2 JUMPI PUSH1 0x40 MLOAD PUSH32 0x8C379A000000000000000000000000000000000000000000000000000000000 DUP2 MSTORE PUSH1 0x4 ADD DUP1 DUP1 PUSH1 0x20 ADD DUP3 DUP2 SUB DUP3 MSTORE PUSH1 0x20 DUP2 MSTORE PUSH1 0x20 ADD DUP1 PUSH32 0x4F776E65722054696D65416C6C792073686F756C642062652063616C6C696E67 DUP2 MSTORE POP PUSH1 0x20 ADD SWAP2 POP POP PUSH1 0x40 MLOAD DUP1 SWAP2 SUB SWAP1 REVERT JUMPDEST PUSH1 0x0 DUP1 DUP6 DUP2 MSTORE PUSH1 0x20 ADD SWAP1 DUP2 MSTORE PUSH1 0x20 ADD PUSH1 0x0 KECCAK256 PUSH1 0x0 ADD PUSH1 0x10 SWAP1 SLOAD SWAP1 PUSH2 0x100 EXP SWAP1 DIV PUSH4 0xFFFFFFFF AND PUSH4 0xFFFFFFFF AND PUSH1 0x0 DUP1 DUP7 DUP2 MSTORE PUSH1 0x20 ADD SWAP1 DUP2 MSTORE PUSH1 0x20 ADD PUSH1 0x0 KECCAK256 PUSH1 0x0 ADD PUSH1 0x14 SWAP1 SLOAD SWAP1 PUSH2 0x100 EXP SWAP1 DIV PUSH4 0xFFFFFFFF AND PUSH4 0xFFFFFFFF AND PUSH1 0x0 DUP1 DUP8 DUP2 MSTORE PUSH1 0x20 ADD SWAP1 DUP2 MSTORE PUSH1 0x20 ADD PUSH1 0x0 KECCAK256 PUSH1 0x0 ADD PUSH1 0x0 SWAP1 SLOAD SWAP1 PUSH2 0x100 EXP SWAP1 DIV PUSH16 0xFFFFFFFFFFFFFFFFFFFFFFFFFFFFFFFF AND PUSH16 0xFFFFFFFFFFFFFFFFFFFFFFFFFFFFFFFF AND SWAP3 POP SWAP3 POP SWAP3 POP SWAP2 SWAP4 SWAP1 SWAP3 POP JUMP JUMPDEST PUSH1 0x60 PUSH1 0x0 PUSH1 0x6 PUSH1 0x0 SWAP1 SLOAD SWAP1 PUSH2 0x100 EXP SWAP1 DIV PUSH20 0xFFFFFFFFFFFFFFFFFFFFFFFFFFFFFFFFFFFFFFFF AND PUSH20 0xFFFFFFFFFFFFFFFFFFFFFFFFFFFFFFFFFFFFFFFF AND CALLER PUSH20 0xFFFFFFFFFFFFFFFFFFFFFFFFFFFFFFFFFFFFFFFF AND EQ ISZERO ISZERO PUSH2 0x1514 JUMPI PUSH1 0x40 MLOAD PUSH32 0x8C379A000000000000000000000000000000000000000000000000000000000 DUP2 MSTORE PUSH1 0x4 ADD DUP1 DUP1 PUSH1 0x20 ADD DUP3 DUP2 SUB DUP3 MSTORE PUSH1 0x20 DUP2 MSTORE PUSH1 0x20 ADD DUP1 PUSH32 0x4F776E65722054696D65416C6C792073686F756C642062652063616C6C696E67 DUP2 MSTORE POP PUSH1 0x20 ADD SWAP2 POP POP PUSH1 0x40 MLOAD DUP1 SWAP2 SUB SWAP1 REVERT JUMPDEST PUSH1 0x60 PUSH2 0x151E PUSH2 0x1B85 JUMP JUMPDEST PUSH1 0x0 PUSH1 0x5 SLOAD SWAP1 POP PUSH1 0x0 PUSH1 0x3 DUP1 SLOAD SWAP1 POP PUSH2 0x1540 DUP9 DUP5 PUSH2 0x191E SWAP1 SWAP2 SWAP1 PUSH4 0xFFFFFFFF AND JUMP JUMPDEST LT ISZERO ISZERO PUSH2 0x1554 JUMPI PUSH1 0x3 DUP1 SLOAD SWAP1 POP SWAP1 POP PUSH2 0x156A JUMP JUMPDEST PUSH2 0x1567 DUP8 DUP4 PUSH2 0x191E SWAP1 SWAP2 SWAP1 PUSH4 0xFFFFFFFF AND JUMP JUMPDEST SWAP1 POP JUMPDEST JUMPDEST DUP1 DUP3 LT ISZERO PUSH2 0x17E6 JUMPI PUSH1 0x0 PUSH1 0x3 DUP4 DUP2 SLOAD DUP2 LT ISZERO ISZERO PUSH2 0x1584 JUMPI INVALID JUMPDEST SWAP1 PUSH1 0x0 MSTORE PUSH1 0x20 PUSH1 0x0 KECCAK256 ADD SLOAD SWAP1 POP PUSH1 0x0 DUP1 DUP3 DUP2 MSTORE PUSH1 0x20 ADD SWAP1 DUP2 MSTORE PUSH1 0x20 ADD PUSH1 0x0 KECCAK256 PUSH1 0x80 PUSH1 0x40 MLOAD SWAP1 DUP2 ADD PUSH1 0x40 MSTORE SWAP1 DUP2 PUSH1 0x0 DUP3 ADD PUSH1 0x0 SWAP1 SLOAD SWAP1 PUSH2 0x100 EXP SWAP1 DIV PUSH16 0xFFFFFFFFFFFFFFFFFFFFFFFFFFFFFFFF AND PUSH16 0xFFFFFFFFFFFFFFFFFFFFFFFFFFFFFFFF AND PUSH16 0xFFFFFFFFFFFFFFFFFFFFFFFFFFFFFFFF AND DUP2 MSTORE PUSH1 0x20 ADD PUSH1 0x0 DUP3 ADD PUSH1 0x10 SWAP1 SLOAD SWAP1 PUSH2 0x100 EXP SWAP1 DIV PUSH4 0xFFFFFFFF AND PUSH4 0xFFFFFFFF AND PUSH4 0xFFFFFFFF AND DUP2 MSTORE PUSH1 0x20 ADD PUSH1 0x0 DUP3 ADD PUSH1 0x14 SWAP1 SLOAD SWAP1 PUSH2 0x100 EXP SWAP1 DIV PUSH4 0xFFFFFFFF AND PUSH4 0xFFFFFFFF AND PUSH4 0xFFFFFFFF AND DUP2 MSTORE PUSH1 0x20 ADD PUSH1 0x0 DUP3 ADD PUSH1 0x18 SWAP1 SLOAD SWAP1 PUSH2 0x100 EXP SWAP1 DIV PUSH4 0xFFFFFFFF AND PUSH4 0xFFFFFFFF AND PUSH4 0xFFFFFFFF AND DUP2 MSTORE POP POP SWAP4 POP DUP4 PUSH1 0x20 ADD MLOAD PUSH4 0xFFFFFFFF AND PUSH2 0x1753 DUP6 PUSH1 0x40 ADD MLOAD PUSH4 0xFFFFFFFF AND PUSH1 0x7 PUSH1 0x0 SWAP1 SLOAD SWAP1 PUSH2 0x100 EXP SWAP1 DIV PUSH20 0xFFFFFFFFFFFFFFFFFFFFFFFFFFFFFFFFFFFFFFFF AND PUSH20 0xFFFFFFFFFFFFFFFFFFFFFFFFFFFFFFFFFFFFFFFF AND PUSH4 0xB81F90F3 PUSH1 0x40 MLOAD DUP2 PUSH4 0xFFFFFFFF AND PUSH29 0x100000000000000000000000000000000000000000000000000000000 MUL DUP2 MSTORE PUSH1 0x4 ADD PUSH1 0x20 PUSH1 0x40 MLOAD DUP1 DUP4 SUB DUP2 DUP7 DUP1 EXTCODESIZE ISZERO DUP1 ISZERO PUSH2 0x170A JUMPI PUSH1 0x0 DUP1 REVERT JUMPDEST POP GAS STATICCALL ISZERO DUP1 ISZERO PUSH2 0x171E JUMPI RETURNDATASIZE PUSH1 0x0 DUP1 RETURNDATACOPY RETURNDATASIZE PUSH1 0x0 REVERT JUMPDEST POP POP POP POP PUSH1 0x40 MLOAD RETURNDATASIZE PUSH1 0x20 DUP2 LT ISZERO PUSH2 0x1734 JUMPI PUSH1 0x0 DUP1 REVERT JUMPDEST DUP2 ADD SWAP1 DUP1 DUP1 MLOAD SWAP1 PUSH1 0x20 ADD SWAP1 SWAP3 SWAP2 SWAP1 POP POP POP PUSH2 0x1A2F SWAP1 SWAP2 SWAP1 PUSH4 0xFFFFFFFF AND JUMP JUMPDEST GT ISZERO PUSH2 0x17D7 JUMPI DUP1 DUP6 DUP7 MLOAD DUP2 MLOAD DUP2 LT ISZERO ISZERO PUSH2 0x1769 JUMPI INVALID JUMPDEST SWAP1 PUSH1 0x20 ADD SWAP1 PUSH1 0x20 MUL ADD DUP2 DUP2 MSTORE POP POP PUSH2 0x1784 DUP5 PUSH1 0x60 ADD MLOAD PUSH2 0x1A51 JUMP JUMPDEST POP PUSH32 0x789B7097E8066538CFAA1132488B132E14BA5F0C938C8B7AAF8CF40356AAB0B DUP2 PUSH1 0x40 MLOAD DUP1 DUP3 DUP2 MSTORE PUSH1 0x20 ADD SWAP2 POP POP PUSH1 0x40 MLOAD DUP1 SWAP2 SUB SWAP1 LOG1 PUSH2 0x17D0 PUSH1 0x1 DUP4 PUSH2 0x1A2F SWAP1 SWAP2 SWAP1 PUSH4 0xFFFFFFFF AND JUMP JUMPDEST SWAP2 POP PUSH2 0x17E0 JUMP JUMPDEST DUP3 DUP1 PUSH1 0x1 ADD SWAP4 POP POP JUMPDEST POP PUSH2 0x156B JUMP JUMPDEST PUSH1 0x3 DUP1 SLOAD SWAP1 POP DUP2 EQ ISZERO PUSH2 0x1800 JUMPI PUSH1 0x0 PUSH1 0x5 DUP2 SWAP1 SSTORE POP PUSH2 0x1808 JUMP JUMPDEST DUP1 PUSH1 0x5 DUP2 SWAP1 SSTORE POP JUMPDEST DUP4 PUSH2 0x1821 DUP3 PUSH1 0x3 DUP1 SLOAD SWAP1 POP PUSH2 0x1A2F SWAP1 SWAP2 SWAP1 PUSH4 0xFFFFFFFF AND JUMP JUMPDEST SWAP6 POP SWAP6 POP POP POP POP POP SWAP2 POP SWAP2 JUMP JUMPDEST PUSH1 0x0 PUSH1 0x20 MSTORE DUP1 PUSH1 0x0 MSTORE PUSH1 0x40 PUSH1 0x0 KECCAK256 PUSH1 0x0 SWAP2 POP SWAP1 POP DUP1 PUSH1 0x0 ADD PUSH1 0x0 SWAP1 SLOAD SWAP1 PUSH2 0x100 EXP SWAP1 DIV PUSH16 0xFFFFFFFFFFFFFFFFFFFFFFFFFFFFFFFF AND SWAP1 DUP1 PUSH1 0x0 ADD PUSH1 0x10 SWAP1 SLOAD SWAP1 PUSH2 0x100 EXP SWAP1 DIV PUSH4 0xFFFFFFFF AND SWAP1 DUP1 PUSH1 0x0 ADD PUSH1 0x14 SWAP1 SLOAD SWAP1 PUSH2 0x100 EXP SWAP1 DIV PUSH4 0xFFFFFFFF AND SWAP1 DUP1 PUSH1 0x0 ADD PUSH1 0x18 SWAP1 SLOAD SWAP1 PUSH2 0x100 EXP SWAP1 DIV PUSH4 0xFFFFFFFF AND SWAP1 POP DUP5 JUMP JUMPDEST PUSH1 0x1 PUSH1 0x20 MSTORE DUP1 PUSH1 0x0 MSTORE PUSH1 0x40 PUSH1 0x0 KECCAK256 PUSH1 0x0 SWAP2 POP SWAP1 POP DUP1 PUSH1 0x0 ADD PUSH1 0x0 SWAP1 SLOAD SWAP1 PUSH2 0x100 EXP SWAP1 DIV PUSH4 0xFFFFFFFF AND SWAP1 DUP1 PUSH1 0x0 ADD PUSH1 0x4 SWAP1 SLOAD SWAP1 PUSH2 0x100 EXP SWAP1 DIV PUSH4 0xFFFFFFFF AND SWAP1 DUP1 PUSH1 0x0 ADD PUSH1 0x8 SWAP1 SLOAD SWAP1 PUSH2 0x100 EXP SWAP1 DIV PUSH4 0xFFFFFFFF AND SWAP1 DUP1 PUSH1 0x0 ADD PUSH1 0xC SWAP1 SLOAD SWAP1 PUSH2 0x100 EXP SWAP1 DIV PUSH8 0xFFFFFFFFFFFFFFFF AND SWAP1 POP DUP5 JUMP JUMPDEST PUSH1 0x0 DUP1 DUP3 DUP5 ADD SWAP1 POP DUP4 DUP2 LT ISZERO ISZERO ISZERO PUSH2 0x1935 JUMPI PUSH1 0x0 DUP1 REVERT JUMPDEST DUP1 SWAP2 POP POP SWAP3 SWAP2 POP POP JUMP JUMPDEST PUSH1 0x0 PUSH1 0x2 DUP1 SLOAD SWAP1 POP DUP3 PUSH4 0xFFFFFFFF AND LT ISZERO ISZERO PUSH2 0x195A JUMPI PUSH1 0x0 DUP1 REVERT JUMPDEST PUSH1 0x0 PUSH2 0x1975 PUSH1 0x1 PUSH1 0x2 DUP1 SLOAD SWAP1 POP PUSH2 0x1A2F SWAP1 SWAP2 SWAP1 PUSH4 0xFFFFFFFF AND JUMP JUMPDEST SWAP1 POP DUP3 PUSH1 0x1 PUSH1 0x0 PUSH1 0x2 DUP5 DUP2 SLOAD DUP2 LT ISZERO ISZERO PUSH2 0x198B JUMPI INVALID JUMPDEST SWAP1 PUSH1 0x0 MSTORE PUSH1 0x20 PUSH1 0x0 KECCAK256 ADD SLOAD DUP2 MSTORE PUSH1 0x20 ADD SWAP1 DUP2 MSTORE PUSH1 0x20 ADD PUSH1 0x0 KECCAK256 PUSH1 0x0 ADD PUSH1 0x8 PUSH2 0x100 EXP DUP2 SLOAD DUP2 PUSH4 0xFFFFFFFF MUL NOT AND SWAP1 DUP4 PUSH4 0xFFFFFFFF AND MUL OR SWAP1 SSTORE POP PUSH1 0x2 DUP2 DUP2 SLOAD DUP2 LT ISZERO ISZERO PUSH2 0x19D4 JUMPI INVALID JUMPDEST SWAP1 PUSH1 0x0 MSTORE PUSH1 0x20 PUSH1 0x0 KECCAK256 ADD SLOAD PUSH1 0x2 DUP5 PUSH4 0xFFFFFFFF AND DUP2 SLOAD DUP2 LT ISZERO ISZERO PUSH2 0x19F4 JUMPI INVALID JUMPDEST SWAP1 PUSH1 0x0 MSTORE PUSH1 0x20 PUSH1 0x0 KECCAK256 ADD DUP2 SWAP1 SSTORE POP PUSH1 0x2 DUP1 SLOAD DUP1 ISZERO ISZERO PUSH2 0x1A0F JUMPI INVALID JUMPDEST PUSH1 0x1 SWAP1 SUB DUP2 DUP2 SWAP1 PUSH1 0x0 MSTORE PUSH1 0x20 PUSH1 0x0 KECCAK256 ADD PUSH1 0x0 SWAP1 SSTORE SWAP1 SSTORE PUSH1 0x1 SWAP2 POP POP SWAP2 SWAP1 POP JUMP JUMPDEST PUSH1 0x0 DUP3 DUP3 GT ISZERO ISZERO ISZERO PUSH2 0x1A40 JUMPI PUSH1 0x0 DUP1 REVERT JUMPDEST PUSH1 0x0 DUP3 DUP5 SUB SWAP1 POP DUP1 SWAP2 POP POP SWAP3 SWAP2 POP POP JUMP JUMPDEST PUSH1 0x0 PUSH1 0x3 DUP1 SLOAD SWAP1 POP DUP3 PUSH4 0xFFFFFFFF AND LT ISZERO ISZERO PUSH2 0x1A6C JUMPI PUSH1 0x0 DUP1 REVERT JUMPDEST PUSH1 0x0 PUSH2 0x1A87 PUSH1 0x1 PUSH1 0x3 DUP1 SLOAD SWAP1 POP PUSH2 0x1A2F SWAP1 SWAP2 SWAP1 PUSH4 0xFFFFFFFF AND JUMP JUMPDEST SWAP1 POP DUP3 PUSH1 0x0 DUP1 PUSH1 0x3 DUP5 DUP2 SLOAD DUP2 LT ISZERO ISZERO PUSH2 0x1A9C JUMPI INVALID JUMPDEST SWAP1 PUSH1 0x0 MSTORE PUSH1 0x20 PUSH1 0x0 KECCAK256 ADD SLOAD DUP2 MSTORE PUSH1 0x20 ADD SWAP1 DUP2 MSTORE PUSH1 0x20 ADD PUSH1 0x0 KECCAK256 PUSH1 0x0 ADD PUSH1 0x18 PUSH2 0x100 EXP DUP2 SLOAD DUP2 PUSH4 0xFFFFFFFF MUL NOT AND SWAP1 DUP4 PUSH4 0xFFFFFFFF AND MUL OR SWAP1 SSTORE POP PUSH1 0x3 DUP2 DUP2 SLOAD DUP2 LT ISZERO ISZERO PUSH2 0x1AE5 JUMPI INVALID JUMPDEST SWAP1 PUSH1 0x0 MSTORE PUSH1 0x20 PUSH1 0x0 KECCAK256 ADD SLOAD PUSH1 0x3 DUP5 PUSH4 0xFFFFFFFF AND DUP2 SLOAD DUP2 LT ISZERO ISZERO PUSH2 0x1B05 JUMPI INVALID JUMPDEST SWAP1 PUSH1 0x0 MSTORE PUSH1 0x20 PUSH1 0x0 KECCAK256 ADD DUP2 SWAP1 SSTORE POP PUSH1 0x3 DUP1 SLOAD DUP1 ISZERO ISZERO PUSH2 0x1B20 JUMPI INVALID JUMPDEST PUSH1 0x1 SWAP1 SUB DUP2 DUP2 SWAP1 PUSH1 0x0 MSTORE PUSH1 0x20 PUSH1 0x0 KECCAK256 ADD PUSH1 0x0 SWAP1 SSTORE SWAP1 SSTORE PUSH1 0x1 SWAP2 POP POP SWAP2 SWAP1 POP JUMP JUMPDEST PUSH1 0x80 PUSH1 0x40 MLOAD SWAP1 DUP2 ADD PUSH1 0x40 MSTORE DUP1 PUSH1 0x0 PUSH4 0xFFFFFFFF AND DUP2 MSTORE PUSH1 0x20 ADD PUSH1 0x0 PUSH4 0xFFFFFFFF AND DUP2 MSTORE PUSH1 0x20 ADD PUSH1 0x0 PUSH4 0xFFFFFFFF AND DUP2 MSTORE PUSH1 0x20 ADD PUSH1 0x0 PUSH8 0xFFFFFFFFFFFFFFFF AND DUP2 MSTORE POP SWAP1 JUMP JUMPDEST PUSH1 0x80 PUSH1 0x40 MLOAD SWAP1 DUP2 ADD PUSH1 0x40 MSTORE DUP1 PUSH1 0x0 PUSH16 0xFFFFFFFFFFFFFFFFFFFFFFFFFFFFFFFF AND DUP2 MSTORE PUSH1 0x20 ADD PUSH1 0x0 PUSH4 0xFFFFFFFF AND DUP2 MSTORE PUSH1 0x20 ADD PUSH1 0x0 PUSH4 0xFFFFFFFF AND DUP2 MSTORE PUSH1 0x20 ADD PUSH1 0x0 PUSH4 0xFFFFFFFF AND DUP2 MSTORE POP SWAP1 JUMP INVALID LOG1 PUSH6 0x627A7A723058 KECCAK256 0xcf RETURN 0xb4 SWAP4 SWAP8 SGT 0xb6 DELEGATECALL XOR 0xcd PUSH3 0xDC3EBC SWAP1 0x4b 0x5f PUSH10 0x7F8CBEEAF9FE2097E289 0x2c 0xd9 0x2f GASLIMIT STOP 0x29 "},"gasEstimates":{"creation":{"codeDepositCost":"1433200","executionCost":"42171","totalCost":"1475371"},"external":{"addLoan(uint256,uint32,uint128)":"infinite","addRefund(uint256,uint32,uint32,uint64)":"infinite","eraswapToken()":"481","loanList(uint256)":"902","loans(uint256)":"1686","monthlyLoanHandler(uint256)":"infinite","monthlyRefundHandler(uint256)":"infinite","refundList(uint256)":"792","refunds(uint256)":"1708","removeLoan(uint256)":"infinite","timeAlly()":"547","viewLoan(uint256)":"1749","viewRefund(uint256)":"1794"},"internal":{"deleteLoanListElement(uint32)":"infinite","deleteRefundListElement(uint32)":"infinite"}},"methodIdentifiers":{"addLoan(uint256,uint32,uint128)":"59e0bb01","addRefund(uint256,uint32,uint32,uint64)":"8796ce98","eraswapToken()":"2cdb8cc6","loanList(uint256)":"7621710c","loans(uint256)":"e1ec3c68","monthlyLoanHandler(uint256)":"d107a0fa","monthlyRefundHandler(uint256)":"46514268","refundList(uint256)":"16503e61","refunds(uint256)":"e36bd0f3","removeLoan(uint256)":"a8818cf1","timeAlly()":"682667a9","viewLoan(uint256)":"d028aa62","viewRefund(uint256)":"ccc2512b"}},"userdoc":{"methods":{}}}