{"abi":[{"constant":true,"inputs":[],"name":"contingencyFunds","outputs":[{"name":"","type":"address"}],"payable":false,"stateMutability":"view","type":"function"},{"constant":true,"inputs":[],"name":"monthCount","outputs":[{"name":"","type":"uint256"}],"payable":false,"stateMutability":"view","type":"function"},{"constant":true,"inputs":[],"name":"newTalentsAndPartnerships","outputs":[{"name":"","type":"address"}],"payable":false,"stateMutability":"view","type":"function"},{"constant":true,"inputs":[],"name":"kmPardsBal","outputs":[{"name":"","type":"uint256"}],"payable":false,"stateMutability":"view","type":"function"},{"constant":true,"inputs":[],"name":"TimeAlly","outputs":[{"name":"","type":"address"}],"payable":false,"stateMutability":"view","type":"function"},{"constant":false,"inputs":[{"name":"amount","type":"uint256"}],"name":"UpdateLuckpool","outputs":[{"name":"","type":"bool"}],"payable":false,"stateMutability":"nonpayable","type":"function"},{"constant":true,"inputs":[],"name":"platformMaintenance","outputs":[{"name":"","type":"address"}],"payable":false,"stateMutability":"view","type":"function"},{"constant":false,"inputs":[{"name":"amount","type":"uint256"}],"name":"UpdateBurnBal","outputs":[{"name":"","type":"bool"}],"payable":false,"stateMutability":"nonpayable","type":"function"},{"constant":true,"inputs":[],"name":"burnTokenBal","outputs":[{"name":"","type":"uint256"}],"payable":false,"stateMutability":"view","type":"function"},{"constant":true,"inputs":[],"name":"marketingAndRNR","outputs":[{"name":"","type":"address"}],"payable":false,"stateMutability":"view","type":"function"},{"constant":true,"inputs":[],"name":"researchAndDevelopment","outputs":[{"name":"","type":"address"}],"payable":false,"stateMutability":"view","type":"function"},{"constant":true,"inputs":[],"name":"contingencyFundsBal","outputs":[{"name":"","type":"uint256"}],"payable":false,"stateMutability":"view","type":"function"},{"constant":true,"inputs":[],"name":"monthlyNRTAmount","outputs":[{"name":"","type":"uint256"}],"payable":false,"stateMutability":"view","type":"function"},{"constant":true,"inputs":[],"name":"kmPards","outputs":[{"name":"","type":"address"}],"payable":false,"stateMutability":"view","type":"function"},{"constant":true,"inputs":[],"name":"lastNRTRelease","outputs":[{"name":"","type":"uint256"}],"payable":false,"stateMutability":"view","type":"function"},{"constant":true,"inputs":[],"name":"annualNRTAmount","outputs":[{"name":"","type":"uint256"}],"payable":false,"stateMutability":"view","type":"function"},{"constant":true,"inputs":[],"name":"researchAndDevelopmentBal","outputs":[{"name":"","type":"uint256"}],"payable":false,"stateMutability":"view","type":"function"},{"constant":true,"inputs":[],"name":"timeSwappers","outputs":[{"name":"","type":"address"}],"payable":false,"stateMutability":"view","type":"function"},{"constant":true,"inputs":[],"name":"buzzCafe","outputs":[{"name":"","type":"address"}],"payable":false,"stateMutability":"view","type":"function"},{"constant":false,"inputs":[],"name":"MonthlyNRTRelease","outputs":[{"name":"","type":"bool"}],"payable":false,"stateMutability":"nonpayable","type":"function"},{"constant":true,"inputs":[],"name":"platformMaintenanceBal","outputs":[{"name":"","type":"uint256"}],"payable":false,"stateMutability":"view","type":"function"},{"constant":true,"inputs":[],"name":"timeSwappersNRT","outputs":[{"name":"","type":"uint256"}],"payable":false,"stateMutability":"view","type":"function"},{"constant":true,"inputs":[],"name":"luckPoolBal","outputs":[{"name":"","type":"uint256"}],"payable":false,"stateMutability":"view","type":"function"},{"constant":true,"inputs":[],"name":"TimeAllyNRT","outputs":[{"name":"","type":"uint256"}],"payable":false,"stateMutability":"view","type":"function"},{"constant":false,"inputs":[{"name":"pool","type":"address[9]"}],"name":"UpdateAddresses","outputs":[{"name":"","type":"bool"}],"payable":false,"stateMutability":"nonpayable","type":"function"},{"constant":true,"inputs":[],"name":"marketingAndRNRBal","outputs":[{"name":"","type":"uint256"}],"payable":false,"stateMutability":"view","type":"function"},{"constant":true,"inputs":[],"name":"buzzCafeNRT","outputs":[{"name":"","type":"uint256"}],"payable":false,"stateMutability":"view","type":"function"},{"constant":true,"inputs":[],"name":"newTalentsAndPartnershipsBal","outputs":[{"name":"","type":"uint256"}],"payable":false,"stateMutability":"view","type":"function"},{"inputs":[{"name":"eraswaptoken","type":"address"}],"payable":false,"stateMutability":"nonpayable","type":"constructor"},{"anonymous":false,"inputs":[{"indexed":false,"name":"NRTReleased","type":"uint256"}],"name":"NRTDistributed","type":"event"},{"anonymous":false,"inputs":[{"indexed":false,"name":"pool","type":"string"},{"indexed":false,"name":"sendAddress","type":"address"},{"indexed":false,"name":"value","type":"uint256"}],"name":"NRTTransfer","type":"event"},{"anonymous":false,"inputs":[{"indexed":false,"name":"amount","type":"uint256"}],"name":"TokensBurned","type":"event"},{"anonymous":false,"inputs":[{"indexed":false,"name":"pool","type":"string"},{"indexed":false,"name":"sendAddress","type":"address"}],"name":"PoolAddressAdded","type":"event"},{"anonymous":false,"inputs":[{"indexed":false,"name":"luckPoolBal","type":"uint256"}],"name":"LuckPoolUpdated","type":"event"},{"anonymous":false,"inputs":[{"indexed":false,"name":"burnTokenBal","type":"uint256"}],"name":"BurnTokenBalUpdated","type":"event"}],"devdoc":{"methods":{"MonthlyNRTRelease()":{"details":"To invoke monthly release","return":"true if success"},"UpdateAddresses(address[9])":{"details":"To update pool addresses","params":{"pool":"- A List of pool addresses Updates if pool address is not already set and if given address is not zero"},"return":"true if success"},"UpdateBurnBal(uint256)":{"details":"Function to trigger to update  for burning of tokens","params":{"amount":"Amount to be updated"}},"UpdateLuckpool(uint256)":{"details":"Function to update luckpool balance","params":{"amount":"Amount to be updated"}},"constructor":{"details":"Constructor"}}},"evm":{"assembly":"    /* \"NRTManager.sol\":51:10112  contract NRTManager {... */\n  mstore(0x40, 0x80)\n    /* \"NRTManager.sol\":9837:10109  constructor(address eraswaptoken) public{... */\n  callvalue\n    /* \"--CODEGEN--\":8:17   */\n  dup1\n    /* \"--CODEGEN--\":5:7   */\n  iszero\n  tag_1\n  jumpi\n    /* \"--CODEGEN--\":30:31   */\n  0x00\n    /* \"--CODEGEN--\":27:28   */\n  dup1\n    /* \"--CODEGEN--\":20:32   */\n  revert\n    /* \"--CODEGEN--\":5:7   */\ntag_1:\n    /* \"NRTManager.sol\":9837:10109  constructor(address eraswaptoken) public{... */\n  pop\n  mload(0x40)\n  0x20\n  dup1\n  bytecodeSize\n  dup4\n  codecopy\n  dup2\n  add\n  dup1\n  0x40\n  mstore\n    /* \"--CODEGEN--\":13:15   */\n  0x20\n    /* \"--CODEGEN--\":8:11   */\n  dup2\n    /* \"--CODEGEN--\":5:16   */\n  lt\n    /* \"--CODEGEN--\":2:4   */\n  iszero\n  tag_2\n  jumpi\n    /* \"--CODEGEN--\":29:30   */\n  0x00\n    /* \"--CODEGEN--\":26:27   */\n  dup1\n    /* \"--CODEGEN--\":19:31   */\n  revert\n    /* \"--CODEGEN--\":2:4   */\ntag_2:\n    /* \"NRTManager.sol\":9837:10109  constructor(address eraswaptoken) public{... */\n  dup2\n  add\n  swap1\n  dup1\n  dup1\n  mload\n  swap1\n  0x20\n  add\n  swap1\n  swap3\n  swap2\n  swap1\n  pop\n  pop\n  pop\n    /* \"NRTManager.sol\":9901:9913  eraswaptoken */\n  dup1\n    /* \"NRTManager.sol\":9885:9890  token */\n  0x06\n  0x00\n    /* \"NRTManager.sol\":9885:9914  token = Eraswap(eraswaptoken) */\n  0x0100\n  exp\n  dup2\n  sload\n  dup2\n  0xffffffffffffffffffffffffffffffffffffffff\n  mul\n  not\n  and\n  swap1\n  dup4\n  0xffffffffffffffffffffffffffffffffffffffff\n  and\n  mul\n  or\n  swap1\n  sstore\n  pop\n    /* \"NRTManager.sol\":9939:9942  now */\n  timestamp\n    /* \"NRTManager.sol\":9922:9936  lastNRTRelease */\n  0x00\n    /* \"NRTManager.sol\":9922:9942  lastNRTRelease = now */\n  dup2\n  swap1\n  sstore\n  pop\n    /* \"NRTManager.sol\":9968:9995  819000000000000000000000000 */\n  0x02a575fef6999c3a13000000\n    /* \"NRTManager.sol\":9950:9965  annualNRTAmount */\n  0x02\n    /* \"NRTManager.sol\":9950:9995  annualNRTAmount = 819000000000000000000000000 */\n  dup2\n  swap1\n  sstore\n  pop\n    /* \"NRTManager.sol\":10022:10054  annualNRTAmount.div(uint256(12)) */\n  tag_5\n    /* \"NRTManager.sol\":10050:10052  12 */\n  0x0c\n    /* \"NRTManager.sol\":10022:10037  annualNRTAmount */\n  sload(0x02)\n    /* \"NRTManager.sol\":10022:10041  annualNRTAmount.div */\n  or(tag_0_119, mul(0x0100000000, tag_6))\n  swap1\n    /* \"NRTManager.sol\":10022:10054  annualNRTAmount.div(uint256(12)) */\n  swap2\n  swap1\n  0x0100000000\n  swap1\n  div\n  jump\t// in\ntag_5:\n    /* \"NRTManager.sol\":10003:10019  monthlyNRTAmount */\n  0x01\n    /* \"NRTManager.sol\":10003:10054  monthlyNRTAmount = annualNRTAmount.div(uint256(12)) */\n  dup2\n  swap1\n  sstore\n  pop\n    /* \"NRTManager.sol\":10075:10076  0 */\n  0x00\n    /* \"NRTManager.sol\":10062:10072  monthCount */\n  0x03\n    /* \"NRTManager.sol\":10062:10076  monthCount = 0 */\n  dup2\n  swap1\n  sstore\n  pop\n    /* \"NRTManager.sol\":10092:10102  msg.sender */\n  caller\n    /* \"NRTManager.sol\":10084:10089  Owner */\n  0x07\n  0x00\n    /* \"NRTManager.sol\":10084:10102  Owner = msg.sender */\n  0x0100\n  exp\n  dup2\n  sload\n  dup2\n  0xffffffffffffffffffffffffffffffffffffffff\n  mul\n  not\n  and\n  swap1\n  dup4\n  0xffffffffffffffffffffffffffffffffffffffff\n  and\n  mul\n  or\n  swap1\n  sstore\n  pop\n    /* \"NRTManager.sol\":9837:10109  constructor(address eraswaptoken) public{... */\n  pop\n    /* \"NRTManager.sol\":51:10112  contract NRTManager {... */\n  jump(tag_7)\n    /* \"SafeMath.sol\":782:1078  function div(uint256 a, uint256 b) internal pure returns (uint256) {... */\ntag_6:\n    /* \"SafeMath.sol\":840:847  uint256 */\n  0x00\n    /* \"SafeMath.sol\":937:938  0 */\n  dup1\n    /* \"SafeMath.sol\":933:934  b */\n  dup3\n    /* \"SafeMath.sol\":933:938  b > 0 */\n  gt\n    /* \"SafeMath.sol\":925:939  require(b > 0) */\n  iszero\n  iszero\n  tag_9\n  jumpi\n  0x00\n  dup1\n  revert\ntag_9:\n    /* \"SafeMath.sol\":949:958  uint256 c */\n  0x00\n    /* \"SafeMath.sol\":965:966  b */\n  dup3\n    /* \"SafeMath.sol\":961:962  a */\n  dup5\n    /* \"SafeMath.sol\":961:966  a / b */\n  dup2\n  iszero\n  iszero\n  tag_10\n  jumpi\n  invalid\ntag_10:\n  div\n    /* \"SafeMath.sol\":949:966  uint256 c = a / b */\n  swap1\n  pop\n    /* \"SafeMath.sol\":1070:1071  c */\n  dup1\n    /* \"SafeMath.sol\":1063:1071  return c */\n  swap2\n  pop\n  pop\n    /* \"SafeMath.sol\":782:1078  function div(uint256 a, uint256 b) internal pure returns (uint256) {... */\n  swap3\n  swap2\n  pop\n  pop\n  jump\t// out\n    /* \"NRTManager.sol\":51:10112  contract NRTManager {... */\ntag_7:\n  dataSize(sub_0)\n  dup1\n  dataOffset(sub_0)\n  0x00\n  codecopy\n  0x00\n  return\nstop\n\nsub_0: assembly {\n        /* \"NRTManager.sol\":51:10112  contract NRTManager {... */\n      mstore(0x40, 0x80)\n      callvalue\n        /* \"--CODEGEN--\":8:17   */\n      dup1\n        /* \"--CODEGEN--\":5:7   */\n      iszero\n      tag_1\n      jumpi\n        /* \"--CODEGEN--\":30:31   */\n      0x00\n        /* \"--CODEGEN--\":27:28   */\n      dup1\n        /* \"--CODEGEN--\":20:32   */\n      revert\n        /* \"--CODEGEN--\":5:7   */\n    tag_1:\n        /* \"NRTManager.sol\":51:10112  contract NRTManager {... */\n      pop\n      jumpi(tag_2, lt(calldatasize, 0x04))\n      calldataload(0x00)\n      0x0100000000000000000000000000000000000000000000000000000000\n      swap1\n      div\n      dup1\n      0x797d123c\n      gt\n      tag_31\n      jumpi\n      dup1\n      0xbfb3d6c8\n      gt\n      tag_32\n      jumpi\n      dup1\n      0xcb358efa\n      gt\n      tag_33\n      jumpi\n      dup1\n      0xcb358efa\n      eq\n      tag_27\n      jumpi\n      dup1\n      0xd37eb950\n      eq\n      tag_28\n      jumpi\n      dup1\n      0xdb2f2cb5\n      eq\n      tag_29\n      jumpi\n      dup1\n      0xe71a3bfd\n      eq\n      tag_30\n      jumpi\n      jump(tag_2)\n    tag_33:\n      dup1\n      0xbfb3d6c8\n      eq\n      tag_24\n      jumpi\n      dup1\n      0xc3348a8b\n      eq\n      tag_25\n      jumpi\n      dup1\n      0xc6b2c536\n      eq\n      tag_26\n      jumpi\n      jump(tag_2)\n    tag_32:\n      dup1\n      0x9cd417de\n      gt\n      tag_34\n      jumpi\n      dup1\n      0x9cd417de\n      eq\n      tag_20\n      jumpi\n      dup1\n      0xa9e817a9\n      eq\n      tag_21\n      jumpi\n      dup1\n      0xb018abbd\n      eq\n      tag_22\n      jumpi\n      dup1\n      0xbd27d361\n      eq\n      tag_23\n      jumpi\n      jump(tag_2)\n    tag_34:\n      dup1\n      0x797d123c\n      eq\n      tag_17\n      jumpi\n      dup1\n      0x7b8c0b79\n      eq\n      tag_18\n      jumpi\n      dup1\n      0x7d53257a\n      eq\n      tag_19\n      jumpi\n      jump(tag_2)\n    tag_31:\n      dup1\n      0x41aaa9b6\n      gt\n      tag_35\n      jumpi\n      dup1\n      0x5c12278d\n      gt\n      tag_36\n      jumpi\n      dup1\n      0x5c12278d\n      eq\n      tag_13\n      jumpi\n      dup1\n      0x5f7ce89f\n      eq\n      tag_14\n      jumpi\n      dup1\n      0x6037d2a3\n      eq\n      tag_15\n      jumpi\n      dup1\n      0x65c00470\n      eq\n      tag_16\n      jumpi\n      jump(tag_2)\n    tag_36:\n      dup1\n      0x41aaa9b6\n      eq\n      tag_10\n      jumpi\n      dup1\n      0x4a4581aa\n      eq\n      tag_11\n      jumpi\n      dup1\n      0x51bd70b1\n      eq\n      tag_12\n      jumpi\n      jump(tag_2)\n    tag_35:\n      dup1\n      0x2cfceb07\n      gt\n      tag_37\n      jumpi\n      dup1\n      0x2cfceb07\n      eq\n      tag_6\n      jumpi\n      dup1\n      0x37bfea18\n      eq\n      tag_7\n      jumpi\n      dup1\n      0x382e2aab\n      eq\n      tag_8\n      jumpi\n      dup1\n      0x3a18a9fd\n      eq\n      tag_9\n      jumpi\n      jump(tag_2)\n    tag_37:\n      dup1\n      0x0b3e29b8\n      eq\n      tag_3\n      jumpi\n      dup1\n      0x0d4e57a4\n      eq\n      tag_4\n      jumpi\n      dup1\n      0x26b3bf2f\n      eq\n      tag_5\n      jumpi\n    tag_2:\n      0x00\n      dup1\n      revert\n        /* \"NRTManager.sol\":906:937  address public contingencyFunds */\n    tag_3:\n      tag_38\n      tag_39\n      jump\t// in\n    tag_38:\n      mload(0x40)\n      dup1\n      dup3\n      0xffffffffffffffffffffffffffffffffffffffff\n      and\n      0xffffffffffffffffffffffffffffffffffffffff\n      and\n      dup2\n      mstore\n      0x20\n      add\n      swap2\n      pop\n      pop\n      mload(0x40)\n      dup1\n      swap2\n      sub\n      swap1\n      return\n        /* \"NRTManager.sol\":403:428  uint256 public monthCount */\n    tag_4:\n      tag_40\n      tag_41\n      jump\t// in\n    tag_40:\n      mload(0x40)\n      dup1\n      dup3\n      dup2\n      mstore\n      0x20\n      add\n      swap2\n      pop\n      pop\n      mload(0x40)\n      dup1\n      swap2\n      sub\n      swap1\n      return\n        /* \"NRTManager.sol\":756:796  address public newTalentsAndPartnerships */\n    tag_5:\n      tag_42\n      tag_43\n      jump\t// in\n    tag_42:\n      mload(0x40)\n      dup1\n      dup3\n      0xffffffffffffffffffffffffffffffffffffffff\n      and\n      0xffffffffffffffffffffffffffffffffffffffff\n      and\n      dup2\n      mstore\n      0x20\n      add\n      swap2\n      pop\n      pop\n      mload(0x40)\n      dup1\n      swap2\n      sub\n      swap1\n      return\n        /* \"NRTManager.sol\":1524:1549  uint256 public kmPardsBal */\n    tag_6:\n      tag_44\n      tag_45\n      jump\t// in\n    tag_44:\n      mload(0x40)\n      dup1\n      dup3\n      dup2\n      mstore\n      0x20\n      add\n      swap2\n      pop\n      pop\n      mload(0x40)\n      dup1\n      swap2\n      sub\n      swap1\n      return\n        /* \"NRTManager.sol\":1130:1153  address public TimeAlly */\n    tag_7:\n      tag_46\n      tag_47\n      jump\t// in\n    tag_46:\n      mload(0x40)\n      dup1\n      dup3\n      0xffffffffffffffffffffffffffffffffffffffff\n      and\n      0xffffffffffffffffffffffffffffffffffffffff\n      and\n      dup2\n      mstore\n      0x20\n      add\n      swap2\n      pop\n      pop\n      mload(0x40)\n      dup1\n      swap2\n      sub\n      swap1\n      return\n        /* \"NRTManager.sol\":6457:6657  function UpdateLuckpool(uint256 amount) external OnlyAllowed returns(bool){... */\n    tag_8:\n      tag_48\n      0x04\n      dup1\n      calldatasize\n      sub\n        /* \"--CODEGEN--\":13:15   */\n      0x20\n        /* \"--CODEGEN--\":8:11   */\n      dup2\n        /* \"--CODEGEN--\":5:16   */\n      lt\n        /* \"--CODEGEN--\":2:4   */\n      iszero\n      tag_49\n      jumpi\n        /* \"--CODEGEN--\":29:30   */\n      0x00\n        /* \"--CODEGEN--\":26:27   */\n      dup1\n        /* \"--CODEGEN--\":19:31   */\n      revert\n        /* \"--CODEGEN--\":2:4   */\n    tag_49:\n        /* \"NRTManager.sol\":6457:6657  function UpdateLuckpool(uint256 amount) external OnlyAllowed returns(bool){... */\n      dup2\n      add\n      swap1\n      dup1\n      dup1\n      calldataload\n      swap1\n      0x20\n      add\n      swap1\n      swap3\n      swap2\n      swap1\n      pop\n      pop\n      pop\n      tag_50\n      jump\t// in\n    tag_48:\n      mload(0x40)\n      dup1\n      dup3\n      iszero\n      iszero\n      iszero\n      iszero\n      dup2\n      mstore\n      0x20\n      add\n      swap2\n      pop\n      pop\n      mload(0x40)\n      dup1\n      swap2\n      sub\n      swap1\n      return\n        /* \"NRTManager.sol\":802:836  address public platformMaintenance */\n    tag_9:\n      tag_51\n      tag_52\n      jump\t// in\n    tag_51:\n      mload(0x40)\n      dup1\n      dup3\n      0xffffffffffffffffffffffffffffffffffffffff\n      and\n      0xffffffffffffffffffffffffffffffffffffffff\n      and\n      dup2\n      mstore\n      0x20\n      add\n      swap2\n      pop\n      pop\n      mload(0x40)\n      dup1\n      swap2\n      sub\n      swap1\n      return\n        /* \"NRTManager.sol\":6793:6998  function UpdateBurnBal(uint256 amount) external OnlyAllowed returns(bool){... */\n    tag_10:\n      tag_53\n      0x04\n      dup1\n      calldatasize\n      sub\n        /* \"--CODEGEN--\":13:15   */\n      0x20\n        /* \"--CODEGEN--\":8:11   */\n      dup2\n        /* \"--CODEGEN--\":5:16   */\n      lt\n        /* \"--CODEGEN--\":2:4   */\n      iszero\n      tag_54\n      jumpi\n        /* \"--CODEGEN--\":29:30   */\n      0x00\n        /* \"--CODEGEN--\":26:27   */\n      dup1\n        /* \"--CODEGEN--\":19:31   */\n      revert\n        /* \"--CODEGEN--\":2:4   */\n    tag_54:\n        /* \"NRTManager.sol\":6793:6998  function UpdateBurnBal(uint256 amount) external OnlyAllowed returns(bool){... */\n      dup2\n      add\n      swap1\n      dup1\n      dup1\n      calldataload\n      swap1\n      0x20\n      add\n      swap1\n      swap3\n      swap2\n      swap1\n      pop\n      pop\n      pop\n      tag_55\n      jump\t// in\n    tag_53:\n      mload(0x40)\n      dup1\n      dup3\n      iszero\n      iszero\n      iszero\n      iszero\n      dup2\n      mstore\n      0x20\n      add\n      swap2\n      pop\n      pop\n      mload(0x40)\n      dup1\n      swap2\n      sub\n      swap1\n      return\n        /* \"NRTManager.sol\":581:608  uint256 public burnTokenBal */\n    tag_11:\n      tag_56\n      tag_57\n      jump\t// in\n    tag_56:\n      mload(0x40)\n      dup1\n      dup3\n      dup2\n      mstore\n      0x20\n      add\n      swap2\n      pop\n      pop\n      mload(0x40)\n      dup1\n      swap2\n      sub\n      swap1\n      return\n        /* \"NRTManager.sol\":842:872  address public marketingAndRNR */\n    tag_12:\n      tag_58\n      tag_59\n      jump\t// in\n    tag_58:\n      mload(0x40)\n      dup1\n      dup3\n      0xffffffffffffffffffffffffffffffffffffffff\n      and\n      0xffffffffffffffffffffffffffffffffffffffff\n      and\n      dup2\n      mstore\n      0x20\n      add\n      swap2\n      pop\n      pop\n      mload(0x40)\n      dup1\n      swap2\n      sub\n      swap1\n      return\n        /* \"NRTManager.sol\":943:980  address public researchAndDevelopment */\n    tag_13:\n      tag_60\n      tag_61\n      jump\t// in\n    tag_60:\n      mload(0x40)\n      dup1\n      dup3\n      0xffffffffffffffffffffffffffffffffffffffff\n      and\n      0xffffffffffffffffffffffffffffffffffffffff\n      and\n      dup2\n      mstore\n      0x20\n      add\n      swap2\n      pop\n      pop\n      mload(0x40)\n      dup1\n      swap2\n      sub\n      swap1\n      return\n        /* \"NRTManager.sol\":1628:1662  uint256 public contingencyFundsBal */\n    tag_14:\n      tag_62\n      tag_63\n      jump\t// in\n    tag_62:\n      mload(0x40)\n      dup1\n      dup3\n      dup2\n      mstore\n      0x20\n      add\n      swap2\n      pop\n      pop\n      mload(0x40)\n      dup1\n      swap2\n      sub\n      swap1\n      return\n        /* \"NRTManager.sol\":198:229  uint256 public monthlyNRTAmount */\n    tag_15:\n      tag_64\n      tag_65\n      jump\t// in\n    tag_64:\n      mload(0x40)\n      dup1\n      dup3\n      dup2\n      mstore\n      0x20\n      add\n      swap2\n      pop\n      pop\n      mload(0x40)\n      dup1\n      swap2\n      sub\n      swap1\n      return\n        /* \"NRTManager.sol\":878:900  address public kmPards */\n    tag_16:\n      tag_66\n      tag_67\n      jump\t// in\n    tag_66:\n      mload(0x40)\n      dup1\n      dup3\n      0xffffffffffffffffffffffffffffffffffffffff\n      and\n      0xffffffffffffffffffffffffffffffffffffffff\n      and\n      dup2\n      mstore\n      0x20\n      add\n      swap2\n      pop\n      pop\n      mload(0x40)\n      dup1\n      swap2\n      sub\n      swap1\n      return\n        /* \"NRTManager.sol\":111:140  uint256 public lastNRTRelease */\n    tag_17:\n      tag_68\n      tag_69\n      jump\t// in\n    tag_68:\n      mload(0x40)\n      dup1\n      dup3\n      dup2\n      mstore\n      0x20\n      add\n      swap2\n      pop\n      pop\n      mload(0x40)\n      dup1\n      swap2\n      sub\n      swap1\n      return\n        /* \"NRTManager.sol\":301:331  uint256 public annualNRTAmount */\n    tag_18:\n      tag_70\n      tag_71\n      jump\t// in\n    tag_70:\n      mload(0x40)\n      dup1\n      dup3\n      dup2\n      mstore\n      0x20\n      add\n      swap2\n      pop\n      pop\n      mload(0x40)\n      dup1\n      swap2\n      sub\n      swap1\n      return\n        /* \"NRTManager.sol\":1732:1772  uint256 public researchAndDevelopmentBal */\n    tag_19:\n      tag_72\n      tag_73\n      jump\t// in\n    tag_72:\n      mload(0x40)\n      dup1\n      dup3\n      dup2\n      mstore\n      0x20\n      add\n      swap2\n      pop\n      pop\n      mload(0x40)\n      dup1\n      swap2\n      sub\n      swap1\n      return\n        /* \"NRTManager.sol\":1015:1042  address public timeSwappers */\n    tag_20:\n      tag_74\n      tag_75\n      jump\t// in\n    tag_74:\n      mload(0x40)\n      dup1\n      dup3\n      0xffffffffffffffffffffffffffffffffffffffff\n      and\n      0xffffffffffffffffffffffffffffffffffffffff\n      and\n      dup2\n      mstore\n      0x20\n      add\n      swap2\n      pop\n      pop\n      mload(0x40)\n      dup1\n      swap2\n      sub\n      swap1\n      return\n        /* \"NRTManager.sol\":986:1009  address public buzzCafe */\n    tag_21:\n      tag_76\n      tag_77\n      jump\t// in\n    tag_76:\n      mload(0x40)\n      dup1\n      dup3\n      0xffffffffffffffffffffffffffffffffffffffff\n      and\n      0xffffffffffffffffffffffffffffffffffffffff\n      and\n      dup2\n      mstore\n      0x20\n      add\n      swap2\n      pop\n      pop\n      mload(0x40)\n      dup1\n      swap2\n      sub\n      swap1\n      return\n        /* \"NRTManager.sol\":7097:9791  function MonthlyNRTRelease() external returns (bool) {... */\n    tag_22:\n      tag_78\n      tag_79\n      jump\t// in\n    tag_78:\n      mload(0x40)\n      dup1\n      dup3\n      iszero\n      iszero\n      iszero\n      iszero\n      dup2\n      mstore\n      0x20\n      add\n      swap2\n      pop\n      pop\n      mload(0x40)\n      dup1\n      swap2\n      sub\n      swap1\n      return\n        /* \"NRTManager.sol\":1316:1353  uint256 public platformMaintenanceBal */\n    tag_23:\n      tag_80\n      tag_81\n      jump\t// in\n    tag_80:\n      mload(0x40)\n      dup1\n      dup3\n      dup2\n      mstore\n      0x20\n      add\n      swap2\n      pop\n      pop\n      mload(0x40)\n      dup1\n      swap2\n      sub\n      swap1\n      return\n        /* \"NRTManager.sol\":2045:2075  uint256 public timeSwappersNRT */\n    tag_24:\n      tag_82\n      tag_83\n      jump\t// in\n    tag_82:\n      mload(0x40)\n      dup1\n      dup3\n      dup2\n      mstore\n      0x20\n      add\n      swap2\n      pop\n      pop\n      mload(0x40)\n      dup1\n      swap2\n      sub\n      swap1\n      return\n        /* \"NRTManager.sol\":513:539  uint256 public luckPoolBal */\n    tag_25:\n      tag_84\n      tag_85\n      jump\t// in\n    tag_84:\n      mload(0x40)\n      dup1\n      dup3\n      dup2\n      mstore\n      0x20\n      add\n      swap2\n      pop\n      pop\n      mload(0x40)\n      dup1\n      swap2\n      sub\n      swap1\n      return\n        /* \"NRTManager.sol\":1940:1966  uint256 public TimeAllyNRT */\n    tag_26:\n      tag_86\n      tag_87\n      jump\t// in\n    tag_86:\n      mload(0x40)\n      dup1\n      dup3\n      dup2\n      mstore\n      0x20\n      add\n      swap2\n      pop\n      pop\n      mload(0x40)\n      dup1\n      swap2\n      sub\n      swap1\n      return\n        /* \"NRTManager.sol\":4532:6337  function UpdateAddresses (address[9] calldata pool) external OnlyOwner  returns(bool){... */\n    tag_27:\n      tag_88\n      0x04\n      dup1\n      calldatasize\n      sub\n        /* \"--CODEGEN--\":13:16   */\n      0x0120\n        /* \"--CODEGEN--\":8:11   */\n      dup2\n        /* \"--CODEGEN--\":5:17   */\n      lt\n        /* \"--CODEGEN--\":2:4   */\n      iszero\n      tag_89\n      jumpi\n        /* \"--CODEGEN--\":30:31   */\n      0x00\n        /* \"--CODEGEN--\":27:28   */\n      dup1\n        /* \"--CODEGEN--\":20:32   */\n      revert\n        /* \"--CODEGEN--\":2:4   */\n    tag_89:\n        /* \"NRTManager.sol\":4532:6337  function UpdateAddresses (address[9] calldata pool) external OnlyOwner  returns(bool){... */\n      dup2\n      add\n      swap1\n      dup1\n      dup1\n      0x0120\n      add\n      swap1\n      swap2\n      swap3\n      swap2\n      swap3\n      swap1\n      pop\n      pop\n      pop\n      tag_90\n      jump\t// in\n    tag_88:\n      mload(0x40)\n      dup1\n      dup3\n      iszero\n      iszero\n      iszero\n      iszero\n      dup2\n      mstore\n      0x20\n      add\n      swap2\n      pop\n      pop\n      mload(0x40)\n      dup1\n      swap2\n      sub\n      swap1\n      return\n        /* \"NRTManager.sol\":1420:1453  uint256 public marketingAndRNRBal */\n    tag_28:\n      tag_91\n      tag_92\n      jump\t// in\n    tag_91:\n      mload(0x40)\n      dup1\n      dup3\n      dup2\n      mstore\n      0x20\n      add\n      swap2\n      pop\n      pop\n      mload(0x40)\n      dup1\n      swap2\n      sub\n      swap1\n      return\n        /* \"NRTManager.sol\":1836:1862  uint256 public buzzCafeNRT */\n    tag_29:\n      tag_93\n      tag_94\n      jump\t// in\n    tag_93:\n      mload(0x40)\n      dup1\n      dup3\n      dup2\n      mstore\n      0x20\n      add\n      swap2\n      pop\n      pop\n      mload(0x40)\n      dup1\n      swap2\n      sub\n      swap1\n      return\n        /* \"NRTManager.sol\":1212:1255  uint256 public newTalentsAndPartnershipsBal */\n    tag_30:\n      tag_95\n      tag_96\n      jump\t// in\n    tag_95:\n      mload(0x40)\n      dup1\n      dup3\n      dup2\n      mstore\n      0x20\n      add\n      swap2\n      pop\n      pop\n      mload(0x40)\n      dup1\n      swap2\n      sub\n      swap1\n      return\n        /* \"NRTManager.sol\":906:937  address public contingencyFunds */\n    tag_39:\n      0x0c\n      0x00\n      swap1\n      sload\n      swap1\n      0x0100\n      exp\n      swap1\n      div\n      0xffffffffffffffffffffffffffffffffffffffff\n      and\n      dup2\n      jump\t// out\n        /* \"NRTManager.sol\":403:428  uint256 public monthCount */\n    tag_41:\n      sload(0x03)\n      dup2\n      jump\t// out\n        /* \"NRTManager.sol\":756:796  address public newTalentsAndPartnerships */\n    tag_43:\n      0x08\n      0x00\n      swap1\n      sload\n      swap1\n      0x0100\n      exp\n      swap1\n      div\n      0xffffffffffffffffffffffffffffffffffffffff\n      and\n      dup2\n      jump\t// out\n        /* \"NRTManager.sol\":1524:1549  uint256 public kmPardsBal */\n    tag_45:\n      sload(0x14)\n      dup2\n      jump\t// out\n        /* \"NRTManager.sol\":1130:1153  address public TimeAlly */\n    tag_47:\n      0x10\n      0x00\n      swap1\n      sload\n      swap1\n      0x0100\n      exp\n      swap1\n      div\n      0xffffffffffffffffffffffffffffffffffffffff\n      and\n      dup2\n      jump\t// out\n        /* \"NRTManager.sol\":6457:6657  function UpdateLuckpool(uint256 amount) external OnlyAllowed returns(bool){... */\n    tag_50:\n        /* \"NRTManager.sol\":6526:6530  bool */\n      0x00\n        /* \"NRTManager.sol\":3365:3373  TimeAlly */\n      0x10\n      0x00\n      swap1\n      sload\n      swap1\n      0x0100\n      exp\n      swap1\n      div\n      0xffffffffffffffffffffffffffffffffffffffff\n      and\n        /* \"NRTManager.sol\":3351:3373  msg.sender == TimeAlly */\n      0xffffffffffffffffffffffffffffffffffffffff\n      and\n        /* \"NRTManager.sol\":3351:3361  msg.sender */\n      caller\n        /* \"NRTManager.sol\":3351:3373  msg.sender == TimeAlly */\n      0xffffffffffffffffffffffffffffffffffffffff\n      and\n      eq\n        /* \"NRTManager.sol\":3351:3403  msg.sender == TimeAlly || msg.sender == timeSwappers */\n      dup1\n      tag_98\n      jumpi\n      pop\n        /* \"NRTManager.sol\":3391:3403  timeSwappers */\n      0x0f\n      0x00\n      swap1\n      sload\n      swap1\n      0x0100\n      exp\n      swap1\n      div\n      0xffffffffffffffffffffffffffffffffffffffff\n      and\n        /* \"NRTManager.sol\":3377:3403  msg.sender == timeSwappers */\n      0xffffffffffffffffffffffffffffffffffffffff\n      and\n        /* \"NRTManager.sol\":3377:3387  msg.sender */\n      caller\n        /* \"NRTManager.sol\":3377:3403  msg.sender == timeSwappers */\n      0xffffffffffffffffffffffffffffffffffffffff\n      and\n      eq\n        /* \"NRTManager.sol\":3351:3403  msg.sender == TimeAlly || msg.sender == timeSwappers */\n    tag_98:\n        /* \"NRTManager.sol\":3343:3450  require(msg.sender == TimeAlly || msg.sender == timeSwappers,\"Only TimeAlly and Timeswapper is authorised\") */\n      iszero\n      iszero\n      tag_99\n      jumpi\n      mload(0x40)\n      0x08c379a000000000000000000000000000000000000000000000000000000000\n      dup2\n      mstore\n      0x04\n      add\n      dup1\n      dup1\n      0x20\n      add\n      dup3\n      dup2\n      sub\n      dup3\n      mstore\n      0x2b\n      dup2\n      mstore\n      0x20\n      add\n      dup1\n      data_75b80d254974e234aa097720f74460cadd2b76f17d7eb2120a344a75769d98ab\n      0x2b\n      swap2\n      codecopy\n      0x40\n      add\n      swap2\n      pop\n      pop\n      mload(0x40)\n      dup1\n      swap2\n      sub\n      swap1\n      revert\n    tag_99:\n        /* \"NRTManager.sol\":6561:6584  luckPoolBal.add(amount) */\n      tag_101\n        /* \"NRTManager.sol\":6577:6583  amount */\n      dup3\n        /* \"NRTManager.sol\":6561:6572  luckPoolBal */\n      sload(0x04)\n        /* \"NRTManager.sol\":6561:6576  luckPoolBal.add */\n      tag_102\n      swap1\n        /* \"NRTManager.sol\":6561:6584  luckPoolBal.add(amount) */\n      swap2\n      swap1\n      0xffffffff\n      and\n      jump\t// in\n    tag_101:\n        /* \"NRTManager.sol\":6547:6558  luckPoolBal */\n      0x04\n        /* \"NRTManager.sol\":6547:6584  luckPoolBal = luckPoolBal.add(amount) */\n      dup2\n      swap1\n      sstore\n      pop\n        /* \"NRTManager.sol\":6599:6627  LuckPoolUpdated(luckPoolBal) */\n      0xc9c58ca254a2bde8ce607d1f5211f98c28c52efcea5216a867ea933b95efc31f\n        /* \"NRTManager.sol\":6615:6626  luckPoolBal */\n      sload(0x04)\n        /* \"NRTManager.sol\":6599:6627  LuckPoolUpdated(luckPoolBal) */\n      mload(0x40)\n      dup1\n      dup3\n      dup2\n      mstore\n      0x20\n      add\n      swap2\n      pop\n      pop\n      mload(0x40)\n      dup1\n      swap2\n      sub\n      swap1\n      log1\n        /* \"NRTManager.sol\":6644:6648  true */\n      0x01\n        /* \"NRTManager.sol\":6637:6648  return true */\n      swap1\n      pop\n        /* \"NRTManager.sol\":6457:6657  function UpdateLuckpool(uint256 amount) external OnlyAllowed returns(bool){... */\n      swap2\n      swap1\n      pop\n      jump\t// out\n        /* \"NRTManager.sol\":802:836  address public platformMaintenance */\n    tag_52:\n      0x09\n      0x00\n      swap1\n      sload\n      swap1\n      0x0100\n      exp\n      swap1\n      div\n      0xffffffffffffffffffffffffffffffffffffffff\n      and\n      dup2\n      jump\t// out\n        /* \"NRTManager.sol\":6793:6998  function UpdateBurnBal(uint256 amount) external OnlyAllowed returns(bool){... */\n    tag_55:\n        /* \"NRTManager.sol\":6861:6865  bool */\n      0x00\n        /* \"NRTManager.sol\":3365:3373  TimeAlly */\n      0x10\n      0x00\n      swap1\n      sload\n      swap1\n      0x0100\n      exp\n      swap1\n      div\n      0xffffffffffffffffffffffffffffffffffffffff\n      and\n        /* \"NRTManager.sol\":3351:3373  msg.sender == TimeAlly */\n      0xffffffffffffffffffffffffffffffffffffffff\n      and\n        /* \"NRTManager.sol\":3351:3361  msg.sender */\n      caller\n        /* \"NRTManager.sol\":3351:3373  msg.sender == TimeAlly */\n      0xffffffffffffffffffffffffffffffffffffffff\n      and\n      eq\n        /* \"NRTManager.sol\":3351:3403  msg.sender == TimeAlly || msg.sender == timeSwappers */\n      dup1\n      tag_104\n      jumpi\n      pop\n        /* \"NRTManager.sol\":3391:3403  timeSwappers */\n      0x0f\n      0x00\n      swap1\n      sload\n      swap1\n      0x0100\n      exp\n      swap1\n      div\n      0xffffffffffffffffffffffffffffffffffffffff\n      and\n        /* \"NRTManager.sol\":3377:3403  msg.sender == timeSwappers */\n      0xffffffffffffffffffffffffffffffffffffffff\n      and\n        /* \"NRTManager.sol\":3377:3387  msg.sender */\n      caller\n        /* \"NRTManager.sol\":3377:3403  msg.sender == timeSwappers */\n      0xffffffffffffffffffffffffffffffffffffffff\n      and\n      eq\n        /* \"NRTManager.sol\":3351:3403  msg.sender == TimeAlly || msg.sender == timeSwappers */\n    tag_104:\n        /* \"NRTManager.sol\":3343:3450  require(msg.sender == TimeAlly || msg.sender == timeSwappers,\"Only TimeAlly and Timeswapper is authorised\") */\n      iszero\n      iszero\n      tag_105\n      jumpi\n      mload(0x40)\n      0x08c379a000000000000000000000000000000000000000000000000000000000\n      dup2\n      mstore\n      0x04\n      add\n      dup1\n      dup1\n      0x20\n      add\n      dup3\n      dup2\n      sub\n      dup3\n      mstore\n      0x2b\n      dup2\n      mstore\n      0x20\n      add\n      dup1\n      data_75b80d254974e234aa097720f74460cadd2b76f17d7eb2120a344a75769d98ab\n      0x2b\n      swap2\n      codecopy\n      0x40\n      add\n      swap2\n      pop\n      pop\n      mload(0x40)\n      dup1\n      swap2\n      sub\n      swap1\n      revert\n    tag_105:\n        /* \"NRTManager.sol\":6896:6920  burnTokenBal.add(amount) */\n      tag_107\n        /* \"NRTManager.sol\":6913:6919  amount */\n      dup3\n        /* \"NRTManager.sol\":6896:6908  burnTokenBal */\n      sload(0x05)\n        /* \"NRTManager.sol\":6896:6912  burnTokenBal.add */\n      tag_102\n      swap1\n        /* \"NRTManager.sol\":6896:6920  burnTokenBal.add(amount) */\n      swap2\n      swap1\n      0xffffffff\n      and\n      jump\t// in\n    tag_107:\n        /* \"NRTManager.sol\":6881:6893  burnTokenBal */\n      0x05\n        /* \"NRTManager.sol\":6881:6920  burnTokenBal = burnTokenBal.add(amount) */\n      dup2\n      swap1\n      sstore\n      pop\n        /* \"NRTManager.sol\":6935:6968  BurnTokenBalUpdated(burnTokenBal) */\n      0x8f740eb8352e99b7242ce9c7cec021ee8b28b4acef603ff1260fe8b722822fec\n        /* \"NRTManager.sol\":6955:6967  burnTokenBal */\n      sload(0x05)\n        /* \"NRTManager.sol\":6935:6968  BurnTokenBalUpdated(burnTokenBal) */\n      mload(0x40)\n      dup1\n      dup3\n      dup2\n      mstore\n      0x20\n      add\n      swap2\n      pop\n      pop\n      mload(0x40)\n      dup1\n      swap2\n      sub\n      swap1\n      log1\n        /* \"NRTManager.sol\":6985:6989  true */\n      0x01\n        /* \"NRTManager.sol\":6978:6989  return true */\n      swap1\n      pop\n        /* \"NRTManager.sol\":6793:6998  function UpdateBurnBal(uint256 amount) external OnlyAllowed returns(bool){... */\n      swap2\n      swap1\n      pop\n      jump\t// out\n        /* \"NRTManager.sol\":581:608  uint256 public burnTokenBal */\n    tag_57:\n      sload(0x05)\n      dup2\n      jump\t// out\n        /* \"NRTManager.sol\":842:872  address public marketingAndRNR */\n    tag_59:\n      0x0a\n      0x00\n      swap1\n      sload\n      swap1\n      0x0100\n      exp\n      swap1\n      div\n      0xffffffffffffffffffffffffffffffffffffffff\n      and\n      dup2\n      jump\t// out\n        /* \"NRTManager.sol\":943:980  address public researchAndDevelopment */\n    tag_61:\n      0x0d\n      0x00\n      swap1\n      sload\n      swap1\n      0x0100\n      exp\n      swap1\n      div\n      0xffffffffffffffffffffffffffffffffffffffff\n      and\n      dup2\n      jump\t// out\n        /* \"NRTManager.sol\":1628:1662  uint256 public contingencyFundsBal */\n    tag_63:\n      sload(0x15)\n      dup2\n      jump\t// out\n        /* \"NRTManager.sol\":198:229  uint256 public monthlyNRTAmount */\n    tag_65:\n      sload(0x01)\n      dup2\n      jump\t// out\n        /* \"NRTManager.sol\":878:900  address public kmPards */\n    tag_67:\n      0x0b\n      0x00\n      swap1\n      sload\n      swap1\n      0x0100\n      exp\n      swap1\n      div\n      0xffffffffffffffffffffffffffffffffffffffff\n      and\n      dup2\n      jump\t// out\n        /* \"NRTManager.sol\":111:140  uint256 public lastNRTRelease */\n    tag_69:\n      sload(0x00)\n      dup2\n      jump\t// out\n        /* \"NRTManager.sol\":301:331  uint256 public annualNRTAmount */\n    tag_71:\n      sload(0x02)\n      dup2\n      jump\t// out\n        /* \"NRTManager.sol\":1732:1772  uint256 public researchAndDevelopmentBal */\n    tag_73:\n      sload(0x16)\n      dup2\n      jump\t// out\n        /* \"NRTManager.sol\":1015:1042  address public timeSwappers */\n    tag_75:\n      0x0f\n      0x00\n      swap1\n      sload\n      swap1\n      0x0100\n      exp\n      swap1\n      div\n      0xffffffffffffffffffffffffffffffffffffffff\n      and\n      dup2\n      jump\t// out\n        /* \"NRTManager.sol\":986:1009  address public buzzCafe */\n    tag_77:\n      0x0e\n      0x00\n      swap1\n      sload\n      swap1\n      0x0100\n      exp\n      swap1\n      div\n      0xffffffffffffffffffffffffffffffffffffffff\n      and\n      dup2\n      jump\t// out\n        /* \"NRTManager.sol\":7097:9791  function MonthlyNRTRelease() external returns (bool) {... */\n    tag_79:\n        /* \"NRTManager.sol\":7144:7148  bool */\n      0x00\n        /* \"NRTManager.sol\":7201:7208  2592000 */\n      0x278d00\n        /* \"NRTManager.sol\":7168:7199  token.mou().sub(lastNRTRelease) */\n      tag_109\n        /* \"NRTManager.sol\":7184:7198  lastNRTRelease */\n      sload(0x00)\n        /* \"NRTManager.sol\":7168:7173  token */\n      0x06\n      0x00\n      swap1\n      sload\n      swap1\n      0x0100\n      exp\n      swap1\n      div\n      0xffffffffffffffffffffffffffffffffffffffff\n      and\n        /* \"NRTManager.sol\":7168:7177  token.mou */\n      0xffffffffffffffffffffffffffffffffffffffff\n      and\n      0xb81f90f3\n        /* \"NRTManager.sol\":7168:7179  token.mou() */\n      mload(0x40)\n      dup2\n      0xffffffff\n      and\n      0x0100000000000000000000000000000000000000000000000000000000\n      mul\n      dup2\n      mstore\n      0x04\n      add\n      0x20\n      mload(0x40)\n      dup1\n      dup4\n      sub\n      dup2\n      dup7\n      dup1\n      extcodesize\n      iszero\n        /* \"--CODEGEN--\":8:17   */\n      dup1\n        /* \"--CODEGEN--\":5:7   */\n      iszero\n      tag_110\n      jumpi\n        /* \"--CODEGEN--\":30:31   */\n      0x00\n        /* \"--CODEGEN--\":27:28   */\n      dup1\n        /* \"--CODEGEN--\":20:32   */\n      revert\n        /* \"--CODEGEN--\":5:7   */\n    tag_110:\n        /* \"NRTManager.sol\":7168:7179  token.mou() */\n      pop\n      gas\n      staticcall\n      iszero\n        /* \"--CODEGEN--\":8:17   */\n      dup1\n        /* \"--CODEGEN--\":5:7   */\n      iszero\n      tag_111\n      jumpi\n        /* \"--CODEGEN--\":45:61   */\n      returndatasize\n        /* \"--CODEGEN--\":42:43   */\n      0x00\n        /* \"--CODEGEN--\":39:40   */\n      dup1\n        /* \"--CODEGEN--\":24:62   */\n      returndatacopy\n        /* \"--CODEGEN--\":77:93   */\n      returndatasize\n        /* \"--CODEGEN--\":74:75   */\n      0x00\n        /* \"--CODEGEN--\":67:94   */\n      revert\n        /* \"--CODEGEN--\":5:7   */\n    tag_111:\n        /* \"NRTManager.sol\":7168:7179  token.mou() */\n      pop\n      pop\n      pop\n      pop\n      mload(0x40)\n      returndatasize\n        /* \"--CODEGEN--\":13:15   */\n      0x20\n        /* \"--CODEGEN--\":8:11   */\n      dup2\n        /* \"--CODEGEN--\":5:16   */\n      lt\n        /* \"--CODEGEN--\":2:4   */\n      iszero\n      tag_112\n      jumpi\n        /* \"--CODEGEN--\":29:30   */\n      0x00\n        /* \"--CODEGEN--\":26:27   */\n      dup1\n        /* \"--CODEGEN--\":19:31   */\n      revert\n        /* \"--CODEGEN--\":2:4   */\n    tag_112:\n        /* \"NRTManager.sol\":7168:7179  token.mou() */\n      dup2\n      add\n      swap1\n      dup1\n      dup1\n      mload\n      swap1\n      0x20\n      add\n      swap1\n      swap3\n      swap2\n      swap1\n      pop\n      pop\n      pop\n        /* \"NRTManager.sol\":7168:7183  token.mou().sub */\n      tag_113\n      swap1\n        /* \"NRTManager.sol\":7168:7199  token.mou().sub(lastNRTRelease) */\n      swap2\n      swap1\n      0xffffffff\n      and\n      jump\t// in\n    tag_109:\n        /* \"NRTManager.sol\":7168:7208  token.mou().sub(lastNRTRelease)> 2592000 */\n      gt\n        /* \"NRTManager.sol\":7160:7248  require(token.mou().sub(lastNRTRelease)> 2592000,\"NRT release happens once every month\") */\n      iszero\n      iszero\n      tag_114\n      jumpi\n      mload(0x40)\n      0x08c379a000000000000000000000000000000000000000000000000000000000\n      dup2\n      mstore\n      0x04\n      add\n      dup1\n      dup1\n      0x20\n      add\n      dup3\n      dup2\n      sub\n      dup3\n      mstore\n      0x24\n      dup2\n      mstore\n      0x20\n      add\n      dup1\n      data_f2be0bdc1b11a94fc4e1a8a1916cd2e21b6687cb60899d8c2cd7a367527e7b93\n      0x24\n      swap2\n      codecopy\n      0x40\n      add\n      swap2\n      pop\n      pop\n      mload(0x40)\n      dup1\n      swap2\n      sub\n      swap1\n      revert\n    tag_114:\n        /* \"NRTManager.sol\":7258:7272  uint256 NRTBal */\n      0x00\n        /* \"NRTManager.sol\":7275:7308  monthlyNRTAmount.add(luckPoolBal) */\n      tag_115\n        /* \"NRTManager.sol\":7296:7307  luckPoolBal */\n      sload(0x04)\n        /* \"NRTManager.sol\":7275:7291  monthlyNRTAmount */\n      sload(0x01)\n        /* \"NRTManager.sol\":7275:7295  monthlyNRTAmount.add */\n      tag_102\n      swap1\n        /* \"NRTManager.sol\":7275:7308  monthlyNRTAmount.add(luckPoolBal) */\n      swap2\n      swap1\n      0xffffffff\n      and\n      jump\t// in\n    tag_115:\n        /* \"NRTManager.sol\":7258:7308  uint256 NRTBal = monthlyNRTAmount.add(luckPoolBal) */\n      swap1\n      pop\n        /* \"NRTManager.sol\":7444:7468  (NRTBal.mul(5)).div(100) */\n      tag_116\n        /* \"NRTManager.sol\":7464:7467  100 */\n      0x64\n        /* \"NRTManager.sol\":7445:7458  NRTBal.mul(5) */\n      tag_117\n        /* \"NRTManager.sol\":7456:7457  5 */\n      0x05\n        /* \"NRTManager.sol\":7445:7451  NRTBal */\n      dup5\n        /* \"NRTManager.sol\":7445:7455  NRTBal.mul */\n      tag_118\n      swap1\n        /* \"NRTManager.sol\":7445:7458  NRTBal.mul(5) */\n      swap2\n      swap1\n      0xffffffff\n      and\n      jump\t// in\n    tag_117:\n        /* \"NRTManager.sol\":7444:7463  (NRTBal.mul(5)).div */\n      tag_119\n      swap1\n        /* \"NRTManager.sol\":7444:7468  (NRTBal.mul(5)).div(100) */\n      swap2\n      swap1\n      0xffffffff\n      and\n      jump\t// in\n    tag_116:\n        /* \"NRTManager.sol\":7413:7441  newTalentsAndPartnershipsBal */\n      0x11\n        /* \"NRTManager.sol\":7413:7468  newTalentsAndPartnershipsBal = (NRTBal.mul(5)).div(100) */\n      dup2\n      swap1\n      sstore\n      pop\n        /* \"NRTManager.sol\":7503:7528  (NRTBal.mul(10)).div(100) */\n      tag_120\n        /* \"NRTManager.sol\":7524:7527  100 */\n      0x64\n        /* \"NRTManager.sol\":7504:7518  NRTBal.mul(10) */\n      tag_121\n        /* \"NRTManager.sol\":7515:7517  10 */\n      0x0a\n        /* \"NRTManager.sol\":7504:7510  NRTBal */\n      dup5\n        /* \"NRTManager.sol\":7504:7514  NRTBal.mul */\n      tag_118\n      swap1\n        /* \"NRTManager.sol\":7504:7518  NRTBal.mul(10) */\n      swap2\n      swap1\n      0xffffffff\n      and\n      jump\t// in\n    tag_121:\n        /* \"NRTManager.sol\":7503:7523  (NRTBal.mul(10)).div */\n      tag_119\n      swap1\n        /* \"NRTManager.sol\":7503:7528  (NRTBal.mul(10)).div(100) */\n      swap2\n      swap1\n      0xffffffff\n      and\n      jump\t// in\n    tag_120:\n        /* \"NRTManager.sol\":7478:7500  platformMaintenanceBal */\n      0x12\n        /* \"NRTManager.sol\":7478:7528  platformMaintenanceBal = (NRTBal.mul(10)).div(100) */\n      dup2\n      swap1\n      sstore\n      pop\n        /* \"NRTManager.sol\":7559:7584  (NRTBal.mul(10)).div(100) */\n      tag_122\n        /* \"NRTManager.sol\":7580:7583  100 */\n      0x64\n        /* \"NRTManager.sol\":7560:7574  NRTBal.mul(10) */\n      tag_123\n        /* \"NRTManager.sol\":7571:7573  10 */\n      0x0a\n        /* \"NRTManager.sol\":7560:7566  NRTBal */\n      dup5\n        /* \"NRTManager.sol\":7560:7570  NRTBal.mul */\n      tag_118\n      swap1\n        /* \"NRTManager.sol\":7560:7574  NRTBal.mul(10) */\n      swap2\n      swap1\n      0xffffffff\n      and\n      jump\t// in\n    tag_123:\n        /* \"NRTManager.sol\":7559:7579  (NRTBal.mul(10)).div */\n      tag_119\n      swap1\n        /* \"NRTManager.sol\":7559:7584  (NRTBal.mul(10)).div(100) */\n      swap2\n      swap1\n      0xffffffff\n      and\n      jump\t// in\n    tag_122:\n        /* \"NRTManager.sol\":7538:7556  marketingAndRNRBal */\n      0x13\n        /* \"NRTManager.sol\":7538:7584  marketingAndRNRBal = (NRTBal.mul(10)).div(100) */\n      dup2\n      swap1\n      sstore\n      pop\n        /* \"NRTManager.sol\":7607:7632  (NRTBal.mul(10)).div(100) */\n      tag_124\n        /* \"NRTManager.sol\":7628:7631  100 */\n      0x64\n        /* \"NRTManager.sol\":7608:7622  NRTBal.mul(10) */\n      tag_125\n        /* \"NRTManager.sol\":7619:7621  10 */\n      0x0a\n        /* \"NRTManager.sol\":7608:7614  NRTBal */\n      dup5\n        /* \"NRTManager.sol\":7608:7618  NRTBal.mul */\n      tag_118\n      swap1\n        /* \"NRTManager.sol\":7608:7622  NRTBal.mul(10) */\n      swap2\n      swap1\n      0xffffffff\n      and\n      jump\t// in\n    tag_125:\n        /* \"NRTManager.sol\":7607:7627  (NRTBal.mul(10)).div */\n      tag_119\n      swap1\n        /* \"NRTManager.sol\":7607:7632  (NRTBal.mul(10)).div(100) */\n      swap2\n      swap1\n      0xffffffff\n      and\n      jump\t// in\n    tag_124:\n        /* \"NRTManager.sol\":7594:7604  kmPardsBal */\n      0x14\n        /* \"NRTManager.sol\":7594:7632  kmPardsBal = (NRTBal.mul(10)).div(100) */\n      dup2\n      swap1\n      sstore\n      pop\n        /* \"NRTManager.sol\":7664:7689  (NRTBal.mul(10)).div(100) */\n      tag_126\n        /* \"NRTManager.sol\":7685:7688  100 */\n      0x64\n        /* \"NRTManager.sol\":7665:7679  NRTBal.mul(10) */\n      tag_127\n        /* \"NRTManager.sol\":7676:7678  10 */\n      0x0a\n        /* \"NRTManager.sol\":7665:7671  NRTBal */\n      dup5\n        /* \"NRTManager.sol\":7665:7675  NRTBal.mul */\n      tag_118\n      swap1\n        /* \"NRTManager.sol\":7665:7679  NRTBal.mul(10) */\n      swap2\n      swap1\n      0xffffffff\n      and\n      jump\t// in\n    tag_127:\n        /* \"NRTManager.sol\":7664:7684  (NRTBal.mul(10)).div */\n      tag_119\n      swap1\n        /* \"NRTManager.sol\":7664:7689  (NRTBal.mul(10)).div(100) */\n      swap2\n      swap1\n      0xffffffff\n      and\n      jump\t// in\n    tag_126:\n        /* \"NRTManager.sol\":7642:7661  contingencyFundsBal */\n      0x15\n        /* \"NRTManager.sol\":7642:7689  contingencyFundsBal = (NRTBal.mul(10)).div(100) */\n      dup2\n      swap1\n      sstore\n      pop\n        /* \"NRTManager.sol\":7727:7751  (NRTBal.mul(5)).div(100) */\n      tag_128\n        /* \"NRTManager.sol\":7747:7750  100 */\n      0x64\n        /* \"NRTManager.sol\":7728:7741  NRTBal.mul(5) */\n      tag_129\n        /* \"NRTManager.sol\":7739:7740  5 */\n      0x05\n        /* \"NRTManager.sol\":7728:7734  NRTBal */\n      dup5\n        /* \"NRTManager.sol\":7728:7738  NRTBal.mul */\n      tag_118\n      swap1\n        /* \"NRTManager.sol\":7728:7741  NRTBal.mul(5) */\n      swap2\n      swap1\n      0xffffffff\n      and\n      jump\t// in\n    tag_129:\n        /* \"NRTManager.sol\":7727:7746  (NRTBal.mul(5)).div */\n      tag_119\n      swap1\n        /* \"NRTManager.sol\":7727:7751  (NRTBal.mul(5)).div(100) */\n      swap2\n      swap1\n      0xffffffff\n      and\n      jump\t// in\n    tag_128:\n        /* \"NRTManager.sol\":7699:7724  researchAndDevelopmentBal */\n      0x16\n        /* \"NRTManager.sol\":7699:7751  researchAndDevelopmentBal = (NRTBal.mul(5)).div(100) */\n      dup2\n      swap1\n      sstore\n      pop\n        /* \"NRTManager.sol\":7776:7802  (NRTBal.mul(25)).div(1000) */\n      tag_130\n        /* \"NRTManager.sol\":7797:7801  1000 */\n      0x03e8\n        /* \"NRTManager.sol\":7777:7791  NRTBal.mul(25) */\n      tag_131\n        /* \"NRTManager.sol\":7788:7790  25 */\n      0x19\n        /* \"NRTManager.sol\":7777:7783  NRTBal */\n      dup5\n        /* \"NRTManager.sol\":7777:7787  NRTBal.mul */\n      tag_118\n      swap1\n        /* \"NRTManager.sol\":7777:7791  NRTBal.mul(25) */\n      swap2\n      swap1\n      0xffffffff\n      and\n      jump\t// in\n    tag_131:\n        /* \"NRTManager.sol\":7776:7796  (NRTBal.mul(25)).div */\n      tag_119\n      swap1\n        /* \"NRTManager.sol\":7776:7802  (NRTBal.mul(25)).div(1000) */\n      swap2\n      swap1\n      0xffffffff\n      and\n      jump\t// in\n    tag_130:\n        /* \"NRTManager.sol\":7762:7773  buzzCafeNRT */\n      0x17\n        /* \"NRTManager.sol\":7762:7802  buzzCafeNRT = (NRTBal.mul(25)).div(1000) */\n      dup2\n      swap1\n      sstore\n      pop\n        /* \"NRTManager.sol\":7826:7851  (NRTBal.mul(15)).div(100) */\n      tag_132\n        /* \"NRTManager.sol\":7847:7850  100 */\n      0x64\n        /* \"NRTManager.sol\":7827:7841  NRTBal.mul(15) */\n      tag_133\n        /* \"NRTManager.sol\":7838:7840  15 */\n      0x0f\n        /* \"NRTManager.sol\":7827:7833  NRTBal */\n      dup5\n        /* \"NRTManager.sol\":7827:7837  NRTBal.mul */\n      tag_118\n      swap1\n        /* \"NRTManager.sol\":7827:7841  NRTBal.mul(15) */\n      swap2\n      swap1\n      0xffffffff\n      and\n      jump\t// in\n    tag_133:\n        /* \"NRTManager.sol\":7826:7846  (NRTBal.mul(15)).div */\n      tag_119\n      swap1\n        /* \"NRTManager.sol\":7826:7851  (NRTBal.mul(15)).div(100) */\n      swap2\n      swap1\n      0xffffffff\n      and\n      jump\t// in\n    tag_132:\n        /* \"NRTManager.sol\":7812:7823  TimeAllyNRT */\n      0x18\n        /* \"NRTManager.sol\":7812:7851  TimeAllyNRT = (NRTBal.mul(15)).div(100) */\n      dup2\n      swap1\n      sstore\n      pop\n        /* \"NRTManager.sol\":7879:7906  (NRTBal.mul(325)).div(1000) */\n      tag_134\n        /* \"NRTManager.sol\":7901:7905  1000 */\n      0x03e8\n        /* \"NRTManager.sol\":7880:7895  NRTBal.mul(325) */\n      tag_135\n        /* \"NRTManager.sol\":7891:7894  325 */\n      0x0145\n        /* \"NRTManager.sol\":7880:7886  NRTBal */\n      dup5\n        /* \"NRTManager.sol\":7880:7890  NRTBal.mul */\n      tag_118\n      swap1\n        /* \"NRTManager.sol\":7880:7895  NRTBal.mul(325) */\n      swap2\n      swap1\n      0xffffffff\n      and\n      jump\t// in\n    tag_135:\n        /* \"NRTManager.sol\":7879:7900  (NRTBal.mul(325)).div */\n      tag_119\n      swap1\n        /* \"NRTManager.sol\":7879:7906  (NRTBal.mul(325)).div(1000) */\n      swap2\n      swap1\n      0xffffffff\n      and\n      jump\t// in\n    tag_134:\n        /* \"NRTManager.sol\":7861:7876  timeSwappersNRT */\n      0x19\n        /* \"NRTManager.sol\":7861:7906  timeSwappersNRT = (NRTBal.mul(325)).div(1000) */\n      dup2\n      swap1\n      sstore\n      pop\n        /* \"NRTManager.sol\":7985:7990  token */\n      0x06\n      0x00\n      swap1\n      sload\n      swap1\n      0x0100\n      exp\n      swap1\n      div\n      0xffffffffffffffffffffffffffffffffffffffff\n      and\n        /* \"NRTManager.sol\":7985:7995  token.mint */\n      0xffffffffffffffffffffffffffffffffffffffff\n      and\n      0x40c10f19\n        /* \"NRTManager.sol\":7996:8021  newTalentsAndPartnerships */\n      0x08\n      0x00\n      swap1\n      sload\n      swap1\n      0x0100\n      exp\n      swap1\n      div\n      0xffffffffffffffffffffffffffffffffffffffff\n      and\n        /* \"NRTManager.sol\":8022:8050  newTalentsAndPartnershipsBal */\n      sload(0x11)\n        /* \"NRTManager.sol\":7985:8051  token.mint(newTalentsAndPartnerships,newTalentsAndPartnershipsBal) */\n      mload(0x40)\n      dup4\n      0xffffffff\n      and\n      0x0100000000000000000000000000000000000000000000000000000000\n      mul\n      dup2\n      mstore\n      0x04\n      add\n      dup1\n      dup4\n      0xffffffffffffffffffffffffffffffffffffffff\n      and\n      0xffffffffffffffffffffffffffffffffffffffff\n      and\n      dup2\n      mstore\n      0x20\n      add\n      dup3\n      dup2\n      mstore\n      0x20\n      add\n      swap3\n      pop\n      pop\n      pop\n      0x20\n      mload(0x40)\n      dup1\n      dup4\n      sub\n      dup2\n      0x00\n      dup8\n      dup1\n      extcodesize\n      iszero\n        /* \"--CODEGEN--\":8:17   */\n      dup1\n        /* \"--CODEGEN--\":5:7   */\n      iszero\n      tag_136\n      jumpi\n        /* \"--CODEGEN--\":30:31   */\n      0x00\n        /* \"--CODEGEN--\":27:28   */\n      dup1\n        /* \"--CODEGEN--\":20:32   */\n      revert\n        /* \"--CODEGEN--\":5:7   */\n    tag_136:\n        /* \"NRTManager.sol\":7985:8051  token.mint(newTalentsAndPartnerships,newTalentsAndPartnershipsBal) */\n      pop\n      gas\n      call\n      iszero\n        /* \"--CODEGEN--\":8:17   */\n      dup1\n        /* \"--CODEGEN--\":5:7   */\n      iszero\n      tag_137\n      jumpi\n        /* \"--CODEGEN--\":45:61   */\n      returndatasize\n        /* \"--CODEGEN--\":42:43   */\n      0x00\n        /* \"--CODEGEN--\":39:40   */\n      dup1\n        /* \"--CODEGEN--\":24:62   */\n      returndatacopy\n        /* \"--CODEGEN--\":77:93   */\n      returndatasize\n        /* \"--CODEGEN--\":74:75   */\n      0x00\n        /* \"--CODEGEN--\":67:94   */\n      revert\n        /* \"--CODEGEN--\":5:7   */\n    tag_137:\n        /* \"NRTManager.sol\":7985:8051  token.mint(newTalentsAndPartnerships,newTalentsAndPartnershipsBal) */\n      pop\n      pop\n      pop\n      pop\n      mload(0x40)\n      returndatasize\n        /* \"--CODEGEN--\":13:15   */\n      0x20\n        /* \"--CODEGEN--\":8:11   */\n      dup2\n        /* \"--CODEGEN--\":5:16   */\n      lt\n        /* \"--CODEGEN--\":2:4   */\n      iszero\n      tag_138\n      jumpi\n        /* \"--CODEGEN--\":29:30   */\n      0x00\n        /* \"--CODEGEN--\":26:27   */\n      dup1\n        /* \"--CODEGEN--\":19:31   */\n      revert\n        /* \"--CODEGEN--\":2:4   */\n    tag_138:\n        /* \"NRTManager.sol\":7985:8051  token.mint(newTalentsAndPartnerships,newTalentsAndPartnershipsBal) */\n      dup2\n      add\n      swap1\n      dup1\n      dup1\n      mload\n      swap1\n      0x20\n      add\n      swap1\n      swap3\n      swap2\n      swap1\n      pop\n      pop\n      pop\n      pop\n        /* \"NRTManager.sol\":8066:8163  NRTTransfer(\"newTalentsAndPartnerships\", newTalentsAndPartnerships, newTalentsAndPartnershipsBal) */\n      0x8470ec6072093abfec912969ee9fd5273eed1d3202eac51a1fd83c236ee9bea8\n        /* \"NRTManager.sol\":8107:8132  newTalentsAndPartnerships */\n      0x08\n      0x00\n      swap1\n      sload\n      swap1\n      0x0100\n      exp\n      swap1\n      div\n      0xffffffffffffffffffffffffffffffffffffffff\n      and\n        /* \"NRTManager.sol\":8134:8162  newTalentsAndPartnershipsBal */\n      sload(0x11)\n        /* \"NRTManager.sol\":8066:8163  NRTTransfer(\"newTalentsAndPartnerships\", newTalentsAndPartnerships, newTalentsAndPartnershipsBal) */\n      mload(0x40)\n      dup1\n      dup1\n      0x20\n      add\n      dup5\n      0xffffffffffffffffffffffffffffffffffffffff\n      and\n      0xffffffffffffffffffffffffffffffffffffffff\n      and\n      dup2\n      mstore\n      0x20\n      add\n      dup4\n      dup2\n      mstore\n      0x20\n      add\n      dup3\n      dup2\n      sub\n      dup3\n      mstore\n      0x19\n      dup2\n      mstore\n      0x20\n      add\n      dup1\n      0x6e657754616c656e7473416e64506172746e6572736869707300000000000000\n      dup2\n      mstore\n      pop\n      0x20\n      add\n      swap4\n      pop\n      pop\n      pop\n      pop\n      mload(0x40)\n      dup1\n      swap2\n      sub\n      swap1\n      log1\n        /* \"NRTManager.sol\":8174:8179  token */\n      0x06\n      0x00\n      swap1\n      sload\n      swap1\n      0x0100\n      exp\n      swap1\n      div\n      0xffffffffffffffffffffffffffffffffffffffff\n      and\n        /* \"NRTManager.sol\":8174:8184  token.mint */\n      0xffffffffffffffffffffffffffffffffffffffff\n      and\n      0x40c10f19\n        /* \"NRTManager.sol\":8185:8204  platformMaintenance */\n      0x09\n      0x00\n      swap1\n      sload\n      swap1\n      0x0100\n      exp\n      swap1\n      div\n      0xffffffffffffffffffffffffffffffffffffffff\n      and\n        /* \"NRTManager.sol\":8205:8227  platformMaintenanceBal */\n      sload(0x12)\n        /* \"NRTManager.sol\":8174:8228  token.mint(platformMaintenance,platformMaintenanceBal) */\n      mload(0x40)\n      dup4\n      0xffffffff\n      and\n      0x0100000000000000000000000000000000000000000000000000000000\n      mul\n      dup2\n      mstore\n      0x04\n      add\n      dup1\n      dup4\n      0xffffffffffffffffffffffffffffffffffffffff\n      and\n      0xffffffffffffffffffffffffffffffffffffffff\n      and\n      dup2\n      mstore\n      0x20\n      add\n      dup3\n      dup2\n      mstore\n      0x20\n      add\n      swap3\n      pop\n      pop\n      pop\n      0x20\n      mload(0x40)\n      dup1\n      dup4\n      sub\n      dup2\n      0x00\n      dup8\n      dup1\n      extcodesize\n      iszero\n        /* \"--CODEGEN--\":8:17   */\n      dup1\n        /* \"--CODEGEN--\":5:7   */\n      iszero\n      tag_139\n      jumpi\n        /* \"--CODEGEN--\":30:31   */\n      0x00\n        /* \"--CODEGEN--\":27:28   */\n      dup1\n        /* \"--CODEGEN--\":20:32   */\n      revert\n        /* \"--CODEGEN--\":5:7   */\n    tag_139:\n        /* \"NRTManager.sol\":8174:8228  token.mint(platformMaintenance,platformMaintenanceBal) */\n      pop\n      gas\n      call\n      iszero\n        /* \"--CODEGEN--\":8:17   */\n      dup1\n        /* \"--CODEGEN--\":5:7   */\n      iszero\n      tag_140\n      jumpi\n        /* \"--CODEGEN--\":45:61   */\n      returndatasize\n        /* \"--CODEGEN--\":42:43   */\n      0x00\n        /* \"--CODEGEN--\":39:40   */\n      dup1\n        /* \"--CODEGEN--\":24:62   */\n      returndatacopy\n        /* \"--CODEGEN--\":77:93   */\n      returndatasize\n        /* \"--CODEGEN--\":74:75   */\n      0x00\n        /* \"--CODEGEN--\":67:94   */\n      revert\n        /* \"--CODEGEN--\":5:7   */\n    tag_140:\n        /* \"NRTManager.sol\":8174:8228  token.mint(platformMaintenance,platformMaintenanceBal) */\n      pop\n      pop\n      pop\n      pop\n      mload(0x40)\n      returndatasize\n        /* \"--CODEGEN--\":13:15   */\n      0x20\n        /* \"--CODEGEN--\":8:11   */\n      dup2\n        /* \"--CODEGEN--\":5:16   */\n      lt\n        /* \"--CODEGEN--\":2:4   */\n      iszero\n      tag_141\n      jumpi\n        /* \"--CODEGEN--\":29:30   */\n      0x00\n        /* \"--CODEGEN--\":26:27   */\n      dup1\n        /* \"--CODEGEN--\":19:31   */\n      revert\n        /* \"--CODEGEN--\":2:4   */\n    tag_141:\n        /* \"NRTManager.sol\":8174:8228  token.mint(platformMaintenance,platformMaintenanceBal) */\n      dup2\n      add\n      swap1\n      dup1\n      dup1\n      mload\n      swap1\n      0x20\n      add\n      swap1\n      swap3\n      swap2\n      swap1\n      pop\n      pop\n      pop\n      pop\n        /* \"NRTManager.sol\":8243:8322  NRTTransfer(\"platformMaintenance\", platformMaintenance, platformMaintenanceBal) */\n      0x8470ec6072093abfec912969ee9fd5273eed1d3202eac51a1fd83c236ee9bea8\n        /* \"NRTManager.sol\":8278:8297  platformMaintenance */\n      0x09\n      0x00\n      swap1\n      sload\n      swap1\n      0x0100\n      exp\n      swap1\n      div\n      0xffffffffffffffffffffffffffffffffffffffff\n      and\n        /* \"NRTManager.sol\":8299:8321  platformMaintenanceBal */\n      sload(0x12)\n        /* \"NRTManager.sol\":8243:8322  NRTTransfer(\"platformMaintenance\", platformMaintenance, platformMaintenanceBal) */\n      mload(0x40)\n      dup1\n      dup1\n      0x20\n      add\n      dup5\n      0xffffffffffffffffffffffffffffffffffffffff\n      and\n      0xffffffffffffffffffffffffffffffffffffffff\n      and\n      dup2\n      mstore\n      0x20\n      add\n      dup4\n      dup2\n      mstore\n      0x20\n      add\n      dup3\n      dup2\n      sub\n      dup3\n      mstore\n      0x13\n      dup2\n      mstore\n      0x20\n      add\n      dup1\n      0x706c6174666f726d4d61696e74656e616e636500000000000000000000000000\n      dup2\n      mstore\n      pop\n      0x20\n      add\n      swap4\n      pop\n      pop\n      pop\n      pop\n      mload(0x40)\n      dup1\n      swap2\n      sub\n      swap1\n      log1\n        /* \"NRTManager.sol\":8333:8338  token */\n      0x06\n      0x00\n      swap1\n      sload\n      swap1\n      0x0100\n      exp\n      swap1\n      div\n      0xffffffffffffffffffffffffffffffffffffffff\n      and\n        /* \"NRTManager.sol\":8333:8343  token.mint */\n      0xffffffffffffffffffffffffffffffffffffffff\n      and\n      0x40c10f19\n        /* \"NRTManager.sol\":8344:8359  marketingAndRNR */\n      0x0a\n      0x00\n      swap1\n      sload\n      swap1\n      0x0100\n      exp\n      swap1\n      div\n      0xffffffffffffffffffffffffffffffffffffffff\n      and\n        /* \"NRTManager.sol\":8360:8378  marketingAndRNRBal */\n      sload(0x13)\n        /* \"NRTManager.sol\":8333:8379  token.mint(marketingAndRNR,marketingAndRNRBal) */\n      mload(0x40)\n      dup4\n      0xffffffff\n      and\n      0x0100000000000000000000000000000000000000000000000000000000\n      mul\n      dup2\n      mstore\n      0x04\n      add\n      dup1\n      dup4\n      0xffffffffffffffffffffffffffffffffffffffff\n      and\n      0xffffffffffffffffffffffffffffffffffffffff\n      and\n      dup2\n      mstore\n      0x20\n      add\n      dup3\n      dup2\n      mstore\n      0x20\n      add\n      swap3\n      pop\n      pop\n      pop\n      0x20\n      mload(0x40)\n      dup1\n      dup4\n      sub\n      dup2\n      0x00\n      dup8\n      dup1\n      extcodesize\n      iszero\n        /* \"--CODEGEN--\":8:17   */\n      dup1\n        /* \"--CODEGEN--\":5:7   */\n      iszero\n      tag_142\n      jumpi\n        /* \"--CODEGEN--\":30:31   */\n      0x00\n        /* \"--CODEGEN--\":27:28   */\n      dup1\n        /* \"--CODEGEN--\":20:32   */\n      revert\n        /* \"--CODEGEN--\":5:7   */\n    tag_142:\n        /* \"NRTManager.sol\":8333:8379  token.mint(marketingAndRNR,marketingAndRNRBal) */\n      pop\n      gas\n      call\n      iszero\n        /* \"--CODEGEN--\":8:17   */\n      dup1\n        /* \"--CODEGEN--\":5:7   */\n      iszero\n      tag_143\n      jumpi\n        /* \"--CODEGEN--\":45:61   */\n      returndatasize\n        /* \"--CODEGEN--\":42:43   */\n      0x00\n        /* \"--CODEGEN--\":39:40   */\n      dup1\n        /* \"--CODEGEN--\":24:62   */\n      returndatacopy\n        /* \"--CODEGEN--\":77:93   */\n      returndatasize\n        /* \"--CODEGEN--\":74:75   */\n      0x00\n        /* \"--CODEGEN--\":67:94   */\n      revert\n        /* \"--CODEGEN--\":5:7   */\n    tag_143:\n        /* \"NRTManager.sol\":8333:8379  token.mint(marketingAndRNR,marketingAndRNRBal) */\n      pop\n      pop\n      pop\n      pop\n      mload(0x40)\n      returndatasize\n        /* \"--CODEGEN--\":13:15   */\n      0x20\n        /* \"--CODEGEN--\":8:11   */\n      dup2\n        /* \"--CODEGEN--\":5:16   */\n      lt\n        /* \"--CODEGEN--\":2:4   */\n      iszero\n      tag_144\n      jumpi\n        /* \"--CODEGEN--\":29:30   */\n      0x00\n        /* \"--CODEGEN--\":26:27   */\n      dup1\n        /* \"--CODEGEN--\":19:31   */\n      revert\n        /* \"--CODEGEN--\":2:4   */\n    tag_144:\n        /* \"NRTManager.sol\":8333:8379  token.mint(marketingAndRNR,marketingAndRNRBal) */\n      dup2\n      add\n      swap1\n      dup1\n      dup1\n      mload\n      swap1\n      0x20\n      add\n      swap1\n      swap3\n      swap2\n      swap1\n      pop\n      pop\n      pop\n      pop\n        /* \"NRTManager.sol\":8394:8461  NRTTransfer(\"marketingAndRNR\", marketingAndRNR, marketingAndRNRBal) */\n      0x8470ec6072093abfec912969ee9fd5273eed1d3202eac51a1fd83c236ee9bea8\n        /* \"NRTManager.sol\":8425:8440  marketingAndRNR */\n      0x0a\n      0x00\n      swap1\n      sload\n      swap1\n      0x0100\n      exp\n      swap1\n      div\n      0xffffffffffffffffffffffffffffffffffffffff\n      and\n        /* \"NRTManager.sol\":8442:8460  marketingAndRNRBal */\n      sload(0x13)\n        /* \"NRTManager.sol\":8394:8461  NRTTransfer(\"marketingAndRNR\", marketingAndRNR, marketingAndRNRBal) */\n      mload(0x40)\n      dup1\n      dup1\n      0x20\n      add\n      dup5\n      0xffffffffffffffffffffffffffffffffffffffff\n      and\n      0xffffffffffffffffffffffffffffffffffffffff\n      and\n      dup2\n      mstore\n      0x20\n      add\n      dup4\n      dup2\n      mstore\n      0x20\n      add\n      dup3\n      dup2\n      sub\n      dup3\n      mstore\n      0x0f\n      dup2\n      mstore\n      0x20\n      add\n      dup1\n      0x6d61726b6574696e67416e64524e520000000000000000000000000000000000\n      dup2\n      mstore\n      pop\n      0x20\n      add\n      swap4\n      pop\n      pop\n      pop\n      pop\n      mload(0x40)\n      dup1\n      swap2\n      sub\n      swap1\n      log1\n        /* \"NRTManager.sol\":8472:8477  token */\n      0x06\n      0x00\n      swap1\n      sload\n      swap1\n      0x0100\n      exp\n      swap1\n      div\n      0xffffffffffffffffffffffffffffffffffffffff\n      and\n        /* \"NRTManager.sol\":8472:8482  token.mint */\n      0xffffffffffffffffffffffffffffffffffffffff\n      and\n      0x40c10f19\n        /* \"NRTManager.sol\":8483:8490  kmPards */\n      0x0b\n      0x00\n      swap1\n      sload\n      swap1\n      0x0100\n      exp\n      swap1\n      div\n      0xffffffffffffffffffffffffffffffffffffffff\n      and\n        /* \"NRTManager.sol\":8491:8501  kmPardsBal */\n      sload(0x14)\n        /* \"NRTManager.sol\":8472:8502  token.mint(kmPards,kmPardsBal) */\n      mload(0x40)\n      dup4\n      0xffffffff\n      and\n      0x0100000000000000000000000000000000000000000000000000000000\n      mul\n      dup2\n      mstore\n      0x04\n      add\n      dup1\n      dup4\n      0xffffffffffffffffffffffffffffffffffffffff\n      and\n      0xffffffffffffffffffffffffffffffffffffffff\n      and\n      dup2\n      mstore\n      0x20\n      add\n      dup3\n      dup2\n      mstore\n      0x20\n      add\n      swap3\n      pop\n      pop\n      pop\n      0x20\n      mload(0x40)\n      dup1\n      dup4\n      sub\n      dup2\n      0x00\n      dup8\n      dup1\n      extcodesize\n      iszero\n        /* \"--CODEGEN--\":8:17   */\n      dup1\n        /* \"--CODEGEN--\":5:7   */\n      iszero\n      tag_145\n      jumpi\n        /* \"--CODEGEN--\":30:31   */\n      0x00\n        /* \"--CODEGEN--\":27:28   */\n      dup1\n        /* \"--CODEGEN--\":20:32   */\n      revert\n        /* \"--CODEGEN--\":5:7   */\n    tag_145:\n        /* \"NRTManager.sol\":8472:8502  token.mint(kmPards,kmPardsBal) */\n      pop\n      gas\n      call\n      iszero\n        /* \"--CODEGEN--\":8:17   */\n      dup1\n        /* \"--CODEGEN--\":5:7   */\n      iszero\n      tag_146\n      jumpi\n        /* \"--CODEGEN--\":45:61   */\n      returndatasize\n        /* \"--CODEGEN--\":42:43   */\n      0x00\n        /* \"--CODEGEN--\":39:40   */\n      dup1\n        /* \"--CODEGEN--\":24:62   */\n      returndatacopy\n        /* \"--CODEGEN--\":77:93   */\n      returndatasize\n        /* \"--CODEGEN--\":74:75   */\n      0x00\n        /* \"--CODEGEN--\":67:94   */\n      revert\n        /* \"--CODEGEN--\":5:7   */\n    tag_146:\n        /* \"NRTManager.sol\":8472:8502  token.mint(kmPards,kmPardsBal) */\n      pop\n      pop\n      pop\n      pop\n      mload(0x40)\n      returndatasize\n        /* \"--CODEGEN--\":13:15   */\n      0x20\n        /* \"--CODEGEN--\":8:11   */\n      dup2\n        /* \"--CODEGEN--\":5:16   */\n      lt\n        /* \"--CODEGEN--\":2:4   */\n      iszero\n      tag_147\n      jumpi\n        /* \"--CODEGEN--\":29:30   */\n      0x00\n        /* \"--CODEGEN--\":26:27   */\n      dup1\n        /* \"--CODEGEN--\":19:31   */\n      revert\n        /* \"--CODEGEN--\":2:4   */\n    tag_147:\n        /* \"NRTManager.sol\":8472:8502  token.mint(kmPards,kmPardsBal) */\n      dup2\n      add\n      swap1\n      dup1\n      dup1\n      mload\n      swap1\n      0x20\n      add\n      swap1\n      swap3\n      swap2\n      swap1\n      pop\n      pop\n      pop\n      pop\n        /* \"NRTManager.sol\":8517:8560  NRTTransfer(\"kmPards\", kmPards, kmPardsBal) */\n      0x8470ec6072093abfec912969ee9fd5273eed1d3202eac51a1fd83c236ee9bea8\n        /* \"NRTManager.sol\":8540:8547  kmPards */\n      0x0b\n      0x00\n      swap1\n      sload\n      swap1\n      0x0100\n      exp\n      swap1\n      div\n      0xffffffffffffffffffffffffffffffffffffffff\n      and\n        /* \"NRTManager.sol\":8549:8559  kmPardsBal */\n      sload(0x14)\n        /* \"NRTManager.sol\":8517:8560  NRTTransfer(\"kmPards\", kmPards, kmPardsBal) */\n      mload(0x40)\n      dup1\n      dup1\n      0x20\n      add\n      dup5\n      0xffffffffffffffffffffffffffffffffffffffff\n      and\n      0xffffffffffffffffffffffffffffffffffffffff\n      and\n      dup2\n      mstore\n      0x20\n      add\n      dup4\n      dup2\n      mstore\n      0x20\n      add\n      dup3\n      dup2\n      sub\n      dup3\n      mstore\n      0x07\n      dup2\n      mstore\n      0x20\n      add\n      dup1\n      0x6b6d506172647300000000000000000000000000000000000000000000000000\n      dup2\n      mstore\n      pop\n      0x20\n      add\n      swap4\n      pop\n      pop\n      pop\n      pop\n      mload(0x40)\n      dup1\n      swap2\n      sub\n      swap1\n      log1\n        /* \"NRTManager.sol\":8571:8576  token */\n      0x06\n      0x00\n      swap1\n      sload\n      swap1\n      0x0100\n      exp\n      swap1\n      div\n      0xffffffffffffffffffffffffffffffffffffffff\n      and\n        /* \"NRTManager.sol\":8571:8581  token.mint */\n      0xffffffffffffffffffffffffffffffffffffffff\n      and\n      0x40c10f19\n        /* \"NRTManager.sol\":8582:8598  contingencyFunds */\n      0x0c\n      0x00\n      swap1\n      sload\n      swap1\n      0x0100\n      exp\n      swap1\n      div\n      0xffffffffffffffffffffffffffffffffffffffff\n      and\n        /* \"NRTManager.sol\":8599:8618  contingencyFundsBal */\n      sload(0x15)\n        /* \"NRTManager.sol\":8571:8619  token.mint(contingencyFunds,contingencyFundsBal) */\n      mload(0x40)\n      dup4\n      0xffffffff\n      and\n      0x0100000000000000000000000000000000000000000000000000000000\n      mul\n      dup2\n      mstore\n      0x04\n      add\n      dup1\n      dup4\n      0xffffffffffffffffffffffffffffffffffffffff\n      and\n      0xffffffffffffffffffffffffffffffffffffffff\n      and\n      dup2\n      mstore\n      0x20\n      add\n      dup3\n      dup2\n      mstore\n      0x20\n      add\n      swap3\n      pop\n      pop\n      pop\n      0x20\n      mload(0x40)\n      dup1\n      dup4\n      sub\n      dup2\n      0x00\n      dup8\n      dup1\n      extcodesize\n      iszero\n        /* \"--CODEGEN--\":8:17   */\n      dup1\n        /* \"--CODEGEN--\":5:7   */\n      iszero\n      tag_148\n      jumpi\n        /* \"--CODEGEN--\":30:31   */\n      0x00\n        /* \"--CODEGEN--\":27:28   */\n      dup1\n        /* \"--CODEGEN--\":20:32   */\n      revert\n        /* \"--CODEGEN--\":5:7   */\n    tag_148:\n        /* \"NRTManager.sol\":8571:8619  token.mint(contingencyFunds,contingencyFundsBal) */\n      pop\n      gas\n      call\n      iszero\n        /* \"--CODEGEN--\":8:17   */\n      dup1\n        /* \"--CODEGEN--\":5:7   */\n      iszero\n      tag_149\n      jumpi\n        /* \"--CODEGEN--\":45:61   */\n      returndatasize\n        /* \"--CODEGEN--\":42:43   */\n      0x00\n        /* \"--CODEGEN--\":39:40   */\n      dup1\n        /* \"--CODEGEN--\":24:62   */\n      returndatacopy\n        /* \"--CODEGEN--\":77:93   */\n      returndatasize\n        /* \"--CODEGEN--\":74:75   */\n      0x00\n        /* \"--CODEGEN--\":67:94   */\n      revert\n        /* \"--CODEGEN--\":5:7   */\n    tag_149:\n        /* \"NRTManager.sol\":8571:8619  token.mint(contingencyFunds,contingencyFundsBal) */\n      pop\n      pop\n      pop\n      pop\n      mload(0x40)\n      returndatasize\n        /* \"--CODEGEN--\":13:15   */\n      0x20\n        /* \"--CODEGEN--\":8:11   */\n      dup2\n        /* \"--CODEGEN--\":5:16   */\n      lt\n        /* \"--CODEGEN--\":2:4   */\n      iszero\n      tag_150\n      jumpi\n        /* \"--CODEGEN--\":29:30   */\n      0x00\n        /* \"--CODEGEN--\":26:27   */\n      dup1\n        /* \"--CODEGEN--\":19:31   */\n      revert\n        /* \"--CODEGEN--\":2:4   */\n    tag_150:\n        /* \"NRTManager.sol\":8571:8619  token.mint(contingencyFunds,contingencyFundsBal) */\n      dup2\n      add\n      swap1\n      dup1\n      dup1\n      mload\n      swap1\n      0x20\n      add\n      swap1\n      swap3\n      swap2\n      swap1\n      pop\n      pop\n      pop\n      pop\n        /* \"NRTManager.sol\":8634:8704  NRTTransfer(\"contingencyFunds\", contingencyFunds, contingencyFundsBal) */\n      0x8470ec6072093abfec912969ee9fd5273eed1d3202eac51a1fd83c236ee9bea8\n        /* \"NRTManager.sol\":8666:8682  contingencyFunds */\n      0x0c\n      0x00\n      swap1\n      sload\n      swap1\n      0x0100\n      exp\n      swap1\n      div\n      0xffffffffffffffffffffffffffffffffffffffff\n      and\n        /* \"NRTManager.sol\":8684:8703  contingencyFundsBal */\n      sload(0x15)\n        /* \"NRTManager.sol\":8634:8704  NRTTransfer(\"contingencyFunds\", contingencyFunds, contingencyFundsBal) */\n      mload(0x40)\n      dup1\n      dup1\n      0x20\n      add\n      dup5\n      0xffffffffffffffffffffffffffffffffffffffff\n      and\n      0xffffffffffffffffffffffffffffffffffffffff\n      and\n      dup2\n      mstore\n      0x20\n      add\n      dup4\n      dup2\n      mstore\n      0x20\n      add\n      dup3\n      dup2\n      sub\n      dup3\n      mstore\n      0x10\n      dup2\n      mstore\n      0x20\n      add\n      dup1\n      0x636f6e74696e67656e637946756e647300000000000000000000000000000000\n      dup2\n      mstore\n      pop\n      0x20\n      add\n      swap4\n      pop\n      pop\n      pop\n      pop\n      mload(0x40)\n      dup1\n      swap2\n      sub\n      swap1\n      log1\n        /* \"NRTManager.sol\":8715:8720  token */\n      0x06\n      0x00\n      swap1\n      sload\n      swap1\n      0x0100\n      exp\n      swap1\n      div\n      0xffffffffffffffffffffffffffffffffffffffff\n      and\n        /* \"NRTManager.sol\":8715:8725  token.mint */\n      0xffffffffffffffffffffffffffffffffffffffff\n      and\n      0x40c10f19\n        /* \"NRTManager.sol\":8726:8748  researchAndDevelopment */\n      0x0d\n      0x00\n      swap1\n      sload\n      swap1\n      0x0100\n      exp\n      swap1\n      div\n      0xffffffffffffffffffffffffffffffffffffffff\n      and\n        /* \"NRTManager.sol\":8749:8774  researchAndDevelopmentBal */\n      sload(0x16)\n        /* \"NRTManager.sol\":8715:8775  token.mint(researchAndDevelopment,researchAndDevelopmentBal) */\n      mload(0x40)\n      dup4\n      0xffffffff\n      and\n      0x0100000000000000000000000000000000000000000000000000000000\n      mul\n      dup2\n      mstore\n      0x04\n      add\n      dup1\n      dup4\n      0xffffffffffffffffffffffffffffffffffffffff\n      and\n      0xffffffffffffffffffffffffffffffffffffffff\n      and\n      dup2\n      mstore\n      0x20\n      add\n      dup3\n      dup2\n      mstore\n      0x20\n      add\n      swap3\n      pop\n      pop\n      pop\n      0x20\n      mload(0x40)\n      dup1\n      dup4\n      sub\n      dup2\n      0x00\n      dup8\n      dup1\n      extcodesize\n      iszero\n        /* \"--CODEGEN--\":8:17   */\n      dup1\n        /* \"--CODEGEN--\":5:7   */\n      iszero\n      tag_151\n      jumpi\n        /* \"--CODEGEN--\":30:31   */\n      0x00\n        /* \"--CODEGEN--\":27:28   */\n      dup1\n        /* \"--CODEGEN--\":20:32   */\n      revert\n        /* \"--CODEGEN--\":5:7   */\n    tag_151:\n        /* \"NRTManager.sol\":8715:8775  token.mint(researchAndDevelopment,researchAndDevelopmentBal) */\n      pop\n      gas\n      call\n      iszero\n        /* \"--CODEGEN--\":8:17   */\n      dup1\n        /* \"--CODEGEN--\":5:7   */\n      iszero\n      tag_152\n      jumpi\n        /* \"--CODEGEN--\":45:61   */\n      returndatasize\n        /* \"--CODEGEN--\":42:43   */\n      0x00\n        /* \"--CODEGEN--\":39:40   */\n      dup1\n        /* \"--CODEGEN--\":24:62   */\n      returndatacopy\n        /* \"--CODEGEN--\":77:93   */\n      returndatasize\n        /* \"--CODEGEN--\":74:75   */\n      0x00\n        /* \"--CODEGEN--\":67:94   */\n      revert\n        /* \"--CODEGEN--\":5:7   */\n    tag_152:\n        /* \"NRTManager.sol\":8715:8775  token.mint(researchAndDevelopment,researchAndDevelopmentBal) */\n      pop\n      pop\n      pop\n      pop\n      mload(0x40)\n      returndatasize\n        /* \"--CODEGEN--\":13:15   */\n      0x20\n        /* \"--CODEGEN--\":8:11   */\n      dup2\n        /* \"--CODEGEN--\":5:16   */\n      lt\n        /* \"--CODEGEN--\":2:4   */\n      iszero\n      tag_153\n      jumpi\n        /* \"--CODEGEN--\":29:30   */\n      0x00\n        /* \"--CODEGEN--\":26:27   */\n      dup1\n        /* \"--CODEGEN--\":19:31   */\n      revert\n        /* \"--CODEGEN--\":2:4   */\n    tag_153:\n        /* \"NRTManager.sol\":8715:8775  token.mint(researchAndDevelopment,researchAndDevelopmentBal) */\n      dup2\n      add\n      swap1\n      dup1\n      dup1\n      mload\n      swap1\n      0x20\n      add\n      swap1\n      swap3\n      swap2\n      swap1\n      pop\n      pop\n      pop\n      pop\n        /* \"NRTManager.sol\":8790:8878  NRTTransfer(\"researchAndDevelopment\", researchAndDevelopment, researchAndDevelopmentBal) */\n      0x8470ec6072093abfec912969ee9fd5273eed1d3202eac51a1fd83c236ee9bea8\n        /* \"NRTManager.sol\":8828:8850  researchAndDevelopment */\n      0x0d\n      0x00\n      swap1\n      sload\n      swap1\n      0x0100\n      exp\n      swap1\n      div\n      0xffffffffffffffffffffffffffffffffffffffff\n      and\n        /* \"NRTManager.sol\":8852:8877  researchAndDevelopmentBal */\n      sload(0x16)\n        /* \"NRTManager.sol\":8790:8878  NRTTransfer(\"researchAndDevelopment\", researchAndDevelopment, researchAndDevelopmentBal) */\n      mload(0x40)\n      dup1\n      dup1\n      0x20\n      add\n      dup5\n      0xffffffffffffffffffffffffffffffffffffffff\n      and\n      0xffffffffffffffffffffffffffffffffffffffff\n      and\n      dup2\n      mstore\n      0x20\n      add\n      dup4\n      dup2\n      mstore\n      0x20\n      add\n      dup3\n      dup2\n      sub\n      dup3\n      mstore\n      0x16\n      dup2\n      mstore\n      0x20\n      add\n      dup1\n      0x7265736561726368416e64446576656c6f706d656e7400000000000000000000\n      dup2\n      mstore\n      pop\n      0x20\n      add\n      swap4\n      pop\n      pop\n      pop\n      pop\n      mload(0x40)\n      dup1\n      swap2\n      sub\n      swap1\n      log1\n        /* \"NRTManager.sol\":8889:8894  token */\n      0x06\n      0x00\n      swap1\n      sload\n      swap1\n      0x0100\n      exp\n      swap1\n      div\n      0xffffffffffffffffffffffffffffffffffffffff\n      and\n        /* \"NRTManager.sol\":8889:8899  token.mint */\n      0xffffffffffffffffffffffffffffffffffffffff\n      and\n      0x40c10f19\n        /* \"NRTManager.sol\":8900:8908  buzzCafe */\n      0x0e\n      0x00\n      swap1\n      sload\n      swap1\n      0x0100\n      exp\n      swap1\n      div\n      0xffffffffffffffffffffffffffffffffffffffff\n      and\n        /* \"NRTManager.sol\":8909:8920  buzzCafeNRT */\n      sload(0x17)\n        /* \"NRTManager.sol\":8889:8921  token.mint(buzzCafe,buzzCafeNRT) */\n      mload(0x40)\n      dup4\n      0xffffffff\n      and\n      0x0100000000000000000000000000000000000000000000000000000000\n      mul\n      dup2\n      mstore\n      0x04\n      add\n      dup1\n      dup4\n      0xffffffffffffffffffffffffffffffffffffffff\n      and\n      0xffffffffffffffffffffffffffffffffffffffff\n      and\n      dup2\n      mstore\n      0x20\n      add\n      dup3\n      dup2\n      mstore\n      0x20\n      add\n      swap3\n      pop\n      pop\n      pop\n      0x20\n      mload(0x40)\n      dup1\n      dup4\n      sub\n      dup2\n      0x00\n      dup8\n      dup1\n      extcodesize\n      iszero\n        /* \"--CODEGEN--\":8:17   */\n      dup1\n        /* \"--CODEGEN--\":5:7   */\n      iszero\n      tag_154\n      jumpi\n        /* \"--CODEGEN--\":30:31   */\n      0x00\n        /* \"--CODEGEN--\":27:28   */\n      dup1\n        /* \"--CODEGEN--\":20:32   */\n      revert\n        /* \"--CODEGEN--\":5:7   */\n    tag_154:\n        /* \"NRTManager.sol\":8889:8921  token.mint(buzzCafe,buzzCafeNRT) */\n      pop\n      gas\n      call\n      iszero\n        /* \"--CODEGEN--\":8:17   */\n      dup1\n        /* \"--CODEGEN--\":5:7   */\n      iszero\n      tag_155\n      jumpi\n        /* \"--CODEGEN--\":45:61   */\n      returndatasize\n        /* \"--CODEGEN--\":42:43   */\n      0x00\n        /* \"--CODEGEN--\":39:40   */\n      dup1\n        /* \"--CODEGEN--\":24:62   */\n      returndatacopy\n        /* \"--CODEGEN--\":77:93   */\n      returndatasize\n        /* \"--CODEGEN--\":74:75   */\n      0x00\n        /* \"--CODEGEN--\":67:94   */\n      revert\n        /* \"--CODEGEN--\":5:7   */\n    tag_155:\n        /* \"NRTManager.sol\":8889:8921  token.mint(buzzCafe,buzzCafeNRT) */\n      pop\n      pop\n      pop\n      pop\n      mload(0x40)\n      returndatasize\n        /* \"--CODEGEN--\":13:15   */\n      0x20\n        /* \"--CODEGEN--\":8:11   */\n      dup2\n        /* \"--CODEGEN--\":5:16   */\n      lt\n        /* \"--CODEGEN--\":2:4   */\n      iszero\n      tag_156\n      jumpi\n        /* \"--CODEGEN--\":29:30   */\n      0x00\n        /* \"--CODEGEN--\":26:27   */\n      dup1\n        /* \"--CODEGEN--\":19:31   */\n      revert\n        /* \"--CODEGEN--\":2:4   */\n    tag_156:\n        /* \"NRTManager.sol\":8889:8921  token.mint(buzzCafe,buzzCafeNRT) */\n      dup2\n      add\n      swap1\n      dup1\n      dup1\n      mload\n      swap1\n      0x20\n      add\n      swap1\n      swap3\n      swap2\n      swap1\n      pop\n      pop\n      pop\n      pop\n        /* \"NRTManager.sol\":8936:8982  NRTTransfer(\"buzzCafe\", buzzCafe, buzzCafeNRT) */\n      0x8470ec6072093abfec912969ee9fd5273eed1d3202eac51a1fd83c236ee9bea8\n        /* \"NRTManager.sol\":8960:8968  buzzCafe */\n      0x0e\n      0x00\n      swap1\n      sload\n      swap1\n      0x0100\n      exp\n      swap1\n      div\n      0xffffffffffffffffffffffffffffffffffffffff\n      and\n        /* \"NRTManager.sol\":8970:8981  buzzCafeNRT */\n      sload(0x17)\n        /* \"NRTManager.sol\":8936:8982  NRTTransfer(\"buzzCafe\", buzzCafe, buzzCafeNRT) */\n      mload(0x40)\n      dup1\n      dup1\n      0x20\n      add\n      dup5\n      0xffffffffffffffffffffffffffffffffffffffff\n      and\n      0xffffffffffffffffffffffffffffffffffffffff\n      and\n      dup2\n      mstore\n      0x20\n      add\n      dup4\n      dup2\n      mstore\n      0x20\n      add\n      dup3\n      dup2\n      sub\n      dup3\n      mstore\n      0x08\n      dup2\n      mstore\n      0x20\n      add\n      dup1\n      0x62757a7a43616665000000000000000000000000000000000000000000000000\n      dup2\n      mstore\n      pop\n      0x20\n      add\n      swap4\n      pop\n      pop\n      pop\n      pop\n      mload(0x40)\n      dup1\n      swap2\n      sub\n      swap1\n      log1\n        /* \"NRTManager.sol\":8993:8998  token */\n      0x06\n      0x00\n      swap1\n      sload\n      swap1\n      0x0100\n      exp\n      swap1\n      div\n      0xffffffffffffffffffffffffffffffffffffffff\n      and\n        /* \"NRTManager.sol\":8993:9003  token.mint */\n      0xffffffffffffffffffffffffffffffffffffffff\n      and\n      0x40c10f19\n        /* \"NRTManager.sol\":9004:9012  TimeAlly */\n      0x10\n      0x00\n      swap1\n      sload\n      swap1\n      0x0100\n      exp\n      swap1\n      div\n      0xffffffffffffffffffffffffffffffffffffffff\n      and\n        /* \"NRTManager.sol\":9013:9024  TimeAllyNRT */\n      sload(0x18)\n        /* \"NRTManager.sol\":8993:9025  token.mint(TimeAlly,TimeAllyNRT) */\n      mload(0x40)\n      dup4\n      0xffffffff\n      and\n      0x0100000000000000000000000000000000000000000000000000000000\n      mul\n      dup2\n      mstore\n      0x04\n      add\n      dup1\n      dup4\n      0xffffffffffffffffffffffffffffffffffffffff\n      and\n      0xffffffffffffffffffffffffffffffffffffffff\n      and\n      dup2\n      mstore\n      0x20\n      add\n      dup3\n      dup2\n      mstore\n      0x20\n      add\n      swap3\n      pop\n      pop\n      pop\n      0x20\n      mload(0x40)\n      dup1\n      dup4\n      sub\n      dup2\n      0x00\n      dup8\n      dup1\n      extcodesize\n      iszero\n        /* \"--CODEGEN--\":8:17   */\n      dup1\n        /* \"--CODEGEN--\":5:7   */\n      iszero\n      tag_157\n      jumpi\n        /* \"--CODEGEN--\":30:31   */\n      0x00\n        /* \"--CODEGEN--\":27:28   */\n      dup1\n        /* \"--CODEGEN--\":20:32   */\n      revert\n        /* \"--CODEGEN--\":5:7   */\n    tag_157:\n        /* \"NRTManager.sol\":8993:9025  token.mint(TimeAlly,TimeAllyNRT) */\n      pop\n      gas\n      call\n      iszero\n        /* \"--CODEGEN--\":8:17   */\n      dup1\n        /* \"--CODEGEN--\":5:7   */\n      iszero\n      tag_158\n      jumpi\n        /* \"--CODEGEN--\":45:61   */\n      returndatasize\n        /* \"--CODEGEN--\":42:43   */\n      0x00\n        /* \"--CODEGEN--\":39:40   */\n      dup1\n        /* \"--CODEGEN--\":24:62   */\n      returndatacopy\n        /* \"--CODEGEN--\":77:93   */\n      returndatasize\n        /* \"--CODEGEN--\":74:75   */\n      0x00\n        /* \"--CODEGEN--\":67:94   */\n      revert\n        /* \"--CODEGEN--\":5:7   */\n    tag_158:\n        /* \"NRTManager.sol\":8993:9025  token.mint(TimeAlly,TimeAllyNRT) */\n      pop\n      pop\n      pop\n      pop\n      mload(0x40)\n      returndatasize\n        /* \"--CODEGEN--\":13:15   */\n      0x20\n        /* \"--CODEGEN--\":8:11   */\n      dup2\n        /* \"--CODEGEN--\":5:16   */\n      lt\n        /* \"--CODEGEN--\":2:4   */\n      iszero\n      tag_159\n      jumpi\n        /* \"--CODEGEN--\":29:30   */\n      0x00\n        /* \"--CODEGEN--\":26:27   */\n      dup1\n        /* \"--CODEGEN--\":19:31   */\n      revert\n        /* \"--CODEGEN--\":2:4   */\n    tag_159:\n        /* \"NRTManager.sol\":8993:9025  token.mint(TimeAlly,TimeAllyNRT) */\n      dup2\n      add\n      swap1\n      dup1\n      dup1\n      mload\n      swap1\n      0x20\n      add\n      swap1\n      swap3\n      swap2\n      swap1\n      pop\n      pop\n      pop\n      pop\n        /* \"NRTManager.sol\":9040:9093  NRTTransfer(\"stakingContract\", TimeAlly, TimeAllyNRT) */\n      0x8470ec6072093abfec912969ee9fd5273eed1d3202eac51a1fd83c236ee9bea8\n        /* \"NRTManager.sol\":9071:9079  TimeAlly */\n      0x10\n      0x00\n      swap1\n      sload\n      swap1\n      0x0100\n      exp\n      swap1\n      div\n      0xffffffffffffffffffffffffffffffffffffffff\n      and\n        /* \"NRTManager.sol\":9081:9092  TimeAllyNRT */\n      sload(0x18)\n        /* \"NRTManager.sol\":9040:9093  NRTTransfer(\"stakingContract\", TimeAlly, TimeAllyNRT) */\n      mload(0x40)\n      dup1\n      dup1\n      0x20\n      add\n      dup5\n      0xffffffffffffffffffffffffffffffffffffffff\n      and\n      0xffffffffffffffffffffffffffffffffffffffff\n      and\n      dup2\n      mstore\n      0x20\n      add\n      dup4\n      dup2\n      mstore\n      0x20\n      add\n      dup3\n      dup2\n      sub\n      dup3\n      mstore\n      0x0f\n      dup2\n      mstore\n      0x20\n      add\n      dup1\n      0x7374616b696e67436f6e74726163740000000000000000000000000000000000\n      dup2\n      mstore\n      pop\n      0x20\n      add\n      swap4\n      pop\n      pop\n      pop\n      pop\n      mload(0x40)\n      dup1\n      swap2\n      sub\n      swap1\n      log1\n        /* \"NRTManager.sol\":9104:9109  token */\n      0x06\n      0x00\n      swap1\n      sload\n      swap1\n      0x0100\n      exp\n      swap1\n      div\n      0xffffffffffffffffffffffffffffffffffffffff\n      and\n        /* \"NRTManager.sol\":9104:9114  token.mint */\n      0xffffffffffffffffffffffffffffffffffffffff\n      and\n      0x40c10f19\n        /* \"NRTManager.sol\":9115:9127  timeSwappers */\n      0x0f\n      0x00\n      swap1\n      sload\n      swap1\n      0x0100\n      exp\n      swap1\n      div\n      0xffffffffffffffffffffffffffffffffffffffff\n      and\n        /* \"NRTManager.sol\":9128:9143  timeSwappersNRT */\n      sload(0x19)\n        /* \"NRTManager.sol\":9104:9144  token.mint(timeSwappers,timeSwappersNRT) */\n      mload(0x40)\n      dup4\n      0xffffffff\n      and\n      0x0100000000000000000000000000000000000000000000000000000000\n      mul\n      dup2\n      mstore\n      0x04\n      add\n      dup1\n      dup4\n      0xffffffffffffffffffffffffffffffffffffffff\n      and\n      0xffffffffffffffffffffffffffffffffffffffff\n      and\n      dup2\n      mstore\n      0x20\n      add\n      dup3\n      dup2\n      mstore\n      0x20\n      add\n      swap3\n      pop\n      pop\n      pop\n      0x20\n      mload(0x40)\n      dup1\n      dup4\n      sub\n      dup2\n      0x00\n      dup8\n      dup1\n      extcodesize\n      iszero\n        /* \"--CODEGEN--\":8:17   */\n      dup1\n        /* \"--CODEGEN--\":5:7   */\n      iszero\n      tag_160\n      jumpi\n        /* \"--CODEGEN--\":30:31   */\n      0x00\n        /* \"--CODEGEN--\":27:28   */\n      dup1\n        /* \"--CODEGEN--\":20:32   */\n      revert\n        /* \"--CODEGEN--\":5:7   */\n    tag_160:\n        /* \"NRTManager.sol\":9104:9144  token.mint(timeSwappers,timeSwappersNRT) */\n      pop\n      gas\n      call\n      iszero\n        /* \"--CODEGEN--\":8:17   */\n      dup1\n        /* \"--CODEGEN--\":5:7   */\n      iszero\n      tag_161\n      jumpi\n        /* \"--CODEGEN--\":45:61   */\n      returndatasize\n        /* \"--CODEGEN--\":42:43   */\n      0x00\n        /* \"--CODEGEN--\":39:40   */\n      dup1\n        /* \"--CODEGEN--\":24:62   */\n      returndatacopy\n        /* \"--CODEGEN--\":77:93   */\n      returndatasize\n        /* \"--CODEGEN--\":74:75   */\n      0x00\n        /* \"--CODEGEN--\":67:94   */\n      revert\n        /* \"--CODEGEN--\":5:7   */\n    tag_161:\n        /* \"NRTManager.sol\":9104:9144  token.mint(timeSwappers,timeSwappersNRT) */\n      pop\n      pop\n      pop\n      pop\n      mload(0x40)\n      returndatasize\n        /* \"--CODEGEN--\":13:15   */\n      0x20\n        /* \"--CODEGEN--\":8:11   */\n      dup2\n        /* \"--CODEGEN--\":5:16   */\n      lt\n        /* \"--CODEGEN--\":2:4   */\n      iszero\n      tag_162\n      jumpi\n        /* \"--CODEGEN--\":29:30   */\n      0x00\n        /* \"--CODEGEN--\":26:27   */\n      dup1\n        /* \"--CODEGEN--\":19:31   */\n      revert\n        /* \"--CODEGEN--\":2:4   */\n    tag_162:\n        /* \"NRTManager.sol\":9104:9144  token.mint(timeSwappers,timeSwappersNRT) */\n      dup2\n      add\n      swap1\n      dup1\n      dup1\n      mload\n      swap1\n      0x20\n      add\n      swap1\n      swap3\n      swap2\n      swap1\n      pop\n      pop\n      pop\n      pop\n        /* \"NRTManager.sol\":9159:9217  NRTTransfer(\"timeSwappers\", timeSwappers, timeSwappersNRT) */\n      0x8470ec6072093abfec912969ee9fd5273eed1d3202eac51a1fd83c236ee9bea8\n        /* \"NRTManager.sol\":9187:9199  timeSwappers */\n      0x0f\n      0x00\n      swap1\n      sload\n      swap1\n      0x0100\n      exp\n      swap1\n      div\n      0xffffffffffffffffffffffffffffffffffffffff\n      and\n        /* \"NRTManager.sol\":9201:9216  timeSwappersNRT */\n      sload(0x19)\n        /* \"NRTManager.sol\":9159:9217  NRTTransfer(\"timeSwappers\", timeSwappers, timeSwappersNRT) */\n      mload(0x40)\n      dup1\n      dup1\n      0x20\n      add\n      dup5\n      0xffffffffffffffffffffffffffffffffffffffff\n      and\n      0xffffffffffffffffffffffffffffffffffffffff\n      and\n      dup2\n      mstore\n      0x20\n      add\n      dup4\n      dup2\n      mstore\n      0x20\n      add\n      dup3\n      dup2\n      sub\n      dup3\n      mstore\n      0x0c\n      dup2\n      mstore\n      0x20\n      add\n      dup1\n      0x74696d6553776170706572730000000000000000000000000000000000000000\n      dup2\n      mstore\n      pop\n      0x20\n      add\n      swap4\n      pop\n      pop\n      pop\n      pop\n      mload(0x40)\n      dup1\n      swap2\n      sub\n      swap1\n      log1\n        /* \"NRTManager.sol\":9257:9279  NRTDistributed(NRTBal) */\n      0x31a2c82874744c38fa6d0d7bacb6ff098de6c1ecc98899f39f5b9ea32108765b\n        /* \"NRTManager.sol\":9272:9278  NRTBal */\n      dup2\n        /* \"NRTManager.sol\":9257:9279  NRTDistributed(NRTBal) */\n      mload(0x40)\n      dup1\n      dup3\n      dup2\n      mstore\n      0x20\n      add\n      swap2\n      pop\n      pop\n      mload(0x40)\n      dup1\n      swap2\n      sub\n      swap1\n      log1\n        /* \"NRTManager.sol\":9303:9304  0 */\n      0x00\n        /* \"NRTManager.sol\":9289:9300  luckPoolBal */\n      0x04\n        /* \"NRTManager.sol\":9289:9304  luckPoolBal = 0 */\n      dup2\n      swap1\n      sstore\n      pop\n        /* \"NRTManager.sol\":9331:9358  lastNRTRelease.add(30 days) */\n      tag_163\n        /* \"NRTManager.sol\":9350:9357  30 days */\n      0x278d00\n        /* \"NRTManager.sol\":9331:9345  lastNRTRelease */\n      sload(0x00)\n        /* \"NRTManager.sol\":9331:9349  lastNRTRelease.add */\n      tag_102\n      swap1\n        /* \"NRTManager.sol\":9331:9358  lastNRTRelease.add(30 days) */\n      swap2\n      swap1\n      0xffffffff\n      and\n      jump\t// in\n    tag_163:\n        /* \"NRTManager.sol\":9314:9328  lastNRTRelease */\n      0x00\n        /* \"NRTManager.sol\":9314:9358  lastNRTRelease = lastNRTRelease.add(30 days) */\n      dup2\n      swap1\n      sstore\n      pop\n        /* \"NRTManager.sol\":9400:9412  burnTokens() */\n      tag_164\n        /* \"NRTManager.sol\":9400:9410  burnTokens */\n      tag_165\n        /* \"NRTManager.sol\":9400:9412  burnTokens() */\n      jump\t// in\n    tag_164:\n      pop\n        /* \"NRTManager.sol\":9483:9509  TokensBurned(burnTokenBal) */\n      0x6ef4855b666dcc7884561072e4358b28dfe01feb1b7f4dcebc00e62d50394ac7\n        /* \"NRTManager.sol\":9496:9508  burnTokenBal */\n      sload(0x05)\n        /* \"NRTManager.sol\":9483:9509  TokensBurned(burnTokenBal) */\n      mload(0x40)\n      dup1\n      dup3\n      dup2\n      mstore\n      0x20\n      add\n      swap2\n      pop\n      pop\n      mload(0x40)\n      dup1\n      swap2\n      sub\n      swap1\n      log1\n        /* \"NRTManager.sol\":9538:9540  11 */\n      0x0b\n        /* \"NRTManager.sol\":9524:9534  monthCount */\n      sload(0x03)\n        /* \"NRTManager.sol\":9524:9540  monthCount == 11 */\n      eq\n        /* \"NRTManager.sol\":9521:9762  if(monthCount == 11){... */\n      iszero\n      tag_166\n      jumpi\n        /* \"NRTManager.sol\":9566:9567  0 */\n      0x00\n        /* \"NRTManager.sol\":9553:9563  monthCount */\n      0x03\n        /* \"NRTManager.sol\":9553:9567  monthCount = 0 */\n      dup2\n      swap1\n      sstore\n      pop\n        /* \"NRTManager.sol\":9597:9631  (annualNRTAmount.mul(90)).div(100) */\n      tag_167\n        /* \"NRTManager.sol\":9627:9630  100 */\n      0x64\n        /* \"NRTManager.sol\":9598:9621  annualNRTAmount.mul(90) */\n      tag_168\n        /* \"NRTManager.sol\":9618:9620  90 */\n      0x5a\n        /* \"NRTManager.sol\":9598:9613  annualNRTAmount */\n      sload(0x02)\n        /* \"NRTManager.sol\":9598:9617  annualNRTAmount.mul */\n      tag_118\n      swap1\n        /* \"NRTManager.sol\":9598:9621  annualNRTAmount.mul(90) */\n      swap2\n      swap1\n      0xffffffff\n      and\n      jump\t// in\n    tag_168:\n        /* \"NRTManager.sol\":9597:9626  (annualNRTAmount.mul(90)).div */\n      tag_119\n      swap1\n        /* \"NRTManager.sol\":9597:9631  (annualNRTAmount.mul(90)).div(100) */\n      swap2\n      swap1\n      0xffffffff\n      and\n      jump\t// in\n    tag_167:\n        /* \"NRTManager.sol\":9579:9594  annualNRTAmount */\n      0x02\n        /* \"NRTManager.sol\":9579:9631  annualNRTAmount = (annualNRTAmount.mul(90)).div(100) */\n      dup2\n      swap1\n      sstore\n      pop\n        /* \"NRTManager.sol\":9662:9685  annualNRTAmount.div(12) */\n      tag_169\n        /* \"NRTManager.sol\":9682:9684  12 */\n      0x0c\n        /* \"NRTManager.sol\":9662:9677  annualNRTAmount */\n      sload(0x02)\n        /* \"NRTManager.sol\":9662:9681  annualNRTAmount.div */\n      tag_119\n      swap1\n        /* \"NRTManager.sol\":9662:9685  annualNRTAmount.div(12) */\n      swap2\n      swap1\n      0xffffffff\n      and\n      jump\t// in\n    tag_169:\n        /* \"NRTManager.sol\":9643:9659  monthlyNRTAmount */\n      0x01\n        /* \"NRTManager.sol\":9643:9685  monthlyNRTAmount = annualNRTAmount.div(12) */\n      dup2\n      swap1\n      sstore\n      pop\n        /* \"NRTManager.sol\":9521:9762  if(monthCount == 11){... */\n      jump(tag_170)\n    tag_166:\n        /* \"NRTManager.sol\":9734:9751  monthCount.add(1) */\n      tag_171\n        /* \"NRTManager.sol\":9749:9750  1 */\n      0x01\n        /* \"NRTManager.sol\":9734:9744  monthCount */\n      sload(0x03)\n        /* \"NRTManager.sol\":9734:9748  monthCount.add */\n      tag_102\n      swap1\n        /* \"NRTManager.sol\":9734:9751  monthCount.add(1) */\n      swap2\n      swap1\n      0xffffffff\n      and\n      jump\t// in\n    tag_171:\n        /* \"NRTManager.sol\":9721:9731  monthCount */\n      0x03\n        /* \"NRTManager.sol\":9721:9751  monthCount = monthCount.add(1) */\n      dup2\n      swap1\n      sstore\n      pop\n        /* \"NRTManager.sol\":9521:9762  if(monthCount == 11){... */\n    tag_170:\n        /* \"NRTManager.sol\":9778:9782  true */\n      0x01\n        /* \"NRTManager.sol\":9771:9782  return true */\n      swap2\n      pop\n      pop\n        /* \"NRTManager.sol\":7097:9791  function MonthlyNRTRelease() external returns (bool) {... */\n      swap1\n      jump\t// out\n        /* \"NRTManager.sol\":1316:1353  uint256 public platformMaintenanceBal */\n    tag_81:\n      sload(0x12)\n      dup2\n      jump\t// out\n        /* \"NRTManager.sol\":2045:2075  uint256 public timeSwappersNRT */\n    tag_83:\n      sload(0x19)\n      dup2\n      jump\t// out\n        /* \"NRTManager.sol\":513:539  uint256 public luckPoolBal */\n    tag_85:\n      sload(0x04)\n      dup2\n      jump\t// out\n        /* \"NRTManager.sol\":1940:1966  uint256 public TimeAllyNRT */\n    tag_87:\n      sload(0x18)\n      dup2\n      jump\t// out\n        /* \"NRTManager.sol\":4532:6337  function UpdateAddresses (address[9] calldata pool) external OnlyOwner  returns(bool){... */\n    tag_90:\n        /* \"NRTManager.sol\":4612:4616  bool */\n      0x00\n        /* \"NRTManager.sol\":3600:3605  Owner */\n      0x07\n      0x00\n      swap1\n      sload\n      swap1\n      0x0100\n      exp\n      swap1\n      div\n      0xffffffffffffffffffffffffffffffffffffffff\n      and\n        /* \"NRTManager.sol\":3586:3605  msg.sender == Owner */\n      0xffffffffffffffffffffffffffffffffffffffff\n      and\n        /* \"NRTManager.sol\":3586:3596  msg.sender */\n      caller\n        /* \"NRTManager.sol\":3586:3605  msg.sender == Owner */\n      0xffffffffffffffffffffffffffffffffffffffff\n      and\n      eq\n        /* \"NRTManager.sol\":3578:3633  require(msg.sender == Owner,\"Only Owner is authorised\") */\n      iszero\n      iszero\n      tag_173\n      jumpi\n      mload(0x40)\n      0x08c379a000000000000000000000000000000000000000000000000000000000\n      dup2\n      mstore\n      0x04\n      add\n      dup1\n      dup1\n      0x20\n      add\n      dup3\n      dup2\n      sub\n      dup3\n      mstore\n      0x18\n      dup2\n      mstore\n      0x20\n      add\n      dup1\n      0x4f6e6c79204f776e657220697320617574686f72697365640000000000000000\n      dup2\n      mstore\n      pop\n      0x20\n      add\n      swap2\n      pop\n      pop\n      mload(0x40)\n      dup1\n      swap2\n      sub\n      swap1\n      revert\n    tag_173:\n        /* \"NRTManager.sol\":4651:4652  0 */\n      0x00\n        /* \"NRTManager.sol\":4632:4653  pool[0] != address(0) */\n      0xffffffffffffffffffffffffffffffffffffffff\n      and\n        /* \"NRTManager.sol\":4632:4636  pool */\n      dup3\n        /* \"NRTManager.sol\":4637:4638  0 */\n      0x00\n        /* \"NRTManager.sol\":4632:4639  pool[0] */\n      0x09\n      dup2\n      lt\n      iszero\n      iszero\n      tag_175\n      jumpi\n      invalid\n    tag_175:\n      0x20\n      mul\n      add\n      calldataload\n      0xffffffffffffffffffffffffffffffffffffffff\n      and\n        /* \"NRTManager.sol\":4632:4653  pool[0] != address(0) */\n      0xffffffffffffffffffffffffffffffffffffffff\n      and\n      eq\n      iszero\n        /* \"NRTManager.sol\":4631:4699  (pool[0] != address(0)) && (newTalentsAndPartnerships == address(0)) */\n      dup1\n      iszero\n      tag_176\n      jumpi\n      pop\n        /* \"NRTManager.sol\":4696:4697  0 */\n      0x00\n        /* \"NRTManager.sol\":4659:4698  newTalentsAndPartnerships == address(0) */\n      0xffffffffffffffffffffffffffffffffffffffff\n      and\n        /* \"NRTManager.sol\":4659:4684  newTalentsAndPartnerships */\n      0x08\n      0x00\n      swap1\n      sload\n      swap1\n      0x0100\n      exp\n      swap1\n      div\n      0xffffffffffffffffffffffffffffffffffffffff\n      and\n        /* \"NRTManager.sol\":4659:4698  newTalentsAndPartnerships == address(0) */\n      0xffffffffffffffffffffffffffffffffffffffff\n      and\n      eq\n        /* \"NRTManager.sol\":4631:4699  (pool[0] != address(0)) && (newTalentsAndPartnerships == address(0)) */\n    tag_176:\n        /* \"NRTManager.sol\":4628:4848  if((pool[0] != address(0)) && (newTalentsAndPartnerships == address(0))){... */\n      iszero\n      tag_177\n      jumpi\n        /* \"NRTManager.sol\":4740:4744  pool */\n      dup2\n        /* \"NRTManager.sol\":4745:4746  0 */\n      0x00\n        /* \"NRTManager.sol\":4740:4747  pool[0] */\n      0x09\n      dup2\n      lt\n      iszero\n      iszero\n      tag_178\n      jumpi\n      invalid\n    tag_178:\n      0x20\n      mul\n      add\n      calldataload\n      0xffffffffffffffffffffffffffffffffffffffff\n      and\n        /* \"NRTManager.sol\":4712:4737  newTalentsAndPartnerships */\n      0x08\n      0x00\n        /* \"NRTManager.sol\":4712:4747  newTalentsAndPartnerships = pool[0] */\n      0x0100\n      exp\n      dup2\n      sload\n      dup2\n      0xffffffffffffffffffffffffffffffffffffffff\n      mul\n      not\n      and\n      swap1\n      dup4\n      0xffffffffffffffffffffffffffffffffffffffff\n      and\n      mul\n      or\n      swap1\n      sstore\n      pop\n        /* \"NRTManager.sol\":4764:4837  PoolAddressAdded( \"NewTalentsAndPartnerships\", newTalentsAndPartnerships) */\n      0x12fb0c5abba542bf97c53eecc4ebe59d9ba7ad563247ed305f002ada0291d60f\n        /* \"NRTManager.sol\":4811:4836  newTalentsAndPartnerships */\n      0x08\n      0x00\n      swap1\n      sload\n      swap1\n      0x0100\n      exp\n      swap1\n      div\n      0xffffffffffffffffffffffffffffffffffffffff\n      and\n        /* \"NRTManager.sol\":4764:4837  PoolAddressAdded( \"NewTalentsAndPartnerships\", newTalentsAndPartnerships) */\n      mload(0x40)\n      dup1\n      dup1\n      0x20\n      add\n      dup4\n      0xffffffffffffffffffffffffffffffffffffffff\n      and\n      0xffffffffffffffffffffffffffffffffffffffff\n      and\n      dup2\n      mstore\n      0x20\n      add\n      dup3\n      dup2\n      sub\n      dup3\n      mstore\n      0x19\n      dup2\n      mstore\n      0x20\n      add\n      dup1\n      0x4e657754616c656e7473416e64506172746e6572736869707300000000000000\n      dup2\n      mstore\n      pop\n      0x20\n      add\n      swap3\n      pop\n      pop\n      pop\n      mload(0x40)\n      dup1\n      swap2\n      sub\n      swap1\n      log1\n        /* \"NRTManager.sol\":4628:4848  if((pool[0] != address(0)) && (newTalentsAndPartnerships == address(0))){... */\n    tag_177:\n        /* \"NRTManager.sol\":4880:4881  0 */\n      0x00\n        /* \"NRTManager.sol\":4861:4882  pool[1] != address(0) */\n      0xffffffffffffffffffffffffffffffffffffffff\n      and\n        /* \"NRTManager.sol\":4861:4865  pool */\n      dup3\n        /* \"NRTManager.sol\":4866:4867  1 */\n      0x01\n        /* \"NRTManager.sol\":4861:4868  pool[1] */\n      0x09\n      dup2\n      lt\n      iszero\n      iszero\n      tag_179\n      jumpi\n      invalid\n    tag_179:\n      0x20\n      mul\n      add\n      calldataload\n      0xffffffffffffffffffffffffffffffffffffffff\n      and\n        /* \"NRTManager.sol\":4861:4882  pool[1] != address(0) */\n      0xffffffffffffffffffffffffffffffffffffffff\n      and\n      eq\n      iszero\n        /* \"NRTManager.sol\":4860:4922  (pool[1] != address(0)) && (platformMaintenance == address(0)) */\n      dup1\n      iszero\n      tag_180\n      jumpi\n      pop\n        /* \"NRTManager.sol\":4919:4920  0 */\n      0x00\n        /* \"NRTManager.sol\":4888:4921  platformMaintenance == address(0) */\n      0xffffffffffffffffffffffffffffffffffffffff\n      and\n        /* \"NRTManager.sol\":4888:4907  platformMaintenance */\n      0x09\n      0x00\n      swap1\n      sload\n      swap1\n      0x0100\n      exp\n      swap1\n      div\n      0xffffffffffffffffffffffffffffffffffffffff\n      and\n        /* \"NRTManager.sol\":4888:4921  platformMaintenance == address(0) */\n      0xffffffffffffffffffffffffffffffffffffffff\n      and\n      eq\n        /* \"NRTManager.sol\":4860:4922  (pool[1] != address(0)) && (platformMaintenance == address(0)) */\n    tag_180:\n        /* \"NRTManager.sol\":4857:5053  if((pool[1] != address(0)) && (platformMaintenance == address(0))){... */\n      iszero\n      tag_181\n      jumpi\n        /* \"NRTManager.sol\":4957:4961  pool */\n      dup2\n        /* \"NRTManager.sol\":4962:4963  1 */\n      0x01\n        /* \"NRTManager.sol\":4957:4964  pool[1] */\n      0x09\n      dup2\n      lt\n      iszero\n      iszero\n      tag_182\n      jumpi\n      invalid\n    tag_182:\n      0x20\n      mul\n      add\n      calldataload\n      0xffffffffffffffffffffffffffffffffffffffff\n      and\n        /* \"NRTManager.sol\":4935:4954  platformMaintenance */\n      0x09\n      0x00\n        /* \"NRTManager.sol\":4935:4964  platformMaintenance = pool[1] */\n      0x0100\n      exp\n      dup2\n      sload\n      dup2\n      0xffffffffffffffffffffffffffffffffffffffff\n      mul\n      not\n      and\n      swap1\n      dup4\n      0xffffffffffffffffffffffffffffffffffffffff\n      and\n      mul\n      or\n      swap1\n      sstore\n      pop\n        /* \"NRTManager.sol\":4981:5042  PoolAddressAdded( \"PlatformMaintenance\", platformMaintenance) */\n      0x12fb0c5abba542bf97c53eecc4ebe59d9ba7ad563247ed305f002ada0291d60f\n        /* \"NRTManager.sol\":5022:5041  platformMaintenance */\n      0x09\n      0x00\n      swap1\n      sload\n      swap1\n      0x0100\n      exp\n      swap1\n      div\n      0xffffffffffffffffffffffffffffffffffffffff\n      and\n        /* \"NRTManager.sol\":4981:5042  PoolAddressAdded( \"PlatformMaintenance\", platformMaintenance) */\n      mload(0x40)\n      dup1\n      dup1\n      0x20\n      add\n      dup4\n      0xffffffffffffffffffffffffffffffffffffffff\n      and\n      0xffffffffffffffffffffffffffffffffffffffff\n      and\n      dup2\n      mstore\n      0x20\n      add\n      dup3\n      dup2\n      sub\n      dup3\n      mstore\n      0x13\n      dup2\n      mstore\n      0x20\n      add\n      dup1\n      0x506c6174666f726d4d61696e74656e616e636500000000000000000000000000\n      dup2\n      mstore\n      pop\n      0x20\n      add\n      swap3\n      pop\n      pop\n      pop\n      mload(0x40)\n      dup1\n      swap2\n      sub\n      swap1\n      log1\n        /* \"NRTManager.sol\":4857:5053  if((pool[1] != address(0)) && (platformMaintenance == address(0))){... */\n    tag_181:\n        /* \"NRTManager.sol\":5085:5086  0 */\n      0x00\n        /* \"NRTManager.sol\":5066:5087  pool[2] != address(0) */\n      0xffffffffffffffffffffffffffffffffffffffff\n      and\n        /* \"NRTManager.sol\":5066:5070  pool */\n      dup3\n        /* \"NRTManager.sol\":5071:5072  2 */\n      0x02\n        /* \"NRTManager.sol\":5066:5073  pool[2] */\n      0x09\n      dup2\n      lt\n      iszero\n      iszero\n      tag_183\n      jumpi\n      invalid\n    tag_183:\n      0x20\n      mul\n      add\n      calldataload\n      0xffffffffffffffffffffffffffffffffffffffff\n      and\n        /* \"NRTManager.sol\":5066:5087  pool[2] != address(0) */\n      0xffffffffffffffffffffffffffffffffffffffff\n      and\n      eq\n      iszero\n        /* \"NRTManager.sol\":5065:5123  (pool[2] != address(0)) && (marketingAndRNR == address(0)) */\n      dup1\n      iszero\n      tag_184\n      jumpi\n      pop\n        /* \"NRTManager.sol\":5120:5121  0 */\n      0x00\n        /* \"NRTManager.sol\":5093:5122  marketingAndRNR == address(0) */\n      0xffffffffffffffffffffffffffffffffffffffff\n      and\n        /* \"NRTManager.sol\":5093:5108  marketingAndRNR */\n      0x0a\n      0x00\n      swap1\n      sload\n      swap1\n      0x0100\n      exp\n      swap1\n      div\n      0xffffffffffffffffffffffffffffffffffffffff\n      and\n        /* \"NRTManager.sol\":5093:5122  marketingAndRNR == address(0) */\n      0xffffffffffffffffffffffffffffffffffffffff\n      and\n      eq\n        /* \"NRTManager.sol\":5065:5123  (pool[2] != address(0)) && (marketingAndRNR == address(0)) */\n    tag_184:\n        /* \"NRTManager.sol\":5062:5242  if((pool[2] != address(0)) && (marketingAndRNR == address(0))){... */\n      iszero\n      tag_185\n      jumpi\n        /* \"NRTManager.sol\":5154:5158  pool */\n      dup2\n        /* \"NRTManager.sol\":5159:5160  2 */\n      0x02\n        /* \"NRTManager.sol\":5154:5161  pool[2] */\n      0x09\n      dup2\n      lt\n      iszero\n      iszero\n      tag_186\n      jumpi\n      invalid\n    tag_186:\n      0x20\n      mul\n      add\n      calldataload\n      0xffffffffffffffffffffffffffffffffffffffff\n      and\n        /* \"NRTManager.sol\":5136:5151  marketingAndRNR */\n      0x0a\n      0x00\n        /* \"NRTManager.sol\":5136:5161  marketingAndRNR = pool[2] */\n      0x0100\n      exp\n      dup2\n      sload\n      dup2\n      0xffffffffffffffffffffffffffffffffffffffff\n      mul\n      not\n      and\n      swap1\n      dup4\n      0xffffffffffffffffffffffffffffffffffffffff\n      and\n      mul\n      or\n      swap1\n      sstore\n      pop\n        /* \"NRTManager.sol\":5178:5231  PoolAddressAdded( \"MarketingAndRNR\", marketingAndRNR) */\n      0x12fb0c5abba542bf97c53eecc4ebe59d9ba7ad563247ed305f002ada0291d60f\n        /* \"NRTManager.sol\":5215:5230  marketingAndRNR */\n      0x0a\n      0x00\n      swap1\n      sload\n      swap1\n      0x0100\n      exp\n      swap1\n      div\n      0xffffffffffffffffffffffffffffffffffffffff\n      and\n        /* \"NRTManager.sol\":5178:5231  PoolAddressAdded( \"MarketingAndRNR\", marketingAndRNR) */\n      mload(0x40)\n      dup1\n      dup1\n      0x20\n      add\n      dup4\n      0xffffffffffffffffffffffffffffffffffffffff\n      and\n      0xffffffffffffffffffffffffffffffffffffffff\n      and\n      dup2\n      mstore\n      0x20\n      add\n      dup3\n      dup2\n      sub\n      dup3\n      mstore\n      0x0f\n      dup2\n      mstore\n      0x20\n      add\n      dup1\n      0x4d61726b6574696e67416e64524e520000000000000000000000000000000000\n      dup2\n      mstore\n      pop\n      0x20\n      add\n      swap3\n      pop\n      pop\n      pop\n      mload(0x40)\n      dup1\n      swap2\n      sub\n      swap1\n      log1\n        /* \"NRTManager.sol\":5062:5242  if((pool[2] != address(0)) && (marketingAndRNR == address(0))){... */\n    tag_185:\n        /* \"NRTManager.sol\":5274:5275  0 */\n      0x00\n        /* \"NRTManager.sol\":5255:5276  pool[3] != address(0) */\n      0xffffffffffffffffffffffffffffffffffffffff\n      and\n        /* \"NRTManager.sol\":5255:5259  pool */\n      dup3\n        /* \"NRTManager.sol\":5260:5261  3 */\n      0x03\n        /* \"NRTManager.sol\":5255:5262  pool[3] */\n      0x09\n      dup2\n      lt\n      iszero\n      iszero\n      tag_187\n      jumpi\n      invalid\n    tag_187:\n      0x20\n      mul\n      add\n      calldataload\n      0xffffffffffffffffffffffffffffffffffffffff\n      and\n        /* \"NRTManager.sol\":5255:5276  pool[3] != address(0) */\n      0xffffffffffffffffffffffffffffffffffffffff\n      and\n      eq\n      iszero\n        /* \"NRTManager.sol\":5254:5304  (pool[3] != address(0)) && (kmPards == address(0)) */\n      dup1\n      iszero\n      tag_188\n      jumpi\n      pop\n        /* \"NRTManager.sol\":5301:5302  0 */\n      0x00\n        /* \"NRTManager.sol\":5282:5303  kmPards == address(0) */\n      0xffffffffffffffffffffffffffffffffffffffff\n      and\n        /* \"NRTManager.sol\":5282:5289  kmPards */\n      0x0b\n      0x00\n      swap1\n      sload\n      swap1\n      0x0100\n      exp\n      swap1\n      div\n      0xffffffffffffffffffffffffffffffffffffffff\n      and\n        /* \"NRTManager.sol\":5282:5303  kmPards == address(0) */\n      0xffffffffffffffffffffffffffffffffffffffff\n      and\n      eq\n        /* \"NRTManager.sol\":5254:5304  (pool[3] != address(0)) && (kmPards == address(0)) */\n    tag_188:\n        /* \"NRTManager.sol\":5251:5399  if((pool[3] != address(0)) && (kmPards == address(0))){... */\n      iszero\n      tag_189\n      jumpi\n        /* \"NRTManager.sol\":5327:5331  pool */\n      dup2\n        /* \"NRTManager.sol\":5332:5333  3 */\n      0x03\n        /* \"NRTManager.sol\":5327:5334  pool[3] */\n      0x09\n      dup2\n      lt\n      iszero\n      iszero\n      tag_190\n      jumpi\n      invalid\n    tag_190:\n      0x20\n      mul\n      add\n      calldataload\n      0xffffffffffffffffffffffffffffffffffffffff\n      and\n        /* \"NRTManager.sol\":5317:5324  kmPards */\n      0x0b\n      0x00\n        /* \"NRTManager.sol\":5317:5334  kmPards = pool[3] */\n      0x0100\n      exp\n      dup2\n      sload\n      dup2\n      0xffffffffffffffffffffffffffffffffffffffff\n      mul\n      not\n      and\n      swap1\n      dup4\n      0xffffffffffffffffffffffffffffffffffffffff\n      and\n      mul\n      or\n      swap1\n      sstore\n      pop\n        /* \"NRTManager.sol\":5351:5388  PoolAddressAdded( \"KmPards\", kmPards) */\n      0x12fb0c5abba542bf97c53eecc4ebe59d9ba7ad563247ed305f002ada0291d60f\n        /* \"NRTManager.sol\":5380:5387  kmPards */\n      0x0b\n      0x00\n      swap1\n      sload\n      swap1\n      0x0100\n      exp\n      swap1\n      div\n      0xffffffffffffffffffffffffffffffffffffffff\n      and\n        /* \"NRTManager.sol\":5351:5388  PoolAddressAdded( \"KmPards\", kmPards) */\n      mload(0x40)\n      dup1\n      dup1\n      0x20\n      add\n      dup4\n      0xffffffffffffffffffffffffffffffffffffffff\n      and\n      0xffffffffffffffffffffffffffffffffffffffff\n      and\n      dup2\n      mstore\n      0x20\n      add\n      dup3\n      dup2\n      sub\n      dup3\n      mstore\n      0x07\n      dup2\n      mstore\n      0x20\n      add\n      dup1\n      0x4b6d506172647300000000000000000000000000000000000000000000000000\n      dup2\n      mstore\n      pop\n      0x20\n      add\n      swap3\n      pop\n      pop\n      pop\n      mload(0x40)\n      dup1\n      swap2\n      sub\n      swap1\n      log1\n        /* \"NRTManager.sol\":5251:5399  if((pool[3] != address(0)) && (kmPards == address(0))){... */\n    tag_189:\n        /* \"NRTManager.sol\":5431:5432  0 */\n      0x00\n        /* \"NRTManager.sol\":5412:5433  pool[4] != address(0) */\n      0xffffffffffffffffffffffffffffffffffffffff\n      and\n        /* \"NRTManager.sol\":5412:5416  pool */\n      dup3\n        /* \"NRTManager.sol\":5417:5418  4 */\n      0x04\n        /* \"NRTManager.sol\":5412:5419  pool[4] */\n      0x09\n      dup2\n      lt\n      iszero\n      iszero\n      tag_191\n      jumpi\n      invalid\n    tag_191:\n      0x20\n      mul\n      add\n      calldataload\n      0xffffffffffffffffffffffffffffffffffffffff\n      and\n        /* \"NRTManager.sol\":5412:5433  pool[4] != address(0) */\n      0xffffffffffffffffffffffffffffffffffffffff\n      and\n      eq\n      iszero\n        /* \"NRTManager.sol\":5411:5470  (pool[4] != address(0)) && (contingencyFunds == address(0)) */\n      dup1\n      iszero\n      tag_192\n      jumpi\n      pop\n        /* \"NRTManager.sol\":5467:5468  0 */\n      0x00\n        /* \"NRTManager.sol\":5439:5469  contingencyFunds == address(0) */\n      0xffffffffffffffffffffffffffffffffffffffff\n      and\n        /* \"NRTManager.sol\":5439:5455  contingencyFunds */\n      0x0c\n      0x00\n      swap1\n      sload\n      swap1\n      0x0100\n      exp\n      swap1\n      div\n      0xffffffffffffffffffffffffffffffffffffffff\n      and\n        /* \"NRTManager.sol\":5439:5469  contingencyFunds == address(0) */\n      0xffffffffffffffffffffffffffffffffffffffff\n      and\n      eq\n        /* \"NRTManager.sol\":5411:5470  (pool[4] != address(0)) && (contingencyFunds == address(0)) */\n    tag_192:\n        /* \"NRTManager.sol\":5408:5592  if((pool[4] != address(0)) && (contingencyFunds == address(0))){... */\n      iszero\n      tag_193\n      jumpi\n        /* \"NRTManager.sol\":5502:5506  pool */\n      dup2\n        /* \"NRTManager.sol\":5507:5508  4 */\n      0x04\n        /* \"NRTManager.sol\":5502:5509  pool[4] */\n      0x09\n      dup2\n      lt\n      iszero\n      iszero\n      tag_194\n      jumpi\n      invalid\n    tag_194:\n      0x20\n      mul\n      add\n      calldataload\n      0xffffffffffffffffffffffffffffffffffffffff\n      and\n        /* \"NRTManager.sol\":5483:5499  contingencyFunds */\n      0x0c\n      0x00\n        /* \"NRTManager.sol\":5483:5509  contingencyFunds = pool[4] */\n      0x0100\n      exp\n      dup2\n      sload\n      dup2\n      0xffffffffffffffffffffffffffffffffffffffff\n      mul\n      not\n      and\n      swap1\n      dup4\n      0xffffffffffffffffffffffffffffffffffffffff\n      and\n      mul\n      or\n      swap1\n      sstore\n      pop\n        /* \"NRTManager.sol\":5526:5581  PoolAddressAdded( \"ContingencyFunds\", contingencyFunds) */\n      0x12fb0c5abba542bf97c53eecc4ebe59d9ba7ad563247ed305f002ada0291d60f\n        /* \"NRTManager.sol\":5564:5580  contingencyFunds */\n      0x0c\n      0x00\n      swap1\n      sload\n      swap1\n      0x0100\n      exp\n      swap1\n      div\n      0xffffffffffffffffffffffffffffffffffffffff\n      and\n        /* \"NRTManager.sol\":5526:5581  PoolAddressAdded( \"ContingencyFunds\", contingencyFunds) */\n      mload(0x40)\n      dup1\n      dup1\n      0x20\n      add\n      dup4\n      0xffffffffffffffffffffffffffffffffffffffff\n      and\n      0xffffffffffffffffffffffffffffffffffffffff\n      and\n      dup2\n      mstore\n      0x20\n      add\n      dup3\n      dup2\n      sub\n      dup3\n      mstore\n      0x10\n      dup2\n      mstore\n      0x20\n      add\n      dup1\n      0x436f6e74696e67656e637946756e647300000000000000000000000000000000\n      dup2\n      mstore\n      pop\n      0x20\n      add\n      swap3\n      pop\n      pop\n      pop\n      mload(0x40)\n      dup1\n      swap2\n      sub\n      swap1\n      log1\n        /* \"NRTManager.sol\":5408:5592  if((pool[4] != address(0)) && (contingencyFunds == address(0))){... */\n    tag_193:\n        /* \"NRTManager.sol\":5624:5625  0 */\n      0x00\n        /* \"NRTManager.sol\":5605:5626  pool[5] != address(0) */\n      0xffffffffffffffffffffffffffffffffffffffff\n      and\n        /* \"NRTManager.sol\":5605:5609  pool */\n      dup3\n        /* \"NRTManager.sol\":5610:5611  5 */\n      0x05\n        /* \"NRTManager.sol\":5605:5612  pool[5] */\n      0x09\n      dup2\n      lt\n      iszero\n      iszero\n      tag_195\n      jumpi\n      invalid\n    tag_195:\n      0x20\n      mul\n      add\n      calldataload\n      0xffffffffffffffffffffffffffffffffffffffff\n      and\n        /* \"NRTManager.sol\":5605:5626  pool[5] != address(0) */\n      0xffffffffffffffffffffffffffffffffffffffff\n      and\n      eq\n      iszero\n        /* \"NRTManager.sol\":5604:5669  (pool[5] != address(0)) && (researchAndDevelopment == address(0)) */\n      dup1\n      iszero\n      tag_196\n      jumpi\n      pop\n        /* \"NRTManager.sol\":5666:5667  0 */\n      0x00\n        /* \"NRTManager.sol\":5632:5668  researchAndDevelopment == address(0) */\n      0xffffffffffffffffffffffffffffffffffffffff\n      and\n        /* \"NRTManager.sol\":5632:5654  researchAndDevelopment */\n      0x0d\n      0x00\n      swap1\n      sload\n      swap1\n      0x0100\n      exp\n      swap1\n      div\n      0xffffffffffffffffffffffffffffffffffffffff\n      and\n        /* \"NRTManager.sol\":5632:5668  researchAndDevelopment == address(0) */\n      0xffffffffffffffffffffffffffffffffffffffff\n      and\n      eq\n        /* \"NRTManager.sol\":5604:5669  (pool[5] != address(0)) && (researchAndDevelopment == address(0)) */\n    tag_196:\n        /* \"NRTManager.sol\":5601:5809  if((pool[5] != address(0)) && (researchAndDevelopment == address(0))){... */\n      iszero\n      tag_197\n      jumpi\n        /* \"NRTManager.sol\":5707:5711  pool */\n      dup2\n        /* \"NRTManager.sol\":5712:5713  5 */\n      0x05\n        /* \"NRTManager.sol\":5707:5714  pool[5] */\n      0x09\n      dup2\n      lt\n      iszero\n      iszero\n      tag_198\n      jumpi\n      invalid\n    tag_198:\n      0x20\n      mul\n      add\n      calldataload\n      0xffffffffffffffffffffffffffffffffffffffff\n      and\n        /* \"NRTManager.sol\":5682:5704  researchAndDevelopment */\n      0x0d\n      0x00\n        /* \"NRTManager.sol\":5682:5714  researchAndDevelopment = pool[5] */\n      0x0100\n      exp\n      dup2\n      sload\n      dup2\n      0xffffffffffffffffffffffffffffffffffffffff\n      mul\n      not\n      and\n      swap1\n      dup4\n      0xffffffffffffffffffffffffffffffffffffffff\n      and\n      mul\n      or\n      swap1\n      sstore\n      pop\n        /* \"NRTManager.sol\":5731:5798  PoolAddressAdded( \"ResearchAndDevelopment\", researchAndDevelopment) */\n      0x12fb0c5abba542bf97c53eecc4ebe59d9ba7ad563247ed305f002ada0291d60f\n        /* \"NRTManager.sol\":5775:5797  researchAndDevelopment */\n      0x0d\n      0x00\n      swap1\n      sload\n      swap1\n      0x0100\n      exp\n      swap1\n      div\n      0xffffffffffffffffffffffffffffffffffffffff\n      and\n        /* \"NRTManager.sol\":5731:5798  PoolAddressAdded( \"ResearchAndDevelopment\", researchAndDevelopment) */\n      mload(0x40)\n      dup1\n      dup1\n      0x20\n      add\n      dup4\n      0xffffffffffffffffffffffffffffffffffffffff\n      and\n      0xffffffffffffffffffffffffffffffffffffffff\n      and\n      dup2\n      mstore\n      0x20\n      add\n      dup3\n      dup2\n      sub\n      dup3\n      mstore\n      0x16\n      dup2\n      mstore\n      0x20\n      add\n      dup1\n      0x5265736561726368416e64446576656c6f706d656e7400000000000000000000\n      dup2\n      mstore\n      pop\n      0x20\n      add\n      swap3\n      pop\n      pop\n      pop\n      mload(0x40)\n      dup1\n      swap2\n      sub\n      swap1\n      log1\n        /* \"NRTManager.sol\":5601:5809  if((pool[5] != address(0)) && (researchAndDevelopment == address(0))){... */\n    tag_197:\n        /* \"NRTManager.sol\":5841:5842  0 */\n      0x00\n        /* \"NRTManager.sol\":5822:5843  pool[6] != address(0) */\n      0xffffffffffffffffffffffffffffffffffffffff\n      and\n        /* \"NRTManager.sol\":5822:5826  pool */\n      dup3\n        /* \"NRTManager.sol\":5827:5828  6 */\n      0x06\n        /* \"NRTManager.sol\":5822:5829  pool[6] */\n      0x09\n      dup2\n      lt\n      iszero\n      iszero\n      tag_199\n      jumpi\n      invalid\n    tag_199:\n      0x20\n      mul\n      add\n      calldataload\n      0xffffffffffffffffffffffffffffffffffffffff\n      and\n        /* \"NRTManager.sol\":5822:5843  pool[6] != address(0) */\n      0xffffffffffffffffffffffffffffffffffffffff\n      and\n      eq\n      iszero\n        /* \"NRTManager.sol\":5821:5872  (pool[6] != address(0)) && (buzzCafe == address(0)) */\n      dup1\n      iszero\n      tag_200\n      jumpi\n      pop\n        /* \"NRTManager.sol\":5869:5870  0 */\n      0x00\n        /* \"NRTManager.sol\":5849:5871  buzzCafe == address(0) */\n      0xffffffffffffffffffffffffffffffffffffffff\n      and\n        /* \"NRTManager.sol\":5849:5857  buzzCafe */\n      0x0e\n      0x00\n      swap1\n      sload\n      swap1\n      0x0100\n      exp\n      swap1\n      div\n      0xffffffffffffffffffffffffffffffffffffffff\n      and\n        /* \"NRTManager.sol\":5849:5871  buzzCafe == address(0) */\n      0xffffffffffffffffffffffffffffffffffffffff\n      and\n      eq\n        /* \"NRTManager.sol\":5821:5872  (pool[6] != address(0)) && (buzzCafe == address(0)) */\n    tag_200:\n        /* \"NRTManager.sol\":5818:5970  if((pool[6] != address(0)) && (buzzCafe == address(0))){... */\n      iszero\n      tag_201\n      jumpi\n        /* \"NRTManager.sol\":5896:5900  pool */\n      dup2\n        /* \"NRTManager.sol\":5901:5902  6 */\n      0x06\n        /* \"NRTManager.sol\":5896:5903  pool[6] */\n      0x09\n      dup2\n      lt\n      iszero\n      iszero\n      tag_202\n      jumpi\n      invalid\n    tag_202:\n      0x20\n      mul\n      add\n      calldataload\n      0xffffffffffffffffffffffffffffffffffffffff\n      and\n        /* \"NRTManager.sol\":5885:5893  buzzCafe */\n      0x0e\n      0x00\n        /* \"NRTManager.sol\":5885:5903  buzzCafe = pool[6] */\n      0x0100\n      exp\n      dup2\n      sload\n      dup2\n      0xffffffffffffffffffffffffffffffffffffffff\n      mul\n      not\n      and\n      swap1\n      dup4\n      0xffffffffffffffffffffffffffffffffffffffff\n      and\n      mul\n      or\n      swap1\n      sstore\n      pop\n        /* \"NRTManager.sol\":5920:5959  PoolAddressAdded( \"BuzzCafe\", buzzCafe) */\n      0x12fb0c5abba542bf97c53eecc4ebe59d9ba7ad563247ed305f002ada0291d60f\n        /* \"NRTManager.sol\":5950:5958  buzzCafe */\n      0x0e\n      0x00\n      swap1\n      sload\n      swap1\n      0x0100\n      exp\n      swap1\n      div\n      0xffffffffffffffffffffffffffffffffffffffff\n      and\n        /* \"NRTManager.sol\":5920:5959  PoolAddressAdded( \"BuzzCafe\", buzzCafe) */\n      mload(0x40)\n      dup1\n      dup1\n      0x20\n      add\n      dup4\n      0xffffffffffffffffffffffffffffffffffffffff\n      and\n      0xffffffffffffffffffffffffffffffffffffffff\n      and\n      dup2\n      mstore\n      0x20\n      add\n      dup3\n      dup2\n      sub\n      dup3\n      mstore\n      0x08\n      dup2\n      mstore\n      0x20\n      add\n      dup1\n      0x42757a7a43616665000000000000000000000000000000000000000000000000\n      dup2\n      mstore\n      pop\n      0x20\n      add\n      swap3\n      pop\n      pop\n      pop\n      mload(0x40)\n      dup1\n      swap2\n      sub\n      swap1\n      log1\n        /* \"NRTManager.sol\":5818:5970  if((pool[6] != address(0)) && (buzzCafe == address(0))){... */\n    tag_201:\n        /* \"NRTManager.sol\":6002:6003  0 */\n      0x00\n        /* \"NRTManager.sol\":5983:6004  pool[7] != address(0) */\n      0xffffffffffffffffffffffffffffffffffffffff\n      and\n        /* \"NRTManager.sol\":5983:5987  pool */\n      dup3\n        /* \"NRTManager.sol\":5988:5989  7 */\n      0x07\n        /* \"NRTManager.sol\":5983:5990  pool[7] */\n      0x09\n      dup2\n      lt\n      iszero\n      iszero\n      tag_203\n      jumpi\n      invalid\n    tag_203:\n      0x20\n      mul\n      add\n      calldataload\n      0xffffffffffffffffffffffffffffffffffffffff\n      and\n        /* \"NRTManager.sol\":5983:6004  pool[7] != address(0) */\n      0xffffffffffffffffffffffffffffffffffffffff\n      and\n      eq\n      iszero\n        /* \"NRTManager.sol\":5982:6037  (pool[7] != address(0)) && (timeSwappers == address(0)) */\n      dup1\n      iszero\n      tag_204\n      jumpi\n      pop\n        /* \"NRTManager.sol\":6034:6035  0 */\n      0x00\n        /* \"NRTManager.sol\":6010:6036  timeSwappers == address(0) */\n      0xffffffffffffffffffffffffffffffffffffffff\n      and\n        /* \"NRTManager.sol\":6010:6022  timeSwappers */\n      0x0f\n      0x00\n      swap1\n      sload\n      swap1\n      0x0100\n      exp\n      swap1\n      div\n      0xffffffffffffffffffffffffffffffffffffffff\n      and\n        /* \"NRTManager.sol\":6010:6036  timeSwappers == address(0) */\n      0xffffffffffffffffffffffffffffffffffffffff\n      and\n      eq\n        /* \"NRTManager.sol\":5982:6037  (pool[7] != address(0)) && (timeSwappers == address(0)) */\n    tag_204:\n        /* \"NRTManager.sol\":5979:6146  if((pool[7] != address(0)) && (timeSwappers == address(0))){... */\n      iszero\n      tag_205\n      jumpi\n        /* \"NRTManager.sol\":6065:6069  pool */\n      dup2\n        /* \"NRTManager.sol\":6070:6071  7 */\n      0x07\n        /* \"NRTManager.sol\":6065:6072  pool[7] */\n      0x09\n      dup2\n      lt\n      iszero\n      iszero\n      tag_206\n      jumpi\n      invalid\n    tag_206:\n      0x20\n      mul\n      add\n      calldataload\n      0xffffffffffffffffffffffffffffffffffffffff\n      and\n        /* \"NRTManager.sol\":6050:6062  timeSwappers */\n      0x0f\n      0x00\n        /* \"NRTManager.sol\":6050:6072  timeSwappers = pool[7] */\n      0x0100\n      exp\n      dup2\n      sload\n      dup2\n      0xffffffffffffffffffffffffffffffffffffffff\n      mul\n      not\n      and\n      swap1\n      dup4\n      0xffffffffffffffffffffffffffffffffffffffff\n      and\n      mul\n      or\n      swap1\n      sstore\n      pop\n        /* \"NRTManager.sol\":6089:6135  PoolAddressAdded( \"TimeSwapper\", timeSwappers) */\n      0x12fb0c5abba542bf97c53eecc4ebe59d9ba7ad563247ed305f002ada0291d60f\n        /* \"NRTManager.sol\":6122:6134  timeSwappers */\n      0x0f\n      0x00\n      swap1\n      sload\n      swap1\n      0x0100\n      exp\n      swap1\n      div\n      0xffffffffffffffffffffffffffffffffffffffff\n      and\n        /* \"NRTManager.sol\":6089:6135  PoolAddressAdded( \"TimeSwapper\", timeSwappers) */\n      mload(0x40)\n      dup1\n      dup1\n      0x20\n      add\n      dup4\n      0xffffffffffffffffffffffffffffffffffffffff\n      and\n      0xffffffffffffffffffffffffffffffffffffffff\n      and\n      dup2\n      mstore\n      0x20\n      add\n      dup3\n      dup2\n      sub\n      dup3\n      mstore\n      0x0b\n      dup2\n      mstore\n      0x20\n      add\n      dup1\n      0x54696d6553776170706572000000000000000000000000000000000000000000\n      dup2\n      mstore\n      pop\n      0x20\n      add\n      swap3\n      pop\n      pop\n      pop\n      mload(0x40)\n      dup1\n      swap2\n      sub\n      swap1\n      log1\n        /* \"NRTManager.sol\":5979:6146  if((pool[7] != address(0)) && (timeSwappers == address(0))){... */\n    tag_205:\n        /* \"NRTManager.sol\":6178:6179  0 */\n      0x00\n        /* \"NRTManager.sol\":6159:6180  pool[8] != address(0) */\n      0xffffffffffffffffffffffffffffffffffffffff\n      and\n        /* \"NRTManager.sol\":6159:6163  pool */\n      dup3\n        /* \"NRTManager.sol\":6164:6165  8 */\n      0x08\n        /* \"NRTManager.sol\":6159:6166  pool[8] */\n      0x09\n      dup2\n      lt\n      iszero\n      iszero\n      tag_207\n      jumpi\n      invalid\n    tag_207:\n      0x20\n      mul\n      add\n      calldataload\n      0xffffffffffffffffffffffffffffffffffffffff\n      and\n        /* \"NRTManager.sol\":6159:6180  pool[8] != address(0) */\n      0xffffffffffffffffffffffffffffffffffffffff\n      and\n      eq\n      iszero\n        /* \"NRTManager.sol\":6158:6209  (pool[8] != address(0)) && (TimeAlly == address(0)) */\n      dup1\n      iszero\n      tag_208\n      jumpi\n      pop\n        /* \"NRTManager.sol\":6206:6207  0 */\n      0x00\n        /* \"NRTManager.sol\":6186:6208  TimeAlly == address(0) */\n      0xffffffffffffffffffffffffffffffffffffffff\n      and\n        /* \"NRTManager.sol\":6186:6194  TimeAlly */\n      0x10\n      0x00\n      swap1\n      sload\n      swap1\n      0x0100\n      exp\n      swap1\n      div\n      0xffffffffffffffffffffffffffffffffffffffff\n      and\n        /* \"NRTManager.sol\":6186:6208  TimeAlly == address(0) */\n      0xffffffffffffffffffffffffffffffffffffffff\n      and\n      eq\n        /* \"NRTManager.sol\":6158:6209  (pool[8] != address(0)) && (TimeAlly == address(0)) */\n    tag_208:\n        /* \"NRTManager.sol\":6155:6307  if((pool[8] != address(0)) && (TimeAlly == address(0))){... */\n      iszero\n      tag_209\n      jumpi\n        /* \"NRTManager.sol\":6233:6237  pool */\n      dup2\n        /* \"NRTManager.sol\":6238:6239  8 */\n      0x08\n        /* \"NRTManager.sol\":6233:6240  pool[8] */\n      0x09\n      dup2\n      lt\n      iszero\n      iszero\n      tag_210\n      jumpi\n      invalid\n    tag_210:\n      0x20\n      mul\n      add\n      calldataload\n      0xffffffffffffffffffffffffffffffffffffffff\n      and\n        /* \"NRTManager.sol\":6222:6230  TimeAlly */\n      0x10\n      0x00\n        /* \"NRTManager.sol\":6222:6240  TimeAlly = pool[8] */\n      0x0100\n      exp\n      dup2\n      sload\n      dup2\n      0xffffffffffffffffffffffffffffffffffffffff\n      mul\n      not\n      and\n      swap1\n      dup4\n      0xffffffffffffffffffffffffffffffffffffffff\n      and\n      mul\n      or\n      swap1\n      sstore\n      pop\n        /* \"NRTManager.sol\":6257:6296  PoolAddressAdded( \"TimeAlly\", TimeAlly) */\n      0x12fb0c5abba542bf97c53eecc4ebe59d9ba7ad563247ed305f002ada0291d60f\n        /* \"NRTManager.sol\":6287:6295  TimeAlly */\n      0x10\n      0x00\n      swap1\n      sload\n      swap1\n      0x0100\n      exp\n      swap1\n      div\n      0xffffffffffffffffffffffffffffffffffffffff\n      and\n        /* \"NRTManager.sol\":6257:6296  PoolAddressAdded( \"TimeAlly\", TimeAlly) */\n      mload(0x40)\n      dup1\n      dup1\n      0x20\n      add\n      dup4\n      0xffffffffffffffffffffffffffffffffffffffff\n      and\n      0xffffffffffffffffffffffffffffffffffffffff\n      and\n      dup2\n      mstore\n      0x20\n      add\n      dup3\n      dup2\n      sub\n      dup3\n      mstore\n      0x08\n      dup2\n      mstore\n      0x20\n      add\n      dup1\n      0x54696d65416c6c79000000000000000000000000000000000000000000000000\n      dup2\n      mstore\n      pop\n      0x20\n      add\n      swap3\n      pop\n      pop\n      pop\n      mload(0x40)\n      dup1\n      swap2\n      sub\n      swap1\n      log1\n        /* \"NRTManager.sol\":6155:6307  if((pool[8] != address(0)) && (TimeAlly == address(0))){... */\n    tag_209:\n        /* \"NRTManager.sol\":6324:6328  true */\n      0x01\n        /* \"NRTManager.sol\":6317:6328  return true */\n      swap1\n      pop\n        /* \"NRTManager.sol\":4532:6337  function UpdateAddresses (address[9] calldata pool) external OnlyOwner  returns(bool){... */\n      swap2\n      swap1\n      pop\n      jump\t// out\n        /* \"NRTManager.sol\":1420:1453  uint256 public marketingAndRNRBal */\n    tag_92:\n      sload(0x13)\n      dup2\n      jump\t// out\n        /* \"NRTManager.sol\":1836:1862  uint256 public buzzCafeNRT */\n    tag_94:\n      sload(0x17)\n      dup2\n      jump\t// out\n        /* \"NRTManager.sol\":1212:1255  uint256 public newTalentsAndPartnershipsBal */\n    tag_96:\n      sload(0x11)\n      dup2\n      jump\t// out\n        /* \"SafeMath.sol\":1439:1584  function add(uint256 a, uint256 b) internal pure returns (uint256) {... */\n    tag_102:\n        /* \"SafeMath.sol\":1497:1504  uint256 */\n      0x00\n        /* \"SafeMath.sol\":1516:1525  uint256 c */\n      dup1\n        /* \"SafeMath.sol\":1532:1533  b */\n      dup3\n        /* \"SafeMath.sol\":1528:1529  a */\n      dup5\n        /* \"SafeMath.sol\":1528:1533  a + b */\n      add\n        /* \"SafeMath.sol\":1516:1533  uint256 c = a + b */\n      swap1\n      pop\n        /* \"SafeMath.sol\":1556:1557  a */\n      dup4\n        /* \"SafeMath.sol\":1551:1552  c */\n      dup2\n        /* \"SafeMath.sol\":1551:1557  c >= a */\n      lt\n      iszero\n        /* \"SafeMath.sol\":1543:1558  require(c >= a) */\n      iszero\n      iszero\n      tag_212\n      jumpi\n      0x00\n      dup1\n      revert\n    tag_212:\n        /* \"SafeMath.sol\":1576:1577  c */\n      dup1\n        /* \"SafeMath.sol\":1569:1577  return c */\n      swap2\n      pop\n      pop\n        /* \"SafeMath.sol\":1439:1584  function add(uint256 a, uint256 b) internal pure returns (uint256) {... */\n      swap3\n      swap2\n      pop\n      pop\n      jump\t// out\n        /* \"SafeMath.sol\":1211:1356  function sub(uint256 a, uint256 b) internal pure returns (uint256) {... */\n    tag_113:\n        /* \"SafeMath.sol\":1269:1276  uint256 */\n      0x00\n        /* \"SafeMath.sol\":1301:1302  a */\n      dup3\n        /* \"SafeMath.sol\":1296:1297  b */\n      dup3\n        /* \"SafeMath.sol\":1296:1302  b <= a */\n      gt\n      iszero\n        /* \"SafeMath.sol\":1288:1303  require(b <= a) */\n      iszero\n      iszero\n      tag_214\n      jumpi\n      0x00\n      dup1\n      revert\n    tag_214:\n        /* \"SafeMath.sol\":1313:1322  uint256 c */\n      0x00\n        /* \"SafeMath.sol\":1329:1330  b */\n      dup3\n        /* \"SafeMath.sol\":1325:1326  a */\n      dup5\n        /* \"SafeMath.sol\":1325:1330  a - b */\n      sub\n        /* \"SafeMath.sol\":1313:1330  uint256 c = a - b */\n      swap1\n      pop\n        /* \"SafeMath.sol\":1348:1349  c */\n      dup1\n        /* \"SafeMath.sol\":1341:1349  return c */\n      swap2\n      pop\n      pop\n        /* \"SafeMath.sol\":1211:1356  function sub(uint256 a, uint256 b) internal pure returns (uint256) {... */\n      swap3\n      swap2\n      pop\n      pop\n      jump\t// out\n        /* \"SafeMath.sol\":231:652  function mul(uint256 a, uint256 b) internal pure returns (uint256) {... */\n    tag_118:\n        /* \"SafeMath.sol\":289:296  uint256 */\n      0x00\n        /* \"SafeMath.sol\":534:535  0 */\n      dup1\n        /* \"SafeMath.sol\":529:530  a */\n      dup4\n        /* \"SafeMath.sol\":529:535  a == 0 */\n      eq\n        /* \"SafeMath.sol\":525:570  if (a == 0) {... */\n      iszero\n      tag_216\n      jumpi\n        /* \"SafeMath.sol\":558:559  0 */\n      0x00\n        /* \"SafeMath.sol\":551:559  return 0 */\n      swap1\n      pop\n      jump(tag_215)\n        /* \"SafeMath.sol\":525:570  if (a == 0) {... */\n    tag_216:\n        /* \"SafeMath.sol\":580:589  uint256 c */\n      0x00\n        /* \"SafeMath.sol\":596:597  b */\n      dup3\n        /* \"SafeMath.sol\":592:593  a */\n      dup5\n        /* \"SafeMath.sol\":592:597  a * b */\n      mul\n        /* \"SafeMath.sol\":580:597  uint256 c = a * b */\n      swap1\n      pop\n        /* \"SafeMath.sol\":624:625  b */\n      dup3\n        /* \"SafeMath.sol\":619:620  a */\n      dup5\n        /* \"SafeMath.sol\":615:616  c */\n      dup3\n        /* \"SafeMath.sol\":615:620  c / a */\n      dup2\n      iszero\n      iszero\n      tag_217\n      jumpi\n      invalid\n    tag_217:\n      div\n        /* \"SafeMath.sol\":615:625  c / a == b */\n      eq\n        /* \"SafeMath.sol\":607:626  require(c / a == b) */\n      iszero\n      iszero\n      tag_218\n      jumpi\n      0x00\n      dup1\n      revert\n    tag_218:\n        /* \"SafeMath.sol\":644:645  c */\n      dup1\n        /* \"SafeMath.sol\":637:645  return c */\n      swap2\n      pop\n      pop\n        /* \"SafeMath.sol\":231:652  function mul(uint256 a, uint256 b) internal pure returns (uint256) {... */\n    tag_215:\n      swap3\n      swap2\n      pop\n      pop\n      jump\t// out\n        /* \"SafeMath.sol\":782:1078  function div(uint256 a, uint256 b) internal pure returns (uint256) {... */\n    tag_119:\n        /* \"SafeMath.sol\":840:847  uint256 */\n      0x00\n        /* \"SafeMath.sol\":937:938  0 */\n      dup1\n        /* \"SafeMath.sol\":933:934  b */\n      dup3\n        /* \"SafeMath.sol\":933:938  b > 0 */\n      gt\n        /* \"SafeMath.sol\":925:939  require(b > 0) */\n      iszero\n      iszero\n      tag_220\n      jumpi\n      0x00\n      dup1\n      revert\n    tag_220:\n        /* \"SafeMath.sol\":949:958  uint256 c */\n      0x00\n        /* \"SafeMath.sol\":965:966  b */\n      dup3\n        /* \"SafeMath.sol\":961:962  a */\n      dup5\n        /* \"SafeMath.sol\":961:966  a / b */\n      dup2\n      iszero\n      iszero\n      tag_221\n      jumpi\n      invalid\n    tag_221:\n      div\n        /* \"SafeMath.sol\":949:966  uint256 c = a / b */\n      swap1\n      pop\n        /* \"SafeMath.sol\":1070:1071  c */\n      dup1\n        /* \"SafeMath.sol\":1063:1071  return c */\n      swap2\n      pop\n      pop\n        /* \"SafeMath.sol\":782:1078  function div(uint256 a, uint256 b) internal pure returns (uint256) {... */\n      swap3\n      swap2\n      pop\n      pop\n      jump\t// out\n        /* \"NRTManager.sol\":3782:4301  function burnTokens() internal returns (bool){... */\n    tag_165:\n        /* \"NRTManager.sol\":3822:3826  bool */\n      0x00\n        /* \"NRTManager.sol\":3856:3857  0 */\n      dup1\n        /* \"NRTManager.sol\":3840:3852  burnTokenBal */\n      sload(0x05)\n        /* \"NRTManager.sol\":3840:3857  burnTokenBal == 0 */\n      eq\n        /* \"NRTManager.sol\":3837:4293  if(burnTokenBal == 0){... */\n      iszero\n      tag_223\n      jumpi\n        /* \"NRTManager.sol\":3877:3881  true */\n      0x01\n        /* \"NRTManager.sol\":3870:3881  return true */\n      swap1\n      pop\n      jump(tag_222)\n        /* \"NRTManager.sol\":3837:4293  if(burnTokenBal == 0){... */\n    tag_223:\n        /* \"NRTManager.sol\":3917:3931  uint MaxAmount */\n      0x00\n        /* \"NRTManager.sol\":3934:3973  ((token.totalSupply()).mul(2)).div(100) */\n      tag_225\n        /* \"NRTManager.sol\":3969:3972  100 */\n      0x64\n        /* \"NRTManager.sol\":3935:3963  (token.totalSupply()).mul(2) */\n      tag_226\n        /* \"NRTManager.sol\":3961:3962  2 */\n      0x02\n        /* \"NRTManager.sol\":3936:3941  token */\n      0x06\n      0x00\n      swap1\n      sload\n      swap1\n      0x0100\n      exp\n      swap1\n      div\n      0xffffffffffffffffffffffffffffffffffffffff\n      and\n        /* \"NRTManager.sol\":3936:3953  token.totalSupply */\n      0xffffffffffffffffffffffffffffffffffffffff\n      and\n      0x18160ddd\n        /* \"NRTManager.sol\":3936:3955  token.totalSupply() */\n      mload(0x40)\n      dup2\n      0xffffffff\n      and\n      0x0100000000000000000000000000000000000000000000000000000000\n      mul\n      dup2\n      mstore\n      0x04\n      add\n      0x20\n      mload(0x40)\n      dup1\n      dup4\n      sub\n      dup2\n      dup7\n      dup1\n      extcodesize\n      iszero\n        /* \"--CODEGEN--\":8:17   */\n      dup1\n        /* \"--CODEGEN--\":5:7   */\n      iszero\n      tag_227\n      jumpi\n        /* \"--CODEGEN--\":30:31   */\n      0x00\n        /* \"--CODEGEN--\":27:28   */\n      dup1\n        /* \"--CODEGEN--\":20:32   */\n      revert\n        /* \"--CODEGEN--\":5:7   */\n    tag_227:\n        /* \"NRTManager.sol\":3936:3955  token.totalSupply() */\n      pop\n      gas\n      staticcall\n      iszero\n        /* \"--CODEGEN--\":8:17   */\n      dup1\n        /* \"--CODEGEN--\":5:7   */\n      iszero\n      tag_228\n      jumpi\n        /* \"--CODEGEN--\":45:61   */\n      returndatasize\n        /* \"--CODEGEN--\":42:43   */\n      0x00\n        /* \"--CODEGEN--\":39:40   */\n      dup1\n        /* \"--CODEGEN--\":24:62   */\n      returndatacopy\n        /* \"--CODEGEN--\":77:93   */\n      returndatasize\n        /* \"--CODEGEN--\":74:75   */\n      0x00\n        /* \"--CODEGEN--\":67:94   */\n      revert\n        /* \"--CODEGEN--\":5:7   */\n    tag_228:\n        /* \"NRTManager.sol\":3936:3955  token.totalSupply() */\n      pop\n      pop\n      pop\n      pop\n      mload(0x40)\n      returndatasize\n        /* \"--CODEGEN--\":13:15   */\n      0x20\n        /* \"--CODEGEN--\":8:11   */\n      dup2\n        /* \"--CODEGEN--\":5:16   */\n      lt\n        /* \"--CODEGEN--\":2:4   */\n      iszero\n      tag_229\n      jumpi\n        /* \"--CODEGEN--\":29:30   */\n      0x00\n        /* \"--CODEGEN--\":26:27   */\n      dup1\n        /* \"--CODEGEN--\":19:31   */\n      revert\n        /* \"--CODEGEN--\":2:4   */\n    tag_229:\n        /* \"NRTManager.sol\":3936:3955  token.totalSupply() */\n      dup2\n      add\n      swap1\n      dup1\n      dup1\n      mload\n      swap1\n      0x20\n      add\n      swap1\n      swap3\n      swap2\n      swap1\n      pop\n      pop\n      pop\n        /* \"NRTManager.sol\":3935:3960  (token.totalSupply()).mul */\n      tag_118\n      swap1\n        /* \"NRTManager.sol\":3935:3963  (token.totalSupply()).mul(2) */\n      swap2\n      swap1\n      0xffffffff\n      and\n      jump\t// in\n    tag_226:\n        /* \"NRTManager.sol\":3934:3968  ((token.totalSupply()).mul(2)).div */\n      tag_119\n      swap1\n        /* \"NRTManager.sol\":3934:3973  ((token.totalSupply()).mul(2)).div(100) */\n      swap2\n      swap1\n      0xffffffff\n      and\n      jump\t// in\n    tag_225:\n        /* \"NRTManager.sol\":3917:3973  uint MaxAmount = ((token.totalSupply()).mul(2)).div(100) */\n      swap1\n      pop\n        /* \"NRTManager.sol\":4046:4058  burnTokenBal */\n      sload(0x05)\n        /* \"NRTManager.sol\":4033:4042  MaxAmount */\n      dup2\n        /* \"NRTManager.sol\":4033:4058  MaxAmount >= burnTokenBal */\n      lt\n      iszero\n        /* \"NRTManager.sol\":4030:4260  if(MaxAmount >= burnTokenBal ){... */\n      iszero\n      tag_230\n      jumpi\n        /* \"NRTManager.sol\":4074:4079  token */\n      0x06\n      0x00\n      swap1\n      sload\n      swap1\n      0x0100\n      exp\n      swap1\n      div\n      0xffffffffffffffffffffffffffffffffffffffff\n      and\n        /* \"NRTManager.sol\":4074:4084  token.burn */\n      0xffffffffffffffffffffffffffffffffffffffff\n      and\n      0x42966c68\n        /* \"NRTManager.sol\":4085:4097  burnTokenBal */\n      sload(0x05)\n        /* \"NRTManager.sol\":4074:4098  token.burn(burnTokenBal) */\n      mload(0x40)\n      dup3\n      0xffffffff\n      and\n      0x0100000000000000000000000000000000000000000000000000000000\n      mul\n      dup2\n      mstore\n      0x04\n      add\n      dup1\n      dup3\n      dup2\n      mstore\n      0x20\n      add\n      swap2\n      pop\n      pop\n      0x00\n      mload(0x40)\n      dup1\n      dup4\n      sub\n      dup2\n      0x00\n      dup8\n      dup1\n      extcodesize\n      iszero\n        /* \"--CODEGEN--\":8:17   */\n      dup1\n        /* \"--CODEGEN--\":5:7   */\n      iszero\n      tag_231\n      jumpi\n        /* \"--CODEGEN--\":30:31   */\n      0x00\n        /* \"--CODEGEN--\":27:28   */\n      dup1\n        /* \"--CODEGEN--\":20:32   */\n      revert\n        /* \"--CODEGEN--\":5:7   */\n    tag_231:\n        /* \"NRTManager.sol\":4074:4098  token.burn(burnTokenBal) */\n      pop\n      gas\n      call\n      iszero\n        /* \"--CODEGEN--\":8:17   */\n      dup1\n        /* \"--CODEGEN--\":5:7   */\n      iszero\n      tag_232\n      jumpi\n        /* \"--CODEGEN--\":45:61   */\n      returndatasize\n        /* \"--CODEGEN--\":42:43   */\n      0x00\n        /* \"--CODEGEN--\":39:40   */\n      dup1\n        /* \"--CODEGEN--\":24:62   */\n      returndatacopy\n        /* \"--CODEGEN--\":77:93   */\n      returndatasize\n        /* \"--CODEGEN--\":74:75   */\n      0x00\n        /* \"--CODEGEN--\":67:94   */\n      revert\n        /* \"--CODEGEN--\":5:7   */\n    tag_232:\n        /* \"NRTManager.sol\":4074:4098  token.burn(burnTokenBal) */\n      pop\n      pop\n      pop\n      pop\n        /* \"NRTManager.sol\":4127:4128  0 */\n      0x00\n        /* \"NRTManager.sol\":4112:4124  burnTokenBal */\n      0x05\n        /* \"NRTManager.sol\":4112:4128  burnTokenBal = 0 */\n      dup2\n      swap1\n      sstore\n      pop\n        /* \"NRTManager.sol\":4030:4260  if(MaxAmount >= burnTokenBal ){... */\n      jump(tag_233)\n    tag_230:\n        /* \"NRTManager.sol\":4185:4212  burnTokenBal.sub(MaxAmount) */\n      tag_234\n        /* \"NRTManager.sol\":4202:4211  MaxAmount */\n      dup2\n        /* \"NRTManager.sol\":4185:4197  burnTokenBal */\n      sload(0x05)\n        /* \"NRTManager.sol\":4185:4201  burnTokenBal.sub */\n      tag_113\n      swap1\n        /* \"NRTManager.sol\":4185:4212  burnTokenBal.sub(MaxAmount) */\n      swap2\n      swap1\n      0xffffffff\n      and\n      jump\t// in\n    tag_234:\n        /* \"NRTManager.sol\":4170:4182  burnTokenBal */\n      0x05\n        /* \"NRTManager.sol\":4170:4212  burnTokenBal = burnTokenBal.sub(MaxAmount) */\n      dup2\n      swap1\n      sstore\n      pop\n        /* \"NRTManager.sol\":4226:4231  token */\n      0x06\n      0x00\n      swap1\n      sload\n      swap1\n      0x0100\n      exp\n      swap1\n      div\n      0xffffffffffffffffffffffffffffffffffffffff\n      and\n        /* \"NRTManager.sol\":4226:4236  token.burn */\n      0xffffffffffffffffffffffffffffffffffffffff\n      and\n      0x42966c68\n        /* \"NRTManager.sol\":4237:4246  MaxAmount */\n      dup3\n        /* \"NRTManager.sol\":4226:4247  token.burn(MaxAmount) */\n      mload(0x40)\n      dup3\n      0xffffffff\n      and\n      0x0100000000000000000000000000000000000000000000000000000000\n      mul\n      dup2\n      mstore\n      0x04\n      add\n      dup1\n      dup3\n      dup2\n      mstore\n      0x20\n      add\n      swap2\n      pop\n      pop\n      0x00\n      mload(0x40)\n      dup1\n      dup4\n      sub\n      dup2\n      0x00\n      dup8\n      dup1\n      extcodesize\n      iszero\n        /* \"--CODEGEN--\":8:17   */\n      dup1\n        /* \"--CODEGEN--\":5:7   */\n      iszero\n      tag_235\n      jumpi\n        /* \"--CODEGEN--\":30:31   */\n      0x00\n        /* \"--CODEGEN--\":27:28   */\n      dup1\n        /* \"--CODEGEN--\":20:32   */\n      revert\n        /* \"--CODEGEN--\":5:7   */\n    tag_235:\n        /* \"NRTManager.sol\":4226:4247  token.burn(MaxAmount) */\n      pop\n      gas\n      call\n      iszero\n        /* \"--CODEGEN--\":8:17   */\n      dup1\n        /* \"--CODEGEN--\":5:7   */\n      iszero\n      tag_236\n      jumpi\n        /* \"--CODEGEN--\":45:61   */\n      returndatasize\n        /* \"--CODEGEN--\":42:43   */\n      0x00\n        /* \"--CODEGEN--\":39:40   */\n      dup1\n        /* \"--CODEGEN--\":24:62   */\n      returndatacopy\n        /* \"--CODEGEN--\":77:93   */\n      returndatasize\n        /* \"--CODEGEN--\":74:75   */\n      0x00\n        /* \"--CODEGEN--\":67:94   */\n      revert\n        /* \"--CODEGEN--\":5:7   */\n    tag_236:\n        /* \"NRTManager.sol\":4226:4247  token.burn(MaxAmount) */\n      pop\n      pop\n      pop\n      pop\n        /* \"NRTManager.sol\":4030:4260  if(MaxAmount >= burnTokenBal ){... */\n    tag_233:\n        /* \"NRTManager.sol\":4278:4282  true */\n      0x01\n        /* \"NRTManager.sol\":4271:4282  return true */\n      swap2\n      pop\n      pop\n        /* \"NRTManager.sol\":3782:4301  function burnTokens() internal returns (bool){... */\n    tag_222:\n      swap1\n      jump\t// out\n    stop\n    data_75b80d254974e234aa097720f74460cadd2b76f17d7eb2120a344a75769d98ab 4f6e6c792054696d65416c6c7920616e642054696d657377617070657220697320617574686f7269736564\n    data_f2be0bdc1b11a94fc4e1a8a1916cd2e21b6687cb60899d8c2cd7a367527e7b93 4e52542072656c656173652068617070656e73206f6e6365206576657279206d6f6e7468\n\n    auxdata: 0xa165627a7a723058206be085e78c460a305d8d835bb0103dcbfb8948f8550fdaa035bc560d4bf9aaff0029\n}\n","bytecode":{"linkReferences":{},"object":"60806040523480156200001157600080fd5b50604051602080620037d4833981018060405260208110156200003357600080fd5b810190808051906020019092919050505080600660006101000a81548173ffffffffffffffffffffffffffffffffffffffff021916908373ffffffffffffffffffffffffffffffffffffffff160217905550426000819055506b02a575fef6999c3a13000000600281905550620000c5600c6002546200011b6401000000000262003349179091906401000000009004565b600181905550600060038190555033600760006101000a81548173ffffffffffffffffffffffffffffffffffffffff021916908373ffffffffffffffffffffffffffffffffffffffff1602179055505062000147565b600080821115156200012c57600080fd5b600082848115156200013a57fe5b0490508091505092915050565b61367d80620001576000396000f3fe608060405234801561001057600080fd5b50600436106101e1576000357c010000000000000000000000000000000000000000000000000000000090048063797d123c11610116578063bfb3d6c8116100b4578063cb358efa1161008e578063cb358efa14610696578063d37eb950146106de578063db2f2cb5146106fc578063e71a3bfd1461071a576101e1565b8063bfb3d6c81461063c578063c3348a8b1461065a578063c6b2c53614610678576101e1565b80639cd417de116100f05780639cd417de14610568578063a9e817a9146105b2578063b018abbd146105fc578063bd27d3611461061e576101e1565b8063797d123c1461050e5780637b8c0b791461052c5780637d53257a1461054a576101e1565b806341aaa9b6116101835780635c12278d1161015d5780635c12278d1461043e5780635f7ce89f146104885780636037d2a3146104a657806365c00470146104c4576101e1565b806341aaa9b6146103905780634a4581aa146103d657806351bd70b1146103f4576101e1565b80632cfceb07116101bf5780632cfceb071461029857806337bfea18146102b6578063382e2aab146103005780633a18a9fd14610346576101e1565b80630b3e29b8146101e65780630d4e57a41461023057806326b3bf2f1461024e575b600080fd5b6101ee610738565b604051808273ffffffffffffffffffffffffffffffffffffffff1673ffffffffffffffffffffffffffffffffffffffff16815260200191505060405180910390f35b61023861075e565b6040518082815260200191505060405180910390f35b610256610764565b604051808273ffffffffffffffffffffffffffffffffffffffff1673ffffffffffffffffffffffffffffffffffffffff16815260200191505060405180910390f35b6102a061078a565b6040518082815260200191505060405180910390f35b6102be610790565b604051808273ffffffffffffffffffffffffffffffffffffffff1673ffffffffffffffffffffffffffffffffffffffff16815260200191505060405180910390f35b61032c6004803603602081101561031657600080fd5b81019080803590602001909291905050506107b6565b604051808215151515815260200191505060405180910390f35b61034e610915565b604051808273ffffffffffffffffffffffffffffffffffffffff1673ffffffffffffffffffffffffffffffffffffffff16815260200191505060405180910390f35b6103bc600480360360208110156103a657600080fd5b810190808035906020019092919050505061093b565b604051808215151515815260200191505060405180910390f35b6103de610a9a565b6040518082815260200191505060405180910390f35b6103fc610aa0565b604051808273ffffffffffffffffffffffffffffffffffffffff1673ffffffffffffffffffffffffffffffffffffffff16815260200191505060405180910390f35b610446610ac6565b604051808273ffffffffffffffffffffffffffffffffffffffff1673ffffffffffffffffffffffffffffffffffffffff16815260200191505060405180910390f35b610490610aec565b6040518082815260200191505060405180910390f35b6104ae610af2565b6040518082815260200191505060405180910390f35b6104cc610af8565b604051808273ffffffffffffffffffffffffffffffffffffffff1673ffffffffffffffffffffffffffffffffffffffff16815260200191505060405180910390f35b610516610b1e565b6040518082815260200191505060405180910390f35b610534610b24565b6040518082815260200191505060405180910390f35b610552610b2a565b6040518082815260200191505060405180910390f35b610570610b30565b604051808273ffffffffffffffffffffffffffffffffffffffff1673ffffffffffffffffffffffffffffffffffffffff16815260200191505060405180910390f35b6105ba610b56565b604051808273ffffffffffffffffffffffffffffffffffffffff1673ffffffffffffffffffffffffffffffffffffffff16815260200191505060405180910390f35b610604610b7c565b604051808215151515815260200191505060405180910390f35b6106266120dc565b6040518082815260200191505060405180910390f35b6106446120e2565b6040518082815260200191505060405180910390f35b6106626120e8565b6040518082815260200191505060405180910390f35b6106806120ee565b6040518082815260200191505060405180910390f35b6106c460048036036101208110156106ad57600080fd5b8101908080610120019091929192905050506120f4565b604051808215151515815260200191505060405180910390f35b6106e66132b6565b6040518082815260200191505060405180910390f35b6107046132bc565b6040518082815260200191505060405180910390f35b6107226132c2565b6040518082815260200191505060405180910390f35b600c60009054906101000a900473ffffffffffffffffffffffffffffffffffffffff1681565b60035481565b600860009054906101000a900473ffffffffffffffffffffffffffffffffffffffff1681565b60145481565b601060009054906101000a900473ffffffffffffffffffffffffffffffffffffffff1681565b6000601060009054906101000a900473ffffffffffffffffffffffffffffffffffffffff1673ffffffffffffffffffffffffffffffffffffffff163373ffffffffffffffffffffffffffffffffffffffff1614806108615750600f60009054906101000a900473ffffffffffffffffffffffffffffffffffffffff1673ffffffffffffffffffffffffffffffffffffffff163373ffffffffffffffffffffffffffffffffffffffff16145b15156108b8576040517f08c379a000000000000000000000000000000000000000000000000000000000815260040180806020018281038252602b815260200180613603602b913960400191505060405180910390fd5b6108cd826004546132c890919063ffffffff16565b6004819055507fc9c58ca254a2bde8ce607d1f5211f98c28c52efcea5216a867ea933b95efc31f6004546040518082815260200191505060405180910390a160019050919050565b600960009054906101000a900473ffffffffffffffffffffffffffffffffffffffff1681565b6000601060009054906101000a900473ffffffffffffffffffffffffffffffffffffffff1673ffffffffffffffffffffffffffffffffffffffff163373ffffffffffffffffffffffffffffffffffffffff1614806109e65750600f60009054906101000a900473ffffffffffffffffffffffffffffffffffffffff1673ffffffffffffffffffffffffffffffffffffffff163373ffffffffffffffffffffffffffffffffffffffff16145b1515610a3d576040517f08c379a000000000000000000000000000000000000000000000000000000000815260040180806020018281038252602b815260200180613603602b913960400191505060405180910390fd5b610a52826005546132c890919063ffffffff16565b6005819055507f8f740eb8352e99b7242ce9c7cec021ee8b28b4acef603ff1260fe8b722822fec6005546040518082815260200191505060405180910390a160019050919050565b60055481565b600a60009054906101000a900473ffffffffffffffffffffffffffffffffffffffff1681565b600d60009054906101000a900473ffffffffffffffffffffffffffffffffffffffff1681565b60155481565b60015481565b600b60009054906101000a900473ffffffffffffffffffffffffffffffffffffffff1681565b60005481565b60025481565b60165481565b600f60009054906101000a900473ffffffffffffffffffffffffffffffffffffffff1681565b600e60009054906101000a900473ffffffffffffffffffffffffffffffffffffffff1681565b600062278d00610c55600054600660009054906101000a900473ffffffffffffffffffffffffffffffffffffffff1673ffffffffffffffffffffffffffffffffffffffff1663b81f90f36040518163ffffffff167c010000000000000000000000000000000000000000000000000000000002815260040160206040518083038186803b158015610c0c57600080fd5b505afa158015610c20573d6000803e3d6000fd5b505050506040513d6020811015610c3657600080fd5b81019080805190602001909291905050506132e990919063ffffffff16565b111515610cad576040517f08c379a000000000000000000000000000000000000000000000000000000000815260040180806020018281038252602481526020018061362e6024913960400191505060405180910390fd5b6000610cc66004546001546132c890919063ffffffff16565b9050610cef6064610ce160058461330b90919063ffffffff16565b61334990919063ffffffff16565b601181905550610d1c6064610d0e600a8461330b90919063ffffffff16565b61334990919063ffffffff16565b601281905550610d496064610d3b600a8461330b90919063ffffffff16565b61334990919063ffffffff16565b601381905550610d766064610d68600a8461330b90919063ffffffff16565b61334990919063ffffffff16565b601481905550610da36064610d95600a8461330b90919063ffffffff16565b61334990919063ffffffff16565b601581905550610dd06064610dc260058461330b90919063ffffffff16565b61334990919063ffffffff16565b601681905550610dfe6103e8610df060198461330b90919063ffffffff16565b61334990919063ffffffff16565b601781905550610e2b6064610e1d600f8461330b90919063ffffffff16565b61334990919063ffffffff16565b601881905550610e5a6103e8610e4c6101458461330b90919063ffffffff16565b61334990919063ffffffff16565b601981905550600660009054906101000a900473ffffffffffffffffffffffffffffffffffffffff1673ffffffffffffffffffffffffffffffffffffffff166340c10f19600860009054906101000a900473ffffffffffffffffffffffffffffffffffffffff166011546040518363ffffffff167c0100000000000000000000000000000000000000000000000000000000028152600401808373ffffffffffffffffffffffffffffffffffffffff1673ffffffffffffffffffffffffffffffffffffffff16815260200182815260200192505050602060405180830381600087803b158015610f4957600080fd5b505af1158015610f5d573d6000803e3d6000fd5b505050506040513d6020811015610f7357600080fd5b8101908080519060200190929190505050507f8470ec6072093abfec912969ee9fd5273eed1d3202eac51a1fd83c236ee9bea8600860009054906101000a900473ffffffffffffffffffffffffffffffffffffffff1660115460405180806020018473ffffffffffffffffffffffffffffffffffffffff1673ffffffffffffffffffffffffffffffffffffffff168152602001838152602001828103825260198152602001807f6e657754616c656e7473416e64506172746e6572736869707300000000000000815250602001935050505060405180910390a1600660009054906101000a900473ffffffffffffffffffffffffffffffffffffffff1673ffffffffffffffffffffffffffffffffffffffff166340c10f19600960009054906101000a900473ffffffffffffffffffffffffffffffffffffffff166012546040518363ffffffff167c0100000000000000000000000000000000000000000000000000000000028152600401808373ffffffffffffffffffffffffffffffffffffffff1673ffffffffffffffffffffffffffffffffffffffff16815260200182815260200192505050602060405180830381600087803b15801561113657600080fd5b505af115801561114a573d6000803e3d6000fd5b505050506040513d602081101561116057600080fd5b8101908080519060200190929190505050507f8470ec6072093abfec912969ee9fd5273eed1d3202eac51a1fd83c236ee9bea8600960009054906101000a900473ffffffffffffffffffffffffffffffffffffffff1660125460405180806020018473ffffffffffffffffffffffffffffffffffffffff1673ffffffffffffffffffffffffffffffffffffffff168152602001838152602001828103825260138152602001807f706c6174666f726d4d61696e74656e616e636500000000000000000000000000815250602001935050505060405180910390a1600660009054906101000a900473ffffffffffffffffffffffffffffffffffffffff1673ffffffffffffffffffffffffffffffffffffffff166340c10f19600a60009054906101000a900473ffffffffffffffffffffffffffffffffffffffff166013546040518363ffffffff167c0100000000000000000000000000000000000000000000000000000000028152600401808373ffffffffffffffffffffffffffffffffffffffff1673ffffffffffffffffffffffffffffffffffffffff16815260200182815260200192505050602060405180830381600087803b15801561132357600080fd5b505af1158015611337573d6000803e3d6000fd5b505050506040513d602081101561134d57600080fd5b8101908080519060200190929190505050507f8470ec6072093abfec912969ee9fd5273eed1d3202eac51a1fd83c236ee9bea8600a60009054906101000a900473ffffffffffffffffffffffffffffffffffffffff1660135460405180806020018473ffffffffffffffffffffffffffffffffffffffff1673ffffffffffffffffffffffffffffffffffffffff1681526020018381526020018281038252600f8152602001807f6d61726b6574696e67416e64524e520000000000000000000000000000000000815250602001935050505060405180910390a1600660009054906101000a900473ffffffffffffffffffffffffffffffffffffffff1673ffffffffffffffffffffffffffffffffffffffff166340c10f19600b60009054906101000a900473ffffffffffffffffffffffffffffffffffffffff166014546040518363ffffffff167c0100000000000000000000000000000000000000000000000000000000028152600401808373ffffffffffffffffffffffffffffffffffffffff1673ffffffffffffffffffffffffffffffffffffffff16815260200182815260200192505050602060405180830381600087803b15801561151057600080fd5b505af1158015611524573d6000803e3d6000fd5b505050506040513d602081101561153a57600080fd5b8101908080519060200190929190505050507f8470ec6072093abfec912969ee9fd5273eed1d3202eac51a1fd83c236ee9bea8600b60009054906101000a900473ffffffffffffffffffffffffffffffffffffffff1660145460405180806020018473ffffffffffffffffffffffffffffffffffffffff1673ffffffffffffffffffffffffffffffffffffffff168152602001838152602001828103825260078152602001807f6b6d506172647300000000000000000000000000000000000000000000000000815250602001935050505060405180910390a1600660009054906101000a900473ffffffffffffffffffffffffffffffffffffffff1673ffffffffffffffffffffffffffffffffffffffff166340c10f19600c60009054906101000a900473ffffffffffffffffffffffffffffffffffffffff166015546040518363ffffffff167c0100000000000000000000000000000000000000000000000000000000028152600401808373ffffffffffffffffffffffffffffffffffffffff1673ffffffffffffffffffffffffffffffffffffffff16815260200182815260200192505050602060405180830381600087803b1580156116fd57600080fd5b505af1158015611711573d6000803e3d6000fd5b505050506040513d602081101561172757600080fd5b8101908080519060200190929190505050507f8470ec6072093abfec912969ee9fd5273eed1d3202eac51a1fd83c236ee9bea8600c60009054906101000a900473ffffffffffffffffffffffffffffffffffffffff1660155460405180806020018473ffffffffffffffffffffffffffffffffffffffff1673ffffffffffffffffffffffffffffffffffffffff168152602001838152602001828103825260108152602001807f636f6e74696e67656e637946756e647300000000000000000000000000000000815250602001935050505060405180910390a1600660009054906101000a900473ffffffffffffffffffffffffffffffffffffffff1673ffffffffffffffffffffffffffffffffffffffff166340c10f19600d60009054906101000a900473ffffffffffffffffffffffffffffffffffffffff166016546040518363ffffffff167c0100000000000000000000000000000000000000000000000000000000028152600401808373ffffffffffffffffffffffffffffffffffffffff1673ffffffffffffffffffffffffffffffffffffffff16815260200182815260200192505050602060405180830381600087803b1580156118ea57600080fd5b505af11580156118fe573d6000803e3d6000fd5b505050506040513d602081101561191457600080fd5b8101908080519060200190929190505050507f8470ec6072093abfec912969ee9fd5273eed1d3202eac51a1fd83c236ee9bea8600d60009054906101000a900473ffffffffffffffffffffffffffffffffffffffff1660165460405180806020018473ffffffffffffffffffffffffffffffffffffffff1673ffffffffffffffffffffffffffffffffffffffff168152602001838152602001828103825260168152602001807f7265736561726368416e64446576656c6f706d656e7400000000000000000000815250602001935050505060405180910390a1600660009054906101000a900473ffffffffffffffffffffffffffffffffffffffff1673ffffffffffffffffffffffffffffffffffffffff166340c10f19600e60009054906101000a900473ffffffffffffffffffffffffffffffffffffffff166017546040518363ffffffff167c0100000000000000000000000000000000000000000000000000000000028152600401808373ffffffffffffffffffffffffffffffffffffffff1673ffffffffffffffffffffffffffffffffffffffff16815260200182815260200192505050602060405180830381600087803b158015611ad757600080fd5b505af1158015611aeb573d6000803e3d6000fd5b505050506040513d6020811015611b0157600080fd5b8101908080519060200190929190505050507f8470ec6072093abfec912969ee9fd5273eed1d3202eac51a1fd83c236ee9bea8600e60009054906101000a900473ffffffffffffffffffffffffffffffffffffffff1660175460405180806020018473ffffffffffffffffffffffffffffffffffffffff1673ffffffffffffffffffffffffffffffffffffffff168152602001838152602001828103825260088152602001807f62757a7a43616665000000000000000000000000000000000000000000000000815250602001935050505060405180910390a1600660009054906101000a900473ffffffffffffffffffffffffffffffffffffffff1673ffffffffffffffffffffffffffffffffffffffff166340c10f19601060009054906101000a900473ffffffffffffffffffffffffffffffffffffffff166018546040518363ffffffff167c0100000000000000000000000000000000000000000000000000000000028152600401808373ffffffffffffffffffffffffffffffffffffffff1673ffffffffffffffffffffffffffffffffffffffff16815260200182815260200192505050602060405180830381600087803b158015611cc457600080fd5b505af1158015611cd8573d6000803e3d6000fd5b505050506040513d6020811015611cee57600080fd5b8101908080519060200190929190505050507f8470ec6072093abfec912969ee9fd5273eed1d3202eac51a1fd83c236ee9bea8601060009054906101000a900473ffffffffffffffffffffffffffffffffffffffff1660185460405180806020018473ffffffffffffffffffffffffffffffffffffffff1673ffffffffffffffffffffffffffffffffffffffff1681526020018381526020018281038252600f8152602001807f7374616b696e67436f6e74726163740000000000000000000000000000000000815250602001935050505060405180910390a1600660009054906101000a900473ffffffffffffffffffffffffffffffffffffffff1673ffffffffffffffffffffffffffffffffffffffff166340c10f19600f60009054906101000a900473ffffffffffffffffffffffffffffffffffffffff166019546040518363ffffffff167c0100000000000000000000000000000000000000000000000000000000028152600401808373ffffffffffffffffffffffffffffffffffffffff1673ffffffffffffffffffffffffffffffffffffffff16815260200182815260200192505050602060405180830381600087803b158015611eb157600080fd5b505af1158015611ec5573d6000803e3d6000fd5b505050506040513d6020811015611edb57600080fd5b8101908080519060200190929190505050507f8470ec6072093abfec912969ee9fd5273eed1d3202eac51a1fd83c236ee9bea8600f60009054906101000a900473ffffffffffffffffffffffffffffffffffffffff1660195460405180806020018473ffffffffffffffffffffffffffffffffffffffff1673ffffffffffffffffffffffffffffffffffffffff1681526020018381526020018281038252600c8152602001807f74696d6553776170706572730000000000000000000000000000000000000000815250602001935050505060405180910390a17f31a2c82874744c38fa6d0d7bacb6ff098de6c1ecc98899f39f5b9ea32108765b816040518082815260200191505060405180910390a1600060048190555061200c62278d006000546132c890919063ffffffff16565b60008190555061201a613373565b507f6ef4855b666dcc7884561072e4358b28dfe01feb1b7f4dcebc00e62d50394ac76005546040518082815260200191505060405180910390a1600b60035414156120b75760006003819055506120906064612082605a60025461330b90919063ffffffff16565b61334990919063ffffffff16565b6002819055506120ac600c60025461334990919063ffffffff16565b6001819055506120d4565b6120cd60016003546132c890919063ffffffff16565b6003819055505b600191505090565b60125481565b60195481565b60045481565b60185481565b6000600760009054906101000a900473ffffffffffffffffffffffffffffffffffffffff1673ffffffffffffffffffffffffffffffffffffffff163373ffffffffffffffffffffffffffffffffffffffff161415156121bb576040517f08c379a00000000000000000000000000000000000000000000000000000000081526004018080602001828103825260188152602001807f4f6e6c79204f776e657220697320617574686f7269736564000000000000000081525060200191505060405180910390fd5b600073ffffffffffffffffffffffffffffffffffffffff168260006009811015156121e257fe5b602002013573ffffffffffffffffffffffffffffffffffffffff1673ffffffffffffffffffffffffffffffffffffffff161415801561226f5750600073ffffffffffffffffffffffffffffffffffffffff16600860009054906101000a900473ffffffffffffffffffffffffffffffffffffffff1673ffffffffffffffffffffffffffffffffffffffff16145b1561239d5781600060098110151561228357fe5b602002013573ffffffffffffffffffffffffffffffffffffffff16600860006101000a81548173ffffffffffffffffffffffffffffffffffffffff021916908373ffffffffffffffffffffffffffffffffffffffff1602179055507f12fb0c5abba542bf97c53eecc4ebe59d9ba7ad563247ed305f002ada0291d60f600860009054906101000a900473ffffffffffffffffffffffffffffffffffffffff1660405180806020018373ffffffffffffffffffffffffffffffffffffffff1673ffffffffffffffffffffffffffffffffffffffff168152602001828103825260198152602001807f4e657754616c656e7473416e64506172746e65727368697073000000000000008152506020019250505060405180910390a15b600073ffffffffffffffffffffffffffffffffffffffff168260016009811015156123c457fe5b602002013573ffffffffffffffffffffffffffffffffffffffff1673ffffffffffffffffffffffffffffffffffffffff16141580156124515750600073ffffffffffffffffffffffffffffffffffffffff16600960009054906101000a900473ffffffffffffffffffffffffffffffffffffffff1673ffffffffffffffffffffffffffffffffffffffff16145b1561257f5781600160098110151561246557fe5b602002013573ffffffffffffffffffffffffffffffffffffffff16600960006101000a81548173ffffffffffffffffffffffffffffffffffffffff021916908373ffffffffffffffffffffffffffffffffffffffff1602179055507f12fb0c5abba542bf97c53eecc4ebe59d9ba7ad563247ed305f002ada0291d60f600960009054906101000a900473ffffffffffffffffffffffffffffffffffffffff1660405180806020018373ffffffffffffffffffffffffffffffffffffffff1673ffffffffffffffffffffffffffffffffffffffff168152602001828103825260138152602001807f506c6174666f726d4d61696e74656e616e6365000000000000000000000000008152506020019250505060405180910390a15b600073ffffffffffffffffffffffffffffffffffffffff168260026009811015156125a657fe5b602002013573ffffffffffffffffffffffffffffffffffffffff1673ffffffffffffffffffffffffffffffffffffffff16141580156126335750600073ffffffffffffffffffffffffffffffffffffffff16600a60009054906101000a900473ffffffffffffffffffffffffffffffffffffffff1673ffffffffffffffffffffffffffffffffffffffff16145b156127615781600260098110151561264757fe5b602002013573ffffffffffffffffffffffffffffffffffffffff16600a60006101000a81548173ffffffffffffffffffffffffffffffffffffffff021916908373ffffffffffffffffffffffffffffffffffffffff1602179055507f12fb0c5abba542bf97c53eecc4ebe59d9ba7ad563247ed305f002ada0291d60f600a60009054906101000a900473ffffffffffffffffffffffffffffffffffffffff1660405180806020018373ffffffffffffffffffffffffffffffffffffffff1673ffffffffffffffffffffffffffffffffffffffff1681526020018281038252600f8152602001807f4d61726b6574696e67416e64524e5200000000000000000000000000000000008152506020019250505060405180910390a15b600073ffffffffffffffffffffffffffffffffffffffff1682600360098110151561278857fe5b602002013573ffffffffffffffffffffffffffffffffffffffff1673ffffffffffffffffffffffffffffffffffffffff16141580156128155750600073ffffffffffffffffffffffffffffffffffffffff16600b60009054906101000a900473ffffffffffffffffffffffffffffffffffffffff1673ffffffffffffffffffffffffffffffffffffffff16145b156129435781600360098110151561282957fe5b602002013573ffffffffffffffffffffffffffffffffffffffff16600b60006101000a81548173ffffffffffffffffffffffffffffffffffffffff021916908373ffffffffffffffffffffffffffffffffffffffff1602179055507f12fb0c5abba542bf97c53eecc4ebe59d9ba7ad563247ed305f002ada0291d60f600b60009054906101000a900473ffffffffffffffffffffffffffffffffffffffff1660405180806020018373ffffffffffffffffffffffffffffffffffffffff1673ffffffffffffffffffffffffffffffffffffffff168152602001828103825260078152602001807f4b6d5061726473000000000000000000000000000000000000000000000000008152506020019250505060405180910390a15b600073ffffffffffffffffffffffffffffffffffffffff1682600460098110151561296a57fe5b602002013573ffffffffffffffffffffffffffffffffffffffff1673ffffffffffffffffffffffffffffffffffffffff16141580156129f75750600073ffffffffffffffffffffffffffffffffffffffff16600c60009054906101000a900473ffffffffffffffffffffffffffffffffffffffff1673ffffffffffffffffffffffffffffffffffffffff16145b15612b2557816004600981101515612a0b57fe5b602002013573ffffffffffffffffffffffffffffffffffffffff16600c60006101000a81548173ffffffffffffffffffffffffffffffffffffffff021916908373ffffffffffffffffffffffffffffffffffffffff1602179055507f12fb0c5abba542bf97c53eecc4ebe59d9ba7ad563247ed305f002ada0291d60f600c60009054906101000a900473ffffffffffffffffffffffffffffffffffffffff1660405180806020018373ffffffffffffffffffffffffffffffffffffffff1673ffffffffffffffffffffffffffffffffffffffff168152602001828103825260108152602001807f436f6e74696e67656e637946756e6473000000000000000000000000000000008152506020019250505060405180910390a15b600073ffffffffffffffffffffffffffffffffffffffff16826005600981101515612b4c57fe5b602002013573ffffffffffffffffffffffffffffffffffffffff1673ffffffffffffffffffffffffffffffffffffffff1614158015612bd95750600073ffffffffffffffffffffffffffffffffffffffff16600d60009054906101000a900473ffffffffffffffffffffffffffffffffffffffff1673ffffffffffffffffffffffffffffffffffffffff16145b15612d0757816005600981101515612bed57fe5b602002013573ffffffffffffffffffffffffffffffffffffffff16600d60006101000a81548173ffffffffffffffffffffffffffffffffffffffff021916908373ffffffffffffffffffffffffffffffffffffffff1602179055507f12fb0c5abba542bf97c53eecc4ebe59d9ba7ad563247ed305f002ada0291d60f600d60009054906101000a900473ffffffffffffffffffffffffffffffffffffffff1660405180806020018373ffffffffffffffffffffffffffffffffffffffff1673ffffffffffffffffffffffffffffffffffffffff168152602001828103825260168152602001807f5265736561726368416e64446576656c6f706d656e74000000000000000000008152506020019250505060405180910390a15b600073ffffffffffffffffffffffffffffffffffffffff16826006600981101515612d2e57fe5b602002013573ffffffffffffffffffffffffffffffffffffffff1673ffffffffffffffffffffffffffffffffffffffff1614158015612dbb5750600073ffffffffffffffffffffffffffffffffffffffff16600e60009054906101000a900473ffffffffffffffffffffffffffffffffffffffff1673ffffffffffffffffffffffffffffffffffffffff16145b15612ee957816006600981101515612dcf57fe5b602002013573ffffffffffffffffffffffffffffffffffffffff16600e60006101000a81548173ffffffffffffffffffffffffffffffffffffffff021916908373ffffffffffffffffffffffffffffffffffffffff1602179055507f12fb0c5abba542bf97c53eecc4ebe59d9ba7ad563247ed305f002ada0291d60f600e60009054906101000a900473ffffffffffffffffffffffffffffffffffffffff1660405180806020018373ffffffffffffffffffffffffffffffffffffffff1673ffffffffffffffffffffffffffffffffffffffff168152602001828103825260088152602001807f42757a7a436166650000000000000000000000000000000000000000000000008152506020019250505060405180910390a15b600073ffffffffffffffffffffffffffffffffffffffff16826007600981101515612f1057fe5b602002013573ffffffffffffffffffffffffffffffffffffffff1673ffffffffffffffffffffffffffffffffffffffff1614158015612f9d5750600073ffffffffffffffffffffffffffffffffffffffff16600f60009054906101000a900473ffffffffffffffffffffffffffffffffffffffff1673ffffffffffffffffffffffffffffffffffffffff16145b156130cb57816007600981101515612fb157fe5b602002013573ffffffffffffffffffffffffffffffffffffffff16600f60006101000a81548173ffffffffffffffffffffffffffffffffffffffff021916908373ffffffffffffffffffffffffffffffffffffffff1602179055507f12fb0c5abba542bf97c53eecc4ebe59d9ba7ad563247ed305f002ada0291d60f600f60009054906101000a900473ffffffffffffffffffffffffffffffffffffffff1660405180806020018373ffffffffffffffffffffffffffffffffffffffff1673ffffffffffffffffffffffffffffffffffffffff1681526020018281038252600b8152602001807f54696d65537761707065720000000000000000000000000000000000000000008152506020019250505060405180910390a15b600073ffffffffffffffffffffffffffffffffffffffff168260086009811015156130f257fe5b602002013573ffffffffffffffffffffffffffffffffffffffff1673ffffffffffffffffffffffffffffffffffffffff161415801561317f5750600073ffffffffffffffffffffffffffffffffffffffff16601060009054906101000a900473ffffffffffffffffffffffffffffffffffffffff1673ffffffffffffffffffffffffffffffffffffffff16145b156132ad5781600860098110151561319357fe5b602002013573ffffffffffffffffffffffffffffffffffffffff16601060006101000a81548173ffffffffffffffffffffffffffffffffffffffff021916908373ffffffffffffffffffffffffffffffffffffffff1602179055507f12fb0c5abba542bf97c53eecc4ebe59d9ba7ad563247ed305f002ada0291d60f601060009054906101000a900473ffffffffffffffffffffffffffffffffffffffff1660405180806020018373ffffffffffffffffffffffffffffffffffffffff1673ffffffffffffffffffffffffffffffffffffffff168152602001828103825260088152602001807f54696d65416c6c790000000000000000000000000000000000000000000000008152506020019250505060405180910390a15b60019050919050565b60135481565b60175481565b60115481565b60008082840190508381101515156132df57600080fd5b8091505092915050565b60008282111515156132fa57600080fd5b600082840390508091505092915050565b60008083141561331e5760009050613343565b6000828402905082848281151561333157fe5b0414151561333e57600080fd5b809150505b92915050565b6000808211151561335957600080fd5b6000828481151561336657fe5b0490508091505092915050565b600080600554141561338857600190506135ff565b600061346f60646134616002600660009054906101000a900473ffffffffffffffffffffffffffffffffffffffff1673ffffffffffffffffffffffffffffffffffffffff166318160ddd6040518163ffffffff167c010000000000000000000000000000000000000000000000000000000002815260040160206040518083038186803b15801561341857600080fd5b505afa15801561342c573d6000803e3d6000fd5b505050506040513d602081101561344257600080fd5b810190808051906020019092919050505061330b90919063ffffffff16565b61334990919063ffffffff16565b90506005548110151561353457600660009054906101000a900473ffffffffffffffffffffffffffffffffffffffff1673ffffffffffffffffffffffffffffffffffffffff166342966c686005546040518263ffffffff167c010000000000000000000000000000000000000000000000000000000002815260040180828152602001915050600060405180830381600087803b15801561350f57600080fd5b505af1158015613523573d6000803e3d6000fd5b5050505060006005819055506135f9565b613549816005546132e990919063ffffffff16565b600581905550600660009054906101000a900473ffffffffffffffffffffffffffffffffffffffff1673ffffffffffffffffffffffffffffffffffffffff166342966c68826040518263ffffffff167c010000000000000000000000000000000000000000000000000000000002815260040180828152602001915050600060405180830381600087803b1580156135e057600080fd5b505af11580156135f4573d6000803e3d6000fd5b505050505b60019150505b9056fe4f6e6c792054696d65416c6c7920616e642054696d657377617070657220697320617574686f72697365644e52542072656c656173652068617070656e73206f6e6365206576657279206d6f6e7468a165627a7a723058206be085e78c460a305d8d835bb0103dcbfb8948f8550fdaa035bc560d4bf9aaff0029","opcodes":"PUSH1 0x80 PUSH1 0x40 MSTORE CALLVALUE DUP1 ISZERO PUSH3 0x11 JUMPI PUSH1 0x0 DUP1 REVERT JUMPDEST POP PUSH1 0x40 MLOAD PUSH1 0x20 DUP1 PUSH3 0x37D4 DUP4 CODECOPY DUP2 ADD DUP1 PUSH1 0x40 MSTORE PUSH1 0x20 DUP2 LT ISZERO PUSH3 0x33 JUMPI PUSH1 0x0 DUP1 REVERT JUMPDEST DUP2 ADD SWAP1 DUP1 DUP1 MLOAD SWAP1 PUSH1 0x20 ADD SWAP1 SWAP3 SWAP2 SWAP1 POP POP POP DUP1 PUSH1 0x6 PUSH1 0x0 PUSH2 0x100 EXP DUP2 SLOAD DUP2 PUSH20 0xFFFFFFFFFFFFFFFFFFFFFFFFFFFFFFFFFFFFFFFF MUL NOT AND SWAP1 DUP4 PUSH20 0xFFFFFFFFFFFFFFFFFFFFFFFFFFFFFFFFFFFFFFFF AND MUL OR SWAP1 SSTORE POP TIMESTAMP PUSH1 0x0 DUP2 SWAP1 SSTORE POP PUSH12 0x2A575FEF6999C3A13000000 PUSH1 0x2 DUP2 SWAP1 SSTORE POP PUSH3 0xC5 PUSH1 0xC PUSH1 0x2 SLOAD PUSH3 0x11B PUSH5 0x100000000 MUL PUSH3 0x3349 OR SWAP1 SWAP2 SWAP1 PUSH5 0x100000000 SWAP1 DIV JUMP JUMPDEST PUSH1 0x1 DUP2 SWAP1 SSTORE POP PUSH1 0x0 PUSH1 0x3 DUP2 SWAP1 SSTORE POP CALLER PUSH1 0x7 PUSH1 0x0 PUSH2 0x100 EXP DUP2 SLOAD DUP2 PUSH20 0xFFFFFFFFFFFFFFFFFFFFFFFFFFFFFFFFFFFFFFFF MUL NOT AND SWAP1 DUP4 PUSH20 0xFFFFFFFFFFFFFFFFFFFFFFFFFFFFFFFFFFFFFFFF AND MUL OR SWAP1 SSTORE POP POP PUSH3 0x147 JUMP JUMPDEST PUSH1 0x0 DUP1 DUP3 GT ISZERO ISZERO PUSH3 0x12C JUMPI PUSH1 0x0 DUP1 REVERT JUMPDEST PUSH1 0x0 DUP3 DUP5 DUP2 ISZERO ISZERO PUSH3 0x13A JUMPI INVALID JUMPDEST DIV SWAP1 POP DUP1 SWAP2 POP POP SWAP3 SWAP2 POP POP JUMP JUMPDEST PUSH2 0x367D DUP1 PUSH3 0x157 PUSH1 0x0 CODECOPY PUSH1 0x0 RETURN INVALID PUSH1 0x80 PUSH1 0x40 MSTORE CALLVALUE DUP1 ISZERO PUSH2 0x10 JUMPI PUSH1 0x0 DUP1 REVERT JUMPDEST POP PUSH1 0x4 CALLDATASIZE LT PUSH2 0x1E1 JUMPI PUSH1 0x0 CALLDATALOAD PUSH29 0x100000000000000000000000000000000000000000000000000000000 SWAP1 DIV DUP1 PUSH4 0x797D123C GT PUSH2 0x116 JUMPI DUP1 PUSH4 0xBFB3D6C8 GT PUSH2 0xB4 JUMPI DUP1 PUSH4 0xCB358EFA GT PUSH2 0x8E JUMPI DUP1 PUSH4 0xCB358EFA EQ PUSH2 0x696 JUMPI DUP1 PUSH4 0xD37EB950 EQ PUSH2 0x6DE JUMPI DUP1 PUSH4 0xDB2F2CB5 EQ PUSH2 0x6FC JUMPI DUP1 PUSH4 0xE71A3BFD EQ PUSH2 0x71A JUMPI PUSH2 0x1E1 JUMP JUMPDEST DUP1 PUSH4 0xBFB3D6C8 EQ PUSH2 0x63C JUMPI DUP1 PUSH4 0xC3348A8B EQ PUSH2 0x65A JUMPI DUP1 PUSH4 0xC6B2C536 EQ PUSH2 0x678 JUMPI PUSH2 0x1E1 JUMP JUMPDEST DUP1 PUSH4 0x9CD417DE GT PUSH2 0xF0 JUMPI DUP1 PUSH4 0x9CD417DE EQ PUSH2 0x568 JUMPI DUP1 PUSH4 0xA9E817A9 EQ PUSH2 0x5B2 JUMPI DUP1 PUSH4 0xB018ABBD EQ PUSH2 0x5FC JUMPI DUP1 PUSH4 0xBD27D361 EQ PUSH2 0x61E JUMPI PUSH2 0x1E1 JUMP JUMPDEST DUP1 PUSH4 0x797D123C EQ PUSH2 0x50E JUMPI DUP1 PUSH4 0x7B8C0B79 EQ PUSH2 0x52C JUMPI DUP1 PUSH4 0x7D53257A EQ PUSH2 0x54A JUMPI PUSH2 0x1E1 JUMP JUMPDEST DUP1 PUSH4 0x41AAA9B6 GT PUSH2 0x183 JUMPI DUP1 PUSH4 0x5C12278D GT PUSH2 0x15D JUMPI DUP1 PUSH4 0x5C12278D EQ PUSH2 0x43E JUMPI DUP1 PUSH4 0x5F7CE89F EQ PUSH2 0x488 JUMPI DUP1 PUSH4 0x6037D2A3 EQ PUSH2 0x4A6 JUMPI DUP1 PUSH4 0x65C00470 EQ PUSH2 0x4C4 JUMPI PUSH2 0x1E1 JUMP JUMPDEST DUP1 PUSH4 0x41AAA9B6 EQ PUSH2 0x390 JUMPI DUP1 PUSH4 0x4A4581AA EQ PUSH2 0x3D6 JUMPI DUP1 PUSH4 0x51BD70B1 EQ PUSH2 0x3F4 JUMPI PUSH2 0x1E1 JUMP JUMPDEST DUP1 PUSH4 0x2CFCEB07 GT PUSH2 0x1BF JUMPI DUP1 PUSH4 0x2CFCEB07 EQ PUSH2 0x298 JUMPI DUP1 PUSH4 0x37BFEA18 EQ PUSH2 0x2B6 JUMPI DUP1 PUSH4 0x382E2AAB EQ PUSH2 0x300 JUMPI DUP1 PUSH4 0x3A18A9FD EQ PUSH2 0x346 JUMPI PUSH2 0x1E1 JUMP JUMPDEST DUP1 PUSH4 0xB3E29B8 EQ PUSH2 0x1E6 JUMPI DUP1 PUSH4 0xD4E57A4 EQ PUSH2 0x230 JUMPI DUP1 PUSH4 0x26B3BF2F EQ PUSH2 0x24E JUMPI JUMPDEST PUSH1 0x0 DUP1 REVERT JUMPDEST PUSH2 0x1EE PUSH2 0x738 JUMP JUMPDEST PUSH1 0x40 MLOAD DUP1 DUP3 PUSH20 0xFFFFFFFFFFFFFFFFFFFFFFFFFFFFFFFFFFFFFFFF AND PUSH20 0xFFFFFFFFFFFFFFFFFFFFFFFFFFFFFFFFFFFFFFFF AND DUP2 MSTORE PUSH1 0x20 ADD SWAP2 POP POP PUSH1 0x40 MLOAD DUP1 SWAP2 SUB SWAP1 RETURN JUMPDEST PUSH2 0x238 PUSH2 0x75E JUMP JUMPDEST PUSH1 0x40 MLOAD DUP1 DUP3 DUP2 MSTORE PUSH1 0x20 ADD SWAP2 POP POP PUSH1 0x40 MLOAD DUP1 SWAP2 SUB SWAP1 RETURN JUMPDEST PUSH2 0x256 PUSH2 0x764 JUMP JUMPDEST PUSH1 0x40 MLOAD DUP1 DUP3 PUSH20 0xFFFFFFFFFFFFFFFFFFFFFFFFFFFFFFFFFFFFFFFF AND PUSH20 0xFFFFFFFFFFFFFFFFFFFFFFFFFFFFFFFFFFFFFFFF AND DUP2 MSTORE PUSH1 0x20 ADD SWAP2 POP POP PUSH1 0x40 MLOAD DUP1 SWAP2 SUB SWAP1 RETURN JUMPDEST PUSH2 0x2A0 PUSH2 0x78A JUMP JUMPDEST PUSH1 0x40 MLOAD DUP1 DUP3 DUP2 MSTORE PUSH1 0x20 ADD SWAP2 POP POP PUSH1 0x40 MLOAD DUP1 SWAP2 SUB SWAP1 RETURN JUMPDEST PUSH2 0x2BE PUSH2 0x790 JUMP JUMPDEST PUSH1 0x40 MLOAD DUP1 DUP3 PUSH20 0xFFFFFFFFFFFFFFFFFFFFFFFFFFFFFFFFFFFFFFFF AND PUSH20 0xFFFFFFFFFFFFFFFFFFFFFFFFFFFFFFFFFFFFFFFF AND DUP2 MSTORE PUSH1 0x20 ADD SWAP2 POP POP PUSH1 0x40 MLOAD DUP1 SWAP2 SUB SWAP1 RETURN JUMPDEST PUSH2 0x32C PUSH1 0x4 DUP1 CALLDATASIZE SUB PUSH1 0x20 DUP2 LT ISZERO PUSH2 0x316 JUMPI PUSH1 0x0 DUP1 REVERT JUMPDEST DUP2 ADD SWAP1 DUP1 DUP1 CALLDATALOAD SWAP1 PUSH1 0x20 ADD SWAP1 SWAP3 SWAP2 SWAP1 POP POP POP PUSH2 0x7B6 JUMP JUMPDEST PUSH1 0x40 MLOAD DUP1 DUP3 ISZERO ISZERO ISZERO ISZERO DUP2 MSTORE PUSH1 0x20 ADD SWAP2 POP POP PUSH1 0x40 MLOAD DUP1 SWAP2 SUB SWAP1 RETURN JUMPDEST PUSH2 0x34E PUSH2 0x915 JUMP JUMPDEST PUSH1 0x40 MLOAD DUP1 DUP3 PUSH20 0xFFFFFFFFFFFFFFFFFFFFFFFFFFFFFFFFFFFFFFFF AND PUSH20 0xFFFFFFFFFFFFFFFFFFFFFFFFFFFFFFFFFFFFFFFF AND DUP2 MSTORE PUSH1 0x20 ADD SWAP2 POP POP PUSH1 0x40 MLOAD DUP1 SWAP2 SUB SWAP1 RETURN JUMPDEST PUSH2 0x3BC PUSH1 0x4 DUP1 CALLDATASIZE SUB PUSH1 0x20 DUP2 LT ISZERO PUSH2 0x3A6 JUMPI PUSH1 0x0 DUP1 REVERT JUMPDEST DUP2 ADD SWAP1 DUP1 DUP1 CALLDATALOAD SWAP1 PUSH1 0x20 ADD SWAP1 SWAP3 SWAP2 SWAP1 POP POP POP PUSH2 0x93B JUMP JUMPDEST PUSH1 0x40 MLOAD DUP1 DUP3 ISZERO ISZERO ISZERO ISZERO DUP2 MSTORE PUSH1 0x20 ADD SWAP2 POP POP PUSH1 0x40 MLOAD DUP1 SWAP2 SUB SWAP1 RETURN JUMPDEST PUSH2 0x3DE PUSH2 0xA9A JUMP JUMPDEST PUSH1 0x40 MLOAD DUP1 DUP3 DUP2 MSTORE PUSH1 0x20 ADD SWAP2 POP POP PUSH1 0x40 MLOAD DUP1 SWAP2 SUB SWAP1 RETURN JUMPDEST PUSH2 0x3FC PUSH2 0xAA0 JUMP JUMPDEST PUSH1 0x40 MLOAD DUP1 DUP3 PUSH20 0xFFFFFFFFFFFFFFFFFFFFFFFFFFFFFFFFFFFFFFFF AND PUSH20 0xFFFFFFFFFFFFFFFFFFFFFFFFFFFFFFFFFFFFFFFF AND DUP2 MSTORE PUSH1 0x20 ADD SWAP2 POP POP PUSH1 0x40 MLOAD DUP1 SWAP2 SUB SWAP1 RETURN JUMPDEST PUSH2 0x446 PUSH2 0xAC6 JUMP JUMPDEST PUSH1 0x40 MLOAD DUP1 DUP3 PUSH20 0xFFFFFFFFFFFFFFFFFFFFFFFFFFFFFFFFFFFFFFFF AND PUSH20 0xFFFFFFFFFFFFFFFFFFFFFFFFFFFFFFFFFFFFFFFF AND DUP2 MSTORE PUSH1 0x20 ADD SWAP2 POP POP PUSH1 0x40 MLOAD DUP1 SWAP2 SUB SWAP1 RETURN JUMPDEST PUSH2 0x490 PUSH2 0xAEC JUMP JUMPDEST PUSH1 0x40 MLOAD DUP1 DUP3 DUP2 MSTORE PUSH1 0x20 ADD SWAP2 POP POP PUSH1 0x40 MLOAD DUP1 SWAP2 SUB SWAP1 RETURN JUMPDEST PUSH2 0x4AE PUSH2 0xAF2 JUMP JUMPDEST PUSH1 0x40 MLOAD DUP1 DUP3 DUP2 MSTORE PUSH1 0x20 ADD SWAP2 POP POP PUSH1 0x40 MLOAD DUP1 SWAP2 SUB SWAP1 RETURN JUMPDEST PUSH2 0x4CC PUSH2 0xAF8 JUMP JUMPDEST PUSH1 0x40 MLOAD DUP1 DUP3 PUSH20 0xFFFFFFFFFFFFFFFFFFFFFFFFFFFFFFFFFFFFFFFF AND PUSH20 0xFFFFFFFFFFFFFFFFFFFFFFFFFFFFFFFFFFFFFFFF AND DUP2 MSTORE PUSH1 0x20 ADD SWAP2 POP POP PUSH1 0x40 MLOAD DUP1 SWAP2 SUB SWAP1 RETURN JUMPDEST PUSH2 0x516 PUSH2 0xB1E JUMP JUMPDEST PUSH1 0x40 MLOAD DUP1 DUP3 DUP2 MSTORE PUSH1 0x20 ADD SWAP2 POP POP PUSH1 0x40 MLOAD DUP1 SWAP2 SUB SWAP1 RETURN JUMPDEST PUSH2 0x534 PUSH2 0xB24 JUMP JUMPDEST PUSH1 0x40 MLOAD DUP1 DUP3 DUP2 MSTORE PUSH1 0x20 ADD SWAP2 POP POP PUSH1 0x40 MLOAD DUP1 SWAP2 SUB SWAP1 RETURN JUMPDEST PUSH2 0x552 PUSH2 0xB2A JUMP JUMPDEST PUSH1 0x40 MLOAD DUP1 DUP3 DUP2 MSTORE PUSH1 0x20 ADD SWAP2 POP POP PUSH1 0x40 MLOAD DUP1 SWAP2 SUB SWAP1 RETURN JUMPDEST PUSH2 0x570 PUSH2 0xB30 JUMP JUMPDEST PUSH1 0x40 MLOAD DUP1 DUP3 PUSH20 0xFFFFFFFFFFFFFFFFFFFFFFFFFFFFFFFFFFFFFFFF AND PUSH20 0xFFFFFFFFFFFFFFFFFFFFFFFFFFFFFFFFFFFFFFFF AND DUP2 MSTORE PUSH1 0x20 ADD SWAP2 POP POP PUSH1 0x40 MLOAD DUP1 SWAP2 SUB SWAP1 RETURN JUMPDEST PUSH2 0x5BA PUSH2 0xB56 JUMP JUMPDEST PUSH1 0x40 MLOAD DUP1 DUP3 PUSH20 0xFFFFFFFFFFFFFFFFFFFFFFFFFFFFFFFFFFFFFFFF AND PUSH20 0xFFFFFFFFFFFFFFFFFFFFFFFFFFFFFFFFFFFFFFFF AND DUP2 MSTORE PUSH1 0x20 ADD SWAP2 POP POP PUSH1 0x40 MLOAD DUP1 SWAP2 SUB SWAP1 RETURN JUMPDEST PUSH2 0x604 PUSH2 0xB7C JUMP JUMPDEST PUSH1 0x40 MLOAD DUP1 DUP3 ISZERO ISZERO ISZERO ISZERO DUP2 MSTORE PUSH1 0x20 ADD SWAP2 POP POP PUSH1 0x40 MLOAD DUP1 SWAP2 SUB SWAP1 RETURN JUMPDEST PUSH2 0x626 PUSH2 0x20DC JUMP JUMPDEST PUSH1 0x40 MLOAD DUP1 DUP3 DUP2 MSTORE PUSH1 0x20 ADD SWAP2 POP POP PUSH1 0x40 MLOAD DUP1 SWAP2 SUB SWAP1 RETURN JUMPDEST PUSH2 0x644 PUSH2 0x20E2 JUMP JUMPDEST PUSH1 0x40 MLOAD DUP1 DUP3 DUP2 MSTORE PUSH1 0x20 ADD SWAP2 POP POP PUSH1 0x40 MLOAD DUP1 SWAP2 SUB SWAP1 RETURN JUMPDEST PUSH2 0x662 PUSH2 0x20E8 JUMP JUMPDEST PUSH1 0x40 MLOAD DUP1 DUP3 DUP2 MSTORE PUSH1 0x20 ADD SWAP2 POP POP PUSH1 0x40 MLOAD DUP1 SWAP2 SUB SWAP1 RETURN JUMPDEST PUSH2 0x680 PUSH2 0x20EE JUMP JUMPDEST PUSH1 0x40 MLOAD DUP1 DUP3 DUP2 MSTORE PUSH1 0x20 ADD SWAP2 POP POP PUSH1 0x40 MLOAD DUP1 SWAP2 SUB SWAP1 RETURN JUMPDEST PUSH2 0x6C4 PUSH1 0x4 DUP1 CALLDATASIZE SUB PUSH2 0x120 DUP2 LT ISZERO PUSH2 0x6AD JUMPI PUSH1 0x0 DUP1 REVERT JUMPDEST DUP2 ADD SWAP1 DUP1 DUP1 PUSH2 0x120 ADD SWAP1 SWAP2 SWAP3 SWAP2 SWAP3 SWAP1 POP POP POP PUSH2 0x20F4 JUMP JUMPDEST PUSH1 0x40 MLOAD DUP1 DUP3 ISZERO ISZERO ISZERO ISZERO DUP2 MSTORE PUSH1 0x20 ADD SWAP2 POP POP PUSH1 0x40 MLOAD DUP1 SWAP2 SUB SWAP1 RETURN JUMPDEST PUSH2 0x6E6 PUSH2 0x32B6 JUMP JUMPDEST PUSH1 0x40 MLOAD DUP1 DUP3 DUP2 MSTORE PUSH1 0x20 ADD SWAP2 POP POP PUSH1 0x40 MLOAD DUP1 SWAP2 SUB SWAP1 RETURN JUMPDEST PUSH2 0x704 PUSH2 0x32BC JUMP JUMPDEST PUSH1 0x40 MLOAD DUP1 DUP3 DUP2 MSTORE PUSH1 0x20 ADD SWAP2 POP POP PUSH1 0x40 MLOAD DUP1 SWAP2 SUB SWAP1 RETURN JUMPDEST PUSH2 0x722 PUSH2 0x32C2 JUMP JUMPDEST PUSH1 0x40 MLOAD DUP1 DUP3 DUP2 MSTORE PUSH1 0x20 ADD SWAP2 POP POP PUSH1 0x40 MLOAD DUP1 SWAP2 SUB SWAP1 RETURN JUMPDEST PUSH1 0xC PUSH1 0x0 SWAP1 SLOAD SWAP1 PUSH2 0x100 EXP SWAP1 DIV PUSH20 0xFFFFFFFFFFFFFFFFFFFFFFFFFFFFFFFFFFFFFFFF AND DUP2 JUMP JUMPDEST PUSH1 0x3 SLOAD DUP2 JUMP JUMPDEST PUSH1 0x8 PUSH1 0x0 SWAP1 SLOAD SWAP1 PUSH2 0x100 EXP SWAP1 DIV PUSH20 0xFFFFFFFFFFFFFFFFFFFFFFFFFFFFFFFFFFFFFFFF AND DUP2 JUMP JUMPDEST PUSH1 0x14 SLOAD DUP2 JUMP JUMPDEST PUSH1 0x10 PUSH1 0x0 SWAP1 SLOAD SWAP1 PUSH2 0x100 EXP SWAP1 DIV PUSH20 0xFFFFFFFFFFFFFFFFFFFFFFFFFFFFFFFFFFFFFFFF AND DUP2 JUMP JUMPDEST PUSH1 0x0 PUSH1 0x10 PUSH1 0x0 SWAP1 SLOAD SWAP1 PUSH2 0x100 EXP SWAP1 DIV PUSH20 0xFFFFFFFFFFFFFFFFFFFFFFFFFFFFFFFFFFFFFFFF AND PUSH20 0xFFFFFFFFFFFFFFFFFFFFFFFFFFFFFFFFFFFFFFFF AND CALLER PUSH20 0xFFFFFFFFFFFFFFFFFFFFFFFFFFFFFFFFFFFFFFFF AND EQ DUP1 PUSH2 0x861 JUMPI POP PUSH1 0xF PUSH1 0x0 SWAP1 SLOAD SWAP1 PUSH2 0x100 EXP SWAP1 DIV PUSH20 0xFFFFFFFFFFFFFFFFFFFFFFFFFFFFFFFFFFFFFFFF AND PUSH20 0xFFFFFFFFFFFFFFFFFFFFFFFFFFFFFFFFFFFFFFFF AND CALLER PUSH20 0xFFFFFFFFFFFFFFFFFFFFFFFFFFFFFFFFFFFFFFFF AND EQ JUMPDEST ISZERO ISZERO PUSH2 0x8B8 JUMPI PUSH1 0x40 MLOAD PUSH32 0x8C379A000000000000000000000000000000000000000000000000000000000 DUP2 MSTORE PUSH1 0x4 ADD DUP1 DUP1 PUSH1 0x20 ADD DUP3 DUP2 SUB DUP3 MSTORE PUSH1 0x2B DUP2 MSTORE PUSH1 0x20 ADD DUP1 PUSH2 0x3603 PUSH1 0x2B SWAP2 CODECOPY PUSH1 0x40 ADD SWAP2 POP POP PUSH1 0x40 MLOAD DUP1 SWAP2 SUB SWAP1 REVERT JUMPDEST PUSH2 0x8CD DUP3 PUSH1 0x4 SLOAD PUSH2 0x32C8 SWAP1 SWAP2 SWAP1 PUSH4 0xFFFFFFFF AND JUMP JUMPDEST PUSH1 0x4 DUP2 SWAP1 SSTORE POP PUSH32 0xC9C58CA254A2BDE8CE607D1F5211F98C28C52EFCEA5216A867EA933B95EFC31F PUSH1 0x4 SLOAD PUSH1 0x40 MLOAD DUP1 DUP3 DUP2 MSTORE PUSH1 0x20 ADD SWAP2 POP POP PUSH1 0x40 MLOAD DUP1 SWAP2 SUB SWAP1 LOG1 PUSH1 0x1 SWAP1 POP SWAP2 SWAP1 POP JUMP JUMPDEST PUSH1 0x9 PUSH1 0x0 SWAP1 SLOAD SWAP1 PUSH2 0x100 EXP SWAP1 DIV PUSH20 0xFFFFFFFFFFFFFFFFFFFFFFFFFFFFFFFFFFFFFFFF AND DUP2 JUMP JUMPDEST PUSH1 0x0 PUSH1 0x10 PUSH1 0x0 SWAP1 SLOAD SWAP1 PUSH2 0x100 EXP SWAP1 DIV PUSH20 0xFFFFFFFFFFFFFFFFFFFFFFFFFFFFFFFFFFFFFFFF AND PUSH20 0xFFFFFFFFFFFFFFFFFFFFFFFFFFFFFFFFFFFFFFFF AND CALLER PUSH20 0xFFFFFFFFFFFFFFFFFFFFFFFFFFFFFFFFFFFFFFFF AND EQ DUP1 PUSH2 0x9E6 JUMPI POP PUSH1 0xF PUSH1 0x0 SWAP1 SLOAD SWAP1 PUSH2 0x100 EXP SWAP1 DIV PUSH20 0xFFFFFFFFFFFFFFFFFFFFFFFFFFFFFFFFFFFFFFFF AND PUSH20 0xFFFFFFFFFFFFFFFFFFFFFFFFFFFFFFFFFFFFFFFF AND CALLER PUSH20 0xFFFFFFFFFFFFFFFFFFFFFFFFFFFFFFFFFFFFFFFF AND EQ JUMPDEST ISZERO ISZERO PUSH2 0xA3D JUMPI PUSH1 0x40 MLOAD PUSH32 0x8C379A000000000000000000000000000000000000000000000000000000000 DUP2 MSTORE PUSH1 0x4 ADD DUP1 DUP1 PUSH1 0x20 ADD DUP3 DUP2 SUB DUP3 MSTORE PUSH1 0x2B DUP2 MSTORE PUSH1 0x20 ADD DUP1 PUSH2 0x3603 PUSH1 0x2B SWAP2 CODECOPY PUSH1 0x40 ADD SWAP2 POP POP PUSH1 0x40 MLOAD DUP1 SWAP2 SUB SWAP1 REVERT JUMPDEST PUSH2 0xA52 DUP3 PUSH1 0x5 SLOAD PUSH2 0x32C8 SWAP1 SWAP2 SWAP1 PUSH4 0xFFFFFFFF AND JUMP JUMPDEST PUSH1 0x5 DUP2 SWAP1 SSTORE POP PUSH32 0x8F740EB8352E99B7242CE9C7CEC021EE8B28B4ACEF603FF1260FE8B722822FEC PUSH1 0x5 SLOAD PUSH1 0x40 MLOAD DUP1 DUP3 DUP2 MSTORE PUSH1 0x20 ADD SWAP2 POP POP PUSH1 0x40 MLOAD DUP1 SWAP2 SUB SWAP1 LOG1 PUSH1 0x1 SWAP1 POP SWAP2 SWAP1 POP JUMP JUMPDEST PUSH1 0x5 SLOAD DUP2 JUMP JUMPDEST PUSH1 0xA PUSH1 0x0 SWAP1 SLOAD SWAP1 PUSH2 0x100 EXP SWAP1 DIV PUSH20 0xFFFFFFFFFFFFFFFFFFFFFFFFFFFFFFFFFFFFFFFF AND DUP2 JUMP JUMPDEST PUSH1 0xD PUSH1 0x0 SWAP1 SLOAD SWAP1 PUSH2 0x100 EXP SWAP1 DIV PUSH20 0xFFFFFFFFFFFFFFFFFFFFFFFFFFFFFFFFFFFFFFFF AND DUP2 JUMP JUMPDEST PUSH1 0x15 SLOAD DUP2 JUMP JUMPDEST PUSH1 0x1 SLOAD DUP2 JUMP JUMPDEST PUSH1 0xB PUSH1 0x0 SWAP1 SLOAD SWAP1 PUSH2 0x100 EXP SWAP1 DIV PUSH20 0xFFFFFFFFFFFFFFFFFFFFFFFFFFFFFFFFFFFFFFFF AND DUP2 JUMP JUMPDEST PUSH1 0x0 SLOAD DUP2 JUMP JUMPDEST PUSH1 0x2 SLOAD DUP2 JUMP JUMPDEST PUSH1 0x16 SLOAD DUP2 JUMP JUMPDEST PUSH1 0xF PUSH1 0x0 SWAP1 SLOAD SWAP1 PUSH2 0x100 EXP SWAP1 DIV PUSH20 0xFFFFFFFFFFFFFFFFFFFFFFFFFFFFFFFFFFFFFFFF AND DUP2 JUMP JUMPDEST PUSH1 0xE PUSH1 0x0 SWAP1 SLOAD SWAP1 PUSH2 0x100 EXP SWAP1 DIV PUSH20 0xFFFFFFFFFFFFFFFFFFFFFFFFFFFFFFFFFFFFFFFF AND DUP2 JUMP JUMPDEST PUSH1 0x0 PUSH3 0x278D00 PUSH2 0xC55 PUSH1 0x0 SLOAD PUSH1 0x6 PUSH1 0x0 SWAP1 SLOAD SWAP1 PUSH2 0x100 EXP SWAP1 DIV PUSH20 0xFFFFFFFFFFFFFFFFFFFFFFFFFFFFFFFFFFFFFFFF AND PUSH20 0xFFFFFFFFFFFFFFFFFFFFFFFFFFFFFFFFFFFFFFFF AND PUSH4 0xB81F90F3 PUSH1 0x40 MLOAD DUP2 PUSH4 0xFFFFFFFF AND PUSH29 0x100000000000000000000000000000000000000000000000000000000 MUL DUP2 MSTORE PUSH1 0x4 ADD PUSH1 0x20 PUSH1 0x40 MLOAD DUP1 DUP4 SUB DUP2 DUP7 DUP1 EXTCODESIZE ISZERO DUP1 ISZERO PUSH2 0xC0C JUMPI PUSH1 0x0 DUP1 REVERT JUMPDEST POP GAS STATICCALL ISZERO DUP1 ISZERO PUSH2 0xC20 JUMPI RETURNDATASIZE PUSH1 0x0 DUP1 RETURNDATACOPY RETURNDATASIZE PUSH1 0x0 REVERT JUMPDEST POP POP POP POP PUSH1 0x40 MLOAD RETURNDATASIZE PUSH1 0x20 DUP2 LT ISZERO PUSH2 0xC36 JUMPI PUSH1 0x0 DUP1 REVERT JUMPDEST DUP2 ADD SWAP1 DUP1 DUP1 MLOAD SWAP1 PUSH1 0x20 ADD SWAP1 SWAP3 SWAP2 SWAP1 POP POP POP PUSH2 0x32E9 SWAP1 SWAP2 SWAP1 PUSH4 0xFFFFFFFF AND JUMP JUMPDEST GT ISZERO ISZERO PUSH2 0xCAD JUMPI PUSH1 0x40 MLOAD PUSH32 0x8C379A000000000000000000000000000000000000000000000000000000000 DUP2 MSTORE PUSH1 0x4 ADD DUP1 DUP1 PUSH1 0x20 ADD DUP3 DUP2 SUB DUP3 MSTORE PUSH1 0x24 DUP2 MSTORE PUSH1 0x20 ADD DUP1 PUSH2 0x362E PUSH1 0x24 SWAP2 CODECOPY PUSH1 0x40 ADD SWAP2 POP POP PUSH1 0x40 MLOAD DUP1 SWAP2 SUB SWAP1 REVERT JUMPDEST PUSH1 0x0 PUSH2 0xCC6 PUSH1 0x4 SLOAD PUSH1 0x1 SLOAD PUSH2 0x32C8 SWAP1 SWAP2 SWAP1 PUSH4 0xFFFFFFFF AND JUMP JUMPDEST SWAP1 POP PUSH2 0xCEF PUSH1 0x64 PUSH2 0xCE1 PUSH1 0x5 DUP5 PUSH2 0x330B SWAP1 SWAP2 SWAP1 PUSH4 0xFFFFFFFF AND JUMP JUMPDEST PUSH2 0x3349 SWAP1 SWAP2 SWAP1 PUSH4 0xFFFFFFFF AND JUMP JUMPDEST PUSH1 0x11 DUP2 SWAP1 SSTORE POP PUSH2 0xD1C PUSH1 0x64 PUSH2 0xD0E PUSH1 0xA DUP5 PUSH2 0x330B SWAP1 SWAP2 SWAP1 PUSH4 0xFFFFFFFF AND JUMP JUMPDEST PUSH2 0x3349 SWAP1 SWAP2 SWAP1 PUSH4 0xFFFFFFFF AND JUMP JUMPDEST PUSH1 0x12 DUP2 SWAP1 SSTORE POP PUSH2 0xD49 PUSH1 0x64 PUSH2 0xD3B PUSH1 0xA DUP5 PUSH2 0x330B SWAP1 SWAP2 SWAP1 PUSH4 0xFFFFFFFF AND JUMP JUMPDEST PUSH2 0x3349 SWAP1 SWAP2 SWAP1 PUSH4 0xFFFFFFFF AND JUMP JUMPDEST PUSH1 0x13 DUP2 SWAP1 SSTORE POP PUSH2 0xD76 PUSH1 0x64 PUSH2 0xD68 PUSH1 0xA DUP5 PUSH2 0x330B SWAP1 SWAP2 SWAP1 PUSH4 0xFFFFFFFF AND JUMP JUMPDEST PUSH2 0x3349 SWAP1 SWAP2 SWAP1 PUSH4 0xFFFFFFFF AND JUMP JUMPDEST PUSH1 0x14 DUP2 SWAP1 SSTORE POP PUSH2 0xDA3 PUSH1 0x64 PUSH2 0xD95 PUSH1 0xA DUP5 PUSH2 0x330B SWAP1 SWAP2 SWAP1 PUSH4 0xFFFFFFFF AND JUMP JUMPDEST PUSH2 0x3349 SWAP1 SWAP2 SWAP1 PUSH4 0xFFFFFFFF AND JUMP JUMPDEST PUSH1 0x15 DUP2 SWAP1 SSTORE POP PUSH2 0xDD0 PUSH1 0x64 PUSH2 0xDC2 PUSH1 0x5 DUP5 PUSH2 0x330B SWAP1 SWAP2 SWAP1 PUSH4 0xFFFFFFFF AND JUMP JUMPDEST PUSH2 0x3349 SWAP1 SWAP2 SWAP1 PUSH4 0xFFFFFFFF AND JUMP JUMPDEST PUSH1 0x16 DUP2 SWAP1 SSTORE POP PUSH2 0xDFE PUSH2 0x3E8 PUSH2 0xDF0 PUSH1 0x19 DUP5 PUSH2 0x330B SWAP1 SWAP2 SWAP1 PUSH4 0xFFFFFFFF AND JUMP JUMPDEST PUSH2 0x3349 SWAP1 SWAP2 SWAP1 PUSH4 0xFFFFFFFF AND JUMP JUMPDEST PUSH1 0x17 DUP2 SWAP1 SSTORE POP PUSH2 0xE2B PUSH1 0x64 PUSH2 0xE1D PUSH1 0xF DUP5 PUSH2 0x330B SWAP1 SWAP2 SWAP1 PUSH4 0xFFFFFFFF AND JUMP JUMPDEST PUSH2 0x3349 SWAP1 SWAP2 SWAP1 PUSH4 0xFFFFFFFF AND JUMP JUMPDEST PUSH1 0x18 DUP2 SWAP1 SSTORE POP PUSH2 0xE5A PUSH2 0x3E8 PUSH2 0xE4C PUSH2 0x145 DUP5 PUSH2 0x330B SWAP1 SWAP2 SWAP1 PUSH4 0xFFFFFFFF AND JUMP JUMPDEST PUSH2 0x3349 SWAP1 SWAP2 SWAP1 PUSH4 0xFFFFFFFF AND JUMP JUMPDEST PUSH1 0x19 DUP2 SWAP1 SSTORE POP PUSH1 0x6 PUSH1 0x0 SWAP1 SLOAD SWAP1 PUSH2 0x100 EXP SWAP1 DIV PUSH20 0xFFFFFFFFFFFFFFFFFFFFFFFFFFFFFFFFFFFFFFFF AND PUSH20 0xFFFFFFFFFFFFFFFFFFFFFFFFFFFFFFFFFFFFFFFF AND PUSH4 0x40C10F19 PUSH1 0x8 PUSH1 0x0 SWAP1 SLOAD SWAP1 PUSH2 0x100 EXP SWAP1 DIV PUSH20 0xFFFFFFFFFFFFFFFFFFFFFFFFFFFFFFFFFFFFFFFF AND PUSH1 0x11 SLOAD PUSH1 0x40 MLOAD DUP4 PUSH4 0xFFFFFFFF AND PUSH29 0x100000000000000000000000000000000000000000000000000000000 MUL DUP2 MSTORE PUSH1 0x4 ADD DUP1 DUP4 PUSH20 0xFFFFFFFFFFFFFFFFFFFFFFFFFFFFFFFFFFFFFFFF AND PUSH20 0xFFFFFFFFFFFFFFFFFFFFFFFFFFFFFFFFFFFFFFFF AND DUP2 MSTORE PUSH1 0x20 ADD DUP3 DUP2 MSTORE PUSH1 0x20 ADD SWAP3 POP POP POP PUSH1 0x20 PUSH1 0x40 MLOAD DUP1 DUP4 SUB DUP2 PUSH1 0x0 DUP8 DUP1 EXTCODESIZE ISZERO DUP1 ISZERO PUSH2 0xF49 JUMPI PUSH1 0x0 DUP1 REVERT JUMPDEST POP GAS CALL ISZERO DUP1 ISZERO PUSH2 0xF5D JUMPI RETURNDATASIZE PUSH1 0x0 DUP1 RETURNDATACOPY RETURNDATASIZE PUSH1 0x0 REVERT JUMPDEST POP POP POP POP PUSH1 0x40 MLOAD RETURNDATASIZE PUSH1 0x20 DUP2 LT ISZERO PUSH2 0xF73 JUMPI PUSH1 0x0 DUP1 REVERT JUMPDEST DUP2 ADD SWAP1 DUP1 DUP1 MLOAD SWAP1 PUSH1 0x20 ADD SWAP1 SWAP3 SWAP2 SWAP1 POP POP POP POP PUSH32 0x8470EC6072093ABFEC912969EE9FD5273EED1D3202EAC51A1FD83C236EE9BEA8 PUSH1 0x8 PUSH1 0x0 SWAP1 SLOAD SWAP1 PUSH2 0x100 EXP SWAP1 DIV PUSH20 0xFFFFFFFFFFFFFFFFFFFFFFFFFFFFFFFFFFFFFFFF AND PUSH1 0x11 SLOAD PUSH1 0x40 MLOAD DUP1 DUP1 PUSH1 0x20 ADD DUP5 PUSH20 0xFFFFFFFFFFFFFFFFFFFFFFFFFFFFFFFFFFFFFFFF AND PUSH20 0xFFFFFFFFFFFFFFFFFFFFFFFFFFFFFFFFFFFFFFFF AND DUP2 MSTORE PUSH1 0x20 ADD DUP4 DUP2 MSTORE PUSH1 0x20 ADD DUP3 DUP2 SUB DUP3 MSTORE PUSH1 0x19 DUP2 MSTORE PUSH1 0x20 ADD DUP1 PUSH32 0x6E657754616C656E7473416E64506172746E6572736869707300000000000000 DUP2 MSTORE POP PUSH1 0x20 ADD SWAP4 POP POP POP POP PUSH1 0x40 MLOAD DUP1 SWAP2 SUB SWAP1 LOG1 PUSH1 0x6 PUSH1 0x0 SWAP1 SLOAD SWAP1 PUSH2 0x100 EXP SWAP1 DIV PUSH20 0xFFFFFFFFFFFFFFFFFFFFFFFFFFFFFFFFFFFFFFFF AND PUSH20 0xFFFFFFFFFFFFFFFFFFFFFFFFFFFFFFFFFFFFFFFF AND PUSH4 0x40C10F19 PUSH1 0x9 PUSH1 0x0 SWAP1 SLOAD SWAP1 PUSH2 0x100 EXP SWAP1 DIV PUSH20 0xFFFFFFFFFFFFFFFFFFFFFFFFFFFFFFFFFFFFFFFF AND PUSH1 0x12 SLOAD PUSH1 0x40 MLOAD DUP4 PUSH4 0xFFFFFFFF AND PUSH29 0x100000000000000000000000000000000000000000000000000000000 MUL DUP2 MSTORE PUSH1 0x4 ADD DUP1 DUP4 PUSH20 0xFFFFFFFFFFFFFFFFFFFFFFFFFFFFFFFFFFFFFFFF AND PUSH20 0xFFFFFFFFFFFFFFFFFFFFFFFFFFFFFFFFFFFFFFFF AND DUP2 MSTORE PUSH1 0x20 ADD DUP3 DUP2 MSTORE PUSH1 0x20 ADD SWAP3 POP POP POP PUSH1 0x20 PUSH1 0x40 MLOAD DUP1 DUP4 SUB DUP2 PUSH1 0x0 DUP8 DUP1 EXTCODESIZE ISZERO DUP1 ISZERO PUSH2 0x1136 JUMPI PUSH1 0x0 DUP1 REVERT JUMPDEST POP GAS CALL ISZERO DUP1 ISZERO PUSH2 0x114A JUMPI RETURNDATASIZE PUSH1 0x0 DUP1 RETURNDATACOPY RETURNDATASIZE PUSH1 0x0 REVERT JUMPDEST POP POP POP POP PUSH1 0x40 MLOAD RETURNDATASIZE PUSH1 0x20 DUP2 LT ISZERO PUSH2 0x1160 JUMPI PUSH1 0x0 DUP1 REVERT JUMPDEST DUP2 ADD SWAP1 DUP1 DUP1 MLOAD SWAP1 PUSH1 0x20 ADD SWAP1 SWAP3 SWAP2 SWAP1 POP POP POP POP PUSH32 0x8470EC6072093ABFEC912969EE9FD5273EED1D3202EAC51A1FD83C236EE9BEA8 PUSH1 0x9 PUSH1 0x0 SWAP1 SLOAD SWAP1 PUSH2 0x100 EXP SWAP1 DIV PUSH20 0xFFFFFFFFFFFFFFFFFFFFFFFFFFFFFFFFFFFFFFFF AND PUSH1 0x12 SLOAD PUSH1 0x40 MLOAD DUP1 DUP1 PUSH1 0x20 ADD DUP5 PUSH20 0xFFFFFFFFFFFFFFFFFFFFFFFFFFFFFFFFFFFFFFFF AND PUSH20 0xFFFFFFFFFFFFFFFFFFFFFFFFFFFFFFFFFFFFFFFF AND DUP2 MSTORE PUSH1 0x20 ADD DUP4 DUP2 MSTORE PUSH1 0x20 ADD DUP3 DUP2 SUB DUP3 MSTORE PUSH1 0x13 DUP2 MSTORE PUSH1 0x20 ADD DUP1 PUSH32 0x706C6174666F726D4D61696E74656E616E636500000000000000000000000000 DUP2 MSTORE POP PUSH1 0x20 ADD SWAP4 POP POP POP POP PUSH1 0x40 MLOAD DUP1 SWAP2 SUB SWAP1 LOG1 PUSH1 0x6 PUSH1 0x0 SWAP1 SLOAD SWAP1 PUSH2 0x100 EXP SWAP1 DIV PUSH20 0xFFFFFFFFFFFFFFFFFFFFFFFFFFFFFFFFFFFFFFFF AND PUSH20 0xFFFFFFFFFFFFFFFFFFFFFFFFFFFFFFFFFFFFFFFF AND PUSH4 0x40C10F19 PUSH1 0xA PUSH1 0x0 SWAP1 SLOAD SWAP1 PUSH2 0x100 EXP SWAP1 DIV PUSH20 0xFFFFFFFFFFFFFFFFFFFFFFFFFFFFFFFFFFFFFFFF AND PUSH1 0x13 SLOAD PUSH1 0x40 MLOAD DUP4 PUSH4 0xFFFFFFFF AND PUSH29 0x100000000000000000000000000000000000000000000000000000000 MUL DUP2 MSTORE PUSH1 0x4 ADD DUP1 DUP4 PUSH20 0xFFFFFFFFFFFFFFFFFFFFFFFFFFFFFFFFFFFFFFFF AND PUSH20 0xFFFFFFFFFFFFFFFFFFFFFFFFFFFFFFFFFFFFFFFF AND DUP2 MSTORE PUSH1 0x20 ADD DUP3 DUP2 MSTORE PUSH1 0x20 ADD SWAP3 POP POP POP PUSH1 0x20 PUSH1 0x40 MLOAD DUP1 DUP4 SUB DUP2 PUSH1 0x0 DUP8 DUP1 EXTCODESIZE ISZERO DUP1 ISZERO PUSH2 0x1323 JUMPI PUSH1 0x0 DUP1 REVERT JUMPDEST POP GAS CALL ISZERO DUP1 ISZERO PUSH2 0x1337 JUMPI RETURNDATASIZE PUSH1 0x0 DUP1 RETURNDATACOPY RETURNDATASIZE PUSH1 0x0 REVERT JUMPDEST POP POP POP POP PUSH1 0x40 MLOAD RETURNDATASIZE PUSH1 0x20 DUP2 LT ISZERO PUSH2 0x134D JUMPI PUSH1 0x0 DUP1 REVERT JUMPDEST DUP2 ADD SWAP1 DUP1 DUP1 MLOAD SWAP1 PUSH1 0x20 ADD SWAP1 SWAP3 SWAP2 SWAP1 POP POP POP POP PUSH32 0x8470EC6072093ABFEC912969EE9FD5273EED1D3202EAC51A1FD83C236EE9BEA8 PUSH1 0xA PUSH1 0x0 SWAP1 SLOAD SWAP1 PUSH2 0x100 EXP SWAP1 DIV PUSH20 0xFFFFFFFFFFFFFFFFFFFFFFFFFFFFFFFFFFFFFFFF AND PUSH1 0x13 SLOAD PUSH1 0x40 MLOAD DUP1 DUP1 PUSH1 0x20 ADD DUP5 PUSH20 0xFFFFFFFFFFFFFFFFFFFFFFFFFFFFFFFFFFFFFFFF AND PUSH20 0xFFFFFFFFFFFFFFFFFFFFFFFFFFFFFFFFFFFFFFFF AND DUP2 MSTORE PUSH1 0x20 ADD DUP4 DUP2 MSTORE PUSH1 0x20 ADD DUP3 DUP2 SUB DUP3 MSTORE PUSH1 0xF DUP2 MSTORE PUSH1 0x20 ADD DUP1 PUSH32 0x6D61726B6574696E67416E64524E520000000000000000000000000000000000 DUP2 MSTORE POP PUSH1 0x20 ADD SWAP4 POP POP POP POP PUSH1 0x40 MLOAD DUP1 SWAP2 SUB SWAP1 LOG1 PUSH1 0x6 PUSH1 0x0 SWAP1 SLOAD SWAP1 PUSH2 0x100 EXP SWAP1 DIV PUSH20 0xFFFFFFFFFFFFFFFFFFFFFFFFFFFFFFFFFFFFFFFF AND PUSH20 0xFFFFFFFFFFFFFFFFFFFFFFFFFFFFFFFFFFFFFFFF AND PUSH4 0x40C10F19 PUSH1 0xB PUSH1 0x0 SWAP1 SLOAD SWAP1 PUSH2 0x100 EXP SWAP1 DIV PUSH20 0xFFFFFFFFFFFFFFFFFFFFFFFFFFFFFFFFFFFFFFFF AND PUSH1 0x14 SLOAD PUSH1 0x40 MLOAD DUP4 PUSH4 0xFFFFFFFF AND PUSH29 0x100000000000000000000000000000000000000000000000000000000 MUL DUP2 MSTORE PUSH1 0x4 ADD DUP1 DUP4 PUSH20 0xFFFFFFFFFFFFFFFFFFFFFFFFFFFFFFFFFFFFFFFF AND PUSH20 0xFFFFFFFFFFFFFFFFFFFFFFFFFFFFFFFFFFFFFFFF AND DUP2 MSTORE PUSH1 0x20 ADD DUP3 DUP2 MSTORE PUSH1 0x20 ADD SWAP3 POP POP POP PUSH1 0x20 PUSH1 0x40 MLOAD DUP1 DUP4 SUB DUP2 PUSH1 0x0 DUP8 DUP1 EXTCODESIZE ISZERO DUP1 ISZERO PUSH2 0x1510 JUMPI PUSH1 0x0 DUP1 REVERT JUMPDEST POP GAS CALL ISZERO DUP1 ISZERO PUSH2 0x1524 JUMPI RETURNDATASIZE PUSH1 0x0 DUP1 RETURNDATACOPY RETURNDATASIZE PUSH1 0x0 REVERT JUMPDEST POP POP POP POP PUSH1 0x40 MLOAD RETURNDATASIZE PUSH1 0x20 DUP2 LT ISZERO PUSH2 0x153A JUMPI PUSH1 0x0 DUP1 REVERT JUMPDEST DUP2 ADD SWAP1 DUP1 DUP1 MLOAD SWAP1 PUSH1 0x20 ADD SWAP1 SWAP3 SWAP2 SWAP1 POP POP POP POP PUSH32 0x8470EC6072093ABFEC912969EE9FD5273EED1D3202EAC51A1FD83C236EE9BEA8 PUSH1 0xB PUSH1 0x0 SWAP1 SLOAD SWAP1 PUSH2 0x100 EXP SWAP1 DIV PUSH20 0xFFFFFFFFFFFFFFFFFFFFFFFFFFFFFFFFFFFFFFFF AND PUSH1 0x14 SLOAD PUSH1 0x40 MLOAD DUP1 DUP1 PUSH1 0x20 ADD DUP5 PUSH20 0xFFFFFFFFFFFFFFFFFFFFFFFFFFFFFFFFFFFFFFFF AND PUSH20 0xFFFFFFFFFFFFFFFFFFFFFFFFFFFFFFFFFFFFFFFF AND DUP2 MSTORE PUSH1 0x20 ADD DUP4 DUP2 MSTORE PUSH1 0x20 ADD DUP3 DUP2 SUB DUP3 MSTORE PUSH1 0x7 DUP2 MSTORE PUSH1 0x20 ADD DUP1 PUSH32 0x6B6D506172647300000000000000000000000000000000000000000000000000 DUP2 MSTORE POP PUSH1 0x20 ADD SWAP4 POP POP POP POP PUSH1 0x40 MLOAD DUP1 SWAP2 SUB SWAP1 LOG1 PUSH1 0x6 PUSH1 0x0 SWAP1 SLOAD SWAP1 PUSH2 0x100 EXP SWAP1 DIV PUSH20 0xFFFFFFFFFFFFFFFFFFFFFFFFFFFFFFFFFFFFFFFF AND PUSH20 0xFFFFFFFFFFFFFFFFFFFFFFFFFFFFFFFFFFFFFFFF AND PUSH4 0x40C10F19 PUSH1 0xC PUSH1 0x0 SWAP1 SLOAD SWAP1 PUSH2 0x100 EXP SWAP1 DIV PUSH20 0xFFFFFFFFFFFFFFFFFFFFFFFFFFFFFFFFFFFFFFFF AND PUSH1 0x15 SLOAD PUSH1 0x40 MLOAD DUP4 PUSH4 0xFFFFFFFF AND PUSH29 0x100000000000000000000000000000000000000000000000000000000 MUL DUP2 MSTORE PUSH1 0x4 ADD DUP1 DUP4 PUSH20 0xFFFFFFFFFFFFFFFFFFFFFFFFFFFFFFFFFFFFFFFF AND PUSH20 0xFFFFFFFFFFFFFFFFFFFFFFFFFFFFFFFFFFFFFFFF AND DUP2 MSTORE PUSH1 0x20 ADD DUP3 DUP2 MSTORE PUSH1 0x20 ADD SWAP3 POP POP POP PUSH1 0x20 PUSH1 0x40 MLOAD DUP1 DUP4 SUB DUP2 PUSH1 0x0 DUP8 DUP1 EXTCODESIZE ISZERO DUP1 ISZERO PUSH2 0x16FD JUMPI PUSH1 0x0 DUP1 REVERT JUMPDEST POP GAS CALL ISZERO DUP1 ISZERO PUSH2 0x1711 JUMPI RETURNDATASIZE PUSH1 0x0 DUP1 RETURNDATACOPY RETURNDATASIZE PUSH1 0x0 REVERT JUMPDEST POP POP POP POP PUSH1 0x40 MLOAD RETURNDATASIZE PUSH1 0x20 DUP2 LT ISZERO PUSH2 0x1727 JUMPI PUSH1 0x0 DUP1 REVERT JUMPDEST DUP2 ADD SWAP1 DUP1 DUP1 MLOAD SWAP1 PUSH1 0x20 ADD SWAP1 SWAP3 SWAP2 SWAP1 POP POP POP POP PUSH32 0x8470EC6072093ABFEC912969EE9FD5273EED1D3202EAC51A1FD83C236EE9BEA8 PUSH1 0xC PUSH1 0x0 SWAP1 SLOAD SWAP1 PUSH2 0x100 EXP SWAP1 DIV PUSH20 0xFFFFFFFFFFFFFFFFFFFFFFFFFFFFFFFFFFFFFFFF AND PUSH1 0x15 SLOAD PUSH1 0x40 MLOAD DUP1 DUP1 PUSH1 0x20 ADD DUP5 PUSH20 0xFFFFFFFFFFFFFFFFFFFFFFFFFFFFFFFFFFFFFFFF AND PUSH20 0xFFFFFFFFFFFFFFFFFFFFFFFFFFFFFFFFFFFFFFFF AND DUP2 MSTORE PUSH1 0x20 ADD DUP4 DUP2 MSTORE PUSH1 0x20 ADD DUP3 DUP2 SUB DUP3 MSTORE PUSH1 0x10 DUP2 MSTORE PUSH1 0x20 ADD DUP1 PUSH32 0x636F6E74696E67656E637946756E647300000000000000000000000000000000 DUP2 MSTORE POP PUSH1 0x20 ADD SWAP4 POP POP POP POP PUSH1 0x40 MLOAD DUP1 SWAP2 SUB SWAP1 LOG1 PUSH1 0x6 PUSH1 0x0 SWAP1 SLOAD SWAP1 PUSH2 0x100 EXP SWAP1 DIV PUSH20 0xFFFFFFFFFFFFFFFFFFFFFFFFFFFFFFFFFFFFFFFF AND PUSH20 0xFFFFFFFFFFFFFFFFFFFFFFFFFFFFFFFFFFFFFFFF AND PUSH4 0x40C10F19 PUSH1 0xD PUSH1 0x0 SWAP1 SLOAD SWAP1 PUSH2 0x100 EXP SWAP1 DIV PUSH20 0xFFFFFFFFFFFFFFFFFFFFFFFFFFFFFFFFFFFFFFFF AND PUSH1 0x16 SLOAD PUSH1 0x40 MLOAD DUP4 PUSH4 0xFFFFFFFF AND PUSH29 0x100000000000000000000000000000000000000000000000000000000 MUL DUP2 MSTORE PUSH1 0x4 ADD DUP1 DUP4 PUSH20 0xFFFFFFFFFFFFFFFFFFFFFFFFFFFFFFFFFFFFFFFF AND PUSH20 0xFFFFFFFFFFFFFFFFFFFFFFFFFFFFFFFFFFFFFFFF AND DUP2 MSTORE PUSH1 0x20 ADD DUP3 DUP2 MSTORE PUSH1 0x20 ADD SWAP3 POP POP POP PUSH1 0x20 PUSH1 0x40 MLOAD DUP1 DUP4 SUB DUP2 PUSH1 0x0 DUP8 DUP1 EXTCODESIZE ISZERO DUP1 ISZERO PUSH2 0x18EA JUMPI PUSH1 0x0 DUP1 REVERT JUMPDEST POP GAS CALL ISZERO DUP1 ISZERO PUSH2 0x18FE JUMPI RETURNDATASIZE PUSH1 0x0 DUP1 RETURNDATACOPY RETURNDATASIZE PUSH1 0x0 REVERT JUMPDEST POP POP POP POP PUSH1 0x40 MLOAD RETURNDATASIZE PUSH1 0x20 DUP2 LT ISZERO PUSH2 0x1914 JUMPI PUSH1 0x0 DUP1 REVERT JUMPDEST DUP2 ADD SWAP1 DUP1 DUP1 MLOAD SWAP1 PUSH1 0x20 ADD SWAP1 SWAP3 SWAP2 SWAP1 POP POP POP POP PUSH32 0x8470EC6072093ABFEC912969EE9FD5273EED1D3202EAC51A1FD83C236EE9BEA8 PUSH1 0xD PUSH1 0x0 SWAP1 SLOAD SWAP1 PUSH2 0x100 EXP SWAP1 DIV PUSH20 0xFFFFFFFFFFFFFFFFFFFFFFFFFFFFFFFFFFFFFFFF AND PUSH1 0x16 SLOAD PUSH1 0x40 MLOAD DUP1 DUP1 PUSH1 0x20 ADD DUP5 PUSH20 0xFFFFFFFFFFFFFFFFFFFFFFFFFFFFFFFFFFFFFFFF AND PUSH20 0xFFFFFFFFFFFFFFFFFFFFFFFFFFFFFFFFFFFFFFFF AND DUP2 MSTORE PUSH1 0x20 ADD DUP4 DUP2 MSTORE PUSH1 0x20 ADD DUP3 DUP2 SUB DUP3 MSTORE PUSH1 0x16 DUP2 MSTORE PUSH1 0x20 ADD DUP1 PUSH32 0x7265736561726368416E64446576656C6F706D656E7400000000000000000000 DUP2 MSTORE POP PUSH1 0x20 ADD SWAP4 POP POP POP POP PUSH1 0x40 MLOAD DUP1 SWAP2 SUB SWAP1 LOG1 PUSH1 0x6 PUSH1 0x0 SWAP1 SLOAD SWAP1 PUSH2 0x100 EXP SWAP1 DIV PUSH20 0xFFFFFFFFFFFFFFFFFFFFFFFFFFFFFFFFFFFFFFFF AND PUSH20 0xFFFFFFFFFFFFFFFFFFFFFFFFFFFFFFFFFFFFFFFF AND PUSH4 0x40C10F19 PUSH1 0xE PUSH1 0x0 SWAP1 SLOAD SWAP1 PUSH2 0x100 EXP SWAP1 DIV PUSH20 0xFFFFFFFFFFFFFFFFFFFFFFFFFFFFFFFFFFFFFFFF AND PUSH1 0x17 SLOAD PUSH1 0x40 MLOAD DUP4 PUSH4 0xFFFFFFFF AND PUSH29 0x100000000000000000000000000000000000000000000000000000000 MUL DUP2 MSTORE PUSH1 0x4 ADD DUP1 DUP4 PUSH20 0xFFFFFFFFFFFFFFFFFFFFFFFFFFFFFFFFFFFFFFFF AND PUSH20 0xFFFFFFFFFFFFFFFFFFFFFFFFFFFFFFFFFFFFFFFF AND DUP2 MSTORE PUSH1 0x20 ADD DUP3 DUP2 MSTORE PUSH1 0x20 ADD SWAP3 POP POP POP PUSH1 0x20 PUSH1 0x40 MLOAD DUP1 DUP4 SUB DUP2 PUSH1 0x0 DUP8 DUP1 EXTCODESIZE ISZERO DUP1 ISZERO PUSH2 0x1AD7 JUMPI PUSH1 0x0 DUP1 REVERT JUMPDEST POP GAS CALL ISZERO DUP1 ISZERO PUSH2 0x1AEB JUMPI RETURNDATASIZE PUSH1 0x0 DUP1 RETURNDATACOPY RETURNDATASIZE PUSH1 0x0 REVERT JUMPDEST POP POP POP POP PUSH1 0x40 MLOAD RETURNDATASIZE PUSH1 0x20 DUP2 LT ISZERO PUSH2 0x1B01 JUMPI PUSH1 0x0 DUP1 REVERT JUMPDEST DUP2 ADD SWAP1 DUP1 DUP1 MLOAD SWAP1 PUSH1 0x20 ADD SWAP1 SWAP3 SWAP2 SWAP1 POP POP POP POP PUSH32 0x8470EC6072093ABFEC912969EE9FD5273EED1D3202EAC51A1FD83C236EE9BEA8 PUSH1 0xE PUSH1 0x0 SWAP1 SLOAD SWAP1 PUSH2 0x100 EXP SWAP1 DIV PUSH20 0xFFFFFFFFFFFFFFFFFFFFFFFFFFFFFFFFFFFFFFFF AND PUSH1 0x17 SLOAD PUSH1 0x40 MLOAD DUP1 DUP1 PUSH1 0x20 ADD DUP5 PUSH20 0xFFFFFFFFFFFFFFFFFFFFFFFFFFFFFFFFFFFFFFFF AND PUSH20 0xFFFFFFFFFFFFFFFFFFFFFFFFFFFFFFFFFFFFFFFF AND DUP2 MSTORE PUSH1 0x20 ADD DUP4 DUP2 MSTORE PUSH1 0x20 ADD DUP3 DUP2 SUB DUP3 MSTORE PUSH1 0x8 DUP2 MSTORE PUSH1 0x20 ADD DUP1 PUSH32 0x62757A7A43616665000000000000000000000000000000000000000000000000 DUP2 MSTORE POP PUSH1 0x20 ADD SWAP4 POP POP POP POP PUSH1 0x40 MLOAD DUP1 SWAP2 SUB SWAP1 LOG1 PUSH1 0x6 PUSH1 0x0 SWAP1 SLOAD SWAP1 PUSH2 0x100 EXP SWAP1 DIV PUSH20 0xFFFFFFFFFFFFFFFFFFFFFFFFFFFFFFFFFFFFFFFF AND PUSH20 0xFFFFFFFFFFFFFFFFFFFFFFFFFFFFFFFFFFFFFFFF AND PUSH4 0x40C10F19 PUSH1 0x10 PUSH1 0x0 SWAP1 SLOAD SWAP1 PUSH2 0x100 EXP SWAP1 DIV PUSH20 0xFFFFFFFFFFFFFFFFFFFFFFFFFFFFFFFFFFFFFFFF AND PUSH1 0x18 SLOAD PUSH1 0x40 MLOAD DUP4 PUSH4 0xFFFFFFFF AND PUSH29 0x100000000000000000000000000000000000000000000000000000000 MUL DUP2 MSTORE PUSH1 0x4 ADD DUP1 DUP4 PUSH20 0xFFFFFFFFFFFFFFFFFFFFFFFFFFFFFFFFFFFFFFFF AND PUSH20 0xFFFFFFFFFFFFFFFFFFFFFFFFFFFFFFFFFFFFFFFF AND DUP2 MSTORE PUSH1 0x20 ADD DUP3 DUP2 MSTORE PUSH1 0x20 ADD SWAP3 POP POP POP PUSH1 0x20 PUSH1 0x40 MLOAD DUP1 DUP4 SUB DUP2 PUSH1 0x0 DUP8 DUP1 EXTCODESIZE ISZERO DUP1 ISZERO PUSH2 0x1CC4 JUMPI PUSH1 0x0 DUP1 REVERT JUMPDEST POP GAS CALL ISZERO DUP1 ISZERO PUSH2 0x1CD8 JUMPI RETURNDATASIZE PUSH1 0x0 DUP1 RETURNDATACOPY RETURNDATASIZE PUSH1 0x0 REVERT JUMPDEST POP POP POP POP PUSH1 0x40 MLOAD RETURNDATASIZE PUSH1 0x20 DUP2 LT ISZERO PUSH2 0x1CEE JUMPI PUSH1 0x0 DUP1 REVERT JUMPDEST DUP2 ADD SWAP1 DUP1 DUP1 MLOAD SWAP1 PUSH1 0x20 ADD SWAP1 SWAP3 SWAP2 SWAP1 POP POP POP POP PUSH32 0x8470EC6072093ABFEC912969EE9FD5273EED1D3202EAC51A1FD83C236EE9BEA8 PUSH1 0x10 PUSH1 0x0 SWAP1 SLOAD SWAP1 PUSH2 0x100 EXP SWAP1 DIV PUSH20 0xFFFFFFFFFFFFFFFFFFFFFFFFFFFFFFFFFFFFFFFF AND PUSH1 0x18 SLOAD PUSH1 0x40 MLOAD DUP1 DUP1 PUSH1 0x20 ADD DUP5 PUSH20 0xFFFFFFFFFFFFFFFFFFFFFFFFFFFFFFFFFFFFFFFF AND PUSH20 0xFFFFFFFFFFFFFFFFFFFFFFFFFFFFFFFFFFFFFFFF AND DUP2 MSTORE PUSH1 0x20 ADD DUP4 DUP2 MSTORE PUSH1 0x20 ADD DUP3 DUP2 SUB DUP3 MSTORE PUSH1 0xF DUP2 MSTORE PUSH1 0x20 ADD DUP1 PUSH32 0x7374616B696E67436F6E74726163740000000000000000000000000000000000 DUP2 MSTORE POP PUSH1 0x20 ADD SWAP4 POP POP POP POP PUSH1 0x40 MLOAD DUP1 SWAP2 SUB SWAP1 LOG1 PUSH1 0x6 PUSH1 0x0 SWAP1 SLOAD SWAP1 PUSH2 0x100 EXP SWAP1 DIV PUSH20 0xFFFFFFFFFFFFFFFFFFFFFFFFFFFFFFFFFFFFFFFF AND PUSH20 0xFFFFFFFFFFFFFFFFFFFFFFFFFFFFFFFFFFFFFFFF AND PUSH4 0x40C10F19 PUSH1 0xF PUSH1 0x0 SWAP1 SLOAD SWAP1 PUSH2 0x100 EXP SWAP1 DIV PUSH20 0xFFFFFFFFFFFFFFFFFFFFFFFFFFFFFFFFFFFFFFFF AND PUSH1 0x19 SLOAD PUSH1 0x40 MLOAD DUP4 PUSH4 0xFFFFFFFF AND PUSH29 0x100000000000000000000000000000000000000000000000000000000 MUL DUP2 MSTORE PUSH1 0x4 ADD DUP1 DUP4 PUSH20 0xFFFFFFFFFFFFFFFFFFFFFFFFFFFFFFFFFFFFFFFF AND PUSH20 0xFFFFFFFFFFFFFFFFFFFFFFFFFFFFFFFFFFFFFFFF AND DUP2 MSTORE PUSH1 0x20 ADD DUP3 DUP2 MSTORE PUSH1 0x20 ADD SWAP3 POP POP POP PUSH1 0x20 PUSH1 0x40 MLOAD DUP1 DUP4 SUB DUP2 PUSH1 0x0 DUP8 DUP1 EXTCODESIZE ISZERO DUP1 ISZERO PUSH2 0x1EB1 JUMPI PUSH1 0x0 DUP1 REVERT JUMPDEST POP GAS CALL ISZERO DUP1 ISZERO PUSH2 0x1EC5 JUMPI RETURNDATASIZE PUSH1 0x0 DUP1 RETURNDATACOPY RETURNDATASIZE PUSH1 0x0 REVERT JUMPDEST POP POP POP POP PUSH1 0x40 MLOAD RETURNDATASIZE PUSH1 0x20 DUP2 LT ISZERO PUSH2 0x1EDB JUMPI PUSH1 0x0 DUP1 REVERT JUMPDEST DUP2 ADD SWAP1 DUP1 DUP1 MLOAD SWAP1 PUSH1 0x20 ADD SWAP1 SWAP3 SWAP2 SWAP1 POP POP POP POP PUSH32 0x8470EC6072093ABFEC912969EE9FD5273EED1D3202EAC51A1FD83C236EE9BEA8 PUSH1 0xF PUSH1 0x0 SWAP1 SLOAD SWAP1 PUSH2 0x100 EXP SWAP1 DIV PUSH20 0xFFFFFFFFFFFFFFFFFFFFFFFFFFFFFFFFFFFFFFFF AND PUSH1 0x19 SLOAD PUSH1 0x40 MLOAD DUP1 DUP1 PUSH1 0x20 ADD DUP5 PUSH20 0xFFFFFFFFFFFFFFFFFFFFFFFFFFFFFFFFFFFFFFFF AND PUSH20 0xFFFFFFFFFFFFFFFFFFFFFFFFFFFFFFFFFFFFFFFF AND DUP2 MSTORE PUSH1 0x20 ADD DUP4 DUP2 MSTORE PUSH1 0x20 ADD DUP3 DUP2 SUB DUP3 MSTORE PUSH1 0xC DUP2 MSTORE PUSH1 0x20 ADD DUP1 PUSH32 0x74696D6553776170706572730000000000000000000000000000000000000000 DUP2 MSTORE POP PUSH1 0x20 ADD SWAP4 POP POP POP POP PUSH1 0x40 MLOAD DUP1 SWAP2 SUB SWAP1 LOG1 PUSH32 0x31A2C82874744C38FA6D0D7BACB6FF098DE6C1ECC98899F39F5B9EA32108765B DUP2 PUSH1 0x40 MLOAD DUP1 DUP3 DUP2 MSTORE PUSH1 0x20 ADD SWAP2 POP POP PUSH1 0x40 MLOAD DUP1 SWAP2 SUB SWAP1 LOG1 PUSH1 0x0 PUSH1 0x4 DUP2 SWAP1 SSTORE POP PUSH2 0x200C PUSH3 0x278D00 PUSH1 0x0 SLOAD PUSH2 0x32C8 SWAP1 SWAP2 SWAP1 PUSH4 0xFFFFFFFF AND JUMP JUMPDEST PUSH1 0x0 DUP2 SWAP1 SSTORE POP PUSH2 0x201A PUSH2 0x3373 JUMP JUMPDEST POP PUSH32 0x6EF4855B666DCC7884561072E4358B28DFE01FEB1B7F4DCEBC00E62D50394AC7 PUSH1 0x5 SLOAD PUSH1 0x40 MLOAD DUP1 DUP3 DUP2 MSTORE PUSH1 0x20 ADD SWAP2 POP POP PUSH1 0x40 MLOAD DUP1 SWAP2 SUB SWAP1 LOG1 PUSH1 0xB PUSH1 0x3 SLOAD EQ ISZERO PUSH2 0x20B7 JUMPI PUSH1 0x0 PUSH1 0x3 DUP2 SWAP1 SSTORE POP PUSH2 0x2090 PUSH1 0x64 PUSH2 0x2082 PUSH1 0x5A PUSH1 0x2 SLOAD PUSH2 0x330B SWAP1 SWAP2 SWAP1 PUSH4 0xFFFFFFFF AND JUMP JUMPDEST PUSH2 0x3349 SWAP1 SWAP2 SWAP1 PUSH4 0xFFFFFFFF AND JUMP JUMPDEST PUSH1 0x2 DUP2 SWAP1 SSTORE POP PUSH2 0x20AC PUSH1 0xC PUSH1 0x2 SLOAD PUSH2 0x3349 SWAP1 SWAP2 SWAP1 PUSH4 0xFFFFFFFF AND JUMP JUMPDEST PUSH1 0x1 DUP2 SWAP1 SSTORE POP PUSH2 0x20D4 JUMP JUMPDEST PUSH2 0x20CD PUSH1 0x1 PUSH1 0x3 SLOAD PUSH2 0x32C8 SWAP1 SWAP2 SWAP1 PUSH4 0xFFFFFFFF AND JUMP JUMPDEST PUSH1 0x3 DUP2 SWAP1 SSTORE POP JUMPDEST PUSH1 0x1 SWAP2 POP POP SWAP1 JUMP JUMPDEST PUSH1 0x12 SLOAD DUP2 JUMP JUMPDEST PUSH1 0x19 SLOAD DUP2 JUMP JUMPDEST PUSH1 0x4 SLOAD DUP2 JUMP JUMPDEST PUSH1 0x18 SLOAD DUP2 JUMP JUMPDEST PUSH1 0x0 PUSH1 0x7 PUSH1 0x0 SWAP1 SLOAD SWAP1 PUSH2 0x100 EXP SWAP1 DIV PUSH20 0xFFFFFFFFFFFFFFFFFFFFFFFFFFFFFFFFFFFFFFFF AND PUSH20 0xFFFFFFFFFFFFFFFFFFFFFFFFFFFFFFFFFFFFFFFF AND CALLER PUSH20 0xFFFFFFFFFFFFFFFFFFFFFFFFFFFFFFFFFFFFFFFF AND EQ ISZERO ISZERO PUSH2 0x21BB JUMPI PUSH1 0x40 MLOAD PUSH32 0x8C379A000000000000000000000000000000000000000000000000000000000 DUP2 MSTORE PUSH1 0x4 ADD DUP1 DUP1 PUSH1 0x20 ADD DUP3 DUP2 SUB DUP3 MSTORE PUSH1 0x18 DUP2 MSTORE PUSH1 0x20 ADD DUP1 PUSH32 0x4F6E6C79204F776E657220697320617574686F72697365640000000000000000 DUP2 MSTORE POP PUSH1 0x20 ADD SWAP2 POP POP PUSH1 0x40 MLOAD DUP1 SWAP2 SUB SWAP1 REVERT JUMPDEST PUSH1 0x0 PUSH20 0xFFFFFFFFFFFFFFFFFFFFFFFFFFFFFFFFFFFFFFFF AND DUP3 PUSH1 0x0 PUSH1 0x9 DUP2 LT ISZERO ISZERO PUSH2 0x21E2 JUMPI INVALID JUMPDEST PUSH1 0x20 MUL ADD CALLDATALOAD PUSH20 0xFFFFFFFFFFFFFFFFFFFFFFFFFFFFFFFFFFFFFFFF AND PUSH20 0xFFFFFFFFFFFFFFFFFFFFFFFFFFFFFFFFFFFFFFFF AND EQ ISZERO DUP1 ISZERO PUSH2 0x226F JUMPI POP PUSH1 0x0 PUSH20 0xFFFFFFFFFFFFFFFFFFFFFFFFFFFFFFFFFFFFFFFF AND PUSH1 0x8 PUSH1 0x0 SWAP1 SLOAD SWAP1 PUSH2 0x100 EXP SWAP1 DIV PUSH20 0xFFFFFFFFFFFFFFFFFFFFFFFFFFFFFFFFFFFFFFFF AND PUSH20 0xFFFFFFFFFFFFFFFFFFFFFFFFFFFFFFFFFFFFFFFF AND EQ JUMPDEST ISZERO PUSH2 0x239D JUMPI DUP2 PUSH1 0x0 PUSH1 0x9 DUP2 LT ISZERO ISZERO PUSH2 0x2283 JUMPI INVALID JUMPDEST PUSH1 0x20 MUL ADD CALLDATALOAD PUSH20 0xFFFFFFFFFFFFFFFFFFFFFFFFFFFFFFFFFFFFFFFF AND PUSH1 0x8 PUSH1 0x0 PUSH2 0x100 EXP DUP2 SLOAD DUP2 PUSH20 0xFFFFFFFFFFFFFFFFFFFFFFFFFFFFFFFFFFFFFFFF MUL NOT AND SWAP1 DUP4 PUSH20 0xFFFFFFFFFFFFFFFFFFFFFFFFFFFFFFFFFFFFFFFF AND MUL OR SWAP1 SSTORE POP PUSH32 0x12FB0C5ABBA542BF97C53EECC4EBE59D9BA7AD563247ED305F002ADA0291D60F PUSH1 0x8 PUSH1 0x0 SWAP1 SLOAD SWAP1 PUSH2 0x100 EXP SWAP1 DIV PUSH20 0xFFFFFFFFFFFFFFFFFFFFFFFFFFFFFFFFFFFFFFFF AND PUSH1 0x40 MLOAD DUP1 DUP1 PUSH1 0x20 ADD DUP4 PUSH20 0xFFFFFFFFFFFFFFFFFFFFFFFFFFFFFFFFFFFFFFFF AND PUSH20 0xFFFFFFFFFFFFFFFFFFFFFFFFFFFFFFFFFFFFFFFF AND DUP2 MSTORE PUSH1 0x20 ADD DUP3 DUP2 SUB DUP3 MSTORE PUSH1 0x19 DUP2 MSTORE PUSH1 0x20 ADD DUP1 PUSH32 0x4E657754616C656E7473416E64506172746E6572736869707300000000000000 DUP2 MSTORE POP PUSH1 0x20 ADD SWAP3 POP POP POP PUSH1 0x40 MLOAD DUP1 SWAP2 SUB SWAP1 LOG1 JUMPDEST PUSH1 0x0 PUSH20 0xFFFFFFFFFFFFFFFFFFFFFFFFFFFFFFFFFFFFFFFF AND DUP3 PUSH1 0x1 PUSH1 0x9 DUP2 LT ISZERO ISZERO PUSH2 0x23C4 JUMPI INVALID JUMPDEST PUSH1 0x20 MUL ADD CALLDATALOAD PUSH20 0xFFFFFFFFFFFFFFFFFFFFFFFFFFFFFFFFFFFFFFFF AND PUSH20 0xFFFFFFFFFFFFFFFFFFFFFFFFFFFFFFFFFFFFFFFF AND EQ ISZERO DUP1 ISZERO PUSH2 0x2451 JUMPI POP PUSH1 0x0 PUSH20 0xFFFFFFFFFFFFFFFFFFFFFFFFFFFFFFFFFFFFFFFF AND PUSH1 0x9 PUSH1 0x0 SWAP1 SLOAD SWAP1 PUSH2 0x100 EXP SWAP1 DIV PUSH20 0xFFFFFFFFFFFFFFFFFFFFFFFFFFFFFFFFFFFFFFFF AND PUSH20 0xFFFFFFFFFFFFFFFFFFFFFFFFFFFFFFFFFFFFFFFF AND EQ JUMPDEST ISZERO PUSH2 0x257F JUMPI DUP2 PUSH1 0x1 PUSH1 0x9 DUP2 LT ISZERO ISZERO PUSH2 0x2465 JUMPI INVALID JUMPDEST PUSH1 0x20 MUL ADD CALLDATALOAD PUSH20 0xFFFFFFFFFFFFFFFFFFFFFFFFFFFFFFFFFFFFFFFF AND PUSH1 0x9 PUSH1 0x0 PUSH2 0x100 EXP DUP2 SLOAD DUP2 PUSH20 0xFFFFFFFFFFFFFFFFFFFFFFFFFFFFFFFFFFFFFFFF MUL NOT AND SWAP1 DUP4 PUSH20 0xFFFFFFFFFFFFFFFFFFFFFFFFFFFFFFFFFFFFFFFF AND MUL OR SWAP1 SSTORE POP PUSH32 0x12FB0C5ABBA542BF97C53EECC4EBE59D9BA7AD563247ED305F002ADA0291D60F PUSH1 0x9 PUSH1 0x0 SWAP1 SLOAD SWAP1 PUSH2 0x100 EXP SWAP1 DIV PUSH20 0xFFFFFFFFFFFFFFFFFFFFFFFFFFFFFFFFFFFFFFFF AND PUSH1 0x40 MLOAD DUP1 DUP1 PUSH1 0x20 ADD DUP4 PUSH20 0xFFFFFFFFFFFFFFFFFFFFFFFFFFFFFFFFFFFFFFFF AND PUSH20 0xFFFFFFFFFFFFFFFFFFFFFFFFFFFFFFFFFFFFFFFF AND DUP2 MSTORE PUSH1 0x20 ADD DUP3 DUP2 SUB DUP3 MSTORE PUSH1 0x13 DUP2 MSTORE PUSH1 0x20 ADD DUP1 PUSH32 0x506C6174666F726D4D61696E74656E616E636500000000000000000000000000 DUP2 MSTORE POP PUSH1 0x20 ADD SWAP3 POP POP POP PUSH1 0x40 MLOAD DUP1 SWAP2 SUB SWAP1 LOG1 JUMPDEST PUSH1 0x0 PUSH20 0xFFFFFFFFFFFFFFFFFFFFFFFFFFFFFFFFFFFFFFFF AND DUP3 PUSH1 0x2 PUSH1 0x9 DUP2 LT ISZERO ISZERO PUSH2 0x25A6 JUMPI INVALID JUMPDEST PUSH1 0x20 MUL ADD CALLDATALOAD PUSH20 0xFFFFFFFFFFFFFFFFFFFFFFFFFFFFFFFFFFFFFFFF AND PUSH20 0xFFFFFFFFFFFFFFFFFFFFFFFFFFFFFFFFFFFFFFFF AND EQ ISZERO DUP1 ISZERO PUSH2 0x2633 JUMPI POP PUSH1 0x0 PUSH20 0xFFFFFFFFFFFFFFFFFFFFFFFFFFFFFFFFFFFFFFFF AND PUSH1 0xA PUSH1 0x0 SWAP1 SLOAD SWAP1 PUSH2 0x100 EXP SWAP1 DIV PUSH20 0xFFFFFFFFFFFFFFFFFFFFFFFFFFFFFFFFFFFFFFFF AND PUSH20 0xFFFFFFFFFFFFFFFFFFFFFFFFFFFFFFFFFFFFFFFF AND EQ JUMPDEST ISZERO PUSH2 0x2761 JUMPI DUP2 PUSH1 0x2 PUSH1 0x9 DUP2 LT ISZERO ISZERO PUSH2 0x2647 JUMPI INVALID JUMPDEST PUSH1 0x20 MUL ADD CALLDATALOAD PUSH20 0xFFFFFFFFFFFFFFFFFFFFFFFFFFFFFFFFFFFFFFFF AND PUSH1 0xA PUSH1 0x0 PUSH2 0x100 EXP DUP2 SLOAD DUP2 PUSH20 0xFFFFFFFFFFFFFFFFFFFFFFFFFFFFFFFFFFFFFFFF MUL NOT AND SWAP1 DUP4 PUSH20 0xFFFFFFFFFFFFFFFFFFFFFFFFFFFFFFFFFFFFFFFF AND MUL OR SWAP1 SSTORE POP PUSH32 0x12FB0C5ABBA542BF97C53EECC4EBE59D9BA7AD563247ED305F002ADA0291D60F PUSH1 0xA PUSH1 0x0 SWAP1 SLOAD SWAP1 PUSH2 0x100 EXP SWAP1 DIV PUSH20 0xFFFFFFFFFFFFFFFFFFFFFFFFFFFFFFFFFFFFFFFF AND PUSH1 0x40 MLOAD DUP1 DUP1 PUSH1 0x20 ADD DUP4 PUSH20 0xFFFFFFFFFFFFFFFFFFFFFFFFFFFFFFFFFFFFFFFF AND PUSH20 0xFFFFFFFFFFFFFFFFFFFFFFFFFFFFFFFFFFFFFFFF AND DUP2 MSTORE PUSH1 0x20 ADD DUP3 DUP2 SUB DUP3 MSTORE PUSH1 0xF DUP2 MSTORE PUSH1 0x20 ADD DUP1 PUSH32 0x4D61726B6574696E67416E64524E520000000000000000000000000000000000 DUP2 MSTORE POP PUSH1 0x20 ADD SWAP3 POP POP POP PUSH1 0x40 MLOAD DUP1 SWAP2 SUB SWAP1 LOG1 JUMPDEST PUSH1 0x0 PUSH20 0xFFFFFFFFFFFFFFFFFFFFFFFFFFFFFFFFFFFFFFFF AND DUP3 PUSH1 0x3 PUSH1 0x9 DUP2 LT ISZERO ISZERO PUSH2 0x2788 JUMPI INVALID JUMPDEST PUSH1 0x20 MUL ADD CALLDATALOAD PUSH20 0xFFFFFFFFFFFFFFFFFFFFFFFFFFFFFFFFFFFFFFFF AND PUSH20 0xFFFFFFFFFFFFFFFFFFFFFFFFFFFFFFFFFFFFFFFF AND EQ ISZERO DUP1 ISZERO PUSH2 0x2815 JUMPI POP PUSH1 0x0 PUSH20 0xFFFFFFFFFFFFFFFFFFFFFFFFFFFFFFFFFFFFFFFF AND PUSH1 0xB PUSH1 0x0 SWAP1 SLOAD SWAP1 PUSH2 0x100 EXP SWAP1 DIV PUSH20 0xFFFFFFFFFFFFFFFFFFFFFFFFFFFFFFFFFFFFFFFF AND PUSH20 0xFFFFFFFFFFFFFFFFFFFFFFFFFFFFFFFFFFFFFFFF AND EQ JUMPDEST ISZERO PUSH2 0x2943 JUMPI DUP2 PUSH1 0x3 PUSH1 0x9 DUP2 LT ISZERO ISZERO PUSH2 0x2829 JUMPI INVALID JUMPDEST PUSH1 0x20 MUL ADD CALLDATALOAD PUSH20 0xFFFFFFFFFFFFFFFFFFFFFFFFFFFFFFFFFFFFFFFF AND PUSH1 0xB PUSH1 0x0 PUSH2 0x100 EXP DUP2 SLOAD DUP2 PUSH20 0xFFFFFFFFFFFFFFFFFFFFFFFFFFFFFFFFFFFFFFFF MUL NOT AND SWAP1 DUP4 PUSH20 0xFFFFFFFFFFFFFFFFFFFFFFFFFFFFFFFFFFFFFFFF AND MUL OR SWAP1 SSTORE POP PUSH32 0x12FB0C5ABBA542BF97C53EECC4EBE59D9BA7AD563247ED305F002ADA0291D60F PUSH1 0xB PUSH1 0x0 SWAP1 SLOAD SWAP1 PUSH2 0x100 EXP SWAP1 DIV PUSH20 0xFFFFFFFFFFFFFFFFFFFFFFFFFFFFFFFFFFFFFFFF AND PUSH1 0x40 MLOAD DUP1 DUP1 PUSH1 0x20 ADD DUP4 PUSH20 0xFFFFFFFFFFFFFFFFFFFFFFFFFFFFFFFFFFFFFFFF AND PUSH20 0xFFFFFFFFFFFFFFFFFFFFFFFFFFFFFFFFFFFFFFFF AND DUP2 MSTORE PUSH1 0x20 ADD DUP3 DUP2 SUB DUP3 MSTORE PUSH1 0x7 DUP2 MSTORE PUSH1 0x20 ADD DUP1 PUSH32 0x4B6D506172647300000000000000000000000000000000000000000000000000 DUP2 MSTORE POP PUSH1 0x20 ADD SWAP3 POP POP POP PUSH1 0x40 MLOAD DUP1 SWAP2 SUB SWAP1 LOG1 JUMPDEST PUSH1 0x0 PUSH20 0xFFFFFFFFFFFFFFFFFFFFFFFFFFFFFFFFFFFFFFFF AND DUP3 PUSH1 0x4 PUSH1 0x9 DUP2 LT ISZERO ISZERO PUSH2 0x296A JUMPI INVALID JUMPDEST PUSH1 0x20 MUL ADD CALLDATALOAD PUSH20 0xFFFFFFFFFFFFFFFFFFFFFFFFFFFFFFFFFFFFFFFF AND PUSH20 0xFFFFFFFFFFFFFFFFFFFFFFFFFFFFFFFFFFFFFFFF AND EQ ISZERO DUP1 ISZERO PUSH2 0x29F7 JUMPI POP PUSH1 0x0 PUSH20 0xFFFFFFFFFFFFFFFFFFFFFFFFFFFFFFFFFFFFFFFF AND PUSH1 0xC PUSH1 0x0 SWAP1 SLOAD SWAP1 PUSH2 0x100 EXP SWAP1 DIV PUSH20 0xFFFFFFFFFFFFFFFFFFFFFFFFFFFFFFFFFFFFFFFF AND PUSH20 0xFFFFFFFFFFFFFFFFFFFFFFFFFFFFFFFFFFFFFFFF AND EQ JUMPDEST ISZERO PUSH2 0x2B25 JUMPI DUP2 PUSH1 0x4 PUSH1 0x9 DUP2 LT ISZERO ISZERO PUSH2 0x2A0B JUMPI INVALID JUMPDEST PUSH1 0x20 MUL ADD CALLDATALOAD PUSH20 0xFFFFFFFFFFFFFFFFFFFFFFFFFFFFFFFFFFFFFFFF AND PUSH1 0xC PUSH1 0x0 PUSH2 0x100 EXP DUP2 SLOAD DUP2 PUSH20 0xFFFFFFFFFFFFFFFFFFFFFFFFFFFFFFFFFFFFFFFF MUL NOT AND SWAP1 DUP4 PUSH20 0xFFFFFFFFFFFFFFFFFFFFFFFFFFFFFFFFFFFFFFFF AND MUL OR SWAP1 SSTORE POP PUSH32 0x12FB0C5ABBA542BF97C53EECC4EBE59D9BA7AD563247ED305F002ADA0291D60F PUSH1 0xC PUSH1 0x0 SWAP1 SLOAD SWAP1 PUSH2 0x100 EXP SWAP1 DIV PUSH20 0xFFFFFFFFFFFFFFFFFFFFFFFFFFFFFFFFFFFFFFFF AND PUSH1 0x40 MLOAD DUP1 DUP1 PUSH1 0x20 ADD DUP4 PUSH20 0xFFFFFFFFFFFFFFFFFFFFFFFFFFFFFFFFFFFFFFFF AND PUSH20 0xFFFFFFFFFFFFFFFFFFFFFFFFFFFFFFFFFFFFFFFF AND DUP2 MSTORE PUSH1 0x20 ADD DUP3 DUP2 SUB DUP3 MSTORE PUSH1 0x10 DUP2 MSTORE PUSH1 0x20 ADD DUP1 PUSH32 0x436F6E74696E67656E637946756E647300000000000000000000000000000000 DUP2 MSTORE POP PUSH1 0x20 ADD SWAP3 POP POP POP PUSH1 0x40 MLOAD DUP1 SWAP2 SUB SWAP1 LOG1 JUMPDEST PUSH1 0x0 PUSH20 0xFFFFFFFFFFFFFFFFFFFFFFFFFFFFFFFFFFFFFFFF AND DUP3 PUSH1 0x5 PUSH1 0x9 DUP2 LT ISZERO ISZERO PUSH2 0x2B4C JUMPI INVALID JUMPDEST PUSH1 0x20 MUL ADD CALLDATALOAD PUSH20 0xFFFFFFFFFFFFFFFFFFFFFFFFFFFFFFFFFFFFFFFF AND PUSH20 0xFFFFFFFFFFFFFFFFFFFFFFFFFFFFFFFFFFFFFFFF AND EQ ISZERO DUP1 ISZERO PUSH2 0x2BD9 JUMPI POP PUSH1 0x0 PUSH20 0xFFFFFFFFFFFFFFFFFFFFFFFFFFFFFFFFFFFFFFFF AND PUSH1 0xD PUSH1 0x0 SWAP1 SLOAD SWAP1 PUSH2 0x100 EXP SWAP1 DIV PUSH20 0xFFFFFFFFFFFFFFFFFFFFFFFFFFFFFFFFFFFFFFFF AND PUSH20 0xFFFFFFFFFFFFFFFFFFFFFFFFFFFFFFFFFFFFFFFF AND EQ JUMPDEST ISZERO PUSH2 0x2D07 JUMPI DUP2 PUSH1 0x5 PUSH1 0x9 DUP2 LT ISZERO ISZERO PUSH2 0x2BED JUMPI INVALID JUMPDEST PUSH1 0x20 MUL ADD CALLDATALOAD PUSH20 0xFFFFFFFFFFFFFFFFFFFFFFFFFFFFFFFFFFFFFFFF AND PUSH1 0xD PUSH1 0x0 PUSH2 0x100 EXP DUP2 SLOAD DUP2 PUSH20 0xFFFFFFFFFFFFFFFFFFFFFFFFFFFFFFFFFFFFFFFF MUL NOT AND SWAP1 DUP4 PUSH20 0xFFFFFFFFFFFFFFFFFFFFFFFFFFFFFFFFFFFFFFFF AND MUL OR SWAP1 SSTORE POP PUSH32 0x12FB0C5ABBA542BF97C53EECC4EBE59D9BA7AD563247ED305F002ADA0291D60F PUSH1 0xD PUSH1 0x0 SWAP1 SLOAD SWAP1 PUSH2 0x100 EXP SWAP1 DIV PUSH20 0xFFFFFFFFFFFFFFFFFFFFFFFFFFFFFFFFFFFFFFFF AND PUSH1 0x40 MLOAD DUP1 DUP1 PUSH1 0x20 ADD DUP4 PUSH20 0xFFFFFFFFFFFFFFFFFFFFFFFFFFFFFFFFFFFFFFFF AND PUSH20 0xFFFFFFFFFFFFFFFFFFFFFFFFFFFFFFFFFFFFFFFF AND DUP2 MSTORE PUSH1 0x20 ADD DUP3 DUP2 SUB DUP3 MSTORE PUSH1 0x16 DUP2 MSTORE PUSH1 0x20 ADD DUP1 PUSH32 0x5265736561726368416E64446576656C6F706D656E7400000000000000000000 DUP2 MSTORE POP PUSH1 0x20 ADD SWAP3 POP POP POP PUSH1 0x40 MLOAD DUP1 SWAP2 SUB SWAP1 LOG1 JUMPDEST PUSH1 0x0 PUSH20 0xFFFFFFFFFFFFFFFFFFFFFFFFFFFFFFFFFFFFFFFF AND DUP3 PUSH1 0x6 PUSH1 0x9 DUP2 LT ISZERO ISZERO PUSH2 0x2D2E JUMPI INVALID JUMPDEST PUSH1 0x20 MUL ADD CALLDATALOAD PUSH20 0xFFFFFFFFFFFFFFFFFFFFFFFFFFFFFFFFFFFFFFFF AND PUSH20 0xFFFFFFFFFFFFFFFFFFFFFFFFFFFFFFFFFFFFFFFF AND EQ ISZERO DUP1 ISZERO PUSH2 0x2DBB JUMPI POP PUSH1 0x0 PUSH20 0xFFFFFFFFFFFFFFFFFFFFFFFFFFFFFFFFFFFFFFFF AND PUSH1 0xE PUSH1 0x0 SWAP1 SLOAD SWAP1 PUSH2 0x100 EXP SWAP1 DIV PUSH20 0xFFFFFFFFFFFFFFFFFFFFFFFFFFFFFFFFFFFFFFFF AND PUSH20 0xFFFFFFFFFFFFFFFFFFFFFFFFFFFFFFFFFFFFFFFF AND EQ JUMPDEST ISZERO PUSH2 0x2EE9 JUMPI DUP2 PUSH1 0x6 PUSH1 0x9 DUP2 LT ISZERO ISZERO PUSH2 0x2DCF JUMPI INVALID JUMPDEST PUSH1 0x20 MUL ADD CALLDATALOAD PUSH20 0xFFFFFFFFFFFFFFFFFFFFFFFFFFFFFFFFFFFFFFFF AND PUSH1 0xE PUSH1 0x0 PUSH2 0x100 EXP DUP2 SLOAD DUP2 PUSH20 0xFFFFFFFFFFFFFFFFFFFFFFFFFFFFFFFFFFFFFFFF MUL NOT AND SWAP1 DUP4 PUSH20 0xFFFFFFFFFFFFFFFFFFFFFFFFFFFFFFFFFFFFFFFF AND MUL OR SWAP1 SSTORE POP PUSH32 0x12FB0C5ABBA542BF97C53EECC4EBE59D9BA7AD563247ED305F002ADA0291D60F PUSH1 0xE PUSH1 0x0 SWAP1 SLOAD SWAP1 PUSH2 0x100 EXP SWAP1 DIV PUSH20 0xFFFFFFFFFFFFFFFFFFFFFFFFFFFFFFFFFFFFFFFF AND PUSH1 0x40 MLOAD DUP1 DUP1 PUSH1 0x20 ADD DUP4 PUSH20 0xFFFFFFFFFFFFFFFFFFFFFFFFFFFFFFFFFFFFFFFF AND PUSH20 0xFFFFFFFFFFFFFFFFFFFFFFFFFFFFFFFFFFFFFFFF AND DUP2 MSTORE PUSH1 0x20 ADD DUP3 DUP2 SUB DUP3 MSTORE PUSH1 0x8 DUP2 MSTORE PUSH1 0x20 ADD DUP1 PUSH32 0x42757A7A43616665000000000000000000000000000000000000000000000000 DUP2 MSTORE POP PUSH1 0x20 ADD SWAP3 POP POP POP PUSH1 0x40 MLOAD DUP1 SWAP2 SUB SWAP1 LOG1 JUMPDEST PUSH1 0x0 PUSH20 0xFFFFFFFFFFFFFFFFFFFFFFFFFFFFFFFFFFFFFFFF AND DUP3 PUSH1 0x7 PUSH1 0x9 DUP2 LT ISZERO ISZERO PUSH2 0x2F10 JUMPI INVALID JUMPDEST PUSH1 0x20 MUL ADD CALLDATALOAD PUSH20 0xFFFFFFFFFFFFFFFFFFFFFFFFFFFFFFFFFFFFFFFF AND PUSH20 0xFFFFFFFFFFFFFFFFFFFFFFFFFFFFFFFFFFFFFFFF AND EQ ISZERO DUP1 ISZERO PUSH2 0x2F9D JUMPI POP PUSH1 0x0 PUSH20 0xFFFFFFFFFFFFFFFFFFFFFFFFFFFFFFFFFFFFFFFF AND PUSH1 0xF PUSH1 0x0 SWAP1 SLOAD SWAP1 PUSH2 0x100 EXP SWAP1 DIV PUSH20 0xFFFFFFFFFFFFFFFFFFFFFFFFFFFFFFFFFFFFFFFF AND PUSH20 0xFFFFFFFFFFFFFFFFFFFFFFFFFFFFFFFFFFFFFFFF AND EQ JUMPDEST ISZERO PUSH2 0x30CB JUMPI DUP2 PUSH1 0x7 PUSH1 0x9 DUP2 LT ISZERO ISZERO PUSH2 0x2FB1 JUMPI INVALID JUMPDEST PUSH1 0x20 MUL ADD CALLDATALOAD PUSH20 0xFFFFFFFFFFFFFFFFFFFFFFFFFFFFFFFFFFFFFFFF AND PUSH1 0xF PUSH1 0x0 PUSH2 0x100 EXP DUP2 SLOAD DUP2 PUSH20 0xFFFFFFFFFFFFFFFFFFFFFFFFFFFFFFFFFFFFFFFF MUL NOT AND SWAP1 DUP4 PUSH20 0xFFFFFFFFFFFFFFFFFFFFFFFFFFFFFFFFFFFFFFFF AND MUL OR SWAP1 SSTORE POP PUSH32 0x12FB0C5ABBA542BF97C53EECC4EBE59D9BA7AD563247ED305F002ADA0291D60F PUSH1 0xF PUSH1 0x0 SWAP1 SLOAD SWAP1 PUSH2 0x100 EXP SWAP1 DIV PUSH20 0xFFFFFFFFFFFFFFFFFFFFFFFFFFFFFFFFFFFFFFFF AND PUSH1 0x40 MLOAD DUP1 DUP1 PUSH1 0x20 ADD DUP4 PUSH20 0xFFFFFFFFFFFFFFFFFFFFFFFFFFFFFFFFFFFFFFFF AND PUSH20 0xFFFFFFFFFFFFFFFFFFFFFFFFFFFFFFFFFFFFFFFF AND DUP2 MSTORE PUSH1 0x20 ADD DUP3 DUP2 SUB DUP3 MSTORE PUSH1 0xB DUP2 MSTORE PUSH1 0x20 ADD DUP1 PUSH32 0x54696D6553776170706572000000000000000000000000000000000000000000 DUP2 MSTORE POP PUSH1 0x20 ADD SWAP3 POP POP POP PUSH1 0x40 MLOAD DUP1 SWAP2 SUB SWAP1 LOG1 JUMPDEST PUSH1 0x0 PUSH20 0xFFFFFFFFFFFFFFFFFFFFFFFFFFFFFFFFFFFFFFFF AND DUP3 PUSH1 0x8 PUSH1 0x9 DUP2 LT ISZERO ISZERO PUSH2 0x30F2 JUMPI INVALID JUMPDEST PUSH1 0x20 MUL ADD CALLDATALOAD PUSH20 0xFFFFFFFFFFFFFFFFFFFFFFFFFFFFFFFFFFFFFFFF AND PUSH20 0xFFFFFFFFFFFFFFFFFFFFFFFFFFFFFFFFFFFFFFFF AND EQ ISZERO DUP1 ISZERO PUSH2 0x317F JUMPI POP PUSH1 0x0 PUSH20 0xFFFFFFFFFFFFFFFFFFFFFFFFFFFFFFFFFFFFFFFF AND PUSH1 0x10 PUSH1 0x0 SWAP1 SLOAD SWAP1 PUSH2 0x100 EXP SWAP1 DIV PUSH20 0xFFFFFFFFFFFFFFFFFFFFFFFFFFFFFFFFFFFFFFFF AND PUSH20 0xFFFFFFFFFFFFFFFFFFFFFFFFFFFFFFFFFFFFFFFF AND EQ JUMPDEST ISZERO PUSH2 0x32AD JUMPI DUP2 PUSH1 0x8 PUSH1 0x9 DUP2 LT ISZERO ISZERO PUSH2 0x3193 JUMPI INVALID JUMPDEST PUSH1 0x20 MUL ADD CALLDATALOAD PUSH20 0xFFFFFFFFFFFFFFFFFFFFFFFFFFFFFFFFFFFFFFFF AND PUSH1 0x10 PUSH1 0x0 PUSH2 0x100 EXP DUP2 SLOAD DUP2 PUSH20 0xFFFFFFFFFFFFFFFFFFFFFFFFFFFFFFFFFFFFFFFF MUL NOT AND SWAP1 DUP4 PUSH20 0xFFFFFFFFFFFFFFFFFFFFFFFFFFFFFFFFFFFFFFFF AND MUL OR SWAP1 SSTORE POP PUSH32 0x12FB0C5ABBA542BF97C53EECC4EBE59D9BA7AD563247ED305F002ADA0291D60F PUSH1 0x10 PUSH1 0x0 SWAP1 SLOAD SWAP1 PUSH2 0x100 EXP SWAP1 DIV PUSH20 0xFFFFFFFFFFFFFFFFFFFFFFFFFFFFFFFFFFFFFFFF AND PUSH1 0x40 MLOAD DUP1 DUP1 PUSH1 0x20 ADD DUP4 PUSH20 0xFFFFFFFFFFFFFFFFFFFFFFFFFFFFFFFFFFFFFFFF AND PUSH20 0xFFFFFFFFFFFFFFFFFFFFFFFFFFFFFFFFFFFFFFFF AND DUP2 MSTORE PUSH1 0x20 ADD DUP3 DUP2 SUB DUP3 MSTORE PUSH1 0x8 DUP2 MSTORE PUSH1 0x20 ADD DUP1 PUSH32 0x54696D65416C6C79000000000000000000000000000000000000000000000000 DUP2 MSTORE POP PUSH1 0x20 ADD SWAP3 POP POP POP PUSH1 0x40 MLOAD DUP1 SWAP2 SUB SWAP1 LOG1 JUMPDEST PUSH1 0x1 SWAP1 POP SWAP2 SWAP1 POP JUMP JUMPDEST PUSH1 0x13 SLOAD DUP2 JUMP JUMPDEST PUSH1 0x17 SLOAD DUP2 JUMP JUMPDEST PUSH1 0x11 SLOAD DUP2 JUMP JUMPDEST PUSH1 0x0 DUP1 DUP3 DUP5 ADD SWAP1 POP DUP4 DUP2 LT ISZERO ISZERO ISZERO PUSH2 0x32DF JUMPI PUSH1 0x0 DUP1 REVERT JUMPDEST DUP1 SWAP2 POP POP SWAP3 SWAP2 POP POP JUMP JUMPDEST PUSH1 0x0 DUP3 DUP3 GT ISZERO ISZERO ISZERO PUSH2 0x32FA JUMPI PUSH1 0x0 DUP1 REVERT JUMPDEST PUSH1 0x0 DUP3 DUP5 SUB SWAP1 POP DUP1 SWAP2 POP POP SWAP3 SWAP2 POP POP JUMP JUMPDEST PUSH1 0x0 DUP1 DUP4 EQ ISZERO PUSH2 0x331E JUMPI PUSH1 0x0 SWAP1 POP PUSH2 0x3343 JUMP JUMPDEST PUSH1 0x0 DUP3 DUP5 MUL SWAP1 POP DUP3 DUP5 DUP3 DUP2 ISZERO ISZERO PUSH2 0x3331 JUMPI INVALID JUMPDEST DIV EQ ISZERO ISZERO PUSH2 0x333E JUMPI PUSH1 0x0 DUP1 REVERT JUMPDEST DUP1 SWAP2 POP POP JUMPDEST SWAP3 SWAP2 POP POP JUMP JUMPDEST PUSH1 0x0 DUP1 DUP3 GT ISZERO ISZERO PUSH2 0x3359 JUMPI PUSH1 0x0 DUP1 REVERT JUMPDEST PUSH1 0x0 DUP3 DUP5 DUP2 ISZERO ISZERO PUSH2 0x3366 JUMPI INVALID JUMPDEST DIV SWAP1 POP DUP1 SWAP2 POP POP SWAP3 SWAP2 POP POP JUMP JUMPDEST PUSH1 0x0 DUP1 PUSH1 0x5 SLOAD EQ ISZERO PUSH2 0x3388 JUMPI PUSH1 0x1 SWAP1 POP PUSH2 0x35FF JUMP JUMPDEST PUSH1 0x0 PUSH2 0x346F PUSH1 0x64 PUSH2 0x3461 PUSH1 0x2 PUSH1 0x6 PUSH1 0x0 SWAP1 SLOAD SWAP1 PUSH2 0x100 EXP SWAP1 DIV PUSH20 0xFFFFFFFFFFFFFFFFFFFFFFFFFFFFFFFFFFFFFFFF AND PUSH20 0xFFFFFFFFFFFFFFFFFFFFFFFFFFFFFFFFFFFFFFFF AND PUSH4 0x18160DDD PUSH1 0x40 MLOAD DUP2 PUSH4 0xFFFFFFFF AND PUSH29 0x100000000000000000000000000000000000000000000000000000000 MUL DUP2 MSTORE PUSH1 0x4 ADD PUSH1 0x20 PUSH1 0x40 MLOAD DUP1 DUP4 SUB DUP2 DUP7 DUP1 EXTCODESIZE ISZERO DUP1 ISZERO PUSH2 0x3418 JUMPI PUSH1 0x0 DUP1 REVERT JUMPDEST POP GAS STATICCALL ISZERO DUP1 ISZERO PUSH2 0x342C JUMPI RETURNDATASIZE PUSH1 0x0 DUP1 RETURNDATACOPY RETURNDATASIZE PUSH1 0x0 REVERT JUMPDEST POP POP POP POP PUSH1 0x40 MLOAD RETURNDATASIZE PUSH1 0x20 DUP2 LT ISZERO PUSH2 0x3442 JUMPI PUSH1 0x0 DUP1 REVERT JUMPDEST DUP2 ADD SWAP1 DUP1 DUP1 MLOAD SWAP1 PUSH1 0x20 ADD SWAP1 SWAP3 SWAP2 SWAP1 POP POP POP PUSH2 0x330B SWAP1 SWAP2 SWAP1 PUSH4 0xFFFFFFFF AND JUMP JUMPDEST PUSH2 0x3349 SWAP1 SWAP2 SWAP1 PUSH4 0xFFFFFFFF AND JUMP JUMPDEST SWAP1 POP PUSH1 0x5 SLOAD DUP2 LT ISZERO ISZERO PUSH2 0x3534 JUMPI PUSH1 0x6 PUSH1 0x0 SWAP1 SLOAD SWAP1 PUSH2 0x100 EXP SWAP1 DIV PUSH20 0xFFFFFFFFFFFFFFFFFFFFFFFFFFFFFFFFFFFFFFFF AND PUSH20 0xFFFFFFFFFFFFFFFFFFFFFFFFFFFFFFFFFFFFFFFF AND PUSH4 0x42966C68 PUSH1 0x5 SLOAD PUSH1 0x40 MLOAD DUP3 PUSH4 0xFFFFFFFF AND PUSH29 0x100000000000000000000000000000000000000000000000000000000 MUL DUP2 MSTORE PUSH1 0x4 ADD DUP1 DUP3 DUP2 MSTORE PUSH1 0x20 ADD SWAP2 POP POP PUSH1 0x0 PUSH1 0x40 MLOAD DUP1 DUP4 SUB DUP2 PUSH1 0x0 DUP8 DUP1 EXTCODESIZE ISZERO DUP1 ISZERO PUSH2 0x350F JUMPI PUSH1 0x0 DUP1 REVERT JUMPDEST POP GAS CALL ISZERO DUP1 ISZERO PUSH2 0x3523 JUMPI RETURNDATASIZE PUSH1 0x0 DUP1 RETURNDATACOPY RETURNDATASIZE PUSH1 0x0 REVERT JUMPDEST POP POP POP POP PUSH1 0x0 PUSH1 0x5 DUP2 SWAP1 SSTORE POP PUSH2 0x35F9 JUMP JUMPDEST PUSH2 0x3549 DUP2 PUSH1 0x5 SLOAD PUSH2 0x32E9 SWAP1 SWAP2 SWAP1 PUSH4 0xFFFFFFFF AND JUMP JUMPDEST PUSH1 0x5 DUP2 SWAP1 SSTORE POP PUSH1 0x6 PUSH1 0x0 SWAP1 SLOAD SWAP1 PUSH2 0x100 EXP SWAP1 DIV PUSH20 0xFFFFFFFFFFFFFFFFFFFFFFFFFFFFFFFFFFFFFFFF AND PUSH20 0xFFFFFFFFFFFFFFFFFFFFFFFFFFFFFFFFFFFFFFFF AND PUSH4 0x42966C68 DUP3 PUSH1 0x40 MLOAD DUP3 PUSH4 0xFFFFFFFF AND PUSH29 0x100000000000000000000000000000000000000000000000000000000 MUL DUP2 MSTORE PUSH1 0x4 ADD DUP1 DUP3 DUP2 MSTORE PUSH1 0x20 ADD SWAP2 POP POP PUSH1 0x0 PUSH1 0x40 MLOAD DUP1 DUP4 SUB DUP2 PUSH1 0x0 DUP8 DUP1 EXTCODESIZE ISZERO DUP1 ISZERO PUSH2 0x35E0 JUMPI PUSH1 0x0 DUP1 REVERT JUMPDEST POP GAS CALL ISZERO DUP1 ISZERO PUSH2 0x35F4 JUMPI RETURNDATASIZE PUSH1 0x0 DUP1 RETURNDATACOPY RETURNDATASIZE PUSH1 0x0 REVERT JUMPDEST POP POP POP POP JUMPDEST PUSH1 0x1 SWAP2 POP POP JUMPDEST SWAP1 JUMP INVALID 0x4f PUSH15 0x6C792054696D65416C6C7920616E64 KECCAK256 SLOAD PUSH10 0x6D657377617070657220 PUSH10 0x7320617574686F726973 PUSH6 0x644E52542072 PUSH6 0x6C6561736520 PUSH9 0x617070656E73206F6E PUSH4 0x65206576 PUSH6 0x7279206D6F6E PUSH21 0x68A165627A7A723058206BE085E78C460A305D8D83 JUMPDEST 0xb0 LT RETURNDATASIZE 0xcb 0xfb DUP10 0x48 0xf8 SSTORE 0xf 0xda LOG0 CALLDATALOAD 0xbc JUMP 0xd 0x4b 0xf9 0xaa SELFDESTRUCT STOP 0x29 "},"gasEstimates":{"creation":{"codeDepositCost":"2789800","executionCost":"infinite","totalCost":"infinite"},"external":{"MonthlyNRTRelease()":"infinite","TimeAlly()":"526","TimeAllyNRT()":"499","UpdateAddresses(address[9])":"206107","UpdateBurnBal(uint256)":"infinite","UpdateLuckpool(uint256)":"infinite","annualNRTAmount()":"478","burnTokenBal()":"478","buzzCafe()":"525","buzzCafeNRT()":"498","contingencyFunds()":"505","contingencyFundsBal()":"477","kmPards()":"569","kmPardsBal()":"456","lastNRTRelease()":"456","luckPoolBal()":"477","marketingAndRNR()":"548","marketingAndRNRBal()":"476","monthCount()":"479","monthlyNRTAmount()":"499","newTalentsAndPartnerships()":"549","newTalentsAndPartnershipsBal()":"520","platformMaintenance()":"570","platformMaintenanceBal()":"521","researchAndDevelopment()":"503","researchAndDevelopmentBal()":"500","timeSwappers()":"503","timeSwappersNRT()":"455"},"internal":{"burnTokens()":"infinite"}},"methodIdentifiers":{"MonthlyNRTRelease()":"b018abbd","TimeAlly()":"37bfea18","TimeAllyNRT()":"c6b2c536","UpdateAddresses(address[9])":"cb358efa","UpdateBurnBal(uint256)":"41aaa9b6","UpdateLuckpool(uint256)":"382e2aab","annualNRTAmount()":"7b8c0b79","burnTokenBal()":"4a4581aa","buzzCafe()":"a9e817a9","buzzCafeNRT()":"db2f2cb5","contingencyFunds()":"0b3e29b8","contingencyFundsBal()":"5f7ce89f","kmPards()":"65c00470","kmPardsBal()":"2cfceb07","lastNRTRelease()":"797d123c","luckPoolBal()":"c3348a8b","marketingAndRNR()":"51bd70b1","marketingAndRNRBal()":"d37eb950","monthCount()":"0d4e57a4","monthlyNRTAmount()":"6037d2a3","newTalentsAndPartnerships()":"26b3bf2f","newTalentsAndPartnershipsBal()":"e71a3bfd","platformMaintenance()":"3a18a9fd","platformMaintenanceBal()":"bd27d361","researchAndDevelopment()":"5c12278d","researchAndDevelopmentBal()":"7d53257a","timeSwappers()":"9cd417de","timeSwappersNRT()":"bfb3d6c8"}},"userdoc":{"methods":{}}}