{"abi":[{"constant":true,"inputs":[{"name":"contractid","type":"uint256"}],"name":"viewStake","outputs":[{"name":"","type":"uint256"},{"name":"","type":"uint256"},{"name":"","type":"uint256"}],"payable":false,"stateMutability":"view","type":"function"},{"constant":false,"inputs":[{"name":"planid","type":"uint256"},{"name":"contractid","type":"uint256"}],"name":"pause","outputs":[{"name":"","type":"bool"}],"payable":false,"stateMutability":"nonpayable","type":"function"},{"constant":false,"inputs":[{"name":"planid","type":"uint256"},{"name":"contractid","type":"uint256"}],"name":"resume","outputs":[{"name":"","type":"bool"}],"payable":false,"stateMutability":"nonpayable","type":"function"},{"constant":true,"inputs":[],"name":"timeAlly","outputs":[{"name":"","type":"address"}],"payable":false,"stateMutability":"view","type":"function"},{"constant":false,"inputs":[{"name":"size","type":"uint256"},{"name":"planid","type":"uint256"},{"name":"contractid","type":"uint256"},{"name":"plantime","type":"uint256"},{"name":"stakedamount","type":"uint256[]"}],"name":"batchAddStake","outputs":[{"name":"","type":"bool"}],"payable":false,"stateMutability":"nonpayable","type":"function"},{"constant":true,"inputs":[{"name":"contractid","type":"uint256"}],"name":"viewStakedAmount","outputs":[{"name":"","type":"uint256"}],"payable":false,"stateMutability":"view","type":"function"},{"constant":true,"inputs":[{"name":"","type":"uint256"}],"name":"plans","outputs":[{"name":"nrtBalance","type":"uint128"},{"name":"activePlanAmount","type":"uint128"},{"name":"lastPlanAmount","type":"uint128"},{"name":"updateCount","type":"uint128"}],"payable":false,"stateMutability":"view","type":"function"},{"constant":false,"inputs":[{"name":"planid","type":"uint256"},{"name":"contractid","type":"uint256"},{"name":"plantime","type":"uint256"},{"name":"stakedamount","type":"uint256"}],"name":"addStake","outputs":[{"name":"","type":"bool"}],"payable":false,"stateMutability":"nonpayable","type":"function"},{"constant":true,"inputs":[{"name":"","type":"uint256"}],"name":"stakes","outputs":[{"name":"stakedAmount","type":"uint128"},{"name":"planTime","type":"uint32"},{"name":"monthCount","type":"uint32"},{"name":"activePlanListIndex","type":"uint32"}],"payable":false,"stateMutability":"view","type":"function"},{"constant":false,"inputs":[{"name":"planid","type":"uint256"},{"name":"size","type":"uint256"}],"name":"monthlyPlanHandler","outputs":[{"name":"","type":"uint256[]"},{"name":"","type":"uint256"}],"payable":false,"stateMutability":"nonpayable","type":"function"},{"constant":false,"inputs":[{"name":"nrt","type":"uint256"},{"name":"planid","type":"uint256"}],"name":"monthlyNRTHandler","outputs":[{"name":"","type":"uint256"}],"payable":false,"stateMutability":"nonpayable","type":"function"},{"inputs":[{"name":"timeally","type":"address"}],"payable":false,"stateMutability":"nonpayable","type":"constructor"},{"anonymous":false,"inputs":[{"indexed":false,"name":"amount","type":"uint256"}],"name":"TotalPlanAmount","type":"event"},{"anonymous":false,"inputs":[{"indexed":true,"name":"planid","type":"uint256"},{"indexed":false,"name":"activeplanamount","type":"uint256"},{"indexed":false,"name":"nrtbalance","type":"uint256"}],"name":"PlanAmountandNRT","type":"event"},{"anonymous":false,"inputs":[{"indexed":true,"name":"contractid","type":"uint256"},{"indexed":false,"name":"term","type":"uint32"},{"indexed":false,"name":"amount","type":"uint256"}],"name":"PrincipalReleased","type":"event"},{"anonymous":false,"inputs":[{"indexed":true,"name":"contractid","type":"uint256"},{"indexed":false,"name":"month","type":"uint32"},{"indexed":false,"name":"interest","type":"uint256"}],"name":"InterestReleased","type":"event"},{"anonymous":false,"inputs":[{"indexed":true,"name":"planid","type":"uint256"},{"indexed":false,"name":"current","type":"uint256"},{"indexed":false,"name":"total","type":"uint256"}],"name":"PlanHandlerStatus","type":"event"}],"devdoc":{"methods":{}},"evm":{"assembly":"    /* \"Staking.sol\":52:8266  contract Staking {... */\n  mstore(0x40, 0x80)\n    /* \"Staking.sol\":1253:1326  constructor(address timeally) public {... */\n  callvalue\n    /* \"--CODEGEN--\":8:17   */\n  dup1\n    /* \"--CODEGEN--\":5:7   */\n  iszero\n  tag_1\n  jumpi\n    /* \"--CODEGEN--\":30:31   */\n  0x00\n    /* \"--CODEGEN--\":27:28   */\n  dup1\n    /* \"--CODEGEN--\":20:32   */\n  revert\n    /* \"--CODEGEN--\":5:7   */\ntag_1:\n    /* \"Staking.sol\":1253:1326  constructor(address timeally) public {... */\n  pop\n  mload(0x40)\n  0x20\n  dup1\n  bytecodeSize\n  dup4\n  codecopy\n  dup2\n  add\n  dup1\n  0x40\n  mstore\n    /* \"--CODEGEN--\":13:15   */\n  0x20\n    /* \"--CODEGEN--\":8:11   */\n  dup2\n    /* \"--CODEGEN--\":5:16   */\n  lt\n    /* \"--CODEGEN--\":2:4   */\n  iszero\n  tag_2\n  jumpi\n    /* \"--CODEGEN--\":29:30   */\n  0x00\n    /* \"--CODEGEN--\":26:27   */\n  dup1\n    /* \"--CODEGEN--\":19:31   */\n  revert\n    /* \"--CODEGEN--\":2:4   */\ntag_2:\n    /* \"Staking.sol\":1253:1326  constructor(address timeally) public {... */\n  dup2\n  add\n  swap1\n  dup1\n  dup1\n  mload\n  swap1\n  0x20\n  add\n  swap1\n  swap3\n  swap2\n  swap1\n  pop\n  pop\n  pop\n    /* \"Staking.sol\":1311:1319  timeally */\n  dup1\n    /* \"Staking.sol\":1300:1308  timeAlly */\n  0x02\n  0x00\n    /* \"Staking.sol\":1300:1319  timeAlly = timeally */\n  0x0100\n  exp\n  dup2\n  sload\n  dup2\n  0xffffffffffffffffffffffffffffffffffffffff\n  mul\n  not\n  and\n  swap1\n  dup4\n  0xffffffffffffffffffffffffffffffffffffffff\n  and\n  mul\n  or\n  swap1\n  sstore\n  pop\n    /* \"Staking.sol\":1253:1326  constructor(address timeally) public {... */\n  pop\n    /* \"Staking.sol\":52:8266  contract Staking {... */\n  dataSize(sub_0)\n  dup1\n  dataOffset(sub_0)\n  0x00\n  codecopy\n  0x00\n  return\nstop\n\nsub_0: assembly {\n        /* \"Staking.sol\":52:8266  contract Staking {... */\n      mstore(0x40, 0x80)\n      callvalue\n        /* \"--CODEGEN--\":8:17   */\n      dup1\n        /* \"--CODEGEN--\":5:7   */\n      iszero\n      tag_1\n      jumpi\n        /* \"--CODEGEN--\":30:31   */\n      0x00\n        /* \"--CODEGEN--\":27:28   */\n      dup1\n        /* \"--CODEGEN--\":20:32   */\n      revert\n        /* \"--CODEGEN--\":5:7   */\n    tag_1:\n        /* \"Staking.sol\":52:8266  contract Staking {... */\n      pop\n      jumpi(tag_2, lt(calldatasize, 0x04))\n      calldataload(0x00)\n      0x0100000000000000000000000000000000000000000000000000000000\n      swap1\n      div\n      dup1\n      0x9ae765f4\n      gt\n      tag_14\n      jumpi\n      dup1\n      0x9ae765f4\n      eq\n      tag_8\n      jumpi\n      dup1\n      0xb1620616\n      eq\n      tag_9\n      jumpi\n      dup1\n      0xc2149cf9\n      eq\n      tag_10\n      jumpi\n      dup1\n      0xd5a44f86\n      eq\n      tag_11\n      jumpi\n      dup1\n      0xd83f0115\n      eq\n      tag_12\n      jumpi\n      dup1\n      0xde33ec32\n      eq\n      tag_13\n      jumpi\n      jump(tag_2)\n    tag_14:\n      dup1\n      0x23691677\n      eq\n      tag_3\n      jumpi\n      dup1\n      0x2d215518\n      eq\n      tag_4\n      jumpi\n      dup1\n      0x3f7f6ce2\n      eq\n      tag_5\n      jumpi\n      dup1\n      0x682667a9\n      eq\n      tag_6\n      jumpi\n      dup1\n      0x6850bfe8\n      eq\n      tag_7\n      jumpi\n    tag_2:\n      0x00\n      dup1\n      revert\n        /* \"Staking.sol\":6364:6746  function viewStake(uint256 contractid)... */\n    tag_3:\n      tag_15\n      0x04\n      dup1\n      calldatasize\n      sub\n        /* \"--CODEGEN--\":13:15   */\n      0x20\n        /* \"--CODEGEN--\":8:11   */\n      dup2\n        /* \"--CODEGEN--\":5:16   */\n      lt\n        /* \"--CODEGEN--\":2:4   */\n      iszero\n      tag_16\n      jumpi\n        /* \"--CODEGEN--\":29:30   */\n      0x00\n        /* \"--CODEGEN--\":26:27   */\n      dup1\n        /* \"--CODEGEN--\":19:31   */\n      revert\n        /* \"--CODEGEN--\":2:4   */\n    tag_16:\n        /* \"Staking.sol\":6364:6746  function viewStake(uint256 contractid)... */\n      dup2\n      add\n      swap1\n      dup1\n      dup1\n      calldataload\n      swap1\n      0x20\n      add\n      swap1\n      swap3\n      swap2\n      swap1\n      pop\n      pop\n      pop\n      tag_17\n      jump\t// in\n    tag_15:\n      mload(0x40)\n      dup1\n      dup5\n      dup2\n      mstore\n      0x20\n      add\n      dup4\n      dup2\n      mstore\n      0x20\n      add\n      dup3\n      dup2\n      mstore\n      0x20\n      add\n      swap4\n      pop\n      pop\n      pop\n      pop\n      mload(0x40)\n      dup1\n      swap2\n      sub\n      swap1\n      return\n        /* \"Staking.sol\":1786:2305  function pause(... */\n    tag_4:\n      tag_18\n      0x04\n      dup1\n      calldatasize\n      sub\n        /* \"--CODEGEN--\":13:15   */\n      0x40\n        /* \"--CODEGEN--\":8:11   */\n      dup2\n        /* \"--CODEGEN--\":5:16   */\n      lt\n        /* \"--CODEGEN--\":2:4   */\n      iszero\n      tag_19\n      jumpi\n        /* \"--CODEGEN--\":29:30   */\n      0x00\n        /* \"--CODEGEN--\":26:27   */\n      dup1\n        /* \"--CODEGEN--\":19:31   */\n      revert\n        /* \"--CODEGEN--\":2:4   */\n    tag_19:\n        /* \"Staking.sol\":1786:2305  function pause(... */\n      dup2\n      add\n      swap1\n      dup1\n      dup1\n      calldataload\n      swap1\n      0x20\n      add\n      swap1\n      swap3\n      swap2\n      swap1\n      dup1\n      calldataload\n      swap1\n      0x20\n      add\n      swap1\n      swap3\n      swap2\n      swap1\n      pop\n      pop\n      pop\n      tag_20\n      jump\t// in\n    tag_18:\n      mload(0x40)\n      dup1\n      dup3\n      iszero\n      iszero\n      iszero\n      iszero\n      dup2\n      mstore\n      0x20\n      add\n      swap2\n      pop\n      pop\n      mload(0x40)\n      dup1\n      swap2\n      sub\n      swap1\n      return\n        /* \"Staking.sol\":2311:2930  function resume(... */\n    tag_5:\n      tag_21\n      0x04\n      dup1\n      calldatasize\n      sub\n        /* \"--CODEGEN--\":13:15   */\n      0x40\n        /* \"--CODEGEN--\":8:11   */\n      dup2\n        /* \"--CODEGEN--\":5:16   */\n      lt\n        /* \"--CODEGEN--\":2:4   */\n      iszero\n      tag_22\n      jumpi\n        /* \"--CODEGEN--\":29:30   */\n      0x00\n        /* \"--CODEGEN--\":26:27   */\n      dup1\n        /* \"--CODEGEN--\":19:31   */\n      revert\n        /* \"--CODEGEN--\":2:4   */\n    tag_22:\n        /* \"Staking.sol\":2311:2930  function resume(... */\n      dup2\n      add\n      swap1\n      dup1\n      dup1\n      calldataload\n      swap1\n      0x20\n      add\n      swap1\n      swap3\n      swap2\n      swap1\n      dup1\n      calldataload\n      swap1\n      0x20\n      add\n      swap1\n      swap3\n      swap2\n      swap1\n      pop\n      pop\n      pop\n      tag_23\n      jump\t// in\n    tag_21:\n      mload(0x40)\n      dup1\n      dup3\n      iszero\n      iszero\n      iszero\n      iszero\n      dup2\n      mstore\n      0x20\n      add\n      swap2\n      pop\n      pop\n      mload(0x40)\n      dup1\n      swap2\n      sub\n      swap1\n      return\n        /* \"Staking.sol\":696:719  address public timeAlly */\n    tag_6:\n      tag_24\n      tag_25\n      jump\t// in\n    tag_24:\n      mload(0x40)\n      dup1\n      dup3\n      0xffffffffffffffffffffffffffffffffffffffff\n      and\n      0xffffffffffffffffffffffffffffffffffffffff\n      and\n      dup2\n      mstore\n      0x20\n      add\n      swap2\n      pop\n      pop\n      mload(0x40)\n      dup1\n      swap2\n      sub\n      swap1\n      return\n        /* \"Staking.sol\":1332:1780  function batchAddStake(... */\n    tag_7:\n      tag_26\n      0x04\n      dup1\n      calldatasize\n      sub\n        /* \"--CODEGEN--\":13:16   */\n      0xa0\n        /* \"--CODEGEN--\":8:11   */\n      dup2\n        /* \"--CODEGEN--\":5:17   */\n      lt\n        /* \"--CODEGEN--\":2:4   */\n      iszero\n      tag_27\n      jumpi\n        /* \"--CODEGEN--\":30:31   */\n      0x00\n        /* \"--CODEGEN--\":27:28   */\n      dup1\n        /* \"--CODEGEN--\":20:32   */\n      revert\n        /* \"--CODEGEN--\":2:4   */\n    tag_27:\n        /* \"Staking.sol\":1332:1780  function batchAddStake(... */\n      dup2\n      add\n      swap1\n      dup1\n      dup1\n      calldataload\n      swap1\n      0x20\n      add\n      swap1\n      swap3\n      swap2\n      swap1\n      dup1\n      calldataload\n      swap1\n      0x20\n      add\n      swap1\n      swap3\n      swap2\n      swap1\n      dup1\n      calldataload\n      swap1\n      0x20\n      add\n      swap1\n      swap3\n      swap2\n      swap1\n      dup1\n      calldataload\n      swap1\n      0x20\n      add\n      swap1\n      swap3\n      swap2\n      swap1\n      dup1\n      calldataload\n      swap1\n      0x20\n      add\n      swap1\n        /* \"--CODEGEN--\":21:32   */\n      0x0100000000\n        /* \"--CODEGEN--\":8:19   */\n      dup2\n        /* \"--CODEGEN--\":5:33   */\n      gt\n        /* \"--CODEGEN--\":2:4   */\n      iszero\n      tag_28\n      jumpi\n        /* \"--CODEGEN--\":46:47   */\n      0x00\n        /* \"--CODEGEN--\":43:44   */\n      dup1\n        /* \"--CODEGEN--\":36:48   */\n      revert\n        /* \"--CODEGEN--\":2:4   */\n    tag_28:\n        /* \"Staking.sol\":1332:1780  function batchAddStake(... */\n      dup3\n      add\n        /* \"--CODEGEN--\":35:44   */\n      dup4\n        /* \"--CODEGEN--\":28:32   */\n      0x20\n        /* \"--CODEGEN--\":12:26   */\n      dup3\n        /* \"--CODEGEN--\":8:33   */\n      add\n        /* \"--CODEGEN--\":5:45   */\n      gt\n        /* \"--CODEGEN--\":2:4   */\n      iszero\n      tag_29\n      jumpi\n        /* \"--CODEGEN--\":58:59   */\n      0x00\n        /* \"--CODEGEN--\":55:56   */\n      dup1\n        /* \"--CODEGEN--\":48:60   */\n      revert\n        /* \"--CODEGEN--\":2:4   */\n    tag_29:\n        /* \"Staking.sol\":1332:1780  function batchAddStake(... */\n      dup1\n      calldataload\n      swap1\n      0x20\n      add\n      swap2\n        /* \"--CODEGEN--\":101:110   */\n      dup5\n        /* \"--CODEGEN--\":95:97   */\n      0x20\n        /* \"--CODEGEN--\":81:93   */\n      dup4\n        /* \"--CODEGEN--\":77:98   */\n      mul\n        /* \"--CODEGEN--\":67:75   */\n      dup5\n        /* \"--CODEGEN--\":63:99   */\n      add\n        /* \"--CODEGEN--\":60:111   */\n      gt\n        /* \"--CODEGEN--\":39:50   */\n      0x0100000000\n        /* \"--CODEGEN--\":25:37   */\n      dup4\n        /* \"--CODEGEN--\":22:51   */\n      gt\n        /* \"--CODEGEN--\":11:119   */\n      or\n        /* \"--CODEGEN--\":8:10   */\n      iszero\n      tag_30\n      jumpi\n        /* \"--CODEGEN--\":132:133   */\n      0x00\n        /* \"--CODEGEN--\":129:130   */\n      dup1\n        /* \"--CODEGEN--\":122:134   */\n      revert\n        /* \"--CODEGEN--\":8:10   */\n    tag_30:\n        /* \"Staking.sol\":1332:1780  function batchAddStake(... */\n      swap1\n      swap2\n      swap3\n      swap4\n      swap2\n      swap3\n      swap4\n      swap1\n      pop\n      pop\n      pop\n      tag_31\n      jump\t// in\n    tag_26:\n      mload(0x40)\n      dup1\n      dup3\n      iszero\n      iszero\n      iszero\n      iszero\n      dup2\n      mstore\n      0x20\n      add\n      swap2\n      pop\n      pop\n      mload(0x40)\n      dup1\n      swap2\n      sub\n      swap1\n      return\n        /* \"Staking.sol\":6752:6945  function viewStakedAmount(uint256 contractid)... */\n    tag_8:\n      tag_32\n      0x04\n      dup1\n      calldatasize\n      sub\n        /* \"--CODEGEN--\":13:15   */\n      0x20\n        /* \"--CODEGEN--\":8:11   */\n      dup2\n        /* \"--CODEGEN--\":5:16   */\n      lt\n        /* \"--CODEGEN--\":2:4   */\n      iszero\n      tag_33\n      jumpi\n        /* \"--CODEGEN--\":29:30   */\n      0x00\n        /* \"--CODEGEN--\":26:27   */\n      dup1\n        /* \"--CODEGEN--\":19:31   */\n      revert\n        /* \"--CODEGEN--\":2:4   */\n    tag_33:\n        /* \"Staking.sol\":6752:6945  function viewStakedAmount(uint256 contractid)... */\n      dup2\n      add\n      swap1\n      dup1\n      dup1\n      calldataload\n      swap1\n      0x20\n      add\n      swap1\n      swap3\n      swap2\n      swap1\n      pop\n      pop\n      pop\n      tag_34\n      jump\t// in\n    tag_32:\n      mload(0x40)\n      dup1\n      dup3\n      dup2\n      mstore\n      0x20\n      add\n      swap2\n      pop\n      pop\n      mload(0x40)\n      dup1\n      swap2\n      sub\n      swap1\n      return\n        /* \"Staking.sol\":543:580  mapping(uint256 => Plan) public plans */\n    tag_9:\n      tag_35\n      0x04\n      dup1\n      calldatasize\n      sub\n        /* \"--CODEGEN--\":13:15   */\n      0x20\n        /* \"--CODEGEN--\":8:11   */\n      dup2\n        /* \"--CODEGEN--\":5:16   */\n      lt\n        /* \"--CODEGEN--\":2:4   */\n      iszero\n      tag_36\n      jumpi\n        /* \"--CODEGEN--\":29:30   */\n      0x00\n        /* \"--CODEGEN--\":26:27   */\n      dup1\n        /* \"--CODEGEN--\":19:31   */\n      revert\n        /* \"--CODEGEN--\":2:4   */\n    tag_36:\n        /* \"Staking.sol\":543:580  mapping(uint256 => Plan) public plans */\n      dup2\n      add\n      swap1\n      dup1\n      dup1\n      calldataload\n      swap1\n      0x20\n      add\n      swap1\n      swap3\n      swap2\n      swap1\n      pop\n      pop\n      pop\n      tag_37\n      jump\t// in\n    tag_35:\n      mload(0x40)\n      dup1\n      dup6\n      0xffffffffffffffffffffffffffffffff\n      and\n      0xffffffffffffffffffffffffffffffff\n      and\n      dup2\n      mstore\n      0x20\n      add\n      dup5\n      0xffffffffffffffffffffffffffffffff\n      and\n      0xffffffffffffffffffffffffffffffff\n      and\n      dup2\n      mstore\n      0x20\n      add\n      dup4\n      0xffffffffffffffffffffffffffffffff\n      and\n      0xffffffffffffffffffffffffffffffff\n      and\n      dup2\n      mstore\n      0x20\n      add\n      dup3\n      0xffffffffffffffffffffffffffffffff\n      and\n      0xffffffffffffffffffffffffffffffff\n      and\n      dup2\n      mstore\n      0x20\n      add\n      swap5\n      pop\n      pop\n      pop\n      pop\n      pop\n      mload(0x40)\n      dup1\n      swap2\n      sub\n      swap1\n      return\n        /* \"Staking.sol\":6951:7677  function addStake(... */\n    tag_10:\n      tag_38\n      0x04\n      dup1\n      calldatasize\n      sub\n        /* \"--CODEGEN--\":13:16   */\n      0x80\n        /* \"--CODEGEN--\":8:11   */\n      dup2\n        /* \"--CODEGEN--\":5:17   */\n      lt\n        /* \"--CODEGEN--\":2:4   */\n      iszero\n      tag_39\n      jumpi\n        /* \"--CODEGEN--\":30:31   */\n      0x00\n        /* \"--CODEGEN--\":27:28   */\n      dup1\n        /* \"--CODEGEN--\":20:32   */\n      revert\n        /* \"--CODEGEN--\":2:4   */\n    tag_39:\n        /* \"Staking.sol\":6951:7677  function addStake(... */\n      dup2\n      add\n      swap1\n      dup1\n      dup1\n      calldataload\n      swap1\n      0x20\n      add\n      swap1\n      swap3\n      swap2\n      swap1\n      dup1\n      calldataload\n      swap1\n      0x20\n      add\n      swap1\n      swap3\n      swap2\n      swap1\n      dup1\n      calldataload\n      swap1\n      0x20\n      add\n      swap1\n      swap3\n      swap2\n      swap1\n      dup1\n      calldataload\n      swap1\n      0x20\n      add\n      swap1\n      swap3\n      swap2\n      swap1\n      pop\n      pop\n      pop\n      tag_40\n      jump\t// in\n    tag_38:\n      mload(0x40)\n      dup1\n      dup3\n      iszero\n      iszero\n      iszero\n      iszero\n      dup2\n      mstore\n      0x20\n      add\n      swap2\n      pop\n      pop\n      mload(0x40)\n      dup1\n      swap2\n      sub\n      swap1\n      return\n        /* \"Staking.sol\":618:658  mapping (uint256 => Stake) public stakes */\n    tag_11:\n      tag_41\n      0x04\n      dup1\n      calldatasize\n      sub\n        /* \"--CODEGEN--\":13:15   */\n      0x20\n        /* \"--CODEGEN--\":8:11   */\n      dup2\n        /* \"--CODEGEN--\":5:16   */\n      lt\n        /* \"--CODEGEN--\":2:4   */\n      iszero\n      tag_42\n      jumpi\n        /* \"--CODEGEN--\":29:30   */\n      0x00\n        /* \"--CODEGEN--\":26:27   */\n      dup1\n        /* \"--CODEGEN--\":19:31   */\n      revert\n        /* \"--CODEGEN--\":2:4   */\n    tag_42:\n        /* \"Staking.sol\":618:658  mapping (uint256 => Stake) public stakes */\n      dup2\n      add\n      swap1\n      dup1\n      dup1\n      calldataload\n      swap1\n      0x20\n      add\n      swap1\n      swap3\n      swap2\n      swap1\n      pop\n      pop\n      pop\n      tag_43\n      jump\t// in\n    tag_41:\n      mload(0x40)\n      dup1\n      dup6\n      0xffffffffffffffffffffffffffffffff\n      and\n      0xffffffffffffffffffffffffffffffff\n      and\n      dup2\n      mstore\n      0x20\n      add\n      dup5\n      0xffffffff\n      and\n      0xffffffff\n      and\n      dup2\n      mstore\n      0x20\n      add\n      dup4\n      0xffffffff\n      and\n      0xffffffff\n      and\n      dup2\n      mstore\n      0x20\n      add\n      dup3\n      0xffffffff\n      and\n      0xffffffff\n      and\n      dup2\n      mstore\n      0x20\n      add\n      swap5\n      pop\n      pop\n      pop\n      pop\n      pop\n      mload(0x40)\n      dup1\n      swap2\n      sub\n      swap1\n      return\n        /* \"Staking.sol\":4163:6358  function monthlyPlanHandler(... */\n    tag_12:\n      tag_44\n      0x04\n      dup1\n      calldatasize\n      sub\n        /* \"--CODEGEN--\":13:15   */\n      0x40\n        /* \"--CODEGEN--\":8:11   */\n      dup2\n        /* \"--CODEGEN--\":5:16   */\n      lt\n        /* \"--CODEGEN--\":2:4   */\n      iszero\n      tag_45\n      jumpi\n        /* \"--CODEGEN--\":29:30   */\n      0x00\n        /* \"--CODEGEN--\":26:27   */\n      dup1\n        /* \"--CODEGEN--\":19:31   */\n      revert\n        /* \"--CODEGEN--\":2:4   */\n    tag_45:\n        /* \"Staking.sol\":4163:6358  function monthlyPlanHandler(... */\n      dup2\n      add\n      swap1\n      dup1\n      dup1\n      calldataload\n      swap1\n      0x20\n      add\n      swap1\n      swap3\n      swap2\n      swap1\n      dup1\n      calldataload\n      swap1\n      0x20\n      add\n      swap1\n      swap3\n      swap2\n      swap1\n      pop\n      pop\n      pop\n      tag_46\n      jump\t// in\n    tag_44:\n      mload(0x40)\n      dup1\n      dup1\n      0x20\n      add\n      dup4\n      dup2\n      mstore\n      0x20\n      add\n      dup3\n      dup2\n      sub\n      dup3\n      mstore\n      dup5\n      dup2\n      dup2\n      mload\n      dup2\n      mstore\n      0x20\n      add\n      swap2\n      pop\n      dup1\n      mload\n      swap1\n      0x20\n      add\n      swap1\n      0x20\n      mul\n      dup1\n      dup4\n      dup4\n        /* \"--CODEGEN--\":23:24   */\n      0x00\n        /* \"--CODEGEN--\":8:108   */\n    tag_47:\n        /* \"--CODEGEN--\":33:36   */\n      dup4\n        /* \"--CODEGEN--\":30:31   */\n      dup2\n        /* \"--CODEGEN--\":27:37   */\n      lt\n        /* \"--CODEGEN--\":8:108   */\n      iszero\n      tag_48\n      jumpi\n        /* \"--CODEGEN--\":99:100   */\n      dup1\n        /* \"--CODEGEN--\":94:97   */\n      dup3\n        /* \"--CODEGEN--\":90:101   */\n      add\n        /* \"--CODEGEN--\":84:102   */\n      mload\n        /* \"--CODEGEN--\":80:81   */\n      dup2\n        /* \"--CODEGEN--\":75:78   */\n      dup5\n        /* \"--CODEGEN--\":71:82   */\n      add\n        /* \"--CODEGEN--\":64:103   */\n      mstore\n        /* \"--CODEGEN--\":52:54   */\n      0x20\n        /* \"--CODEGEN--\":49:50   */\n      dup2\n        /* \"--CODEGEN--\":45:55   */\n      add\n        /* \"--CODEGEN--\":40:55   */\n      swap1\n      pop\n        /* \"--CODEGEN--\":8:108   */\n      jump(tag_47)\n    tag_48:\n        /* \"--CODEGEN--\":12:26   */\n      pop\n        /* \"Staking.sol\":4163:6358  function monthlyPlanHandler(... */\n      pop\n      pop\n      pop\n      swap1\n      pop\n      add\n      swap4\n      pop\n      pop\n      pop\n      pop\n      mload(0x40)\n      dup1\n      swap2\n      sub\n      swap1\n      return\n        /* \"Staking.sol\":2936:4157  function monthlyNRTHandler(... */\n    tag_13:\n      tag_50\n      0x04\n      dup1\n      calldatasize\n      sub\n        /* \"--CODEGEN--\":13:15   */\n      0x40\n        /* \"--CODEGEN--\":8:11   */\n      dup2\n        /* \"--CODEGEN--\":5:16   */\n      lt\n        /* \"--CODEGEN--\":2:4   */\n      iszero\n      tag_51\n      jumpi\n        /* \"--CODEGEN--\":29:30   */\n      0x00\n        /* \"--CODEGEN--\":26:27   */\n      dup1\n        /* \"--CODEGEN--\":19:31   */\n      revert\n        /* \"--CODEGEN--\":2:4   */\n    tag_51:\n        /* \"Staking.sol\":2936:4157  function monthlyNRTHandler(... */\n      dup2\n      add\n      swap1\n      dup1\n      dup1\n      calldataload\n      swap1\n      0x20\n      add\n      swap1\n      swap3\n      swap2\n      swap1\n      dup1\n      calldataload\n      swap1\n      0x20\n      add\n      swap1\n      swap3\n      swap2\n      swap1\n      pop\n      pop\n      pop\n      tag_52\n      jump\t// in\n    tag_50:\n      mload(0x40)\n      dup1\n      dup3\n      dup2\n      mstore\n      0x20\n      add\n      swap2\n      pop\n      pop\n      mload(0x40)\n      dup1\n      swap2\n      sub\n      swap1\n      return\n        /* \"Staking.sol\":6364:6746  function viewStake(uint256 contractid)... */\n    tag_17:\n        /* \"Staking.sol\":6485:6492  uint256 */\n      0x00\n        /* \"Staking.sol\":6506:6513  uint256 */\n      dup1\n        /* \"Staking.sol\":6527:6534  uint256 */\n      0x00\n        /* \"Staking.sol\":1184:1192  timeAlly */\n      0x02\n      0x00\n      swap1\n      sload\n      swap1\n      0x0100\n      exp\n      swap1\n      div\n      0xffffffffffffffffffffffffffffffffffffffff\n      and\n        /* \"Staking.sol\":1170:1192  msg.sender == timeAlly */\n      0xffffffffffffffffffffffffffffffffffffffff\n      and\n        /* \"Staking.sol\":1170:1180  msg.sender */\n      caller\n        /* \"Staking.sol\":1170:1192  msg.sender == timeAlly */\n      0xffffffffffffffffffffffffffffffffffffffff\n      and\n      eq\n        /* \"Staking.sol\":1162:1229  require(msg.sender == timeAlly, \"Owner TimeAlly should be calling\") */\n      iszero\n      iszero\n      tag_54\n      jumpi\n      mload(0x40)\n      0x08c379a000000000000000000000000000000000000000000000000000000000\n      dup2\n      mstore\n      0x04\n      add\n      dup1\n      dup1\n      0x20\n      add\n      dup3\n      dup2\n      sub\n      dup3\n      mstore\n      0x20\n      dup2\n      mstore\n      0x20\n      add\n      dup1\n      0x4f776e65722054696d65416c6c792073686f756c642062652063616c6c696e67\n      dup2\n      mstore\n      pop\n      0x20\n      add\n      swap2\n      pop\n      pop\n      mload(0x40)\n      dup1\n      swap2\n      sub\n      swap1\n      revert\n    tag_54:\n        /* \"Staking.sol\":6591:6597  stakes */\n      0x01\n        /* \"Staking.sol\":6591:6609  stakes[contractid] */\n      0x00\n        /* \"Staking.sol\":6598:6608  contractid */\n      dup6\n        /* \"Staking.sol\":6591:6609  stakes[contractid] */\n      dup2\n      mstore\n      0x20\n      add\n      swap1\n      dup2\n      mstore\n      0x20\n      add\n      0x00\n      keccak256\n        /* \"Staking.sol\":6591:6618  stakes[contractid].planTime */\n      0x00\n      add\n      0x10\n      swap1\n      sload\n      swap1\n      0x0100\n      exp\n      swap1\n      div\n      0xffffffff\n      and\n        /* \"Staking.sol\":6583:6619  uint256(stakes[contractid].planTime) */\n      0xffffffff\n      and\n        /* \"Staking.sol\":6641:6647  stakes */\n      0x01\n        /* \"Staking.sol\":6641:6659  stakes[contractid] */\n      0x00\n        /* \"Staking.sol\":6648:6658  contractid */\n      dup7\n        /* \"Staking.sol\":6641:6659  stakes[contractid] */\n      dup2\n      mstore\n      0x20\n      add\n      swap1\n      dup2\n      mstore\n      0x20\n      add\n      0x00\n      keccak256\n        /* \"Staking.sol\":6641:6672  stakes[contractid].stakedAmount */\n      0x00\n      add\n      0x00\n      swap1\n      sload\n      swap1\n      0x0100\n      exp\n      swap1\n      div\n      0xffffffffffffffffffffffffffffffff\n      and\n        /* \"Staking.sol\":6633:6673  uint256(stakes[contractid].stakedAmount) */\n      0xffffffffffffffffffffffffffffffff\n      and\n        /* \"Staking.sol\":6695:6701  stakes */\n      0x01\n        /* \"Staking.sol\":6695:6713  stakes[contractid] */\n      0x00\n        /* \"Staking.sol\":6702:6712  contractid */\n      dup8\n        /* \"Staking.sol\":6695:6713  stakes[contractid] */\n      dup2\n      mstore\n      0x20\n      add\n      swap1\n      dup2\n      mstore\n      0x20\n      add\n      0x00\n      keccak256\n        /* \"Staking.sol\":6695:6724  stakes[contractid].monthCount */\n      0x00\n      add\n      0x14\n      swap1\n      sload\n      swap1\n      0x0100\n      exp\n      swap1\n      div\n      0xffffffff\n      and\n        /* \"Staking.sol\":6687:6725  uint256(stakes[contractid].monthCount) */\n      0xffffffff\n      and\n        /* \"Staking.sol\":6563:6739  return(... */\n      swap3\n      pop\n      swap3\n      pop\n      swap3\n      pop\n        /* \"Staking.sol\":6364:6746  function viewStake(uint256 contractid)... */\n      swap2\n      swap4\n      swap1\n      swap3\n      pop\n      jump\t// out\n        /* \"Staking.sol\":1786:2305  function pause(... */\n    tag_20:\n        /* \"Staking.sol\":1943:1947  bool */\n      0x00\n        /* \"Staking.sol\":1184:1192  timeAlly */\n      0x02\n      0x00\n      swap1\n      sload\n      swap1\n      0x0100\n      exp\n      swap1\n      div\n      0xffffffffffffffffffffffffffffffffffffffff\n      and\n        /* \"Staking.sol\":1170:1192  msg.sender == timeAlly */\n      0xffffffffffffffffffffffffffffffffffffffff\n      and\n        /* \"Staking.sol\":1170:1180  msg.sender */\n      caller\n        /* \"Staking.sol\":1170:1192  msg.sender == timeAlly */\n      0xffffffffffffffffffffffffffffffffffffffff\n      and\n      eq\n        /* \"Staking.sol\":1162:1229  require(msg.sender == timeAlly, \"Owner TimeAlly should be calling\") */\n      iszero\n      iszero\n      tag_57\n      jumpi\n      mload(0x40)\n      0x08c379a000000000000000000000000000000000000000000000000000000000\n      dup2\n      mstore\n      0x04\n      add\n      dup1\n      dup1\n      0x20\n      add\n      dup3\n      dup2\n      sub\n      dup3\n      mstore\n      0x20\n      dup2\n      mstore\n      0x20\n      add\n      dup1\n      0x4f776e65722054696d65416c6c792073686f756c642062652063616c6c696e67\n      dup2\n      mstore\n      pop\n      0x20\n      add\n      swap2\n      pop\n      pop\n      mload(0x40)\n      dup1\n      swap2\n      sub\n      swap1\n      revert\n    tag_57:\n        /* \"Staking.sol\":1971:2082  deleteActivePlanListElement(planid,... */\n      tag_59\n        /* \"Staking.sol\":1999:2005  planid */\n      dup4\n        /* \"Staking.sol\":2043:2049  stakes */\n      0x01\n        /* \"Staking.sol\":2043:2061  stakes[contractid] */\n      0x00\n        /* \"Staking.sol\":2050:2060  contractid */\n      dup6\n        /* \"Staking.sol\":2043:2061  stakes[contractid] */\n      dup2\n      mstore\n      0x20\n      add\n      swap1\n      dup2\n      mstore\n      0x20\n      add\n      0x00\n      keccak256\n        /* \"Staking.sol\":2043:2081  stakes[contractid].activePlanListIndex */\n      0x00\n      add\n      0x18\n      swap1\n      sload\n      swap1\n      0x0100\n      exp\n      swap1\n      div\n      0xffffffff\n      and\n        /* \"Staking.sol\":1971:1998  deleteActivePlanListElement */\n      tag_60\n        /* \"Staking.sol\":1971:2082  deleteActivePlanListElement(planid,... */\n      jump\t// in\n    tag_59:\n        /* \"Staking.sol\":1963:2083  require(deleteActivePlanListElement(planid,... */\n      iszero\n      iszero\n      tag_61\n      jumpi\n      0x00\n      dup1\n      revert\n    tag_61:\n        /* \"Staking.sol\":2134:2276  uint256(plans[planid].activePlanAmount)... */\n      tag_62\n        /* \"Staking.sol\":2243:2249  stakes */\n      0x01\n        /* \"Staking.sol\":2243:2261  stakes[contractid] */\n      0x00\n        /* \"Staking.sol\":2250:2260  contractid */\n      dup5\n        /* \"Staking.sol\":2243:2261  stakes[contractid] */\n      dup2\n      mstore\n      0x20\n      add\n      swap1\n      dup2\n      mstore\n      0x20\n      add\n      0x00\n      keccak256\n        /* \"Staking.sol\":2243:2274  stakes[contractid].stakedAmount */\n      0x00\n      add\n      0x00\n      swap1\n      sload\n      swap1\n      0x0100\n      exp\n      swap1\n      div\n      0xffffffffffffffffffffffffffffffff\n      and\n        /* \"Staking.sol\":2235:2275  uint256(stakes[contractid].stakedAmount) */\n      0xffffffffffffffffffffffffffffffff\n      and\n        /* \"Staking.sol\":2142:2147  plans */\n      0x00\n        /* \"Staking.sol\":2142:2155  plans[planid] */\n      dup1\n        /* \"Staking.sol\":2148:2154  planid */\n      dup7\n        /* \"Staking.sol\":2142:2155  plans[planid] */\n      dup2\n      mstore\n      0x20\n      add\n      swap1\n      dup2\n      mstore\n      0x20\n      add\n      0x00\n      keccak256\n        /* \"Staking.sol\":2142:2172  plans[planid].activePlanAmount */\n      0x00\n      add\n      0x10\n      swap1\n      sload\n      swap1\n      0x0100\n      exp\n      swap1\n      div\n      0xffffffffffffffffffffffffffffffff\n      and\n        /* \"Staking.sol\":2134:2173  uint256(plans[planid].activePlanAmount) */\n      0xffffffffffffffffffffffffffffffff\n      and\n        /* \"Staking.sol\":2134:2234  uint256(plans[planid].activePlanAmount)... */\n      tag_63\n      swap1\n        /* \"Staking.sol\":2134:2276  uint256(plans[planid].activePlanAmount)... */\n      swap2\n      swap1\n      0xffffffff\n      and\n      jump\t// in\n    tag_62:\n        /* \"Staking.sol\":2093:2098  plans */\n      0x00\n        /* \"Staking.sol\":2093:2106  plans[planid] */\n      dup1\n        /* \"Staking.sol\":2099:2105  planid */\n      dup6\n        /* \"Staking.sol\":2093:2106  plans[planid] */\n      dup2\n      mstore\n      0x20\n      add\n      swap1\n      dup2\n      mstore\n      0x20\n      add\n      0x00\n      keccak256\n        /* \"Staking.sol\":2093:2123  plans[planid].activePlanAmount */\n      0x00\n      add\n      0x10\n        /* \"Staking.sol\":2093:2277  plans[planid].activePlanAmount = uint128(uint256(plans[planid].activePlanAmount)... */\n      0x0100\n      exp\n      dup2\n      sload\n      dup2\n      0xffffffffffffffffffffffffffffffff\n      mul\n      not\n      and\n      swap1\n      dup4\n      0xffffffffffffffffffffffffffffffff\n      and\n      mul\n      or\n      swap1\n      sstore\n      pop\n        /* \"Staking.sol\":2294:2298  true */\n      0x01\n        /* \"Staking.sol\":2287:2298  return true */\n      swap1\n      pop\n        /* \"Staking.sol\":1786:2305  function pause(... */\n      swap3\n      swap2\n      pop\n      pop\n      jump\t// out\n        /* \"Staking.sol\":2311:2930  function resume(... */\n    tag_23:\n        /* \"Staking.sol\":2469:2473  bool */\n      0x00\n        /* \"Staking.sol\":1184:1192  timeAlly */\n      0x02\n      0x00\n      swap1\n      sload\n      swap1\n      0x0100\n      exp\n      swap1\n      div\n      0xffffffffffffffffffffffffffffffffffffffff\n      and\n        /* \"Staking.sol\":1170:1192  msg.sender == timeAlly */\n      0xffffffffffffffffffffffffffffffffffffffff\n      and\n        /* \"Staking.sol\":1170:1180  msg.sender */\n      caller\n        /* \"Staking.sol\":1170:1192  msg.sender == timeAlly */\n      0xffffffffffffffffffffffffffffffffffffffff\n      and\n      eq\n        /* \"Staking.sol\":1162:1229  require(msg.sender == timeAlly, \"Owner TimeAlly should be calling\") */\n      iszero\n      iszero\n      tag_65\n      jumpi\n      mload(0x40)\n      0x08c379a000000000000000000000000000000000000000000000000000000000\n      dup2\n      mstore\n      0x04\n      add\n      dup1\n      dup1\n      0x20\n      add\n      dup3\n      dup2\n      sub\n      dup3\n      mstore\n      0x20\n      dup2\n      mstore\n      0x20\n      add\n      dup1\n      0x4f776e65722054696d65416c6c792073686f756c642062652063616c6c696e67\n      dup2\n      mstore\n      pop\n      0x20\n      add\n      swap2\n      pop\n      pop\n      mload(0x40)\n      dup1\n      swap2\n      sub\n      swap1\n      revert\n    tag_65:\n        /* \"Staking.sol\":2539:2540  0 */\n      0x00\n        /* \"Staking.sol\":2497:2503  stakes */\n      0x01\n        /* \"Staking.sol\":2497:2515  stakes[contractid] */\n      0x00\n        /* \"Staking.sol\":2504:2514  contractid */\n      dup5\n        /* \"Staking.sol\":2497:2515  stakes[contractid] */\n      dup2\n      mstore\n      0x20\n      add\n      swap1\n      dup2\n      mstore\n      0x20\n      add\n      0x00\n      keccak256\n        /* \"Staking.sol\":2497:2535  stakes[contractid].activePlanListIndex */\n      0x00\n      add\n      0x18\n      swap1\n      sload\n      swap1\n      0x0100\n      exp\n      swap1\n      div\n      0xffffffff\n      and\n        /* \"Staking.sol\":2497:2540  stakes[contractid].activePlanListIndex == 0 */\n      0xffffffff\n      and\n      eq\n        /* \"Staking.sol\":2489:2541  require(stakes[contractid].activePlanListIndex == 0) */\n      iszero\n      iszero\n      tag_67\n      jumpi\n      0x00\n      dup1\n      revert\n    tag_67:\n        /* \"Staking.sol\":2599:2716  plans[planid].activePlanList... */\n      tag_68\n        /* \"Staking.sol\":2714:2715  1 */\n      0x01\n        /* \"Staking.sol\":2599:2604  plans */\n      0x00\n        /* \"Staking.sol\":2599:2612  plans[planid] */\n      dup1\n        /* \"Staking.sol\":2605:2611  planid */\n      dup7\n        /* \"Staking.sol\":2599:2612  plans[planid] */\n      dup2\n      mstore\n      0x20\n      add\n      swap1\n      dup2\n      mstore\n      0x20\n      add\n      0x00\n      keccak256\n        /* \"Staking.sol\":2599:2627  plans[planid].activePlanList */\n      0x02\n      add\n        /* \"Staking.sol\":2697:2707  contractid */\n      dup5\n        /* \"Staking.sol\":2599:2709  plans[planid].activePlanList... */\n      swap1\n      dup1\n        /* \"--CODEGEN--\":39:40   */\n      0x01\n        /* \"--CODEGEN--\":33:36   */\n      dup2\n        /* \"--CODEGEN--\":27:37   */\n      sload\n        /* \"--CODEGEN--\":23:41   */\n      add\n        /* \"--CODEGEN--\":57:67   */\n      dup1\n        /* \"--CODEGEN--\":52:55   */\n      dup3\n        /* \"--CODEGEN--\":45:68   */\n      sstore\n        /* \"--CODEGEN--\":79:89   */\n      dup1\n        /* \"--CODEGEN--\":72:89   */\n      swap2\n      pop\n        /* \"--CODEGEN--\":0:93   */\n      pop\n        /* \"Staking.sol\":2599:2709  plans[planid].activePlanList... */\n      swap1\n      0x01\n      dup3\n      sub\n      swap1\n      0x00\n      mstore\n      keccak256(0x00, 0x20)\n      swap1\n      0x08\n      swap2\n      dup3\n      dup3\n      div\n      add\n      swap2\n      swap1\n      mod\n      0x04\n      mul\n      swap1\n      swap2\n      swap3\n      swap1\n      swap2\n      swap1\n      swap2\n      0x0100\n      exp\n      dup2\n      sload\n      dup2\n      0xffffffff\n      mul\n      not\n      and\n      swap1\n      dup4\n      0xffffffff\n      and\n      mul\n      or\n      swap1\n      sstore\n      pop\n        /* \"Staking.sol\":2599:2713  plans[planid].activePlanList... */\n      tag_63\n      swap1\n        /* \"Staking.sol\":2599:2716  plans[planid].activePlanList... */\n      swap2\n      swap1\n      0xffffffff\n      and\n      jump\t// in\n    tag_68:\n        /* \"Staking.sol\":2551:2557  stakes */\n      0x01\n        /* \"Staking.sol\":2551:2569  stakes[contractid] */\n      0x00\n        /* \"Staking.sol\":2558:2568  contractid */\n      dup5\n        /* \"Staking.sol\":2551:2569  stakes[contractid] */\n      dup2\n      mstore\n      0x20\n      add\n      swap1\n      dup2\n      mstore\n      0x20\n      add\n      0x00\n      keccak256\n        /* \"Staking.sol\":2551:2589  stakes[contractid].activePlanListIndex */\n      0x00\n      add\n      0x18\n        /* \"Staking.sol\":2551:2717  stakes[contractid].activePlanListIndex = uint32(plans[planid].activePlanList... */\n      0x0100\n      exp\n      dup2\n      sload\n      dup2\n      0xffffffff\n      mul\n      not\n      and\n      swap1\n      dup4\n      0xffffffff\n      and\n      mul\n      or\n      swap1\n      sstore\n      pop\n        /* \"Staking.sol\":2768:2901  uint256(plans[planid].activePlanAmount)... */\n      tag_70\n        /* \"Staking.sol\":2869:2875  stakes */\n      0x01\n        /* \"Staking.sol\":2869:2887  stakes[contractid] */\n      0x00\n        /* \"Staking.sol\":2876:2886  contractid */\n      dup5\n        /* \"Staking.sol\":2869:2887  stakes[contractid] */\n      dup2\n      mstore\n      0x20\n      add\n      swap1\n      dup2\n      mstore\n      0x20\n      add\n      0x00\n      keccak256\n        /* \"Staking.sol\":2869:2900  stakes[contractid].stakedAmount */\n      0x00\n      add\n      0x00\n      swap1\n      sload\n      swap1\n      0x0100\n      exp\n      swap1\n      div\n      0xffffffffffffffffffffffffffffffff\n      and\n        /* \"Staking.sol\":2768:2901  uint256(plans[planid].activePlanAmount)... */\n      0xffffffffffffffffffffffffffffffff\n      and\n        /* \"Staking.sol\":2776:2781  plans */\n      0x00\n        /* \"Staking.sol\":2776:2789  plans[planid] */\n      dup1\n        /* \"Staking.sol\":2782:2788  planid */\n      dup7\n        /* \"Staking.sol\":2776:2789  plans[planid] */\n      dup2\n      mstore\n      0x20\n      add\n      swap1\n      dup2\n      mstore\n      0x20\n      add\n      0x00\n      keccak256\n        /* \"Staking.sol\":2776:2806  plans[planid].activePlanAmount */\n      0x00\n      add\n      0x10\n      swap1\n      sload\n      swap1\n      0x0100\n      exp\n      swap1\n      div\n      0xffffffffffffffffffffffffffffffff\n      and\n        /* \"Staking.sol\":2768:2807  uint256(plans[planid].activePlanAmount) */\n      0xffffffffffffffffffffffffffffffff\n      and\n        /* \"Staking.sol\":2768:2868  uint256(plans[planid].activePlanAmount)... */\n      tag_71\n      swap1\n        /* \"Staking.sol\":2768:2901  uint256(plans[planid].activePlanAmount)... */\n      swap2\n      swap1\n      0xffffffff\n      and\n      jump\t// in\n    tag_70:\n        /* \"Staking.sol\":2727:2732  plans */\n      0x00\n        /* \"Staking.sol\":2727:2740  plans[planid] */\n      dup1\n        /* \"Staking.sol\":2733:2739  planid */\n      dup6\n        /* \"Staking.sol\":2727:2740  plans[planid] */\n      dup2\n      mstore\n      0x20\n      add\n      swap1\n      dup2\n      mstore\n      0x20\n      add\n      0x00\n      keccak256\n        /* \"Staking.sol\":2727:2757  plans[planid].activePlanAmount */\n      0x00\n      add\n      0x10\n        /* \"Staking.sol\":2727:2902  plans[planid].activePlanAmount = uint128(uint256(plans[planid].activePlanAmount)... */\n      0x0100\n      exp\n      dup2\n      sload\n      dup2\n      0xffffffffffffffffffffffffffffffff\n      mul\n      not\n      and\n      swap1\n      dup4\n      0xffffffffffffffffffffffffffffffff\n      and\n      mul\n      or\n      swap1\n      sstore\n      pop\n        /* \"Staking.sol\":2919:2923  true */\n      0x01\n        /* \"Staking.sol\":2912:2923  return true */\n      swap1\n      pop\n        /* \"Staking.sol\":2311:2930  function resume(... */\n      swap3\n      swap2\n      pop\n      pop\n      jump\t// out\n        /* \"Staking.sol\":696:719  address public timeAlly */\n    tag_25:\n      0x02\n      0x00\n      swap1\n      sload\n      swap1\n      0x0100\n      exp\n      swap1\n      div\n      0xffffffffffffffffffffffffffffffffffffffff\n      and\n      dup2\n      jump\t// out\n        /* \"Staking.sol\":1332:1780  function batchAddStake(... */\n    tag_31:\n        /* \"Staking.sol\":1598:1602  bool */\n      0x00\n        /* \"Staking.sol\":1184:1192  timeAlly */\n      0x02\n      0x00\n      swap1\n      sload\n      swap1\n      0x0100\n      exp\n      swap1\n      div\n      0xffffffffffffffffffffffffffffffffffffffff\n      and\n        /* \"Staking.sol\":1170:1192  msg.sender == timeAlly */\n      0xffffffffffffffffffffffffffffffffffffffff\n      and\n        /* \"Staking.sol\":1170:1180  msg.sender */\n      caller\n        /* \"Staking.sol\":1170:1192  msg.sender == timeAlly */\n      0xffffffffffffffffffffffffffffffffffffffff\n      and\n      eq\n        /* \"Staking.sol\":1162:1229  require(msg.sender == timeAlly, \"Owner TimeAlly should be calling\") */\n      iszero\n      iszero\n      tag_73\n      jumpi\n      mload(0x40)\n      0x08c379a000000000000000000000000000000000000000000000000000000000\n      dup2\n      mstore\n      0x04\n      add\n      dup1\n      dup1\n      0x20\n      add\n      dup3\n      dup2\n      sub\n      dup3\n      mstore\n      0x20\n      dup2\n      mstore\n      0x20\n      add\n      dup1\n      0x4f776e65722054696d65416c6c792073686f756c642062652063616c6c696e67\n      dup2\n      mstore\n      pop\n      0x20\n      add\n      swap2\n      pop\n      pop\n      mload(0x40)\n      dup1\n      swap2\n      sub\n      swap1\n      revert\n    tag_73:\n        /* \"Staking.sol\":1627:1636  uint256 i */\n      0x00\n        /* \"Staking.sol\":1639:1640  0 */\n      dup1\n        /* \"Staking.sol\":1627:1640  uint256 i = 0 */\n      swap1\n      pop\n        /* \"Staking.sol\":1622:1753  for (uint256 i = 0; i < size; i++) {... */\n    tag_75:\n        /* \"Staking.sol\":1646:1650  size */\n      dup8\n        /* \"Staking.sol\":1642:1643  i */\n      dup2\n        /* \"Staking.sol\":1642:1650  i < size */\n      lt\n        /* \"Staking.sol\":1622:1753  for (uint256 i = 0; i < size; i++) {... */\n      iszero\n      tag_76\n      jumpi\n        /* \"Staking.sol\":1679:1741  addStake(planid, contractid.add(i), plantime, stakedamount[i]) */\n      tag_78\n        /* \"Staking.sol\":1688:1694  planid */\n      dup8\n        /* \"Staking.sol\":1696:1713  contractid.add(i) */\n      tag_79\n        /* \"Staking.sol\":1711:1712  i */\n      dup4\n        /* \"Staking.sol\":1696:1706  contractid */\n      dup10\n        /* \"Staking.sol\":1696:1710  contractid.add */\n      tag_71\n      swap1\n        /* \"Staking.sol\":1696:1713  contractid.add(i) */\n      swap2\n      swap1\n      0xffffffff\n      and\n      jump\t// in\n    tag_79:\n        /* \"Staking.sol\":1715:1723  plantime */\n      dup8\n        /* \"Staking.sol\":1725:1737  stakedamount */\n      dup8\n      dup8\n        /* \"Staking.sol\":1738:1739  i */\n      dup7\n        /* \"Staking.sol\":1725:1740  stakedamount[i] */\n      dup2\n      dup2\n      lt\n      iszero\n      iszero\n      tag_80\n      jumpi\n      invalid\n    tag_80:\n      swap1\n      pop\n      0x20\n      mul\n      add\n      calldataload\n        /* \"Staking.sol\":1679:1687  addStake */\n      tag_40\n        /* \"Staking.sol\":1679:1741  addStake(planid, contractid.add(i), plantime, stakedamount[i]) */\n      jump\t// in\n    tag_78:\n        /* \"Staking.sol\":1671:1742  require(addStake(planid, contractid.add(i), plantime, stakedamount[i])) */\n      iszero\n      iszero\n      tag_81\n      jumpi\n      0x00\n      dup1\n      revert\n    tag_81:\n        /* \"Staking.sol\":1652:1655  i++ */\n      dup1\n      dup1\n      0x01\n      add\n      swap2\n      pop\n      pop\n        /* \"Staking.sol\":1622:1753  for (uint256 i = 0; i < size; i++) {... */\n      jump(tag_75)\n    tag_76:\n      pop\n        /* \"Staking.sol\":1769:1773  true */\n      0x01\n        /* \"Staking.sol\":1762:1773  return true */\n      swap1\n      pop\n        /* \"Staking.sol\":1332:1780  function batchAddStake(... */\n      swap7\n      swap6\n      pop\n      pop\n      pop\n      pop\n      pop\n      pop\n      jump\t// out\n        /* \"Staking.sol\":6752:6945  function viewStakedAmount(uint256 contractid)... */\n    tag_34:\n        /* \"Staking.sol\":6867:6874  uint256 */\n      0x00\n        /* \"Staking.sol\":1184:1192  timeAlly */\n      0x02\n      0x00\n      swap1\n      sload\n      swap1\n      0x0100\n      exp\n      swap1\n      div\n      0xffffffffffffffffffffffffffffffffffffffff\n      and\n        /* \"Staking.sol\":1170:1192  msg.sender == timeAlly */\n      0xffffffffffffffffffffffffffffffffffffffff\n      and\n        /* \"Staking.sol\":1170:1180  msg.sender */\n      caller\n        /* \"Staking.sol\":1170:1192  msg.sender == timeAlly */\n      0xffffffffffffffffffffffffffffffffffffffff\n      and\n      eq\n        /* \"Staking.sol\":1162:1229  require(msg.sender == timeAlly, \"Owner TimeAlly should be calling\") */\n      iszero\n      iszero\n      tag_83\n      jumpi\n      mload(0x40)\n      0x08c379a000000000000000000000000000000000000000000000000000000000\n      dup2\n      mstore\n      0x04\n      add\n      dup1\n      dup1\n      0x20\n      add\n      dup3\n      dup2\n      sub\n      dup3\n      mstore\n      0x20\n      dup2\n      mstore\n      0x20\n      add\n      dup1\n      0x4f776e65722054696d65416c6c792073686f756c642062652063616c6c696e67\n      dup2\n      mstore\n      pop\n      0x20\n      add\n      swap2\n      pop\n      pop\n      mload(0x40)\n      dup1\n      swap2\n      sub\n      swap1\n      revert\n    tag_83:\n        /* \"Staking.sol\":6905:6911  stakes */\n      0x01\n        /* \"Staking.sol\":6905:6923  stakes[contractid] */\n      0x00\n        /* \"Staking.sol\":6912:6922  contractid */\n      dup4\n        /* \"Staking.sol\":6905:6923  stakes[contractid] */\n      dup2\n      mstore\n      0x20\n      add\n      swap1\n      dup2\n      mstore\n      0x20\n      add\n      0x00\n      keccak256\n        /* \"Staking.sol\":6905:6936  stakes[contractid].stakedAmount */\n      0x00\n      add\n      0x00\n      swap1\n      sload\n      swap1\n      0x0100\n      exp\n      swap1\n      div\n      0xffffffffffffffffffffffffffffffff\n      and\n        /* \"Staking.sol\":6897:6937  uint256(stakes[contractid].stakedAmount) */\n      0xffffffffffffffffffffffffffffffff\n      and\n        /* \"Staking.sol\":6890:6938  return(uint256(stakes[contractid].stakedAmount)) */\n      swap1\n      pop\n        /* \"Staking.sol\":6752:6945  function viewStakedAmount(uint256 contractid)... */\n      swap2\n      swap1\n      pop\n      jump\t// out\n        /* \"Staking.sol\":543:580  mapping(uint256 => Plan) public plans */\n    tag_37:\n      mstore(0x20, 0x00)\n      dup1\n      0x00\n      mstore\n      keccak256(0x00, 0x40)\n      0x00\n      swap2\n      pop\n      swap1\n      pop\n      dup1\n      0x00\n      add\n      0x00\n      swap1\n      sload\n      swap1\n      0x0100\n      exp\n      swap1\n      div\n      0xffffffffffffffffffffffffffffffff\n      and\n      swap1\n      dup1\n      0x00\n      add\n      0x10\n      swap1\n      sload\n      swap1\n      0x0100\n      exp\n      swap1\n      div\n      0xffffffffffffffffffffffffffffffff\n      and\n      swap1\n      dup1\n      0x01\n      add\n      0x00\n      swap1\n      sload\n      swap1\n      0x0100\n      exp\n      swap1\n      div\n      0xffffffffffffffffffffffffffffffff\n      and\n      swap1\n      dup1\n      0x01\n      add\n      0x10\n      swap1\n      sload\n      swap1\n      0x0100\n      exp\n      swap1\n      div\n      0xffffffffffffffffffffffffffffffff\n      and\n      swap1\n      pop\n      dup5\n      jump\t// out\n        /* \"Staking.sol\":6951:7677  function addStake(... */\n    tag_40:\n        /* \"Staking.sol\":7141:7145  bool */\n      0x00\n        /* \"Staking.sol\":1184:1192  timeAlly */\n      0x02\n      0x00\n      swap1\n      sload\n      swap1\n      0x0100\n      exp\n      swap1\n      div\n      0xffffffffffffffffffffffffffffffffffffffff\n      and\n        /* \"Staking.sol\":1170:1192  msg.sender == timeAlly */\n      0xffffffffffffffffffffffffffffffffffffffff\n      and\n        /* \"Staking.sol\":1170:1180  msg.sender */\n      caller\n        /* \"Staking.sol\":1170:1192  msg.sender == timeAlly */\n      0xffffffffffffffffffffffffffffffffffffffff\n      and\n      eq\n        /* \"Staking.sol\":1162:1229  require(msg.sender == timeAlly, \"Owner TimeAlly should be calling\") */\n      iszero\n      iszero\n      tag_86\n      jumpi\n      mload(0x40)\n      0x08c379a000000000000000000000000000000000000000000000000000000000\n      dup2\n      mstore\n      0x04\n      add\n      dup1\n      dup1\n      0x20\n      add\n      dup3\n      dup2\n      sub\n      dup3\n      mstore\n      0x20\n      dup2\n      mstore\n      0x20\n      add\n      dup1\n      0x4f776e65722054696d65416c6c792073686f756c642062652063616c6c696e67\n      dup2\n      mstore\n      pop\n      0x20\n      add\n      swap2\n      pop\n      pop\n      mload(0x40)\n      dup1\n      swap2\n      sub\n      swap1\n      revert\n    tag_86:\n        /* \"Staking.sol\":7161:7179  Stake memory stake */\n      tag_88\n      tag_89\n      jump\t// in\n    tag_88:\n        /* \"Staking.sol\":7217:7225  plantime */\n      dup4\n        /* \"Staking.sol\":7193:7198  stake */\n      dup2\n        /* \"Staking.sol\":7193:7207  stake.planTime */\n      0x20\n      add\n        /* \"Staking.sol\":7193:7226  stake.planTime = uint32(plantime) */\n      swap1\n      0xffffffff\n      and\n      swap1\n      dup2\n      0xffffffff\n      and\n      dup2\n      mstore\n      pop\n      pop\n        /* \"Staking.sol\":7269:7281  stakedamount */\n      dup3\n        /* \"Staking.sol\":7240:7245  stake */\n      dup2\n        /* \"Staking.sol\":7240:7258  stake.stakedAmount */\n      0x00\n      add\n        /* \"Staking.sol\":7240:7282  stake.stakedAmount = uint128(stakedamount) */\n      swap1\n      0xffffffffffffffffffffffffffffffff\n      and\n      swap1\n      dup2\n      0xffffffffffffffffffffffffffffffff\n      and\n      dup2\n      mstore\n      pop\n      pop\n        /* \"Staking.sol\":7315:7316  0 */\n      0x00\n        /* \"Staking.sol\":7296:7301  stake */\n      dup2\n        /* \"Staking.sol\":7296:7312  stake.monthCount */\n      0x40\n      add\n        /* \"Staking.sol\":7296:7316  stake.monthCount = 0 */\n      swap1\n      0xffffffff\n      and\n      swap1\n      dup2\n      0xffffffff\n      and\n      dup2\n      mstore\n      pop\n      pop\n        /* \"Staking.sol\":7365:7425  plans[planid].activePlanList.push(uint32(contractid)).sub(1) */\n      tag_90\n        /* \"Staking.sol\":7423:7424  1 */\n      0x01\n        /* \"Staking.sol\":7365:7370  plans */\n      0x00\n        /* \"Staking.sol\":7365:7378  plans[planid] */\n      dup1\n        /* \"Staking.sol\":7371:7377  planid */\n      dup10\n        /* \"Staking.sol\":7365:7378  plans[planid] */\n      dup2\n      mstore\n      0x20\n      add\n      swap1\n      dup2\n      mstore\n      0x20\n      add\n      0x00\n      keccak256\n        /* \"Staking.sol\":7365:7393  plans[planid].activePlanList */\n      0x02\n      add\n        /* \"Staking.sol\":7406:7416  contractid */\n      dup8\n        /* \"Staking.sol\":7365:7418  plans[planid].activePlanList.push(uint32(contractid)) */\n      swap1\n      dup1\n        /* \"--CODEGEN--\":39:40   */\n      0x01\n        /* \"--CODEGEN--\":33:36   */\n      dup2\n        /* \"--CODEGEN--\":27:37   */\n      sload\n        /* \"--CODEGEN--\":23:41   */\n      add\n        /* \"--CODEGEN--\":57:67   */\n      dup1\n        /* \"--CODEGEN--\":52:55   */\n      dup3\n        /* \"--CODEGEN--\":45:68   */\n      sstore\n        /* \"--CODEGEN--\":79:89   */\n      dup1\n        /* \"--CODEGEN--\":72:89   */\n      swap2\n      pop\n        /* \"--CODEGEN--\":0:93   */\n      pop\n        /* \"Staking.sol\":7365:7418  plans[planid].activePlanList.push(uint32(contractid)) */\n      swap1\n      0x01\n      dup3\n      sub\n      swap1\n      0x00\n      mstore\n      keccak256(0x00, 0x20)\n      swap1\n      0x08\n      swap2\n      dup3\n      dup3\n      div\n      add\n      swap2\n      swap1\n      mod\n      0x04\n      mul\n      swap1\n      swap2\n      swap3\n      swap1\n      swap2\n      swap1\n      swap2\n      0x0100\n      exp\n      dup2\n      sload\n      dup2\n      0xffffffff\n      mul\n      not\n      and\n      swap1\n      dup4\n      0xffffffff\n      and\n      mul\n      or\n      swap1\n      sstore\n      pop\n        /* \"Staking.sol\":7365:7422  plans[planid].activePlanList.push(uint32(contractid)).sub */\n      tag_63\n      swap1\n        /* \"Staking.sol\":7365:7425  plans[planid].activePlanList.push(uint32(contractid)).sub(1) */\n      swap2\n      swap1\n      0xffffffff\n      and\n      jump\t// in\n    tag_90:\n        /* \"Staking.sol\":7330:7335  stake */\n      dup2\n        /* \"Staking.sol\":7330:7355  stake.activePlanListIndex */\n      0x60\n      add\n        /* \"Staking.sol\":7330:7426  stake.activePlanListIndex = uint32(plans[planid].activePlanList.push(uint32(contractid)).sub(1)) */\n      swap1\n      0xffffffff\n      and\n      swap1\n      dup2\n      0xffffffff\n      and\n      dup2\n      mstore\n      pop\n      pop\n        /* \"Staking.sol\":7475:7487  stakedamount */\n      dup3\n        /* \"Staking.sol\":7440:7445  stake */\n      dup2\n        /* \"Staking.sol\":7440:7462  stake.monthlyPrincipal */\n      0x80\n      add\n      mload\n        /* \"Staking.sol\":7463:7464  0 */\n      0x00\n        /* \"Staking.sol\":7440:7465  stake.monthlyPrincipal[0] */\n      0x18\n      dup2\n      lt\n      iszero\n      iszero\n      tag_92\n      jumpi\n      invalid\n    tag_92:\n      0x20\n      mul\n      add\n        /* \"Staking.sol\":7440:7488  stake.monthlyPrincipal[0] = uint32(stakedamount) */\n      swap1\n      0xffffffff\n      and\n      swap1\n      dup2\n      0xffffffff\n      and\n      dup2\n      mstore\n      pop\n      pop\n        /* \"Staking.sol\":7523:7528  stake */\n      dup1\n        /* \"Staking.sol\":7502:7508  stakes */\n      0x01\n        /* \"Staking.sol\":7502:7520  stakes[contractid] */\n      0x00\n        /* \"Staking.sol\":7509:7519  contractid */\n      dup8\n        /* \"Staking.sol\":7502:7520  stakes[contractid] */\n      dup2\n      mstore\n      0x20\n      add\n      swap1\n      dup2\n      mstore\n      0x20\n      add\n      0x00\n      keccak256\n        /* \"Staking.sol\":7502:7528  stakes[contractid] = stake */\n      0x00\n      dup3\n      add\n      mload\n      dup2\n      0x00\n      add\n      exp(0x0100, 0x00)\n      dup2\n      sload\n      dup2\n      0xffffffffffffffffffffffffffffffff\n      mul\n      not\n      and\n      swap1\n      dup4\n      0xffffffffffffffffffffffffffffffff\n      and\n      mul\n      or\n      swap1\n      sstore\n      pop\n      0x20\n      dup3\n      add\n      mload\n      dup2\n      0x00\n      add\n      exp(0x0100, 0x10)\n      dup2\n      sload\n      dup2\n      0xffffffff\n      mul\n      not\n      and\n      swap1\n      dup4\n      0xffffffff\n      and\n      mul\n      or\n      swap1\n      sstore\n      pop\n      0x40\n      dup3\n      add\n      mload\n      dup2\n      0x00\n      add\n      exp(0x0100, 0x14)\n      dup2\n      sload\n      dup2\n      0xffffffff\n      mul\n      not\n      and\n      swap1\n      dup4\n      0xffffffff\n      and\n      mul\n      or\n      swap1\n      sstore\n      pop\n      0x60\n      dup3\n      add\n      mload\n      dup2\n      0x00\n      add\n      exp(0x0100, 0x18)\n      dup2\n      sload\n      dup2\n      0xffffffff\n      mul\n      not\n      and\n      swap1\n      dup4\n      0xffffffff\n      and\n      mul\n      or\n      swap1\n      sstore\n      pop\n      0x80\n      dup3\n      add\n      mload\n      dup2\n      0x01\n      add\n      swap1\n      0x18\n      tag_93\n      swap3\n      swap2\n      swap1\n      tag_94\n      jump\t// in\n    tag_93:\n      pop\n      swap1\n      pop\n      pop\n        /* \"Staking.sol\":7583:7640  uint256(plans[planid].activePlanAmount).add(stakedamount) */\n      tag_95\n        /* \"Staking.sol\":7627:7639  stakedamount */\n      dup4\n        /* \"Staking.sol\":7591:7596  plans */\n      0x00\n        /* \"Staking.sol\":7591:7604  plans[planid] */\n      dup1\n        /* \"Staking.sol\":7597:7603  planid */\n      dup10\n        /* \"Staking.sol\":7591:7604  plans[planid] */\n      dup2\n      mstore\n      0x20\n      add\n      swap1\n      dup2\n      mstore\n      0x20\n      add\n      0x00\n      keccak256\n        /* \"Staking.sol\":7591:7621  plans[planid].activePlanAmount */\n      0x00\n      add\n      0x10\n      swap1\n      sload\n      swap1\n      0x0100\n      exp\n      swap1\n      div\n      0xffffffffffffffffffffffffffffffff\n      and\n        /* \"Staking.sol\":7583:7622  uint256(plans[planid].activePlanAmount) */\n      0xffffffffffffffffffffffffffffffff\n      and\n        /* \"Staking.sol\":7583:7626  uint256(plans[planid].activePlanAmount).add */\n      tag_71\n      swap1\n        /* \"Staking.sol\":7583:7640  uint256(plans[planid].activePlanAmount).add(stakedamount) */\n      swap2\n      swap1\n      0xffffffff\n      and\n      jump\t// in\n    tag_95:\n        /* \"Staking.sol\":7542:7547  plans */\n      0x00\n        /* \"Staking.sol\":7542:7555  plans[planid] */\n      dup1\n        /* \"Staking.sol\":7548:7554  planid */\n      dup9\n        /* \"Staking.sol\":7542:7555  plans[planid] */\n      dup2\n      mstore\n      0x20\n      add\n      swap1\n      dup2\n      mstore\n      0x20\n      add\n      0x00\n      keccak256\n        /* \"Staking.sol\":7542:7572  plans[planid].activePlanAmount */\n      0x00\n      add\n      0x10\n        /* \"Staking.sol\":7542:7641  plans[planid].activePlanAmount = uint128(uint256(plans[planid].activePlanAmount).add(stakedamount)) */\n      0x0100\n      exp\n      dup2\n      sload\n      dup2\n      0xffffffffffffffffffffffffffffffff\n      mul\n      not\n      and\n      swap1\n      dup4\n      0xffffffffffffffffffffffffffffffff\n      and\n      mul\n      or\n      swap1\n      sstore\n      pop\n        /* \"Staking.sol\":7662:7666  true */\n      0x01\n        /* \"Staking.sol\":7655:7666  return true */\n      swap2\n      pop\n      pop\n        /* \"Staking.sol\":6951:7677  function addStake(... */\n      swap5\n      swap4\n      pop\n      pop\n      pop\n      pop\n      jump\t// out\n        /* \"Staking.sol\":618:658  mapping (uint256 => Stake) public stakes */\n    tag_43:\n      mstore(0x20, 0x01)\n      dup1\n      0x00\n      mstore\n      keccak256(0x00, 0x40)\n      0x00\n      swap2\n      pop\n      swap1\n      pop\n      dup1\n      0x00\n      add\n      0x00\n      swap1\n      sload\n      swap1\n      0x0100\n      exp\n      swap1\n      div\n      0xffffffffffffffffffffffffffffffff\n      and\n      swap1\n      dup1\n      0x00\n      add\n      0x10\n      swap1\n      sload\n      swap1\n      0x0100\n      exp\n      swap1\n      div\n      0xffffffff\n      and\n      swap1\n      dup1\n      0x00\n      add\n      0x14\n      swap1\n      sload\n      swap1\n      0x0100\n      exp\n      swap1\n      div\n      0xffffffff\n      and\n      swap1\n      dup1\n      0x00\n      add\n      0x18\n      swap1\n      sload\n      swap1\n      0x0100\n      exp\n      swap1\n      div\n      0xffffffff\n      and\n      swap1\n      pop\n      dup5\n      jump\t// out\n        /* \"Staking.sol\":4163:6358  function monthlyPlanHandler(... */\n    tag_46:\n        /* \"Staking.sol\":4327:4340  uint[] memory */\n      0x60\n        /* \"Staking.sol\":4354:4358  uint */\n      0x00\n        /* \"Staking.sol\":1184:1192  timeAlly */\n      0x02\n      0x00\n      swap1\n      sload\n      swap1\n      0x0100\n      exp\n      swap1\n      div\n      0xffffffffffffffffffffffffffffffffffffffff\n      and\n        /* \"Staking.sol\":1170:1192  msg.sender == timeAlly */\n      0xffffffffffffffffffffffffffffffffffffffff\n      and\n        /* \"Staking.sol\":1170:1180  msg.sender */\n      caller\n        /* \"Staking.sol\":1170:1192  msg.sender == timeAlly */\n      0xffffffffffffffffffffffffffffffffffffffff\n      and\n      eq\n        /* \"Staking.sol\":1162:1229  require(msg.sender == timeAlly, \"Owner TimeAlly should be calling\") */\n      iszero\n      iszero\n      tag_97\n      jumpi\n      mload(0x40)\n      0x08c379a000000000000000000000000000000000000000000000000000000000\n      dup2\n      mstore\n      0x04\n      add\n      dup1\n      dup1\n      0x20\n      add\n      dup3\n      dup2\n      sub\n      dup3\n      mstore\n      0x20\n      dup2\n      mstore\n      0x20\n      add\n      dup1\n      0x4f776e65722054696d65416c6c792073686f756c642062652063616c6c696e67\n      dup2\n      mstore\n      pop\n      0x20\n      add\n      swap2\n      pop\n      pop\n      mload(0x40)\n      dup1\n      swap2\n      sub\n      swap1\n      revert\n    tag_97:\n        /* \"Staking.sol\":4420:4425  plans */\n      0x00\n        /* \"Staking.sol\":4420:4433  plans[planid] */\n      dup1\n        /* \"Staking.sol\":4426:4432  planid */\n      dup6\n        /* \"Staking.sol\":4420:4433  plans[planid] */\n      dup2\n      mstore\n      0x20\n      add\n      swap1\n      dup2\n      mstore\n      0x20\n      add\n      0x00\n      keccak256\n        /* \"Staking.sol\":4420:4445  plans[planid].updateCount */\n      0x01\n      add\n      0x10\n      swap1\n      sload\n      swap1\n      0x0100\n      exp\n      swap1\n      div\n      0xffffffffffffffffffffffffffffffff\n      and\n        /* \"Staking.sol\":4382:4445  plans[planid].activePlanList.length > plans[planid].updateCount */\n      0xffffffffffffffffffffffffffffffff\n      and\n        /* \"Staking.sol\":4382:4387  plans */\n      0x00\n        /* \"Staking.sol\":4382:4395  plans[planid] */\n      dup1\n        /* \"Staking.sol\":4388:4394  planid */\n      dup7\n        /* \"Staking.sol\":4382:4395  plans[planid] */\n      dup2\n      mstore\n      0x20\n      add\n      swap1\n      dup2\n      mstore\n      0x20\n      add\n      0x00\n      keccak256\n        /* \"Staking.sol\":4382:4410  plans[planid].activePlanList */\n      0x02\n      add\n        /* \"Staking.sol\":4382:4417  plans[planid].activePlanList.length */\n      dup1\n      sload\n      swap1\n      pop\n        /* \"Staking.sol\":4382:4445  plans[planid].activePlanList.length > plans[planid].updateCount */\n      gt\n        /* \"Staking.sol\":4374:4446  require(plans[planid].activePlanList.length > plans[planid].updateCount) */\n      iszero\n      iszero\n      tag_99\n      jumpi\n      0x00\n      dup1\n      revert\n    tag_99:\n        /* \"Staking.sol\":4456:4472  Plan memory plan */\n      tag_100\n      tag_101\n      jump\t// in\n    tag_100:\n        /* \"Staking.sol\":4475:4480  plans */\n      0x00\n        /* \"Staking.sol\":4475:4488  plans[planid] */\n      dup1\n        /* \"Staking.sol\":4481:4487  planid */\n      dup7\n        /* \"Staking.sol\":4475:4488  plans[planid] */\n      dup2\n      mstore\n      0x20\n      add\n      swap1\n      dup2\n      mstore\n      0x20\n      add\n      0x00\n      keccak256\n        /* \"Staking.sol\":4456:4488  Plan memory plan = plans[planid] */\n      0xa0\n      mload(0x40)\n      swap1\n      dup2\n      add\n      0x40\n      mstore\n      swap1\n      dup2\n      0x00\n      dup3\n      add\n      0x00\n      swap1\n      sload\n      swap1\n      0x0100\n      exp\n      swap1\n      div\n      0xffffffffffffffffffffffffffffffff\n      and\n      0xffffffffffffffffffffffffffffffff\n      and\n      0xffffffffffffffffffffffffffffffff\n      and\n      dup2\n      mstore\n      0x20\n      add\n      0x00\n      dup3\n      add\n      0x10\n      swap1\n      sload\n      swap1\n      0x0100\n      exp\n      swap1\n      div\n      0xffffffffffffffffffffffffffffffff\n      and\n      0xffffffffffffffffffffffffffffffff\n      and\n      0xffffffffffffffffffffffffffffffff\n      and\n      dup2\n      mstore\n      0x20\n      add\n      0x01\n      dup3\n      add\n      0x00\n      swap1\n      sload\n      swap1\n      0x0100\n      exp\n      swap1\n      div\n      0xffffffffffffffffffffffffffffffff\n      and\n      0xffffffffffffffffffffffffffffffff\n      and\n      0xffffffffffffffffffffffffffffffff\n      and\n      dup2\n      mstore\n      0x20\n      add\n      0x01\n      dup3\n      add\n      0x10\n      swap1\n      sload\n      swap1\n      0x0100\n      exp\n      swap1\n      div\n      0xffffffffffffffffffffffffffffffff\n      and\n      0xffffffffffffffffffffffffffffffff\n      and\n      0xffffffffffffffffffffffffffffffff\n      and\n      dup2\n      mstore\n      0x20\n      add\n      0x02\n      dup3\n      add\n      dup1\n      sload\n      dup1\n      0x20\n      mul\n      0x20\n      add\n      mload(0x40)\n      swap1\n      dup2\n      add\n      0x40\n      mstore\n      dup1\n      swap3\n      swap2\n      swap1\n      dup2\n      dup2\n      mstore\n      0x20\n      add\n      dup3\n      dup1\n      sload\n      dup1\n      iszero\n      tag_102\n      jumpi\n      0x20\n      mul\n      dup3\n      add\n      swap2\n      swap1\n      0x00\n      mstore\n      keccak256(0x00, 0x20)\n      swap1\n      0x00\n      swap1\n    tag_103:\n      dup3\n      dup3\n      swap1\n      sload\n      swap1\n      0x0100\n      exp\n      swap1\n      div\n      0xffffffff\n      and\n      0xffffffff\n      and\n      dup2\n      mstore\n      0x20\n      add\n      swap1\n      0x04\n      add\n      swap1\n      0x20\n      dup3\n      0x03\n      add\n      div\n      swap3\n      dup4\n      add\n      swap3\n      0x01\n      sub\n      dup3\n      mul\n      swap2\n      pop\n      dup1\n      dup5\n      gt\n      tag_103\n      jumpi\n      swap1\n      pop\n    tag_102:\n      pop\n      pop\n      pop\n      pop\n      pop\n      dup2\n      mstore\n      pop\n      pop\n      swap1\n      pop\n        /* \"Staking.sol\":4498:4516  Stake memory stake */\n      tag_104\n      tag_89\n      jump\t// in\n    tag_104:\n        /* \"Staking.sol\":4526:4544  uint256 contractid */\n      0x00\n        /* \"Staking.sol\":4554:4567  uint256 index */\n      dup1\n        /* \"Staking.sol\":4577:4593  uint256 interest */\n      0x00\n        /* \"Staking.sol\":4603:4629  uint256 principalToRelease */\n      dup1\n        /* \"Staking.sol\":4639:4667  uint256[] memory userPayment */\n      0x60\n        /* \"Staking.sol\":4677:4686  uint256 i */\n      0x00\n        /* \"Staking.sol\":4697:4701  plan */\n      dup8\n        /* \"Staking.sol\":4697:4713  plan.updateCount */\n      0x60\n      add\n      mload\n        /* \"Staking.sol\":4689:4714  uint256(plan.updateCount) */\n      0xffffffffffffffffffffffffffffffff\n      and\n        /* \"Staking.sol\":4677:4714  uint256 i = uint256(plan.updateCount) */\n      swap1\n      pop\n        /* \"Staking.sol\":4724:4737  uint256 limit */\n      0x00\n        /* \"Staking.sol\":4766:4770  plan */\n      dup9\n        /* \"Staking.sol\":4766:4785  plan.activePlanList */\n      0x80\n      add\n      mload\n        /* \"Staking.sol\":4766:4792  plan.activePlanList.length */\n      mload\n        /* \"Staking.sol\":4751:4762  i.add(size) */\n      tag_105\n        /* \"Staking.sol\":4757:4761  size */\n      dup14\n        /* \"Staking.sol\":4751:4752  i */\n      dup5\n        /* \"Staking.sol\":4751:4756  i.add */\n      tag_71\n      swap1\n        /* \"Staking.sol\":4751:4762  i.add(size) */\n      swap2\n      swap1\n      0xffffffff\n      and\n      jump\t// in\n    tag_105:\n        /* \"Staking.sol\":4751:4792  i.add(size) >= plan.activePlanList.length */\n      lt\n      iszero\n        /* \"Staking.sol\":4747:4983  if (i.add(size) >= plan.activePlanList.length) {... */\n      iszero\n      tag_106\n      jumpi\n        /* \"Staking.sol\":4816:4820  plan */\n      dup9\n        /* \"Staking.sol\":4816:4835  plan.activePlanList */\n      0x80\n      add\n      mload\n        /* \"Staking.sol\":4816:4842  plan.activePlanList.length */\n      mload\n        /* \"Staking.sol\":4808:4842  limit = plan.activePlanList.length */\n      swap1\n      pop\n        /* \"Staking.sol\":4875:4876  0 */\n      0x00\n        /* \"Staking.sol\":4856:4860  plan */\n      dup10\n        /* \"Staking.sol\":4856:4872  plan.updateCount */\n      0x60\n      add\n        /* \"Staking.sol\":4856:4876  plan.updateCount = 0 */\n      swap1\n      0xffffffffffffffffffffffffffffffff\n      and\n      swap1\n      dup2\n      0xffffffffffffffffffffffffffffffff\n      and\n      dup2\n      mstore\n      pop\n      pop\n        /* \"Staking.sol\":4747:4983  if (i.add(size) >= plan.activePlanList.length) {... */\n      jump(tag_107)\n    tag_106:\n        /* \"Staking.sol\":4914:4925  i.add(size) */\n      tag_108\n        /* \"Staking.sol\":4920:4924  size */\n      dup13\n        /* \"Staking.sol\":4914:4915  i */\n      dup4\n        /* \"Staking.sol\":4914:4919  i.add */\n      tag_71\n      swap1\n        /* \"Staking.sol\":4914:4925  i.add(size) */\n      swap2\n      swap1\n      0xffffffff\n      and\n      jump\t// in\n    tag_108:\n        /* \"Staking.sol\":4906:4925  limit = i.add(size) */\n      swap1\n      pop\n        /* \"Staking.sol\":4966:4971  limit */\n      dup1\n        /* \"Staking.sol\":4939:4943  plan */\n      dup10\n        /* \"Staking.sol\":4939:4955  plan.updateCount */\n      0x60\n      add\n        /* \"Staking.sol\":4939:4972  plan.updateCount = uint128(limit) */\n      swap1\n      0xffffffffffffffffffffffffffffffff\n      and\n      swap1\n      dup2\n      0xffffffffffffffffffffffffffffffff\n      and\n      dup2\n      mstore\n      pop\n      pop\n        /* \"Staking.sol\":4747:4983  if (i.add(size) >= plan.activePlanList.length) {... */\n    tag_107:\n        /* \"Staking.sol\":4992:6177  while (i < limit) {... */\n    tag_109:\n        /* \"Staking.sol\":5003:5008  limit */\n      dup1\n        /* \"Staking.sol\":4999:5000  i */\n      dup3\n        /* \"Staking.sol\":4999:5008  i < limit */\n      lt\n        /* \"Staking.sol\":4992:6177  while (i < limit) {... */\n      iszero\n      tag_110\n      jumpi\n        /* \"Staking.sol\":5045:5049  plan */\n      dup9\n        /* \"Staking.sol\":5045:5064  plan.activePlanList */\n      0x80\n      add\n      mload\n        /* \"Staking.sol\":5065:5066  i */\n      dup3\n        /* \"Staking.sol\":5045:5067  plan.activePlanList[i] */\n      dup2\n      mload\n      dup2\n      lt\n      iszero\n      iszero\n      tag_111\n      jumpi\n      invalid\n    tag_111:\n      swap1\n      0x20\n      add\n      swap1\n      0x20\n      mul\n      add\n      mload\n        /* \"Staking.sol\":5037:5068  uint256(plan.activePlanList[i]) */\n      0xffffffff\n      and\n        /* \"Staking.sol\":5024:5068  contractid = uint256(plan.activePlanList[i]) */\n      swap7\n      pop\n        /* \"Staking.sol\":5090:5096  stakes */\n      0x01\n        /* \"Staking.sol\":5090:5108  stakes[contractid] */\n      0x00\n        /* \"Staking.sol\":5097:5107  contractid */\n      dup9\n        /* \"Staking.sol\":5090:5108  stakes[contractid] */\n      dup2\n      mstore\n      0x20\n      add\n      swap1\n      dup2\n      mstore\n      0x20\n      add\n      0x00\n      keccak256\n        /* \"Staking.sol\":5082:5108  stake = stakes[contractid] */\n      0xa0\n      mload(0x40)\n      swap1\n      dup2\n      add\n      0x40\n      mstore\n      swap1\n      dup2\n      0x00\n      dup3\n      add\n      0x00\n      swap1\n      sload\n      swap1\n      0x0100\n      exp\n      swap1\n      div\n      0xffffffffffffffffffffffffffffffff\n      and\n      0xffffffffffffffffffffffffffffffff\n      and\n      0xffffffffffffffffffffffffffffffff\n      and\n      dup2\n      mstore\n      0x20\n      add\n      0x00\n      dup3\n      add\n      0x10\n      swap1\n      sload\n      swap1\n      0x0100\n      exp\n      swap1\n      div\n      0xffffffff\n      and\n      0xffffffff\n      and\n      0xffffffff\n      and\n      dup2\n      mstore\n      0x20\n      add\n      0x00\n      dup3\n      add\n      0x14\n      swap1\n      sload\n      swap1\n      0x0100\n      exp\n      swap1\n      div\n      0xffffffff\n      and\n      0xffffffff\n      and\n      0xffffffff\n      and\n      dup2\n      mstore\n      0x20\n      add\n      0x00\n      dup3\n      add\n      0x18\n      swap1\n      sload\n      swap1\n      0x0100\n      exp\n      swap1\n      div\n      0xffffffff\n      and\n      0xffffffff\n      and\n      0xffffffff\n      and\n      dup2\n      mstore\n      0x20\n      add\n      0x01\n      dup3\n      add\n      0x18\n      dup1\n      0x20\n      mul\n      mload(0x40)\n      swap1\n      dup2\n      add\n      0x40\n      mstore\n      dup1\n      swap3\n      swap2\n      swap1\n      dup3\n      0x18\n      dup1\n      iszero\n      tag_112\n      jumpi\n      0x20\n      mul\n      dup3\n      add\n      swap2\n      0x00\n      swap1\n    tag_113:\n      dup3\n      dup3\n      swap1\n      sload\n      swap1\n      0x0100\n      exp\n      swap1\n      div\n      0xffffffff\n      and\n      0xffffffff\n      and\n      dup2\n      mstore\n      0x20\n      add\n      swap1\n      0x04\n      add\n      swap1\n      0x20\n      dup3\n      0x03\n      add\n      div\n      swap3\n      dup4\n      add\n      swap3\n      0x01\n      sub\n      dup3\n      mul\n      swap2\n      pop\n      dup1\n      dup5\n      gt\n      tag_113\n      jumpi\n      swap1\n      pop\n    tag_112:\n      pop\n      pop\n      pop\n      pop\n      pop\n      dup2\n      mstore\n      pop\n      pop\n      swap8\n      pop\n        /* \"Staking.sol\":5157:5162  stake */\n      dup8\n        /* \"Staking.sol\":5157:5171  stake.planTime */\n      0x20\n      add\n      mload\n        /* \"Staking.sol\":5138:5171  stake.monthCount % stake.planTime */\n      0xffffffff\n      and\n        /* \"Staking.sol\":5138:5143  stake */\n      dup9\n        /* \"Staking.sol\":5138:5154  stake.monthCount */\n      0x40\n      add\n      mload\n        /* \"Staking.sol\":5138:5171  stake.monthCount % stake.planTime */\n      0xffffffff\n      and\n      dup2\n      iszero\n      iszero\n      tag_114\n      jumpi\n      invalid\n    tag_114:\n      mod\n        /* \"Staking.sol\":5130:5172  uint256(stake.monthCount % stake.planTime) */\n      0xffffffff\n      and\n        /* \"Staking.sol\":5122:5172  index = uint256(stake.monthCount % stake.planTime) */\n      swap6\n      pop\n        /* \"Staking.sol\":5197:5280  uint256(stake.stakedAmount * plan.nrtBalance).div(uint256(plan.lastPlanAmount * 2)) */\n      tag_115\n        /* \"Staking.sol\":5277:5278  2 */\n      0x02\n        /* \"Staking.sol\":5255:5259  plan */\n      dup11\n        /* \"Staking.sol\":5255:5274  plan.lastPlanAmount */\n      0x40\n      add\n      mload\n        /* \"Staking.sol\":5255:5278  plan.lastPlanAmount * 2 */\n      mul\n        /* \"Staking.sol\":5247:5279  uint256(plan.lastPlanAmount * 2) */\n      0xffffffffffffffffffffffffffffffff\n      and\n        /* \"Staking.sol\":5226:5230  plan */\n      dup11\n        /* \"Staking.sol\":5226:5241  plan.nrtBalance */\n      0x00\n      add\n      mload\n        /* \"Staking.sol\":5205:5210  stake */\n      dup11\n        /* \"Staking.sol\":5205:5223  stake.stakedAmount */\n      0x00\n      add\n      mload\n        /* \"Staking.sol\":5205:5241  stake.stakedAmount * plan.nrtBalance */\n      mul\n        /* \"Staking.sol\":5197:5242  uint256(stake.stakedAmount * plan.nrtBalance) */\n      0xffffffffffffffffffffffffffffffff\n      and\n        /* \"Staking.sol\":5197:5246  uint256(stake.stakedAmount * plan.nrtBalance).div */\n      tag_116\n      swap1\n        /* \"Staking.sol\":5197:5280  uint256(stake.stakedAmount * plan.nrtBalance).div(uint256(plan.lastPlanAmount * 2)) */\n      swap2\n      swap1\n      0xffffffff\n      and\n      jump\t// in\n    tag_115:\n        /* \"Staking.sol\":5186:5280  interest = uint256(stake.stakedAmount * plan.nrtBalance).div(uint256(plan.lastPlanAmount * 2)) */\n      swap5\n      pop\n        /* \"Staking.sol\":5316:5326  contractid */\n      dup7\n        /* \"Staking.sol\":5299:5355  InterestReleased(contractid, stake.monthCount, interest) */\n      0x356b79d8e456e7aa0d7747645cf39921d403293bb965efc71e8a65c1a62590e0\n        /* \"Staking.sol\":5328:5333  stake */\n      dup10\n        /* \"Staking.sol\":5328:5344  stake.monthCount */\n      0x40\n      add\n      mload\n        /* \"Staking.sol\":5346:5354  interest */\n      dup8\n        /* \"Staking.sol\":5299:5355  InterestReleased(contractid, stake.monthCount, interest) */\n      mload(0x40)\n      dup1\n      dup4\n      0xffffffff\n      and\n      0xffffffff\n      and\n      dup2\n      mstore\n      0x20\n      add\n      dup3\n      dup2\n      mstore\n      0x20\n      add\n      swap3\n      pop\n      pop\n      pop\n      mload(0x40)\n      dup1\n      swap2\n      sub\n      swap1\n      log2\n        /* \"Staking.sol\":5390:5391  0 */\n      0x00\n        /* \"Staking.sol\":5369:5391  principalToRelease = 0 */\n      swap4\n      pop\n        /* \"Staking.sol\":5429:5459  uint256(stake.planTime).sub(1) */\n      tag_117\n        /* \"Staking.sol\":5457:5458  1 */\n      0x01\n        /* \"Staking.sol\":5437:5442  stake */\n      dup10\n        /* \"Staking.sol\":5437:5451  stake.planTime */\n      0x20\n      add\n      mload\n        /* \"Staking.sol\":5429:5452  uint256(stake.planTime) */\n      0xffffffff\n      and\n        /* \"Staking.sol\":5429:5456  uint256(stake.planTime).sub */\n      tag_63\n      swap1\n        /* \"Staking.sol\":5429:5459  uint256(stake.planTime).sub(1) */\n      swap2\n      swap1\n      0xffffffff\n      and\n      jump\t// in\n    tag_117:\n        /* \"Staking.sol\":5409:5414  stake */\n      dup9\n        /* \"Staking.sol\":5409:5425  stake.monthCount */\n      0x40\n      add\n      mload\n        /* \"Staking.sol\":5409:5460  stake.monthCount > (uint256(stake.planTime).sub(1)) */\n      0xffffffff\n      and\n      gt\n        /* \"Staking.sol\":5405:5644  if (stake.monthCount > (uint256(stake.planTime).sub(1))) {... */\n      iszero\n      tag_118\n      jumpi\n        /* \"Staking.sol\":5509:5514  stake */\n      dup8\n        /* \"Staking.sol\":5509:5531  stake.monthlyPrincipal */\n      0x80\n      add\n      mload\n        /* \"Staking.sol\":5532:5537  index */\n      dup7\n        /* \"Staking.sol\":5509:5538  stake.monthlyPrincipal[index] */\n      0x18\n      dup2\n      lt\n      iszero\n      iszero\n      tag_119\n      jumpi\n      invalid\n    tag_119:\n      0x20\n      mul\n      add\n      mload\n        /* \"Staking.sol\":5501:5539  uint256(stake.monthlyPrincipal[index]) */\n      0xffffffff\n      and\n        /* \"Staking.sol\":5480:5539  principalToRelease = uint256(stake.monthlyPrincipal[index]) */\n      swap4\n      pop\n        /* \"Staking.sol\":5580:5590  contractid */\n      dup7\n        /* \"Staking.sol\":5562:5629  PrincipalReleased(contractid, stake.monthCount, principalToRelease) */\n      0x296537e11b520626dbd4aae6053652b9c2a7395fb926f112d547e0f9383476a6\n        /* \"Staking.sol\":5592:5597  stake */\n      dup10\n        /* \"Staking.sol\":5592:5608  stake.monthCount */\n      0x40\n      add\n      mload\n        /* \"Staking.sol\":5610:5628  principalToRelease */\n      dup7\n        /* \"Staking.sol\":5562:5629  PrincipalReleased(contractid, stake.monthCount, principalToRelease) */\n      mload(0x40)\n      dup1\n      dup4\n      0xffffffff\n      and\n      0xffffffff\n      and\n      dup2\n      mstore\n      0x20\n      add\n      dup3\n      dup2\n      mstore\n      0x20\n      add\n      swap3\n      pop\n      pop\n      pop\n      mload(0x40)\n      dup1\n      swap2\n      sub\n      swap1\n      log2\n        /* \"Staking.sol\":5405:5644  if (stake.monthCount > (uint256(stake.planTime).sub(1))) {... */\n    tag_118:\n        /* \"Staking.sol\":5689:5759  (uint256(plan.activePlanAmount).add(interest)).sub(principalToRelease) */\n      tag_120\n        /* \"Staking.sol\":5740:5758  principalToRelease */\n      dup5\n        /* \"Staking.sol\":5690:5734  uint256(plan.activePlanAmount).add(interest) */\n      tag_121\n        /* \"Staking.sol\":5725:5733  interest */\n      dup8\n        /* \"Staking.sol\":5698:5702  plan */\n      dup13\n        /* \"Staking.sol\":5698:5719  plan.activePlanAmount */\n      0x20\n      add\n      mload\n        /* \"Staking.sol\":5690:5720  uint256(plan.activePlanAmount) */\n      0xffffffffffffffffffffffffffffffff\n      and\n        /* \"Staking.sol\":5690:5724  uint256(plan.activePlanAmount).add */\n      tag_71\n      swap1\n        /* \"Staking.sol\":5690:5734  uint256(plan.activePlanAmount).add(interest) */\n      swap2\n      swap1\n      0xffffffff\n      and\n      jump\t// in\n    tag_121:\n        /* \"Staking.sol\":5689:5739  (uint256(plan.activePlanAmount).add(interest)).sub */\n      tag_63\n      swap1\n        /* \"Staking.sol\":5689:5759  (uint256(plan.activePlanAmount).add(interest)).sub(principalToRelease) */\n      swap2\n      swap1\n      0xffffffff\n      and\n      jump\t// in\n    tag_120:\n        /* \"Staking.sol\":5657:5661  plan */\n      dup10\n        /* \"Staking.sol\":5657:5678  plan.activePlanAmount */\n      0x20\n      add\n        /* \"Staking.sol\":5657:5760  plan.activePlanAmount = uint128((uint256(plan.activePlanAmount).add(interest)).sub(principalToRelease)) */\n      swap1\n      0xffffffffffffffffffffffffffffffff\n      and\n      swap1\n      dup2\n      0xffffffffffffffffffffffffffffffff\n      and\n      dup2\n      mstore\n      pop\n      pop\n        /* \"Staking.sol\":5803:5870  (uint256(stake.stakedAmount).add(interest)).sub(principalToRelease) */\n      tag_122\n        /* \"Staking.sol\":5851:5869  principalToRelease */\n      dup5\n        /* \"Staking.sol\":5804:5845  uint256(stake.stakedAmount).add(interest) */\n      tag_123\n        /* \"Staking.sol\":5836:5844  interest */\n      dup8\n        /* \"Staking.sol\":5812:5817  stake */\n      dup12\n        /* \"Staking.sol\":5812:5830  stake.stakedAmount */\n      0x00\n      add\n      mload\n        /* \"Staking.sol\":5804:5831  uint256(stake.stakedAmount) */\n      0xffffffffffffffffffffffffffffffff\n      and\n        /* \"Staking.sol\":5804:5835  uint256(stake.stakedAmount).add */\n      tag_71\n      swap1\n        /* \"Staking.sol\":5804:5845  uint256(stake.stakedAmount).add(interest) */\n      swap2\n      swap1\n      0xffffffff\n      and\n      jump\t// in\n    tag_123:\n        /* \"Staking.sol\":5803:5850  (uint256(stake.stakedAmount).add(interest)).sub */\n      tag_63\n      swap1\n        /* \"Staking.sol\":5803:5870  (uint256(stake.stakedAmount).add(interest)).sub(principalToRelease) */\n      swap2\n      swap1\n      0xffffffff\n      and\n      jump\t// in\n    tag_122:\n        /* \"Staking.sol\":5774:5779  stake */\n      dup9\n        /* \"Staking.sol\":5774:5792  stake.stakedAmount */\n      0x00\n      add\n        /* \"Staking.sol\":5774:5871  stake.stakedAmount = uint128((uint256(stake.stakedAmount).add(interest)).sub(principalToRelease)) */\n      swap1\n      0xffffffffffffffffffffffffffffffff\n      and\n      swap1\n      dup2\n      0xffffffffffffffffffffffffffffffff\n      and\n      dup2\n      mstore\n      pop\n      pop\n        /* \"Staking.sol\":5924:5932  interest */\n      dup5\n        /* \"Staking.sol\":5885:5890  stake */\n      dup9\n        /* \"Staking.sol\":5885:5907  stake.monthlyPrincipal */\n      0x80\n      add\n      mload\n        /* \"Staking.sol\":5908:5913  index */\n      dup8\n        /* \"Staking.sol\":5885:5914  stake.monthlyPrincipal[index] */\n      0x18\n      dup2\n      lt\n      iszero\n      iszero\n      tag_124\n      jumpi\n      invalid\n    tag_124:\n      0x20\n      mul\n      add\n        /* \"Staking.sol\":5885:5933  stake.monthlyPrincipal[index] = uint32(interest) */\n      swap1\n      0xffffffff\n      and\n      swap1\n      dup2\n      0xffffffff\n      and\n      dup2\n      mstore\n      pop\n      pop\n        /* \"Staking.sol\":5947:5952  stake */\n      dup8\n        /* \"Staking.sol\":5947:5963  stake.monthCount */\n      0x40\n      add\n        /* \"Staking.sol\":5947:5965  stake.monthCount++ */\n      dup1\n      mload\n      dup1\n      swap2\n      swap1\n      0x01\n      add\n      0xffffffff\n      and\n      0xffffffff\n      and\n      dup2\n      mstore\n      pop\n      pop\n        /* \"Staking.sol\":5987:5997  contractid */\n      dup7\n        /* \"Staking.sol\":5979:5997  index = contractid */\n      swap6\n      pop\n        /* \"Staking.sol\":6053:6056  128 */\n      0x80\n        /* \"Staking.sol\":6032:6050  principalToRelease */\n      dup5\n        /* \"Staking.sol\":6021:6029  interest */\n      dup7\n        /* \"Staking.sol\":6021:6050  interest + principalToRelease */\n      add\n        /* \"Staking.sol\":6020:6056  (interest + principalToRelease)<<128 */\n      swap1\n      0x02\n      exp\n      mul\n        /* \"Staking.sol\":6011:6056  index |= (interest + principalToRelease)<<128 */\n      dup7\n      or\n      swap6\n      pop\n        /* \"Staking.sol\":6104:6109  index */\n      dup6\n        /* \"Staking.sol\":6070:6081  userPayment */\n      dup4\n        /* \"Staking.sol\":6082:6093  userPayment */\n      dup5\n        /* \"Staking.sol\":6082:6100  userPayment.length */\n      mload\n        /* \"Staking.sol\":6070:6101  userPayment[userPayment.length] */\n      dup2\n      mload\n      dup2\n      lt\n      iszero\n      iszero\n      tag_125\n      jumpi\n      invalid\n    tag_125:\n      swap1\n      0x20\n      add\n      swap1\n      0x20\n      mul\n      add\n        /* \"Staking.sol\":6070:6109  userPayment[userPayment.length] = index */\n      dup2\n      dup2\n      mstore\n      pop\n      pop\n        /* \"Staking.sol\":6144:6149  stake */\n      dup8\n        /* \"Staking.sol\":6123:6129  stakes */\n      0x01\n        /* \"Staking.sol\":6123:6141  stakes[contractid] */\n      0x00\n        /* \"Staking.sol\":6130:6140  contractid */\n      dup10\n        /* \"Staking.sol\":6123:6141  stakes[contractid] */\n      dup2\n      mstore\n      0x20\n      add\n      swap1\n      dup2\n      mstore\n      0x20\n      add\n      0x00\n      keccak256\n        /* \"Staking.sol\":6123:6149  stakes[contractid] = stake */\n      0x00\n      dup3\n      add\n      mload\n      dup2\n      0x00\n      add\n      exp(0x0100, 0x00)\n      dup2\n      sload\n      dup2\n      0xffffffffffffffffffffffffffffffff\n      mul\n      not\n      and\n      swap1\n      dup4\n      0xffffffffffffffffffffffffffffffff\n      and\n      mul\n      or\n      swap1\n      sstore\n      pop\n      0x20\n      dup3\n      add\n      mload\n      dup2\n      0x00\n      add\n      exp(0x0100, 0x10)\n      dup2\n      sload\n      dup2\n      0xffffffff\n      mul\n      not\n      and\n      swap1\n      dup4\n      0xffffffff\n      and\n      mul\n      or\n      swap1\n      sstore\n      pop\n      0x40\n      dup3\n      add\n      mload\n      dup2\n      0x00\n      add\n      exp(0x0100, 0x14)\n      dup2\n      sload\n      dup2\n      0xffffffff\n      mul\n      not\n      and\n      swap1\n      dup4\n      0xffffffff\n      and\n      mul\n      or\n      swap1\n      sstore\n      pop\n      0x60\n      dup3\n      add\n      mload\n      dup2\n      0x00\n      add\n      exp(0x0100, 0x18)\n      dup2\n      sload\n      dup2\n      0xffffffff\n      mul\n      not\n      and\n      swap1\n      dup4\n      0xffffffff\n      and\n      mul\n      or\n      swap1\n      sstore\n      pop\n      0x80\n      dup3\n      add\n      mload\n      dup2\n      0x01\n      add\n      swap1\n      0x18\n      tag_126\n      swap3\n      swap2\n      swap1\n      tag_94\n      jump\t// in\n    tag_126:\n      pop\n      swap1\n      pop\n      pop\n        /* \"Staking.sol\":6163:6166  i++ */\n      dup2\n      dup1\n      0x01\n      add\n      swap3\n      pop\n      pop\n        /* \"Staking.sol\":4992:6177  while (i < limit) {... */\n      jump(tag_109)\n    tag_110:\n        /* \"Staking.sol\":6209:6215  planid */\n      dup13\n        /* \"Staking.sol\":6191:6251  PlanHandlerStatus(planid, limit, plan.activePlanList.length) */\n      0x08a82d6b7dbab5cafd85cce94dd8a6f4e8495965c3573d486582e53c6cbfb6bd\n        /* \"Staking.sol\":6217:6222  limit */\n      dup3\n        /* \"Staking.sol\":6224:6228  plan */\n      dup12\n        /* \"Staking.sol\":6224:6243  plan.activePlanList */\n      0x80\n      add\n      mload\n        /* \"Staking.sol\":6224:6250  plan.activePlanList.length */\n      mload\n        /* \"Staking.sol\":6191:6251  PlanHandlerStatus(planid, limit, plan.activePlanList.length) */\n      mload(0x40)\n      dup1\n      dup4\n      dup2\n      mstore\n      0x20\n      add\n      dup3\n      dup2\n      mstore\n      0x20\n      add\n      swap3\n      pop\n      pop\n      pop\n      mload(0x40)\n      dup1\n      swap2\n      sub\n      swap1\n      log2\n        /* \"Staking.sol\":6277:6281  plan */\n      dup9\n        /* \"Staking.sol\":6261:6266  plans */\n      0x00\n        /* \"Staking.sol\":6261:6274  plans[planid] */\n      dup1\n        /* \"Staking.sol\":6267:6273  planid */\n      dup16\n        /* \"Staking.sol\":6261:6274  plans[planid] */\n      dup2\n      mstore\n      0x20\n      add\n      swap1\n      dup2\n      mstore\n      0x20\n      add\n      0x00\n      keccak256\n        /* \"Staking.sol\":6261:6281  plans[planid] = plan */\n      0x00\n      dup3\n      add\n      mload\n      dup2\n      0x00\n      add\n      exp(0x0100, 0x00)\n      dup2\n      sload\n      dup2\n      0xffffffffffffffffffffffffffffffff\n      mul\n      not\n      and\n      swap1\n      dup4\n      0xffffffffffffffffffffffffffffffff\n      and\n      mul\n      or\n      swap1\n      sstore\n      pop\n      0x20\n      dup3\n      add\n      mload\n      dup2\n      0x00\n      add\n      exp(0x0100, 0x10)\n      dup2\n      sload\n      dup2\n      0xffffffffffffffffffffffffffffffff\n      mul\n      not\n      and\n      swap1\n      dup4\n      0xffffffffffffffffffffffffffffffff\n      and\n      mul\n      or\n      swap1\n      sstore\n      pop\n      0x40\n      dup3\n      add\n      mload\n      dup2\n      0x01\n      add\n      exp(0x0100, 0x00)\n      dup2\n      sload\n      dup2\n      0xffffffffffffffffffffffffffffffff\n      mul\n      not\n      and\n      swap1\n      dup4\n      0xffffffffffffffffffffffffffffffff\n      and\n      mul\n      or\n      swap1\n      sstore\n      pop\n      0x60\n      dup3\n      add\n      mload\n      dup2\n      0x01\n      add\n      exp(0x0100, 0x10)\n      dup2\n      sload\n      dup2\n      0xffffffffffffffffffffffffffffffff\n      mul\n      not\n      and\n      swap1\n      dup4\n      0xffffffffffffffffffffffffffffffff\n      and\n      mul\n      or\n      swap1\n      sstore\n      pop\n      0x80\n      dup3\n      add\n      mload\n      dup2\n      0x02\n      add\n      swap1\n      dup1\n      mload\n      swap1\n      0x20\n      add\n      swap1\n      tag_127\n      swap3\n      swap2\n      swap1\n      tag_128\n      jump\t// in\n    tag_127:\n      pop\n      swap1\n      pop\n      pop\n        /* \"Staking.sol\":6298:6309  userPayment */\n      dup3\n        /* \"Staking.sol\":6311:6350  (plan.activePlanList.length).sub(limit) */\n      tag_129\n        /* \"Staking.sol\":6344:6349  limit */\n      dup3\n        /* \"Staking.sol\":6312:6316  plan */\n      dup12\n        /* \"Staking.sol\":6312:6331  plan.activePlanList */\n      0x80\n      add\n      mload\n        /* \"Staking.sol\":6312:6338  plan.activePlanList.length */\n      mload\n        /* \"Staking.sol\":6311:6343  (plan.activePlanList.length).sub */\n      tag_63\n      swap1\n        /* \"Staking.sol\":6311:6350  (plan.activePlanList.length).sub(limit) */\n      swap2\n      swap1\n      0xffffffff\n      and\n      jump\t// in\n    tag_129:\n        /* \"Staking.sol\":6291:6351  return(userPayment, (plan.activePlanList.length).sub(limit)) */\n      swap11\n      pop\n      swap11\n      pop\n      pop\n      pop\n      pop\n      pop\n      pop\n      pop\n      pop\n      pop\n      pop\n        /* \"Staking.sol\":4163:6358  function monthlyPlanHandler(... */\n      swap3\n      pop\n      swap3\n      swap1\n      pop\n      jump\t// out\n        /* \"Staking.sol\":2936:4157  function monthlyNRTHandler(... */\n    tag_52:\n        /* \"Staking.sol\":3085:3092  uint256 */\n      0x00\n        /* \"Staking.sol\":1184:1192  timeAlly */\n      0x02\n      0x00\n      swap1\n      sload\n      swap1\n      0x0100\n      exp\n      swap1\n      div\n      0xffffffffffffffffffffffffffffffffffffffff\n      and\n        /* \"Staking.sol\":1170:1192  msg.sender == timeAlly */\n      0xffffffffffffffffffffffffffffffffffffffff\n      and\n        /* \"Staking.sol\":1170:1180  msg.sender */\n      caller\n        /* \"Staking.sol\":1170:1192  msg.sender == timeAlly */\n      0xffffffffffffffffffffffffffffffffffffffff\n      and\n      eq\n        /* \"Staking.sol\":1162:1229  require(msg.sender == timeAlly, \"Owner TimeAlly should be calling\") */\n      iszero\n      iszero\n      tag_131\n      jumpi\n      mload(0x40)\n      0x08c379a000000000000000000000000000000000000000000000000000000000\n      dup2\n      mstore\n      0x04\n      add\n      dup1\n      dup1\n      0x20\n      add\n      dup3\n      dup2\n      sub\n      dup3\n      mstore\n      0x20\n      dup2\n      mstore\n      0x20\n      add\n      dup1\n      0x4f776e65722054696d65416c6c792073686f756c642062652063616c6c696e67\n      dup2\n      mstore\n      pop\n      0x20\n      add\n      swap2\n      pop\n      pop\n      mload(0x40)\n      dup1\n      swap2\n      sub\n      swap1\n      revert\n    tag_131:\n        /* \"Staking.sol\":3108:3127  uint256 totalAmount */\n      0x00\n        /* \"Staking.sol\":3137:3146  uint256 i */\n      dup1\n        /* \"Staking.sol\":3165:3166  0 */\n      0x00\n        /* \"Staking.sol\":3161:3166  i = 0 */\n      swap1\n      pop\n        /* \"Staking.sol\":3156:3276  for (i = 0; i <= planid; i++) {... */\n    tag_133:\n        /* \"Staking.sol\":3173:3179  planid */\n      dup4\n        /* \"Staking.sol\":3168:3169  i */\n      dup2\n        /* \"Staking.sol\":3168:3179  i <= planid */\n      gt\n      iszero\n        /* \"Staking.sol\":3156:3276  for (i = 0; i <= planid; i++) {... */\n      iszero\n      tag_134\n      jumpi\n        /* \"Staking.sol\":3214:3265  totalAmount.add(uint256(plans[i].activePlanAmount)) */\n      tag_136\n        /* \"Staking.sol\":3238:3243  plans */\n      0x00\n        /* \"Staking.sol\":3238:3246  plans[i] */\n      dup1\n        /* \"Staking.sol\":3244:3245  i */\n      dup4\n        /* \"Staking.sol\":3238:3246  plans[i] */\n      dup2\n      mstore\n      0x20\n      add\n      swap1\n      dup2\n      mstore\n      0x20\n      add\n      0x00\n      keccak256\n        /* \"Staking.sol\":3238:3263  plans[i].activePlanAmount */\n      0x00\n      add\n      0x10\n      swap1\n      sload\n      swap1\n      0x0100\n      exp\n      swap1\n      div\n      0xffffffffffffffffffffffffffffffff\n      and\n        /* \"Staking.sol\":3230:3264  uint256(plans[i].activePlanAmount) */\n      0xffffffffffffffffffffffffffffffff\n      and\n        /* \"Staking.sol\":3214:3225  totalAmount */\n      dup4\n        /* \"Staking.sol\":3214:3229  totalAmount.add */\n      tag_71\n      swap1\n        /* \"Staking.sol\":3214:3265  totalAmount.add(uint256(plans[i].activePlanAmount)) */\n      swap2\n      swap1\n      0xffffffff\n      and\n      jump\t// in\n    tag_136:\n        /* \"Staking.sol\":3200:3265  totalAmount = totalAmount.add(uint256(plans[i].activePlanAmount)) */\n      swap2\n      pop\n        /* \"Staking.sol\":3181:3184  i++ */\n      dup1\n      dup1\n      0x01\n      add\n      swap2\n      pop\n      pop\n        /* \"Staking.sol\":3156:3276  for (i = 0; i <= planid; i++) {... */\n      jump(tag_133)\n    tag_134:\n        /* \"Staking.sol\":3290:3318  TotalPlanAmount(totalAmount) */\n      0xf77fa968b82936dc0480f623faeea411245c1d9f74ffd0530d6ca303943b3df4\n        /* \"Staking.sol\":3306:3317  totalAmount */\n      dup3\n        /* \"Staking.sol\":3290:3318  TotalPlanAmount(totalAmount) */\n      mload(0x40)\n      dup1\n      dup3\n      dup2\n      mstore\n      0x20\n      add\n      swap2\n      pop\n      pop\n      mload(0x40)\n      dup1\n      swap2\n      sub\n      swap1\n      log1\n        /* \"Staking.sol\":3350:3351  0 */\n      0x00\n        /* \"Staking.sol\":3336:3347  totalAmount */\n      dup3\n        /* \"Staking.sol\":3336:3351  totalAmount > 0 */\n      gt\n        /* \"Staking.sol\":3328:3352  require(totalAmount > 0) */\n      iszero\n      iszero\n      tag_137\n      jumpi\n      0x00\n      dup1\n      revert\n    tag_137:\n        /* \"Staking.sol\":3372:3373  0 */\n      0x00\n        /* \"Staking.sol\":3368:3373  i = 0 */\n      swap1\n      pop\n        /* \"Staking.sol\":3363:3813  for (i = 0; i <= planid; i++) {... */\n    tag_138:\n        /* \"Staking.sol\":3380:3386  planid */\n      dup4\n        /* \"Staking.sol\":3375:3376  i */\n      dup2\n        /* \"Staking.sol\":3375:3386  i <= planid */\n      gt\n      iszero\n        /* \"Staking.sol\":3363:3813  for (i = 0; i <= planid; i++) {... */\n      iszero\n      tag_139\n      jumpi\n        /* \"Staking.sol\":3440:3441  0 */\n      0x00\n        /* \"Staking.sol\":3411:3416  plans */\n      dup1\n        /* \"Staking.sol\":3411:3419  plans[i] */\n      0x00\n        /* \"Staking.sol\":3417:3418  i */\n      dup4\n        /* \"Staking.sol\":3411:3419  plans[i] */\n      dup2\n      mstore\n      0x20\n      add\n      swap1\n      dup2\n      mstore\n      0x20\n      add\n      0x00\n      keccak256\n        /* \"Staking.sol\":3411:3436  plans[i].activePlanAmount */\n      0x00\n      add\n      0x10\n      swap1\n      sload\n      swap1\n      0x0100\n      exp\n      swap1\n      div\n      0xffffffffffffffffffffffffffffffff\n      and\n        /* \"Staking.sol\":3411:3441  plans[i].activePlanAmount == 0 */\n      0xffffffffffffffffffffffffffffffff\n      and\n      eq\n        /* \"Staking.sol\":3407:3699  if (plans[i].activePlanAmount == 0) {... */\n      iszero\n      tag_141\n      jumpi\n        /* \"Staking.sol\":3483:3484  0 */\n      0x00\n        /* \"Staking.sol\":3461:3466  plans */\n      dup1\n        /* \"Staking.sol\":3461:3469  plans[i] */\n      0x00\n        /* \"Staking.sol\":3467:3468  i */\n      dup4\n        /* \"Staking.sol\":3461:3469  plans[i] */\n      dup2\n      mstore\n      0x20\n      add\n      swap1\n      dup2\n      mstore\n      0x20\n      add\n      0x00\n      keccak256\n        /* \"Staking.sol\":3461:3480  plans[i].nrtBalance */\n      0x00\n      add\n      0x00\n        /* \"Staking.sol\":3461:3484  plans[i].nrtBalance = 0 */\n      0x0100\n      exp\n      dup2\n      sload\n      dup2\n      0xffffffffffffffffffffffffffffffff\n      mul\n      not\n      and\n      swap1\n      dup4\n      0xffffffffffffffffffffffffffffffff\n      and\n      mul\n      or\n      swap1\n      sstore\n      pop\n        /* \"Staking.sol\":3407:3699  if (plans[i].activePlanAmount == 0) {... */\n      jump(tag_142)\n    tag_141:\n        /* \"Staking.sol\":3552:3614  (uint256(plans[i].activePlanAmount).mul(nrt)).div(totalAmount) */\n      tag_143\n        /* \"Staking.sol\":3602:3613  totalAmount */\n      dup3\n        /* \"Staking.sol\":3553:3596  uint256(plans[i].activePlanAmount).mul(nrt) */\n      tag_144\n        /* \"Staking.sol\":3592:3595  nrt */\n      dup8\n        /* \"Staking.sol\":3561:3566  plans */\n      0x00\n        /* \"Staking.sol\":3561:3569  plans[i] */\n      dup1\n        /* \"Staking.sol\":3567:3568  i */\n      dup7\n        /* \"Staking.sol\":3561:3569  plans[i] */\n      dup2\n      mstore\n      0x20\n      add\n      swap1\n      dup2\n      mstore\n      0x20\n      add\n      0x00\n      keccak256\n        /* \"Staking.sol\":3561:3586  plans[i].activePlanAmount */\n      0x00\n      add\n      0x10\n      swap1\n      sload\n      swap1\n      0x0100\n      exp\n      swap1\n      div\n      0xffffffffffffffffffffffffffffffff\n      and\n        /* \"Staking.sol\":3553:3587  uint256(plans[i].activePlanAmount) */\n      0xffffffffffffffffffffffffffffffff\n      and\n        /* \"Staking.sol\":3553:3591  uint256(plans[i].activePlanAmount).mul */\n      tag_145\n      swap1\n        /* \"Staking.sol\":3553:3596  uint256(plans[i].activePlanAmount).mul(nrt) */\n      swap2\n      swap1\n      0xffffffff\n      and\n      jump\t// in\n    tag_144:\n        /* \"Staking.sol\":3552:3601  (uint256(plans[i].activePlanAmount).mul(nrt)).div */\n      tag_116\n      swap1\n        /* \"Staking.sol\":3552:3614  (uint256(plans[i].activePlanAmount).mul(nrt)).div(totalAmount) */\n      swap2\n      swap1\n      0xffffffff\n      and\n      jump\t// in\n    tag_143:\n        /* \"Staking.sol\":3522:3527  plans */\n      0x00\n        /* \"Staking.sol\":3522:3530  plans[i] */\n      dup1\n        /* \"Staking.sol\":3528:3529  i */\n      dup4\n        /* \"Staking.sol\":3522:3530  plans[i] */\n      dup2\n      mstore\n      0x20\n      add\n      swap1\n      dup2\n      mstore\n      0x20\n      add\n      0x00\n      keccak256\n        /* \"Staking.sol\":3522:3541  plans[i].nrtBalance */\n      0x00\n      add\n      0x00\n        /* \"Staking.sol\":3522:3615  plans[i].nrtBalance = uint128((uint256(plans[i].activePlanAmount).mul(nrt)).div(totalAmount)) */\n      0x0100\n      exp\n      dup2\n      sload\n      dup2\n      0xffffffffffffffffffffffffffffffff\n      mul\n      not\n      and\n      swap1\n      dup4\n      0xffffffffffffffffffffffffffffffff\n      and\n      mul\n      or\n      swap1\n      sstore\n      pop\n        /* \"Staking.sol\":3659:3664  plans */\n      0x00\n        /* \"Staking.sol\":3659:3667  plans[i] */\n      dup1\n        /* \"Staking.sol\":3665:3666  i */\n      dup3\n        /* \"Staking.sol\":3659:3667  plans[i] */\n      dup2\n      mstore\n      0x20\n      add\n      swap1\n      dup2\n      mstore\n      0x20\n      add\n      0x00\n      keccak256\n        /* \"Staking.sol\":3659:3684  plans[i].activePlanAmount */\n      0x00\n      add\n      0x10\n      swap1\n      sload\n      swap1\n      0x0100\n      exp\n      swap1\n      div\n      0xffffffffffffffffffffffffffffffff\n      and\n        /* \"Staking.sol\":3633:3638  plans */\n      0x00\n        /* \"Staking.sol\":3633:3641  plans[i] */\n      dup1\n        /* \"Staking.sol\":3639:3640  i */\n      dup4\n        /* \"Staking.sol\":3633:3641  plans[i] */\n      dup2\n      mstore\n      0x20\n      add\n      swap1\n      dup2\n      mstore\n      0x20\n      add\n      0x00\n      keccak256\n        /* \"Staking.sol\":3633:3656  plans[i].lastPlanAmount */\n      0x01\n      add\n      0x00\n        /* \"Staking.sol\":3633:3684  plans[i].lastPlanAmount = plans[i].activePlanAmount */\n      0x0100\n      exp\n      dup2\n      sload\n      dup2\n      0xffffffffffffffffffffffffffffffff\n      mul\n      not\n      and\n      swap1\n      dup4\n      0xffffffffffffffffffffffffffffffff\n      and\n      mul\n      or\n      swap1\n      sstore\n      pop\n        /* \"Staking.sol\":3407:3699  if (plans[i].activePlanAmount == 0) {... */\n    tag_142:\n        /* \"Staking.sol\":3734:3735  i */\n      dup1\n        /* \"Staking.sol\":3717:3802  PlanAmountandNRT(i, uint256(plans[i].activePlanAmount), uint256(plans[i].nrtBalance)) */\n      0x0cd26e91c568ac4316dce91615897b0cf6adeb79e220880fe9dafaad25452d89\n        /* \"Staking.sol\":3745:3750  plans */\n      0x00\n        /* \"Staking.sol\":3745:3753  plans[i] */\n      dup1\n        /* \"Staking.sol\":3751:3752  i */\n      dup5\n        /* \"Staking.sol\":3745:3753  plans[i] */\n      dup2\n      mstore\n      0x20\n      add\n      swap1\n      dup2\n      mstore\n      0x20\n      add\n      0x00\n      keccak256\n        /* \"Staking.sol\":3745:3770  plans[i].activePlanAmount */\n      0x00\n      add\n      0x10\n      swap1\n      sload\n      swap1\n      0x0100\n      exp\n      swap1\n      div\n      0xffffffffffffffffffffffffffffffff\n      and\n        /* \"Staking.sol\":3737:3771  uint256(plans[i].activePlanAmount) */\n      0xffffffffffffffffffffffffffffffff\n      and\n        /* \"Staking.sol\":3781:3786  plans */\n      0x00\n        /* \"Staking.sol\":3781:3789  plans[i] */\n      dup1\n        /* \"Staking.sol\":3787:3788  i */\n      dup6\n        /* \"Staking.sol\":3781:3789  plans[i] */\n      dup2\n      mstore\n      0x20\n      add\n      swap1\n      dup2\n      mstore\n      0x20\n      add\n      0x00\n      keccak256\n        /* \"Staking.sol\":3781:3800  plans[i].nrtBalance */\n      0x00\n      add\n      0x00\n      swap1\n      sload\n      swap1\n      0x0100\n      exp\n      swap1\n      div\n      0xffffffffffffffffffffffffffffffff\n      and\n        /* \"Staking.sol\":3773:3801  uint256(plans[i].nrtBalance) */\n      0xffffffffffffffffffffffffffffffff\n      and\n        /* \"Staking.sol\":3717:3802  PlanAmountandNRT(i, uint256(plans[i].activePlanAmount), uint256(plans[i].nrtBalance)) */\n      mload(0x40)\n      dup1\n      dup4\n      dup2\n      mstore\n      0x20\n      add\n      dup3\n      dup2\n      mstore\n      0x20\n      add\n      swap3\n      pop\n      pop\n      pop\n      mload(0x40)\n      dup1\n      swap2\n      sub\n      swap1\n      log2\n        /* \"Staking.sol\":3388:3391  i++ */\n      dup1\n      dup1\n      0x01\n      add\n      swap2\n      pop\n      pop\n        /* \"Staking.sol\":3363:3813  for (i = 0; i <= planid; i++) {... */\n      jump(tag_138)\n    tag_139:\n        /* \"Staking.sol\":3823:3842  uint256 luckPoolBal */\n      0x00\n        /* \"Staking.sol\":3845:3890  (uint256(plans[0].nrtBalance).mul(2)).div(15) */\n      tag_146\n        /* \"Staking.sol\":3887:3889  15 */\n      0x0f\n        /* \"Staking.sol\":3846:3881  uint256(plans[0].nrtBalance).mul(2) */\n      tag_147\n        /* \"Staking.sol\":3879:3880  2 */\n      0x02\n        /* \"Staking.sol\":3854:3859  plans */\n      0x00\n        /* \"Staking.sol\":3854:3862  plans[0] */\n      dup1\n        /* \"Staking.sol\":3860:3861  0 */\n      dup1\n        /* \"Staking.sol\":3854:3862  plans[0] */\n      dup2\n      mstore\n      0x20\n      add\n      swap1\n      dup2\n      mstore\n      0x20\n      add\n      0x00\n      keccak256\n        /* \"Staking.sol\":3854:3873  plans[0].nrtBalance */\n      0x00\n      add\n      0x00\n      swap1\n      sload\n      swap1\n      0x0100\n      exp\n      swap1\n      div\n      0xffffffffffffffffffffffffffffffff\n      and\n        /* \"Staking.sol\":3846:3874  uint256(plans[0].nrtBalance) */\n      0xffffffffffffffffffffffffffffffff\n      and\n        /* \"Staking.sol\":3846:3878  uint256(plans[0].nrtBalance).mul */\n      tag_145\n      swap1\n        /* \"Staking.sol\":3846:3881  uint256(plans[0].nrtBalance).mul(2) */\n      swap2\n      swap1\n      0xffffffff\n      and\n      jump\t// in\n    tag_147:\n        /* \"Staking.sol\":3845:3886  (uint256(plans[0].nrtBalance).mul(2)).div */\n      tag_116\n      swap1\n        /* \"Staking.sol\":3845:3890  (uint256(plans[0].nrtBalance).mul(2)).div(15) */\n      swap2\n      swap1\n      0xffffffff\n      and\n      jump\t// in\n    tag_146:\n        /* \"Staking.sol\":3823:3890  uint256 luckPoolBal = (uint256(plans[0].nrtBalance).mul(2)).div(15) */\n      swap1\n      pop\n        /* \"Staking.sol\":3919:3920  0 */\n      0x00\n        /* \"Staking.sol\":3904:3915  luckPoolBal */\n      dup2\n        /* \"Staking.sol\":3904:3920  luckPoolBal != 0 */\n      eq\n      iszero\n        /* \"Staking.sol\":3900:4023  if (luckPoolBal != 0) {... */\n      iszero\n      tag_148\n      jumpi\n        /* \"Staking.sol\":3966:4011  uint256(plans[0].nrtBalance).sub(luckPoolBal) */\n      tag_149\n        /* \"Staking.sol\":3999:4010  luckPoolBal */\n      dup2\n        /* \"Staking.sol\":3974:3979  plans */\n      0x00\n        /* \"Staking.sol\":3974:3982  plans[0] */\n      dup1\n        /* \"Staking.sol\":3980:3981  0 */\n      dup1\n        /* \"Staking.sol\":3974:3982  plans[0] */\n      dup2\n      mstore\n      0x20\n      add\n      swap1\n      dup2\n      mstore\n      0x20\n      add\n      0x00\n      keccak256\n        /* \"Staking.sol\":3974:3993  plans[0].nrtBalance */\n      0x00\n      add\n      0x00\n      swap1\n      sload\n      swap1\n      0x0100\n      exp\n      swap1\n      div\n      0xffffffffffffffffffffffffffffffff\n      and\n        /* \"Staking.sol\":3966:3994  uint256(plans[0].nrtBalance) */\n      0xffffffffffffffffffffffffffffffff\n      and\n        /* \"Staking.sol\":3966:3998  uint256(plans[0].nrtBalance).sub */\n      tag_63\n      swap1\n        /* \"Staking.sol\":3966:4011  uint256(plans[0].nrtBalance).sub(luckPoolBal) */\n      swap2\n      swap1\n      0xffffffff\n      and\n      jump\t// in\n    tag_149:\n        /* \"Staking.sol\":3936:3941  plans */\n      0x00\n        /* \"Staking.sol\":3936:3944  plans[0] */\n      dup1\n        /* \"Staking.sol\":3942:3943  0 */\n      dup1\n        /* \"Staking.sol\":3936:3944  plans[0] */\n      dup2\n      mstore\n      0x20\n      add\n      swap1\n      dup2\n      mstore\n      0x20\n      add\n      0x00\n      keccak256\n        /* \"Staking.sol\":3936:3955  plans[0].nrtBalance */\n      0x00\n      add\n      0x00\n        /* \"Staking.sol\":3936:4012  plans[0].nrtBalance = uint128(uint256(plans[0].nrtBalance).sub(luckPoolBal)) */\n      0x0100\n      exp\n      dup2\n      sload\n      dup2\n      0xffffffffffffffffffffffffffffffff\n      mul\n      not\n      and\n      swap1\n      dup4\n      0xffffffffffffffffffffffffffffffff\n      and\n      mul\n      or\n      swap1\n      sstore\n      pop\n        /* \"Staking.sol\":3900:4023  if (luckPoolBal != 0) {... */\n    tag_148:\n        /* \"Staking.sol\":4054:4055  0 */\n      0x00\n        /* \"Staking.sol\":4037:4122  PlanAmountandNRT(0, uint256(plans[0].activePlanAmount), uint256(plans[0].nrtBalance)) */\n      0x0cd26e91c568ac4316dce91615897b0cf6adeb79e220880fe9dafaad25452d89\n        /* \"Staking.sol\":4065:4070  plans */\n      0x00\n        /* \"Staking.sol\":4065:4073  plans[0] */\n      dup1\n        /* \"Staking.sol\":4071:4072  0 */\n      dup1\n        /* \"Staking.sol\":4065:4073  plans[0] */\n      dup2\n      mstore\n      0x20\n      add\n      swap1\n      dup2\n      mstore\n      0x20\n      add\n      0x00\n      keccak256\n        /* \"Staking.sol\":4065:4090  plans[0].activePlanAmount */\n      0x00\n      add\n      0x10\n      swap1\n      sload\n      swap1\n      0x0100\n      exp\n      swap1\n      div\n      0xffffffffffffffffffffffffffffffff\n      and\n        /* \"Staking.sol\":4057:4091  uint256(plans[0].activePlanAmount) */\n      0xffffffffffffffffffffffffffffffff\n      and\n        /* \"Staking.sol\":4101:4106  plans */\n      0x00\n        /* \"Staking.sol\":4101:4109  plans[0] */\n      dup1\n        /* \"Staking.sol\":4107:4108  0 */\n      dup1\n        /* \"Staking.sol\":4101:4109  plans[0] */\n      dup2\n      mstore\n      0x20\n      add\n      swap1\n      dup2\n      mstore\n      0x20\n      add\n      0x00\n      keccak256\n        /* \"Staking.sol\":4101:4120  plans[0].nrtBalance */\n      0x00\n      add\n      0x00\n      swap1\n      sload\n      swap1\n      0x0100\n      exp\n      swap1\n      div\n      0xffffffffffffffffffffffffffffffff\n      and\n        /* \"Staking.sol\":4093:4121  uint256(plans[0].nrtBalance) */\n      0xffffffffffffffffffffffffffffffff\n      and\n        /* \"Staking.sol\":4037:4122  PlanAmountandNRT(0, uint256(plans[0].activePlanAmount), uint256(plans[0].nrtBalance)) */\n      mload(0x40)\n      dup1\n      dup4\n      dup2\n      mstore\n      0x20\n      add\n      dup3\n      dup2\n      mstore\n      0x20\n      add\n      swap3\n      pop\n      pop\n      pop\n      mload(0x40)\n      dup1\n      swap2\n      sub\n      swap1\n      log2\n        /* \"Staking.sol\":4139:4150  luckPoolBal */\n      dup1\n        /* \"Staking.sol\":4132:4150  return luckPoolBal */\n      swap4\n      pop\n      pop\n      pop\n      pop\n        /* \"Staking.sol\":2936:4157  function monthlyNRTHandler(... */\n      swap3\n      swap2\n      pop\n      pop\n      jump\t// out\n        /* \"Staking.sol\":7683:8264  function deleteActivePlanListElement(... */\n    tag_60:\n        /* \"Staking.sol\":7825:7829  bool */\n      0x00\n        /* \"Staking.sol\":7887:7888  0 */\n      dup1\n        /* \"Staking.sol\":7857:7862  plans */\n      0x00\n        /* \"Staking.sol\":7857:7866  plans[id] */\n      dup1\n        /* \"Staking.sol\":7863:7865  id */\n      dup6\n        /* \"Staking.sol\":7857:7866  plans[id] */\n      dup2\n      mstore\n      0x20\n      add\n      swap1\n      dup2\n      mstore\n      0x20\n      add\n      0x00\n      keccak256\n        /* \"Staking.sol\":7857:7883  plans[id].activePlanAmount */\n      0x00\n      add\n      0x10\n      swap1\n      sload\n      swap1\n      0x0100\n      exp\n      swap1\n      div\n      0xffffffffffffffffffffffffffffffff\n      and\n        /* \"Staking.sol\":7857:7888  plans[id].activePlanAmount != 0 */\n      0xffffffffffffffffffffffffffffffff\n      and\n      eq\n      iszero\n        /* \"Staking.sol\":7849:7889  require(plans[id].activePlanAmount != 0) */\n      iszero\n      iszero\n      tag_151\n      jumpi\n      0x00\n      dup1\n      revert\n    tag_151:\n        /* \"Staking.sol\":7915:7920  plans */\n      0x00\n        /* \"Staking.sol\":7915:7924  plans[id] */\n      dup1\n        /* \"Staking.sol\":7921:7923  id */\n      dup5\n        /* \"Staking.sol\":7915:7924  plans[id] */\n      dup2\n      mstore\n      0x20\n      add\n      swap1\n      dup2\n      mstore\n      0x20\n      add\n      0x00\n      keccak256\n        /* \"Staking.sol\":7915:7939  plans[id].activePlanList */\n      0x02\n      add\n        /* \"Staking.sol\":7915:7946  plans[id].activePlanList.length */\n      dup1\n      sload\n      swap1\n      pop\n        /* \"Staking.sol\":7907:7912  index */\n      dup3\n        /* \"Staking.sol\":7907:7946  index < plans[id].activePlanList.length */\n      0xffffffff\n      and\n      lt\n        /* \"Staking.sol\":7899:7947  require(index < plans[id].activePlanList.length) */\n      iszero\n      iszero\n      tag_152\n      jumpi\n      0x00\n      dup1\n      revert\n    tag_152:\n        /* \"Staking.sol\":7957:7969  uint256 last */\n      0x00\n        /* \"Staking.sol\":7972:8010  plans[id].activePlanList.length.sub(1) */\n      tag_153\n        /* \"Staking.sol\":8008:8009  1 */\n      0x01\n        /* \"Staking.sol\":7972:7977  plans */\n      0x00\n        /* \"Staking.sol\":7972:7981  plans[id] */\n      dup1\n        /* \"Staking.sol\":7978:7980  id */\n      dup8\n        /* \"Staking.sol\":7972:7981  plans[id] */\n      dup2\n      mstore\n      0x20\n      add\n      swap1\n      dup2\n      mstore\n      0x20\n      add\n      0x00\n      keccak256\n        /* \"Staking.sol\":7972:7996  plans[id].activePlanList */\n      0x02\n      add\n        /* \"Staking.sol\":7972:8003  plans[id].activePlanList.length */\n      dup1\n      sload\n      swap1\n      pop\n        /* \"Staking.sol\":7972:8007  plans[id].activePlanList.length.sub */\n      tag_63\n      swap1\n        /* \"Staking.sol\":7972:8010  plans[id].activePlanList.length.sub(1) */\n      swap2\n      swap1\n      0xffffffff\n      and\n      jump\t// in\n    tag_153:\n        /* \"Staking.sol\":7957:8010  uint256 last = plans[id].activePlanList.length.sub(1) */\n      swap1\n      pop\n        /* \"Staking.sol\":8020:8035  uint32 lastelem */\n      0x00\n        /* \"Staking.sol\":8038:8043  plans */\n      dup1\n        /* \"Staking.sol\":8038:8047  plans[id] */\n      0x00\n        /* \"Staking.sol\":8044:8046  id */\n      dup7\n        /* \"Staking.sol\":8038:8047  plans[id] */\n      dup2\n      mstore\n      0x20\n      add\n      swap1\n      dup2\n      mstore\n      0x20\n      add\n      0x00\n      keccak256\n        /* \"Staking.sol\":8038:8062  plans[id].activePlanList */\n      0x02\n      add\n        /* \"Staking.sol\":8063:8067  last */\n      dup3\n        /* \"Staking.sol\":8038:8068  plans[id].activePlanList[last] */\n      dup2\n      sload\n      dup2\n      lt\n      iszero\n      iszero\n      tag_154\n      jumpi\n      invalid\n    tag_154:\n      swap1\n      0x00\n      mstore\n      keccak256(0x00, 0x20)\n      swap1\n      0x08\n      swap2\n      dup3\n      dup3\n      div\n      add\n      swap2\n      swap1\n      mod\n      0x04\n      mul\n      swap1\n      sload\n      swap1\n      0x0100\n      exp\n      swap1\n      div\n      0xffffffff\n      and\n        /* \"Staking.sol\":8020:8068  uint32 lastelem = plans[id].activePlanList[last] */\n      swap1\n      pop\n        /* \"Staking.sol\":8117:8122  index */\n      dup4\n        /* \"Staking.sol\":8078:8084  stakes */\n      0x01\n        /* \"Staking.sol\":8078:8094  stakes[lastelem] */\n      0x00\n        /* \"Staking.sol\":8085:8093  lastelem */\n      dup4\n        /* \"Staking.sol\":8078:8094  stakes[lastelem] */\n      0xffffffff\n      and\n      dup2\n      mstore\n      0x20\n      add\n      swap1\n      dup2\n      mstore\n      0x20\n      add\n      0x00\n      keccak256\n        /* \"Staking.sol\":8078:8114  stakes[lastelem].activePlanListIndex */\n      0x00\n      add\n      0x18\n        /* \"Staking.sol\":8078:8122  stakes[lastelem].activePlanListIndex = index */\n      0x0100\n      exp\n      dup2\n      sload\n      dup2\n      0xffffffff\n      mul\n      not\n      and\n      swap1\n      dup4\n      0xffffffff\n      and\n      mul\n      or\n      swap1\n      sstore\n      pop\n        /* \"Staking.sol\":8166:8171  plans */\n      0x00\n        /* \"Staking.sol\":8166:8175  plans[id] */\n      dup1\n        /* \"Staking.sol\":8172:8174  id */\n      dup7\n        /* \"Staking.sol\":8166:8175  plans[id] */\n      dup2\n      mstore\n      0x20\n      add\n      swap1\n      dup2\n      mstore\n      0x20\n      add\n      0x00\n      keccak256\n        /* \"Staking.sol\":8166:8190  plans[id].activePlanList */\n      0x02\n      add\n        /* \"Staking.sol\":8191:8195  last */\n      dup3\n        /* \"Staking.sol\":8166:8196  plans[id].activePlanList[last] */\n      dup2\n      sload\n      dup2\n      lt\n      iszero\n      iszero\n      tag_156\n      jumpi\n      invalid\n    tag_156:\n      swap1\n      0x00\n      mstore\n      keccak256(0x00, 0x20)\n      swap1\n      0x08\n      swap2\n      dup3\n      dup3\n      div\n      add\n      swap2\n      swap1\n      mod\n      0x04\n      mul\n      swap1\n      sload\n      swap1\n      0x0100\n      exp\n      swap1\n      div\n      0xffffffff\n      and\n        /* \"Staking.sol\":8132:8137  plans */\n      0x00\n        /* \"Staking.sol\":8132:8141  plans[id] */\n      dup1\n        /* \"Staking.sol\":8138:8140  id */\n      dup8\n        /* \"Staking.sol\":8132:8141  plans[id] */\n      dup2\n      mstore\n      0x20\n      add\n      swap1\n      dup2\n      mstore\n      0x20\n      add\n      0x00\n      keccak256\n        /* \"Staking.sol\":8132:8156  plans[id].activePlanList */\n      0x02\n      add\n        /* \"Staking.sol\":8157:8162  index */\n      dup6\n        /* \"Staking.sol\":8132:8163  plans[id].activePlanList[index] */\n      0xffffffff\n      and\n      dup2\n      sload\n      dup2\n      lt\n      iszero\n      iszero\n      tag_158\n      jumpi\n      invalid\n    tag_158:\n      swap1\n      0x00\n      mstore\n      keccak256(0x00, 0x20)\n      swap1\n      0x08\n      swap2\n      dup3\n      dup3\n      div\n      add\n      swap2\n      swap1\n      mod\n      0x04\n      mul\n        /* \"Staking.sol\":8132:8196  plans[id].activePlanList[index] = plans[id].activePlanList[last] */\n      0x0100\n      exp\n      dup2\n      sload\n      dup2\n      0xffffffff\n      mul\n      not\n      and\n      swap1\n      dup4\n      0xffffffff\n      and\n      mul\n      or\n      swap1\n      sstore\n      pop\n        /* \"Staking.sol\":8206:8211  plans */\n      0x00\n        /* \"Staking.sol\":8206:8215  plans[id] */\n      dup1\n        /* \"Staking.sol\":8212:8214  id */\n      dup7\n        /* \"Staking.sol\":8206:8215  plans[id] */\n      dup2\n      mstore\n      0x20\n      add\n      swap1\n      dup2\n      mstore\n      0x20\n      add\n      0x00\n      keccak256\n        /* \"Staking.sol\":8206:8230  plans[id].activePlanList */\n      0x02\n      add\n        /* \"Staking.sol\":8206:8236  plans[id].activePlanList.pop() */\n      dup1\n      sload\n      dup1\n      iszero\n      iszero\n      tag_160\n      jumpi\n      invalid\n    tag_160:\n      0x01\n      swap1\n      sub\n      dup2\n      dup2\n      swap1\n      0x00\n      mstore\n      keccak256(0x00, 0x20)\n      swap1\n      0x08\n      swap2\n      dup3\n      dup3\n      div\n      add\n      swap2\n      swap1\n      mod\n      0x04\n      mul\n      0x0100\n      exp\n      dup2\n      sload\n      swap1\n      0xffffffff\n      mul\n      not\n      and\n      swap1\n      sstore\n      swap1\n      sstore\n        /* \"Staking.sol\":8253:8257  true */\n      0x01\n        /* \"Staking.sol\":8246:8257  return true */\n      swap3\n      pop\n      pop\n      pop\n        /* \"Staking.sol\":7683:8264  function deleteActivePlanListElement(... */\n      swap3\n      swap2\n      pop\n      pop\n      jump\t// out\n        /* \"SafeMath.sol\":1211:1356  function sub(uint256 a, uint256 b) internal pure returns (uint256) {... */\n    tag_63:\n        /* \"SafeMath.sol\":1269:1276  uint256 */\n      0x00\n        /* \"SafeMath.sol\":1301:1302  a */\n      dup3\n        /* \"SafeMath.sol\":1296:1297  b */\n      dup3\n        /* \"SafeMath.sol\":1296:1302  b <= a */\n      gt\n      iszero\n        /* \"SafeMath.sol\":1288:1303  require(b <= a) */\n      iszero\n      iszero\n      tag_163\n      jumpi\n      0x00\n      dup1\n      revert\n    tag_163:\n        /* \"SafeMath.sol\":1313:1322  uint256 c */\n      0x00\n        /* \"SafeMath.sol\":1329:1330  b */\n      dup3\n        /* \"SafeMath.sol\":1325:1326  a */\n      dup5\n        /* \"SafeMath.sol\":1325:1330  a - b */\n      sub\n        /* \"SafeMath.sol\":1313:1330  uint256 c = a - b */\n      swap1\n      pop\n        /* \"SafeMath.sol\":1348:1349  c */\n      dup1\n        /* \"SafeMath.sol\":1341:1349  return c */\n      swap2\n      pop\n      pop\n        /* \"SafeMath.sol\":1211:1356  function sub(uint256 a, uint256 b) internal pure returns (uint256) {... */\n      swap3\n      swap2\n      pop\n      pop\n      jump\t// out\n        /* \"SafeMath.sol\":1439:1584  function add(uint256 a, uint256 b) internal pure returns (uint256) {... */\n    tag_71:\n        /* \"SafeMath.sol\":1497:1504  uint256 */\n      0x00\n        /* \"SafeMath.sol\":1516:1525  uint256 c */\n      dup1\n        /* \"SafeMath.sol\":1532:1533  b */\n      dup3\n        /* \"SafeMath.sol\":1528:1529  a */\n      dup5\n        /* \"SafeMath.sol\":1528:1533  a + b */\n      add\n        /* \"SafeMath.sol\":1516:1533  uint256 c = a + b */\n      swap1\n      pop\n        /* \"SafeMath.sol\":1556:1557  a */\n      dup4\n        /* \"SafeMath.sol\":1551:1552  c */\n      dup2\n        /* \"SafeMath.sol\":1551:1557  c >= a */\n      lt\n      iszero\n        /* \"SafeMath.sol\":1543:1558  require(c >= a) */\n      iszero\n      iszero\n      tag_165\n      jumpi\n      0x00\n      dup1\n      revert\n    tag_165:\n        /* \"SafeMath.sol\":1576:1577  c */\n      dup1\n        /* \"SafeMath.sol\":1569:1577  return c */\n      swap2\n      pop\n      pop\n        /* \"SafeMath.sol\":1439:1584  function add(uint256 a, uint256 b) internal pure returns (uint256) {... */\n      swap3\n      swap2\n      pop\n      pop\n      jump\t// out\n        /* \"SafeMath.sol\":782:1078  function div(uint256 a, uint256 b) internal pure returns (uint256) {... */\n    tag_116:\n        /* \"SafeMath.sol\":840:847  uint256 */\n      0x00\n        /* \"SafeMath.sol\":937:938  0 */\n      dup1\n        /* \"SafeMath.sol\":933:934  b */\n      dup3\n        /* \"SafeMath.sol\":933:938  b > 0 */\n      gt\n        /* \"SafeMath.sol\":925:939  require(b > 0) */\n      iszero\n      iszero\n      tag_167\n      jumpi\n      0x00\n      dup1\n      revert\n    tag_167:\n        /* \"SafeMath.sol\":949:958  uint256 c */\n      0x00\n        /* \"SafeMath.sol\":965:966  b */\n      dup3\n        /* \"SafeMath.sol\":961:962  a */\n      dup5\n        /* \"SafeMath.sol\":961:966  a / b */\n      dup2\n      iszero\n      iszero\n      tag_168\n      jumpi\n      invalid\n    tag_168:\n      div\n        /* \"SafeMath.sol\":949:966  uint256 c = a / b */\n      swap1\n      pop\n        /* \"SafeMath.sol\":1070:1071  c */\n      dup1\n        /* \"SafeMath.sol\":1063:1071  return c */\n      swap2\n      pop\n      pop\n        /* \"SafeMath.sol\":782:1078  function div(uint256 a, uint256 b) internal pure returns (uint256) {... */\n      swap3\n      swap2\n      pop\n      pop\n      jump\t// out\n        /* \"SafeMath.sol\":231:652  function mul(uint256 a, uint256 b) internal pure returns (uint256) {... */\n    tag_145:\n        /* \"SafeMath.sol\":289:296  uint256 */\n      0x00\n        /* \"SafeMath.sol\":534:535  0 */\n      dup1\n        /* \"SafeMath.sol\":529:530  a */\n      dup4\n        /* \"SafeMath.sol\":529:535  a == 0 */\n      eq\n        /* \"SafeMath.sol\":525:570  if (a == 0) {... */\n      iszero\n      tag_170\n      jumpi\n        /* \"SafeMath.sol\":558:559  0 */\n      0x00\n        /* \"SafeMath.sol\":551:559  return 0 */\n      swap1\n      pop\n      jump(tag_169)\n        /* \"SafeMath.sol\":525:570  if (a == 0) {... */\n    tag_170:\n        /* \"SafeMath.sol\":580:589  uint256 c */\n      0x00\n        /* \"SafeMath.sol\":596:597  b */\n      dup3\n        /* \"SafeMath.sol\":592:593  a */\n      dup5\n        /* \"SafeMath.sol\":592:597  a * b */\n      mul\n        /* \"SafeMath.sol\":580:597  uint256 c = a * b */\n      swap1\n      pop\n        /* \"SafeMath.sol\":624:625  b */\n      dup3\n        /* \"SafeMath.sol\":619:620  a */\n      dup5\n        /* \"SafeMath.sol\":615:616  c */\n      dup3\n        /* \"SafeMath.sol\":615:620  c / a */\n      dup2\n      iszero\n      iszero\n      tag_171\n      jumpi\n      invalid\n    tag_171:\n      div\n        /* \"SafeMath.sol\":615:625  c / a == b */\n      eq\n        /* \"SafeMath.sol\":607:626  require(c / a == b) */\n      iszero\n      iszero\n      tag_172\n      jumpi\n      0x00\n      dup1\n      revert\n    tag_172:\n        /* \"SafeMath.sol\":644:645  c */\n      dup1\n        /* \"SafeMath.sol\":637:645  return c */\n      swap2\n      pop\n      pop\n        /* \"SafeMath.sol\":231:652  function mul(uint256 a, uint256 b) internal pure returns (uint256) {... */\n    tag_169:\n      swap3\n      swap2\n      pop\n      pop\n      jump\t// out\n        /* \"Staking.sol\":52:8266  contract Staking {... */\n    tag_89:\n      0x0380\n      mload(0x40)\n      swap1\n      dup2\n      add\n      0x40\n      mstore\n      dup1\n      and(0xffffffffffffffffffffffffffffffff, 0x00)\n      dup2\n      mstore\n      0x20\n      add\n      and(0xffffffff, 0x00)\n      dup2\n      mstore\n      0x20\n      add\n      and(0xffffffff, 0x00)\n      dup2\n      mstore\n      0x20\n      add\n      and(0xffffffff, 0x00)\n      dup2\n      mstore\n      0x20\n      add\n      tag_173\n      tag_174\n      jump\t// in\n    tag_173:\n      dup2\n      mstore\n      pop\n      swap1\n      jump\t// out\n    tag_94:\n      dup3\n      add(0x07, 0x18)\n      0x08\n      swap1\n      div\n      dup2\n      add\n      swap3\n      dup3\n      iszero\n      tag_175\n      jumpi\n      swap2\n      0x20\n      mul\n      dup3\n      add\n      0x00\n    tag_176:\n      dup4\n      dup3\n      gt\n      iszero\n      tag_177\n      jumpi\n      dup4\n      mload\n      dup4\n      dup3\n      0x0100\n      exp\n      dup2\n      sload\n      dup2\n      0xffffffff\n      mul\n      not\n      and\n      swap1\n      dup4\n      0xffffffff\n      and\n      mul\n      or\n      swap1\n      sstore\n      pop\n      swap3\n      0x20\n      add\n      swap3\n      0x04\n      add\n      0x20\n      dup2\n      0x03\n      add\n      div\n      swap3\n      dup4\n      add\n      swap3\n      0x01\n      sub\n      mul\n      jump(tag_176)\n    tag_177:\n      dup1\n      iszero\n      tag_178\n      jumpi\n      dup3\n      dup2\n      0x0100\n      exp\n      dup2\n      sload\n      swap1\n      0xffffffff\n      mul\n      not\n      and\n      swap1\n      sstore\n      0x04\n      add\n      0x20\n      dup2\n      0x03\n      add\n      div\n      swap3\n      dup4\n      add\n      swap3\n      0x01\n      sub\n      mul\n      jump(tag_177)\n    tag_178:\n      pop\n    tag_175:\n      pop\n      swap1\n      pop\n      tag_179\n      swap2\n      swap1\n      tag_180\n      jump\t// in\n    tag_179:\n      pop\n      swap1\n      jump\t// out\n    tag_101:\n      0xa0\n      mload(0x40)\n      swap1\n      dup2\n      add\n      0x40\n      mstore\n      dup1\n      and(0xffffffffffffffffffffffffffffffff, 0x00)\n      dup2\n      mstore\n      0x20\n      add\n      and(0xffffffffffffffffffffffffffffffff, 0x00)\n      dup2\n      mstore\n      0x20\n      add\n      and(0xffffffffffffffffffffffffffffffff, 0x00)\n      dup2\n      mstore\n      0x20\n      add\n      and(0xffffffffffffffffffffffffffffffff, 0x00)\n      dup2\n      mstore\n      0x20\n      add\n      0x60\n      dup2\n      mstore\n      pop\n      swap1\n      jump\t// out\n    tag_128:\n      dup3\n      dup1\n      sload\n      dup3\n      dup3\n      sstore\n      swap1\n      0x00\n      mstore\n      keccak256(0x00, 0x20)\n      swap1\n      0x07\n      add\n      0x08\n      swap1\n      div\n      dup2\n      add\n      swap3\n      dup3\n      iszero\n      tag_181\n      jumpi\n      swap2\n      0x20\n      mul\n      dup3\n      add\n      0x00\n    tag_182:\n      dup4\n      dup3\n      gt\n      iszero\n      tag_183\n      jumpi\n      dup4\n      mload\n      dup4\n      dup3\n      0x0100\n      exp\n      dup2\n      sload\n      dup2\n      0xffffffff\n      mul\n      not\n      and\n      swap1\n      dup4\n      0xffffffff\n      and\n      mul\n      or\n      swap1\n      sstore\n      pop\n      swap3\n      0x20\n      add\n      swap3\n      0x04\n      add\n      0x20\n      dup2\n      0x03\n      add\n      div\n      swap3\n      dup4\n      add\n      swap3\n      0x01\n      sub\n      mul\n      jump(tag_182)\n    tag_183:\n      dup1\n      iszero\n      tag_184\n      jumpi\n      dup3\n      dup2\n      0x0100\n      exp\n      dup2\n      sload\n      swap1\n      0xffffffff\n      mul\n      not\n      and\n      swap1\n      sstore\n      0x04\n      add\n      0x20\n      dup2\n      0x03\n      add\n      div\n      swap3\n      dup4\n      add\n      swap3\n      0x01\n      sub\n      mul\n      jump(tag_183)\n    tag_184:\n      pop\n    tag_181:\n      pop\n      swap1\n      pop\n      tag_185\n      swap2\n      swap1\n      tag_180\n      jump\t// in\n    tag_185:\n      pop\n      swap1\n      jump\t// out\n    tag_174:\n      0x0300\n      mload(0x40)\n      swap1\n      dup2\n      add\n      0x40\n      mstore\n      dup1\n      0x18\n      swap1\n        /* \"--CODEGEN--\":29:31   */\n      0x20\n        /* \"--CODEGEN--\":21:27   */\n      dup3\n        /* \"--CODEGEN--\":17:32   */\n      mul\n        /* \"--CODEGEN--\":117:121   */\n      dup1\n        /* \"--CODEGEN--\":105:115   */\n      codesize\n        /* \"--CODEGEN--\":97:103   */\n      dup4\n        /* \"--CODEGEN--\":88:122   */\n      codecopy\n        /* \"--CODEGEN--\":148:152   */\n      dup1\n        /* \"--CODEGEN--\":140:146   */\n      dup3\n        /* \"--CODEGEN--\":136:153   */\n      add\n        /* \"--CODEGEN--\":126:153   */\n      swap2\n      pop\n        /* \"--CODEGEN--\":0:157   */\n      pop\n        /* \"Staking.sol\":52:8266  contract Staking {... */\n      swap1\n      pop\n      pop\n      swap1\n      jump\t// out\n    tag_180:\n      tag_186\n      swap2\n      swap1\n    tag_187:\n      dup1\n      dup3\n      gt\n      iszero\n      tag_188\n      jumpi\n      0x00\n      dup2\n      dup2\n      0x0100\n      exp\n      dup2\n      sload\n      swap1\n      0xffffffff\n      mul\n      not\n      and\n      swap1\n      sstore\n      pop\n      0x01\n      add\n      jump(tag_187)\n    tag_188:\n      pop\n      swap1\n      jump\n    tag_186:\n      swap1\n      jump\t// out\n\n    auxdata: 0xa165627a7a72305820a0d5d73ce98861087581832b858d76e844676a66bea7a0797464c24c245d268b0029\n}\n","bytecode":{"linkReferences":{},"object":"608060405234801561001057600080fd5b506040516020806129958339810180604052602081101561003057600080fd5b810190808051906020019092919050505080600260006101000a81548173ffffffffffffffffffffffffffffffffffffffff021916908373ffffffffffffffffffffffffffffffffffffffff16021790555050612903806100926000396000f3fe608060405234801561001057600080fd5b50600436106100c6576000357c0100000000000000000000000000000000000000000000000000000000900480639ae765f41161008e5780639ae765f4146102be578063b162061614610300578063c2149cf9146103e7578063d5a44f861461044b578063d83f0115146104ea578063de33ec321461057e576100c6565b806323691677146100cb5780632d2155181461011b5780633f7f6ce21461016b578063682667a9146101bb5780636850bfe814610205575b600080fd5b6100f7600480360360208110156100e157600080fd5b81019080803590602001909291905050506105ca565b60405180848152602001838152602001828152602001935050505060405180910390f35b6101516004803603604081101561013157600080fd5b810190808035906020019092919080359060200190929190505050610740565b604051808215151515815260200191505060405180910390f35b6101a16004803603604081101561018157600080fd5b810190808035906020019092919080359060200190929190505050610931565b604051808215151515815260200191505060405180910390f35b6101c3610bcc565b604051808273ffffffffffffffffffffffffffffffffffffffff1673ffffffffffffffffffffffffffffffffffffffff16815260200191505060405180910390f35b6102a4600480360360a081101561021b57600080fd5b81019080803590602001909291908035906020019092919080359060200190929190803590602001909291908035906020019064010000000081111561026057600080fd5b82018360208201111561027257600080fd5b8035906020019184602083028401116401000000008311171561029457600080fd5b9091929391929390505050610bf2565b604051808215151515815260200191505060405180910390f35b6102ea600480360360208110156102d457600080fd5b8101908080359060200190929190505050610d20565b6040518082815260200191505060405180910390f35b61032c6004803603602081101561031657600080fd5b8101908080359060200190929190505050610e33565b60405180856fffffffffffffffffffffffffffffffff166fffffffffffffffffffffffffffffffff168152602001846fffffffffffffffffffffffffffffffff166fffffffffffffffffffffffffffffffff168152602001836fffffffffffffffffffffffffffffffff166fffffffffffffffffffffffffffffffff168152602001826fffffffffffffffffffffffffffffffff166fffffffffffffffffffffffffffffffff16815260200194505050505060405180910390f35b610431600480360360808110156103fd57600080fd5b8101908080359060200190929190803590602001909291908035906020019092919080359060200190929190505050610ed3565b604051808215151515815260200191505060405180910390f35b6104776004803603602081101561046157600080fd5b810190808035906020019092919050505061124c565b60405180856fffffffffffffffffffffffffffffffff166fffffffffffffffffffffffffffffffff1681526020018463ffffffff1663ffffffff1681526020018363ffffffff1663ffffffff1681526020018263ffffffff1663ffffffff16815260200194505050505060405180910390f35b6105206004803603604081101561050057600080fd5b8101908080359060200190929190803590602001909291905050506112c8565b6040518080602001838152602001828103825284818151815260200191508051906020019060200280838360005b8381101561056957808201518184015260208101905061054e565b50505050905001935050505060405180910390f35b6105b46004803603604081101561059457600080fd5b810190808035906020019092919080359060200190929190505050611d59565b6040518082815260200191505060405180910390f35b6000806000600260009054906101000a900473ffffffffffffffffffffffffffffffffffffffff1673ffffffffffffffffffffffffffffffffffffffff163373ffffffffffffffffffffffffffffffffffffffff16141515610694576040517f08c379a00000000000000000000000000000000000000000000000000000000081526004018080602001828103825260208152602001807f4f776e65722054696d65416c6c792073686f756c642062652063616c6c696e6781525060200191505060405180910390fd5b6001600085815260200190815260200160002060000160109054906101000a900463ffffffff1663ffffffff166001600086815260200190815260200160002060000160009054906101000a90046fffffffffffffffffffffffffffffffff166fffffffffffffffffffffffffffffffff166001600087815260200190815260200160002060000160149054906101000a900463ffffffff1663ffffffff169250925092509193909250565b6000600260009054906101000a900473ffffffffffffffffffffffffffffffffffffffff1673ffffffffffffffffffffffffffffffffffffffff163373ffffffffffffffffffffffffffffffffffffffff16141515610807576040517f08c379a00000000000000000000000000000000000000000000000000000000081526004018080602001828103825260208152602001807f4f776e65722054696d65416c6c792073686f756c642062652063616c6c696e6781525060200191505060405180910390fd5b610837836001600085815260200190815260200160002060000160189054906101000a900463ffffffff16612379565b151561084257600080fd5b6108dc6001600084815260200190815260200160002060000160009054906101000a90046fffffffffffffffffffffffffffffffff166fffffffffffffffffffffffffffffffff1660008086815260200190815260200160002060000160109054906101000a90046fffffffffffffffffffffffffffffffff166fffffffffffffffffffffffffffffffff166125af90919063ffffffff16565b60008085815260200190815260200160002060000160106101000a8154816fffffffffffffffffffffffffffffffff02191690836fffffffffffffffffffffffffffffffff1602179055506001905092915050565b6000600260009054906101000a900473ffffffffffffffffffffffffffffffffffffffff1673ffffffffffffffffffffffffffffffffffffffff163373ffffffffffffffffffffffffffffffffffffffff161415156109f8576040517f08c379a00000000000000000000000000000000000000000000000000000000081526004018080602001828103825260208152602001807f4f776e65722054696d65416c6c792073686f756c642062652063616c6c696e6781525060200191505060405180910390fd5b60006001600084815260200190815260200160002060000160189054906101000a900463ffffffff1663ffffffff16141515610a3357600080fd5b610aa9600160008086815260200190815260200160002060020184908060018154018082558091505090600182039060005260206000209060089182820401919006600402909192909190916101000a81548163ffffffff021916908363ffffffff1602179055506125af90919063ffffffff16565b6001600084815260200190815260200160002060000160186101000a81548163ffffffff021916908363ffffffff160217905550610b776001600084815260200190815260200160002060000160009054906101000a90046fffffffffffffffffffffffffffffffff166fffffffffffffffffffffffffffffffff1660008086815260200190815260200160002060000160109054906101000a90046fffffffffffffffffffffffffffffffff166fffffffffffffffffffffffffffffffff166125d190919063ffffffff16565b60008085815260200190815260200160002060000160106101000a8154816fffffffffffffffffffffffffffffffff02191690836fffffffffffffffffffffffffffffffff1602179055506001905092915050565b600260009054906101000a900473ffffffffffffffffffffffffffffffffffffffff1681565b6000600260009054906101000a900473ffffffffffffffffffffffffffffffffffffffff1673ffffffffffffffffffffffffffffffffffffffff163373ffffffffffffffffffffffffffffffffffffffff16141515610cb9576040517f08c379a00000000000000000000000000000000000000000000000000000000081526004018080602001828103825260208152602001807f4f776e65722054696d65416c6c792073686f756c642062652063616c6c696e6781525060200191505060405180910390fd5b60008090505b87811015610d1157610cf987610cde83896125d190919063ffffffff16565b878787868181101515610ced57fe5b90506020020135610ed3565b1515610d0457600080fd5b8080600101915050610cbf565b50600190509695505050505050565b6000600260009054906101000a900473ffffffffffffffffffffffffffffffffffffffff1673ffffffffffffffffffffffffffffffffffffffff163373ffffffffffffffffffffffffffffffffffffffff16141515610de7576040517f08c379a00000000000000000000000000000000000000000000000000000000081526004018080602001828103825260208152602001807f4f776e65722054696d65416c6c792073686f756c642062652063616c6c696e6781525060200191505060405180910390fd5b6001600083815260200190815260200160002060000160009054906101000a90046fffffffffffffffffffffffffffffffff166fffffffffffffffffffffffffffffffff169050919050565b60006020528060005260406000206000915090508060000160009054906101000a90046fffffffffffffffffffffffffffffffff16908060000160109054906101000a90046fffffffffffffffffffffffffffffffff16908060010160009054906101000a90046fffffffffffffffffffffffffffffffff16908060010160109054906101000a90046fffffffffffffffffffffffffffffffff16905084565b6000600260009054906101000a900473ffffffffffffffffffffffffffffffffffffffff1673ffffffffffffffffffffffffffffffffffffffff163373ffffffffffffffffffffffffffffffffffffffff16141515610f9a576040517f08c379a00000000000000000000000000000000000000000000000000000000081526004018080602001828103825260208152602001807f4f776e65722054696d65416c6c792073686f756c642062652063616c6c696e6781525060200191505060405180910390fd5b610fa261265a565b83816020019063ffffffff16908163ffffffff16815250508281600001906fffffffffffffffffffffffffffffffff1690816fffffffffffffffffffffffffffffffff16815250506000816040019063ffffffff16908163ffffffff1681525050611079600160008089815260200190815260200160002060020187908060018154018082558091505090600182039060005260206000209060089182820401919006600402909192909190916101000a81548163ffffffff021916908363ffffffff1602179055506125af90919063ffffffff16565b816060019063ffffffff16908163ffffffff168152505082816080015160006018811015156110a457fe5b602002019063ffffffff16908163ffffffff1681525050806001600087815260200190815260200160002060008201518160000160006101000a8154816fffffffffffffffffffffffffffffffff02191690836fffffffffffffffffffffffffffffffff16021790555060208201518160000160106101000a81548163ffffffff021916908363ffffffff16021790555060408201518160000160146101000a81548163ffffffff021916908363ffffffff16021790555060608201518160000160186101000a81548163ffffffff021916908363ffffffff16021790555060808201518160010190601861119a9291906126b5565b509050506111f48360008089815260200190815260200160002060000160109054906101000a90046fffffffffffffffffffffffffffffffff166fffffffffffffffffffffffffffffffff166125d190919063ffffffff16565b60008088815260200190815260200160002060000160106101000a8154816fffffffffffffffffffffffffffffffff02191690836fffffffffffffffffffffffffffffffff1602179055506001915050949350505050565b60016020528060005260406000206000915090508060000160009054906101000a90046fffffffffffffffffffffffffffffffff16908060000160109054906101000a900463ffffffff16908060000160149054906101000a900463ffffffff16908060000160189054906101000a900463ffffffff16905084565b60606000600260009054906101000a900473ffffffffffffffffffffffffffffffffffffffff1673ffffffffffffffffffffffffffffffffffffffff163373ffffffffffffffffffffffffffffffffffffffff16141515611391576040517f08c379a00000000000000000000000000000000000000000000000000000000081526004018080602001828103825260208152602001807f4f776e65722054696d65416c6c792073686f756c642062652063616c6c696e6781525060200191505060405180910390fd5b60008085815260200190815260200160002060010160109054906101000a90046fffffffffffffffffffffffffffffffff166fffffffffffffffffffffffffffffffff16600080868152602001908152602001600020600201805490501115156113fa57600080fd5b611402612758565b60008086815260200190815260200160002060a060405190810160405290816000820160009054906101000a90046fffffffffffffffffffffffffffffffff166fffffffffffffffffffffffffffffffff166fffffffffffffffffffffffffffffffff1681526020016000820160109054906101000a90046fffffffffffffffffffffffffffffffff166fffffffffffffffffffffffffffffffff166fffffffffffffffffffffffffffffffff1681526020016001820160009054906101000a90046fffffffffffffffffffffffffffffffff166fffffffffffffffffffffffffffffffff166fffffffffffffffffffffffffffffffff1681526020016001820160109054906101000a90046fffffffffffffffffffffffffffffffff166fffffffffffffffffffffffffffffffff166fffffffffffffffffffffffffffffffff168152602001600282018054806020026020016040519081016040528092919081815260200182805480156115c357602002820191906000526020600020906000905b82829054906101000a900463ffffffff1663ffffffff16815260200190600401906020826003010492830192600103820291508084116115865790505b50505050508152505090506115d661265a565b6000806000806060600087606001516fffffffffffffffffffffffffffffffff16905060008860800151516116148d846125d190919063ffffffff16565b101515611659578860800151519050600089606001906fffffffffffffffffffffffffffffffff1690816fffffffffffffffffffffffffffffffff168152505061169f565b61166c8c836125d190919063ffffffff16565b90508089606001906fffffffffffffffffffffffffffffffff1690816fffffffffffffffffffffffffffffffff16815250505b5b80821015611bb8578860800151828151811015156116ba57fe5b9060200190602002015163ffffffff1696506001600088815260200190815260200160002060a060405190810160405290816000820160009054906101000a90046fffffffffffffffffffffffffffffffff166fffffffffffffffffffffffffffffffff166fffffffffffffffffffffffffffffffff1681526020016000820160109054906101000a900463ffffffff1663ffffffff1663ffffffff1681526020016000820160149054906101000a900463ffffffff1663ffffffff1663ffffffff1681526020016000820160189054906101000a900463ffffffff1663ffffffff1663ffffffff1681526020016001820160188060200260405190810160405280929190826018801561180f576020028201916000905b82829054906101000a900463ffffffff1663ffffffff16815260200190600401906020826003010492830192600103820291508084116117d25790505b5050505050815250509750876020015163ffffffff16886040015163ffffffff1681151561183957fe5b0663ffffffff16955061188a60028a60400151026fffffffffffffffffffffffffffffffff168a600001518a60000151026fffffffffffffffffffffffffffffffff166125f290919063ffffffff16565b9450867f356b79d8e456e7aa0d7747645cf39921d403293bb965efc71e8a65c1a62590e0896040015187604051808363ffffffff1663ffffffff1681526020018281526020019250505060405180910390a2600093506118fe6001896020015163ffffffff166125af90919063ffffffff16565b886040015163ffffffff16111561197f5787608001518660188110151561192157fe5b602002015163ffffffff169350867f296537e11b520626dbd4aae6053652b9c2a7395fb926f112d547e0f9383476a6896040015186604051808363ffffffff1663ffffffff1681526020018281526020019250505060405180910390a25b6119ba846119ac878c602001516fffffffffffffffffffffffffffffffff166125d190919063ffffffff16565b6125af90919063ffffffff16565b89602001906fffffffffffffffffffffffffffffffff1690816fffffffffffffffffffffffffffffffff1681525050611a2484611a16878b600001516fffffffffffffffffffffffffffffffff166125d190919063ffffffff16565b6125af90919063ffffffff16565b88600001906fffffffffffffffffffffffffffffffff1690816fffffffffffffffffffffffffffffffff168152505084886080015187601881101515611a6657fe5b602002019063ffffffff16908163ffffffff168152505087604001805180919060010163ffffffff1663ffffffff168152505086955060808486019060020a028617955085838451815181101515611aba57fe5b9060200190602002018181525050876001600089815260200190815260200160002060008201518160000160006101000a8154816fffffffffffffffffffffffffffffffff02191690836fffffffffffffffffffffffffffffffff16021790555060208201518160000160106101000a81548163ffffffff021916908363ffffffff16021790555060408201518160000160146101000a81548163ffffffff021916908363ffffffff16021790555060608201518160000160186101000a81548163ffffffff021916908363ffffffff160217905550608082015181600101906018611ba79291906126b5565b5090505081806001019250506116a0565b8c7f08a82d6b7dbab5cafd85cce94dd8a6f4e8495965c3573d486582e53c6cbfb6bd828b6080015151604051808381526020018281526020019250505060405180910390a2886000808f815260200190815260200160002060008201518160000160006101000a8154816fffffffffffffffffffffffffffffffff02191690836fffffffffffffffffffffffffffffffff16021790555060208201518160000160106101000a8154816fffffffffffffffffffffffffffffffff02191690836fffffffffffffffffffffffffffffffff16021790555060408201518160010160006101000a8154816fffffffffffffffffffffffffffffffff02191690836fffffffffffffffffffffffffffffffff16021790555060608201518160010160106101000a8154816fffffffffffffffffffffffffffffffff02191690836fffffffffffffffffffffffffffffffff1602179055506080820151816002019080519060200190611d289291906127d0565b5090505082611d45828b60800151516125af90919063ffffffff16565b9a509a505050505050505050509250929050565b6000600260009054906101000a900473ffffffffffffffffffffffffffffffffffffffff1673ffffffffffffffffffffffffffffffffffffffff163373ffffffffffffffffffffffffffffffffffffffff16141515611e20576040517f08c379a00000000000000000000000000000000000000000000000000000000081526004018080602001828103825260208152602001807f4f776e65722054696d65416c6c792073686f756c642062652063616c6c696e6781525060200191505060405180910390fd5b600080600090505b8381111515611e9657611e8760008083815260200190815260200160002060000160109054906101000a90046fffffffffffffffffffffffffffffffff166fffffffffffffffffffffffffffffffff16836125d190919063ffffffff16565b91508080600101915050611e28565b7ff77fa968b82936dc0480f623faeea411245c1d9f74ffd0530d6ca303943b3df4826040518082815260200191505060405180910390a1600082111515611edc57600080fd5b600090505b838111151561218c57600080600083815260200190815260200160002060000160109054906101000a90046fffffffffffffffffffffffffffffffff166fffffffffffffffffffffffffffffffff161415611f8857600080600083815260200190815260200160002060000160006101000a8154816fffffffffffffffffffffffffffffffff02191690836fffffffffffffffffffffffffffffffff1602179055506120b9565b611ff082611fe28760008086815260200190815260200160002060000160109054906101000a90046fffffffffffffffffffffffffffffffff166fffffffffffffffffffffffffffffffff1661261c90919063ffffffff16565b6125f290919063ffffffff16565b60008083815260200190815260200160002060000160006101000a8154816fffffffffffffffffffffffffffffffff02191690836fffffffffffffffffffffffffffffffff16021790555060008082815260200190815260200160002060000160109054906101000a90046fffffffffffffffffffffffffffffffff1660008083815260200190815260200160002060010160006101000a8154816fffffffffffffffffffffffffffffffff02191690836fffffffffffffffffffffffffffffffff1602179055505b807f0cd26e91c568ac4316dce91615897b0cf6adeb79e220880fe9dafaad25452d8960008084815260200190815260200160002060000160109054906101000a90046fffffffffffffffffffffffffffffffff166fffffffffffffffffffffffffffffffff1660008085815260200190815260200160002060000160009054906101000a90046fffffffffffffffffffffffffffffffff166fffffffffffffffffffffffffffffffff16604051808381526020018281526020019250505060405180910390a28080600101915050611ee1565b60006121f8600f6121ea600260008080815260200190815260200160002060000160009054906101000a90046fffffffffffffffffffffffffffffffff166fffffffffffffffffffffffffffffffff1661261c90919063ffffffff16565b6125f290919063ffffffff16565b90506000811415156122a65761225a8160008080815260200190815260200160002060000160009054906101000a90046fffffffffffffffffffffffffffffffff166fffffffffffffffffffffffffffffffff166125af90919063ffffffff16565b60008080815260200190815260200160002060000160006101000a8154816fffffffffffffffffffffffffffffffff02191690836fffffffffffffffffffffffffffffffff1602179055505b60007f0cd26e91c568ac4316dce91615897b0cf6adeb79e220880fe9dafaad25452d8960008080815260200190815260200160002060000160109054906101000a90046fffffffffffffffffffffffffffffffff166fffffffffffffffffffffffffffffffff1660008080815260200190815260200160002060000160009054906101000a90046fffffffffffffffffffffffffffffffff166fffffffffffffffffffffffffffffffff16604051808381526020018281526020019250505060405180910390a280935050505092915050565b60008060008085815260200190815260200160002060000160109054906101000a90046fffffffffffffffffffffffffffffffff166fffffffffffffffffffffffffffffffff16141515156123cd57600080fd5b600080848152602001908152602001600020600201805490508263ffffffff161015156123f957600080fd5b60006124276001600080878152602001908152602001600020600201805490506125af90919063ffffffff16565b905060008060008681526020019081526020016000206002018281548110151561244d57fe5b90600052602060002090600891828204019190066004029054906101000a900463ffffffff16905083600160008363ffffffff16815260200190815260200160002060000160186101000a81548163ffffffff021916908363ffffffff160217905550600080868152602001908152602001600020600201828154811015156124d257fe5b90600052602060002090600891828204019190066004029054906101000a900463ffffffff166000808781526020019081526020016000206002018563ffffffff1681548110151561252057fe5b90600052602060002090600891828204019190066004026101000a81548163ffffffff021916908363ffffffff160217905550600080868152602001908152602001600020600201805480151561257357fe5b60019003818190600052602060002090600891828204019190066004026101000a81549063ffffffff0219169055905560019250505092915050565b60008282111515156125c057600080fd5b600082840390508091505092915050565b60008082840190508381101515156125e857600080fd5b8091505092915050565b6000808211151561260257600080fd5b6000828481151561260f57fe5b0490508091505092915050565b60008083141561262f5760009050612654565b6000828402905082848281151561264257fe5b0414151561264f57600080fd5b809150505b92915050565b6103806040519081016040528060006fffffffffffffffffffffffffffffffff168152602001600063ffffffff168152602001600063ffffffff168152602001600063ffffffff1681526020016126af612880565b81525090565b8260186007016008900481019282156127475791602002820160005b8382111561271557835183826101000a81548163ffffffff021916908363ffffffff16021790555092602001926004016020816003010492830192600103026126d1565b80156127455782816101000a81549063ffffffff0219169055600401602081600301049283019260010302612715565b505b50905061275491906128a4565b5090565b60a06040519081016040528060006fffffffffffffffffffffffffffffffff16815260200160006fffffffffffffffffffffffffffffffff16815260200160006fffffffffffffffffffffffffffffffff16815260200160006fffffffffffffffffffffffffffffffff168152602001606081525090565b8280548282559060005260206000209060070160089004810192821561286f5791602002820160005b8382111561283d57835183826101000a81548163ffffffff021916908363ffffffff16021790555092602001926004016020816003010492830192600103026127f9565b801561286d5782816101000a81549063ffffffff021916905560040160208160030104928301926001030261283d565b505b50905061287c91906128a4565b5090565b61030060405190810160405280601890602082028038833980820191505090505090565b6128d491905b808211156128d057600081816101000a81549063ffffffff0219169055506001016128aa565b5090565b9056fea165627a7a72305820a0d5d73ce98861087581832b858d76e844676a66bea7a0797464c24c245d268b0029","opcodes":"PUSH1 0x80 PUSH1 0x40 MSTORE CALLVALUE DUP1 ISZERO PUSH2 0x10 JUMPI PUSH1 0x0 DUP1 REVERT JUMPDEST POP PUSH1 0x40 MLOAD PUSH1 0x20 DUP1 PUSH2 0x2995 DUP4 CODECOPY DUP2 ADD DUP1 PUSH1 0x40 MSTORE PUSH1 0x20 DUP2 LT ISZERO PUSH2 0x30 JUMPI PUSH1 0x0 DUP1 REVERT JUMPDEST DUP2 ADD SWAP1 DUP1 DUP1 MLOAD SWAP1 PUSH1 0x20 ADD SWAP1 SWAP3 SWAP2 SWAP1 POP POP POP DUP1 PUSH1 0x2 PUSH1 0x0 PUSH2 0x100 EXP DUP2 SLOAD DUP2 PUSH20 0xFFFFFFFFFFFFFFFFFFFFFFFFFFFFFFFFFFFFFFFF MUL NOT AND SWAP1 DUP4 PUSH20 0xFFFFFFFFFFFFFFFFFFFFFFFFFFFFFFFFFFFFFFFF AND MUL OR SWAP1 SSTORE POP POP PUSH2 0x2903 DUP1 PUSH2 0x92 PUSH1 0x0 CODECOPY PUSH1 0x0 RETURN INVALID PUSH1 0x80 PUSH1 0x40 MSTORE CALLVALUE DUP1 ISZERO PUSH2 0x10 JUMPI PUSH1 0x0 DUP1 REVERT JUMPDEST POP PUSH1 0x4 CALLDATASIZE LT PUSH2 0xC6 JUMPI PUSH1 0x0 CALLDATALOAD PUSH29 0x100000000000000000000000000000000000000000000000000000000 SWAP1 DIV DUP1 PUSH4 0x9AE765F4 GT PUSH2 0x8E JUMPI DUP1 PUSH4 0x9AE765F4 EQ PUSH2 0x2BE JUMPI DUP1 PUSH4 0xB1620616 EQ PUSH2 0x300 JUMPI DUP1 PUSH4 0xC2149CF9 EQ PUSH2 0x3E7 JUMPI DUP1 PUSH4 0xD5A44F86 EQ PUSH2 0x44B JUMPI DUP1 PUSH4 0xD83F0115 EQ PUSH2 0x4EA JUMPI DUP1 PUSH4 0xDE33EC32 EQ PUSH2 0x57E JUMPI PUSH2 0xC6 JUMP JUMPDEST DUP1 PUSH4 0x23691677 EQ PUSH2 0xCB JUMPI DUP1 PUSH4 0x2D215518 EQ PUSH2 0x11B JUMPI DUP1 PUSH4 0x3F7F6CE2 EQ PUSH2 0x16B JUMPI DUP1 PUSH4 0x682667A9 EQ PUSH2 0x1BB JUMPI DUP1 PUSH4 0x6850BFE8 EQ PUSH2 0x205 JUMPI JUMPDEST PUSH1 0x0 DUP1 REVERT JUMPDEST PUSH2 0xF7 PUSH1 0x4 DUP1 CALLDATASIZE SUB PUSH1 0x20 DUP2 LT ISZERO PUSH2 0xE1 JUMPI PUSH1 0x0 DUP1 REVERT JUMPDEST DUP2 ADD SWAP1 DUP1 DUP1 CALLDATALOAD SWAP1 PUSH1 0x20 ADD SWAP1 SWAP3 SWAP2 SWAP1 POP POP POP PUSH2 0x5CA JUMP JUMPDEST PUSH1 0x40 MLOAD DUP1 DUP5 DUP2 MSTORE PUSH1 0x20 ADD DUP4 DUP2 MSTORE PUSH1 0x20 ADD DUP3 DUP2 MSTORE PUSH1 0x20 ADD SWAP4 POP POP POP POP PUSH1 0x40 MLOAD DUP1 SWAP2 SUB SWAP1 RETURN JUMPDEST PUSH2 0x151 PUSH1 0x4 DUP1 CALLDATASIZE SUB PUSH1 0x40 DUP2 LT ISZERO PUSH2 0x131 JUMPI PUSH1 0x0 DUP1 REVERT JUMPDEST DUP2 ADD SWAP1 DUP1 DUP1 CALLDATALOAD SWAP1 PUSH1 0x20 ADD SWAP1 SWAP3 SWAP2 SWAP1 DUP1 CALLDATALOAD SWAP1 PUSH1 0x20 ADD SWAP1 SWAP3 SWAP2 SWAP1 POP POP POP PUSH2 0x740 JUMP JUMPDEST PUSH1 0x40 MLOAD DUP1 DUP3 ISZERO ISZERO ISZERO ISZERO DUP2 MSTORE PUSH1 0x20 ADD SWAP2 POP POP PUSH1 0x40 MLOAD DUP1 SWAP2 SUB SWAP1 RETURN JUMPDEST PUSH2 0x1A1 PUSH1 0x4 DUP1 CALLDATASIZE SUB PUSH1 0x40 DUP2 LT ISZERO PUSH2 0x181 JUMPI PUSH1 0x0 DUP1 REVERT JUMPDEST DUP2 ADD SWAP1 DUP1 DUP1 CALLDATALOAD SWAP1 PUSH1 0x20 ADD SWAP1 SWAP3 SWAP2 SWAP1 DUP1 CALLDATALOAD SWAP1 PUSH1 0x20 ADD SWAP1 SWAP3 SWAP2 SWAP1 POP POP POP PUSH2 0x931 JUMP JUMPDEST PUSH1 0x40 MLOAD DUP1 DUP3 ISZERO ISZERO ISZERO ISZERO DUP2 MSTORE PUSH1 0x20 ADD SWAP2 POP POP PUSH1 0x40 MLOAD DUP1 SWAP2 SUB SWAP1 RETURN JUMPDEST PUSH2 0x1C3 PUSH2 0xBCC JUMP JUMPDEST PUSH1 0x40 MLOAD DUP1 DUP3 PUSH20 0xFFFFFFFFFFFFFFFFFFFFFFFFFFFFFFFFFFFFFFFF AND PUSH20 0xFFFFFFFFFFFFFFFFFFFFFFFFFFFFFFFFFFFFFFFF AND DUP2 MSTORE PUSH1 0x20 ADD SWAP2 POP POP PUSH1 0x40 MLOAD DUP1 SWAP2 SUB SWAP1 RETURN JUMPDEST PUSH2 0x2A4 PUSH1 0x4 DUP1 CALLDATASIZE SUB PUSH1 0xA0 DUP2 LT ISZERO PUSH2 0x21B JUMPI PUSH1 0x0 DUP1 REVERT JUMPDEST DUP2 ADD SWAP1 DUP1 DUP1 CALLDATALOAD SWAP1 PUSH1 0x20 ADD SWAP1 SWAP3 SWAP2 SWAP1 DUP1 CALLDATALOAD SWAP1 PUSH1 0x20 ADD SWAP1 SWAP3 SWAP2 SWAP1 DUP1 CALLDATALOAD SWAP1 PUSH1 0x20 ADD SWAP1 SWAP3 SWAP2 SWAP1 DUP1 CALLDATALOAD SWAP1 PUSH1 0x20 ADD SWAP1 SWAP3 SWAP2 SWAP1 DUP1 CALLDATALOAD SWAP1 PUSH1 0x20 ADD SWAP1 PUSH5 0x100000000 DUP2 GT ISZERO PUSH2 0x260 JUMPI PUSH1 0x0 DUP1 REVERT JUMPDEST DUP3 ADD DUP4 PUSH1 0x20 DUP3 ADD GT ISZERO PUSH2 0x272 JUMPI PUSH1 0x0 DUP1 REVERT JUMPDEST DUP1 CALLDATALOAD SWAP1 PUSH1 0x20 ADD SWAP2 DUP5 PUSH1 0x20 DUP4 MUL DUP5 ADD GT PUSH5 0x100000000 DUP4 GT OR ISZERO PUSH2 0x294 JUMPI PUSH1 0x0 DUP1 REVERT JUMPDEST SWAP1 SWAP2 SWAP3 SWAP4 SWAP2 SWAP3 SWAP4 SWAP1 POP POP POP PUSH2 0xBF2 JUMP JUMPDEST PUSH1 0x40 MLOAD DUP1 DUP3 ISZERO ISZERO ISZERO ISZERO DUP2 MSTORE PUSH1 0x20 ADD SWAP2 POP POP PUSH1 0x40 MLOAD DUP1 SWAP2 SUB SWAP1 RETURN JUMPDEST PUSH2 0x2EA PUSH1 0x4 DUP1 CALLDATASIZE SUB PUSH1 0x20 DUP2 LT ISZERO PUSH2 0x2D4 JUMPI PUSH1 0x0 DUP1 REVERT JUMPDEST DUP2 ADD SWAP1 DUP1 DUP1 CALLDATALOAD SWAP1 PUSH1 0x20 ADD SWAP1 SWAP3 SWAP2 SWAP1 POP POP POP PUSH2 0xD20 JUMP JUMPDEST PUSH1 0x40 MLOAD DUP1 DUP3 DUP2 MSTORE PUSH1 0x20 ADD SWAP2 POP POP PUSH1 0x40 MLOAD DUP1 SWAP2 SUB SWAP1 RETURN JUMPDEST PUSH2 0x32C PUSH1 0x4 DUP1 CALLDATASIZE SUB PUSH1 0x20 DUP2 LT ISZERO PUSH2 0x316 JUMPI PUSH1 0x0 DUP1 REVERT JUMPDEST DUP2 ADD SWAP1 DUP1 DUP1 CALLDATALOAD SWAP1 PUSH1 0x20 ADD SWAP1 SWAP3 SWAP2 SWAP1 POP POP POP PUSH2 0xE33 JUMP JUMPDEST PUSH1 0x40 MLOAD DUP1 DUP6 PUSH16 0xFFFFFFFFFFFFFFFFFFFFFFFFFFFFFFFF AND PUSH16 0xFFFFFFFFFFFFFFFFFFFFFFFFFFFFFFFF AND DUP2 MSTORE PUSH1 0x20 ADD DUP5 PUSH16 0xFFFFFFFFFFFFFFFFFFFFFFFFFFFFFFFF AND PUSH16 0xFFFFFFFFFFFFFFFFFFFFFFFFFFFFFFFF AND DUP2 MSTORE PUSH1 0x20 ADD DUP4 PUSH16 0xFFFFFFFFFFFFFFFFFFFFFFFFFFFFFFFF AND PUSH16 0xFFFFFFFFFFFFFFFFFFFFFFFFFFFFFFFF AND DUP2 MSTORE PUSH1 0x20 ADD DUP3 PUSH16 0xFFFFFFFFFFFFFFFFFFFFFFFFFFFFFFFF AND PUSH16 0xFFFFFFFFFFFFFFFFFFFFFFFFFFFFFFFF AND DUP2 MSTORE PUSH1 0x20 ADD SWAP5 POP POP POP POP POP PUSH1 0x40 MLOAD DUP1 SWAP2 SUB SWAP1 RETURN JUMPDEST PUSH2 0x431 PUSH1 0x4 DUP1 CALLDATASIZE SUB PUSH1 0x80 DUP2 LT ISZERO PUSH2 0x3FD JUMPI PUSH1 0x0 DUP1 REVERT JUMPDEST DUP2 ADD SWAP1 DUP1 DUP1 CALLDATALOAD SWAP1 PUSH1 0x20 ADD SWAP1 SWAP3 SWAP2 SWAP1 DUP1 CALLDATALOAD SWAP1 PUSH1 0x20 ADD SWAP1 SWAP3 SWAP2 SWAP1 DUP1 CALLDATALOAD SWAP1 PUSH1 0x20 ADD SWAP1 SWAP3 SWAP2 SWAP1 DUP1 CALLDATALOAD SWAP1 PUSH1 0x20 ADD SWAP1 SWAP3 SWAP2 SWAP1 POP POP POP PUSH2 0xED3 JUMP JUMPDEST PUSH1 0x40 MLOAD DUP1 DUP3 ISZERO ISZERO ISZERO ISZERO DUP2 MSTORE PUSH1 0x20 ADD SWAP2 POP POP PUSH1 0x40 MLOAD DUP1 SWAP2 SUB SWAP1 RETURN JUMPDEST PUSH2 0x477 PUSH1 0x4 DUP1 CALLDATASIZE SUB PUSH1 0x20 DUP2 LT ISZERO PUSH2 0x461 JUMPI PUSH1 0x0 DUP1 REVERT JUMPDEST DUP2 ADD SWAP1 DUP1 DUP1 CALLDATALOAD SWAP1 PUSH1 0x20 ADD SWAP1 SWAP3 SWAP2 SWAP1 POP POP POP PUSH2 0x124C JUMP JUMPDEST PUSH1 0x40 MLOAD DUP1 DUP6 PUSH16 0xFFFFFFFFFFFFFFFFFFFFFFFFFFFFFFFF AND PUSH16 0xFFFFFFFFFFFFFFFFFFFFFFFFFFFFFFFF AND DUP2 MSTORE PUSH1 0x20 ADD DUP5 PUSH4 0xFFFFFFFF AND PUSH4 0xFFFFFFFF AND DUP2 MSTORE PUSH1 0x20 ADD DUP4 PUSH4 0xFFFFFFFF AND PUSH4 0xFFFFFFFF AND DUP2 MSTORE PUSH1 0x20 ADD DUP3 PUSH4 0xFFFFFFFF AND PUSH4 0xFFFFFFFF AND DUP2 MSTORE PUSH1 0x20 ADD SWAP5 POP POP POP POP POP PUSH1 0x40 MLOAD DUP1 SWAP2 SUB SWAP1 RETURN JUMPDEST PUSH2 0x520 PUSH1 0x4 DUP1 CALLDATASIZE SUB PUSH1 0x40 DUP2 LT ISZERO PUSH2 0x500 JUMPI PUSH1 0x0 DUP1 REVERT JUMPDEST DUP2 ADD SWAP1 DUP1 DUP1 CALLDATALOAD SWAP1 PUSH1 0x20 ADD SWAP1 SWAP3 SWAP2 SWAP1 DUP1 CALLDATALOAD SWAP1 PUSH1 0x20 ADD SWAP1 SWAP3 SWAP2 SWAP1 POP POP POP PUSH2 0x12C8 JUMP JUMPDEST PUSH1 0x40 MLOAD DUP1 DUP1 PUSH1 0x20 ADD DUP4 DUP2 MSTORE PUSH1 0x20 ADD DUP3 DUP2 SUB DUP3 MSTORE DUP5 DUP2 DUP2 MLOAD DUP2 MSTORE PUSH1 0x20 ADD SWAP2 POP DUP1 MLOAD SWAP1 PUSH1 0x20 ADD SWAP1 PUSH1 0x20 MUL DUP1 DUP4 DUP4 PUSH1 0x0 JUMPDEST DUP4 DUP2 LT ISZERO PUSH2 0x569 JUMPI DUP1 DUP3 ADD MLOAD DUP2 DUP5 ADD MSTORE PUSH1 0x20 DUP2 ADD SWAP1 POP PUSH2 0x54E JUMP JUMPDEST POP POP POP POP SWAP1 POP ADD SWAP4 POP POP POP POP PUSH1 0x40 MLOAD DUP1 SWAP2 SUB SWAP1 RETURN JUMPDEST PUSH2 0x5B4 PUSH1 0x4 DUP1 CALLDATASIZE SUB PUSH1 0x40 DUP2 LT ISZERO PUSH2 0x594 JUMPI PUSH1 0x0 DUP1 REVERT JUMPDEST DUP2 ADD SWAP1 DUP1 DUP1 CALLDATALOAD SWAP1 PUSH1 0x20 ADD SWAP1 SWAP3 SWAP2 SWAP1 DUP1 CALLDATALOAD SWAP1 PUSH1 0x20 ADD SWAP1 SWAP3 SWAP2 SWAP1 POP POP POP PUSH2 0x1D59 JUMP JUMPDEST PUSH1 0x40 MLOAD DUP1 DUP3 DUP2 MSTORE PUSH1 0x20 ADD SWAP2 POP POP PUSH1 0x40 MLOAD DUP1 SWAP2 SUB SWAP1 RETURN JUMPDEST PUSH1 0x0 DUP1 PUSH1 0x0 PUSH1 0x2 PUSH1 0x0 SWAP1 SLOAD SWAP1 PUSH2 0x100 EXP SWAP1 DIV PUSH20 0xFFFFFFFFFFFFFFFFFFFFFFFFFFFFFFFFFFFFFFFF AND PUSH20 0xFFFFFFFFFFFFFFFFFFFFFFFFFFFFFFFFFFFFFFFF AND CALLER PUSH20 0xFFFFFFFFFFFFFFFFFFFFFFFFFFFFFFFFFFFFFFFF AND EQ ISZERO ISZERO PUSH2 0x694 JUMPI PUSH1 0x40 MLOAD PUSH32 0x8C379A000000000000000000000000000000000000000000000000000000000 DUP2 MSTORE PUSH1 0x4 ADD DUP1 DUP1 PUSH1 0x20 ADD DUP3 DUP2 SUB DUP3 MSTORE PUSH1 0x20 DUP2 MSTORE PUSH1 0x20 ADD DUP1 PUSH32 0x4F776E65722054696D65416C6C792073686F756C642062652063616C6C696E67 DUP2 MSTORE POP PUSH1 0x20 ADD SWAP2 POP POP PUSH1 0x40 MLOAD DUP1 SWAP2 SUB SWAP1 REVERT JUMPDEST PUSH1 0x1 PUSH1 0x0 DUP6 DUP2 MSTORE PUSH1 0x20 ADD SWAP1 DUP2 MSTORE PUSH1 0x20 ADD PUSH1 0x0 KECCAK256 PUSH1 0x0 ADD PUSH1 0x10 SWAP1 SLOAD SWAP1 PUSH2 0x100 EXP SWAP1 DIV PUSH4 0xFFFFFFFF AND PUSH4 0xFFFFFFFF AND PUSH1 0x1 PUSH1 0x0 DUP7 DUP2 MSTORE PUSH1 0x20 ADD SWAP1 DUP2 MSTORE PUSH1 0x20 ADD PUSH1 0x0 KECCAK256 PUSH1 0x0 ADD PUSH1 0x0 SWAP1 SLOAD SWAP1 PUSH2 0x100 EXP SWAP1 DIV PUSH16 0xFFFFFFFFFFFFFFFFFFFFFFFFFFFFFFFF AND PUSH16 0xFFFFFFFFFFFFFFFFFFFFFFFFFFFFFFFF AND PUSH1 0x1 PUSH1 0x0 DUP8 DUP2 MSTORE PUSH1 0x20 ADD SWAP1 DUP2 MSTORE PUSH1 0x20 ADD PUSH1 0x0 KECCAK256 PUSH1 0x0 ADD PUSH1 0x14 SWAP1 SLOAD SWAP1 PUSH2 0x100 EXP SWAP1 DIV PUSH4 0xFFFFFFFF AND PUSH4 0xFFFFFFFF AND SWAP3 POP SWAP3 POP SWAP3 POP SWAP2 SWAP4 SWAP1 SWAP3 POP JUMP JUMPDEST PUSH1 0x0 PUSH1 0x2 PUSH1 0x0 SWAP1 SLOAD SWAP1 PUSH2 0x100 EXP SWAP1 DIV PUSH20 0xFFFFFFFFFFFFFFFFFFFFFFFFFFFFFFFFFFFFFFFF AND PUSH20 0xFFFFFFFFFFFFFFFFFFFFFFFFFFFFFFFFFFFFFFFF AND CALLER PUSH20 0xFFFFFFFFFFFFFFFFFFFFFFFFFFFFFFFFFFFFFFFF AND EQ ISZERO ISZERO PUSH2 0x807 JUMPI PUSH1 0x40 MLOAD PUSH32 0x8C379A000000000000000000000000000000000000000000000000000000000 DUP2 MSTORE PUSH1 0x4 ADD DUP1 DUP1 PUSH1 0x20 ADD DUP3 DUP2 SUB DUP3 MSTORE PUSH1 0x20 DUP2 MSTORE PUSH1 0x20 ADD DUP1 PUSH32 0x4F776E65722054696D65416C6C792073686F756C642062652063616C6C696E67 DUP2 MSTORE POP PUSH1 0x20 ADD SWAP2 POP POP PUSH1 0x40 MLOAD DUP1 SWAP2 SUB SWAP1 REVERT JUMPDEST PUSH2 0x837 DUP4 PUSH1 0x1 PUSH1 0x0 DUP6 DUP2 MSTORE PUSH1 0x20 ADD SWAP1 DUP2 MSTORE PUSH1 0x20 ADD PUSH1 0x0 KECCAK256 PUSH1 0x0 ADD PUSH1 0x18 SWAP1 SLOAD SWAP1 PUSH2 0x100 EXP SWAP1 DIV PUSH4 0xFFFFFFFF AND PUSH2 0x2379 JUMP JUMPDEST ISZERO ISZERO PUSH2 0x842 JUMPI PUSH1 0x0 DUP1 REVERT JUMPDEST PUSH2 0x8DC PUSH1 0x1 PUSH1 0x0 DUP5 DUP2 MSTORE PUSH1 0x20 ADD SWAP1 DUP2 MSTORE PUSH1 0x20 ADD PUSH1 0x0 KECCAK256 PUSH1 0x0 ADD PUSH1 0x0 SWAP1 SLOAD SWAP1 PUSH2 0x100 EXP SWAP1 DIV PUSH16 0xFFFFFFFFFFFFFFFFFFFFFFFFFFFFFFFF AND PUSH16 0xFFFFFFFFFFFFFFFFFFFFFFFFFFFFFFFF AND PUSH1 0x0 DUP1 DUP7 DUP2 MSTORE PUSH1 0x20 ADD SWAP1 DUP2 MSTORE PUSH1 0x20 ADD PUSH1 0x0 KECCAK256 PUSH1 0x0 ADD PUSH1 0x10 SWAP1 SLOAD SWAP1 PUSH2 0x100 EXP SWAP1 DIV PUSH16 0xFFFFFFFFFFFFFFFFFFFFFFFFFFFFFFFF AND PUSH16 0xFFFFFFFFFFFFFFFFFFFFFFFFFFFFFFFF AND PUSH2 0x25AF SWAP1 SWAP2 SWAP1 PUSH4 0xFFFFFFFF AND JUMP JUMPDEST PUSH1 0x0 DUP1 DUP6 DUP2 MSTORE PUSH1 0x20 ADD SWAP1 DUP2 MSTORE PUSH1 0x20 ADD PUSH1 0x0 KECCAK256 PUSH1 0x0 ADD PUSH1 0x10 PUSH2 0x100 EXP DUP2 SLOAD DUP2 PUSH16 0xFFFFFFFFFFFFFFFFFFFFFFFFFFFFFFFF MUL NOT AND SWAP1 DUP4 PUSH16 0xFFFFFFFFFFFFFFFFFFFFFFFFFFFFFFFF AND MUL OR SWAP1 SSTORE POP PUSH1 0x1 SWAP1 POP SWAP3 SWAP2 POP POP JUMP JUMPDEST PUSH1 0x0 PUSH1 0x2 PUSH1 0x0 SWAP1 SLOAD SWAP1 PUSH2 0x100 EXP SWAP1 DIV PUSH20 0xFFFFFFFFFFFFFFFFFFFFFFFFFFFFFFFFFFFFFFFF AND PUSH20 0xFFFFFFFFFFFFFFFFFFFFFFFFFFFFFFFFFFFFFFFF AND CALLER PUSH20 0xFFFFFFFFFFFFFFFFFFFFFFFFFFFFFFFFFFFFFFFF AND EQ ISZERO ISZERO PUSH2 0x9F8 JUMPI PUSH1 0x40 MLOAD PUSH32 0x8C379A000000000000000000000000000000000000000000000000000000000 DUP2 MSTORE PUSH1 0x4 ADD DUP1 DUP1 PUSH1 0x20 ADD DUP3 DUP2 SUB DUP3 MSTORE PUSH1 0x20 DUP2 MSTORE PUSH1 0x20 ADD DUP1 PUSH32 0x4F776E65722054696D65416C6C792073686F756C642062652063616C6C696E67 DUP2 MSTORE POP PUSH1 0x20 ADD SWAP2 POP POP PUSH1 0x40 MLOAD DUP1 SWAP2 SUB SWAP1 REVERT JUMPDEST PUSH1 0x0 PUSH1 0x1 PUSH1 0x0 DUP5 DUP2 MSTORE PUSH1 0x20 ADD SWAP1 DUP2 MSTORE PUSH1 0x20 ADD PUSH1 0x0 KECCAK256 PUSH1 0x0 ADD PUSH1 0x18 SWAP1 SLOAD SWAP1 PUSH2 0x100 EXP SWAP1 DIV PUSH4 0xFFFFFFFF AND PUSH4 0xFFFFFFFF AND EQ ISZERO ISZERO PUSH2 0xA33 JUMPI PUSH1 0x0 DUP1 REVERT JUMPDEST PUSH2 0xAA9 PUSH1 0x1 PUSH1 0x0 DUP1 DUP7 DUP2 MSTORE PUSH1 0x20 ADD SWAP1 DUP2 MSTORE PUSH1 0x20 ADD PUSH1 0x0 KECCAK256 PUSH1 0x2 ADD DUP5 SWAP1 DUP1 PUSH1 0x1 DUP2 SLOAD ADD DUP1 DUP3 SSTORE DUP1 SWAP2 POP POP SWAP1 PUSH1 0x1 DUP3 SUB SWAP1 PUSH1 0x0 MSTORE PUSH1 0x20 PUSH1 0x0 KECCAK256 SWAP1 PUSH1 0x8 SWAP2 DUP3 DUP3 DIV ADD SWAP2 SWAP1 MOD PUSH1 0x4 MUL SWAP1 SWAP2 SWAP3 SWAP1 SWAP2 SWAP1 SWAP2 PUSH2 0x100 EXP DUP2 SLOAD DUP2 PUSH4 0xFFFFFFFF MUL NOT AND SWAP1 DUP4 PUSH4 0xFFFFFFFF AND MUL OR SWAP1 SSTORE POP PUSH2 0x25AF SWAP1 SWAP2 SWAP1 PUSH4 0xFFFFFFFF AND JUMP JUMPDEST PUSH1 0x1 PUSH1 0x0 DUP5 DUP2 MSTORE PUSH1 0x20 ADD SWAP1 DUP2 MSTORE PUSH1 0x20 ADD PUSH1 0x0 KECCAK256 PUSH1 0x0 ADD PUSH1 0x18 PUSH2 0x100 EXP DUP2 SLOAD DUP2 PUSH4 0xFFFFFFFF MUL NOT AND SWAP1 DUP4 PUSH4 0xFFFFFFFF AND MUL OR SWAP1 SSTORE POP PUSH2 0xB77 PUSH1 0x1 PUSH1 0x0 DUP5 DUP2 MSTORE PUSH1 0x20 ADD SWAP1 DUP2 MSTORE PUSH1 0x20 ADD PUSH1 0x0 KECCAK256 PUSH1 0x0 ADD PUSH1 0x0 SWAP1 SLOAD SWAP1 PUSH2 0x100 EXP SWAP1 DIV PUSH16 0xFFFFFFFFFFFFFFFFFFFFFFFFFFFFFFFF AND PUSH16 0xFFFFFFFFFFFFFFFFFFFFFFFFFFFFFFFF AND PUSH1 0x0 DUP1 DUP7 DUP2 MSTORE PUSH1 0x20 ADD SWAP1 DUP2 MSTORE PUSH1 0x20 ADD PUSH1 0x0 KECCAK256 PUSH1 0x0 ADD PUSH1 0x10 SWAP1 SLOAD SWAP1 PUSH2 0x100 EXP SWAP1 DIV PUSH16 0xFFFFFFFFFFFFFFFFFFFFFFFFFFFFFFFF AND PUSH16 0xFFFFFFFFFFFFFFFFFFFFFFFFFFFFFFFF AND PUSH2 0x25D1 SWAP1 SWAP2 SWAP1 PUSH4 0xFFFFFFFF AND JUMP JUMPDEST PUSH1 0x0 DUP1 DUP6 DUP2 MSTORE PUSH1 0x20 ADD SWAP1 DUP2 MSTORE PUSH1 0x20 ADD PUSH1 0x0 KECCAK256 PUSH1 0x0 ADD PUSH1 0x10 PUSH2 0x100 EXP DUP2 SLOAD DUP2 PUSH16 0xFFFFFFFFFFFFFFFFFFFFFFFFFFFFFFFF MUL NOT AND SWAP1 DUP4 PUSH16 0xFFFFFFFFFFFFFFFFFFFFFFFFFFFFFFFF AND MUL OR SWAP1 SSTORE POP PUSH1 0x1 SWAP1 POP SWAP3 SWAP2 POP POP JUMP JUMPDEST PUSH1 0x2 PUSH1 0x0 SWAP1 SLOAD SWAP1 PUSH2 0x100 EXP SWAP1 DIV PUSH20 0xFFFFFFFFFFFFFFFFFFFFFFFFFFFFFFFFFFFFFFFF AND DUP2 JUMP JUMPDEST PUSH1 0x0 PUSH1 0x2 PUSH1 0x0 SWAP1 SLOAD SWAP1 PUSH2 0x100 EXP SWAP1 DIV PUSH20 0xFFFFFFFFFFFFFFFFFFFFFFFFFFFFFFFFFFFFFFFF AND PUSH20 0xFFFFFFFFFFFFFFFFFFFFFFFFFFFFFFFFFFFFFFFF AND CALLER PUSH20 0xFFFFFFFFFFFFFFFFFFFFFFFFFFFFFFFFFFFFFFFF AND EQ ISZERO ISZERO PUSH2 0xCB9 JUMPI PUSH1 0x40 MLOAD PUSH32 0x8C379A000000000000000000000000000000000000000000000000000000000 DUP2 MSTORE PUSH1 0x4 ADD DUP1 DUP1 PUSH1 0x20 ADD DUP3 DUP2 SUB DUP3 MSTORE PUSH1 0x20 DUP2 MSTORE PUSH1 0x20 ADD DUP1 PUSH32 0x4F776E65722054696D65416C6C792073686F756C642062652063616C6C696E67 DUP2 MSTORE POP PUSH1 0x20 ADD SWAP2 POP POP PUSH1 0x40 MLOAD DUP1 SWAP2 SUB SWAP1 REVERT JUMPDEST PUSH1 0x0 DUP1 SWAP1 POP JUMPDEST DUP8 DUP2 LT ISZERO PUSH2 0xD11 JUMPI PUSH2 0xCF9 DUP8 PUSH2 0xCDE DUP4 DUP10 PUSH2 0x25D1 SWAP1 SWAP2 SWAP1 PUSH4 0xFFFFFFFF AND JUMP JUMPDEST DUP8 DUP8 DUP8 DUP7 DUP2 DUP2 LT ISZERO ISZERO PUSH2 0xCED JUMPI INVALID JUMPDEST SWAP1 POP PUSH1 0x20 MUL ADD CALLDATALOAD PUSH2 0xED3 JUMP JUMPDEST ISZERO ISZERO PUSH2 0xD04 JUMPI PUSH1 0x0 DUP1 REVERT JUMPDEST DUP1 DUP1 PUSH1 0x1 ADD SWAP2 POP POP PUSH2 0xCBF JUMP JUMPDEST POP PUSH1 0x1 SWAP1 POP SWAP7 SWAP6 POP POP POP POP POP POP JUMP JUMPDEST PUSH1 0x0 PUSH1 0x2 PUSH1 0x0 SWAP1 SLOAD SWAP1 PUSH2 0x100 EXP SWAP1 DIV PUSH20 0xFFFFFFFFFFFFFFFFFFFFFFFFFFFFFFFFFFFFFFFF AND PUSH20 0xFFFFFFFFFFFFFFFFFFFFFFFFFFFFFFFFFFFFFFFF AND CALLER PUSH20 0xFFFFFFFFFFFFFFFFFFFFFFFFFFFFFFFFFFFFFFFF AND EQ ISZERO ISZERO PUSH2 0xDE7 JUMPI PUSH1 0x40 MLOAD PUSH32 0x8C379A000000000000000000000000000000000000000000000000000000000 DUP2 MSTORE PUSH1 0x4 ADD DUP1 DUP1 PUSH1 0x20 ADD DUP3 DUP2 SUB DUP3 MSTORE PUSH1 0x20 DUP2 MSTORE PUSH1 0x20 ADD DUP1 PUSH32 0x4F776E65722054696D65416C6C792073686F756C642062652063616C6C696E67 DUP2 MSTORE POP PUSH1 0x20 ADD SWAP2 POP POP PUSH1 0x40 MLOAD DUP1 SWAP2 SUB SWAP1 REVERT JUMPDEST PUSH1 0x1 PUSH1 0x0 DUP4 DUP2 MSTORE PUSH1 0x20 ADD SWAP1 DUP2 MSTORE PUSH1 0x20 ADD PUSH1 0x0 KECCAK256 PUSH1 0x0 ADD PUSH1 0x0 SWAP1 SLOAD SWAP1 PUSH2 0x100 EXP SWAP1 DIV PUSH16 0xFFFFFFFFFFFFFFFFFFFFFFFFFFFFFFFF AND PUSH16 0xFFFFFFFFFFFFFFFFFFFFFFFFFFFFFFFF AND SWAP1 POP SWAP2 SWAP1 POP JUMP JUMPDEST PUSH1 0x0 PUSH1 0x20 MSTORE DUP1 PUSH1 0x0 MSTORE PUSH1 0x40 PUSH1 0x0 KECCAK256 PUSH1 0x0 SWAP2 POP SWAP1 POP DUP1 PUSH1 0x0 ADD PUSH1 0x0 SWAP1 SLOAD SWAP1 PUSH2 0x100 EXP SWAP1 DIV PUSH16 0xFFFFFFFFFFFFFFFFFFFFFFFFFFFFFFFF AND SWAP1 DUP1 PUSH1 0x0 ADD PUSH1 0x10 SWAP1 SLOAD SWAP1 PUSH2 0x100 EXP SWAP1 DIV PUSH16 0xFFFFFFFFFFFFFFFFFFFFFFFFFFFFFFFF AND SWAP1 DUP1 PUSH1 0x1 ADD PUSH1 0x0 SWAP1 SLOAD SWAP1 PUSH2 0x100 EXP SWAP1 DIV PUSH16 0xFFFFFFFFFFFFFFFFFFFFFFFFFFFFFFFF AND SWAP1 DUP1 PUSH1 0x1 ADD PUSH1 0x10 SWAP1 SLOAD SWAP1 PUSH2 0x100 EXP SWAP1 DIV PUSH16 0xFFFFFFFFFFFFFFFFFFFFFFFFFFFFFFFF AND SWAP1 POP DUP5 JUMP JUMPDEST PUSH1 0x0 PUSH1 0x2 PUSH1 0x0 SWAP1 SLOAD SWAP1 PUSH2 0x100 EXP SWAP1 DIV PUSH20 0xFFFFFFFFFFFFFFFFFFFFFFFFFFFFFFFFFFFFFFFF AND PUSH20 0xFFFFFFFFFFFFFFFFFFFFFFFFFFFFFFFFFFFFFFFF AND CALLER PUSH20 0xFFFFFFFFFFFFFFFFFFFFFFFFFFFFFFFFFFFFFFFF AND EQ ISZERO ISZERO PUSH2 0xF9A JUMPI PUSH1 0x40 MLOAD PUSH32 0x8C379A000000000000000000000000000000000000000000000000000000000 DUP2 MSTORE PUSH1 0x4 ADD DUP1 DUP1 PUSH1 0x20 ADD DUP3 DUP2 SUB DUP3 MSTORE PUSH1 0x20 DUP2 MSTORE PUSH1 0x20 ADD DUP1 PUSH32 0x4F776E65722054696D65416C6C792073686F756C642062652063616C6C696E67 DUP2 MSTORE POP PUSH1 0x20 ADD SWAP2 POP POP PUSH1 0x40 MLOAD DUP1 SWAP2 SUB SWAP1 REVERT JUMPDEST PUSH2 0xFA2 PUSH2 0x265A JUMP JUMPDEST DUP4 DUP2 PUSH1 0x20 ADD SWAP1 PUSH4 0xFFFFFFFF AND SWAP1 DUP2 PUSH4 0xFFFFFFFF AND DUP2 MSTORE POP POP DUP3 DUP2 PUSH1 0x0 ADD SWAP1 PUSH16 0xFFFFFFFFFFFFFFFFFFFFFFFFFFFFFFFF AND SWAP1 DUP2 PUSH16 0xFFFFFFFFFFFFFFFFFFFFFFFFFFFFFFFF AND DUP2 MSTORE POP POP PUSH1 0x0 DUP2 PUSH1 0x40 ADD SWAP1 PUSH4 0xFFFFFFFF AND SWAP1 DUP2 PUSH4 0xFFFFFFFF AND DUP2 MSTORE POP POP PUSH2 0x1079 PUSH1 0x1 PUSH1 0x0 DUP1 DUP10 DUP2 MSTORE PUSH1 0x20 ADD SWAP1 DUP2 MSTORE PUSH1 0x20 ADD PUSH1 0x0 KECCAK256 PUSH1 0x2 ADD DUP8 SWAP1 DUP1 PUSH1 0x1 DUP2 SLOAD ADD DUP1 DUP3 SSTORE DUP1 SWAP2 POP POP SWAP1 PUSH1 0x1 DUP3 SUB SWAP1 PUSH1 0x0 MSTORE PUSH1 0x20 PUSH1 0x0 KECCAK256 SWAP1 PUSH1 0x8 SWAP2 DUP3 DUP3 DIV ADD SWAP2 SWAP1 MOD PUSH1 0x4 MUL SWAP1 SWAP2 SWAP3 SWAP1 SWAP2 SWAP1 SWAP2 PUSH2 0x100 EXP DUP2 SLOAD DUP2 PUSH4 0xFFFFFFFF MUL NOT AND SWAP1 DUP4 PUSH4 0xFFFFFFFF AND MUL OR SWAP1 SSTORE POP PUSH2 0x25AF SWAP1 SWAP2 SWAP1 PUSH4 0xFFFFFFFF AND JUMP JUMPDEST DUP2 PUSH1 0x60 ADD SWAP1 PUSH4 0xFFFFFFFF AND SWAP1 DUP2 PUSH4 0xFFFFFFFF AND DUP2 MSTORE POP POP DUP3 DUP2 PUSH1 0x80 ADD MLOAD PUSH1 0x0 PUSH1 0x18 DUP2 LT ISZERO ISZERO PUSH2 0x10A4 JUMPI INVALID JUMPDEST PUSH1 0x20 MUL ADD SWAP1 PUSH4 0xFFFFFFFF AND SWAP1 DUP2 PUSH4 0xFFFFFFFF AND DUP2 MSTORE POP POP DUP1 PUSH1 0x1 PUSH1 0x0 DUP8 DUP2 MSTORE PUSH1 0x20 ADD SWAP1 DUP2 MSTORE PUSH1 0x20 ADD PUSH1 0x0 KECCAK256 PUSH1 0x0 DUP3 ADD MLOAD DUP2 PUSH1 0x0 ADD PUSH1 0x0 PUSH2 0x100 EXP DUP2 SLOAD DUP2 PUSH16 0xFFFFFFFFFFFFFFFFFFFFFFFFFFFFFFFF MUL NOT AND SWAP1 DUP4 PUSH16 0xFFFFFFFFFFFFFFFFFFFFFFFFFFFFFFFF AND MUL OR SWAP1 SSTORE POP PUSH1 0x20 DUP3 ADD MLOAD DUP2 PUSH1 0x0 ADD PUSH1 0x10 PUSH2 0x100 EXP DUP2 SLOAD DUP2 PUSH4 0xFFFFFFFF MUL NOT AND SWAP1 DUP4 PUSH4 0xFFFFFFFF AND MUL OR SWAP1 SSTORE POP PUSH1 0x40 DUP3 ADD MLOAD DUP2 PUSH1 0x0 ADD PUSH1 0x14 PUSH2 0x100 EXP DUP2 SLOAD DUP2 PUSH4 0xFFFFFFFF MUL NOT AND SWAP1 DUP4 PUSH4 0xFFFFFFFF AND MUL OR SWAP1 SSTORE POP PUSH1 0x60 DUP3 ADD MLOAD DUP2 PUSH1 0x0 ADD PUSH1 0x18 PUSH2 0x100 EXP DUP2 SLOAD DUP2 PUSH4 0xFFFFFFFF MUL NOT AND SWAP1 DUP4 PUSH4 0xFFFFFFFF AND MUL OR SWAP1 SSTORE POP PUSH1 0x80 DUP3 ADD MLOAD DUP2 PUSH1 0x1 ADD SWAP1 PUSH1 0x18 PUSH2 0x119A SWAP3 SWAP2 SWAP1 PUSH2 0x26B5 JUMP JUMPDEST POP SWAP1 POP POP PUSH2 0x11F4 DUP4 PUSH1 0x0 DUP1 DUP10 DUP2 MSTORE PUSH1 0x20 ADD SWAP1 DUP2 MSTORE PUSH1 0x20 ADD PUSH1 0x0 KECCAK256 PUSH1 0x0 ADD PUSH1 0x10 SWAP1 SLOAD SWAP1 PUSH2 0x100 EXP SWAP1 DIV PUSH16 0xFFFFFFFFFFFFFFFFFFFFFFFFFFFFFFFF AND PUSH16 0xFFFFFFFFFFFFFFFFFFFFFFFFFFFFFFFF AND PUSH2 0x25D1 SWAP1 SWAP2 SWAP1 PUSH4 0xFFFFFFFF AND JUMP JUMPDEST PUSH1 0x0 DUP1 DUP9 DUP2 MSTORE PUSH1 0x20 ADD SWAP1 DUP2 MSTORE PUSH1 0x20 ADD PUSH1 0x0 KECCAK256 PUSH1 0x0 ADD PUSH1 0x10 PUSH2 0x100 EXP DUP2 SLOAD DUP2 PUSH16 0xFFFFFFFFFFFFFFFFFFFFFFFFFFFFFFFF MUL NOT AND SWAP1 DUP4 PUSH16 0xFFFFFFFFFFFFFFFFFFFFFFFFFFFFFFFF AND MUL OR SWAP1 SSTORE POP PUSH1 0x1 SWAP2 POP POP SWAP5 SWAP4 POP POP POP POP JUMP JUMPDEST PUSH1 0x1 PUSH1 0x20 MSTORE DUP1 PUSH1 0x0 MSTORE PUSH1 0x40 PUSH1 0x0 KECCAK256 PUSH1 0x0 SWAP2 POP SWAP1 POP DUP1 PUSH1 0x0 ADD PUSH1 0x0 SWAP1 SLOAD SWAP1 PUSH2 0x100 EXP SWAP1 DIV PUSH16 0xFFFFFFFFFFFFFFFFFFFFFFFFFFFFFFFF AND SWAP1 DUP1 PUSH1 0x0 ADD PUSH1 0x10 SWAP1 SLOAD SWAP1 PUSH2 0x100 EXP SWAP1 DIV PUSH4 0xFFFFFFFF AND SWAP1 DUP1 PUSH1 0x0 ADD PUSH1 0x14 SWAP1 SLOAD SWAP1 PUSH2 0x100 EXP SWAP1 DIV PUSH4 0xFFFFFFFF AND SWAP1 DUP1 PUSH1 0x0 ADD PUSH1 0x18 SWAP1 SLOAD SWAP1 PUSH2 0x100 EXP SWAP1 DIV PUSH4 0xFFFFFFFF AND SWAP1 POP DUP5 JUMP JUMPDEST PUSH1 0x60 PUSH1 0x0 PUSH1 0x2 PUSH1 0x0 SWAP1 SLOAD SWAP1 PUSH2 0x100 EXP SWAP1 DIV PUSH20 0xFFFFFFFFFFFFFFFFFFFFFFFFFFFFFFFFFFFFFFFF AND PUSH20 0xFFFFFFFFFFFFFFFFFFFFFFFFFFFFFFFFFFFFFFFF AND CALLER PUSH20 0xFFFFFFFFFFFFFFFFFFFFFFFFFFFFFFFFFFFFFFFF AND EQ ISZERO ISZERO PUSH2 0x1391 JUMPI PUSH1 0x40 MLOAD PUSH32 0x8C379A000000000000000000000000000000000000000000000000000000000 DUP2 MSTORE PUSH1 0x4 ADD DUP1 DUP1 PUSH1 0x20 ADD DUP3 DUP2 SUB DUP3 MSTORE PUSH1 0x20 DUP2 MSTORE PUSH1 0x20 ADD DUP1 PUSH32 0x4F776E65722054696D65416C6C792073686F756C642062652063616C6C696E67 DUP2 MSTORE POP PUSH1 0x20 ADD SWAP2 POP POP PUSH1 0x40 MLOAD DUP1 SWAP2 SUB SWAP1 REVERT JUMPDEST PUSH1 0x0 DUP1 DUP6 DUP2 MSTORE PUSH1 0x20 ADD SWAP1 DUP2 MSTORE PUSH1 0x20 ADD PUSH1 0x0 KECCAK256 PUSH1 0x1 ADD PUSH1 0x10 SWAP1 SLOAD SWAP1 PUSH2 0x100 EXP SWAP1 DIV PUSH16 0xFFFFFFFFFFFFFFFFFFFFFFFFFFFFFFFF AND PUSH16 0xFFFFFFFFFFFFFFFFFFFFFFFFFFFFFFFF AND PUSH1 0x0 DUP1 DUP7 DUP2 MSTORE PUSH1 0x20 ADD SWAP1 DUP2 MSTORE PUSH1 0x20 ADD PUSH1 0x0 KECCAK256 PUSH1 0x2 ADD DUP1 SLOAD SWAP1 POP GT ISZERO ISZERO PUSH2 0x13FA JUMPI PUSH1 0x0 DUP1 REVERT JUMPDEST PUSH2 0x1402 PUSH2 0x2758 JUMP JUMPDEST PUSH1 0x0 DUP1 DUP7 DUP2 MSTORE PUSH1 0x20 ADD SWAP1 DUP2 MSTORE PUSH1 0x20 ADD PUSH1 0x0 KECCAK256 PUSH1 0xA0 PUSH1 0x40 MLOAD SWAP1 DUP2 ADD PUSH1 0x40 MSTORE SWAP1 DUP2 PUSH1 0x0 DUP3 ADD PUSH1 0x0 SWAP1 SLOAD SWAP1 PUSH2 0x100 EXP SWAP1 DIV PUSH16 0xFFFFFFFFFFFFFFFFFFFFFFFFFFFFFFFF AND PUSH16 0xFFFFFFFFFFFFFFFFFFFFFFFFFFFFFFFF AND PUSH16 0xFFFFFFFFFFFFFFFFFFFFFFFFFFFFFFFF AND DUP2 MSTORE PUSH1 0x20 ADD PUSH1 0x0 DUP3 ADD PUSH1 0x10 SWAP1 SLOAD SWAP1 PUSH2 0x100 EXP SWAP1 DIV PUSH16 0xFFFFFFFFFFFFFFFFFFFFFFFFFFFFFFFF AND PUSH16 0xFFFFFFFFFFFFFFFFFFFFFFFFFFFFFFFF AND PUSH16 0xFFFFFFFFFFFFFFFFFFFFFFFFFFFFFFFF AND DUP2 MSTORE PUSH1 0x20 ADD PUSH1 0x1 DUP3 ADD PUSH1 0x0 SWAP1 SLOAD SWAP1 PUSH2 0x100 EXP SWAP1 DIV PUSH16 0xFFFFFFFFFFFFFFFFFFFFFFFFFFFFFFFF AND PUSH16 0xFFFFFFFFFFFFFFFFFFFFFFFFFFFFFFFF AND PUSH16 0xFFFFFFFFFFFFFFFFFFFFFFFFFFFFFFFF AND DUP2 MSTORE PUSH1 0x20 ADD PUSH1 0x1 DUP3 ADD PUSH1 0x10 SWAP1 SLOAD SWAP1 PUSH2 0x100 EXP SWAP1 DIV PUSH16 0xFFFFFFFFFFFFFFFFFFFFFFFFFFFFFFFF AND PUSH16 0xFFFFFFFFFFFFFFFFFFFFFFFFFFFFFFFF AND PUSH16 0xFFFFFFFFFFFFFFFFFFFFFFFFFFFFFFFF AND DUP2 MSTORE PUSH1 0x20 ADD PUSH1 0x2 DUP3 ADD DUP1 SLOAD DUP1 PUSH1 0x20 MUL PUSH1 0x20 ADD PUSH1 0x40 MLOAD SWAP1 DUP2 ADD PUSH1 0x40 MSTORE DUP1 SWAP3 SWAP2 SWAP1 DUP2 DUP2 MSTORE PUSH1 0x20 ADD DUP3 DUP1 SLOAD DUP1 ISZERO PUSH2 0x15C3 JUMPI PUSH1 0x20 MUL DUP3 ADD SWAP2 SWAP1 PUSH1 0x0 MSTORE PUSH1 0x20 PUSH1 0x0 KECCAK256 SWAP1 PUSH1 0x0 SWAP1 JUMPDEST DUP3 DUP3 SWAP1 SLOAD SWAP1 PUSH2 0x100 EXP SWAP1 DIV PUSH4 0xFFFFFFFF AND PUSH4 0xFFFFFFFF AND DUP2 MSTORE PUSH1 0x20 ADD SWAP1 PUSH1 0x4 ADD SWAP1 PUSH1 0x20 DUP3 PUSH1 0x3 ADD DIV SWAP3 DUP4 ADD SWAP3 PUSH1 0x1 SUB DUP3 MUL SWAP2 POP DUP1 DUP5 GT PUSH2 0x1586 JUMPI SWAP1 POP JUMPDEST POP POP POP POP POP DUP2 MSTORE POP POP SWAP1 POP PUSH2 0x15D6 PUSH2 0x265A JUMP JUMPDEST PUSH1 0x0 DUP1 PUSH1 0x0 DUP1 PUSH1 0x60 PUSH1 0x0 DUP8 PUSH1 0x60 ADD MLOAD PUSH16 0xFFFFFFFFFFFFFFFFFFFFFFFFFFFFFFFF AND SWAP1 POP PUSH1 0x0 DUP9 PUSH1 0x80 ADD MLOAD MLOAD PUSH2 0x1614 DUP14 DUP5 PUSH2 0x25D1 SWAP1 SWAP2 SWAP1 PUSH4 0xFFFFFFFF AND JUMP JUMPDEST LT ISZERO ISZERO PUSH2 0x1659 JUMPI DUP9 PUSH1 0x80 ADD MLOAD MLOAD SWAP1 POP PUSH1 0x0 DUP10 PUSH1 0x60 ADD SWAP1 PUSH16 0xFFFFFFFFFFFFFFFFFFFFFFFFFFFFFFFF AND SWAP1 DUP2 PUSH16 0xFFFFFFFFFFFFFFFFFFFFFFFFFFFFFFFF AND DUP2 MSTORE POP POP PUSH2 0x169F JUMP JUMPDEST PUSH2 0x166C DUP13 DUP4 PUSH2 0x25D1 SWAP1 SWAP2 SWAP1 PUSH4 0xFFFFFFFF AND JUMP JUMPDEST SWAP1 POP DUP1 DUP10 PUSH1 0x60 ADD SWAP1 PUSH16 0xFFFFFFFFFFFFFFFFFFFFFFFFFFFFFFFF AND SWAP1 DUP2 PUSH16 0xFFFFFFFFFFFFFFFFFFFFFFFFFFFFFFFF AND DUP2 MSTORE POP POP JUMPDEST JUMPDEST DUP1 DUP3 LT ISZERO PUSH2 0x1BB8 JUMPI DUP9 PUSH1 0x80 ADD MLOAD DUP3 DUP2 MLOAD DUP2 LT ISZERO ISZERO PUSH2 0x16BA JUMPI INVALID JUMPDEST SWAP1 PUSH1 0x20 ADD SWAP1 PUSH1 0x20 MUL ADD MLOAD PUSH4 0xFFFFFFFF AND SWAP7 POP PUSH1 0x1 PUSH1 0x0 DUP9 DUP2 MSTORE PUSH1 0x20 ADD SWAP1 DUP2 MSTORE PUSH1 0x20 ADD PUSH1 0x0 KECCAK256 PUSH1 0xA0 PUSH1 0x40 MLOAD SWAP1 DUP2 ADD PUSH1 0x40 MSTORE SWAP1 DUP2 PUSH1 0x0 DUP3 ADD PUSH1 0x0 SWAP1 SLOAD SWAP1 PUSH2 0x100 EXP SWAP1 DIV PUSH16 0xFFFFFFFFFFFFFFFFFFFFFFFFFFFFFFFF AND PUSH16 0xFFFFFFFFFFFFFFFFFFFFFFFFFFFFFFFF AND PUSH16 0xFFFFFFFFFFFFFFFFFFFFFFFFFFFFFFFF AND DUP2 MSTORE PUSH1 0x20 ADD PUSH1 0x0 DUP3 ADD PUSH1 0x10 SWAP1 SLOAD SWAP1 PUSH2 0x100 EXP SWAP1 DIV PUSH4 0xFFFFFFFF AND PUSH4 0xFFFFFFFF AND PUSH4 0xFFFFFFFF AND DUP2 MSTORE PUSH1 0x20 ADD PUSH1 0x0 DUP3 ADD PUSH1 0x14 SWAP1 SLOAD SWAP1 PUSH2 0x100 EXP SWAP1 DIV PUSH4 0xFFFFFFFF AND PUSH4 0xFFFFFFFF AND PUSH4 0xFFFFFFFF AND DUP2 MSTORE PUSH1 0x20 ADD PUSH1 0x0 DUP3 ADD PUSH1 0x18 SWAP1 SLOAD SWAP1 PUSH2 0x100 EXP SWAP1 DIV PUSH4 0xFFFFFFFF AND PUSH4 0xFFFFFFFF AND PUSH4 0xFFFFFFFF AND DUP2 MSTORE PUSH1 0x20 ADD PUSH1 0x1 DUP3 ADD PUSH1 0x18 DUP1 PUSH1 0x20 MUL PUSH1 0x40 MLOAD SWAP1 DUP2 ADD PUSH1 0x40 MSTORE DUP1 SWAP3 SWAP2 SWAP1 DUP3 PUSH1 0x18 DUP1 ISZERO PUSH2 0x180F JUMPI PUSH1 0x20 MUL DUP3 ADD SWAP2 PUSH1 0x0 SWAP1 JUMPDEST DUP3 DUP3 SWAP1 SLOAD SWAP1 PUSH2 0x100 EXP SWAP1 DIV PUSH4 0xFFFFFFFF AND PUSH4 0xFFFFFFFF AND DUP2 MSTORE PUSH1 0x20 ADD SWAP1 PUSH1 0x4 ADD SWAP1 PUSH1 0x20 DUP3 PUSH1 0x3 ADD DIV SWAP3 DUP4 ADD SWAP3 PUSH1 0x1 SUB DUP3 MUL SWAP2 POP DUP1 DUP5 GT PUSH2 0x17D2 JUMPI SWAP1 POP JUMPDEST POP POP POP POP POP DUP2 MSTORE POP POP SWAP8 POP DUP8 PUSH1 0x20 ADD MLOAD PUSH4 0xFFFFFFFF AND DUP9 PUSH1 0x40 ADD MLOAD PUSH4 0xFFFFFFFF AND DUP2 ISZERO ISZERO PUSH2 0x1839 JUMPI INVALID JUMPDEST MOD PUSH4 0xFFFFFFFF AND SWAP6 POP PUSH2 0x188A PUSH1 0x2 DUP11 PUSH1 0x40 ADD MLOAD MUL PUSH16 0xFFFFFFFFFFFFFFFFFFFFFFFFFFFFFFFF AND DUP11 PUSH1 0x0 ADD MLOAD DUP11 PUSH1 0x0 ADD MLOAD MUL PUSH16 0xFFFFFFFFFFFFFFFFFFFFFFFFFFFFFFFF AND PUSH2 0x25F2 SWAP1 SWAP2 SWAP1 PUSH4 0xFFFFFFFF AND JUMP JUMPDEST SWAP5 POP DUP7 PUSH32 0x356B79D8E456E7AA0D7747645CF39921D403293BB965EFC71E8A65C1A62590E0 DUP10 PUSH1 0x40 ADD MLOAD DUP8 PUSH1 0x40 MLOAD DUP1 DUP4 PUSH4 0xFFFFFFFF AND PUSH4 0xFFFFFFFF AND DUP2 MSTORE PUSH1 0x20 ADD DUP3 DUP2 MSTORE PUSH1 0x20 ADD SWAP3 POP POP POP PUSH1 0x40 MLOAD DUP1 SWAP2 SUB SWAP1 LOG2 PUSH1 0x0 SWAP4 POP PUSH2 0x18FE PUSH1 0x1 DUP10 PUSH1 0x20 ADD MLOAD PUSH4 0xFFFFFFFF AND PUSH2 0x25AF SWAP1 SWAP2 SWAP1 PUSH4 0xFFFFFFFF AND JUMP JUMPDEST DUP9 PUSH1 0x40 ADD MLOAD PUSH4 0xFFFFFFFF AND GT ISZERO PUSH2 0x197F JUMPI DUP8 PUSH1 0x80 ADD MLOAD DUP7 PUSH1 0x18 DUP2 LT ISZERO ISZERO PUSH2 0x1921 JUMPI INVALID JUMPDEST PUSH1 0x20 MUL ADD MLOAD PUSH4 0xFFFFFFFF AND SWAP4 POP DUP7 PUSH32 0x296537E11B520626DBD4AAE6053652B9C2A7395FB926F112D547E0F9383476A6 DUP10 PUSH1 0x40 ADD MLOAD DUP7 PUSH1 0x40 MLOAD DUP1 DUP4 PUSH4 0xFFFFFFFF AND PUSH4 0xFFFFFFFF AND DUP2 MSTORE PUSH1 0x20 ADD DUP3 DUP2 MSTORE PUSH1 0x20 ADD SWAP3 POP POP POP PUSH1 0x40 MLOAD DUP1 SWAP2 SUB SWAP1 LOG2 JUMPDEST PUSH2 0x19BA DUP5 PUSH2 0x19AC DUP8 DUP13 PUSH1 0x20 ADD MLOAD PUSH16 0xFFFFFFFFFFFFFFFFFFFFFFFFFFFFFFFF AND PUSH2 0x25D1 SWAP1 SWAP2 SWAP1 PUSH4 0xFFFFFFFF AND JUMP JUMPDEST PUSH2 0x25AF SWAP1 SWAP2 SWAP1 PUSH4 0xFFFFFFFF AND JUMP JUMPDEST DUP10 PUSH1 0x20 ADD SWAP1 PUSH16 0xFFFFFFFFFFFFFFFFFFFFFFFFFFFFFFFF AND SWAP1 DUP2 PUSH16 0xFFFFFFFFFFFFFFFFFFFFFFFFFFFFFFFF AND DUP2 MSTORE POP POP PUSH2 0x1A24 DUP5 PUSH2 0x1A16 DUP8 DUP12 PUSH1 0x0 ADD MLOAD PUSH16 0xFFFFFFFFFFFFFFFFFFFFFFFFFFFFFFFF AND PUSH2 0x25D1 SWAP1 SWAP2 SWAP1 PUSH4 0xFFFFFFFF AND JUMP JUMPDEST PUSH2 0x25AF SWAP1 SWAP2 SWAP1 PUSH4 0xFFFFFFFF AND JUMP JUMPDEST DUP9 PUSH1 0x0 ADD SWAP1 PUSH16 0xFFFFFFFFFFFFFFFFFFFFFFFFFFFFFFFF AND SWAP1 DUP2 PUSH16 0xFFFFFFFFFFFFFFFFFFFFFFFFFFFFFFFF AND DUP2 MSTORE POP POP DUP5 DUP9 PUSH1 0x80 ADD MLOAD DUP8 PUSH1 0x18 DUP2 LT ISZERO ISZERO PUSH2 0x1A66 JUMPI INVALID JUMPDEST PUSH1 0x20 MUL ADD SWAP1 PUSH4 0xFFFFFFFF AND SWAP1 DUP2 PUSH4 0xFFFFFFFF AND DUP2 MSTORE POP POP DUP8 PUSH1 0x40 ADD DUP1 MLOAD DUP1 SWAP2 SWAP1 PUSH1 0x1 ADD PUSH4 0xFFFFFFFF AND PUSH4 0xFFFFFFFF AND DUP2 MSTORE POP POP DUP7 SWAP6 POP PUSH1 0x80 DUP5 DUP7 ADD SWAP1 PUSH1 0x2 EXP MUL DUP7 OR SWAP6 POP DUP6 DUP4 DUP5 MLOAD DUP2 MLOAD DUP2 LT ISZERO ISZERO PUSH2 0x1ABA JUMPI INVALID JUMPDEST SWAP1 PUSH1 0x20 ADD SWAP1 PUSH1 0x20 MUL ADD DUP2 DUP2 MSTORE POP POP DUP8 PUSH1 0x1 PUSH1 0x0 DUP10 DUP2 MSTORE PUSH1 0x20 ADD SWAP1 DUP2 MSTORE PUSH1 0x20 ADD PUSH1 0x0 KECCAK256 PUSH1 0x0 DUP3 ADD MLOAD DUP2 PUSH1 0x0 ADD PUSH1 0x0 PUSH2 0x100 EXP DUP2 SLOAD DUP2 PUSH16 0xFFFFFFFFFFFFFFFFFFFFFFFFFFFFFFFF MUL NOT AND SWAP1 DUP4 PUSH16 0xFFFFFFFFFFFFFFFFFFFFFFFFFFFFFFFF AND MUL OR SWAP1 SSTORE POP PUSH1 0x20 DUP3 ADD MLOAD DUP2 PUSH1 0x0 ADD PUSH1 0x10 PUSH2 0x100 EXP DUP2 SLOAD DUP2 PUSH4 0xFFFFFFFF MUL NOT AND SWAP1 DUP4 PUSH4 0xFFFFFFFF AND MUL OR SWAP1 SSTORE POP PUSH1 0x40 DUP3 ADD MLOAD DUP2 PUSH1 0x0 ADD PUSH1 0x14 PUSH2 0x100 EXP DUP2 SLOAD DUP2 PUSH4 0xFFFFFFFF MUL NOT AND SWAP1 DUP4 PUSH4 0xFFFFFFFF AND MUL OR SWAP1 SSTORE POP PUSH1 0x60 DUP3 ADD MLOAD DUP2 PUSH1 0x0 ADD PUSH1 0x18 PUSH2 0x100 EXP DUP2 SLOAD DUP2 PUSH4 0xFFFFFFFF MUL NOT AND SWAP1 DUP4 PUSH4 0xFFFFFFFF AND MUL OR SWAP1 SSTORE POP PUSH1 0x80 DUP3 ADD MLOAD DUP2 PUSH1 0x1 ADD SWAP1 PUSH1 0x18 PUSH2 0x1BA7 SWAP3 SWAP2 SWAP1 PUSH2 0x26B5 JUMP JUMPDEST POP SWAP1 POP POP DUP2 DUP1 PUSH1 0x1 ADD SWAP3 POP POP PUSH2 0x16A0 JUMP JUMPDEST DUP13 PUSH32 0x8A82D6B7DBAB5CAFD85CCE94DD8A6F4E8495965C3573D486582E53C6CBFB6BD DUP3 DUP12 PUSH1 0x80 ADD MLOAD MLOAD PUSH1 0x40 MLOAD DUP1 DUP4 DUP2 MSTORE PUSH1 0x20 ADD DUP3 DUP2 MSTORE PUSH1 0x20 ADD SWAP3 POP POP POP PUSH1 0x40 MLOAD DUP1 SWAP2 SUB SWAP1 LOG2 DUP9 PUSH1 0x0 DUP1 DUP16 DUP2 MSTORE PUSH1 0x20 ADD SWAP1 DUP2 MSTORE PUSH1 0x20 ADD PUSH1 0x0 KECCAK256 PUSH1 0x0 DUP3 ADD MLOAD DUP2 PUSH1 0x0 ADD PUSH1 0x0 PUSH2 0x100 EXP DUP2 SLOAD DUP2 PUSH16 0xFFFFFFFFFFFFFFFFFFFFFFFFFFFFFFFF MUL NOT AND SWAP1 DUP4 PUSH16 0xFFFFFFFFFFFFFFFFFFFFFFFFFFFFFFFF AND MUL OR SWAP1 SSTORE POP PUSH1 0x20 DUP3 ADD MLOAD DUP2 PUSH1 0x0 ADD PUSH1 0x10 PUSH2 0x100 EXP DUP2 SLOAD DUP2 PUSH16 0xFFFFFFFFFFFFFFFFFFFFFFFFFFFFFFFF MUL NOT AND SWAP1 DUP4 PUSH16 0xFFFFFFFFFFFFFFFFFFFFFFFFFFFFFFFF AND MUL OR SWAP1 SSTORE POP PUSH1 0x40 DUP3 ADD MLOAD DUP2 PUSH1 0x1 ADD PUSH1 0x0 PUSH2 0x100 EXP DUP2 SLOAD DUP2 PUSH16 0xFFFFFFFFFFFFFFFFFFFFFFFFFFFFFFFF MUL NOT AND SWAP1 DUP4 PUSH16 0xFFFFFFFFFFFFFFFFFFFFFFFFFFFFFFFF AND MUL OR SWAP1 SSTORE POP PUSH1 0x60 DUP3 ADD MLOAD DUP2 PUSH1 0x1 ADD PUSH1 0x10 PUSH2 0x100 EXP DUP2 SLOAD DUP2 PUSH16 0xFFFFFFFFFFFFFFFFFFFFFFFFFFFFFFFF MUL NOT AND SWAP1 DUP4 PUSH16 0xFFFFFFFFFFFFFFFFFFFFFFFFFFFFFFFF AND MUL OR SWAP1 SSTORE POP PUSH1 0x80 DUP3 ADD MLOAD DUP2 PUSH1 0x2 ADD SWAP1 DUP1 MLOAD SWAP1 PUSH1 0x20 ADD SWAP1 PUSH2 0x1D28 SWAP3 SWAP2 SWAP1 PUSH2 0x27D0 JUMP JUMPDEST POP SWAP1 POP POP DUP3 PUSH2 0x1D45 DUP3 DUP12 PUSH1 0x80 ADD MLOAD MLOAD PUSH2 0x25AF SWAP1 SWAP2 SWAP1 PUSH4 0xFFFFFFFF AND JUMP JUMPDEST SWAP11 POP SWAP11 POP POP POP POP POP POP POP POP POP POP SWAP3 POP SWAP3 SWAP1 POP JUMP JUMPDEST PUSH1 0x0 PUSH1 0x2 PUSH1 0x0 SWAP1 SLOAD SWAP1 PUSH2 0x100 EXP SWAP1 DIV PUSH20 0xFFFFFFFFFFFFFFFFFFFFFFFFFFFFFFFFFFFFFFFF AND PUSH20 0xFFFFFFFFFFFFFFFFFFFFFFFFFFFFFFFFFFFFFFFF AND CALLER PUSH20 0xFFFFFFFFFFFFFFFFFFFFFFFFFFFFFFFFFFFFFFFF AND EQ ISZERO ISZERO PUSH2 0x1E20 JUMPI PUSH1 0x40 MLOAD PUSH32 0x8C379A000000000000000000000000000000000000000000000000000000000 DUP2 MSTORE PUSH1 0x4 ADD DUP1 DUP1 PUSH1 0x20 ADD DUP3 DUP2 SUB DUP3 MSTORE PUSH1 0x20 DUP2 MSTORE PUSH1 0x20 ADD DUP1 PUSH32 0x4F776E65722054696D65416C6C792073686F756C642062652063616C6C696E67 DUP2 MSTORE POP PUSH1 0x20 ADD SWAP2 POP POP PUSH1 0x40 MLOAD DUP1 SWAP2 SUB SWAP1 REVERT JUMPDEST PUSH1 0x0 DUP1 PUSH1 0x0 SWAP1 POP JUMPDEST DUP4 DUP2 GT ISZERO ISZERO PUSH2 0x1E96 JUMPI PUSH2 0x1E87 PUSH1 0x0 DUP1 DUP4 DUP2 MSTORE PUSH1 0x20 ADD SWAP1 DUP2 MSTORE PUSH1 0x20 ADD PUSH1 0x0 KECCAK256 PUSH1 0x0 ADD PUSH1 0x10 SWAP1 SLOAD SWAP1 PUSH2 0x100 EXP SWAP1 DIV PUSH16 0xFFFFFFFFFFFFFFFFFFFFFFFFFFFFFFFF AND PUSH16 0xFFFFFFFFFFFFFFFFFFFFFFFFFFFFFFFF AND DUP4 PUSH2 0x25D1 SWAP1 SWAP2 SWAP1 PUSH4 0xFFFFFFFF AND JUMP JUMPDEST SWAP2 POP DUP1 DUP1 PUSH1 0x1 ADD SWAP2 POP POP PUSH2 0x1E28 JUMP JUMPDEST PUSH32 0xF77FA968B82936DC0480F623FAEEA411245C1D9F74FFD0530D6CA303943B3DF4 DUP3 PUSH1 0x40 MLOAD DUP1 DUP3 DUP2 MSTORE PUSH1 0x20 ADD SWAP2 POP POP PUSH1 0x40 MLOAD DUP1 SWAP2 SUB SWAP1 LOG1 PUSH1 0x0 DUP3 GT ISZERO ISZERO PUSH2 0x1EDC JUMPI PUSH1 0x0 DUP1 REVERT JUMPDEST PUSH1 0x0 SWAP1 POP JUMPDEST DUP4 DUP2 GT ISZERO ISZERO PUSH2 0x218C JUMPI PUSH1 0x0 DUP1 PUSH1 0x0 DUP4 DUP2 MSTORE PUSH1 0x20 ADD SWAP1 DUP2 MSTORE PUSH1 0x20 ADD PUSH1 0x0 KECCAK256 PUSH1 0x0 ADD PUSH1 0x10 SWAP1 SLOAD SWAP1 PUSH2 0x100 EXP SWAP1 DIV PUSH16 0xFFFFFFFFFFFFFFFFFFFFFFFFFFFFFFFF AND PUSH16 0xFFFFFFFFFFFFFFFFFFFFFFFFFFFFFFFF AND EQ ISZERO PUSH2 0x1F88 JUMPI PUSH1 0x0 DUP1 PUSH1 0x0 DUP4 DUP2 MSTORE PUSH1 0x20 ADD SWAP1 DUP2 MSTORE PUSH1 0x20 ADD PUSH1 0x0 KECCAK256 PUSH1 0x0 ADD PUSH1 0x0 PUSH2 0x100 EXP DUP2 SLOAD DUP2 PUSH16 0xFFFFFFFFFFFFFFFFFFFFFFFFFFFFFFFF MUL NOT AND SWAP1 DUP4 PUSH16 0xFFFFFFFFFFFFFFFFFFFFFFFFFFFFFFFF AND MUL OR SWAP1 SSTORE POP PUSH2 0x20B9 JUMP JUMPDEST PUSH2 0x1FF0 DUP3 PUSH2 0x1FE2 DUP8 PUSH1 0x0 DUP1 DUP7 DUP2 MSTORE PUSH1 0x20 ADD SWAP1 DUP2 MSTORE PUSH1 0x20 ADD PUSH1 0x0 KECCAK256 PUSH1 0x0 ADD PUSH1 0x10 SWAP1 SLOAD SWAP1 PUSH2 0x100 EXP SWAP1 DIV PUSH16 0xFFFFFFFFFFFFFFFFFFFFFFFFFFFFFFFF AND PUSH16 0xFFFFFFFFFFFFFFFFFFFFFFFFFFFFFFFF AND PUSH2 0x261C SWAP1 SWAP2 SWAP1 PUSH4 0xFFFFFFFF AND JUMP JUMPDEST PUSH2 0x25F2 SWAP1 SWAP2 SWAP1 PUSH4 0xFFFFFFFF AND JUMP JUMPDEST PUSH1 0x0 DUP1 DUP4 DUP2 MSTORE PUSH1 0x20 ADD SWAP1 DUP2 MSTORE PUSH1 0x20 ADD PUSH1 0x0 KECCAK256 PUSH1 0x0 ADD PUSH1 0x0 PUSH2 0x100 EXP DUP2 SLOAD DUP2 PUSH16 0xFFFFFFFFFFFFFFFFFFFFFFFFFFFFFFFF MUL NOT AND SWAP1 DUP4 PUSH16 0xFFFFFFFFFFFFFFFFFFFFFFFFFFFFFFFF AND MUL OR SWAP1 SSTORE POP PUSH1 0x0 DUP1 DUP3 DUP2 MSTORE PUSH1 0x20 ADD SWAP1 DUP2 MSTORE PUSH1 0x20 ADD PUSH1 0x0 KECCAK256 PUSH1 0x0 ADD PUSH1 0x10 SWAP1 SLOAD SWAP1 PUSH2 0x100 EXP SWAP1 DIV PUSH16 0xFFFFFFFFFFFFFFFFFFFFFFFFFFFFFFFF AND PUSH1 0x0 DUP1 DUP4 DUP2 MSTORE PUSH1 0x20 ADD SWAP1 DUP2 MSTORE PUSH1 0x20 ADD PUSH1 0x0 KECCAK256 PUSH1 0x1 ADD PUSH1 0x0 PUSH2 0x100 EXP DUP2 SLOAD DUP2 PUSH16 0xFFFFFFFFFFFFFFFFFFFFFFFFFFFFFFFF MUL NOT AND SWAP1 DUP4 PUSH16 0xFFFFFFFFFFFFFFFFFFFFFFFFFFFFFFFF AND MUL OR SWAP1 SSTORE POP JUMPDEST DUP1 PUSH32 0xCD26E91C568AC4316DCE91615897B0CF6ADEB79E220880FE9DAFAAD25452D89 PUSH1 0x0 DUP1 DUP5 DUP2 MSTORE PUSH1 0x20 ADD SWAP1 DUP2 MSTORE PUSH1 0x20 ADD PUSH1 0x0 KECCAK256 PUSH1 0x0 ADD PUSH1 0x10 SWAP1 SLOAD SWAP1 PUSH2 0x100 EXP SWAP1 DIV PUSH16 0xFFFFFFFFFFFFFFFFFFFFFFFFFFFFFFFF AND PUSH16 0xFFFFFFFFFFFFFFFFFFFFFFFFFFFFFFFF AND PUSH1 0x0 DUP1 DUP6 DUP2 MSTORE PUSH1 0x20 ADD SWAP1 DUP2 MSTORE PUSH1 0x20 ADD PUSH1 0x0 KECCAK256 PUSH1 0x0 ADD PUSH1 0x0 SWAP1 SLOAD SWAP1 PUSH2 0x100 EXP SWAP1 DIV PUSH16 0xFFFFFFFFFFFFFFFFFFFFFFFFFFFFFFFF AND PUSH16 0xFFFFFFFFFFFFFFFFFFFFFFFFFFFFFFFF AND PUSH1 0x40 MLOAD DUP1 DUP4 DUP2 MSTORE PUSH1 0x20 ADD DUP3 DUP2 MSTORE PUSH1 0x20 ADD SWAP3 POP POP POP PUSH1 0x40 MLOAD DUP1 SWAP2 SUB SWAP1 LOG2 DUP1 DUP1 PUSH1 0x1 ADD SWAP2 POP POP PUSH2 0x1EE1 JUMP JUMPDEST PUSH1 0x0 PUSH2 0x21F8 PUSH1 0xF PUSH2 0x21EA PUSH1 0x2 PUSH1 0x0 DUP1 DUP1 DUP2 MSTORE PUSH1 0x20 ADD SWAP1 DUP2 MSTORE PUSH1 0x20 ADD PUSH1 0x0 KECCAK256 PUSH1 0x0 ADD PUSH1 0x0 SWAP1 SLOAD SWAP1 PUSH2 0x100 EXP SWAP1 DIV PUSH16 0xFFFFFFFFFFFFFFFFFFFFFFFFFFFFFFFF AND PUSH16 0xFFFFFFFFFFFFFFFFFFFFFFFFFFFFFFFF AND PUSH2 0x261C SWAP1 SWAP2 SWAP1 PUSH4 0xFFFFFFFF AND JUMP JUMPDEST PUSH2 0x25F2 SWAP1 SWAP2 SWAP1 PUSH4 0xFFFFFFFF AND JUMP JUMPDEST SWAP1 POP PUSH1 0x0 DUP2 EQ ISZERO ISZERO PUSH2 0x22A6 JUMPI PUSH2 0x225A DUP2 PUSH1 0x0 DUP1 DUP1 DUP2 MSTORE PUSH1 0x20 ADD SWAP1 DUP2 MSTORE PUSH1 0x20 ADD PUSH1 0x0 KECCAK256 PUSH1 0x0 ADD PUSH1 0x0 SWAP1 SLOAD SWAP1 PUSH2 0x100 EXP SWAP1 DIV PUSH16 0xFFFFFFFFFFFFFFFFFFFFFFFFFFFFFFFF AND PUSH16 0xFFFFFFFFFFFFFFFFFFFFFFFFFFFFFFFF AND PUSH2 0x25AF SWAP1 SWAP2 SWAP1 PUSH4 0xFFFFFFFF AND JUMP JUMPDEST PUSH1 0x0 DUP1 DUP1 DUP2 MSTORE PUSH1 0x20 ADD SWAP1 DUP2 MSTORE PUSH1 0x20 ADD PUSH1 0x0 KECCAK256 PUSH1 0x0 ADD PUSH1 0x0 PUSH2 0x100 EXP DUP2 SLOAD DUP2 PUSH16 0xFFFFFFFFFFFFFFFFFFFFFFFFFFFFFFFF MUL NOT AND SWAP1 DUP4 PUSH16 0xFFFFFFFFFFFFFFFFFFFFFFFFFFFFFFFF AND MUL OR SWAP1 SSTORE POP JUMPDEST PUSH1 0x0 PUSH32 0xCD26E91C568AC4316DCE91615897B0CF6ADEB79E220880FE9DAFAAD25452D89 PUSH1 0x0 DUP1 DUP1 DUP2 MSTORE PUSH1 0x20 ADD SWAP1 DUP2 MSTORE PUSH1 0x20 ADD PUSH1 0x0 KECCAK256 PUSH1 0x0 ADD PUSH1 0x10 SWAP1 SLOAD SWAP1 PUSH2 0x100 EXP SWAP1 DIV PUSH16 0xFFFFFFFFFFFFFFFFFFFFFFFFFFFFFFFF AND PUSH16 0xFFFFFFFFFFFFFFFFFFFFFFFFFFFFFFFF AND PUSH1 0x0 DUP1 DUP1 DUP2 MSTORE PUSH1 0x20 ADD SWAP1 DUP2 MSTORE PUSH1 0x20 ADD PUSH1 0x0 KECCAK256 PUSH1 0x0 ADD PUSH1 0x0 SWAP1 SLOAD SWAP1 PUSH2 0x100 EXP SWAP1 DIV PUSH16 0xFFFFFFFFFFFFFFFFFFFFFFFFFFFFFFFF AND PUSH16 0xFFFFFFFFFFFFFFFFFFFFFFFFFFFFFFFF AND PUSH1 0x40 MLOAD DUP1 DUP4 DUP2 MSTORE PUSH1 0x20 ADD DUP3 DUP2 MSTORE PUSH1 0x20 ADD SWAP3 POP POP POP PUSH1 0x40 MLOAD DUP1 SWAP2 SUB SWAP1 LOG2 DUP1 SWAP4 POP POP POP POP SWAP3 SWAP2 POP POP JUMP JUMPDEST PUSH1 0x0 DUP1 PUSH1 0x0 DUP1 DUP6 DUP2 MSTORE PUSH1 0x20 ADD SWAP1 DUP2 MSTORE PUSH1 0x20 ADD PUSH1 0x0 KECCAK256 PUSH1 0x0 ADD PUSH1 0x10 SWAP1 SLOAD SWAP1 PUSH2 0x100 EXP SWAP1 DIV PUSH16 0xFFFFFFFFFFFFFFFFFFFFFFFFFFFFFFFF AND PUSH16 0xFFFFFFFFFFFFFFFFFFFFFFFFFFFFFFFF AND EQ ISZERO ISZERO ISZERO PUSH2 0x23CD JUMPI PUSH1 0x0 DUP1 REVERT JUMPDEST PUSH1 0x0 DUP1 DUP5 DUP2 MSTORE PUSH1 0x20 ADD SWAP1 DUP2 MSTORE PUSH1 0x20 ADD PUSH1 0x0 KECCAK256 PUSH1 0x2 ADD DUP1 SLOAD SWAP1 POP DUP3 PUSH4 0xFFFFFFFF AND LT ISZERO ISZERO PUSH2 0x23F9 JUMPI PUSH1 0x0 DUP1 REVERT JUMPDEST PUSH1 0x0 PUSH2 0x2427 PUSH1 0x1 PUSH1 0x0 DUP1 DUP8 DUP2 MSTORE PUSH1 0x20 ADD SWAP1 DUP2 MSTORE PUSH1 0x20 ADD PUSH1 0x0 KECCAK256 PUSH1 0x2 ADD DUP1 SLOAD SWAP1 POP PUSH2 0x25AF SWAP1 SWAP2 SWAP1 PUSH4 0xFFFFFFFF AND JUMP JUMPDEST SWAP1 POP PUSH1 0x0 DUP1 PUSH1 0x0 DUP7 DUP2 MSTORE PUSH1 0x20 ADD SWAP1 DUP2 MSTORE PUSH1 0x20 ADD PUSH1 0x0 KECCAK256 PUSH1 0x2 ADD DUP3 DUP2 SLOAD DUP2 LT ISZERO ISZERO PUSH2 0x244D JUMPI INVALID JUMPDEST SWAP1 PUSH1 0x0 MSTORE PUSH1 0x20 PUSH1 0x0 KECCAK256 SWAP1 PUSH1 0x8 SWAP2 DUP3 DUP3 DIV ADD SWAP2 SWAP1 MOD PUSH1 0x4 MUL SWAP1 SLOAD SWAP1 PUSH2 0x100 EXP SWAP1 DIV PUSH4 0xFFFFFFFF AND SWAP1 POP DUP4 PUSH1 0x1 PUSH1 0x0 DUP4 PUSH4 0xFFFFFFFF AND DUP2 MSTORE PUSH1 0x20 ADD SWAP1 DUP2 MSTORE PUSH1 0x20 ADD PUSH1 0x0 KECCAK256 PUSH1 0x0 ADD PUSH1 0x18 PUSH2 0x100 EXP DUP2 SLOAD DUP2 PUSH4 0xFFFFFFFF MUL NOT AND SWAP1 DUP4 PUSH4 0xFFFFFFFF AND MUL OR SWAP1 SSTORE POP PUSH1 0x0 DUP1 DUP7 DUP2 MSTORE PUSH1 0x20 ADD SWAP1 DUP2 MSTORE PUSH1 0x20 ADD PUSH1 0x0 KECCAK256 PUSH1 0x2 ADD DUP3 DUP2 SLOAD DUP2 LT ISZERO ISZERO PUSH2 0x24D2 JUMPI INVALID JUMPDEST SWAP1 PUSH1 0x0 MSTORE PUSH1 0x20 PUSH1 0x0 KECCAK256 SWAP1 PUSH1 0x8 SWAP2 DUP3 DUP3 DIV ADD SWAP2 SWAP1 MOD PUSH1 0x4 MUL SWAP1 SLOAD SWAP1 PUSH2 0x100 EXP SWAP1 DIV PUSH4 0xFFFFFFFF AND PUSH1 0x0 DUP1 DUP8 DUP2 MSTORE PUSH1 0x20 ADD SWAP1 DUP2 MSTORE PUSH1 0x20 ADD PUSH1 0x0 KECCAK256 PUSH1 0x2 ADD DUP6 PUSH4 0xFFFFFFFF AND DUP2 SLOAD DUP2 LT ISZERO ISZERO PUSH2 0x2520 JUMPI INVALID JUMPDEST SWAP1 PUSH1 0x0 MSTORE PUSH1 0x20 PUSH1 0x0 KECCAK256 SWAP1 PUSH1 0x8 SWAP2 DUP3 DUP3 DIV ADD SWAP2 SWAP1 MOD PUSH1 0x4 MUL PUSH2 0x100 EXP DUP2 SLOAD DUP2 PUSH4 0xFFFFFFFF MUL NOT AND SWAP1 DUP4 PUSH4 0xFFFFFFFF AND MUL OR SWAP1 SSTORE POP PUSH1 0x0 DUP1 DUP7 DUP2 MSTORE PUSH1 0x20 ADD SWAP1 DUP2 MSTORE PUSH1 0x20 ADD PUSH1 0x0 KECCAK256 PUSH1 0x2 ADD DUP1 SLOAD DUP1 ISZERO ISZERO PUSH2 0x2573 JUMPI INVALID JUMPDEST PUSH1 0x1 SWAP1 SUB DUP2 DUP2 SWAP1 PUSH1 0x0 MSTORE PUSH1 0x20 PUSH1 0x0 KECCAK256 SWAP1 PUSH1 0x8 SWAP2 DUP3 DUP3 DIV ADD SWAP2 SWAP1 MOD PUSH1 0x4 MUL PUSH2 0x100 EXP DUP2 SLOAD SWAP1 PUSH4 0xFFFFFFFF MUL NOT AND SWAP1 SSTORE SWAP1 SSTORE PUSH1 0x1 SWAP3 POP POP POP SWAP3 SWAP2 POP POP JUMP JUMPDEST PUSH1 0x0 DUP3 DUP3 GT ISZERO ISZERO ISZERO PUSH2 0x25C0 JUMPI PUSH1 0x0 DUP1 REVERT JUMPDEST PUSH1 0x0 DUP3 DUP5 SUB SWAP1 POP DUP1 SWAP2 POP POP SWAP3 SWAP2 POP POP JUMP JUMPDEST PUSH1 0x0 DUP1 DUP3 DUP5 ADD SWAP1 POP DUP4 DUP2 LT ISZERO ISZERO ISZERO PUSH2 0x25E8 JUMPI PUSH1 0x0 DUP1 REVERT JUMPDEST DUP1 SWAP2 POP POP SWAP3 SWAP2 POP POP JUMP JUMPDEST PUSH1 0x0 DUP1 DUP3 GT ISZERO ISZERO PUSH2 0x2602 JUMPI PUSH1 0x0 DUP1 REVERT JUMPDEST PUSH1 0x0 DUP3 DUP5 DUP2 ISZERO ISZERO PUSH2 0x260F JUMPI INVALID JUMPDEST DIV SWAP1 POP DUP1 SWAP2 POP POP SWAP3 SWAP2 POP POP JUMP JUMPDEST PUSH1 0x0 DUP1 DUP4 EQ ISZERO PUSH2 0x262F JUMPI PUSH1 0x0 SWAP1 POP PUSH2 0x2654 JUMP JUMPDEST PUSH1 0x0 DUP3 DUP5 MUL SWAP1 POP DUP3 DUP5 DUP3 DUP2 ISZERO ISZERO PUSH2 0x2642 JUMPI INVALID JUMPDEST DIV EQ ISZERO ISZERO PUSH2 0x264F JUMPI PUSH1 0x0 DUP1 REVERT JUMPDEST DUP1 SWAP2 POP POP JUMPDEST SWAP3 SWAP2 POP POP JUMP JUMPDEST PUSH2 0x380 PUSH1 0x40 MLOAD SWAP1 DUP2 ADD PUSH1 0x40 MSTORE DUP1 PUSH1 0x0 PUSH16 0xFFFFFFFFFFFFFFFFFFFFFFFFFFFFFFFF AND DUP2 MSTORE PUSH1 0x20 ADD PUSH1 0x0 PUSH4 0xFFFFFFFF AND DUP2 MSTORE PUSH1 0x20 ADD PUSH1 0x0 PUSH4 0xFFFFFFFF AND DUP2 MSTORE PUSH1 0x20 ADD PUSH1 0x0 PUSH4 0xFFFFFFFF AND DUP2 MSTORE PUSH1 0x20 ADD PUSH2 0x26AF PUSH2 0x2880 JUMP JUMPDEST DUP2 MSTORE POP SWAP1 JUMP JUMPDEST DUP3 PUSH1 0x18 PUSH1 0x7 ADD PUSH1 0x8 SWAP1 DIV DUP2 ADD SWAP3 DUP3 ISZERO PUSH2 0x2747 JUMPI SWAP2 PUSH1 0x20 MUL DUP3 ADD PUSH1 0x0 JUMPDEST DUP4 DUP3 GT ISZERO PUSH2 0x2715 JUMPI DUP4 MLOAD DUP4 DUP3 PUSH2 0x100 EXP DUP2 SLOAD DUP2 PUSH4 0xFFFFFFFF MUL NOT AND SWAP1 DUP4 PUSH4 0xFFFFFFFF AND MUL OR SWAP1 SSTORE POP SWAP3 PUSH1 0x20 ADD SWAP3 PUSH1 0x4 ADD PUSH1 0x20 DUP2 PUSH1 0x3 ADD DIV SWAP3 DUP4 ADD SWAP3 PUSH1 0x1 SUB MUL PUSH2 0x26D1 JUMP JUMPDEST DUP1 ISZERO PUSH2 0x2745 JUMPI DUP3 DUP2 PUSH2 0x100 EXP DUP2 SLOAD SWAP1 PUSH4 0xFFFFFFFF MUL NOT AND SWAP1 SSTORE PUSH1 0x4 ADD PUSH1 0x20 DUP2 PUSH1 0x3 ADD DIV SWAP3 DUP4 ADD SWAP3 PUSH1 0x1 SUB MUL PUSH2 0x2715 JUMP JUMPDEST POP JUMPDEST POP SWAP1 POP PUSH2 0x2754 SWAP2 SWAP1 PUSH2 0x28A4 JUMP JUMPDEST POP SWAP1 JUMP JUMPDEST PUSH1 0xA0 PUSH1 0x40 MLOAD SWAP1 DUP2 ADD PUSH1 0x40 MSTORE DUP1 PUSH1 0x0 PUSH16 0xFFFFFFFFFFFFFFFFFFFFFFFFFFFFFFFF AND DUP2 MSTORE PUSH1 0x20 ADD PUSH1 0x0 PUSH16 0xFFFFFFFFFFFFFFFFFFFFFFFFFFFFFFFF AND DUP2 MSTORE PUSH1 0x20 ADD PUSH1 0x0 PUSH16 0xFFFFFFFFFFFFFFFFFFFFFFFFFFFFFFFF AND DUP2 MSTORE PUSH1 0x20 ADD PUSH1 0x0 PUSH16 0xFFFFFFFFFFFFFFFFFFFFFFFFFFFFFFFF AND DUP2 MSTORE PUSH1 0x20 ADD PUSH1 0x60 DUP2 MSTORE POP SWAP1 JUMP JUMPDEST DUP3 DUP1 SLOAD DUP3 DUP3 SSTORE SWAP1 PUSH1 0x0 MSTORE PUSH1 0x20 PUSH1 0x0 KECCAK256 SWAP1 PUSH1 0x7 ADD PUSH1 0x8 SWAP1 DIV DUP2 ADD SWAP3 DUP3 ISZERO PUSH2 0x286F JUMPI SWAP2 PUSH1 0x20 MUL DUP3 ADD PUSH1 0x0 JUMPDEST DUP4 DUP3 GT ISZERO PUSH2 0x283D JUMPI DUP4 MLOAD DUP4 DUP3 PUSH2 0x100 EXP DUP2 SLOAD DUP2 PUSH4 0xFFFFFFFF MUL NOT AND SWAP1 DUP4 PUSH4 0xFFFFFFFF AND MUL OR SWAP1 SSTORE POP SWAP3 PUSH1 0x20 ADD SWAP3 PUSH1 0x4 ADD PUSH1 0x20 DUP2 PUSH1 0x3 ADD DIV SWAP3 DUP4 ADD SWAP3 PUSH1 0x1 SUB MUL PUSH2 0x27F9 JUMP JUMPDEST DUP1 ISZERO PUSH2 0x286D JUMPI DUP3 DUP2 PUSH2 0x100 EXP DUP2 SLOAD SWAP1 PUSH4 0xFFFFFFFF MUL NOT AND SWAP1 SSTORE PUSH1 0x4 ADD PUSH1 0x20 DUP2 PUSH1 0x3 ADD DIV SWAP3 DUP4 ADD SWAP3 PUSH1 0x1 SUB MUL PUSH2 0x283D JUMP JUMPDEST POP JUMPDEST POP SWAP1 POP PUSH2 0x287C SWAP2 SWAP1 PUSH2 0x28A4 JUMP JUMPDEST POP SWAP1 JUMP JUMPDEST PUSH2 0x300 PUSH1 0x40 MLOAD SWAP1 DUP2 ADD PUSH1 0x40 MSTORE DUP1 PUSH1 0x18 SWAP1 PUSH1 0x20 DUP3 MUL DUP1 CODESIZE DUP4 CODECOPY DUP1 DUP3 ADD SWAP2 POP POP SWAP1 POP POP SWAP1 JUMP JUMPDEST PUSH2 0x28D4 SWAP2 SWAP1 JUMPDEST DUP1 DUP3 GT ISZERO PUSH2 0x28D0 JUMPI PUSH1 0x0 DUP2 DUP2 PUSH2 0x100 EXP DUP2 SLOAD SWAP1 PUSH4 0xFFFFFFFF MUL NOT AND SWAP1 SSTORE POP PUSH1 0x1 ADD PUSH2 0x28AA JUMP JUMPDEST POP SWAP1 JUMP JUMPDEST SWAP1 JUMP INVALID LOG1 PUSH6 0x627A7A723058 KECCAK256 LOG0 0xd5 0xd7 EXTCODECOPY 0xe9 DUP9 PUSH2 0x875 DUP2 DUP4 0x2b DUP6 DUP14 PUSH23 0xE844676A66BEA7A0797464C24C245D268B002900000000 "},"gasEstimates":{"creation":{"codeDepositCost":"2099800","executionCost":"22615","totalCost":"2122415"},"external":{"addStake(uint256,uint256,uint256,uint256)":"infinite","batchAddStake(uint256,uint256,uint256,uint256,uint256[])":"infinite","monthlyNRTHandler(uint256,uint256)":"infinite","monthlyPlanHandler(uint256,uint256)":"infinite","pause(uint256,uint256)":"infinite","plans(uint256)":"1592","resume(uint256,uint256)":"infinite","stakes(uint256)":"1686","timeAlly()":"525","viewStake(uint256)":"1728","viewStakedAmount(uint256)":"907"},"internal":{"deleteActivePlanListElement(uint256,uint32)":"infinite"}},"methodIdentifiers":{"addStake(uint256,uint256,uint256,uint256)":"c2149cf9","batchAddStake(uint256,uint256,uint256,uint256,uint256[])":"6850bfe8","monthlyNRTHandler(uint256,uint256)":"de33ec32","monthlyPlanHandler(uint256,uint256)":"d83f0115","pause(uint256,uint256)":"2d215518","plans(uint256)":"b1620616","resume(uint256,uint256)":"3f7f6ce2","stakes(uint256)":"d5a44f86","timeAlly()":"682667a9","viewStake(uint256)":"23691677","viewStakedAmount(uint256)":"9ae765f4"}},"userdoc":{"methods":{}}}